{
	"contracts/Found.sol": {
		"CrowdFunding": {
			"abi": [
				{
					"inputs": [
						{
							"internalType": "string",
							"name": "_projectId",
							"type": "string"
						},
						{
							"internalType": "string",
							"name": "_projectName",
							"type": "string"
						},
						{
							"internalType": "string",
							"name": "_projectDescription",
							"type": "string"
						},
						{
							"internalType": "uint256",
							"name": "_goalFounds",
							"type": "uint256"
						}
					],
					"stateMutability": "nonpayable",
					"type": "constructor"
				},
				{
					"inputs": [
						{
							"internalType": "string",
							"name": "description",
							"type": "string"
						},
						{
							"internalType": "uint256",
							"name": "goal",
							"type": "uint256"
						}
					],
					"name": "GoalReached",
					"type": "error"
				},
				{
					"anonymous": false,
					"inputs": [
						{
							"indexed": false,
							"internalType": "address",
							"name": "editor",
							"type": "address"
						},
						{
							"indexed": false,
							"internalType": "enum CrowdFunding.State",
							"name": "currentStatus",
							"type": "uint8"
						}
					],
					"name": "ChangeStatus",
					"type": "event"
				},
				{
					"anonymous": false,
					"inputs": [
						{
							"indexed": false,
							"internalType": "address",
							"name": "funder",
							"type": "address"
						},
						{
							"indexed": false,
							"internalType": "uint256",
							"name": "value",
							"type": "uint256"
						},
						{
							"indexed": false,
							"internalType": "uint256",
							"name": "currentFunds",
							"type": "uint256"
						}
					],
					"name": "FundingProject",
					"type": "event"
				},
				{
					"inputs": [
						{
							"internalType": "enum CrowdFunding.State",
							"name": "newState",
							"type": "uint8"
						}
					],
					"name": "changeState",
					"outputs": [],
					"stateMutability": "nonpayable",
					"type": "function"
				},
				{
					"inputs": [],
					"name": "fundProject",
					"outputs": [],
					"stateMutability": "payable",
					"type": "function"
				},
				{
					"inputs": [],
					"name": "getFunds",
					"outputs": [
						{
							"internalType": "uint256",
							"name": "",
							"type": "uint256"
						}
					],
					"stateMutability": "view",
					"type": "function"
				},
				{
					"inputs": [],
					"name": "getGoal",
					"outputs": [
						{
							"internalType": "uint256",
							"name": "",
							"type": "uint256"
						}
					],
					"stateMutability": "view",
					"type": "function"
				},
				{
					"inputs": [],
					"name": "getStatus",
					"outputs": [
						{
							"internalType": "enum CrowdFunding.State",
							"name": "",
							"type": "uint8"
						}
					],
					"stateMutability": "view",
					"type": "function"
				}
			],
			"devdoc": {
				"kind": "dev",
				"methods": {},
				"version": 1
			},
			"evm": {
				"assembly": "    /* \"contracts/Found.sol\":70:2197  contract CrowdFunding {... */\n  mstore(0x40, 0x80)\n    /* \"contracts/Found.sol\":410:690  constructor (string memory _projectId, string memory _projectName, string memory _projectDescription, uint256 _goalFounds){... */\n  callvalue\n  dup1\n  iszero\n  tag_1\n  jumpi\n  0x00\n  dup1\n  revert\ntag_1:\n  pop\n  mload(0x40)\n  sub(codesize, bytecodeSize)\n  dup1\n  bytecodeSize\n  dup4\n  codecopy\n  dup2\n  dup2\n  add\n  0x40\n  mstore\n  dup2\n  add\n  swap1\n  tag_2\n  swap2\n  swap1\n  tag_3\n  jump\t// in\ntag_2:\n    /* \"contracts/Found.sol\":553:682  Project(... */\n  mload(0x40)\n  dup1\n  0xe0\n  add\n  0x40\n  mstore\n  dup1\n    /* \"contracts/Found.sol\":575:585  _projectId */\n  dup6\n    /* \"contracts/Found.sol\":553:682  Project(... */\n  dup2\n  mstore\n  0x20\n  add\n    /* \"contracts/Found.sol\":587:599  _projectName */\n  dup5\n    /* \"contracts/Found.sol\":553:682  Project(... */\n  dup2\n  mstore\n  0x20\n  add\n    /* \"contracts/Found.sol\":601:620  _projectDescription */\n  dup4\n    /* \"contracts/Found.sol\":553:682  Project(... */\n  dup2\n  mstore\n  0x20\n  add\n    /* \"contracts/Found.sol\":622:634  State.Active */\n  0x00\n    /* \"contracts/Found.sol\":553:682  Project(... */\n  0x01\n  dup2\n  gt\n  iszero\n  tag_6\n  jumpi\n  tag_7\n  tag_8\n  jump\t// in\ntag_7:\ntag_6:\n  dup2\n  mstore\n  0x20\n  add\n    /* \"contracts/Found.sol\":636:637  0 */\n  0x00\n    /* \"contracts/Found.sol\":553:682  Project(... */\n  dup2\n  mstore\n  0x20\n  add\n    /* \"contracts/Found.sol\":639:650  _goalFounds */\n  dup3\n    /* \"contracts/Found.sol\":553:682  Project(... */\n  dup2\n  mstore\n  0x20\n  add\n    /* \"contracts/Found.sol\":660:670  msg.sender */\n  caller\n    /* \"contracts/Found.sol\":553:682  Project(... */\n  0xffffffffffffffffffffffffffffffffffffffff\n  and\n  dup2\n  mstore\n  pop\n    /* \"contracts/Found.sol\":543:550  project */\n  0x00\n    /* \"contracts/Found.sol\":543:682  project = Project(... */\n  dup1\n  dup3\n  add\n  mload\n  dup2\n  0x00\n  add\n  swap1\n  dup2\n  tag_9\n  swap2\n  swap1\n  tag_10\n  jump\t// in\ntag_9:\n  pop\n  0x20\n  dup3\n  add\n  mload\n  dup2\n  0x01\n  add\n  swap1\n  dup2\n  tag_11\n  swap2\n  swap1\n  tag_10\n  jump\t// in\ntag_11:\n  pop\n  0x40\n  dup3\n  add\n  mload\n  dup2\n  0x02\n  add\n  swap1\n  dup2\n  tag_12\n  swap2\n  swap1\n  tag_10\n  jump\t// in\ntag_12:\n  pop\n  0x60\n  dup3\n  add\n  mload\n  dup2\n  0x03\n  add\n  exp(0x0100, 0x00)\n  dup2\n  sload\n  dup2\n  0xff\n  mul\n  not\n  and\n  swap1\n  dup4\n  0x01\n  dup2\n  gt\n  iszero\n  tag_13\n  jumpi\n  tag_14\n  tag_8\n  jump\t// in\ntag_14:\ntag_13:\n  mul\n  or\n  swap1\n  sstore\n  pop\n  0x80\n  dup3\n  add\n  mload\n  dup2\n  0x04\n  add\n  sstore\n  0xa0\n  dup3\n  add\n  mload\n  dup2\n  0x05\n  add\n  sstore\n  0xc0\n  dup3\n  add\n  mload\n  dup2\n  0x06\n  add\n  exp(0x0100, 0x00)\n  dup2\n  sload\n  dup2\n  0xffffffffffffffffffffffffffffffffffffffff\n  mul\n  not\n  and\n  swap1\n  dup4\n  0xffffffffffffffffffffffffffffffffffffffff\n  and\n  mul\n  or\n  swap1\n  sstore\n  pop\n  swap1\n  pop\n  pop\n    /* \"contracts/Found.sol\":410:690  constructor (string memory _projectId, string memory _projectName, string memory _projectDescription, uint256 _goalFounds){... */\n  pop\n  pop\n  pop\n  pop\n    /* \"contracts/Found.sol\":70:2197  contract CrowdFunding {... */\n  jump(tag_15)\n    /* \"#utility.yul\":7:82   */\ntag_16:\n    /* \"#utility.yul\":40:46   */\n  0x00\n    /* \"#utility.yul\":73:75   */\n  0x40\n    /* \"#utility.yul\":67:76   */\n  mload\n    /* \"#utility.yul\":57:76   */\n  swap1\n  pop\n    /* \"#utility.yul\":7:82   */\n  swap1\n  jump\t// out\n    /* \"#utility.yul\":88:205   */\ntag_17:\n    /* \"#utility.yul\":197:198   */\n  0x00\n    /* \"#utility.yul\":194:195   */\n  dup1\n    /* \"#utility.yul\":187:199   */\n  revert\n    /* \"#utility.yul\":211:328   */\ntag_18:\n    /* \"#utility.yul\":320:321   */\n  0x00\n    /* \"#utility.yul\":317:318   */\n  dup1\n    /* \"#utility.yul\":310:322   */\n  revert\n    /* \"#utility.yul\":334:451   */\ntag_19:\n    /* \"#utility.yul\":443:444   */\n  0x00\n    /* \"#utility.yul\":440:441   */\n  dup1\n    /* \"#utility.yul\":433:445   */\n  revert\n    /* \"#utility.yul\":457:574   */\ntag_20:\n    /* \"#utility.yul\":566:567   */\n  0x00\n    /* \"#utility.yul\":563:564   */\n  dup1\n    /* \"#utility.yul\":556:568   */\n  revert\n    /* \"#utility.yul\":580:682   */\ntag_21:\n    /* \"#utility.yul\":621:627   */\n  0x00\n    /* \"#utility.yul\":672:674   */\n  0x1f\n    /* \"#utility.yul\":668:675   */\n  not\n    /* \"#utility.yul\":663:665   */\n  0x1f\n    /* \"#utility.yul\":656:661   */\n  dup4\n    /* \"#utility.yul\":652:666   */\n  add\n    /* \"#utility.yul\":648:676   */\n  and\n    /* \"#utility.yul\":638:676   */\n  swap1\n  pop\n    /* \"#utility.yul\":580:682   */\n  swap2\n  swap1\n  pop\n  jump\t// out\n    /* \"#utility.yul\":688:868   */\ntag_22:\n    /* \"#utility.yul\":736:813   */\n  0x4e487b7100000000000000000000000000000000000000000000000000000000\n    /* \"#utility.yul\":733:734   */\n  0x00\n    /* \"#utility.yul\":726:814   */\n  mstore\n    /* \"#utility.yul\":833:837   */\n  0x41\n    /* \"#utility.yul\":830:831   */\n  0x04\n    /* \"#utility.yul\":823:838   */\n  mstore\n    /* \"#utility.yul\":857:861   */\n  0x24\n    /* \"#utility.yul\":854:855   */\n  0x00\n    /* \"#utility.yul\":847:862   */\n  revert\n    /* \"#utility.yul\":874:1155   */\ntag_23:\n    /* \"#utility.yul\":957:984   */\n  tag_59\n    /* \"#utility.yul\":979:983   */\n  dup3\n    /* \"#utility.yul\":957:984   */\n  tag_21\n  jump\t// in\ntag_59:\n    /* \"#utility.yul\":949:955   */\n  dup2\n    /* \"#utility.yul\":945:985   */\n  add\n    /* \"#utility.yul\":1087:1093   */\n  dup2\n    /* \"#utility.yul\":1075:1085   */\n  dup2\n    /* \"#utility.yul\":1072:1094   */\n  lt\n    /* \"#utility.yul\":1051:1069   */\n  0xffffffffffffffff\n    /* \"#utility.yul\":1039:1049   */\n  dup3\n    /* \"#utility.yul\":1036:1070   */\n  gt\n    /* \"#utility.yul\":1033:1095   */\n  or\n    /* \"#utility.yul\":1030:1118   */\n  iszero\n  tag_60\n  jumpi\n    /* \"#utility.yul\":1098:1116   */\n  tag_61\n  tag_22\n  jump\t// in\ntag_61:\n    /* \"#utility.yul\":1030:1118   */\ntag_60:\n    /* \"#utility.yul\":1138:1148   */\n  dup1\n    /* \"#utility.yul\":1134:1136   */\n  0x40\n    /* \"#utility.yul\":1127:1149   */\n  mstore\n    /* \"#utility.yul\":917:1155   */\n  pop\n    /* \"#utility.yul\":874:1155   */\n  pop\n  pop\n  jump\t// out\n    /* \"#utility.yul\":1161:1290   */\ntag_24:\n    /* \"#utility.yul\":1195:1201   */\n  0x00\n    /* \"#utility.yul\":1222:1242   */\n  tag_63\n  tag_16\n  jump\t// in\ntag_63:\n    /* \"#utility.yul\":1212:1242   */\n  swap1\n  pop\n    /* \"#utility.yul\":1251:1284   */\n  tag_64\n    /* \"#utility.yul\":1279:1283   */\n  dup3\n    /* \"#utility.yul\":1271:1277   */\n  dup3\n    /* \"#utility.yul\":1251:1284   */\n  tag_23\n  jump\t// in\ntag_64:\n    /* \"#utility.yul\":1161:1290   */\n  swap2\n  swap1\n  pop\n  jump\t// out\n    /* \"#utility.yul\":1296:1604   */\ntag_25:\n    /* \"#utility.yul\":1358:1362   */\n  0x00\n    /* \"#utility.yul\":1448:1466   */\n  0xffffffffffffffff\n    /* \"#utility.yul\":1440:1446   */\n  dup3\n    /* \"#utility.yul\":1437:1467   */\n  gt\n    /* \"#utility.yul\":1434:1490   */\n  iszero\n  tag_66\n  jumpi\n    /* \"#utility.yul\":1470:1488   */\n  tag_67\n  tag_22\n  jump\t// in\ntag_67:\n    /* \"#utility.yul\":1434:1490   */\ntag_66:\n    /* \"#utility.yul\":1508:1537   */\n  tag_68\n    /* \"#utility.yul\":1530:1536   */\n  dup3\n    /* \"#utility.yul\":1508:1537   */\n  tag_21\n  jump\t// in\ntag_68:\n    /* \"#utility.yul\":1500:1537   */\n  swap1\n  pop\n    /* \"#utility.yul\":1592:1596   */\n  0x20\n    /* \"#utility.yul\":1586:1590   */\n  dup2\n    /* \"#utility.yul\":1582:1597   */\n  add\n    /* \"#utility.yul\":1574:1597   */\n  swap1\n  pop\n    /* \"#utility.yul\":1296:1604   */\n  swap2\n  swap1\n  pop\n  jump\t// out\n    /* \"#utility.yul\":1610:1749   */\ntag_26:\n    /* \"#utility.yul\":1699:1705   */\n  dup3\n    /* \"#utility.yul\":1694:1697   */\n  dup2\n    /* \"#utility.yul\":1689:1692   */\n  dup4\n    /* \"#utility.yul\":1683:1706   */\n  mcopy\n    /* \"#utility.yul\":1740:1741   */\n  0x00\n    /* \"#utility.yul\":1731:1737   */\n  dup4\n    /* \"#utility.yul\":1726:1729   */\n  dup4\n    /* \"#utility.yul\":1722:1738   */\n  add\n    /* \"#utility.yul\":1715:1742   */\n  mstore\n    /* \"#utility.yul\":1610:1749   */\n  pop\n  pop\n  pop\n  jump\t// out\n    /* \"#utility.yul\":1755:2189   */\ntag_27:\n    /* \"#utility.yul\":1844:1849   */\n  0x00\n    /* \"#utility.yul\":1869:1935   */\n  tag_71\n    /* \"#utility.yul\":1885:1934   */\n  tag_72\n    /* \"#utility.yul\":1927:1933   */\n  dup5\n    /* \"#utility.yul\":1885:1934   */\n  tag_25\n  jump\t// in\ntag_72:\n    /* \"#utility.yul\":1869:1935   */\n  tag_24\n  jump\t// in\ntag_71:\n    /* \"#utility.yul\":1860:1935   */\n  swap1\n  pop\n    /* \"#utility.yul\":1958:1964   */\n  dup3\n    /* \"#utility.yul\":1951:1956   */\n  dup2\n    /* \"#utility.yul\":1944:1965   */\n  mstore\n    /* \"#utility.yul\":1996:2000   */\n  0x20\n    /* \"#utility.yul\":1989:1994   */\n  dup2\n    /* \"#utility.yul\":1985:2001   */\n  add\n    /* \"#utility.yul\":2034:2037   */\n  dup5\n    /* \"#utility.yul\":2025:2031   */\n  dup5\n    /* \"#utility.yul\":2020:2023   */\n  dup5\n    /* \"#utility.yul\":2016:2032   */\n  add\n    /* \"#utility.yul\":2013:2038   */\n  gt\n    /* \"#utility.yul\":2010:2122   */\n  iszero\n  tag_73\n  jumpi\n    /* \"#utility.yul\":2041:2120   */\n  tag_74\n  tag_20\n  jump\t// in\ntag_74:\n    /* \"#utility.yul\":2010:2122   */\ntag_73:\n    /* \"#utility.yul\":2131:2183   */\n  tag_75\n    /* \"#utility.yul\":2176:2182   */\n  dup5\n    /* \"#utility.yul\":2171:2174   */\n  dup3\n    /* \"#utility.yul\":2166:2169   */\n  dup6\n    /* \"#utility.yul\":2131:2183   */\n  tag_26\n  jump\t// in\ntag_75:\n    /* \"#utility.yul\":1850:2189   */\n  pop\n    /* \"#utility.yul\":1755:2189   */\n  swap4\n  swap3\n  pop\n  pop\n  pop\n  jump\t// out\n    /* \"#utility.yul\":2209:2564   */\ntag_28:\n    /* \"#utility.yul\":2276:2281   */\n  0x00\n    /* \"#utility.yul\":2325:2328   */\n  dup3\n    /* \"#utility.yul\":2318:2322   */\n  0x1f\n    /* \"#utility.yul\":2310:2316   */\n  dup4\n    /* \"#utility.yul\":2306:2323   */\n  add\n    /* \"#utility.yul\":2302:2329   */\n  slt\n    /* \"#utility.yul\":2292:2414   */\n  tag_77\n  jumpi\n    /* \"#utility.yul\":2333:2412   */\n  tag_78\n  tag_19\n  jump\t// in\ntag_78:\n    /* \"#utility.yul\":2292:2414   */\ntag_77:\n    /* \"#utility.yul\":2443:2449   */\n  dup2\n    /* \"#utility.yul\":2437:2450   */\n  mload\n    /* \"#utility.yul\":2468:2558   */\n  tag_79\n    /* \"#utility.yul\":2554:2557   */\n  dup5\n    /* \"#utility.yul\":2546:2552   */\n  dup3\n    /* \"#utility.yul\":2539:2543   */\n  0x20\n    /* \"#utility.yul\":2531:2537   */\n  dup7\n    /* \"#utility.yul\":2527:2544   */\n  add\n    /* \"#utility.yul\":2468:2558   */\n  tag_27\n  jump\t// in\ntag_79:\n    /* \"#utility.yul\":2459:2558   */\n  swap2\n  pop\n    /* \"#utility.yul\":2282:2564   */\n  pop\n    /* \"#utility.yul\":2209:2564   */\n  swap3\n  swap2\n  pop\n  pop\n  jump\t// out\n    /* \"#utility.yul\":2570:2647   */\ntag_29:\n    /* \"#utility.yul\":2607:2614   */\n  0x00\n    /* \"#utility.yul\":2636:2641   */\n  dup2\n    /* \"#utility.yul\":2625:2641   */\n  swap1\n  pop\n    /* \"#utility.yul\":2570:2647   */\n  swap2\n  swap1\n  pop\n  jump\t// out\n    /* \"#utility.yul\":2653:2775   */\ntag_30:\n    /* \"#utility.yul\":2726:2750   */\n  tag_82\n    /* \"#utility.yul\":2744:2749   */\n  dup2\n    /* \"#utility.yul\":2726:2750   */\n  tag_29\n  jump\t// in\ntag_82:\n    /* \"#utility.yul\":2719:2724   */\n  dup2\n    /* \"#utility.yul\":2716:2751   */\n  eq\n    /* \"#utility.yul\":2706:2769   */\n  tag_83\n  jumpi\n    /* \"#utility.yul\":2765:2766   */\n  0x00\n    /* \"#utility.yul\":2762:2763   */\n  dup1\n    /* \"#utility.yul\":2755:2767   */\n  revert\n    /* \"#utility.yul\":2706:2769   */\ntag_83:\n    /* \"#utility.yul\":2653:2775   */\n  pop\n  jump\t// out\n    /* \"#utility.yul\":2781:2924   */\ntag_31:\n    /* \"#utility.yul\":2838:2843   */\n  0x00\n    /* \"#utility.yul\":2869:2875   */\n  dup2\n    /* \"#utility.yul\":2863:2876   */\n  mload\n    /* \"#utility.yul\":2854:2876   */\n  swap1\n  pop\n    /* \"#utility.yul\":2885:2918   */\n  tag_85\n    /* \"#utility.yul\":2912:2917   */\n  dup2\n    /* \"#utility.yul\":2885:2918   */\n  tag_30\n  jump\t// in\ntag_85:\n    /* \"#utility.yul\":2781:2924   */\n  swap3\n  swap2\n  pop\n  pop\n  jump\t// out\n    /* \"#utility.yul\":2930:4269   */\ntag_3:\n    /* \"#utility.yul\":3057:3063   */\n  0x00\n    /* \"#utility.yul\":3065:3071   */\n  dup1\n    /* \"#utility.yul\":3073:3079   */\n  0x00\n    /* \"#utility.yul\":3081:3087   */\n  dup1\n    /* \"#utility.yul\":3130:3133   */\n  0x80\n    /* \"#utility.yul\":3118:3127   */\n  dup6\n    /* \"#utility.yul\":3109:3116   */\n  dup8\n    /* \"#utility.yul\":3105:3128   */\n  sub\n    /* \"#utility.yul\":3101:3134   */\n  slt\n    /* \"#utility.yul\":3098:3218   */\n  iszero\n  tag_87\n  jumpi\n    /* \"#utility.yul\":3137:3216   */\n  tag_88\n  tag_17\n  jump\t// in\ntag_88:\n    /* \"#utility.yul\":3098:3218   */\ntag_87:\n    /* \"#utility.yul\":3278:3279   */\n  0x00\n    /* \"#utility.yul\":3267:3276   */\n  dup6\n    /* \"#utility.yul\":3263:3280   */\n  add\n    /* \"#utility.yul\":3257:3281   */\n  mload\n    /* \"#utility.yul\":3308:3326   */\n  0xffffffffffffffff\n    /* \"#utility.yul\":3300:3306   */\n  dup2\n    /* \"#utility.yul\":3297:3327   */\n  gt\n    /* \"#utility.yul\":3294:3411   */\n  iszero\n  tag_89\n  jumpi\n    /* \"#utility.yul\":3330:3409   */\n  tag_90\n  tag_18\n  jump\t// in\ntag_90:\n    /* \"#utility.yul\":3294:3411   */\ntag_89:\n    /* \"#utility.yul\":3435:3509   */\n  tag_91\n    /* \"#utility.yul\":3501:3508   */\n  dup8\n    /* \"#utility.yul\":3492:3498   */\n  dup3\n    /* \"#utility.yul\":3481:3490   */\n  dup9\n    /* \"#utility.yul\":3477:3499   */\n  add\n    /* \"#utility.yul\":3435:3509   */\n  tag_28\n  jump\t// in\ntag_91:\n    /* \"#utility.yul\":3425:3509   */\n  swap5\n  pop\n    /* \"#utility.yul\":3228:3519   */\n  pop\n    /* \"#utility.yul\":3579:3581   */\n  0x20\n    /* \"#utility.yul\":3568:3577   */\n  dup6\n    /* \"#utility.yul\":3564:3582   */\n  add\n    /* \"#utility.yul\":3558:3583   */\n  mload\n    /* \"#utility.yul\":3610:3628   */\n  0xffffffffffffffff\n    /* \"#utility.yul\":3602:3608   */\n  dup2\n    /* \"#utility.yul\":3599:3629   */\n  gt\n    /* \"#utility.yul\":3596:3713   */\n  iszero\n  tag_92\n  jumpi\n    /* \"#utility.yul\":3632:3711   */\n  tag_93\n  tag_18\n  jump\t// in\ntag_93:\n    /* \"#utility.yul\":3596:3713   */\ntag_92:\n    /* \"#utility.yul\":3737:3811   */\n  tag_94\n    /* \"#utility.yul\":3803:3810   */\n  dup8\n    /* \"#utility.yul\":3794:3800   */\n  dup3\n    /* \"#utility.yul\":3783:3792   */\n  dup9\n    /* \"#utility.yul\":3779:3801   */\n  add\n    /* \"#utility.yul\":3737:3811   */\n  tag_28\n  jump\t// in\ntag_94:\n    /* \"#utility.yul\":3727:3811   */\n  swap4\n  pop\n    /* \"#utility.yul\":3529:3821   */\n  pop\n    /* \"#utility.yul\":3881:3883   */\n  0x40\n    /* \"#utility.yul\":3870:3879   */\n  dup6\n    /* \"#utility.yul\":3866:3884   */\n  add\n    /* \"#utility.yul\":3860:3885   */\n  mload\n    /* \"#utility.yul\":3912:3930   */\n  0xffffffffffffffff\n    /* \"#utility.yul\":3904:3910   */\n  dup2\n    /* \"#utility.yul\":3901:3931   */\n  gt\n    /* \"#utility.yul\":3898:4015   */\n  iszero\n  tag_95\n  jumpi\n    /* \"#utility.yul\":3934:4013   */\n  tag_96\n  tag_18\n  jump\t// in\ntag_96:\n    /* \"#utility.yul\":3898:4015   */\ntag_95:\n    /* \"#utility.yul\":4039:4113   */\n  tag_97\n    /* \"#utility.yul\":4105:4112   */\n  dup8\n    /* \"#utility.yul\":4096:4102   */\n  dup3\n    /* \"#utility.yul\":4085:4094   */\n  dup9\n    /* \"#utility.yul\":4081:4103   */\n  add\n    /* \"#utility.yul\":4039:4113   */\n  tag_28\n  jump\t// in\ntag_97:\n    /* \"#utility.yul\":4029:4113   */\n  swap3\n  pop\n    /* \"#utility.yul\":3831:4123   */\n  pop\n    /* \"#utility.yul\":4162:4164   */\n  0x60\n    /* \"#utility.yul\":4188:4252   */\n  tag_98\n    /* \"#utility.yul\":4244:4251   */\n  dup8\n    /* \"#utility.yul\":4235:4241   */\n  dup3\n    /* \"#utility.yul\":4224:4233   */\n  dup9\n    /* \"#utility.yul\":4220:4242   */\n  add\n    /* \"#utility.yul\":4188:4252   */\n  tag_31\n  jump\t// in\ntag_98:\n    /* \"#utility.yul\":4178:4252   */\n  swap2\n  pop\n    /* \"#utility.yul\":4133:4262   */\n  pop\n    /* \"#utility.yul\":2930:4269   */\n  swap3\n  swap6\n  swap2\n  swap5\n  pop\n  swap3\n  pop\n  jump\t// out\n    /* \"#utility.yul\":4275:4455   */\ntag_8:\n    /* \"#utility.yul\":4323:4400   */\n  0x4e487b7100000000000000000000000000000000000000000000000000000000\n    /* \"#utility.yul\":4320:4321   */\n  0x00\n    /* \"#utility.yul\":4313:4401   */\n  mstore\n    /* \"#utility.yul\":4420:4424   */\n  0x21\n    /* \"#utility.yul\":4417:4418   */\n  0x04\n    /* \"#utility.yul\":4410:4425   */\n  mstore\n    /* \"#utility.yul\":4444:4448   */\n  0x24\n    /* \"#utility.yul\":4441:4442   */\n  0x00\n    /* \"#utility.yul\":4434:4449   */\n  revert\n    /* \"#utility.yul\":4461:4560   */\ntag_32:\n    /* \"#utility.yul\":4513:4519   */\n  0x00\n    /* \"#utility.yul\":4547:4552   */\n  dup2\n    /* \"#utility.yul\":4541:4553   */\n  mload\n    /* \"#utility.yul\":4531:4553   */\n  swap1\n  pop\n    /* \"#utility.yul\":4461:4560   */\n  swap2\n  swap1\n  pop\n  jump\t// out\n    /* \"#utility.yul\":4566:4746   */\ntag_33:\n    /* \"#utility.yul\":4614:4691   */\n  0x4e487b7100000000000000000000000000000000000000000000000000000000\n    /* \"#utility.yul\":4611:4612   */\n  0x00\n    /* \"#utility.yul\":4604:4692   */\n  mstore\n    /* \"#utility.yul\":4711:4715   */\n  0x22\n    /* \"#utility.yul\":4708:4709   */\n  0x04\n    /* \"#utility.yul\":4701:4716   */\n  mstore\n    /* \"#utility.yul\":4735:4739   */\n  0x24\n    /* \"#utility.yul\":4732:4733   */\n  0x00\n    /* \"#utility.yul\":4725:4740   */\n  revert\n    /* \"#utility.yul\":4752:5072   */\ntag_34:\n    /* \"#utility.yul\":4796:4802   */\n  0x00\n    /* \"#utility.yul\":4833:4834   */\n  0x02\n    /* \"#utility.yul\":4827:4831   */\n  dup3\n    /* \"#utility.yul\":4823:4835   */\n  div\n    /* \"#utility.yul\":4813:4835   */\n  swap1\n  pop\n    /* \"#utility.yul\":4880:4881   */\n  0x01\n    /* \"#utility.yul\":4874:4878   */\n  dup3\n    /* \"#utility.yul\":4870:4882   */\n  and\n    /* \"#utility.yul\":4901:4919   */\n  dup1\n    /* \"#utility.yul\":4891:4972   */\n  tag_103\n  jumpi\n    /* \"#utility.yul\":4957:4961   */\n  0x7f\n    /* \"#utility.yul\":4949:4955   */\n  dup3\n    /* \"#utility.yul\":4945:4962   */\n  and\n    /* \"#utility.yul\":4935:4962   */\n  swap2\n  pop\n    /* \"#utility.yul\":4891:4972   */\ntag_103:\n    /* \"#utility.yul\":5019:5021   */\n  0x20\n    /* \"#utility.yul\":5011:5017   */\n  dup3\n    /* \"#utility.yul\":5008:5022   */\n  lt\n    /* \"#utility.yul\":4988:5006   */\n  dup2\n    /* \"#utility.yul\":4985:5023   */\n  sub\n    /* \"#utility.yul\":4982:5066   */\n  tag_104\n  jumpi\n    /* \"#utility.yul\":5038:5056   */\n  tag_105\n  tag_33\n  jump\t// in\ntag_105:\n    /* \"#utility.yul\":4982:5066   */\ntag_104:\n    /* \"#utility.yul\":4803:5072   */\n  pop\n    /* \"#utility.yul\":4752:5072   */\n  swap2\n  swap1\n  pop\n  jump\t// out\n    /* \"#utility.yul\":5078:5219   */\ntag_35:\n    /* \"#utility.yul\":5127:5131   */\n  0x00\n    /* \"#utility.yul\":5150:5153   */\n  dup2\n    /* \"#utility.yul\":5142:5153   */\n  swap1\n  pop\n    /* \"#utility.yul\":5173:5176   */\n  dup2\n    /* \"#utility.yul\":5170:5171   */\n  0x00\n    /* \"#utility.yul\":5163:5177   */\n  mstore\n    /* \"#utility.yul\":5207:5211   */\n  0x20\n    /* \"#utility.yul\":5204:5205   */\n  0x00\n    /* \"#utility.yul\":5194:5212   */\n  keccak256\n    /* \"#utility.yul\":5186:5212   */\n  swap1\n  pop\n    /* \"#utility.yul\":5078:5219   */\n  swap2\n  swap1\n  pop\n  jump\t// out\n    /* \"#utility.yul\":5225:5318   */\ntag_36:\n    /* \"#utility.yul\":5262:5268   */\n  0x00\n    /* \"#utility.yul\":5309:5311   */\n  0x20\n    /* \"#utility.yul\":5304:5306   */\n  0x1f\n    /* \"#utility.yul\":5297:5302   */\n  dup4\n    /* \"#utility.yul\":5293:5307   */\n  add\n    /* \"#utility.yul\":5289:5312   */\n  div\n    /* \"#utility.yul\":5279:5312   */\n  swap1\n  pop\n    /* \"#utility.yul\":5225:5318   */\n  swap2\n  swap1\n  pop\n  jump\t// out\n    /* \"#utility.yul\":5324:5431   */\ntag_37:\n    /* \"#utility.yul\":5368:5376   */\n  0x00\n    /* \"#utility.yul\":5418:5423   */\n  dup3\n    /* \"#utility.yul\":5412:5416   */\n  dup3\n    /* \"#utility.yul\":5408:5424   */\n  shl\n    /* \"#utility.yul\":5387:5424   */\n  swap1\n  pop\n    /* \"#utility.yul\":5324:5431   */\n  swap3\n  swap2\n  pop\n  pop\n  jump\t// out\n    /* \"#utility.yul\":5437:5830   */\ntag_38:\n    /* \"#utility.yul\":5506:5512   */\n  0x00\n    /* \"#utility.yul\":5556:5557   */\n  0x08\n    /* \"#utility.yul\":5544:5554   */\n  dup4\n    /* \"#utility.yul\":5540:5558   */\n  mul\n    /* \"#utility.yul\":5579:5676   */\n  tag_110\n    /* \"#utility.yul\":5609:5675   */\n  0xffffffffffffffffffffffffffffffffffffffffffffffffffffffffffffffff\n    /* \"#utility.yul\":5598:5607   */\n  dup3\n    /* \"#utility.yul\":5579:5676   */\n  tag_37\n  jump\t// in\ntag_110:\n    /* \"#utility.yul\":5697:5736   */\n  tag_111\n    /* \"#utility.yul\":5727:5735   */\n  dup7\n    /* \"#utility.yul\":5716:5725   */\n  dup4\n    /* \"#utility.yul\":5697:5736   */\n  tag_37\n  jump\t// in\ntag_111:\n    /* \"#utility.yul\":5685:5736   */\n  swap6\n  pop\n    /* \"#utility.yul\":5769:5773   */\n  dup1\n    /* \"#utility.yul\":5765:5774   */\n  not\n    /* \"#utility.yul\":5758:5763   */\n  dup5\n    /* \"#utility.yul\":5754:5775   */\n  and\n    /* \"#utility.yul\":5745:5775   */\n  swap4\n  pop\n    /* \"#utility.yul\":5818:5822   */\n  dup1\n    /* \"#utility.yul\":5808:5816   */\n  dup7\n    /* \"#utility.yul\":5804:5823   */\n  and\n    /* \"#utility.yul\":5797:5802   */\n  dup5\n    /* \"#utility.yul\":5794:5824   */\n  or\n    /* \"#utility.yul\":5784:5824   */\n  swap3\n  pop\n    /* \"#utility.yul\":5513:5830   */\n  pop\n  pop\n    /* \"#utility.yul\":5437:5830   */\n  swap4\n  swap3\n  pop\n  pop\n  pop\n  jump\t// out\n    /* \"#utility.yul\":5836:5896   */\ntag_39:\n    /* \"#utility.yul\":5864:5867   */\n  0x00\n    /* \"#utility.yul\":5885:5890   */\n  dup2\n    /* \"#utility.yul\":5878:5890   */\n  swap1\n  pop\n    /* \"#utility.yul\":5836:5896   */\n  swap2\n  swap1\n  pop\n  jump\t// out\n    /* \"#utility.yul\":5902:6044   */\ntag_40:\n    /* \"#utility.yul\":5952:5961   */\n  0x00\n    /* \"#utility.yul\":5985:6038   */\n  tag_114\n    /* \"#utility.yul\":6003:6037   */\n  tag_115\n    /* \"#utility.yul\":6012:6036   */\n  tag_116\n    /* \"#utility.yul\":6030:6035   */\n  dup5\n    /* \"#utility.yul\":6012:6036   */\n  tag_29\n  jump\t// in\ntag_116:\n    /* \"#utility.yul\":6003:6037   */\n  tag_39\n  jump\t// in\ntag_115:\n    /* \"#utility.yul\":5985:6038   */\n  tag_29\n  jump\t// in\ntag_114:\n    /* \"#utility.yul\":5972:6038   */\n  swap1\n  pop\n    /* \"#utility.yul\":5902:6044   */\n  swap2\n  swap1\n  pop\n  jump\t// out\n    /* \"#utility.yul\":6050:6125   */\ntag_41:\n    /* \"#utility.yul\":6093:6096   */\n  0x00\n    /* \"#utility.yul\":6114:6119   */\n  dup2\n    /* \"#utility.yul\":6107:6119   */\n  swap1\n  pop\n    /* \"#utility.yul\":6050:6125   */\n  swap2\n  swap1\n  pop\n  jump\t// out\n    /* \"#utility.yul\":6131:6400   */\ntag_42:\n    /* \"#utility.yul\":6241:6280   */\n  tag_119\n    /* \"#utility.yul\":6272:6279   */\n  dup4\n    /* \"#utility.yul\":6241:6280   */\n  tag_40\n  jump\t// in\ntag_119:\n    /* \"#utility.yul\":6302:6393   */\n  tag_120\n    /* \"#utility.yul\":6351:6392   */\n  tag_121\n    /* \"#utility.yul\":6375:6391   */\n  dup3\n    /* \"#utility.yul\":6351:6392   */\n  tag_41\n  jump\t// in\ntag_121:\n    /* \"#utility.yul\":6343:6349   */\n  dup5\n    /* \"#utility.yul\":6336:6340   */\n  dup5\n    /* \"#utility.yul\":6330:6341   */\n  sload\n    /* \"#utility.yul\":6302:6393   */\n  tag_38\n  jump\t// in\ntag_120:\n    /* \"#utility.yul\":6296:6300   */\n  dup3\n    /* \"#utility.yul\":6289:6394   */\n  sstore\n    /* \"#utility.yul\":6207:6400   */\n  pop\n    /* \"#utility.yul\":6131:6400   */\n  pop\n  pop\n  pop\n  jump\t// out\n    /* \"#utility.yul\":6406:6479   */\ntag_43:\n    /* \"#utility.yul\":6451:6454   */\n  0x00\n    /* \"#utility.yul\":6406:6479   */\n  swap1\n  jump\t// out\n    /* \"#utility.yul\":6485:6674   */\ntag_44:\n    /* \"#utility.yul\":6562:6594   */\n  tag_124\n  tag_43\n  jump\t// in\ntag_124:\n    /* \"#utility.yul\":6603:6668   */\n  tag_125\n    /* \"#utility.yul\":6661:6667   */\n  dup2\n    /* \"#utility.yul\":6653:6659   */\n  dup5\n    /* \"#utility.yul\":6647:6651   */\n  dup5\n    /* \"#utility.yul\":6603:6668   */\n  tag_42\n  jump\t// in\ntag_125:\n    /* \"#utility.yul\":6538:6674   */\n  pop\n    /* \"#utility.yul\":6485:6674   */\n  pop\n  pop\n  jump\t// out\n    /* \"#utility.yul\":6680:6866   */\ntag_45:\n    /* \"#utility.yul\":6740:6860   */\ntag_127:\n    /* \"#utility.yul\":6757:6760   */\n  dup2\n    /* \"#utility.yul\":6750:6755   */\n  dup2\n    /* \"#utility.yul\":6747:6761   */\n  lt\n    /* \"#utility.yul\":6740:6860   */\n  iszero\n  tag_129\n  jumpi\n    /* \"#utility.yul\":6811:6850   */\n  tag_130\n    /* \"#utility.yul\":6848:6849   */\n  0x00\n    /* \"#utility.yul\":6841:6846   */\n  dup3\n    /* \"#utility.yul\":6811:6850   */\n  tag_44\n  jump\t// in\ntag_130:\n    /* \"#utility.yul\":6784:6785   */\n  0x01\n    /* \"#utility.yul\":6777:6782   */\n  dup2\n    /* \"#utility.yul\":6773:6786   */\n  add\n    /* \"#utility.yul\":6764:6786   */\n  swap1\n  pop\n    /* \"#utility.yul\":6740:6860   */\n  jump(tag_127)\ntag_129:\n    /* \"#utility.yul\":6680:6866   */\n  pop\n  pop\n  jump\t// out\n    /* \"#utility.yul\":6872:7415   */\ntag_46:\n    /* \"#utility.yul\":6973:6975   */\n  0x1f\n    /* \"#utility.yul\":6968:6971   */\n  dup3\n    /* \"#utility.yul\":6965:6976   */\n  gt\n    /* \"#utility.yul\":6962:7408   */\n  iszero\n  tag_132\n  jumpi\n    /* \"#utility.yul\":7007:7045   */\n  tag_133\n    /* \"#utility.yul\":7039:7044   */\n  dup2\n    /* \"#utility.yul\":7007:7045   */\n  tag_35\n  jump\t// in\ntag_133:\n    /* \"#utility.yul\":7091:7120   */\n  tag_134\n    /* \"#utility.yul\":7109:7119   */\n  dup5\n    /* \"#utility.yul\":7091:7120   */\n  tag_36\n  jump\t// in\ntag_134:\n    /* \"#utility.yul\":7081:7089   */\n  dup2\n    /* \"#utility.yul\":7077:7121   */\n  add\n    /* \"#utility.yul\":7274:7276   */\n  0x20\n    /* \"#utility.yul\":7262:7272   */\n  dup6\n    /* \"#utility.yul\":7259:7277   */\n  lt\n    /* \"#utility.yul\":7256:7305   */\n  iszero\n  tag_135\n  jumpi\n    /* \"#utility.yul\":7295:7303   */\n  dup2\n    /* \"#utility.yul\":7280:7303   */\n  swap1\n  pop\n    /* \"#utility.yul\":7256:7305   */\ntag_135:\n    /* \"#utility.yul\":7318:7398   */\n  tag_136\n    /* \"#utility.yul\":7374:7396   */\n  tag_137\n    /* \"#utility.yul\":7392:7395   */\n  dup6\n    /* \"#utility.yul\":7374:7396   */\n  tag_36\n  jump\t// in\ntag_137:\n    /* \"#utility.yul\":7364:7372   */\n  dup4\n    /* \"#utility.yul\":7360:7397   */\n  add\n    /* \"#utility.yul\":7347:7358   */\n  dup3\n    /* \"#utility.yul\":7318:7398   */\n  tag_45\n  jump\t// in\ntag_136:\n    /* \"#utility.yul\":6977:7408   */\n  pop\n  pop\n    /* \"#utility.yul\":6962:7408   */\ntag_132:\n    /* \"#utility.yul\":6872:7415   */\n  pop\n  pop\n  pop\n  jump\t// out\n    /* \"#utility.yul\":7421:7538   */\ntag_47:\n    /* \"#utility.yul\":7475:7483   */\n  0x00\n    /* \"#utility.yul\":7525:7530   */\n  dup3\n    /* \"#utility.yul\":7519:7523   */\n  dup3\n    /* \"#utility.yul\":7515:7531   */\n  shr\n    /* \"#utility.yul\":7494:7531   */\n  swap1\n  pop\n    /* \"#utility.yul\":7421:7538   */\n  swap3\n  swap2\n  pop\n  pop\n  jump\t// out\n    /* \"#utility.yul\":7544:7713   */\ntag_48:\n    /* \"#utility.yul\":7588:7594   */\n  0x00\n    /* \"#utility.yul\":7621:7672   */\n  tag_140\n    /* \"#utility.yul\":7669:7670   */\n  0x00\n    /* \"#utility.yul\":7665:7671   */\n  not\n    /* \"#utility.yul\":7657:7662   */\n  dup5\n    /* \"#utility.yul\":7654:7655   */\n  0x08\n    /* \"#utility.yul\":7650:7663   */\n  mul\n    /* \"#utility.yul\":7621:7672   */\n  tag_47\n  jump\t// in\ntag_140:\n    /* \"#utility.yul\":7617:7673   */\n  not\n    /* \"#utility.yul\":7702:7706   */\n  dup1\n    /* \"#utility.yul\":7696:7700   */\n  dup4\n    /* \"#utility.yul\":7692:7707   */\n  and\n    /* \"#utility.yul\":7682:7707   */\n  swap2\n  pop\n    /* \"#utility.yul\":7595:7713   */\n  pop\n    /* \"#utility.yul\":7544:7713   */\n  swap3\n  swap2\n  pop\n  pop\n  jump\t// out\n    /* \"#utility.yul\":7718:8013   */\ntag_49:\n    /* \"#utility.yul\":7794:7798   */\n  0x00\n    /* \"#utility.yul\":7940:7969   */\n  tag_142\n    /* \"#utility.yul\":7965:7968   */\n  dup4\n    /* \"#utility.yul\":7959:7963   */\n  dup4\n    /* \"#utility.yul\":7940:7969   */\n  tag_48\n  jump\t// in\ntag_142:\n    /* \"#utility.yul\":7932:7969   */\n  swap2\n  pop\n    /* \"#utility.yul\":8002:8005   */\n  dup3\n    /* \"#utility.yul\":7999:8000   */\n  0x02\n    /* \"#utility.yul\":7995:8006   */\n  mul\n    /* \"#utility.yul\":7989:7993   */\n  dup3\n    /* \"#utility.yul\":7986:8007   */\n  or\n    /* \"#utility.yul\":7978:8007   */\n  swap1\n  pop\n    /* \"#utility.yul\":7718:8013   */\n  swap3\n  swap2\n  pop\n  pop\n  jump\t// out\n    /* \"#utility.yul\":8018:9413   */\ntag_10:\n    /* \"#utility.yul\":8135:8172   */\n  tag_144\n    /* \"#utility.yul\":8168:8171   */\n  dup3\n    /* \"#utility.yul\":8135:8172   */\n  tag_32\n  jump\t// in\ntag_144:\n    /* \"#utility.yul\":8237:8255   */\n  0xffffffffffffffff\n    /* \"#utility.yul\":8229:8235   */\n  dup2\n    /* \"#utility.yul\":8226:8256   */\n  gt\n    /* \"#utility.yul\":8223:8279   */\n  iszero\n  tag_145\n  jumpi\n    /* \"#utility.yul\":8259:8277   */\n  tag_146\n  tag_22\n  jump\t// in\ntag_146:\n    /* \"#utility.yul\":8223:8279   */\ntag_145:\n    /* \"#utility.yul\":8303:8341   */\n  tag_147\n    /* \"#utility.yul\":8335:8339   */\n  dup3\n    /* \"#utility.yul\":8329:8340   */\n  sload\n    /* \"#utility.yul\":8303:8341   */\n  tag_34\n  jump\t// in\ntag_147:\n    /* \"#utility.yul\":8388:8455   */\n  tag_148\n    /* \"#utility.yul\":8448:8454   */\n  dup3\n    /* \"#utility.yul\":8440:8446   */\n  dup3\n    /* \"#utility.yul\":8434:8438   */\n  dup6\n    /* \"#utility.yul\":8388:8455   */\n  tag_46\n  jump\t// in\ntag_148:\n    /* \"#utility.yul\":8482:8483   */\n  0x00\n    /* \"#utility.yul\":8506:8510   */\n  0x20\n    /* \"#utility.yul\":8493:8510   */\n  swap1\n  pop\n    /* \"#utility.yul\":8538:8540   */\n  0x1f\n    /* \"#utility.yul\":8530:8536   */\n  dup4\n    /* \"#utility.yul\":8527:8541   */\n  gt\n    /* \"#utility.yul\":8555:8556   */\n  0x01\n    /* \"#utility.yul\":8550:9168   */\n  dup2\n  eq\n  tag_150\n  jumpi\n    /* \"#utility.yul\":9212:9213   */\n  0x00\n    /* \"#utility.yul\":9229:9235   */\n  dup5\n    /* \"#utility.yul\":9226:9303   */\n  iszero\n  tag_151\n  jumpi\n    /* \"#utility.yul\":9278:9287   */\n  dup3\n    /* \"#utility.yul\":9273:9276   */\n  dup8\n    /* \"#utility.yul\":9269:9288   */\n  add\n    /* \"#utility.yul\":9263:9289   */\n  mload\n    /* \"#utility.yul\":9254:9289   */\n  swap1\n  pop\n    /* \"#utility.yul\":9226:9303   */\ntag_151:\n    /* \"#utility.yul\":9329:9396   */\n  tag_152\n    /* \"#utility.yul\":9389:9395   */\n  dup6\n    /* \"#utility.yul\":9382:9387   */\n  dup3\n    /* \"#utility.yul\":9329:9396   */\n  tag_49\n  jump\t// in\ntag_152:\n    /* \"#utility.yul\":9323:9327   */\n  dup7\n    /* \"#utility.yul\":9316:9397   */\n  sstore\n    /* \"#utility.yul\":9185:9407   */\n  pop\n    /* \"#utility.yul\":8520:9407   */\n  jump(tag_149)\n    /* \"#utility.yul\":8550:9168   */\ntag_150:\n    /* \"#utility.yul\":8602:8606   */\n  0x1f\n    /* \"#utility.yul\":8598:8607   */\n  not\n    /* \"#utility.yul\":8590:8596   */\n  dup5\n    /* \"#utility.yul\":8586:8608   */\n  and\n    /* \"#utility.yul\":8636:8673   */\n  tag_153\n    /* \"#utility.yul\":8668:8672   */\n  dup7\n    /* \"#utility.yul\":8636:8673   */\n  tag_35\n  jump\t// in\ntag_153:\n    /* \"#utility.yul\":8695:8696   */\n  0x00\n    /* \"#utility.yul\":8709:8917   */\ntag_154:\n    /* \"#utility.yul\":8723:8730   */\n  dup3\n    /* \"#utility.yul\":8720:8721   */\n  dup2\n    /* \"#utility.yul\":8717:8731   */\n  lt\n    /* \"#utility.yul\":8709:8917   */\n  iszero\n  tag_156\n  jumpi\n    /* \"#utility.yul\":8802:8811   */\n  dup5\n    /* \"#utility.yul\":8797:8800   */\n  dup10\n    /* \"#utility.yul\":8793:8812   */\n  add\n    /* \"#utility.yul\":8787:8813   */\n  mload\n    /* \"#utility.yul\":8779:8785   */\n  dup3\n    /* \"#utility.yul\":8772:8814   */\n  sstore\n    /* \"#utility.yul\":8853:8854   */\n  0x01\n    /* \"#utility.yul\":8845:8851   */\n  dup3\n    /* \"#utility.yul\":8841:8855   */\n  add\n    /* \"#utility.yul\":8831:8855   */\n  swap2\n  pop\n    /* \"#utility.yul\":8900:8902   */\n  0x20\n    /* \"#utility.yul\":8889:8898   */\n  dup6\n    /* \"#utility.yul\":8885:8903   */\n  add\n    /* \"#utility.yul\":8872:8903   */\n  swap5\n  pop\n    /* \"#utility.yul\":8746:8750   */\n  0x20\n    /* \"#utility.yul\":8743:8744   */\n  dup2\n    /* \"#utility.yul\":8739:8751   */\n  add\n    /* \"#utility.yul\":8734:8751   */\n  swap1\n  pop\n    /* \"#utility.yul\":8709:8917   */\n  jump(tag_154)\ntag_156:\n    /* \"#utility.yul\":8945:8951   */\n  dup7\n    /* \"#utility.yul\":8936:8943   */\n  dup4\n    /* \"#utility.yul\":8933:8952   */\n  lt\n    /* \"#utility.yul\":8930:9109   */\n  iszero\n  tag_157\n  jumpi\n    /* \"#utility.yul\":9003:9012   */\n  dup5\n    /* \"#utility.yul\":8998:9001   */\n  dup10\n    /* \"#utility.yul\":8994:9013   */\n  add\n    /* \"#utility.yul\":8988:9014   */\n  mload\n    /* \"#utility.yul\":9046:9094   */\n  tag_158\n    /* \"#utility.yul\":9088:9092   */\n  0x1f\n    /* \"#utility.yul\":9080:9086   */\n  dup10\n    /* \"#utility.yul\":9076:9093   */\n  and\n    /* \"#utility.yul\":9065:9074   */\n  dup3\n    /* \"#utility.yul\":9046:9094   */\n  tag_48\n  jump\t// in\ntag_158:\n    /* \"#utility.yul\":9038:9044   */\n  dup4\n    /* \"#utility.yul\":9031:9095   */\n  sstore\n    /* \"#utility.yul\":8953:9109   */\n  pop\n    /* \"#utility.yul\":8930:9109   */\ntag_157:\n    /* \"#utility.yul\":9155:9156   */\n  0x01\n    /* \"#utility.yul\":9151:9152   */\n  0x02\n    /* \"#utility.yul\":9143:9149   */\n  dup9\n    /* \"#utility.yul\":9139:9153   */\n  mul\n    /* \"#utility.yul\":9135:9157   */\n  add\n    /* \"#utility.yul\":9129:9133   */\n  dup9\n    /* \"#utility.yul\":9122:9158   */\n  sstore\n    /* \"#utility.yul\":8557:9168   */\n  pop\n  pop\n  pop\n    /* \"#utility.yul\":8520:9407   */\ntag_149:\n  pop\n    /* \"#utility.yul\":8110:9413   */\n  pop\n  pop\n  pop\n    /* \"#utility.yul\":8018:9413   */\n  pop\n  pop\n  jump\t// out\n    /* \"contracts/Found.sol\":70:2197  contract CrowdFunding {... */\ntag_15:\n  dataSize(sub_0)\n  dup1\n  dataOffset(sub_0)\n  0x00\n  codecopy\n  0x00\n  return\nstop\n\nsub_0: assembly {\n        /* \"contracts/Found.sol\":70:2197  contract CrowdFunding {... */\n      mstore(0x40, 0x80)\n      jumpi(tag_1, lt(calldatasize, 0x04))\n      shr(0xe0, calldataload(0x00))\n      dup1\n      0x268f1153\n      eq\n      tag_2\n      jumpi\n      dup1\n      0x4d9b3735\n      eq\n      tag_3\n      jumpi\n      dup1\n      0x4e69d560\n      eq\n      tag_4\n      jumpi\n      dup1\n      0xb97a7d24\n      eq\n      tag_5\n      jumpi\n      dup1\n      0xd63dc661\n      eq\n      tag_6\n      jumpi\n    tag_1:\n      0x00\n      dup1\n      revert\n        /* \"contracts/Found.sol\":1716:1883  function changeState(State newState) public onlyOwner {... */\n    tag_2:\n      callvalue\n      dup1\n      iszero\n      tag_7\n      jumpi\n      0x00\n      dup1\n      revert\n    tag_7:\n      pop\n      tag_8\n      0x04\n      dup1\n      calldatasize\n      sub\n      dup2\n      add\n      swap1\n      tag_9\n      swap2\n      swap1\n      tag_10\n      jump\t// in\n    tag_9:\n      tag_11\n      jump\t// in\n    tag_8:\n      stop\n        /* \"contracts/Found.sol\":2101:2194  function getFunds() public view returns (uint) {... */\n    tag_3:\n      callvalue\n      dup1\n      iszero\n      tag_12\n      jumpi\n      0x00\n      dup1\n      revert\n    tag_12:\n      pop\n      tag_13\n      tag_14\n      jump\t// in\n    tag_13:\n      mload(0x40)\n      tag_15\n      swap2\n      swap1\n      tag_16\n      jump\t// in\n    tag_15:\n      mload(0x40)\n      dup1\n      swap2\n      sub\n      swap1\n      return\n        /* \"contracts/Found.sol\":1995:2089  function getStatus() public view returns(State) {... */\n    tag_4:\n      callvalue\n      dup1\n      iszero\n      tag_17\n      jumpi\n      0x00\n      dup1\n      revert\n    tag_17:\n      pop\n      tag_18\n      tag_19\n      jump\t// in\n    tag_18:\n      mload(0x40)\n      tag_20\n      swap2\n      swap1\n      tag_21\n      jump\t// in\n    tag_20:\n      mload(0x40)\n      dup1\n      swap2\n      sub\n      swap1\n      return\n        /* \"contracts/Found.sol\":1895:1983  function getGoal() public view returns(uint) {... */\n    tag_5:\n      callvalue\n      dup1\n      iszero\n      tag_22\n      jumpi\n      0x00\n      dup1\n      revert\n    tag_22:\n      pop\n      tag_23\n      tag_24\n      jump\t// in\n    tag_23:\n      mload(0x40)\n      tag_25\n      swap2\n      swap1\n      tag_16\n      jump\t// in\n    tag_25:\n      mload(0x40)\n      dup1\n      swap2\n      sub\n      swap1\n      return\n        /* \"contracts/Found.sol\":850:1373  function fundProject() public payable notOwner {... */\n    tag_6:\n      tag_26\n      tag_27\n      jump\t// in\n    tag_26:\n      stop\n        /* \"contracts/Found.sol\":1716:1883  function changeState(State newState) public onlyOwner {... */\n    tag_11:\n        /* \"contracts/Found.sol\":1580:1590  msg.sender */\n      caller\n        /* \"contracts/Found.sol\":1563:1590  project.owner == msg.sender */\n      0xffffffffffffffffffffffffffffffffffffffff\n      and\n        /* \"contracts/Found.sol\":1563:1570  project */\n      0x00\n        /* \"contracts/Found.sol\":1563:1576  project.owner */\n      0x06\n      add\n      0x00\n      swap1\n      sload\n      swap1\n      0x0100\n      exp\n      swap1\n      div\n      0xffffffffffffffffffffffffffffffffffffffff\n      and\n        /* \"contracts/Found.sol\":1563:1590  project.owner == msg.sender */\n      0xffffffffffffffffffffffffffffffffffffffff\n      and\n      eq\n        /* \"contracts/Found.sol\":1555:1624  require(project.owner == msg.sender, \"You must be the project owner\") */\n      tag_29\n      jumpi\n      mload(0x40)\n      0x08c379a000000000000000000000000000000000000000000000000000000000\n      dup2\n      mstore\n      0x04\n      add\n      tag_30\n      swap1\n      tag_31\n      jump\t// in\n    tag_30:\n      mload(0x40)\n      dup1\n      swap2\n      sub\n      swap1\n      revert\n    tag_29:\n        /* \"contracts/Found.sol\":1804:1812  newState */\n      dup1\n        /* \"contracts/Found.sol\":1781:1788  project */\n      0x00\n        /* \"contracts/Found.sol\":1781:1801  project.projectState */\n      0x03\n      add\n      0x00\n        /* \"contracts/Found.sol\":1781:1812  project.projectState = newState */\n      0x0100\n      exp\n      dup2\n      sload\n      dup2\n      0xff\n      mul\n      not\n      and\n      swap1\n      dup4\n      0x01\n      dup2\n      gt\n      iszero\n      tag_33\n      jumpi\n      tag_34\n      tag_35\n      jump\t// in\n    tag_34:\n    tag_33:\n      mul\n      or\n      swap1\n      sstore\n      pop\n        /* \"contracts/Found.sol\":1829:1875  ChangeStatus(msg.sender, project.projectState) */\n      0xb82ce22096c6500c582b45cfbf153014e62fd0cbcccaf9a68dc6bfbd53d875d3\n        /* \"contracts/Found.sol\":1842:1852  msg.sender */\n      caller\n        /* \"contracts/Found.sol\":1854:1861  project */\n      0x00\n        /* \"contracts/Found.sol\":1854:1874  project.projectState */\n      0x03\n      add\n      0x00\n      swap1\n      sload\n      swap1\n      0x0100\n      exp\n      swap1\n      div\n      0xff\n      and\n        /* \"contracts/Found.sol\":1829:1875  ChangeStatus(msg.sender, project.projectState) */\n      mload(0x40)\n      tag_36\n      swap3\n      swap2\n      swap1\n      tag_37\n      jump\t// in\n    tag_36:\n      mload(0x40)\n      dup1\n      swap2\n      sub\n      swap1\n      log1\n        /* \"contracts/Found.sol\":1716:1883  function changeState(State newState) public onlyOwner {... */\n      pop\n      jump\t// out\n        /* \"contracts/Found.sol\":2101:2194  function getFunds() public view returns (uint) {... */\n    tag_14:\n        /* \"contracts/Found.sol\":2142:2146  uint */\n      0x00\n        /* \"contracts/Found.sol\":2166:2173  project */\n      dup1\n        /* \"contracts/Found.sol\":2166:2186  project.currentFunds */\n      0x04\n      add\n      sload\n        /* \"contracts/Found.sol\":2159:2186  return project.currentFunds */\n      swap1\n      pop\n        /* \"contracts/Found.sol\":2101:2194  function getFunds() public view returns (uint) {... */\n      swap1\n      jump\t// out\n        /* \"contracts/Found.sol\":1995:2089  function getStatus() public view returns(State) {... */\n    tag_19:\n        /* \"contracts/Found.sol\":2036:2041  State */\n      0x00\n        /* \"contracts/Found.sol\":2061:2068  project */\n      dup1\n        /* \"contracts/Found.sol\":2061:2081  project.projectState */\n      0x03\n      add\n      0x00\n      swap1\n      sload\n      swap1\n      0x0100\n      exp\n      swap1\n      div\n      0xff\n      and\n        /* \"contracts/Found.sol\":2054:2081  return project.projectState */\n      swap1\n      pop\n        /* \"contracts/Found.sol\":1995:2089  function getStatus() public view returns(State) {... */\n      swap1\n      jump\t// out\n        /* \"contracts/Found.sol\":1895:1983  function getGoal() public view returns(uint) {... */\n    tag_24:\n        /* \"contracts/Found.sol\":1934:1938  uint */\n      0x00\n        /* \"contracts/Found.sol\":1958:1965  project */\n      dup1\n        /* \"contracts/Found.sol\":1958:1975  project.goalFunds */\n      0x05\n      add\n      sload\n        /* \"contracts/Found.sol\":1951:1975  return project.goalFunds */\n      swap1\n      pop\n        /* \"contracts/Found.sol\":1895:1983  function getGoal() public view returns(uint) {... */\n      swap1\n      jump\t// out\n        /* \"contracts/Found.sol\":850:1373  function fundProject() public payable notOwner {... */\n    tag_27:\n        /* \"contracts/Found.sol\":1437:1447  msg.sender */\n      caller\n        /* \"contracts/Found.sol\":1420:1447  project.owner != msg.sender */\n      0xffffffffffffffffffffffffffffffffffffffff\n      and\n        /* \"contracts/Found.sol\":1420:1427  project */\n      0x00\n        /* \"contracts/Found.sol\":1420:1433  project.owner */\n      0x06\n      add\n      0x00\n      swap1\n      sload\n      swap1\n      0x0100\n      exp\n      swap1\n      div\n      0xffffffffffffffffffffffffffffffffffffffff\n      and\n        /* \"contracts/Found.sol\":1420:1447  project.owner != msg.sender */\n      0xffffffffffffffffffffffffffffffffffffffff\n      and\n      sub\n        /* \"contracts/Found.sol\":1412:1495  require(project.owner != msg.sender, \"The project owner can't do this transaction\") */\n      tag_42\n      jumpi\n      mload(0x40)\n      0x08c379a000000000000000000000000000000000000000000000000000000000\n      dup2\n      mstore\n      0x04\n      add\n      tag_43\n      swap1\n      tag_44\n      jump\t// in\n    tag_43:\n      mload(0x40)\n      dup1\n      swap2\n      sub\n      swap1\n      revert\n    tag_42:\n        /* \"contracts/Found.sol\":931:943  State.Active */\n      0x00\n        /* \"contracts/Found.sol\":916:943  getStatus() == State.Active */\n      0x01\n      dup2\n      gt\n      iszero\n      tag_46\n      jumpi\n      tag_47\n      tag_35\n      jump\t// in\n    tag_47:\n    tag_46:\n        /* \"contracts/Found.sol\":916:927  getStatus() */\n      tag_48\n        /* \"contracts/Found.sol\":916:925  getStatus */\n      tag_19\n        /* \"contracts/Found.sol\":916:927  getStatus() */\n      jump\t// in\n    tag_48:\n        /* \"contracts/Found.sol\":916:943  getStatus() == State.Active */\n      0x01\n      dup2\n      gt\n      iszero\n      tag_49\n      jumpi\n      tag_50\n      tag_35\n      jump\t// in\n    tag_50:\n    tag_49:\n      eq\n        /* \"contracts/Found.sol\":908:967  require(getStatus() == State.Active, \"Crowd is not active\") */\n      tag_51\n      jumpi\n      mload(0x40)\n      0x08c379a000000000000000000000000000000000000000000000000000000000\n      dup2\n      mstore\n      0x04\n      add\n      tag_52\n      swap1\n      tag_53\n      jump\t// in\n    tag_52:\n      mload(0x40)\n      dup1\n      swap2\n      sub\n      swap1\n      revert\n    tag_51:\n        /* \"contracts/Found.sol\":998:999  0 */\n      0x00\n        /* \"contracts/Found.sol\":986:995  msg.value */\n      callvalue\n        /* \"contracts/Found.sol\":986:999  msg.value > 0 */\n      gt\n        /* \"contracts/Found.sol\":978:1030  require(msg.value > 0, \"Can't fund less than 0 ETH\") */\n      tag_54\n      jumpi\n      mload(0x40)\n      0x08c379a000000000000000000000000000000000000000000000000000000000\n      dup2\n      mstore\n      0x04\n      add\n      tag_55\n      swap1\n      tag_56\n      jump\t// in\n    tag_55:\n      mload(0x40)\n      dup1\n      swap2\n      sub\n      swap1\n      revert\n    tag_54:\n        /* \"contracts/Found.sol\":1067:1074  project */\n      0x00\n        /* \"contracts/Found.sol\":1067:1084  project.goalFunds */\n      0x05\n      add\n      sload\n        /* \"contracts/Found.sol\":1044:1051  project */\n      0x00\n        /* \"contracts/Found.sol\":1044:1064  project.currentFunds */\n      0x04\n      add\n      sload\n        /* \"contracts/Found.sol\":1044:1084  project.currentFunds < project.goalFunds */\n      lt\n        /* \"contracts/Found.sol\":1041:1366  if(project.currentFunds < project.goalFunds) {... */\n      iszero\n      tag_57\n      jumpi\n        /* \"contracts/Found.sol\":1101:1108  project */\n      0x00\n        /* \"contracts/Found.sol\":1101:1114  project.owner */\n      0x06\n      add\n      0x00\n      swap1\n      sload\n      swap1\n      0x0100\n      exp\n      swap1\n      div\n      0xffffffffffffffffffffffffffffffffffffffff\n      and\n        /* \"contracts/Found.sol\":1101:1123  project.owner.transfer */\n      0xffffffffffffffffffffffffffffffffffffffff\n      and\n        /* \"contracts/Found.sol\":1101:1134  project.owner.transfer(msg.value) */\n      0x08fc\n        /* \"contracts/Found.sol\":1124:1133  msg.value */\n      callvalue\n        /* \"contracts/Found.sol\":1101:1134  project.owner.transfer(msg.value) */\n      swap1\n      dup2\n      iszero\n      mul\n      swap1\n      mload(0x40)\n      0x00\n      mload(0x40)\n      dup1\n      dup4\n      sub\n      dup2\n      dup6\n      dup9\n      dup9\n      call\n      swap4\n      pop\n      pop\n      pop\n      pop\n      iszero\n      dup1\n      iszero\n      tag_59\n      jumpi\n      returndatasize\n      0x00\n      dup1\n      returndatacopy\n      revert(0x00, returndatasize)\n    tag_59:\n      pop\n        /* \"contracts/Found.sol\":1173:1182  msg.value */\n      callvalue\n        /* \"contracts/Found.sol\":1149:1156  project */\n      0x00\n        /* \"contracts/Found.sol\":1149:1169  project.currentFunds */\n      0x04\n      add\n      0x00\n        /* \"contracts/Found.sol\":1149:1182  project.currentFunds += msg.value */\n      dup3\n      dup3\n      sload\n      tag_60\n      swap2\n      swap1\n      tag_61\n      jump\t// in\n    tag_60:\n      swap3\n      pop\n      pop\n      dup2\n      swap1\n      sstore\n      pop\n        /* \"contracts/Found.sol\":1202:1261  FundingProject(msg.sender, msg.value, project.currentFunds) */\n      0x64068ba7aead24cdcded2af189a6bd37f13ceadd1774e1f0922fe9045507f23f\n        /* \"contracts/Found.sol\":1217:1227  msg.sender */\n      caller\n        /* \"contracts/Found.sol\":1229:1238  msg.value */\n      callvalue\n        /* \"contracts/Found.sol\":1240:1247  project */\n      0x00\n        /* \"contracts/Found.sol\":1240:1260  project.currentFunds */\n      0x04\n      add\n      sload\n        /* \"contracts/Found.sol\":1202:1261  FundingProject(msg.sender, msg.value, project.currentFunds) */\n      mload(0x40)\n      tag_62\n      swap4\n      swap3\n      swap2\n      swap1\n      tag_63\n      jump\t// in\n    tag_62:\n      mload(0x40)\n      dup1\n      swap2\n      sub\n      swap1\n      log1\n        /* \"contracts/Found.sol\":1041:1366  if(project.currentFunds < project.goalFunds) {... */\n      jump(tag_64)\n    tag_57:\n        /* \"contracts/Found.sol\":1336:1343  project */\n      0x00\n        /* \"contracts/Found.sol\":1336:1353  project.goalFunds */\n      0x05\n      add\n      sload\n        /* \"contracts/Found.sol\":1301:1354  GoalReached(\"The goal is reached\", project.goalFunds) */\n      mload(0x40)\n      0x663c9c0d00000000000000000000000000000000000000000000000000000000\n      dup2\n      mstore\n      0x04\n      add\n      tag_65\n      swap2\n      swap1\n      tag_66\n      jump\t// in\n    tag_65:\n      mload(0x40)\n      dup1\n      swap2\n      sub\n      swap1\n      revert\n        /* \"contracts/Found.sol\":1041:1366  if(project.currentFunds < project.goalFunds) {... */\n    tag_64:\n        /* \"contracts/Found.sol\":850:1373  function fundProject() public payable notOwner {... */\n      jump\t// out\n        /* \"#utility.yul\":88:205   */\n    tag_68:\n        /* \"#utility.yul\":197:198   */\n      0x00\n        /* \"#utility.yul\":194:195   */\n      dup1\n        /* \"#utility.yul\":187:199   */\n      revert\n        /* \"#utility.yul\":334:440   */\n    tag_70:\n        /* \"#utility.yul\":414:415   */\n      0x02\n        /* \"#utility.yul\":407:412   */\n      dup2\n        /* \"#utility.yul\":404:416   */\n      lt\n        /* \"#utility.yul\":394:434   */\n      tag_98\n      jumpi\n        /* \"#utility.yul\":430:431   */\n      0x00\n        /* \"#utility.yul\":427:428   */\n      dup1\n        /* \"#utility.yul\":420:432   */\n      revert\n        /* \"#utility.yul\":394:434   */\n    tag_98:\n        /* \"#utility.yul\":334:440   */\n      pop\n      jump\t// out\n        /* \"#utility.yul\":446:599   */\n    tag_71:\n        /* \"#utility.yul\":499:504   */\n      0x00\n        /* \"#utility.yul\":537:543   */\n      dup2\n        /* \"#utility.yul\":524:544   */\n      calldataload\n        /* \"#utility.yul\":515:544   */\n      swap1\n      pop\n        /* \"#utility.yul\":553:593   */\n      tag_100\n        /* \"#utility.yul\":587:592   */\n      dup2\n        /* \"#utility.yul\":553:593   */\n      tag_70\n      jump\t// in\n    tag_100:\n        /* \"#utility.yul\":446:599   */\n      swap3\n      swap2\n      pop\n      pop\n      jump\t// out\n        /* \"#utility.yul\":605:948   */\n    tag_10:\n        /* \"#utility.yul\":671:677   */\n      0x00\n        /* \"#utility.yul\":720:722   */\n      0x20\n        /* \"#utility.yul\":708:717   */\n      dup3\n        /* \"#utility.yul\":699:706   */\n      dup5\n        /* \"#utility.yul\":695:718   */\n      sub\n        /* \"#utility.yul\":691:723   */\n      slt\n        /* \"#utility.yul\":688:807   */\n      iszero\n      tag_102\n      jumpi\n        /* \"#utility.yul\":726:805   */\n      tag_103\n      tag_68\n      jump\t// in\n    tag_103:\n        /* \"#utility.yul\":688:807   */\n    tag_102:\n        /* \"#utility.yul\":846:847   */\n      0x00\n        /* \"#utility.yul\":871:931   */\n      tag_104\n        /* \"#utility.yul\":923:930   */\n      dup5\n        /* \"#utility.yul\":914:920   */\n      dup3\n        /* \"#utility.yul\":903:912   */\n      dup6\n        /* \"#utility.yul\":899:921   */\n      add\n        /* \"#utility.yul\":871:931   */\n      tag_71\n      jump\t// in\n    tag_104:\n        /* \"#utility.yul\":861:931   */\n      swap2\n      pop\n        /* \"#utility.yul\":817:941   */\n      pop\n        /* \"#utility.yul\":605:948   */\n      swap3\n      swap2\n      pop\n      pop\n      jump\t// out\n        /* \"#utility.yul\":954:1031   */\n    tag_72:\n        /* \"#utility.yul\":991:998   */\n      0x00\n        /* \"#utility.yul\":1020:1025   */\n      dup2\n        /* \"#utility.yul\":1009:1025   */\n      swap1\n      pop\n        /* \"#utility.yul\":954:1031   */\n      swap2\n      swap1\n      pop\n      jump\t// out\n        /* \"#utility.yul\":1037:1155   */\n    tag_73:\n        /* \"#utility.yul\":1124:1148   */\n      tag_107\n        /* \"#utility.yul\":1142:1147   */\n      dup2\n        /* \"#utility.yul\":1124:1148   */\n      tag_72\n      jump\t// in\n    tag_107:\n        /* \"#utility.yul\":1119:1122   */\n      dup3\n        /* \"#utility.yul\":1112:1149   */\n      mstore\n        /* \"#utility.yul\":1037:1155   */\n      pop\n      pop\n      jump\t// out\n        /* \"#utility.yul\":1161:1383   */\n    tag_16:\n        /* \"#utility.yul\":1254:1258   */\n      0x00\n        /* \"#utility.yul\":1292:1294   */\n      0x20\n        /* \"#utility.yul\":1281:1290   */\n      dup3\n        /* \"#utility.yul\":1277:1295   */\n      add\n        /* \"#utility.yul\":1269:1295   */\n      swap1\n      pop\n        /* \"#utility.yul\":1305:1376   */\n      tag_109\n        /* \"#utility.yul\":1373:1374   */\n      0x00\n        /* \"#utility.yul\":1362:1371   */\n      dup4\n        /* \"#utility.yul\":1358:1375   */\n      add\n        /* \"#utility.yul\":1349:1355   */\n      dup5\n        /* \"#utility.yul\":1305:1376   */\n      tag_73\n      jump\t// in\n    tag_109:\n        /* \"#utility.yul\":1161:1383   */\n      swap3\n      swap2\n      pop\n      pop\n      jump\t// out\n        /* \"#utility.yul\":1389:1569   */\n    tag_35:\n        /* \"#utility.yul\":1437:1514   */\n      0x4e487b7100000000000000000000000000000000000000000000000000000000\n        /* \"#utility.yul\":1434:1435   */\n      0x00\n        /* \"#utility.yul\":1427:1515   */\n      mstore\n        /* \"#utility.yul\":1534:1538   */\n      0x21\n        /* \"#utility.yul\":1531:1532   */\n      0x04\n        /* \"#utility.yul\":1524:1539   */\n      mstore\n        /* \"#utility.yul\":1558:1562   */\n      0x24\n        /* \"#utility.yul\":1555:1556   */\n      0x00\n        /* \"#utility.yul\":1548:1563   */\n      revert\n        /* \"#utility.yul\":1575:1687   */\n    tag_74:\n        /* \"#utility.yul\":1655:1656   */\n      0x02\n        /* \"#utility.yul\":1648:1653   */\n      dup2\n        /* \"#utility.yul\":1645:1657   */\n      lt\n        /* \"#utility.yul\":1635:1681   */\n      tag_112\n      jumpi\n        /* \"#utility.yul\":1661:1679   */\n      tag_113\n      tag_35\n      jump\t// in\n    tag_113:\n        /* \"#utility.yul\":1635:1681   */\n    tag_112:\n        /* \"#utility.yul\":1575:1687   */\n      pop\n      jump\t// out\n        /* \"#utility.yul\":1693:1818   */\n    tag_75:\n        /* \"#utility.yul\":1737:1744   */\n      0x00\n        /* \"#utility.yul\":1766:1771   */\n      dup2\n        /* \"#utility.yul\":1755:1771   */\n      swap1\n      pop\n        /* \"#utility.yul\":1772:1812   */\n      tag_115\n        /* \"#utility.yul\":1806:1811   */\n      dup3\n        /* \"#utility.yul\":1772:1812   */\n      tag_74\n      jump\t// in\n    tag_115:\n        /* \"#utility.yul\":1693:1818   */\n      swap2\n      swap1\n      pop\n      jump\t// out\n        /* \"#utility.yul\":1824:1949   */\n    tag_76:\n        /* \"#utility.yul\":1879:1888   */\n      0x00\n        /* \"#utility.yul\":1912:1943   */\n      tag_117\n        /* \"#utility.yul\":1937:1942   */\n      dup3\n        /* \"#utility.yul\":1912:1943   */\n      tag_75\n      jump\t// in\n    tag_117:\n        /* \"#utility.yul\":1899:1943   */\n      swap1\n      pop\n        /* \"#utility.yul\":1824:1949   */\n      swap2\n      swap1\n      pop\n      jump\t// out\n        /* \"#utility.yul\":1955:2096   */\n    tag_77:\n        /* \"#utility.yul\":2047:2089   */\n      tag_119\n        /* \"#utility.yul\":2083:2088   */\n      dup2\n        /* \"#utility.yul\":2047:2089   */\n      tag_76\n      jump\t// in\n    tag_119:\n        /* \"#utility.yul\":2042:2045   */\n      dup3\n        /* \"#utility.yul\":2035:2090   */\n      mstore\n        /* \"#utility.yul\":1955:2096   */\n      pop\n      pop\n      jump\t// out\n        /* \"#utility.yul\":2102:2334   */\n    tag_21:\n        /* \"#utility.yul\":2200:2204   */\n      0x00\n        /* \"#utility.yul\":2238:2240   */\n      0x20\n        /* \"#utility.yul\":2227:2236   */\n      dup3\n        /* \"#utility.yul\":2223:2241   */\n      add\n        /* \"#utility.yul\":2215:2241   */\n      swap1\n      pop\n        /* \"#utility.yul\":2251:2327   */\n      tag_121\n        /* \"#utility.yul\":2324:2325   */\n      0x00\n        /* \"#utility.yul\":2313:2322   */\n      dup4\n        /* \"#utility.yul\":2309:2326   */\n      add\n        /* \"#utility.yul\":2300:2306   */\n      dup5\n        /* \"#utility.yul\":2251:2327   */\n      tag_77\n      jump\t// in\n    tag_121:\n        /* \"#utility.yul\":2102:2334   */\n      swap3\n      swap2\n      pop\n      pop\n      jump\t// out\n        /* \"#utility.yul\":2340:2509   */\n    tag_78:\n        /* \"#utility.yul\":2424:2435   */\n      0x00\n        /* \"#utility.yul\":2458:2464   */\n      dup3\n        /* \"#utility.yul\":2453:2456   */\n      dup3\n        /* \"#utility.yul\":2446:2465   */\n      mstore\n        /* \"#utility.yul\":2498:2502   */\n      0x20\n        /* \"#utility.yul\":2493:2496   */\n      dup3\n        /* \"#utility.yul\":2489:2503   */\n      add\n        /* \"#utility.yul\":2474:2503   */\n      swap1\n      pop\n        /* \"#utility.yul\":2340:2509   */\n      swap3\n      swap2\n      pop\n      pop\n      jump\t// out\n        /* \"#utility.yul\":2515:2694   */\n    tag_79:\n        /* \"#utility.yul\":2655:2686   */\n      0x596f75206d757374206265207468652070726f6a656374206f776e6572000000\n        /* \"#utility.yul\":2651:2652   */\n      0x00\n        /* \"#utility.yul\":2643:2649   */\n      dup3\n        /* \"#utility.yul\":2639:2653   */\n      add\n        /* \"#utility.yul\":2632:2687   */\n      mstore\n        /* \"#utility.yul\":2515:2694   */\n      pop\n      jump\t// out\n        /* \"#utility.yul\":2700:3066   */\n    tag_80:\n        /* \"#utility.yul\":2842:2845   */\n      0x00\n        /* \"#utility.yul\":2863:2930   */\n      tag_125\n        /* \"#utility.yul\":2927:2929   */\n      0x1d\n        /* \"#utility.yul\":2922:2925   */\n      dup4\n        /* \"#utility.yul\":2863:2930   */\n      tag_78\n      jump\t// in\n    tag_125:\n        /* \"#utility.yul\":2856:2930   */\n      swap2\n      pop\n        /* \"#utility.yul\":2939:3032   */\n      tag_126\n        /* \"#utility.yul\":3028:3031   */\n      dup3\n        /* \"#utility.yul\":2939:3032   */\n      tag_79\n      jump\t// in\n    tag_126:\n        /* \"#utility.yul\":3057:3059   */\n      0x20\n        /* \"#utility.yul\":3052:3055   */\n      dup3\n        /* \"#utility.yul\":3048:3060   */\n      add\n        /* \"#utility.yul\":3041:3060   */\n      swap1\n      pop\n        /* \"#utility.yul\":2700:3066   */\n      swap2\n      swap1\n      pop\n      jump\t// out\n        /* \"#utility.yul\":3072:3491   */\n    tag_31:\n        /* \"#utility.yul\":3238:3242   */\n      0x00\n        /* \"#utility.yul\":3276:3278   */\n      0x20\n        /* \"#utility.yul\":3265:3274   */\n      dup3\n        /* \"#utility.yul\":3261:3279   */\n      add\n        /* \"#utility.yul\":3253:3279   */\n      swap1\n      pop\n        /* \"#utility.yul\":3325:3334   */\n      dup2\n        /* \"#utility.yul\":3319:3323   */\n      dup2\n        /* \"#utility.yul\":3315:3335   */\n      sub\n        /* \"#utility.yul\":3311:3312   */\n      0x00\n        /* \"#utility.yul\":3300:3309   */\n      dup4\n        /* \"#utility.yul\":3296:3313   */\n      add\n        /* \"#utility.yul\":3289:3336   */\n      mstore\n        /* \"#utility.yul\":3353:3484   */\n      tag_128\n        /* \"#utility.yul\":3479:3483   */\n      dup2\n        /* \"#utility.yul\":3353:3484   */\n      tag_80\n      jump\t// in\n    tag_128:\n        /* \"#utility.yul\":3345:3484   */\n      swap1\n      pop\n        /* \"#utility.yul\":3072:3491   */\n      swap2\n      swap1\n      pop\n      jump\t// out\n        /* \"#utility.yul\":3497:3623   */\n    tag_81:\n        /* \"#utility.yul\":3534:3541   */\n      0x00\n        /* \"#utility.yul\":3574:3616   */\n      0xffffffffffffffffffffffffffffffffffffffff\n        /* \"#utility.yul\":3567:3572   */\n      dup3\n        /* \"#utility.yul\":3563:3617   */\n      and\n        /* \"#utility.yul\":3552:3617   */\n      swap1\n      pop\n        /* \"#utility.yul\":3497:3623   */\n      swap2\n      swap1\n      pop\n      jump\t// out\n        /* \"#utility.yul\":3629:3725   */\n    tag_82:\n        /* \"#utility.yul\":3666:3673   */\n      0x00\n        /* \"#utility.yul\":3695:3719   */\n      tag_131\n        /* \"#utility.yul\":3713:3718   */\n      dup3\n        /* \"#utility.yul\":3695:3719   */\n      tag_81\n      jump\t// in\n    tag_131:\n        /* \"#utility.yul\":3684:3719   */\n      swap1\n      pop\n        /* \"#utility.yul\":3629:3725   */\n      swap2\n      swap1\n      pop\n      jump\t// out\n        /* \"#utility.yul\":3731:3849   */\n    tag_83:\n        /* \"#utility.yul\":3818:3842   */\n      tag_133\n        /* \"#utility.yul\":3836:3841   */\n      dup2\n        /* \"#utility.yul\":3818:3842   */\n      tag_82\n      jump\t// in\n    tag_133:\n        /* \"#utility.yul\":3813:3816   */\n      dup3\n        /* \"#utility.yul\":3806:3843   */\n      mstore\n        /* \"#utility.yul\":3731:3849   */\n      pop\n      pop\n      jump\t// out\n        /* \"#utility.yul\":3855:4197   */\n    tag_37:\n        /* \"#utility.yul\":3981:3985   */\n      0x00\n        /* \"#utility.yul\":4019:4021   */\n      0x40\n        /* \"#utility.yul\":4008:4017   */\n      dup3\n        /* \"#utility.yul\":4004:4022   */\n      add\n        /* \"#utility.yul\":3996:4022   */\n      swap1\n      pop\n        /* \"#utility.yul\":4032:4103   */\n      tag_135\n        /* \"#utility.yul\":4100:4101   */\n      0x00\n        /* \"#utility.yul\":4089:4098   */\n      dup4\n        /* \"#utility.yul\":4085:4102   */\n      add\n        /* \"#utility.yul\":4076:4082   */\n      dup6\n        /* \"#utility.yul\":4032:4103   */\n      tag_83\n      jump\t// in\n    tag_135:\n        /* \"#utility.yul\":4113:4190   */\n      tag_136\n        /* \"#utility.yul\":4186:4188   */\n      0x20\n        /* \"#utility.yul\":4175:4184   */\n      dup4\n        /* \"#utility.yul\":4171:4189   */\n      add\n        /* \"#utility.yul\":4162:4168   */\n      dup5\n        /* \"#utility.yul\":4113:4190   */\n      tag_77\n      jump\t// in\n    tag_136:\n        /* \"#utility.yul\":3855:4197   */\n      swap4\n      swap3\n      pop\n      pop\n      pop\n      jump\t// out\n        /* \"#utility.yul\":4203:4433   */\n    tag_84:\n        /* \"#utility.yul\":4343:4377   */\n      0x5468652070726f6a656374206f776e65722063616e277420646f207468697320\n        /* \"#utility.yul\":4339:4340   */\n      0x00\n        /* \"#utility.yul\":4331:4337   */\n      dup3\n        /* \"#utility.yul\":4327:4341   */\n      add\n        /* \"#utility.yul\":4320:4378   */\n      mstore\n        /* \"#utility.yul\":4412:4425   */\n      0x7472616e73616374696f6e000000000000000000000000000000000000000000\n        /* \"#utility.yul\":4407:4409   */\n      0x20\n        /* \"#utility.yul\":4399:4405   */\n      dup3\n        /* \"#utility.yul\":4395:4410   */\n      add\n        /* \"#utility.yul\":4388:4426   */\n      mstore\n        /* \"#utility.yul\":4203:4433   */\n      pop\n      jump\t// out\n        /* \"#utility.yul\":4439:4805   */\n    tag_85:\n        /* \"#utility.yul\":4581:4584   */\n      0x00\n        /* \"#utility.yul\":4602:4669   */\n      tag_139\n        /* \"#utility.yul\":4666:4668   */\n      0x2b\n        /* \"#utility.yul\":4661:4664   */\n      dup4\n        /* \"#utility.yul\":4602:4669   */\n      tag_78\n      jump\t// in\n    tag_139:\n        /* \"#utility.yul\":4595:4669   */\n      swap2\n      pop\n        /* \"#utility.yul\":4678:4771   */\n      tag_140\n        /* \"#utility.yul\":4767:4770   */\n      dup3\n        /* \"#utility.yul\":4678:4771   */\n      tag_84\n      jump\t// in\n    tag_140:\n        /* \"#utility.yul\":4796:4798   */\n      0x40\n        /* \"#utility.yul\":4791:4794   */\n      dup3\n        /* \"#utility.yul\":4787:4799   */\n      add\n        /* \"#utility.yul\":4780:4799   */\n      swap1\n      pop\n        /* \"#utility.yul\":4439:4805   */\n      swap2\n      swap1\n      pop\n      jump\t// out\n        /* \"#utility.yul\":4811:5230   */\n    tag_44:\n        /* \"#utility.yul\":4977:4981   */\n      0x00\n        /* \"#utility.yul\":5015:5017   */\n      0x20\n        /* \"#utility.yul\":5004:5013   */\n      dup3\n        /* \"#utility.yul\":5000:5018   */\n      add\n        /* \"#utility.yul\":4992:5018   */\n      swap1\n      pop\n        /* \"#utility.yul\":5064:5073   */\n      dup2\n        /* \"#utility.yul\":5058:5062   */\n      dup2\n        /* \"#utility.yul\":5054:5074   */\n      sub\n        /* \"#utility.yul\":5050:5051   */\n      0x00\n        /* \"#utility.yul\":5039:5048   */\n      dup4\n        /* \"#utility.yul\":5035:5052   */\n      add\n        /* \"#utility.yul\":5028:5075   */\n      mstore\n        /* \"#utility.yul\":5092:5223   */\n      tag_142\n        /* \"#utility.yul\":5218:5222   */\n      dup2\n        /* \"#utility.yul\":5092:5223   */\n      tag_85\n      jump\t// in\n    tag_142:\n        /* \"#utility.yul\":5084:5223   */\n      swap1\n      pop\n        /* \"#utility.yul\":4811:5230   */\n      swap2\n      swap1\n      pop\n      jump\t// out\n        /* \"#utility.yul\":5236:5405   */\n    tag_86:\n        /* \"#utility.yul\":5376:5397   */\n      0x43726f7764206973206e6f742061637469766500000000000000000000000000\n        /* \"#utility.yul\":5372:5373   */\n      0x00\n        /* \"#utility.yul\":5364:5370   */\n      dup3\n        /* \"#utility.yul\":5360:5374   */\n      add\n        /* \"#utility.yul\":5353:5398   */\n      mstore\n        /* \"#utility.yul\":5236:5405   */\n      pop\n      jump\t// out\n        /* \"#utility.yul\":5411:5777   */\n    tag_87:\n        /* \"#utility.yul\":5553:5556   */\n      0x00\n        /* \"#utility.yul\":5574:5641   */\n      tag_145\n        /* \"#utility.yul\":5638:5640   */\n      0x13\n        /* \"#utility.yul\":5633:5636   */\n      dup4\n        /* \"#utility.yul\":5574:5641   */\n      tag_78\n      jump\t// in\n    tag_145:\n        /* \"#utility.yul\":5567:5641   */\n      swap2\n      pop\n        /* \"#utility.yul\":5650:5743   */\n      tag_146\n        /* \"#utility.yul\":5739:5742   */\n      dup3\n        /* \"#utility.yul\":5650:5743   */\n      tag_86\n      jump\t// in\n    tag_146:\n        /* \"#utility.yul\":5768:5770   */\n      0x20\n        /* \"#utility.yul\":5763:5766   */\n      dup3\n        /* \"#utility.yul\":5759:5771   */\n      add\n        /* \"#utility.yul\":5752:5771   */\n      swap1\n      pop\n        /* \"#utility.yul\":5411:5777   */\n      swap2\n      swap1\n      pop\n      jump\t// out\n        /* \"#utility.yul\":5783:6202   */\n    tag_53:\n        /* \"#utility.yul\":5949:5953   */\n      0x00\n        /* \"#utility.yul\":5987:5989   */\n      0x20\n        /* \"#utility.yul\":5976:5985   */\n      dup3\n        /* \"#utility.yul\":5972:5990   */\n      add\n        /* \"#utility.yul\":5964:5990   */\n      swap1\n      pop\n        /* \"#utility.yul\":6036:6045   */\n      dup2\n        /* \"#utility.yul\":6030:6034   */\n      dup2\n        /* \"#utility.yul\":6026:6046   */\n      sub\n        /* \"#utility.yul\":6022:6023   */\n      0x00\n        /* \"#utility.yul\":6011:6020   */\n      dup4\n        /* \"#utility.yul\":6007:6024   */\n      add\n        /* \"#utility.yul\":6000:6047   */\n      mstore\n        /* \"#utility.yul\":6064:6195   */\n      tag_148\n        /* \"#utility.yul\":6190:6194   */\n      dup2\n        /* \"#utility.yul\":6064:6195   */\n      tag_87\n      jump\t// in\n    tag_148:\n        /* \"#utility.yul\":6056:6195   */\n      swap1\n      pop\n        /* \"#utility.yul\":5783:6202   */\n      swap2\n      swap1\n      pop\n      jump\t// out\n        /* \"#utility.yul\":6208:6384   */\n    tag_88:\n        /* \"#utility.yul\":6348:6376   */\n      0x43616e27742066756e64206c657373207468616e203020455448000000000000\n        /* \"#utility.yul\":6344:6345   */\n      0x00\n        /* \"#utility.yul\":6336:6342   */\n      dup3\n        /* \"#utility.yul\":6332:6346   */\n      add\n        /* \"#utility.yul\":6325:6377   */\n      mstore\n        /* \"#utility.yul\":6208:6384   */\n      pop\n      jump\t// out\n        /* \"#utility.yul\":6390:6756   */\n    tag_89:\n        /* \"#utility.yul\":6532:6535   */\n      0x00\n        /* \"#utility.yul\":6553:6620   */\n      tag_151\n        /* \"#utility.yul\":6617:6619   */\n      0x1a\n        /* \"#utility.yul\":6612:6615   */\n      dup4\n        /* \"#utility.yul\":6553:6620   */\n      tag_78\n      jump\t// in\n    tag_151:\n        /* \"#utility.yul\":6546:6620   */\n      swap2\n      pop\n        /* \"#utility.yul\":6629:6722   */\n      tag_152\n        /* \"#utility.yul\":6718:6721   */\n      dup3\n        /* \"#utility.yul\":6629:6722   */\n      tag_88\n      jump\t// in\n    tag_152:\n        /* \"#utility.yul\":6747:6749   */\n      0x20\n        /* \"#utility.yul\":6742:6745   */\n      dup3\n        /* \"#utility.yul\":6738:6750   */\n      add\n        /* \"#utility.yul\":6731:6750   */\n      swap1\n      pop\n        /* \"#utility.yul\":6390:6756   */\n      swap2\n      swap1\n      pop\n      jump\t// out\n        /* \"#utility.yul\":6762:7181   */\n    tag_56:\n        /* \"#utility.yul\":6928:6932   */\n      0x00\n        /* \"#utility.yul\":6966:6968   */\n      0x20\n        /* \"#utility.yul\":6955:6964   */\n      dup3\n        /* \"#utility.yul\":6951:6969   */\n      add\n        /* \"#utility.yul\":6943:6969   */\n      swap1\n      pop\n        /* \"#utility.yul\":7015:7024   */\n      dup2\n        /* \"#utility.yul\":7009:7013   */\n      dup2\n        /* \"#utility.yul\":7005:7025   */\n      sub\n        /* \"#utility.yul\":7001:7002   */\n      0x00\n        /* \"#utility.yul\":6990:6999   */\n      dup4\n        /* \"#utility.yul\":6986:7003   */\n      add\n        /* \"#utility.yul\":6979:7026   */\n      mstore\n        /* \"#utility.yul\":7043:7174   */\n      tag_154\n        /* \"#utility.yul\":7169:7173   */\n      dup2\n        /* \"#utility.yul\":7043:7174   */\n      tag_89\n      jump\t// in\n    tag_154:\n        /* \"#utility.yul\":7035:7174   */\n      swap1\n      pop\n        /* \"#utility.yul\":6762:7181   */\n      swap2\n      swap1\n      pop\n      jump\t// out\n        /* \"#utility.yul\":7187:7367   */\n    tag_90:\n        /* \"#utility.yul\":7235:7312   */\n      0x4e487b7100000000000000000000000000000000000000000000000000000000\n        /* \"#utility.yul\":7232:7233   */\n      0x00\n        /* \"#utility.yul\":7225:7313   */\n      mstore\n        /* \"#utility.yul\":7332:7336   */\n      0x11\n        /* \"#utility.yul\":7329:7330   */\n      0x04\n        /* \"#utility.yul\":7322:7337   */\n      mstore\n        /* \"#utility.yul\":7356:7360   */\n      0x24\n        /* \"#utility.yul\":7353:7354   */\n      0x00\n        /* \"#utility.yul\":7346:7361   */\n      revert\n        /* \"#utility.yul\":7373:7564   */\n    tag_61:\n        /* \"#utility.yul\":7413:7416   */\n      0x00\n        /* \"#utility.yul\":7432:7452   */\n      tag_157\n        /* \"#utility.yul\":7450:7451   */\n      dup3\n        /* \"#utility.yul\":7432:7452   */\n      tag_72\n      jump\t// in\n    tag_157:\n        /* \"#utility.yul\":7427:7452   */\n      swap2\n      pop\n        /* \"#utility.yul\":7466:7486   */\n      tag_158\n        /* \"#utility.yul\":7484:7485   */\n      dup4\n        /* \"#utility.yul\":7466:7486   */\n      tag_72\n      jump\t// in\n    tag_158:\n        /* \"#utility.yul\":7461:7486   */\n      swap3\n      pop\n        /* \"#utility.yul\":7509:7510   */\n      dup3\n        /* \"#utility.yul\":7506:7507   */\n      dup3\n        /* \"#utility.yul\":7502:7511   */\n      add\n        /* \"#utility.yul\":7495:7511   */\n      swap1\n      pop\n        /* \"#utility.yul\":7530:7533   */\n      dup1\n        /* \"#utility.yul\":7527:7528   */\n      dup3\n        /* \"#utility.yul\":7524:7534   */\n      gt\n        /* \"#utility.yul\":7521:7557   */\n      iszero\n      tag_159\n      jumpi\n        /* \"#utility.yul\":7537:7555   */\n      tag_160\n      tag_90\n      jump\t// in\n    tag_160:\n        /* \"#utility.yul\":7521:7557   */\n    tag_159:\n        /* \"#utility.yul\":7373:7564   */\n      swap3\n      swap2\n      pop\n      pop\n      jump\t// out\n        /* \"#utility.yul\":7570:8012   */\n    tag_63:\n        /* \"#utility.yul\":7719:7723   */\n      0x00\n        /* \"#utility.yul\":7757:7759   */\n      0x60\n        /* \"#utility.yul\":7746:7755   */\n      dup3\n        /* \"#utility.yul\":7742:7760   */\n      add\n        /* \"#utility.yul\":7734:7760   */\n      swap1\n      pop\n        /* \"#utility.yul\":7770:7841   */\n      tag_162\n        /* \"#utility.yul\":7838:7839   */\n      0x00\n        /* \"#utility.yul\":7827:7836   */\n      dup4\n        /* \"#utility.yul\":7823:7840   */\n      add\n        /* \"#utility.yul\":7814:7820   */\n      dup7\n        /* \"#utility.yul\":7770:7841   */\n      tag_83\n      jump\t// in\n    tag_162:\n        /* \"#utility.yul\":7851:7923   */\n      tag_163\n        /* \"#utility.yul\":7919:7921   */\n      0x20\n        /* \"#utility.yul\":7908:7917   */\n      dup4\n        /* \"#utility.yul\":7904:7922   */\n      add\n        /* \"#utility.yul\":7895:7901   */\n      dup6\n        /* \"#utility.yul\":7851:7923   */\n      tag_73\n      jump\t// in\n    tag_163:\n        /* \"#utility.yul\":7933:8005   */\n      tag_164\n        /* \"#utility.yul\":8001:8003   */\n      0x40\n        /* \"#utility.yul\":7990:7999   */\n      dup4\n        /* \"#utility.yul\":7986:8004   */\n      add\n        /* \"#utility.yul\":7977:7983   */\n      dup5\n        /* \"#utility.yul\":7933:8005   */\n      tag_73\n      jump\t// in\n    tag_164:\n        /* \"#utility.yul\":7570:8012   */\n      swap5\n      swap4\n      pop\n      pop\n      pop\n      pop\n      jump\t// out\n        /* \"#utility.yul\":8018:8187   */\n    tag_91:\n        /* \"#utility.yul\":8158:8179   */\n      0x54686520676f616c206973207265616368656400000000000000000000000000\n        /* \"#utility.yul\":8154:8155   */\n      0x00\n        /* \"#utility.yul\":8146:8152   */\n      dup3\n        /* \"#utility.yul\":8142:8156   */\n      add\n        /* \"#utility.yul\":8135:8180   */\n      mstore\n        /* \"#utility.yul\":8018:8187   */\n      pop\n      jump\t// out\n        /* \"#utility.yul\":8193:8559   */\n    tag_92:\n        /* \"#utility.yul\":8335:8338   */\n      0x00\n        /* \"#utility.yul\":8356:8423   */\n      tag_167\n        /* \"#utility.yul\":8420:8422   */\n      0x13\n        /* \"#utility.yul\":8415:8418   */\n      dup4\n        /* \"#utility.yul\":8356:8423   */\n      tag_78\n      jump\t// in\n    tag_167:\n        /* \"#utility.yul\":8349:8423   */\n      swap2\n      pop\n        /* \"#utility.yul\":8432:8525   */\n      tag_168\n        /* \"#utility.yul\":8521:8524   */\n      dup3\n        /* \"#utility.yul\":8432:8525   */\n      tag_91\n      jump\t// in\n    tag_168:\n        /* \"#utility.yul\":8550:8552   */\n      0x20\n        /* \"#utility.yul\":8545:8548   */\n      dup3\n        /* \"#utility.yul\":8541:8553   */\n      add\n        /* \"#utility.yul\":8534:8553   */\n      swap1\n      pop\n        /* \"#utility.yul\":8193:8559   */\n      swap2\n      swap1\n      pop\n      jump\t// out\n        /* \"#utility.yul\":8565:9094   */\n    tag_66:\n        /* \"#utility.yul\":8759:8763   */\n      0x00\n        /* \"#utility.yul\":8797:8799   */\n      0x40\n        /* \"#utility.yul\":8786:8795   */\n      dup3\n        /* \"#utility.yul\":8782:8800   */\n      add\n        /* \"#utility.yul\":8774:8800   */\n      swap1\n      pop\n        /* \"#utility.yul\":8846:8855   */\n      dup2\n        /* \"#utility.yul\":8840:8844   */\n      dup2\n        /* \"#utility.yul\":8836:8856   */\n      sub\n        /* \"#utility.yul\":8832:8833   */\n      0x00\n        /* \"#utility.yul\":8821:8830   */\n      dup4\n        /* \"#utility.yul\":8817:8834   */\n      add\n        /* \"#utility.yul\":8810:8857   */\n      mstore\n        /* \"#utility.yul\":8874:9005   */\n      tag_170\n        /* \"#utility.yul\":9000:9004   */\n      dup2\n        /* \"#utility.yul\":8874:9005   */\n      tag_92\n      jump\t// in\n    tag_170:\n        /* \"#utility.yul\":8866:9005   */\n      swap1\n      pop\n        /* \"#utility.yul\":9015:9087   */\n      tag_171\n        /* \"#utility.yul\":9083:9085   */\n      0x20\n        /* \"#utility.yul\":9072:9081   */\n      dup4\n        /* \"#utility.yul\":9068:9086   */\n      add\n        /* \"#utility.yul\":9059:9065   */\n      dup5\n        /* \"#utility.yul\":9015:9087   */\n      tag_73\n      jump\t// in\n    tag_171:\n        /* \"#utility.yul\":8565:9094   */\n      swap3\n      swap2\n      pop\n      pop\n      jump\t// out\n\n    auxdata: 0xa2646970667358221220593954ba9ebeaf4a4d76ae74cab57a4c5bf6b62ef23c8830d01a4e198f01d7dd64736f6c634300081a0033\n}\n",
				"bytecode": {
					"linkReferences": {},
					"object": "608060405234801561000f575f80fd5b50604051610fbd380380610fbd833981810160405281019061003191906102e2565b6040518060e001604052808581526020018481526020018381526020015f60018111156100615761006061039a565b5b81526020015f81526020018281526020013373ffffffffffffffffffffffffffffffffffffffff168152505f80820151815f0190816100a091906105cb565b5060208201518160010190816100b691906105cb565b5060408201518160020190816100cc91906105cb565b506060820151816003015f6101000a81548160ff021916908360018111156100f7576100f661039a565b5b02179055506080820151816004015560a0820151816005015560c0820151816006015f6101000a81548173ffffffffffffffffffffffffffffffffffffffff021916908373ffffffffffffffffffffffffffffffffffffffff1602179055509050505050505061069a565b5f604051905090565b5f80fd5b5f80fd5b5f80fd5b5f80fd5b5f601f19601f8301169050919050565b7f4e487b71000000000000000000000000000000000000000000000000000000005f52604160045260245ffd5b6101c18261017b565b810181811067ffffffffffffffff821117156101e0576101df61018b565b5b80604052505050565b5f6101f2610162565b90506101fe82826101b8565b919050565b5f67ffffffffffffffff82111561021d5761021c61018b565b5b6102268261017b565b9050602081019050919050565b8281835e5f83830152505050565b5f61025361024e84610203565b6101e9565b90508281526020810184848401111561026f5761026e610177565b5b61027a848285610233565b509392505050565b5f82601f83011261029657610295610173565b5b81516102a6848260208601610241565b91505092915050565b5f819050919050565b6102c1816102af565b81146102cb575f80fd5b50565b5f815190506102dc816102b8565b92915050565b5f805f80608085870312156102fa576102f961016b565b5b5f85015167ffffffffffffffff8111156103175761031661016f565b5b61032387828801610282565b945050602085015167ffffffffffffffff8111156103445761034361016f565b5b61035087828801610282565b935050604085015167ffffffffffffffff8111156103715761037061016f565b5b61037d87828801610282565b925050606061038e878288016102ce565b91505092959194509250565b7f4e487b71000000000000000000000000000000000000000000000000000000005f52602160045260245ffd5b5f81519050919050565b7f4e487b71000000000000000000000000000000000000000000000000000000005f52602260045260245ffd5b5f600282049050600182168061041557607f821691505b602082108103610428576104276103d1565b5b50919050565b5f819050815f5260205f209050919050565b5f6020601f8301049050919050565b5f82821b905092915050565b5f6008830261048a7fffffffffffffffffffffffffffffffffffffffffffffffffffffffffffffffff8261044f565b610494868361044f565b95508019841693508086168417925050509392505050565b5f819050919050565b5f6104cf6104ca6104c5846102af565b6104ac565b6102af565b9050919050565b5f819050919050565b6104e8836104b5565b6104fc6104f4826104d6565b84845461045b565b825550505050565b5f90565b610510610504565b61051b8184846104df565b505050565b5b8181101561053e576105335f82610508565b600181019050610521565b5050565b601f821115610583576105548161042e565b61055d84610440565b8101602085101561056c578190505b61058061057885610440565b830182610520565b50505b505050565b5f82821c905092915050565b5f6105a35f1984600802610588565b1980831691505092915050565b5f6105bb8383610594565b9150826002028217905092915050565b6105d4826103c7565b67ffffffffffffffff8111156105ed576105ec61018b565b5b6105f782546103fe565b610602828285610542565b5f60209050601f831160018114610633575f8415610621578287015190505b61062b85826105b0565b865550610692565b601f1984166106418661042e565b5f5b8281101561066857848901518255600182019150602085019450602081019050610643565b868310156106855784890151610681601f891682610594565b8355505b6001600288020188555050505b505050505050565b610916806106a75f395ff3fe608060405260043610610049575f3560e01c8063268f11531461004d5780634d9b3735146100755780634e69d5601461009f578063b97a7d24146100c9578063d63dc661146100f3575b5f80fd5b348015610058575f80fd5b50610073600480360381019061006e91906104b1565b6100fd565b005b348015610080575f80fd5b50610089610205565b60405161009691906104f4565b60405180910390f35b3480156100aa575f80fd5b506100b3610210565b6040516100c09190610580565b60405180910390f35b3480156100d4575f80fd5b506100dd610227565b6040516100ea91906104f4565b60405180910390f35b6100fb610232565b005b3373ffffffffffffffffffffffffffffffffffffffff165f6006015f9054906101000a900473ffffffffffffffffffffffffffffffffffffffff1673ffffffffffffffffffffffffffffffffffffffff161461018e576040517f08c379a0000000000000000000000000000000000000000000000000000000008152600401610185906105f3565b60405180910390fd5b805f6003015f6101000a81548160ff021916908360018111156101b4576101b361050d565b5b02179055507fb82ce22096c6500c582b45cfbf153014e62fd0cbcccaf9a68dc6bfbd53d875d3335f6003015f9054906101000a900460ff166040516101fa929190610650565b60405180910390a150565b5f8060040154905090565b5f806003015f9054906101000a900460ff16905090565b5f8060050154905090565b3373ffffffffffffffffffffffffffffffffffffffff165f6006015f9054906101000a900473ffffffffffffffffffffffffffffffffffffffff1673ffffffffffffffffffffffffffffffffffffffff16036102c3576040517f08c379a00000000000000000000000000000000000000000000000000000000081526004016102ba906106e7565b60405180910390fd5b5f60018111156102d6576102d561050d565b5b6102de610210565b60018111156102f0576102ef61050d565b5b14610330576040517f08c379a00000000000000000000000000000000000000000000000000000000081526004016103279061074f565b60405180910390fd5b5f3411610372576040517f08c379a0000000000000000000000000000000000000000000000000000000008152600401610369906107b7565b60405180910390fd5b5f600501545f600401541015610447575f6006015f9054906101000a900473ffffffffffffffffffffffffffffffffffffffff1673ffffffffffffffffffffffffffffffffffffffff166108fc3490811502906040515f60405180830381858888f193505050501580156103e8573d5f803e3d5ffd5b50345f6004015f8282546103fc9190610802565b925050819055507f64068ba7aead24cdcded2af189a6bd37f13ceadd1774e1f0922fe9045507f23f33345f6004015460405161043a93929190610835565b60405180910390a1610488565b5f600501546040517f663c9c0d00000000000000000000000000000000000000000000000000000000815260040161047f91906108b4565b60405180910390fd5b565b5f80fd5b6002811061049a575f80fd5b50565b5f813590506104ab8161048e565b92915050565b5f602082840312156104c6576104c561048a565b5b5f6104d38482850161049d565b91505092915050565b5f819050919050565b6104ee816104dc565b82525050565b5f6020820190506105075f8301846104e5565b92915050565b7f4e487b71000000000000000000000000000000000000000000000000000000005f52602160045260245ffd5b6002811061054b5761054a61050d565b5b50565b5f81905061055b8261053a565b919050565b5f61056a8261054e565b9050919050565b61057a81610560565b82525050565b5f6020820190506105935f830184610571565b92915050565b5f82825260208201905092915050565b7f596f75206d757374206265207468652070726f6a656374206f776e65720000005f82015250565b5f6105dd601d83610599565b91506105e8826105a9565b602082019050919050565b5f6020820190508181035f83015261060a816105d1565b9050919050565b5f73ffffffffffffffffffffffffffffffffffffffff82169050919050565b5f61063a82610611565b9050919050565b61064a81610630565b82525050565b5f6040820190506106635f830185610641565b6106706020830184610571565b9392505050565b7f5468652070726f6a656374206f776e65722063616e277420646f2074686973205f8201527f7472616e73616374696f6e000000000000000000000000000000000000000000602082015250565b5f6106d1602b83610599565b91506106dc82610677565b604082019050919050565b5f6020820190508181035f8301526106fe816106c5565b9050919050565b7f43726f7764206973206e6f7420616374697665000000000000000000000000005f82015250565b5f610739601383610599565b915061074482610705565b602082019050919050565b5f6020820190508181035f8301526107668161072d565b9050919050565b7f43616e27742066756e64206c657373207468616e2030204554480000000000005f82015250565b5f6107a1601a83610599565b91506107ac8261076d565b602082019050919050565b5f6020820190508181035f8301526107ce81610795565b9050919050565b7f4e487b71000000000000000000000000000000000000000000000000000000005f52601160045260245ffd5b5f61080c826104dc565b9150610817836104dc565b925082820190508082111561082f5761082e6107d5565b5b92915050565b5f6060820190506108485f830186610641565b61085560208301856104e5565b61086260408301846104e5565b949350505050565b7f54686520676f616c2069732072656163686564000000000000000000000000005f82015250565b5f61089e601383610599565b91506108a98261086a565b602082019050919050565b5f6040820190508181035f8301526108cb81610892565b90506108da60208301846104e5565b9291505056fea2646970667358221220593954ba9ebeaf4a4d76ae74cab57a4c5bf6b62ef23c8830d01a4e198f01d7dd64736f6c634300081a0033",
					"opcodes": "PUSH1 0x80 PUSH1 0x40 MSTORE CALLVALUE DUP1 ISZERO PUSH2 0xF JUMPI PUSH0 DUP1 REVERT JUMPDEST POP PUSH1 0x40 MLOAD PUSH2 0xFBD CODESIZE SUB DUP1 PUSH2 0xFBD DUP4 CODECOPY DUP2 DUP2 ADD PUSH1 0x40 MSTORE DUP2 ADD SWAP1 PUSH2 0x31 SWAP2 SWAP1 PUSH2 0x2E2 JUMP JUMPDEST PUSH1 0x40 MLOAD DUP1 PUSH1 0xE0 ADD PUSH1 0x40 MSTORE DUP1 DUP6 DUP2 MSTORE PUSH1 0x20 ADD DUP5 DUP2 MSTORE PUSH1 0x20 ADD DUP4 DUP2 MSTORE PUSH1 0x20 ADD PUSH0 PUSH1 0x1 DUP2 GT ISZERO PUSH2 0x61 JUMPI PUSH2 0x60 PUSH2 0x39A JUMP JUMPDEST JUMPDEST DUP2 MSTORE PUSH1 0x20 ADD PUSH0 DUP2 MSTORE PUSH1 0x20 ADD DUP3 DUP2 MSTORE PUSH1 0x20 ADD CALLER PUSH20 0xFFFFFFFFFFFFFFFFFFFFFFFFFFFFFFFFFFFFFFFF AND DUP2 MSTORE POP PUSH0 DUP1 DUP3 ADD MLOAD DUP2 PUSH0 ADD SWAP1 DUP2 PUSH2 0xA0 SWAP2 SWAP1 PUSH2 0x5CB JUMP JUMPDEST POP PUSH1 0x20 DUP3 ADD MLOAD DUP2 PUSH1 0x1 ADD SWAP1 DUP2 PUSH2 0xB6 SWAP2 SWAP1 PUSH2 0x5CB JUMP JUMPDEST POP PUSH1 0x40 DUP3 ADD MLOAD DUP2 PUSH1 0x2 ADD SWAP1 DUP2 PUSH2 0xCC SWAP2 SWAP1 PUSH2 0x5CB JUMP JUMPDEST POP PUSH1 0x60 DUP3 ADD MLOAD DUP2 PUSH1 0x3 ADD PUSH0 PUSH2 0x100 EXP DUP2 SLOAD DUP2 PUSH1 0xFF MUL NOT AND SWAP1 DUP4 PUSH1 0x1 DUP2 GT ISZERO PUSH2 0xF7 JUMPI PUSH2 0xF6 PUSH2 0x39A JUMP JUMPDEST JUMPDEST MUL OR SWAP1 SSTORE POP PUSH1 0x80 DUP3 ADD MLOAD DUP2 PUSH1 0x4 ADD SSTORE PUSH1 0xA0 DUP3 ADD MLOAD DUP2 PUSH1 0x5 ADD SSTORE PUSH1 0xC0 DUP3 ADD MLOAD DUP2 PUSH1 0x6 ADD PUSH0 PUSH2 0x100 EXP DUP2 SLOAD DUP2 PUSH20 0xFFFFFFFFFFFFFFFFFFFFFFFFFFFFFFFFFFFFFFFF MUL NOT AND SWAP1 DUP4 PUSH20 0xFFFFFFFFFFFFFFFFFFFFFFFFFFFFFFFFFFFFFFFF AND MUL OR SWAP1 SSTORE POP SWAP1 POP POP POP POP POP POP PUSH2 0x69A JUMP JUMPDEST PUSH0 PUSH1 0x40 MLOAD SWAP1 POP SWAP1 JUMP JUMPDEST PUSH0 DUP1 REVERT JUMPDEST PUSH0 DUP1 REVERT JUMPDEST PUSH0 DUP1 REVERT JUMPDEST PUSH0 DUP1 REVERT JUMPDEST PUSH0 PUSH1 0x1F NOT PUSH1 0x1F DUP4 ADD AND SWAP1 POP SWAP2 SWAP1 POP JUMP JUMPDEST PUSH32 0x4E487B7100000000000000000000000000000000000000000000000000000000 PUSH0 MSTORE PUSH1 0x41 PUSH1 0x4 MSTORE PUSH1 0x24 PUSH0 REVERT JUMPDEST PUSH2 0x1C1 DUP3 PUSH2 0x17B JUMP JUMPDEST DUP2 ADD DUP2 DUP2 LT PUSH8 0xFFFFFFFFFFFFFFFF DUP3 GT OR ISZERO PUSH2 0x1E0 JUMPI PUSH2 0x1DF PUSH2 0x18B JUMP JUMPDEST JUMPDEST DUP1 PUSH1 0x40 MSTORE POP POP POP JUMP JUMPDEST PUSH0 PUSH2 0x1F2 PUSH2 0x162 JUMP JUMPDEST SWAP1 POP PUSH2 0x1FE DUP3 DUP3 PUSH2 0x1B8 JUMP JUMPDEST SWAP2 SWAP1 POP JUMP JUMPDEST PUSH0 PUSH8 0xFFFFFFFFFFFFFFFF DUP3 GT ISZERO PUSH2 0x21D JUMPI PUSH2 0x21C PUSH2 0x18B JUMP JUMPDEST JUMPDEST PUSH2 0x226 DUP3 PUSH2 0x17B JUMP JUMPDEST SWAP1 POP PUSH1 0x20 DUP2 ADD SWAP1 POP SWAP2 SWAP1 POP JUMP JUMPDEST DUP3 DUP2 DUP4 MCOPY PUSH0 DUP4 DUP4 ADD MSTORE POP POP POP JUMP JUMPDEST PUSH0 PUSH2 0x253 PUSH2 0x24E DUP5 PUSH2 0x203 JUMP JUMPDEST PUSH2 0x1E9 JUMP JUMPDEST SWAP1 POP DUP3 DUP2 MSTORE PUSH1 0x20 DUP2 ADD DUP5 DUP5 DUP5 ADD GT ISZERO PUSH2 0x26F JUMPI PUSH2 0x26E PUSH2 0x177 JUMP JUMPDEST JUMPDEST PUSH2 0x27A DUP5 DUP3 DUP6 PUSH2 0x233 JUMP JUMPDEST POP SWAP4 SWAP3 POP POP POP JUMP JUMPDEST PUSH0 DUP3 PUSH1 0x1F DUP4 ADD SLT PUSH2 0x296 JUMPI PUSH2 0x295 PUSH2 0x173 JUMP JUMPDEST JUMPDEST DUP2 MLOAD PUSH2 0x2A6 DUP5 DUP3 PUSH1 0x20 DUP7 ADD PUSH2 0x241 JUMP JUMPDEST SWAP2 POP POP SWAP3 SWAP2 POP POP JUMP JUMPDEST PUSH0 DUP2 SWAP1 POP SWAP2 SWAP1 POP JUMP JUMPDEST PUSH2 0x2C1 DUP2 PUSH2 0x2AF JUMP JUMPDEST DUP2 EQ PUSH2 0x2CB JUMPI PUSH0 DUP1 REVERT JUMPDEST POP JUMP JUMPDEST PUSH0 DUP2 MLOAD SWAP1 POP PUSH2 0x2DC DUP2 PUSH2 0x2B8 JUMP JUMPDEST SWAP3 SWAP2 POP POP JUMP JUMPDEST PUSH0 DUP1 PUSH0 DUP1 PUSH1 0x80 DUP6 DUP8 SUB SLT ISZERO PUSH2 0x2FA JUMPI PUSH2 0x2F9 PUSH2 0x16B JUMP JUMPDEST JUMPDEST PUSH0 DUP6 ADD MLOAD PUSH8 0xFFFFFFFFFFFFFFFF DUP2 GT ISZERO PUSH2 0x317 JUMPI PUSH2 0x316 PUSH2 0x16F JUMP JUMPDEST JUMPDEST PUSH2 0x323 DUP8 DUP3 DUP9 ADD PUSH2 0x282 JUMP JUMPDEST SWAP5 POP POP PUSH1 0x20 DUP6 ADD MLOAD PUSH8 0xFFFFFFFFFFFFFFFF DUP2 GT ISZERO PUSH2 0x344 JUMPI PUSH2 0x343 PUSH2 0x16F JUMP JUMPDEST JUMPDEST PUSH2 0x350 DUP8 DUP3 DUP9 ADD PUSH2 0x282 JUMP JUMPDEST SWAP4 POP POP PUSH1 0x40 DUP6 ADD MLOAD PUSH8 0xFFFFFFFFFFFFFFFF DUP2 GT ISZERO PUSH2 0x371 JUMPI PUSH2 0x370 PUSH2 0x16F JUMP JUMPDEST JUMPDEST PUSH2 0x37D DUP8 DUP3 DUP9 ADD PUSH2 0x282 JUMP JUMPDEST SWAP3 POP POP PUSH1 0x60 PUSH2 0x38E DUP8 DUP3 DUP9 ADD PUSH2 0x2CE JUMP JUMPDEST SWAP2 POP POP SWAP3 SWAP6 SWAP2 SWAP5 POP SWAP3 POP JUMP JUMPDEST PUSH32 0x4E487B7100000000000000000000000000000000000000000000000000000000 PUSH0 MSTORE PUSH1 0x21 PUSH1 0x4 MSTORE PUSH1 0x24 PUSH0 REVERT JUMPDEST PUSH0 DUP2 MLOAD SWAP1 POP SWAP2 SWAP1 POP JUMP JUMPDEST PUSH32 0x4E487B7100000000000000000000000000000000000000000000000000000000 PUSH0 MSTORE PUSH1 0x22 PUSH1 0x4 MSTORE PUSH1 0x24 PUSH0 REVERT JUMPDEST PUSH0 PUSH1 0x2 DUP3 DIV SWAP1 POP PUSH1 0x1 DUP3 AND DUP1 PUSH2 0x415 JUMPI PUSH1 0x7F DUP3 AND SWAP2 POP JUMPDEST PUSH1 0x20 DUP3 LT DUP2 SUB PUSH2 0x428 JUMPI PUSH2 0x427 PUSH2 0x3D1 JUMP JUMPDEST JUMPDEST POP SWAP2 SWAP1 POP JUMP JUMPDEST PUSH0 DUP2 SWAP1 POP DUP2 PUSH0 MSTORE PUSH1 0x20 PUSH0 KECCAK256 SWAP1 POP SWAP2 SWAP1 POP JUMP JUMPDEST PUSH0 PUSH1 0x20 PUSH1 0x1F DUP4 ADD DIV SWAP1 POP SWAP2 SWAP1 POP JUMP JUMPDEST PUSH0 DUP3 DUP3 SHL SWAP1 POP SWAP3 SWAP2 POP POP JUMP JUMPDEST PUSH0 PUSH1 0x8 DUP4 MUL PUSH2 0x48A PUSH32 0xFFFFFFFFFFFFFFFFFFFFFFFFFFFFFFFFFFFFFFFFFFFFFFFFFFFFFFFFFFFFFFFF DUP3 PUSH2 0x44F JUMP JUMPDEST PUSH2 0x494 DUP7 DUP4 PUSH2 0x44F JUMP JUMPDEST SWAP6 POP DUP1 NOT DUP5 AND SWAP4 POP DUP1 DUP7 AND DUP5 OR SWAP3 POP POP POP SWAP4 SWAP3 POP POP POP JUMP JUMPDEST PUSH0 DUP2 SWAP1 POP SWAP2 SWAP1 POP JUMP JUMPDEST PUSH0 PUSH2 0x4CF PUSH2 0x4CA PUSH2 0x4C5 DUP5 PUSH2 0x2AF JUMP JUMPDEST PUSH2 0x4AC JUMP JUMPDEST PUSH2 0x2AF JUMP JUMPDEST SWAP1 POP SWAP2 SWAP1 POP JUMP JUMPDEST PUSH0 DUP2 SWAP1 POP SWAP2 SWAP1 POP JUMP JUMPDEST PUSH2 0x4E8 DUP4 PUSH2 0x4B5 JUMP JUMPDEST PUSH2 0x4FC PUSH2 0x4F4 DUP3 PUSH2 0x4D6 JUMP JUMPDEST DUP5 DUP5 SLOAD PUSH2 0x45B JUMP JUMPDEST DUP3 SSTORE POP POP POP POP JUMP JUMPDEST PUSH0 SWAP1 JUMP JUMPDEST PUSH2 0x510 PUSH2 0x504 JUMP JUMPDEST PUSH2 0x51B DUP2 DUP5 DUP5 PUSH2 0x4DF JUMP JUMPDEST POP POP POP JUMP JUMPDEST JUMPDEST DUP2 DUP2 LT ISZERO PUSH2 0x53E JUMPI PUSH2 0x533 PUSH0 DUP3 PUSH2 0x508 JUMP JUMPDEST PUSH1 0x1 DUP2 ADD SWAP1 POP PUSH2 0x521 JUMP JUMPDEST POP POP JUMP JUMPDEST PUSH1 0x1F DUP3 GT ISZERO PUSH2 0x583 JUMPI PUSH2 0x554 DUP2 PUSH2 0x42E JUMP JUMPDEST PUSH2 0x55D DUP5 PUSH2 0x440 JUMP JUMPDEST DUP2 ADD PUSH1 0x20 DUP6 LT ISZERO PUSH2 0x56C JUMPI DUP2 SWAP1 POP JUMPDEST PUSH2 0x580 PUSH2 0x578 DUP6 PUSH2 0x440 JUMP JUMPDEST DUP4 ADD DUP3 PUSH2 0x520 JUMP JUMPDEST POP POP JUMPDEST POP POP POP JUMP JUMPDEST PUSH0 DUP3 DUP3 SHR SWAP1 POP SWAP3 SWAP2 POP POP JUMP JUMPDEST PUSH0 PUSH2 0x5A3 PUSH0 NOT DUP5 PUSH1 0x8 MUL PUSH2 0x588 JUMP JUMPDEST NOT DUP1 DUP4 AND SWAP2 POP POP SWAP3 SWAP2 POP POP JUMP JUMPDEST PUSH0 PUSH2 0x5BB DUP4 DUP4 PUSH2 0x594 JUMP JUMPDEST SWAP2 POP DUP3 PUSH1 0x2 MUL DUP3 OR SWAP1 POP SWAP3 SWAP2 POP POP JUMP JUMPDEST PUSH2 0x5D4 DUP3 PUSH2 0x3C7 JUMP JUMPDEST PUSH8 0xFFFFFFFFFFFFFFFF DUP2 GT ISZERO PUSH2 0x5ED JUMPI PUSH2 0x5EC PUSH2 0x18B JUMP JUMPDEST JUMPDEST PUSH2 0x5F7 DUP3 SLOAD PUSH2 0x3FE JUMP JUMPDEST PUSH2 0x602 DUP3 DUP3 DUP6 PUSH2 0x542 JUMP JUMPDEST PUSH0 PUSH1 0x20 SWAP1 POP PUSH1 0x1F DUP4 GT PUSH1 0x1 DUP2 EQ PUSH2 0x633 JUMPI PUSH0 DUP5 ISZERO PUSH2 0x621 JUMPI DUP3 DUP8 ADD MLOAD SWAP1 POP JUMPDEST PUSH2 0x62B DUP6 DUP3 PUSH2 0x5B0 JUMP JUMPDEST DUP7 SSTORE POP PUSH2 0x692 JUMP JUMPDEST PUSH1 0x1F NOT DUP5 AND PUSH2 0x641 DUP7 PUSH2 0x42E JUMP JUMPDEST PUSH0 JUMPDEST DUP3 DUP2 LT ISZERO PUSH2 0x668 JUMPI DUP5 DUP10 ADD MLOAD DUP3 SSTORE PUSH1 0x1 DUP3 ADD SWAP2 POP PUSH1 0x20 DUP6 ADD SWAP5 POP PUSH1 0x20 DUP2 ADD SWAP1 POP PUSH2 0x643 JUMP JUMPDEST DUP7 DUP4 LT ISZERO PUSH2 0x685 JUMPI DUP5 DUP10 ADD MLOAD PUSH2 0x681 PUSH1 0x1F DUP10 AND DUP3 PUSH2 0x594 JUMP JUMPDEST DUP4 SSTORE POP JUMPDEST PUSH1 0x1 PUSH1 0x2 DUP9 MUL ADD DUP9 SSTORE POP POP POP JUMPDEST POP POP POP POP POP POP JUMP JUMPDEST PUSH2 0x916 DUP1 PUSH2 0x6A7 PUSH0 CODECOPY PUSH0 RETURN INVALID PUSH1 0x80 PUSH1 0x40 MSTORE PUSH1 0x4 CALLDATASIZE LT PUSH2 0x49 JUMPI PUSH0 CALLDATALOAD PUSH1 0xE0 SHR DUP1 PUSH4 0x268F1153 EQ PUSH2 0x4D JUMPI DUP1 PUSH4 0x4D9B3735 EQ PUSH2 0x75 JUMPI DUP1 PUSH4 0x4E69D560 EQ PUSH2 0x9F JUMPI DUP1 PUSH4 0xB97A7D24 EQ PUSH2 0xC9 JUMPI DUP1 PUSH4 0xD63DC661 EQ PUSH2 0xF3 JUMPI JUMPDEST PUSH0 DUP1 REVERT JUMPDEST CALLVALUE DUP1 ISZERO PUSH2 0x58 JUMPI PUSH0 DUP1 REVERT JUMPDEST POP PUSH2 0x73 PUSH1 0x4 DUP1 CALLDATASIZE SUB DUP2 ADD SWAP1 PUSH2 0x6E SWAP2 SWAP1 PUSH2 0x4B1 JUMP JUMPDEST PUSH2 0xFD JUMP JUMPDEST STOP JUMPDEST CALLVALUE DUP1 ISZERO PUSH2 0x80 JUMPI PUSH0 DUP1 REVERT JUMPDEST POP PUSH2 0x89 PUSH2 0x205 JUMP JUMPDEST PUSH1 0x40 MLOAD PUSH2 0x96 SWAP2 SWAP1 PUSH2 0x4F4 JUMP JUMPDEST PUSH1 0x40 MLOAD DUP1 SWAP2 SUB SWAP1 RETURN JUMPDEST CALLVALUE DUP1 ISZERO PUSH2 0xAA JUMPI PUSH0 DUP1 REVERT JUMPDEST POP PUSH2 0xB3 PUSH2 0x210 JUMP JUMPDEST PUSH1 0x40 MLOAD PUSH2 0xC0 SWAP2 SWAP1 PUSH2 0x580 JUMP JUMPDEST PUSH1 0x40 MLOAD DUP1 SWAP2 SUB SWAP1 RETURN JUMPDEST CALLVALUE DUP1 ISZERO PUSH2 0xD4 JUMPI PUSH0 DUP1 REVERT JUMPDEST POP PUSH2 0xDD PUSH2 0x227 JUMP JUMPDEST PUSH1 0x40 MLOAD PUSH2 0xEA SWAP2 SWAP1 PUSH2 0x4F4 JUMP JUMPDEST PUSH1 0x40 MLOAD DUP1 SWAP2 SUB SWAP1 RETURN JUMPDEST PUSH2 0xFB PUSH2 0x232 JUMP JUMPDEST STOP JUMPDEST CALLER PUSH20 0xFFFFFFFFFFFFFFFFFFFFFFFFFFFFFFFFFFFFFFFF AND PUSH0 PUSH1 0x6 ADD PUSH0 SWAP1 SLOAD SWAP1 PUSH2 0x100 EXP SWAP1 DIV PUSH20 0xFFFFFFFFFFFFFFFFFFFFFFFFFFFFFFFFFFFFFFFF AND PUSH20 0xFFFFFFFFFFFFFFFFFFFFFFFFFFFFFFFFFFFFFFFF AND EQ PUSH2 0x18E JUMPI PUSH1 0x40 MLOAD PUSH32 0x8C379A000000000000000000000000000000000000000000000000000000000 DUP2 MSTORE PUSH1 0x4 ADD PUSH2 0x185 SWAP1 PUSH2 0x5F3 JUMP JUMPDEST PUSH1 0x40 MLOAD DUP1 SWAP2 SUB SWAP1 REVERT JUMPDEST DUP1 PUSH0 PUSH1 0x3 ADD PUSH0 PUSH2 0x100 EXP DUP2 SLOAD DUP2 PUSH1 0xFF MUL NOT AND SWAP1 DUP4 PUSH1 0x1 DUP2 GT ISZERO PUSH2 0x1B4 JUMPI PUSH2 0x1B3 PUSH2 0x50D JUMP JUMPDEST JUMPDEST MUL OR SWAP1 SSTORE POP PUSH32 0xB82CE22096C6500C582B45CFBF153014E62FD0CBCCCAF9A68DC6BFBD53D875D3 CALLER PUSH0 PUSH1 0x3 ADD PUSH0 SWAP1 SLOAD SWAP1 PUSH2 0x100 EXP SWAP1 DIV PUSH1 0xFF AND PUSH1 0x40 MLOAD PUSH2 0x1FA SWAP3 SWAP2 SWAP1 PUSH2 0x650 JUMP JUMPDEST PUSH1 0x40 MLOAD DUP1 SWAP2 SUB SWAP1 LOG1 POP JUMP JUMPDEST PUSH0 DUP1 PUSH1 0x4 ADD SLOAD SWAP1 POP SWAP1 JUMP JUMPDEST PUSH0 DUP1 PUSH1 0x3 ADD PUSH0 SWAP1 SLOAD SWAP1 PUSH2 0x100 EXP SWAP1 DIV PUSH1 0xFF AND SWAP1 POP SWAP1 JUMP JUMPDEST PUSH0 DUP1 PUSH1 0x5 ADD SLOAD SWAP1 POP SWAP1 JUMP JUMPDEST CALLER PUSH20 0xFFFFFFFFFFFFFFFFFFFFFFFFFFFFFFFFFFFFFFFF AND PUSH0 PUSH1 0x6 ADD PUSH0 SWAP1 SLOAD SWAP1 PUSH2 0x100 EXP SWAP1 DIV PUSH20 0xFFFFFFFFFFFFFFFFFFFFFFFFFFFFFFFFFFFFFFFF AND PUSH20 0xFFFFFFFFFFFFFFFFFFFFFFFFFFFFFFFFFFFFFFFF AND SUB PUSH2 0x2C3 JUMPI PUSH1 0x40 MLOAD PUSH32 0x8C379A000000000000000000000000000000000000000000000000000000000 DUP2 MSTORE PUSH1 0x4 ADD PUSH2 0x2BA SWAP1 PUSH2 0x6E7 JUMP JUMPDEST PUSH1 0x40 MLOAD DUP1 SWAP2 SUB SWAP1 REVERT JUMPDEST PUSH0 PUSH1 0x1 DUP2 GT ISZERO PUSH2 0x2D6 JUMPI PUSH2 0x2D5 PUSH2 0x50D JUMP JUMPDEST JUMPDEST PUSH2 0x2DE PUSH2 0x210 JUMP JUMPDEST PUSH1 0x1 DUP2 GT ISZERO PUSH2 0x2F0 JUMPI PUSH2 0x2EF PUSH2 0x50D JUMP JUMPDEST JUMPDEST EQ PUSH2 0x330 JUMPI PUSH1 0x40 MLOAD PUSH32 0x8C379A000000000000000000000000000000000000000000000000000000000 DUP2 MSTORE PUSH1 0x4 ADD PUSH2 0x327 SWAP1 PUSH2 0x74F JUMP JUMPDEST PUSH1 0x40 MLOAD DUP1 SWAP2 SUB SWAP1 REVERT JUMPDEST PUSH0 CALLVALUE GT PUSH2 0x372 JUMPI PUSH1 0x40 MLOAD PUSH32 0x8C379A000000000000000000000000000000000000000000000000000000000 DUP2 MSTORE PUSH1 0x4 ADD PUSH2 0x369 SWAP1 PUSH2 0x7B7 JUMP JUMPDEST PUSH1 0x40 MLOAD DUP1 SWAP2 SUB SWAP1 REVERT JUMPDEST PUSH0 PUSH1 0x5 ADD SLOAD PUSH0 PUSH1 0x4 ADD SLOAD LT ISZERO PUSH2 0x447 JUMPI PUSH0 PUSH1 0x6 ADD PUSH0 SWAP1 SLOAD SWAP1 PUSH2 0x100 EXP SWAP1 DIV PUSH20 0xFFFFFFFFFFFFFFFFFFFFFFFFFFFFFFFFFFFFFFFF AND PUSH20 0xFFFFFFFFFFFFFFFFFFFFFFFFFFFFFFFFFFFFFFFF AND PUSH2 0x8FC CALLVALUE SWAP1 DUP2 ISZERO MUL SWAP1 PUSH1 0x40 MLOAD PUSH0 PUSH1 0x40 MLOAD DUP1 DUP4 SUB DUP2 DUP6 DUP9 DUP9 CALL SWAP4 POP POP POP POP ISZERO DUP1 ISZERO PUSH2 0x3E8 JUMPI RETURNDATASIZE PUSH0 DUP1 RETURNDATACOPY RETURNDATASIZE PUSH0 REVERT JUMPDEST POP CALLVALUE PUSH0 PUSH1 0x4 ADD PUSH0 DUP3 DUP3 SLOAD PUSH2 0x3FC SWAP2 SWAP1 PUSH2 0x802 JUMP JUMPDEST SWAP3 POP POP DUP2 SWAP1 SSTORE POP PUSH32 0x64068BA7AEAD24CDCDED2AF189A6BD37F13CEADD1774E1F0922FE9045507F23F CALLER CALLVALUE PUSH0 PUSH1 0x4 ADD SLOAD PUSH1 0x40 MLOAD PUSH2 0x43A SWAP4 SWAP3 SWAP2 SWAP1 PUSH2 0x835 JUMP JUMPDEST PUSH1 0x40 MLOAD DUP1 SWAP2 SUB SWAP1 LOG1 PUSH2 0x488 JUMP JUMPDEST PUSH0 PUSH1 0x5 ADD SLOAD PUSH1 0x40 MLOAD PUSH32 0x663C9C0D00000000000000000000000000000000000000000000000000000000 DUP2 MSTORE PUSH1 0x4 ADD PUSH2 0x47F SWAP2 SWAP1 PUSH2 0x8B4 JUMP JUMPDEST PUSH1 0x40 MLOAD DUP1 SWAP2 SUB SWAP1 REVERT JUMPDEST JUMP JUMPDEST PUSH0 DUP1 REVERT JUMPDEST PUSH1 0x2 DUP2 LT PUSH2 0x49A JUMPI PUSH0 DUP1 REVERT JUMPDEST POP JUMP JUMPDEST PUSH0 DUP2 CALLDATALOAD SWAP1 POP PUSH2 0x4AB DUP2 PUSH2 0x48E JUMP JUMPDEST SWAP3 SWAP2 POP POP JUMP JUMPDEST PUSH0 PUSH1 0x20 DUP3 DUP5 SUB SLT ISZERO PUSH2 0x4C6 JUMPI PUSH2 0x4C5 PUSH2 0x48A JUMP JUMPDEST JUMPDEST PUSH0 PUSH2 0x4D3 DUP5 DUP3 DUP6 ADD PUSH2 0x49D JUMP JUMPDEST SWAP2 POP POP SWAP3 SWAP2 POP POP JUMP JUMPDEST PUSH0 DUP2 SWAP1 POP SWAP2 SWAP1 POP JUMP JUMPDEST PUSH2 0x4EE DUP2 PUSH2 0x4DC JUMP JUMPDEST DUP3 MSTORE POP POP JUMP JUMPDEST PUSH0 PUSH1 0x20 DUP3 ADD SWAP1 POP PUSH2 0x507 PUSH0 DUP4 ADD DUP5 PUSH2 0x4E5 JUMP JUMPDEST SWAP3 SWAP2 POP POP JUMP JUMPDEST PUSH32 0x4E487B7100000000000000000000000000000000000000000000000000000000 PUSH0 MSTORE PUSH1 0x21 PUSH1 0x4 MSTORE PUSH1 0x24 PUSH0 REVERT JUMPDEST PUSH1 0x2 DUP2 LT PUSH2 0x54B JUMPI PUSH2 0x54A PUSH2 0x50D JUMP JUMPDEST JUMPDEST POP JUMP JUMPDEST PUSH0 DUP2 SWAP1 POP PUSH2 0x55B DUP3 PUSH2 0x53A JUMP JUMPDEST SWAP2 SWAP1 POP JUMP JUMPDEST PUSH0 PUSH2 0x56A DUP3 PUSH2 0x54E JUMP JUMPDEST SWAP1 POP SWAP2 SWAP1 POP JUMP JUMPDEST PUSH2 0x57A DUP2 PUSH2 0x560 JUMP JUMPDEST DUP3 MSTORE POP POP JUMP JUMPDEST PUSH0 PUSH1 0x20 DUP3 ADD SWAP1 POP PUSH2 0x593 PUSH0 DUP4 ADD DUP5 PUSH2 0x571 JUMP JUMPDEST SWAP3 SWAP2 POP POP JUMP JUMPDEST PUSH0 DUP3 DUP3 MSTORE PUSH1 0x20 DUP3 ADD SWAP1 POP SWAP3 SWAP2 POP POP JUMP JUMPDEST PUSH32 0x596F75206D757374206265207468652070726F6A656374206F776E6572000000 PUSH0 DUP3 ADD MSTORE POP JUMP JUMPDEST PUSH0 PUSH2 0x5DD PUSH1 0x1D DUP4 PUSH2 0x599 JUMP JUMPDEST SWAP2 POP PUSH2 0x5E8 DUP3 PUSH2 0x5A9 JUMP JUMPDEST PUSH1 0x20 DUP3 ADD SWAP1 POP SWAP2 SWAP1 POP JUMP JUMPDEST PUSH0 PUSH1 0x20 DUP3 ADD SWAP1 POP DUP2 DUP2 SUB PUSH0 DUP4 ADD MSTORE PUSH2 0x60A DUP2 PUSH2 0x5D1 JUMP JUMPDEST SWAP1 POP SWAP2 SWAP1 POP JUMP JUMPDEST PUSH0 PUSH20 0xFFFFFFFFFFFFFFFFFFFFFFFFFFFFFFFFFFFFFFFF DUP3 AND SWAP1 POP SWAP2 SWAP1 POP JUMP JUMPDEST PUSH0 PUSH2 0x63A DUP3 PUSH2 0x611 JUMP JUMPDEST SWAP1 POP SWAP2 SWAP1 POP JUMP JUMPDEST PUSH2 0x64A DUP2 PUSH2 0x630 JUMP JUMPDEST DUP3 MSTORE POP POP JUMP JUMPDEST PUSH0 PUSH1 0x40 DUP3 ADD SWAP1 POP PUSH2 0x663 PUSH0 DUP4 ADD DUP6 PUSH2 0x641 JUMP JUMPDEST PUSH2 0x670 PUSH1 0x20 DUP4 ADD DUP5 PUSH2 0x571 JUMP JUMPDEST SWAP4 SWAP3 POP POP POP JUMP JUMPDEST PUSH32 0x5468652070726F6A656374206F776E65722063616E277420646F207468697320 PUSH0 DUP3 ADD MSTORE PUSH32 0x7472616E73616374696F6E000000000000000000000000000000000000000000 PUSH1 0x20 DUP3 ADD MSTORE POP JUMP JUMPDEST PUSH0 PUSH2 0x6D1 PUSH1 0x2B DUP4 PUSH2 0x599 JUMP JUMPDEST SWAP2 POP PUSH2 0x6DC DUP3 PUSH2 0x677 JUMP JUMPDEST PUSH1 0x40 DUP3 ADD SWAP1 POP SWAP2 SWAP1 POP JUMP JUMPDEST PUSH0 PUSH1 0x20 DUP3 ADD SWAP1 POP DUP2 DUP2 SUB PUSH0 DUP4 ADD MSTORE PUSH2 0x6FE DUP2 PUSH2 0x6C5 JUMP JUMPDEST SWAP1 POP SWAP2 SWAP1 POP JUMP JUMPDEST PUSH32 0x43726F7764206973206E6F742061637469766500000000000000000000000000 PUSH0 DUP3 ADD MSTORE POP JUMP JUMPDEST PUSH0 PUSH2 0x739 PUSH1 0x13 DUP4 PUSH2 0x599 JUMP JUMPDEST SWAP2 POP PUSH2 0x744 DUP3 PUSH2 0x705 JUMP JUMPDEST PUSH1 0x20 DUP3 ADD SWAP1 POP SWAP2 SWAP1 POP JUMP JUMPDEST PUSH0 PUSH1 0x20 DUP3 ADD SWAP1 POP DUP2 DUP2 SUB PUSH0 DUP4 ADD MSTORE PUSH2 0x766 DUP2 PUSH2 0x72D JUMP JUMPDEST SWAP1 POP SWAP2 SWAP1 POP JUMP JUMPDEST PUSH32 0x43616E27742066756E64206C657373207468616E203020455448000000000000 PUSH0 DUP3 ADD MSTORE POP JUMP JUMPDEST PUSH0 PUSH2 0x7A1 PUSH1 0x1A DUP4 PUSH2 0x599 JUMP JUMPDEST SWAP2 POP PUSH2 0x7AC DUP3 PUSH2 0x76D JUMP JUMPDEST PUSH1 0x20 DUP3 ADD SWAP1 POP SWAP2 SWAP1 POP JUMP JUMPDEST PUSH0 PUSH1 0x20 DUP3 ADD SWAP1 POP DUP2 DUP2 SUB PUSH0 DUP4 ADD MSTORE PUSH2 0x7CE DUP2 PUSH2 0x795 JUMP JUMPDEST SWAP1 POP SWAP2 SWAP1 POP JUMP JUMPDEST PUSH32 0x4E487B7100000000000000000000000000000000000000000000000000000000 PUSH0 MSTORE PUSH1 0x11 PUSH1 0x4 MSTORE PUSH1 0x24 PUSH0 REVERT JUMPDEST PUSH0 PUSH2 0x80C DUP3 PUSH2 0x4DC JUMP JUMPDEST SWAP2 POP PUSH2 0x817 DUP4 PUSH2 0x4DC JUMP JUMPDEST SWAP3 POP DUP3 DUP3 ADD SWAP1 POP DUP1 DUP3 GT ISZERO PUSH2 0x82F JUMPI PUSH2 0x82E PUSH2 0x7D5 JUMP JUMPDEST JUMPDEST SWAP3 SWAP2 POP POP JUMP JUMPDEST PUSH0 PUSH1 0x60 DUP3 ADD SWAP1 POP PUSH2 0x848 PUSH0 DUP4 ADD DUP7 PUSH2 0x641 JUMP JUMPDEST PUSH2 0x855 PUSH1 0x20 DUP4 ADD DUP6 PUSH2 0x4E5 JUMP JUMPDEST PUSH2 0x862 PUSH1 0x40 DUP4 ADD DUP5 PUSH2 0x4E5 JUMP JUMPDEST SWAP5 SWAP4 POP POP POP POP JUMP JUMPDEST PUSH32 0x54686520676F616C206973207265616368656400000000000000000000000000 PUSH0 DUP3 ADD MSTORE POP JUMP JUMPDEST PUSH0 PUSH2 0x89E PUSH1 0x13 DUP4 PUSH2 0x599 JUMP JUMPDEST SWAP2 POP PUSH2 0x8A9 DUP3 PUSH2 0x86A JUMP JUMPDEST PUSH1 0x20 DUP3 ADD SWAP1 POP SWAP2 SWAP1 POP JUMP JUMPDEST PUSH0 PUSH1 0x40 DUP3 ADD SWAP1 POP DUP2 DUP2 SUB PUSH0 DUP4 ADD MSTORE PUSH2 0x8CB DUP2 PUSH2 0x892 JUMP JUMPDEST SWAP1 POP PUSH2 0x8DA PUSH1 0x20 DUP4 ADD DUP5 PUSH2 0x4E5 JUMP JUMPDEST SWAP3 SWAP2 POP POP JUMP INVALID LOG2 PUSH5 0x6970667358 0x22 SLT KECCAK256 MSIZE CODECOPY SLOAD 0xBA SWAP15 0xBE 0xAF BLOBBASEFEE 0x4D PUSH23 0xAE74CAB57A4C5BF6B62EF23C8830D01A4E198F01D7DD64 PUSH20 0x6F6C634300081A00330000000000000000000000 "
				},
				"gasEstimates": {
					"creation": {
						"codeDepositCost": "465200",
						"executionCost": "infinite",
						"totalCost": "infinite"
					},
					"external": {
						"changeState(uint8)": "30629",
						"fundProject()": "infinite",
						"getFunds()": "2438",
						"getGoal()": "2482",
						"getStatus()": "2589"
					}
				},
				"methodIdentifiers": {
					"changeState(uint8)": "268f1153",
					"fundProject()": "d63dc661",
					"getFunds()": "4d9b3735",
					"getGoal()": "b97a7d24",
					"getStatus()": "4e69d560"
				}
			},
			"storageLayout": {
				"storage": [
					{
						"astId": 23,
						"contract": "contracts/Found.sol:CrowdFunding",
						"label": "project",
						"offset": 0,
						"slot": "0",
						"type": "t_struct(Project)20_storage"
					}
				],
				"types": {
					"t_address_payable": {
						"encoding": "inplace",
						"label": "address payable",
						"numberOfBytes": "20"
					},
					"t_enum(State)4": {
						"encoding": "inplace",
						"label": "enum CrowdFunding.State",
						"numberOfBytes": "1"
					},
					"t_string_storage": {
						"encoding": "bytes",
						"label": "string",
						"numberOfBytes": "32"
					},
					"t_struct(Project)20_storage": {
						"encoding": "inplace",
						"label": "struct CrowdFunding.Project",
						"members": [
							{
								"astId": 6,
								"contract": "contracts/Found.sol:CrowdFunding",
								"label": "projectId",
								"offset": 0,
								"slot": "0",
								"type": "t_string_storage"
							},
							{
								"astId": 8,
								"contract": "contracts/Found.sol:CrowdFunding",
								"label": "projectName",
								"offset": 0,
								"slot": "1",
								"type": "t_string_storage"
							},
							{
								"astId": 10,
								"contract": "contracts/Found.sol:CrowdFunding",
								"label": "projectDescription",
								"offset": 0,
								"slot": "2",
								"type": "t_string_storage"
							},
							{
								"astId": 13,
								"contract": "contracts/Found.sol:CrowdFunding",
								"label": "projectState",
								"offset": 0,
								"slot": "3",
								"type": "t_enum(State)4"
							},
							{
								"astId": 15,
								"contract": "contracts/Found.sol:CrowdFunding",
								"label": "currentFunds",
								"offset": 0,
								"slot": "4",
								"type": "t_uint256"
							},
							{
								"astId": 17,
								"contract": "contracts/Found.sol:CrowdFunding",
								"label": "goalFunds",
								"offset": 0,
								"slot": "5",
								"type": "t_uint256"
							},
							{
								"astId": 19,
								"contract": "contracts/Found.sol:CrowdFunding",
								"label": "owner",
								"offset": 0,
								"slot": "6",
								"type": "t_address_payable"
							}
						],
						"numberOfBytes": "224"
					},
					"t_uint256": {
						"encoding": "inplace",
						"label": "uint256",
						"numberOfBytes": "32"
					}
				}
			},
			"userdoc": {
				"kind": "user",
				"methods": {},
				"version": 1
			}
		}
	}
}