{
	"contracts/ProductTraceability.sol": {
		"ProductTraceability": {
			"abi": [
				{
					"inputs": [],
					"stateMutability": "nonpayable",
					"type": "constructor"
				},
				{
					"anonymous": false,
					"inputs": [
						{
							"indexed": true,
							"internalType": "string",
							"name": "productId",
							"type": "string"
						},
						{
							"indexed": false,
							"internalType": "string",
							"name": "eventType",
							"type": "string"
						},
						{
							"indexed": false,
							"internalType": "address",
							"name": "recorder",
							"type": "address"
						}
					],
					"name": "ProductEventRecorded",
					"type": "event"
				},
				{
					"inputs": [
						{
							"internalType": "address",
							"name": "recorder",
							"type": "address"
						}
					],
					"name": "addAuthorizedRecorder",
					"outputs": [],
					"stateMutability": "nonpayable",
					"type": "function"
				},
				{
					"inputs": [
						{
							"internalType": "address",
							"name": "",
							"type": "address"
						}
					],
					"name": "authorizedRecorders",
					"outputs": [
						{
							"internalType": "bool",
							"name": "",
							"type": "bool"
						}
					],
					"stateMutability": "view",
					"type": "function"
				},
				{
					"inputs": [
						{
							"internalType": "string",
							"name": "productId",
							"type": "string"
						}
					],
					"name": "getProductHistory",
					"outputs": [
						{
							"components": [
								{
									"internalType": "string",
									"name": "eventType",
									"type": "string"
								},
								{
									"internalType": "string",
									"name": "details",
									"type": "string"
								},
								{
									"internalType": "uint256",
									"name": "timestamp",
									"type": "uint256"
								},
								{
									"internalType": "address",
									"name": "recorder",
									"type": "address"
								}
							],
							"internalType": "struct ProductTraceability.Event[]",
							"name": "",
							"type": "tuple[]"
						}
					],
					"stateMutability": "view",
					"type": "function"
				},
				{
					"inputs": [
						{
							"internalType": "string",
							"name": "productId",
							"type": "string"
						},
						{
							"internalType": "string",
							"name": "eventType",
							"type": "string"
						},
						{
							"internalType": "string",
							"name": "details",
							"type": "string"
						}
					],
					"name": "recordProduct",
					"outputs": [],
					"stateMutability": "nonpayable",
					"type": "function"
				},
				{
					"inputs": [
						{
							"internalType": "address",
							"name": "recorder",
							"type": "address"
						}
					],
					"name": "removeAuthorizedRecorder",
					"outputs": [],
					"stateMutability": "nonpayable",
					"type": "function"
				}
			],
			"devdoc": {
				"kind": "dev",
				"methods": {},
				"version": 1
			},
			"evm": {
				"assembly": "    /* \"contracts/ProductTraceability.sol\":60:1406  contract ProductTraceability {... */\n  mstore(0x40, 0x80)\n    /* \"contracts/ProductTraceability.sol\":445:516  constructor() {... */\n  callvalue\n  dup1\n  iszero\n  tag_1\n  jumpi\n  0x00\n  dup1\n  revert\ntag_1:\n  pop\n    /* \"contracts/ProductTraceability.sol\":504:508  true */\n  0x01\n    /* \"contracts/ProductTraceability.sol\":470:489  authorizedRecorders */\n  dup1\n    /* \"contracts/ProductTraceability.sol\":470:501  authorizedRecorders[msg.sender] */\n  0x00\n    /* \"contracts/ProductTraceability.sol\":490:500  msg.sender */\n  caller\n    /* \"contracts/ProductTraceability.sol\":470:501  authorizedRecorders[msg.sender] */\n  0xffffffffffffffffffffffffffffffffffffffff\n  and\n  0xffffffffffffffffffffffffffffffffffffffff\n  and\n  dup2\n  mstore\n  0x20\n  add\n  swap1\n  dup2\n  mstore\n  0x20\n  add\n  0x00\n  keccak256\n  0x00\n    /* \"contracts/ProductTraceability.sol\":470:508  authorizedRecorders[msg.sender] = true */\n  0x0100\n  exp\n  dup2\n  sload\n  dup2\n  0xff\n  mul\n  not\n  and\n  swap1\n  dup4\n  iszero\n  iszero\n  mul\n  or\n  swap1\n  sstore\n  pop\n    /* \"contracts/ProductTraceability.sol\":60:1406  contract ProductTraceability {... */\n  dataSize(sub_0)\n  dup1\n  dataOffset(sub_0)\n  0x00\n  codecopy\n  0x00\n  return\nstop\n\nsub_0: assembly {\n        /* \"contracts/ProductTraceability.sol\":60:1406  contract ProductTraceability {... */\n      mstore(0x40, 0x80)\n      callvalue\n      dup1\n      iszero\n      tag_1\n      jumpi\n      0x00\n      dup1\n      revert\n    tag_1:\n      pop\n      jumpi(tag_2, lt(calldatasize, 0x04))\n      shr(0xe0, calldataload(0x00))\n      dup1\n      0x1e87ff31\n      eq\n      tag_3\n      jumpi\n      dup1\n      0x3602d1f8\n      eq\n      tag_4\n      jumpi\n      dup1\n      0x62d8da44\n      eq\n      tag_5\n      jumpi\n      dup1\n      0xac9a5e9a\n      eq\n      tag_6\n      jumpi\n      dup1\n      0xd4f50453\n      eq\n      tag_7\n      jumpi\n    tag_2:\n      0x00\n      dup1\n      revert\n        /* \"contracts/ProductTraceability.sol\":919:1255  function recordProduct(string memory productId, string memory eventType, string memory details) public onlyAuthorized {... */\n    tag_3:\n      tag_8\n      0x04\n      dup1\n      calldatasize\n      sub\n      dup2\n      add\n      swap1\n      tag_9\n      swap2\n      swap1\n      tag_10\n      jump\t// in\n    tag_9:\n      tag_11\n      jump\t// in\n    tag_8:\n      stop\n        /* \"contracts/ProductTraceability.sol\":647:773  function addAuthorizedRecorder(address recorder) public onlyAuthorized {... */\n    tag_4:\n      tag_12\n      0x04\n      dup1\n      calldatasize\n      sub\n      dup2\n      add\n      swap1\n      tag_13\n      swap2\n      swap1\n      tag_14\n      jump\t// in\n    tag_13:\n      tag_15\n      jump\t// in\n    tag_12:\n      stop\n        /* \"contracts/ProductTraceability.sol\":781:911  function removeAuthorizedRecorder(address recorder) public onlyAuthorized {... */\n    tag_5:\n      tag_16\n      0x04\n      dup1\n      calldatasize\n      sub\n      dup2\n      add\n      swap1\n      tag_17\n      swap2\n      swap1\n      tag_14\n      jump\t// in\n    tag_17:\n      tag_18\n      jump\t// in\n    tag_16:\n      stop\n        /* \"contracts/ProductTraceability.sol\":288:339  mapping(address => bool) public authorizedRecorders */\n    tag_6:\n      tag_19\n      0x04\n      dup1\n      calldatasize\n      sub\n      dup2\n      add\n      swap1\n      tag_20\n      swap2\n      swap1\n      tag_14\n      jump\t// in\n    tag_20:\n      tag_21\n      jump\t// in\n    tag_19:\n      mload(0x40)\n      tag_22\n      swap2\n      swap1\n      tag_23\n      jump\t// in\n    tag_22:\n      mload(0x40)\n      dup1\n      swap2\n      sub\n      swap1\n      return\n        /* \"contracts/ProductTraceability.sol\":1263:1403  function getProductHistory(string memory productId) public view returns (Event[] memory) {... */\n    tag_7:\n      tag_24\n      0x04\n      dup1\n      calldatasize\n      sub\n      dup2\n      add\n      swap1\n      tag_25\n      swap2\n      swap1\n      tag_26\n      jump\t// in\n    tag_25:\n      tag_27\n      jump\t// in\n    tag_24:\n      mload(0x40)\n      tag_28\n      swap2\n      swap1\n      tag_29\n      jump\t// in\n    tag_28:\n      mload(0x40)\n      dup1\n      swap2\n      sub\n      swap1\n      return\n        /* \"contracts/ProductTraceability.sol\":919:1255  function recordProduct(string memory productId, string memory eventType, string memory details) public onlyAuthorized {... */\n    tag_11:\n        /* \"contracts/ProductTraceability.sol\":569:588  authorizedRecorders */\n      0x01\n        /* \"contracts/ProductTraceability.sol\":569:600  authorizedRecorders[msg.sender] */\n      0x00\n        /* \"contracts/ProductTraceability.sol\":589:599  msg.sender */\n      caller\n        /* \"contracts/ProductTraceability.sol\":569:600  authorizedRecorders[msg.sender] */\n      0xffffffffffffffffffffffffffffffffffffffff\n      and\n      0xffffffffffffffffffffffffffffffffffffffff\n      and\n      dup2\n      mstore\n      0x20\n      add\n      swap1\n      dup2\n      mstore\n      0x20\n      add\n      0x00\n      keccak256\n      0x00\n      swap1\n      sload\n      swap1\n      0x0100\n      exp\n      swap1\n      div\n      0xff\n      and\n        /* \"contracts/ProductTraceability.sol\":561:619  require(authorizedRecorders[msg.sender], \"Not authorized\") */\n      tag_31\n      jumpi\n      mload(0x40)\n      0x08c379a000000000000000000000000000000000000000000000000000000000\n      dup2\n      mstore\n      0x04\n      add\n      tag_32\n      swap1\n      tag_33\n      jump\t// in\n    tag_32:\n      mload(0x40)\n      dup1\n      swap2\n      sub\n      swap1\n      revert\n    tag_31:\n        /* \"contracts/ProductTraceability.sol\":1048:1069  Event memory newEvent */\n      0x00\n        /* \"contracts/ProductTraceability.sol\":1072:1126  Event(eventType, details, block.timestamp, msg.sender) */\n      mload(0x40)\n      dup1\n      0x80\n      add\n      0x40\n      mstore\n      dup1\n        /* \"contracts/ProductTraceability.sol\":1078:1087  eventType */\n      dup5\n        /* \"contracts/ProductTraceability.sol\":1072:1126  Event(eventType, details, block.timestamp, msg.sender) */\n      dup2\n      mstore\n      0x20\n      add\n        /* \"contracts/ProductTraceability.sol\":1089:1096  details */\n      dup4\n        /* \"contracts/ProductTraceability.sol\":1072:1126  Event(eventType, details, block.timestamp, msg.sender) */\n      dup2\n      mstore\n      0x20\n      add\n        /* \"contracts/ProductTraceability.sol\":1098:1113  block.timestamp */\n      timestamp\n        /* \"contracts/ProductTraceability.sol\":1072:1126  Event(eventType, details, block.timestamp, msg.sender) */\n      dup2\n      mstore\n      0x20\n      add\n        /* \"contracts/ProductTraceability.sol\":1115:1125  msg.sender */\n      caller\n        /* \"contracts/ProductTraceability.sol\":1072:1126  Event(eventType, details, block.timestamp, msg.sender) */\n      0xffffffffffffffffffffffffffffffffffffffff\n      and\n      dup2\n      mstore\n      pop\n        /* \"contracts/ProductTraceability.sol\":1048:1126  Event memory newEvent = Event(eventType, details, block.timestamp, msg.sender) */\n      swap1\n      pop\n        /* \"contracts/ProductTraceability.sol\":1137:1151  productHistory */\n      0x00\n        /* \"contracts/ProductTraceability.sol\":1152:1161  productId */\n      dup5\n        /* \"contracts/ProductTraceability.sol\":1137:1162  productHistory[productId] */\n      mload(0x40)\n      tag_35\n      swap2\n      swap1\n      tag_36\n      jump\t// in\n    tag_35:\n      swap1\n      dup2\n      mstore\n      0x20\n      add\n      mload(0x40)\n      dup1\n      swap2\n      sub\n      swap1\n      keccak256\n        /* \"contracts/ProductTraceability.sol\":1168:1176  newEvent */\n      dup2\n        /* \"contracts/ProductTraceability.sol\":1137:1177  productHistory[productId].push(newEvent) */\n      swap1\n      dup1\n      0x01\n      dup2\n      sload\n      add\n      dup1\n      dup3\n      sstore\n      dup1\n      swap2\n      pop\n      pop\n      0x01\n      swap1\n      sub\n      swap1\n      0x00\n      mstore\n      keccak256(0x00, 0x20)\n      swap1\n      0x04\n      mul\n      add\n      0x00\n      swap1\n      swap2\n      swap1\n      swap2\n      swap1\n      swap2\n      pop\n      0x00\n      dup3\n      add\n      mload\n      dup2\n      0x00\n      add\n      swap1\n      dup2\n      tag_38\n      swap2\n      swap1\n      tag_39\n      jump\t// in\n    tag_38:\n      pop\n      0x20\n      dup3\n      add\n      mload\n      dup2\n      0x01\n      add\n      swap1\n      dup2\n      tag_40\n      swap2\n      swap1\n      tag_39\n      jump\t// in\n    tag_40:\n      pop\n      0x40\n      dup3\n      add\n      mload\n      dup2\n      0x02\n      add\n      sstore\n      0x60\n      dup3\n      add\n      mload\n      dup2\n      0x03\n      add\n      exp(0x0100, 0x00)\n      dup2\n      sload\n      dup2\n      0xffffffffffffffffffffffffffffffffffffffff\n      mul\n      not\n      and\n      swap1\n      dup4\n      0xffffffffffffffffffffffffffffffffffffffff\n      and\n      mul\n      or\n      swap1\n      sstore\n      pop\n      pop\n      pop\n        /* \"contracts/ProductTraceability.sol\":1214:1223  productId */\n      dup4\n        /* \"contracts/ProductTraceability.sol\":1193:1247  ProductEventRecorded(productId, eventType, msg.sender) */\n      mload(0x40)\n      tag_41\n      swap2\n      swap1\n      tag_36\n      jump\t// in\n    tag_41:\n      mload(0x40)\n      dup1\n      swap2\n      sub\n      swap1\n      keccak256\n      0xfae90a7f8aa768b1e1703d1ba10d289bb92f5a4899b6511728734e1dc5d1af2b\n        /* \"contracts/ProductTraceability.sol\":1225:1234  eventType */\n      dup5\n        /* \"contracts/ProductTraceability.sol\":1236:1246  msg.sender */\n      caller\n        /* \"contracts/ProductTraceability.sol\":1193:1247  ProductEventRecorded(productId, eventType, msg.sender) */\n      mload(0x40)\n      tag_42\n      swap3\n      swap2\n      swap1\n      tag_43\n      jump\t// in\n    tag_42:\n      mload(0x40)\n      dup1\n      swap2\n      sub\n      swap1\n      log2\n        /* \"contracts/ProductTraceability.sol\":1037:1255  {... */\n      pop\n        /* \"contracts/ProductTraceability.sol\":919:1255  function recordProduct(string memory productId, string memory eventType, string memory details) public onlyAuthorized {... */\n      pop\n      pop\n      pop\n      jump\t// out\n        /* \"contracts/ProductTraceability.sol\":647:773  function addAuthorizedRecorder(address recorder) public onlyAuthorized {... */\n    tag_15:\n        /* \"contracts/ProductTraceability.sol\":569:588  authorizedRecorders */\n      0x01\n        /* \"contracts/ProductTraceability.sol\":569:600  authorizedRecorders[msg.sender] */\n      0x00\n        /* \"contracts/ProductTraceability.sol\":589:599  msg.sender */\n      caller\n        /* \"contracts/ProductTraceability.sol\":569:600  authorizedRecorders[msg.sender] */\n      0xffffffffffffffffffffffffffffffffffffffff\n      and\n      0xffffffffffffffffffffffffffffffffffffffff\n      and\n      dup2\n      mstore\n      0x20\n      add\n      swap1\n      dup2\n      mstore\n      0x20\n      add\n      0x00\n      keccak256\n      0x00\n      swap1\n      sload\n      swap1\n      0x0100\n      exp\n      swap1\n      div\n      0xff\n      and\n        /* \"contracts/ProductTraceability.sol\":561:619  require(authorizedRecorders[msg.sender], \"Not authorized\") */\n      tag_45\n      jumpi\n      mload(0x40)\n      0x08c379a000000000000000000000000000000000000000000000000000000000\n      dup2\n      mstore\n      0x04\n      add\n      tag_46\n      swap1\n      tag_33\n      jump\t// in\n    tag_46:\n      mload(0x40)\n      dup1\n      swap2\n      sub\n      swap1\n      revert\n    tag_45:\n        /* \"contracts/ProductTraceability.sol\":761:765  true */\n      0x01\n        /* \"contracts/ProductTraceability.sol\":729:748  authorizedRecorders */\n      dup1\n        /* \"contracts/ProductTraceability.sol\":729:758  authorizedRecorders[recorder] */\n      0x00\n        /* \"contracts/ProductTraceability.sol\":749:757  recorder */\n      dup4\n        /* \"contracts/ProductTraceability.sol\":729:758  authorizedRecorders[recorder] */\n      0xffffffffffffffffffffffffffffffffffffffff\n      and\n      0xffffffffffffffffffffffffffffffffffffffff\n      and\n      dup2\n      mstore\n      0x20\n      add\n      swap1\n      dup2\n      mstore\n      0x20\n      add\n      0x00\n      keccak256\n      0x00\n        /* \"contracts/ProductTraceability.sol\":729:765  authorizedRecorders[recorder] = true */\n      0x0100\n      exp\n      dup2\n      sload\n      dup2\n      0xff\n      mul\n      not\n      and\n      swap1\n      dup4\n      iszero\n      iszero\n      mul\n      or\n      swap1\n      sstore\n      pop\n        /* \"contracts/ProductTraceability.sol\":647:773  function addAuthorizedRecorder(address recorder) public onlyAuthorized {... */\n      pop\n      jump\t// out\n        /* \"contracts/ProductTraceability.sol\":781:911  function removeAuthorizedRecorder(address recorder) public onlyAuthorized {... */\n    tag_18:\n        /* \"contracts/ProductTraceability.sol\":569:588  authorizedRecorders */\n      0x01\n        /* \"contracts/ProductTraceability.sol\":569:600  authorizedRecorders[msg.sender] */\n      0x00\n        /* \"contracts/ProductTraceability.sol\":589:599  msg.sender */\n      caller\n        /* \"contracts/ProductTraceability.sol\":569:600  authorizedRecorders[msg.sender] */\n      0xffffffffffffffffffffffffffffffffffffffff\n      and\n      0xffffffffffffffffffffffffffffffffffffffff\n      and\n      dup2\n      mstore\n      0x20\n      add\n      swap1\n      dup2\n      mstore\n      0x20\n      add\n      0x00\n      keccak256\n      0x00\n      swap1\n      sload\n      swap1\n      0x0100\n      exp\n      swap1\n      div\n      0xff\n      and\n        /* \"contracts/ProductTraceability.sol\":561:619  require(authorizedRecorders[msg.sender], \"Not authorized\") */\n      tag_49\n      jumpi\n      mload(0x40)\n      0x08c379a000000000000000000000000000000000000000000000000000000000\n      dup2\n      mstore\n      0x04\n      add\n      tag_50\n      swap1\n      tag_33\n      jump\t// in\n    tag_50:\n      mload(0x40)\n      dup1\n      swap2\n      sub\n      swap1\n      revert\n    tag_49:\n        /* \"contracts/ProductTraceability.sol\":898:903  false */\n      0x00\n        /* \"contracts/ProductTraceability.sol\":866:885  authorizedRecorders */\n      0x01\n        /* \"contracts/ProductTraceability.sol\":866:895  authorizedRecorders[recorder] */\n      0x00\n        /* \"contracts/ProductTraceability.sol\":886:894  recorder */\n      dup4\n        /* \"contracts/ProductTraceability.sol\":866:895  authorizedRecorders[recorder] */\n      0xffffffffffffffffffffffffffffffffffffffff\n      and\n      0xffffffffffffffffffffffffffffffffffffffff\n      and\n      dup2\n      mstore\n      0x20\n      add\n      swap1\n      dup2\n      mstore\n      0x20\n      add\n      0x00\n      keccak256\n      0x00\n        /* \"contracts/ProductTraceability.sol\":866:903  authorizedRecorders[recorder] = false */\n      0x0100\n      exp\n      dup2\n      sload\n      dup2\n      0xff\n      mul\n      not\n      and\n      swap1\n      dup4\n      iszero\n      iszero\n      mul\n      or\n      swap1\n      sstore\n      pop\n        /* \"contracts/ProductTraceability.sol\":781:911  function removeAuthorizedRecorder(address recorder) public onlyAuthorized {... */\n      pop\n      jump\t// out\n        /* \"contracts/ProductTraceability.sol\":288:339  mapping(address => bool) public authorizedRecorders */\n    tag_21:\n      mstore(0x20, 0x01)\n      dup1\n      0x00\n      mstore\n      keccak256(0x00, 0x40)\n      0x00\n      swap2\n      pop\n      sload\n      swap1\n      0x0100\n      exp\n      swap1\n      div\n      0xff\n      and\n      dup2\n      jump\t// out\n        /* \"contracts/ProductTraceability.sol\":1263:1403  function getProductHistory(string memory productId) public view returns (Event[] memory) {... */\n    tag_27:\n        /* \"contracts/ProductTraceability.sol\":1336:1350  Event[] memory */\n      0x60\n        /* \"contracts/ProductTraceability.sol\":1370:1384  productHistory */\n      0x00\n        /* \"contracts/ProductTraceability.sol\":1385:1394  productId */\n      dup3\n        /* \"contracts/ProductTraceability.sol\":1370:1395  productHistory[productId] */\n      mload(0x40)\n      tag_53\n      swap2\n      swap1\n      tag_36\n      jump\t// in\n    tag_53:\n      swap1\n      dup2\n      mstore\n      0x20\n      add\n      mload(0x40)\n      dup1\n      swap2\n      sub\n      swap1\n      keccak256\n        /* \"contracts/ProductTraceability.sol\":1363:1395  return productHistory[productId] */\n      dup1\n      sload\n      dup1\n      0x20\n      mul\n      0x20\n      add\n      mload(0x40)\n      swap1\n      dup2\n      add\n      0x40\n      mstore\n      dup1\n      swap3\n      swap2\n      swap1\n      dup2\n      dup2\n      mstore\n      0x20\n      add\n      0x00\n      swap1\n    tag_54:\n      dup3\n      dup3\n      lt\n      iszero\n      tag_55\n      jumpi\n      dup4\n      dup3\n      swap1\n      0x00\n      mstore\n      keccak256(0x00, 0x20)\n      swap1\n      0x04\n      mul\n      add\n      mload(0x40)\n      dup1\n      0x80\n      add\n      0x40\n      mstore\n      swap1\n      dup2\n      0x00\n      dup3\n      add\n      dup1\n      sload\n      tag_57\n      swap1\n      tag_58\n      jump\t// in\n    tag_57:\n      dup1\n      0x1f\n      add\n      0x20\n      dup1\n      swap2\n      div\n      mul\n      0x20\n      add\n      mload(0x40)\n      swap1\n      dup2\n      add\n      0x40\n      mstore\n      dup1\n      swap3\n      swap2\n      swap1\n      dup2\n      dup2\n      mstore\n      0x20\n      add\n      dup3\n      dup1\n      sload\n      tag_59\n      swap1\n      tag_58\n      jump\t// in\n    tag_59:\n      dup1\n      iszero\n      tag_60\n      jumpi\n      dup1\n      0x1f\n      lt\n      tag_61\n      jumpi\n      0x0100\n      dup1\n      dup4\n      sload\n      div\n      mul\n      dup4\n      mstore\n      swap2\n      0x20\n      add\n      swap2\n      jump(tag_60)\n    tag_61:\n      dup3\n      add\n      swap2\n      swap1\n      0x00\n      mstore\n      keccak256(0x00, 0x20)\n      swap1\n    tag_62:\n      dup2\n      sload\n      dup2\n      mstore\n      swap1\n      0x01\n      add\n      swap1\n      0x20\n      add\n      dup1\n      dup4\n      gt\n      tag_62\n      jumpi\n      dup3\n      swap1\n      sub\n      0x1f\n      and\n      dup3\n      add\n      swap2\n    tag_60:\n      pop\n      pop\n      pop\n      pop\n      pop\n      dup2\n      mstore\n      0x20\n      add\n      0x01\n      dup3\n      add\n      dup1\n      sload\n      tag_63\n      swap1\n      tag_58\n      jump\t// in\n    tag_63:\n      dup1\n      0x1f\n      add\n      0x20\n      dup1\n      swap2\n      div\n      mul\n      0x20\n      add\n      mload(0x40)\n      swap1\n      dup2\n      add\n      0x40\n      mstore\n      dup1\n      swap3\n      swap2\n      swap1\n      dup2\n      dup2\n      mstore\n      0x20\n      add\n      dup3\n      dup1\n      sload\n      tag_64\n      swap1\n      tag_58\n      jump\t// in\n    tag_64:\n      dup1\n      iszero\n      tag_65\n      jumpi\n      dup1\n      0x1f\n      lt\n      tag_66\n      jumpi\n      0x0100\n      dup1\n      dup4\n      sload\n      div\n      mul\n      dup4\n      mstore\n      swap2\n      0x20\n      add\n      swap2\n      jump(tag_65)\n    tag_66:\n      dup3\n      add\n      swap2\n      swap1\n      0x00\n      mstore\n      keccak256(0x00, 0x20)\n      swap1\n    tag_67:\n      dup2\n      sload\n      dup2\n      mstore\n      swap1\n      0x01\n      add\n      swap1\n      0x20\n      add\n      dup1\n      dup4\n      gt\n      tag_67\n      jumpi\n      dup3\n      swap1\n      sub\n      0x1f\n      and\n      dup3\n      add\n      swap2\n    tag_65:\n      pop\n      pop\n      pop\n      pop\n      pop\n      dup2\n      mstore\n      0x20\n      add\n      0x02\n      dup3\n      add\n      sload\n      dup2\n      mstore\n      0x20\n      add\n      0x03\n      dup3\n      add\n      0x00\n      swap1\n      sload\n      swap1\n      0x0100\n      exp\n      swap1\n      div\n      0xffffffffffffffffffffffffffffffffffffffff\n      and\n      0xffffffffffffffffffffffffffffffffffffffff\n      and\n      0xffffffffffffffffffffffffffffffffffffffff\n      and\n      dup2\n      mstore\n      pop\n      pop\n      dup2\n      mstore\n      0x20\n      add\n      swap1\n      0x01\n      add\n      swap1\n      jump(tag_54)\n    tag_55:\n      pop\n      pop\n      pop\n      pop\n      swap1\n      pop\n        /* \"contracts/ProductTraceability.sol\":1263:1403  function getProductHistory(string memory productId) public view returns (Event[] memory) {... */\n      swap2\n      swap1\n      pop\n      jump\t// out\n        /* \"#utility.yul\":7:82   */\n    tag_68:\n        /* \"#utility.yul\":40:46   */\n      0x00\n        /* \"#utility.yul\":73:75   */\n      0x40\n        /* \"#utility.yul\":67:76   */\n      mload\n        /* \"#utility.yul\":57:76   */\n      swap1\n      pop\n        /* \"#utility.yul\":7:82   */\n      swap1\n      jump\t// out\n        /* \"#utility.yul\":88:205   */\n    tag_69:\n        /* \"#utility.yul\":197:198   */\n      0x00\n        /* \"#utility.yul\":194:195   */\n      dup1\n        /* \"#utility.yul\":187:199   */\n      revert\n        /* \"#utility.yul\":211:328   */\n    tag_70:\n        /* \"#utility.yul\":320:321   */\n      0x00\n        /* \"#utility.yul\":317:318   */\n      dup1\n        /* \"#utility.yul\":310:322   */\n      revert\n        /* \"#utility.yul\":334:451   */\n    tag_71:\n        /* \"#utility.yul\":443:444   */\n      0x00\n        /* \"#utility.yul\":440:441   */\n      dup1\n        /* \"#utility.yul\":433:445   */\n      revert\n        /* \"#utility.yul\":457:574   */\n    tag_72:\n        /* \"#utility.yul\":566:567   */\n      0x00\n        /* \"#utility.yul\":563:564   */\n      dup1\n        /* \"#utility.yul\":556:568   */\n      revert\n        /* \"#utility.yul\":580:682   */\n    tag_73:\n        /* \"#utility.yul\":621:627   */\n      0x00\n        /* \"#utility.yul\":672:674   */\n      0x1f\n        /* \"#utility.yul\":668:675   */\n      not\n        /* \"#utility.yul\":663:665   */\n      0x1f\n        /* \"#utility.yul\":656:661   */\n      dup4\n        /* \"#utility.yul\":652:666   */\n      add\n        /* \"#utility.yul\":648:676   */\n      and\n        /* \"#utility.yul\":638:676   */\n      swap1\n      pop\n        /* \"#utility.yul\":580:682   */\n      swap2\n      swap1\n      pop\n      jump\t// out\n        /* \"#utility.yul\":688:868   */\n    tag_74:\n        /* \"#utility.yul\":736:813   */\n      0x4e487b7100000000000000000000000000000000000000000000000000000000\n        /* \"#utility.yul\":733:734   */\n      0x00\n        /* \"#utility.yul\":726:814   */\n      mstore\n        /* \"#utility.yul\":833:837   */\n      0x41\n        /* \"#utility.yul\":830:831   */\n      0x04\n        /* \"#utility.yul\":823:838   */\n      mstore\n        /* \"#utility.yul\":857:861   */\n      0x24\n        /* \"#utility.yul\":854:855   */\n      0x00\n        /* \"#utility.yul\":847:862   */\n      revert\n        /* \"#utility.yul\":874:1155   */\n    tag_75:\n        /* \"#utility.yul\":957:984   */\n      tag_133\n        /* \"#utility.yul\":979:983   */\n      dup3\n        /* \"#utility.yul\":957:984   */\n      tag_73\n      jump\t// in\n    tag_133:\n        /* \"#utility.yul\":949:955   */\n      dup2\n        /* \"#utility.yul\":945:985   */\n      add\n        /* \"#utility.yul\":1087:1093   */\n      dup2\n        /* \"#utility.yul\":1075:1085   */\n      dup2\n        /* \"#utility.yul\":1072:1094   */\n      lt\n        /* \"#utility.yul\":1051:1069   */\n      0xffffffffffffffff\n        /* \"#utility.yul\":1039:1049   */\n      dup3\n        /* \"#utility.yul\":1036:1070   */\n      gt\n        /* \"#utility.yul\":1033:1095   */\n      or\n        /* \"#utility.yul\":1030:1118   */\n      iszero\n      tag_134\n      jumpi\n        /* \"#utility.yul\":1098:1116   */\n      tag_135\n      tag_74\n      jump\t// in\n    tag_135:\n        /* \"#utility.yul\":1030:1118   */\n    tag_134:\n        /* \"#utility.yul\":1138:1148   */\n      dup1\n        /* \"#utility.yul\":1134:1136   */\n      0x40\n        /* \"#utility.yul\":1127:1149   */\n      mstore\n        /* \"#utility.yul\":917:1155   */\n      pop\n        /* \"#utility.yul\":874:1155   */\n      pop\n      pop\n      jump\t// out\n        /* \"#utility.yul\":1161:1290   */\n    tag_76:\n        /* \"#utility.yul\":1195:1201   */\n      0x00\n        /* \"#utility.yul\":1222:1242   */\n      tag_137\n      tag_68\n      jump\t// in\n    tag_137:\n        /* \"#utility.yul\":1212:1242   */\n      swap1\n      pop\n        /* \"#utility.yul\":1251:1284   */\n      tag_138\n        /* \"#utility.yul\":1279:1283   */\n      dup3\n        /* \"#utility.yul\":1271:1277   */\n      dup3\n        /* \"#utility.yul\":1251:1284   */\n      tag_75\n      jump\t// in\n    tag_138:\n        /* \"#utility.yul\":1161:1290   */\n      swap2\n      swap1\n      pop\n      jump\t// out\n        /* \"#utility.yul\":1296:1604   */\n    tag_77:\n        /* \"#utility.yul\":1358:1362   */\n      0x00\n        /* \"#utility.yul\":1448:1466   */\n      0xffffffffffffffff\n        /* \"#utility.yul\":1440:1446   */\n      dup3\n        /* \"#utility.yul\":1437:1467   */\n      gt\n        /* \"#utility.yul\":1434:1490   */\n      iszero\n      tag_140\n      jumpi\n        /* \"#utility.yul\":1470:1488   */\n      tag_141\n      tag_74\n      jump\t// in\n    tag_141:\n        /* \"#utility.yul\":1434:1490   */\n    tag_140:\n        /* \"#utility.yul\":1508:1537   */\n      tag_142\n        /* \"#utility.yul\":1530:1536   */\n      dup3\n        /* \"#utility.yul\":1508:1537   */\n      tag_73\n      jump\t// in\n    tag_142:\n        /* \"#utility.yul\":1500:1537   */\n      swap1\n      pop\n        /* \"#utility.yul\":1592:1596   */\n      0x20\n        /* \"#utility.yul\":1586:1590   */\n      dup2\n        /* \"#utility.yul\":1582:1597   */\n      add\n        /* \"#utility.yul\":1574:1597   */\n      swap1\n      pop\n        /* \"#utility.yul\":1296:1604   */\n      swap2\n      swap1\n      pop\n      jump\t// out\n        /* \"#utility.yul\":1610:1758   */\n    tag_78:\n        /* \"#utility.yul\":1708:1714   */\n      dup3\n        /* \"#utility.yul\":1703:1706   */\n      dup2\n        /* \"#utility.yul\":1698:1701   */\n      dup4\n        /* \"#utility.yul\":1685:1715   */\n      calldatacopy\n        /* \"#utility.yul\":1749:1750   */\n      0x00\n        /* \"#utility.yul\":1740:1746   */\n      dup4\n        /* \"#utility.yul\":1735:1738   */\n      dup4\n        /* \"#utility.yul\":1731:1747   */\n      add\n        /* \"#utility.yul\":1724:1751   */\n      mstore\n        /* \"#utility.yul\":1610:1758   */\n      pop\n      pop\n      pop\n      jump\t// out\n        /* \"#utility.yul\":1764:2189   */\n    tag_79:\n        /* \"#utility.yul\":1842:1847   */\n      0x00\n        /* \"#utility.yul\":1867:1933   */\n      tag_145\n        /* \"#utility.yul\":1883:1932   */\n      tag_146\n        /* \"#utility.yul\":1925:1931   */\n      dup5\n        /* \"#utility.yul\":1883:1932   */\n      tag_77\n      jump\t// in\n    tag_146:\n        /* \"#utility.yul\":1867:1933   */\n      tag_76\n      jump\t// in\n    tag_145:\n        /* \"#utility.yul\":1858:1933   */\n      swap1\n      pop\n        /* \"#utility.yul\":1956:1962   */\n      dup3\n        /* \"#utility.yul\":1949:1954   */\n      dup2\n        /* \"#utility.yul\":1942:1963   */\n      mstore\n        /* \"#utility.yul\":1994:1998   */\n      0x20\n        /* \"#utility.yul\":1987:1992   */\n      dup2\n        /* \"#utility.yul\":1983:1999   */\n      add\n        /* \"#utility.yul\":2032:2035   */\n      dup5\n        /* \"#utility.yul\":2023:2029   */\n      dup5\n        /* \"#utility.yul\":2018:2021   */\n      dup5\n        /* \"#utility.yul\":2014:2030   */\n      add\n        /* \"#utility.yul\":2011:2036   */\n      gt\n        /* \"#utility.yul\":2008:2120   */\n      iszero\n      tag_147\n      jumpi\n        /* \"#utility.yul\":2039:2118   */\n      tag_148\n      tag_72\n      jump\t// in\n    tag_148:\n        /* \"#utility.yul\":2008:2120   */\n    tag_147:\n        /* \"#utility.yul\":2129:2183   */\n      tag_149\n        /* \"#utility.yul\":2176:2182   */\n      dup5\n        /* \"#utility.yul\":2171:2174   */\n      dup3\n        /* \"#utility.yul\":2166:2169   */\n      dup6\n        /* \"#utility.yul\":2129:2183   */\n      tag_78\n      jump\t// in\n    tag_149:\n        /* \"#utility.yul\":1848:2189   */\n      pop\n        /* \"#utility.yul\":1764:2189   */\n      swap4\n      swap3\n      pop\n      pop\n      pop\n      jump\t// out\n        /* \"#utility.yul\":2209:2549   */\n    tag_80:\n        /* \"#utility.yul\":2265:2270   */\n      0x00\n        /* \"#utility.yul\":2314:2317   */\n      dup3\n        /* \"#utility.yul\":2307:2311   */\n      0x1f\n        /* \"#utility.yul\":2299:2305   */\n      dup4\n        /* \"#utility.yul\":2295:2312   */\n      add\n        /* \"#utility.yul\":2291:2318   */\n      slt\n        /* \"#utility.yul\":2281:2403   */\n      tag_151\n      jumpi\n        /* \"#utility.yul\":2322:2401   */\n      tag_152\n      tag_71\n      jump\t// in\n    tag_152:\n        /* \"#utility.yul\":2281:2403   */\n    tag_151:\n        /* \"#utility.yul\":2439:2445   */\n      dup2\n        /* \"#utility.yul\":2426:2446   */\n      calldataload\n        /* \"#utility.yul\":2464:2543   */\n      tag_153\n        /* \"#utility.yul\":2539:2542   */\n      dup5\n        /* \"#utility.yul\":2531:2537   */\n      dup3\n        /* \"#utility.yul\":2524:2528   */\n      0x20\n        /* \"#utility.yul\":2516:2522   */\n      dup7\n        /* \"#utility.yul\":2512:2529   */\n      add\n        /* \"#utility.yul\":2464:2543   */\n      tag_79\n      jump\t// in\n    tag_153:\n        /* \"#utility.yul\":2455:2543   */\n      swap2\n      pop\n        /* \"#utility.yul\":2271:2549   */\n      pop\n        /* \"#utility.yul\":2209:2549   */\n      swap3\n      swap2\n      pop\n      pop\n      jump\t// out\n        /* \"#utility.yul\":2555:3714   */\n    tag_10:\n        /* \"#utility.yul\":2662:2668   */\n      0x00\n        /* \"#utility.yul\":2670:2676   */\n      dup1\n        /* \"#utility.yul\":2678:2684   */\n      0x00\n        /* \"#utility.yul\":2727:2729   */\n      0x60\n        /* \"#utility.yul\":2715:2724   */\n      dup5\n        /* \"#utility.yul\":2706:2713   */\n      dup7\n        /* \"#utility.yul\":2702:2725   */\n      sub\n        /* \"#utility.yul\":2698:2730   */\n      slt\n        /* \"#utility.yul\":2695:2814   */\n      iszero\n      tag_155\n      jumpi\n        /* \"#utility.yul\":2733:2812   */\n      tag_156\n      tag_69\n      jump\t// in\n    tag_156:\n        /* \"#utility.yul\":2695:2814   */\n    tag_155:\n        /* \"#utility.yul\":2881:2882   */\n      0x00\n        /* \"#utility.yul\":2870:2879   */\n      dup5\n        /* \"#utility.yul\":2866:2883   */\n      add\n        /* \"#utility.yul\":2853:2884   */\n      calldataload\n        /* \"#utility.yul\":2911:2929   */\n      0xffffffffffffffff\n        /* \"#utility.yul\":2903:2909   */\n      dup2\n        /* \"#utility.yul\":2900:2930   */\n      gt\n        /* \"#utility.yul\":2897:3014   */\n      iszero\n      tag_157\n      jumpi\n        /* \"#utility.yul\":2933:3012   */\n      tag_158\n      tag_70\n      jump\t// in\n    tag_158:\n        /* \"#utility.yul\":2897:3014   */\n    tag_157:\n        /* \"#utility.yul\":3038:3101   */\n      tag_159\n        /* \"#utility.yul\":3093:3100   */\n      dup7\n        /* \"#utility.yul\":3084:3090   */\n      dup3\n        /* \"#utility.yul\":3073:3082   */\n      dup8\n        /* \"#utility.yul\":3069:3091   */\n      add\n        /* \"#utility.yul\":3038:3101   */\n      tag_80\n      jump\t// in\n    tag_159:\n        /* \"#utility.yul\":3028:3101   */\n      swap4\n      pop\n        /* \"#utility.yul\":2824:3111   */\n      pop\n        /* \"#utility.yul\":3178:3180   */\n      0x20\n        /* \"#utility.yul\":3167:3176   */\n      dup5\n        /* \"#utility.yul\":3163:3181   */\n      add\n        /* \"#utility.yul\":3150:3182   */\n      calldataload\n        /* \"#utility.yul\":3209:3227   */\n      0xffffffffffffffff\n        /* \"#utility.yul\":3201:3207   */\n      dup2\n        /* \"#utility.yul\":3198:3228   */\n      gt\n        /* \"#utility.yul\":3195:3312   */\n      iszero\n      tag_160\n      jumpi\n        /* \"#utility.yul\":3231:3310   */\n      tag_161\n      tag_70\n      jump\t// in\n    tag_161:\n        /* \"#utility.yul\":3195:3312   */\n    tag_160:\n        /* \"#utility.yul\":3336:3399   */\n      tag_162\n        /* \"#utility.yul\":3391:3398   */\n      dup7\n        /* \"#utility.yul\":3382:3388   */\n      dup3\n        /* \"#utility.yul\":3371:3380   */\n      dup8\n        /* \"#utility.yul\":3367:3389   */\n      add\n        /* \"#utility.yul\":3336:3399   */\n      tag_80\n      jump\t// in\n    tag_162:\n        /* \"#utility.yul\":3326:3399   */\n      swap3\n      pop\n        /* \"#utility.yul\":3121:3409   */\n      pop\n        /* \"#utility.yul\":3476:3478   */\n      0x40\n        /* \"#utility.yul\":3465:3474   */\n      dup5\n        /* \"#utility.yul\":3461:3479   */\n      add\n        /* \"#utility.yul\":3448:3480   */\n      calldataload\n        /* \"#utility.yul\":3507:3525   */\n      0xffffffffffffffff\n        /* \"#utility.yul\":3499:3505   */\n      dup2\n        /* \"#utility.yul\":3496:3526   */\n      gt\n        /* \"#utility.yul\":3493:3610   */\n      iszero\n      tag_163\n      jumpi\n        /* \"#utility.yul\":3529:3608   */\n      tag_164\n      tag_70\n      jump\t// in\n    tag_164:\n        /* \"#utility.yul\":3493:3610   */\n    tag_163:\n        /* \"#utility.yul\":3634:3697   */\n      tag_165\n        /* \"#utility.yul\":3689:3696   */\n      dup7\n        /* \"#utility.yul\":3680:3686   */\n      dup3\n        /* \"#utility.yul\":3669:3678   */\n      dup8\n        /* \"#utility.yul\":3665:3687   */\n      add\n        /* \"#utility.yul\":3634:3697   */\n      tag_80\n      jump\t// in\n    tag_165:\n        /* \"#utility.yul\":3624:3697   */\n      swap2\n      pop\n        /* \"#utility.yul\":3419:3707   */\n      pop\n        /* \"#utility.yul\":2555:3714   */\n      swap3\n      pop\n      swap3\n      pop\n      swap3\n      jump\t// out\n        /* \"#utility.yul\":3720:3846   */\n    tag_81:\n        /* \"#utility.yul\":3757:3764   */\n      0x00\n        /* \"#utility.yul\":3797:3839   */\n      0xffffffffffffffffffffffffffffffffffffffff\n        /* \"#utility.yul\":3790:3795   */\n      dup3\n        /* \"#utility.yul\":3786:3840   */\n      and\n        /* \"#utility.yul\":3775:3840   */\n      swap1\n      pop\n        /* \"#utility.yul\":3720:3846   */\n      swap2\n      swap1\n      pop\n      jump\t// out\n        /* \"#utility.yul\":3852:3948   */\n    tag_82:\n        /* \"#utility.yul\":3889:3896   */\n      0x00\n        /* \"#utility.yul\":3918:3942   */\n      tag_168\n        /* \"#utility.yul\":3936:3941   */\n      dup3\n        /* \"#utility.yul\":3918:3942   */\n      tag_81\n      jump\t// in\n    tag_168:\n        /* \"#utility.yul\":3907:3942   */\n      swap1\n      pop\n        /* \"#utility.yul\":3852:3948   */\n      swap2\n      swap1\n      pop\n      jump\t// out\n        /* \"#utility.yul\":3954:4076   */\n    tag_83:\n        /* \"#utility.yul\":4027:4051   */\n      tag_170\n        /* \"#utility.yul\":4045:4050   */\n      dup2\n        /* \"#utility.yul\":4027:4051   */\n      tag_82\n      jump\t// in\n    tag_170:\n        /* \"#utility.yul\":4020:4025   */\n      dup2\n        /* \"#utility.yul\":4017:4052   */\n      eq\n        /* \"#utility.yul\":4007:4070   */\n      tag_171\n      jumpi\n        /* \"#utility.yul\":4066:4067   */\n      0x00\n        /* \"#utility.yul\":4063:4064   */\n      dup1\n        /* \"#utility.yul\":4056:4068   */\n      revert\n        /* \"#utility.yul\":4007:4070   */\n    tag_171:\n        /* \"#utility.yul\":3954:4076   */\n      pop\n      jump\t// out\n        /* \"#utility.yul\":4082:4221   */\n    tag_84:\n        /* \"#utility.yul\":4128:4133   */\n      0x00\n        /* \"#utility.yul\":4166:4172   */\n      dup2\n        /* \"#utility.yul\":4153:4173   */\n      calldataload\n        /* \"#utility.yul\":4144:4173   */\n      swap1\n      pop\n        /* \"#utility.yul\":4182:4215   */\n      tag_173\n        /* \"#utility.yul\":4209:4214   */\n      dup2\n        /* \"#utility.yul\":4182:4215   */\n      tag_83\n      jump\t// in\n    tag_173:\n        /* \"#utility.yul\":4082:4221   */\n      swap3\n      swap2\n      pop\n      pop\n      jump\t// out\n        /* \"#utility.yul\":4227:4556   */\n    tag_14:\n        /* \"#utility.yul\":4286:4292   */\n      0x00\n        /* \"#utility.yul\":4335:4337   */\n      0x20\n        /* \"#utility.yul\":4323:4332   */\n      dup3\n        /* \"#utility.yul\":4314:4321   */\n      dup5\n        /* \"#utility.yul\":4310:4333   */\n      sub\n        /* \"#utility.yul\":4306:4338   */\n      slt\n        /* \"#utility.yul\":4303:4422   */\n      iszero\n      tag_175\n      jumpi\n        /* \"#utility.yul\":4341:4420   */\n      tag_176\n      tag_69\n      jump\t// in\n    tag_176:\n        /* \"#utility.yul\":4303:4422   */\n    tag_175:\n        /* \"#utility.yul\":4461:4462   */\n      0x00\n        /* \"#utility.yul\":4486:4539   */\n      tag_177\n        /* \"#utility.yul\":4531:4538   */\n      dup5\n        /* \"#utility.yul\":4522:4528   */\n      dup3\n        /* \"#utility.yul\":4511:4520   */\n      dup6\n        /* \"#utility.yul\":4507:4529   */\n      add\n        /* \"#utility.yul\":4486:4539   */\n      tag_84\n      jump\t// in\n    tag_177:\n        /* \"#utility.yul\":4476:4539   */\n      swap2\n      pop\n        /* \"#utility.yul\":4432:4549   */\n      pop\n        /* \"#utility.yul\":4227:4556   */\n      swap3\n      swap2\n      pop\n      pop\n      jump\t// out\n        /* \"#utility.yul\":4562:4652   */\n    tag_85:\n        /* \"#utility.yul\":4596:4603   */\n      0x00\n        /* \"#utility.yul\":4639:4644   */\n      dup2\n        /* \"#utility.yul\":4632:4645   */\n      iszero\n        /* \"#utility.yul\":4625:4646   */\n      iszero\n        /* \"#utility.yul\":4614:4646   */\n      swap1\n      pop\n        /* \"#utility.yul\":4562:4652   */\n      swap2\n      swap1\n      pop\n      jump\t// out\n        /* \"#utility.yul\":4658:4767   */\n    tag_86:\n        /* \"#utility.yul\":4739:4760   */\n      tag_180\n        /* \"#utility.yul\":4754:4759   */\n      dup2\n        /* \"#utility.yul\":4739:4760   */\n      tag_85\n      jump\t// in\n    tag_180:\n        /* \"#utility.yul\":4734:4737   */\n      dup3\n        /* \"#utility.yul\":4727:4761   */\n      mstore\n        /* \"#utility.yul\":4658:4767   */\n      pop\n      pop\n      jump\t// out\n        /* \"#utility.yul\":4773:4983   */\n    tag_23:\n        /* \"#utility.yul\":4860:4864   */\n      0x00\n        /* \"#utility.yul\":4898:4900   */\n      0x20\n        /* \"#utility.yul\":4887:4896   */\n      dup3\n        /* \"#utility.yul\":4883:4901   */\n      add\n        /* \"#utility.yul\":4875:4901   */\n      swap1\n      pop\n        /* \"#utility.yul\":4911:4976   */\n      tag_182\n        /* \"#utility.yul\":4973:4974   */\n      0x00\n        /* \"#utility.yul\":4962:4971   */\n      dup4\n        /* \"#utility.yul\":4958:4975   */\n      add\n        /* \"#utility.yul\":4949:4955   */\n      dup5\n        /* \"#utility.yul\":4911:4976   */\n      tag_86\n      jump\t// in\n    tag_182:\n        /* \"#utility.yul\":4773:4983   */\n      swap3\n      swap2\n      pop\n      pop\n      jump\t// out\n        /* \"#utility.yul\":4989:5498   */\n    tag_26:\n        /* \"#utility.yul\":5058:5064   */\n      0x00\n        /* \"#utility.yul\":5107:5109   */\n      0x20\n        /* \"#utility.yul\":5095:5104   */\n      dup3\n        /* \"#utility.yul\":5086:5093   */\n      dup5\n        /* \"#utility.yul\":5082:5105   */\n      sub\n        /* \"#utility.yul\":5078:5110   */\n      slt\n        /* \"#utility.yul\":5075:5194   */\n      iszero\n      tag_184\n      jumpi\n        /* \"#utility.yul\":5113:5192   */\n      tag_185\n      tag_69\n      jump\t// in\n    tag_185:\n        /* \"#utility.yul\":5075:5194   */\n    tag_184:\n        /* \"#utility.yul\":5261:5262   */\n      0x00\n        /* \"#utility.yul\":5250:5259   */\n      dup3\n        /* \"#utility.yul\":5246:5263   */\n      add\n        /* \"#utility.yul\":5233:5264   */\n      calldataload\n        /* \"#utility.yul\":5291:5309   */\n      0xffffffffffffffff\n        /* \"#utility.yul\":5283:5289   */\n      dup2\n        /* \"#utility.yul\":5280:5310   */\n      gt\n        /* \"#utility.yul\":5277:5394   */\n      iszero\n      tag_186\n      jumpi\n        /* \"#utility.yul\":5313:5392   */\n      tag_187\n      tag_70\n      jump\t// in\n    tag_187:\n        /* \"#utility.yul\":5277:5394   */\n    tag_186:\n        /* \"#utility.yul\":5418:5481   */\n      tag_188\n        /* \"#utility.yul\":5473:5480   */\n      dup5\n        /* \"#utility.yul\":5464:5470   */\n      dup3\n        /* \"#utility.yul\":5453:5462   */\n      dup6\n        /* \"#utility.yul\":5449:5471   */\n      add\n        /* \"#utility.yul\":5418:5481   */\n      tag_80\n      jump\t// in\n    tag_188:\n        /* \"#utility.yul\":5408:5481   */\n      swap2\n      pop\n        /* \"#utility.yul\":5204:5491   */\n      pop\n        /* \"#utility.yul\":4989:5498   */\n      swap3\n      swap2\n      pop\n      pop\n      jump\t// out\n        /* \"#utility.yul\":5504:5639   */\n    tag_87:\n        /* \"#utility.yul\":5592:5598   */\n      0x00\n        /* \"#utility.yul\":5626:5631   */\n      dup2\n        /* \"#utility.yul\":5620:5632   */\n      mload\n        /* \"#utility.yul\":5610:5632   */\n      swap1\n      pop\n        /* \"#utility.yul\":5504:5639   */\n      swap2\n      swap1\n      pop\n      jump\t// out\n        /* \"#utility.yul\":5645:5850   */\n    tag_88:\n        /* \"#utility.yul\":5765:5776   */\n      0x00\n        /* \"#utility.yul\":5799:5805   */\n      dup3\n        /* \"#utility.yul\":5794:5797   */\n      dup3\n        /* \"#utility.yul\":5787:5806   */\n      mstore\n        /* \"#utility.yul\":5839:5843   */\n      0x20\n        /* \"#utility.yul\":5834:5837   */\n      dup3\n        /* \"#utility.yul\":5830:5844   */\n      add\n        /* \"#utility.yul\":5815:5844   */\n      swap1\n      pop\n        /* \"#utility.yul\":5645:5850   */\n      swap3\n      swap2\n      pop\n      pop\n      jump\t// out\n        /* \"#utility.yul\":5856:6009   */\n    tag_89:\n        /* \"#utility.yul\":5944:5948   */\n      0x00\n        /* \"#utility.yul\":5967:5970   */\n      dup2\n        /* \"#utility.yul\":5959:5970   */\n      swap1\n      pop\n        /* \"#utility.yul\":5997:6001   */\n      0x20\n        /* \"#utility.yul\":5992:5995   */\n      dup3\n        /* \"#utility.yul\":5988:6002   */\n      add\n        /* \"#utility.yul\":5980:6002   */\n      swap1\n      pop\n        /* \"#utility.yul\":5856:6009   */\n      swap2\n      swap1\n      pop\n      jump\t// out\n        /* \"#utility.yul\":6015:6114   */\n    tag_90:\n        /* \"#utility.yul\":6067:6073   */\n      0x00\n        /* \"#utility.yul\":6101:6106   */\n      dup2\n        /* \"#utility.yul\":6095:6107   */\n      mload\n        /* \"#utility.yul\":6085:6107   */\n      swap1\n      pop\n        /* \"#utility.yul\":6015:6114   */\n      swap2\n      swap1\n      pop\n      jump\t// out\n        /* \"#utility.yul\":6120:6279   */\n    tag_91:\n        /* \"#utility.yul\":6194:6205   */\n      0x00\n        /* \"#utility.yul\":6228:6234   */\n      dup3\n        /* \"#utility.yul\":6223:6226   */\n      dup3\n        /* \"#utility.yul\":6216:6235   */\n      mstore\n        /* \"#utility.yul\":6268:6272   */\n      0x20\n        /* \"#utility.yul\":6263:6266   */\n      dup3\n        /* \"#utility.yul\":6259:6273   */\n      add\n        /* \"#utility.yul\":6244:6273   */\n      swap1\n      pop\n        /* \"#utility.yul\":6120:6279   */\n      swap3\n      swap2\n      pop\n      pop\n      jump\t// out\n        /* \"#utility.yul\":6285:6424   */\n    tag_92:\n        /* \"#utility.yul\":6374:6380   */\n      dup3\n        /* \"#utility.yul\":6369:6372   */\n      dup2\n        /* \"#utility.yul\":6364:6367   */\n      dup4\n        /* \"#utility.yul\":6358:6381   */\n      mcopy\n        /* \"#utility.yul\":6415:6416   */\n      0x00\n        /* \"#utility.yul\":6406:6412   */\n      dup4\n        /* \"#utility.yul\":6401:6404   */\n      dup4\n        /* \"#utility.yul\":6397:6413   */\n      add\n        /* \"#utility.yul\":6390:6417   */\n      mstore\n        /* \"#utility.yul\":6285:6424   */\n      pop\n      pop\n      pop\n      jump\t// out\n        /* \"#utility.yul\":6430:6787   */\n    tag_93:\n        /* \"#utility.yul\":6508:6511   */\n      0x00\n        /* \"#utility.yul\":6536:6575   */\n      tag_196\n        /* \"#utility.yul\":6569:6574   */\n      dup3\n        /* \"#utility.yul\":6536:6575   */\n      tag_90\n      jump\t// in\n    tag_196:\n        /* \"#utility.yul\":6591:6652   */\n      tag_197\n        /* \"#utility.yul\":6645:6651   */\n      dup2\n        /* \"#utility.yul\":6640:6643   */\n      dup6\n        /* \"#utility.yul\":6591:6652   */\n      tag_91\n      jump\t// in\n    tag_197:\n        /* \"#utility.yul\":6584:6652   */\n      swap4\n      pop\n        /* \"#utility.yul\":6661:6726   */\n      tag_198\n        /* \"#utility.yul\":6719:6725   */\n      dup2\n        /* \"#utility.yul\":6714:6717   */\n      dup6\n        /* \"#utility.yul\":6707:6711   */\n      0x20\n        /* \"#utility.yul\":6700:6705   */\n      dup7\n        /* \"#utility.yul\":6696:6712   */\n      add\n        /* \"#utility.yul\":6661:6726   */\n      tag_92\n      jump\t// in\n    tag_198:\n        /* \"#utility.yul\":6751:6780   */\n      tag_199\n        /* \"#utility.yul\":6773:6779   */\n      dup2\n        /* \"#utility.yul\":6751:6780   */\n      tag_73\n      jump\t// in\n    tag_199:\n        /* \"#utility.yul\":6746:6749   */\n      dup5\n        /* \"#utility.yul\":6742:6781   */\n      add\n        /* \"#utility.yul\":6735:6781   */\n      swap2\n      pop\n        /* \"#utility.yul\":6512:6787   */\n      pop\n        /* \"#utility.yul\":6430:6787   */\n      swap3\n      swap2\n      pop\n      pop\n      jump\t// out\n        /* \"#utility.yul\":6793:6870   */\n    tag_94:\n        /* \"#utility.yul\":6830:6837   */\n      0x00\n        /* \"#utility.yul\":6859:6864   */\n      dup2\n        /* \"#utility.yul\":6848:6864   */\n      swap1\n      pop\n        /* \"#utility.yul\":6793:6870   */\n      swap2\n      swap1\n      pop\n      jump\t// out\n        /* \"#utility.yul\":6876:6984   */\n    tag_95:\n        /* \"#utility.yul\":6953:6977   */\n      tag_202\n        /* \"#utility.yul\":6971:6976   */\n      dup2\n        /* \"#utility.yul\":6953:6977   */\n      tag_94\n      jump\t// in\n    tag_202:\n        /* \"#utility.yul\":6948:6951   */\n      dup3\n        /* \"#utility.yul\":6941:6978   */\n      mstore\n        /* \"#utility.yul\":6876:6984   */\n      pop\n      pop\n      jump\t// out\n        /* \"#utility.yul\":6990:7098   */\n    tag_96:\n        /* \"#utility.yul\":7067:7091   */\n      tag_204\n        /* \"#utility.yul\":7085:7090   */\n      dup2\n        /* \"#utility.yul\":7067:7091   */\n      tag_82\n      jump\t// in\n    tag_204:\n        /* \"#utility.yul\":7062:7065   */\n      dup3\n        /* \"#utility.yul\":7055:7092   */\n      mstore\n        /* \"#utility.yul\":6990:7098   */\n      pop\n      pop\n      jump\t// out\n        /* \"#utility.yul\":7180:8204   */\n    tag_97:\n        /* \"#utility.yul\":7281:7284   */\n      0x00\n        /* \"#utility.yul\":7317:7321   */\n      0x80\n        /* \"#utility.yul\":7312:7315   */\n      dup4\n        /* \"#utility.yul\":7308:7322   */\n      add\n        /* \"#utility.yul\":7409:7413   */\n      0x00\n        /* \"#utility.yul\":7402:7407   */\n      dup4\n        /* \"#utility.yul\":7398:7414   */\n      add\n        /* \"#utility.yul\":7392:7415   */\n      mload\n        /* \"#utility.yul\":7462:7465   */\n      dup5\n        /* \"#utility.yul\":7456:7460   */\n      dup3\n        /* \"#utility.yul\":7452:7466   */\n      sub\n        /* \"#utility.yul\":7445:7449   */\n      0x00\n        /* \"#utility.yul\":7440:7443   */\n      dup7\n        /* \"#utility.yul\":7436:7450   */\n      add\n        /* \"#utility.yul\":7429:7467   */\n      mstore\n        /* \"#utility.yul\":7488:7561   */\n      tag_206\n        /* \"#utility.yul\":7556:7560   */\n      dup3\n        /* \"#utility.yul\":7542:7554   */\n      dup3\n        /* \"#utility.yul\":7488:7561   */\n      tag_93\n      jump\t// in\n    tag_206:\n        /* \"#utility.yul\":7480:7561   */\n      swap2\n      pop\n        /* \"#utility.yul\":7332:7572   */\n      pop\n        /* \"#utility.yul\":7657:7661   */\n      0x20\n        /* \"#utility.yul\":7650:7655   */\n      dup4\n        /* \"#utility.yul\":7646:7662   */\n      add\n        /* \"#utility.yul\":7640:7663   */\n      mload\n        /* \"#utility.yul\":7710:7713   */\n      dup5\n        /* \"#utility.yul\":7704:7708   */\n      dup3\n        /* \"#utility.yul\":7700:7714   */\n      sub\n        /* \"#utility.yul\":7693:7697   */\n      0x20\n        /* \"#utility.yul\":7688:7691   */\n      dup7\n        /* \"#utility.yul\":7684:7698   */\n      add\n        /* \"#utility.yul\":7677:7715   */\n      mstore\n        /* \"#utility.yul\":7736:7809   */\n      tag_207\n        /* \"#utility.yul\":7804:7808   */\n      dup3\n        /* \"#utility.yul\":7790:7802   */\n      dup3\n        /* \"#utility.yul\":7736:7809   */\n      tag_93\n      jump\t// in\n    tag_207:\n        /* \"#utility.yul\":7728:7809   */\n      swap2\n      pop\n        /* \"#utility.yul\":7582:7820   */\n      pop\n        /* \"#utility.yul\":7907:7911   */\n      0x40\n        /* \"#utility.yul\":7900:7905   */\n      dup4\n        /* \"#utility.yul\":7896:7912   */\n      add\n        /* \"#utility.yul\":7890:7913   */\n      mload\n        /* \"#utility.yul\":7926:7989   */\n      tag_208\n        /* \"#utility.yul\":7983:7987   */\n      0x40\n        /* \"#utility.yul\":7978:7981   */\n      dup7\n        /* \"#utility.yul\":7974:7988   */\n      add\n        /* \"#utility.yul\":7960:7972   */\n      dup3\n        /* \"#utility.yul\":7926:7989   */\n      tag_95\n      jump\t// in\n    tag_208:\n        /* \"#utility.yul\":7830:7999   */\n      pop\n        /* \"#utility.yul\":8085:8089   */\n      0x60\n        /* \"#utility.yul\":8078:8083   */\n      dup4\n        /* \"#utility.yul\":8074:8090   */\n      add\n        /* \"#utility.yul\":8068:8091   */\n      mload\n        /* \"#utility.yul\":8104:8167   */\n      tag_209\n        /* \"#utility.yul\":8161:8165   */\n      0x60\n        /* \"#utility.yul\":8156:8159   */\n      dup7\n        /* \"#utility.yul\":8152:8166   */\n      add\n        /* \"#utility.yul\":8138:8150   */\n      dup3\n        /* \"#utility.yul\":8104:8167   */\n      tag_96\n      jump\t// in\n    tag_209:\n        /* \"#utility.yul\":8009:8177   */\n      pop\n        /* \"#utility.yul\":8194:8198   */\n      dup1\n        /* \"#utility.yul\":8187:8198   */\n      swap2\n      pop\n        /* \"#utility.yul\":7286:8204   */\n      pop\n        /* \"#utility.yul\":7180:8204   */\n      swap3\n      swap2\n      pop\n      pop\n      jump\t// out\n        /* \"#utility.yul\":8210:8450   */\n    tag_98:\n        /* \"#utility.yul\":8321:8331   */\n      0x00\n        /* \"#utility.yul\":8356:8444   */\n      tag_211\n        /* \"#utility.yul\":8440:8443   */\n      dup4\n        /* \"#utility.yul\":8432:8438   */\n      dup4\n        /* \"#utility.yul\":8356:8444   */\n      tag_97\n      jump\t// in\n    tag_211:\n        /* \"#utility.yul\":8342:8444   */\n      swap1\n      pop\n        /* \"#utility.yul\":8210:8450   */\n      swap3\n      swap2\n      pop\n      pop\n      jump\t// out\n        /* \"#utility.yul\":8456:8590   */\n    tag_99:\n        /* \"#utility.yul\":8547:8551   */\n      0x00\n        /* \"#utility.yul\":8579:8583   */\n      0x20\n        /* \"#utility.yul\":8574:8577   */\n      dup3\n        /* \"#utility.yul\":8570:8584   */\n      add\n        /* \"#utility.yul\":8562:8584   */\n      swap1\n      pop\n        /* \"#utility.yul\":8456:8590   */\n      swap2\n      swap1\n      pop\n      jump\t// out\n        /* \"#utility.yul\":8676:9755   */\n    tag_100:\n        /* \"#utility.yul\":8837:8840   */\n      0x00\n        /* \"#utility.yul\":8866:8941   */\n      tag_214\n        /* \"#utility.yul\":8935:8940   */\n      dup3\n        /* \"#utility.yul\":8866:8941   */\n      tag_87\n      jump\t// in\n    tag_214:\n        /* \"#utility.yul\":8957:9064   */\n      tag_215\n        /* \"#utility.yul\":9057:9063   */\n      dup2\n        /* \"#utility.yul\":9052:9055   */\n      dup6\n        /* \"#utility.yul\":8957:9064   */\n      tag_88\n      jump\t// in\n    tag_215:\n        /* \"#utility.yul\":8950:9064   */\n      swap4\n      pop\n        /* \"#utility.yul\":9090:9093   */\n      dup4\n        /* \"#utility.yul\":9135:9139   */\n      0x20\n        /* \"#utility.yul\":9127:9133   */\n      dup3\n        /* \"#utility.yul\":9123:9140   */\n      mul\n        /* \"#utility.yul\":9118:9121   */\n      dup6\n        /* \"#utility.yul\":9114:9141   */\n      add\n        /* \"#utility.yul\":9165:9242   */\n      tag_216\n        /* \"#utility.yul\":9236:9241   */\n      dup6\n        /* \"#utility.yul\":9165:9242   */\n      tag_89\n      jump\t// in\n    tag_216:\n        /* \"#utility.yul\":9265:9272   */\n      dup1\n        /* \"#utility.yul\":9296:9297   */\n      0x00\n        /* \"#utility.yul\":9281:9710   */\n    tag_217:\n        /* \"#utility.yul\":9306:9312   */\n      dup6\n        /* \"#utility.yul\":9303:9304   */\n      dup2\n        /* \"#utility.yul\":9300:9313   */\n      lt\n        /* \"#utility.yul\":9281:9710   */\n      iszero\n      tag_219\n      jumpi\n        /* \"#utility.yul\":9377:9386   */\n      dup5\n        /* \"#utility.yul\":9371:9375   */\n      dup5\n        /* \"#utility.yul\":9367:9387   */\n      sub\n        /* \"#utility.yul\":9362:9365   */\n      dup10\n        /* \"#utility.yul\":9355:9388   */\n      mstore\n        /* \"#utility.yul\":9428:9434   */\n      dup2\n        /* \"#utility.yul\":9422:9435   */\n      mload\n        /* \"#utility.yul\":9456:9562   */\n      tag_220\n        /* \"#utility.yul\":9557:9561   */\n      dup6\n        /* \"#utility.yul\":9542:9555   */\n      dup3\n        /* \"#utility.yul\":9456:9562   */\n      tag_98\n      jump\t// in\n    tag_220:\n        /* \"#utility.yul\":9448:9562   */\n      swap5\n      pop\n        /* \"#utility.yul\":9585:9666   */\n      tag_221\n        /* \"#utility.yul\":9659:9665   */\n      dup4\n        /* \"#utility.yul\":9585:9666   */\n      tag_99\n      jump\t// in\n    tag_221:\n        /* \"#utility.yul\":9575:9666   */\n      swap3\n      pop\n        /* \"#utility.yul\":9695:9699   */\n      0x20\n        /* \"#utility.yul\":9690:9693   */\n      dup11\n        /* \"#utility.yul\":9686:9700   */\n      add\n        /* \"#utility.yul\":9679:9700   */\n      swap10\n      pop\n        /* \"#utility.yul\":9341:9710   */\n      pop\n        /* \"#utility.yul\":9328:9329   */\n      0x01\n        /* \"#utility.yul\":9325:9326   */\n      dup2\n        /* \"#utility.yul\":9321:9330   */\n      add\n        /* \"#utility.yul\":9316:9330   */\n      swap1\n      pop\n        /* \"#utility.yul\":9281:9710   */\n      jump(tag_217)\n    tag_219:\n        /* \"#utility.yul\":9285:9299   */\n      pop\n        /* \"#utility.yul\":9726:9730   */\n      dup3\n        /* \"#utility.yul\":9719:9730   */\n      swap8\n      pop\n        /* \"#utility.yul\":9746:9749   */\n      dup8\n        /* \"#utility.yul\":9739:9749   */\n      swap6\n      pop\n        /* \"#utility.yul\":8842:9755   */\n      pop\n      pop\n      pop\n      pop\n      pop\n        /* \"#utility.yul\":8676:9755   */\n      swap3\n      swap2\n      pop\n      pop\n      jump\t// out\n        /* \"#utility.yul\":9761:10218   */\n    tag_29:\n        /* \"#utility.yul\":9946:9950   */\n      0x00\n        /* \"#utility.yul\":9984:9986   */\n      0x20\n        /* \"#utility.yul\":9973:9982   */\n      dup3\n        /* \"#utility.yul\":9969:9987   */\n      add\n        /* \"#utility.yul\":9961:9987   */\n      swap1\n      pop\n        /* \"#utility.yul\":10033:10042   */\n      dup2\n        /* \"#utility.yul\":10027:10031   */\n      dup2\n        /* \"#utility.yul\":10023:10043   */\n      sub\n        /* \"#utility.yul\":10019:10020   */\n      0x00\n        /* \"#utility.yul\":10008:10017   */\n      dup4\n        /* \"#utility.yul\":10004:10021   */\n      add\n        /* \"#utility.yul\":9997:10044   */\n      mstore\n        /* \"#utility.yul\":10061:10211   */\n      tag_223\n        /* \"#utility.yul\":10206:10210   */\n      dup2\n        /* \"#utility.yul\":10197:10203   */\n      dup5\n        /* \"#utility.yul\":10061:10211   */\n      tag_100\n      jump\t// in\n    tag_223:\n        /* \"#utility.yul\":10053:10211   */\n      swap1\n      pop\n        /* \"#utility.yul\":9761:10218   */\n      swap3\n      swap2\n      pop\n      pop\n      jump\t// out\n        /* \"#utility.yul\":10224:10393   */\n    tag_101:\n        /* \"#utility.yul\":10308:10319   */\n      0x00\n        /* \"#utility.yul\":10342:10348   */\n      dup3\n        /* \"#utility.yul\":10337:10340   */\n      dup3\n        /* \"#utility.yul\":10330:10349   */\n      mstore\n        /* \"#utility.yul\":10382:10386   */\n      0x20\n        /* \"#utility.yul\":10377:10380   */\n      dup3\n        /* \"#utility.yul\":10373:10387   */\n      add\n        /* \"#utility.yul\":10358:10387   */\n      swap1\n      pop\n        /* \"#utility.yul\":10224:10393   */\n      swap3\n      swap2\n      pop\n      pop\n      jump\t// out\n        /* \"#utility.yul\":10399:10563   */\n    tag_102:\n        /* \"#utility.yul\":10539:10555   */\n      0x4e6f7420617574686f72697a6564000000000000000000000000000000000000\n        /* \"#utility.yul\":10535:10536   */\n      0x00\n        /* \"#utility.yul\":10527:10533   */\n      dup3\n        /* \"#utility.yul\":10523:10537   */\n      add\n        /* \"#utility.yul\":10516:10556   */\n      mstore\n        /* \"#utility.yul\":10399:10563   */\n      pop\n      jump\t// out\n        /* \"#utility.yul\":10569:10935   */\n    tag_103:\n        /* \"#utility.yul\":10711:10714   */\n      0x00\n        /* \"#utility.yul\":10732:10799   */\n      tag_227\n        /* \"#utility.yul\":10796:10798   */\n      0x0e\n        /* \"#utility.yul\":10791:10794   */\n      dup4\n        /* \"#utility.yul\":10732:10799   */\n      tag_101\n      jump\t// in\n    tag_227:\n        /* \"#utility.yul\":10725:10799   */\n      swap2\n      pop\n        /* \"#utility.yul\":10808:10901   */\n      tag_228\n        /* \"#utility.yul\":10897:10900   */\n      dup3\n        /* \"#utility.yul\":10808:10901   */\n      tag_102\n      jump\t// in\n    tag_228:\n        /* \"#utility.yul\":10926:10928   */\n      0x20\n        /* \"#utility.yul\":10921:10924   */\n      dup3\n        /* \"#utility.yul\":10917:10929   */\n      add\n        /* \"#utility.yul\":10910:10929   */\n      swap1\n      pop\n        /* \"#utility.yul\":10569:10935   */\n      swap2\n      swap1\n      pop\n      jump\t// out\n        /* \"#utility.yul\":10941:11360   */\n    tag_33:\n        /* \"#utility.yul\":11107:11111   */\n      0x00\n        /* \"#utility.yul\":11145:11147   */\n      0x20\n        /* \"#utility.yul\":11134:11143   */\n      dup3\n        /* \"#utility.yul\":11130:11148   */\n      add\n        /* \"#utility.yul\":11122:11148   */\n      swap1\n      pop\n        /* \"#utility.yul\":11194:11203   */\n      dup2\n        /* \"#utility.yul\":11188:11192   */\n      dup2\n        /* \"#utility.yul\":11184:11204   */\n      sub\n        /* \"#utility.yul\":11180:11181   */\n      0x00\n        /* \"#utility.yul\":11169:11178   */\n      dup4\n        /* \"#utility.yul\":11165:11182   */\n      add\n        /* \"#utility.yul\":11158:11205   */\n      mstore\n        /* \"#utility.yul\":11222:11353   */\n      tag_230\n        /* \"#utility.yul\":11348:11352   */\n      dup2\n        /* \"#utility.yul\":11222:11353   */\n      tag_103\n      jump\t// in\n    tag_230:\n        /* \"#utility.yul\":11214:11353   */\n      swap1\n      pop\n        /* \"#utility.yul\":10941:11360   */\n      swap2\n      swap1\n      pop\n      jump\t// out\n        /* \"#utility.yul\":11366:11514   */\n    tag_104:\n        /* \"#utility.yul\":11468:11479   */\n      0x00\n        /* \"#utility.yul\":11505:11508   */\n      dup2\n        /* \"#utility.yul\":11490:11508   */\n      swap1\n      pop\n        /* \"#utility.yul\":11366:11514   */\n      swap3\n      swap2\n      pop\n      pop\n      jump\t// out\n        /* \"#utility.yul\":11520:11910   */\n    tag_105:\n        /* \"#utility.yul\":11626:11629   */\n      0x00\n        /* \"#utility.yul\":11654:11693   */\n      tag_233\n        /* \"#utility.yul\":11687:11692   */\n      dup3\n        /* \"#utility.yul\":11654:11693   */\n      tag_90\n      jump\t// in\n    tag_233:\n        /* \"#utility.yul\":11709:11798   */\n      tag_234\n        /* \"#utility.yul\":11791:11797   */\n      dup2\n        /* \"#utility.yul\":11786:11789   */\n      dup6\n        /* \"#utility.yul\":11709:11798   */\n      tag_104\n      jump\t// in\n    tag_234:\n        /* \"#utility.yul\":11702:11798   */\n      swap4\n      pop\n        /* \"#utility.yul\":11807:11872   */\n      tag_235\n        /* \"#utility.yul\":11865:11871   */\n      dup2\n        /* \"#utility.yul\":11860:11863   */\n      dup6\n        /* \"#utility.yul\":11853:11857   */\n      0x20\n        /* \"#utility.yul\":11846:11851   */\n      dup7\n        /* \"#utility.yul\":11842:11858   */\n      add\n        /* \"#utility.yul\":11807:11872   */\n      tag_92\n      jump\t// in\n    tag_235:\n        /* \"#utility.yul\":11897:11903   */\n      dup1\n        /* \"#utility.yul\":11892:11895   */\n      dup5\n        /* \"#utility.yul\":11888:11904   */\n      add\n        /* \"#utility.yul\":11881:11904   */\n      swap2\n      pop\n        /* \"#utility.yul\":11630:11910   */\n      pop\n        /* \"#utility.yul\":11520:11910   */\n      swap3\n      swap2\n      pop\n      pop\n      jump\t// out\n        /* \"#utility.yul\":11916:12191   */\n    tag_36:\n        /* \"#utility.yul\":12048:12051   */\n      0x00\n        /* \"#utility.yul\":12070:12165   */\n      tag_237\n        /* \"#utility.yul\":12161:12164   */\n      dup3\n        /* \"#utility.yul\":12152:12158   */\n      dup5\n        /* \"#utility.yul\":12070:12165   */\n      tag_105\n      jump\t// in\n    tag_237:\n        /* \"#utility.yul\":12063:12165   */\n      swap2\n      pop\n        /* \"#utility.yul\":12182:12185   */\n      dup2\n        /* \"#utility.yul\":12175:12185   */\n      swap1\n      pop\n        /* \"#utility.yul\":11916:12191   */\n      swap3\n      swap2\n      pop\n      pop\n      jump\t// out\n        /* \"#utility.yul\":12197:12377   */\n    tag_106:\n        /* \"#utility.yul\":12245:12322   */\n      0x4e487b7100000000000000000000000000000000000000000000000000000000\n        /* \"#utility.yul\":12242:12243   */\n      0x00\n        /* \"#utility.yul\":12235:12323   */\n      mstore\n        /* \"#utility.yul\":12342:12346   */\n      0x22\n        /* \"#utility.yul\":12339:12340   */\n      0x04\n        /* \"#utility.yul\":12332:12347   */\n      mstore\n        /* \"#utility.yul\":12366:12370   */\n      0x24\n        /* \"#utility.yul\":12363:12364   */\n      0x00\n        /* \"#utility.yul\":12356:12371   */\n      revert\n        /* \"#utility.yul\":12383:12703   */\n    tag_58:\n        /* \"#utility.yul\":12427:12433   */\n      0x00\n        /* \"#utility.yul\":12464:12465   */\n      0x02\n        /* \"#utility.yul\":12458:12462   */\n      dup3\n        /* \"#utility.yul\":12454:12466   */\n      div\n        /* \"#utility.yul\":12444:12466   */\n      swap1\n      pop\n        /* \"#utility.yul\":12511:12512   */\n      0x01\n        /* \"#utility.yul\":12505:12509   */\n      dup3\n        /* \"#utility.yul\":12501:12513   */\n      and\n        /* \"#utility.yul\":12532:12550   */\n      dup1\n        /* \"#utility.yul\":12522:12603   */\n      tag_240\n      jumpi\n        /* \"#utility.yul\":12588:12592   */\n      0x7f\n        /* \"#utility.yul\":12580:12586   */\n      dup3\n        /* \"#utility.yul\":12576:12593   */\n      and\n        /* \"#utility.yul\":12566:12593   */\n      swap2\n      pop\n        /* \"#utility.yul\":12522:12603   */\n    tag_240:\n        /* \"#utility.yul\":12650:12652   */\n      0x20\n        /* \"#utility.yul\":12642:12648   */\n      dup3\n        /* \"#utility.yul\":12639:12653   */\n      lt\n        /* \"#utility.yul\":12619:12637   */\n      dup2\n        /* \"#utility.yul\":12616:12654   */\n      sub\n        /* \"#utility.yul\":12613:12697   */\n      tag_241\n      jumpi\n        /* \"#utility.yul\":12669:12687   */\n      tag_242\n      tag_106\n      jump\t// in\n    tag_242:\n        /* \"#utility.yul\":12613:12697   */\n    tag_241:\n        /* \"#utility.yul\":12434:12703   */\n      pop\n        /* \"#utility.yul\":12383:12703   */\n      swap2\n      swap1\n      pop\n      jump\t// out\n        /* \"#utility.yul\":12709:12850   */\n    tag_107:\n        /* \"#utility.yul\":12758:12762   */\n      0x00\n        /* \"#utility.yul\":12781:12784   */\n      dup2\n        /* \"#utility.yul\":12773:12784   */\n      swap1\n      pop\n        /* \"#utility.yul\":12804:12807   */\n      dup2\n        /* \"#utility.yul\":12801:12802   */\n      0x00\n        /* \"#utility.yul\":12794:12808   */\n      mstore\n        /* \"#utility.yul\":12838:12842   */\n      0x20\n        /* \"#utility.yul\":12835:12836   */\n      0x00\n        /* \"#utility.yul\":12825:12843   */\n      keccak256\n        /* \"#utility.yul\":12817:12843   */\n      swap1\n      pop\n        /* \"#utility.yul\":12709:12850   */\n      swap2\n      swap1\n      pop\n      jump\t// out\n        /* \"#utility.yul\":12856:12949   */\n    tag_108:\n        /* \"#utility.yul\":12893:12899   */\n      0x00\n        /* \"#utility.yul\":12940:12942   */\n      0x20\n        /* \"#utility.yul\":12935:12937   */\n      0x1f\n        /* \"#utility.yul\":12928:12933   */\n      dup4\n        /* \"#utility.yul\":12924:12938   */\n      add\n        /* \"#utility.yul\":12920:12943   */\n      div\n        /* \"#utility.yul\":12910:12943   */\n      swap1\n      pop\n        /* \"#utility.yul\":12856:12949   */\n      swap2\n      swap1\n      pop\n      jump\t// out\n        /* \"#utility.yul\":12955:13062   */\n    tag_109:\n        /* \"#utility.yul\":12999:13007   */\n      0x00\n        /* \"#utility.yul\":13049:13054   */\n      dup3\n        /* \"#utility.yul\":13043:13047   */\n      dup3\n        /* \"#utility.yul\":13039:13055   */\n      shl\n        /* \"#utility.yul\":13018:13055   */\n      swap1\n      pop\n        /* \"#utility.yul\":12955:13062   */\n      swap3\n      swap2\n      pop\n      pop\n      jump\t// out\n        /* \"#utility.yul\":13068:13461   */\n    tag_110:\n        /* \"#utility.yul\":13137:13143   */\n      0x00\n        /* \"#utility.yul\":13187:13188   */\n      0x08\n        /* \"#utility.yul\":13175:13185   */\n      dup4\n        /* \"#utility.yul\":13171:13189   */\n      mul\n        /* \"#utility.yul\":13210:13307   */\n      tag_247\n        /* \"#utility.yul\":13240:13306   */\n      0xffffffffffffffffffffffffffffffffffffffffffffffffffffffffffffffff\n        /* \"#utility.yul\":13229:13238   */\n      dup3\n        /* \"#utility.yul\":13210:13307   */\n      tag_109\n      jump\t// in\n    tag_247:\n        /* \"#utility.yul\":13328:13367   */\n      tag_248\n        /* \"#utility.yul\":13358:13366   */\n      dup7\n        /* \"#utility.yul\":13347:13356   */\n      dup4\n        /* \"#utility.yul\":13328:13367   */\n      tag_109\n      jump\t// in\n    tag_248:\n        /* \"#utility.yul\":13316:13367   */\n      swap6\n      pop\n        /* \"#utility.yul\":13400:13404   */\n      dup1\n        /* \"#utility.yul\":13396:13405   */\n      not\n        /* \"#utility.yul\":13389:13394   */\n      dup5\n        /* \"#utility.yul\":13385:13406   */\n      and\n        /* \"#utility.yul\":13376:13406   */\n      swap4\n      pop\n        /* \"#utility.yul\":13449:13453   */\n      dup1\n        /* \"#utility.yul\":13439:13447   */\n      dup7\n        /* \"#utility.yul\":13435:13454   */\n      and\n        /* \"#utility.yul\":13428:13433   */\n      dup5\n        /* \"#utility.yul\":13425:13455   */\n      or\n        /* \"#utility.yul\":13415:13455   */\n      swap3\n      pop\n        /* \"#utility.yul\":13144:13461   */\n      pop\n      pop\n        /* \"#utility.yul\":13068:13461   */\n      swap4\n      swap3\n      pop\n      pop\n      pop\n      jump\t// out\n        /* \"#utility.yul\":13467:13527   */\n    tag_111:\n        /* \"#utility.yul\":13495:13498   */\n      0x00\n        /* \"#utility.yul\":13516:13521   */\n      dup2\n        /* \"#utility.yul\":13509:13521   */\n      swap1\n      pop\n        /* \"#utility.yul\":13467:13527   */\n      swap2\n      swap1\n      pop\n      jump\t// out\n        /* \"#utility.yul\":13533:13675   */\n    tag_112:\n        /* \"#utility.yul\":13583:13592   */\n      0x00\n        /* \"#utility.yul\":13616:13669   */\n      tag_251\n        /* \"#utility.yul\":13634:13668   */\n      tag_252\n        /* \"#utility.yul\":13643:13667   */\n      tag_253\n        /* \"#utility.yul\":13661:13666   */\n      dup5\n        /* \"#utility.yul\":13643:13667   */\n      tag_94\n      jump\t// in\n    tag_253:\n        /* \"#utility.yul\":13634:13668   */\n      tag_111\n      jump\t// in\n    tag_252:\n        /* \"#utility.yul\":13616:13669   */\n      tag_94\n      jump\t// in\n    tag_251:\n        /* \"#utility.yul\":13603:13669   */\n      swap1\n      pop\n        /* \"#utility.yul\":13533:13675   */\n      swap2\n      swap1\n      pop\n      jump\t// out\n        /* \"#utility.yul\":13681:13756   */\n    tag_113:\n        /* \"#utility.yul\":13724:13727   */\n      0x00\n        /* \"#utility.yul\":13745:13750   */\n      dup2\n        /* \"#utility.yul\":13738:13750   */\n      swap1\n      pop\n        /* \"#utility.yul\":13681:13756   */\n      swap2\n      swap1\n      pop\n      jump\t// out\n        /* \"#utility.yul\":13762:14031   */\n    tag_114:\n        /* \"#utility.yul\":13872:13911   */\n      tag_256\n        /* \"#utility.yul\":13903:13910   */\n      dup4\n        /* \"#utility.yul\":13872:13911   */\n      tag_112\n      jump\t// in\n    tag_256:\n        /* \"#utility.yul\":13933:14024   */\n      tag_257\n        /* \"#utility.yul\":13982:14023   */\n      tag_258\n        /* \"#utility.yul\":14006:14022   */\n      dup3\n        /* \"#utility.yul\":13982:14023   */\n      tag_113\n      jump\t// in\n    tag_258:\n        /* \"#utility.yul\":13974:13980   */\n      dup5\n        /* \"#utility.yul\":13967:13971   */\n      dup5\n        /* \"#utility.yul\":13961:13972   */\n      sload\n        /* \"#utility.yul\":13933:14024   */\n      tag_110\n      jump\t// in\n    tag_257:\n        /* \"#utility.yul\":13927:13931   */\n      dup3\n        /* \"#utility.yul\":13920:14025   */\n      sstore\n        /* \"#utility.yul\":13838:14031   */\n      pop\n        /* \"#utility.yul\":13762:14031   */\n      pop\n      pop\n      pop\n      jump\t// out\n        /* \"#utility.yul\":14037:14110   */\n    tag_115:\n        /* \"#utility.yul\":14082:14085   */\n      0x00\n        /* \"#utility.yul\":14037:14110   */\n      swap1\n      jump\t// out\n        /* \"#utility.yul\":14116:14305   */\n    tag_116:\n        /* \"#utility.yul\":14193:14225   */\n      tag_261\n      tag_115\n      jump\t// in\n    tag_261:\n        /* \"#utility.yul\":14234:14299   */\n      tag_262\n        /* \"#utility.yul\":14292:14298   */\n      dup2\n        /* \"#utility.yul\":14284:14290   */\n      dup5\n        /* \"#utility.yul\":14278:14282   */\n      dup5\n        /* \"#utility.yul\":14234:14299   */\n      tag_114\n      jump\t// in\n    tag_262:\n        /* \"#utility.yul\":14169:14305   */\n      pop\n        /* \"#utility.yul\":14116:14305   */\n      pop\n      pop\n      jump\t// out\n        /* \"#utility.yul\":14311:14497   */\n    tag_117:\n        /* \"#utility.yul\":14371:14491   */\n    tag_264:\n        /* \"#utility.yul\":14388:14391   */\n      dup2\n        /* \"#utility.yul\":14381:14386   */\n      dup2\n        /* \"#utility.yul\":14378:14392   */\n      lt\n        /* \"#utility.yul\":14371:14491   */\n      iszero\n      tag_266\n      jumpi\n        /* \"#utility.yul\":14442:14481   */\n      tag_267\n        /* \"#utility.yul\":14479:14480   */\n      0x00\n        /* \"#utility.yul\":14472:14477   */\n      dup3\n        /* \"#utility.yul\":14442:14481   */\n      tag_116\n      jump\t// in\n    tag_267:\n        /* \"#utility.yul\":14415:14416   */\n      0x01\n        /* \"#utility.yul\":14408:14413   */\n      dup2\n        /* \"#utility.yul\":14404:14417   */\n      add\n        /* \"#utility.yul\":14395:14417   */\n      swap1\n      pop\n        /* \"#utility.yul\":14371:14491   */\n      jump(tag_264)\n    tag_266:\n        /* \"#utility.yul\":14311:14497   */\n      pop\n      pop\n      jump\t// out\n        /* \"#utility.yul\":14503:15046   */\n    tag_118:\n        /* \"#utility.yul\":14604:14606   */\n      0x1f\n        /* \"#utility.yul\":14599:14602   */\n      dup3\n        /* \"#utility.yul\":14596:14607   */\n      gt\n        /* \"#utility.yul\":14593:15039   */\n      iszero\n      tag_269\n      jumpi\n        /* \"#utility.yul\":14638:14676   */\n      tag_270\n        /* \"#utility.yul\":14670:14675   */\n      dup2\n        /* \"#utility.yul\":14638:14676   */\n      tag_107\n      jump\t// in\n    tag_270:\n        /* \"#utility.yul\":14722:14751   */\n      tag_271\n        /* \"#utility.yul\":14740:14750   */\n      dup5\n        /* \"#utility.yul\":14722:14751   */\n      tag_108\n      jump\t// in\n    tag_271:\n        /* \"#utility.yul\":14712:14720   */\n      dup2\n        /* \"#utility.yul\":14708:14752   */\n      add\n        /* \"#utility.yul\":14905:14907   */\n      0x20\n        /* \"#utility.yul\":14893:14903   */\n      dup6\n        /* \"#utility.yul\":14890:14908   */\n      lt\n        /* \"#utility.yul\":14887:14936   */\n      iszero\n      tag_272\n      jumpi\n        /* \"#utility.yul\":14926:14934   */\n      dup2\n        /* \"#utility.yul\":14911:14934   */\n      swap1\n      pop\n        /* \"#utility.yul\":14887:14936   */\n    tag_272:\n        /* \"#utility.yul\":14949:15029   */\n      tag_273\n        /* \"#utility.yul\":15005:15027   */\n      tag_274\n        /* \"#utility.yul\":15023:15026   */\n      dup6\n        /* \"#utility.yul\":15005:15027   */\n      tag_108\n      jump\t// in\n    tag_274:\n        /* \"#utility.yul\":14995:15003   */\n      dup4\n        /* \"#utility.yul\":14991:15028   */\n      add\n        /* \"#utility.yul\":14978:14989   */\n      dup3\n        /* \"#utility.yul\":14949:15029   */\n      tag_117\n      jump\t// in\n    tag_273:\n        /* \"#utility.yul\":14608:15039   */\n      pop\n      pop\n        /* \"#utility.yul\":14593:15039   */\n    tag_269:\n        /* \"#utility.yul\":14503:15046   */\n      pop\n      pop\n      pop\n      jump\t// out\n        /* \"#utility.yul\":15052:15169   */\n    tag_119:\n        /* \"#utility.yul\":15106:15114   */\n      0x00\n        /* \"#utility.yul\":15156:15161   */\n      dup3\n        /* \"#utility.yul\":15150:15154   */\n      dup3\n        /* \"#utility.yul\":15146:15162   */\n      shr\n        /* \"#utility.yul\":15125:15162   */\n      swap1\n      pop\n        /* \"#utility.yul\":15052:15169   */\n      swap3\n      swap2\n      pop\n      pop\n      jump\t// out\n        /* \"#utility.yul\":15175:15344   */\n    tag_120:\n        /* \"#utility.yul\":15219:15225   */\n      0x00\n        /* \"#utility.yul\":15252:15303   */\n      tag_277\n        /* \"#utility.yul\":15300:15301   */\n      0x00\n        /* \"#utility.yul\":15296:15302   */\n      not\n        /* \"#utility.yul\":15288:15293   */\n      dup5\n        /* \"#utility.yul\":15285:15286   */\n      0x08\n        /* \"#utility.yul\":15281:15294   */\n      mul\n        /* \"#utility.yul\":15252:15303   */\n      tag_119\n      jump\t// in\n    tag_277:\n        /* \"#utility.yul\":15248:15304   */\n      not\n        /* \"#utility.yul\":15333:15337   */\n      dup1\n        /* \"#utility.yul\":15327:15331   */\n      dup4\n        /* \"#utility.yul\":15323:15338   */\n      and\n        /* \"#utility.yul\":15313:15338   */\n      swap2\n      pop\n        /* \"#utility.yul\":15226:15344   */\n      pop\n        /* \"#utility.yul\":15175:15344   */\n      swap3\n      swap2\n      pop\n      pop\n      jump\t// out\n        /* \"#utility.yul\":15349:15644   */\n    tag_121:\n        /* \"#utility.yul\":15425:15429   */\n      0x00\n        /* \"#utility.yul\":15571:15600   */\n      tag_279\n        /* \"#utility.yul\":15596:15599   */\n      dup4\n        /* \"#utility.yul\":15590:15594   */\n      dup4\n        /* \"#utility.yul\":15571:15600   */\n      tag_120\n      jump\t// in\n    tag_279:\n        /* \"#utility.yul\":15563:15600   */\n      swap2\n      pop\n        /* \"#utility.yul\":15633:15636   */\n      dup3\n        /* \"#utility.yul\":15630:15631   */\n      0x02\n        /* \"#utility.yul\":15626:15637   */\n      mul\n        /* \"#utility.yul\":15620:15624   */\n      dup3\n        /* \"#utility.yul\":15617:15638   */\n      or\n        /* \"#utility.yul\":15609:15638   */\n      swap1\n      pop\n        /* \"#utility.yul\":15349:15644   */\n      swap3\n      swap2\n      pop\n      pop\n      jump\t// out\n        /* \"#utility.yul\":15649:17044   */\n    tag_39:\n        /* \"#utility.yul\":15766:15803   */\n      tag_281\n        /* \"#utility.yul\":15799:15802   */\n      dup3\n        /* \"#utility.yul\":15766:15803   */\n      tag_90\n      jump\t// in\n    tag_281:\n        /* \"#utility.yul\":15868:15886   */\n      0xffffffffffffffff\n        /* \"#utility.yul\":15860:15866   */\n      dup2\n        /* \"#utility.yul\":15857:15887   */\n      gt\n        /* \"#utility.yul\":15854:15910   */\n      iszero\n      tag_282\n      jumpi\n        /* \"#utility.yul\":15890:15908   */\n      tag_283\n      tag_74\n      jump\t// in\n    tag_283:\n        /* \"#utility.yul\":15854:15910   */\n    tag_282:\n        /* \"#utility.yul\":15934:15972   */\n      tag_284\n        /* \"#utility.yul\":15966:15970   */\n      dup3\n        /* \"#utility.yul\":15960:15971   */\n      sload\n        /* \"#utility.yul\":15934:15972   */\n      tag_58\n      jump\t// in\n    tag_284:\n        /* \"#utility.yul\":16019:16086   */\n      tag_285\n        /* \"#utility.yul\":16079:16085   */\n      dup3\n        /* \"#utility.yul\":16071:16077   */\n      dup3\n        /* \"#utility.yul\":16065:16069   */\n      dup6\n        /* \"#utility.yul\":16019:16086   */\n      tag_118\n      jump\t// in\n    tag_285:\n        /* \"#utility.yul\":16113:16114   */\n      0x00\n        /* \"#utility.yul\":16137:16141   */\n      0x20\n        /* \"#utility.yul\":16124:16141   */\n      swap1\n      pop\n        /* \"#utility.yul\":16169:16171   */\n      0x1f\n        /* \"#utility.yul\":16161:16167   */\n      dup4\n        /* \"#utility.yul\":16158:16172   */\n      gt\n        /* \"#utility.yul\":16186:16187   */\n      0x01\n        /* \"#utility.yul\":16181:16799   */\n      dup2\n      eq\n      tag_287\n      jumpi\n        /* \"#utility.yul\":16843:16844   */\n      0x00\n        /* \"#utility.yul\":16860:16866   */\n      dup5\n        /* \"#utility.yul\":16857:16934   */\n      iszero\n      tag_288\n      jumpi\n        /* \"#utility.yul\":16909:16918   */\n      dup3\n        /* \"#utility.yul\":16904:16907   */\n      dup8\n        /* \"#utility.yul\":16900:16919   */\n      add\n        /* \"#utility.yul\":16894:16920   */\n      mload\n        /* \"#utility.yul\":16885:16920   */\n      swap1\n      pop\n        /* \"#utility.yul\":16857:16934   */\n    tag_288:\n        /* \"#utility.yul\":16960:17027   */\n      tag_289\n        /* \"#utility.yul\":17020:17026   */\n      dup6\n        /* \"#utility.yul\":17013:17018   */\n      dup3\n        /* \"#utility.yul\":16960:17027   */\n      tag_121\n      jump\t// in\n    tag_289:\n        /* \"#utility.yul\":16954:16958   */\n      dup7\n        /* \"#utility.yul\":16947:17028   */\n      sstore\n        /* \"#utility.yul\":16816:17038   */\n      pop\n        /* \"#utility.yul\":16151:17038   */\n      jump(tag_286)\n        /* \"#utility.yul\":16181:16799   */\n    tag_287:\n        /* \"#utility.yul\":16233:16237   */\n      0x1f\n        /* \"#utility.yul\":16229:16238   */\n      not\n        /* \"#utility.yul\":16221:16227   */\n      dup5\n        /* \"#utility.yul\":16217:16239   */\n      and\n        /* \"#utility.yul\":16267:16304   */\n      tag_290\n        /* \"#utility.yul\":16299:16303   */\n      dup7\n        /* \"#utility.yul\":16267:16304   */\n      tag_107\n      jump\t// in\n    tag_290:\n        /* \"#utility.yul\":16326:16327   */\n      0x00\n        /* \"#utility.yul\":16340:16548   */\n    tag_291:\n        /* \"#utility.yul\":16354:16361   */\n      dup3\n        /* \"#utility.yul\":16351:16352   */\n      dup2\n        /* \"#utility.yul\":16348:16362   */\n      lt\n        /* \"#utility.yul\":16340:16548   */\n      iszero\n      tag_293\n      jumpi\n        /* \"#utility.yul\":16433:16442   */\n      dup5\n        /* \"#utility.yul\":16428:16431   */\n      dup10\n        /* \"#utility.yul\":16424:16443   */\n      add\n        /* \"#utility.yul\":16418:16444   */\n      mload\n        /* \"#utility.yul\":16410:16416   */\n      dup3\n        /* \"#utility.yul\":16403:16445   */\n      sstore\n        /* \"#utility.yul\":16484:16485   */\n      0x01\n        /* \"#utility.yul\":16476:16482   */\n      dup3\n        /* \"#utility.yul\":16472:16486   */\n      add\n        /* \"#utility.yul\":16462:16486   */\n      swap2\n      pop\n        /* \"#utility.yul\":16531:16533   */\n      0x20\n        /* \"#utility.yul\":16520:16529   */\n      dup6\n        /* \"#utility.yul\":16516:16534   */\n      add\n        /* \"#utility.yul\":16503:16534   */\n      swap5\n      pop\n        /* \"#utility.yul\":16377:16381   */\n      0x20\n        /* \"#utility.yul\":16374:16375   */\n      dup2\n        /* \"#utility.yul\":16370:16382   */\n      add\n        /* \"#utility.yul\":16365:16382   */\n      swap1\n      pop\n        /* \"#utility.yul\":16340:16548   */\n      jump(tag_291)\n    tag_293:\n        /* \"#utility.yul\":16576:16582   */\n      dup7\n        /* \"#utility.yul\":16567:16574   */\n      dup4\n        /* \"#utility.yul\":16564:16583   */\n      lt\n        /* \"#utility.yul\":16561:16740   */\n      iszero\n      tag_294\n      jumpi\n        /* \"#utility.yul\":16634:16643   */\n      dup5\n        /* \"#utility.yul\":16629:16632   */\n      dup10\n        /* \"#utility.yul\":16625:16644   */\n      add\n        /* \"#utility.yul\":16619:16645   */\n      mload\n        /* \"#utility.yul\":16677:16725   */\n      tag_295\n        /* \"#utility.yul\":16719:16723   */\n      0x1f\n        /* \"#utility.yul\":16711:16717   */\n      dup10\n        /* \"#utility.yul\":16707:16724   */\n      and\n        /* \"#utility.yul\":16696:16705   */\n      dup3\n        /* \"#utility.yul\":16677:16725   */\n      tag_120\n      jump\t// in\n    tag_295:\n        /* \"#utility.yul\":16669:16675   */\n      dup4\n        /* \"#utility.yul\":16662:16726   */\n      sstore\n        /* \"#utility.yul\":16584:16740   */\n      pop\n        /* \"#utility.yul\":16561:16740   */\n    tag_294:\n        /* \"#utility.yul\":16786:16787   */\n      0x01\n        /* \"#utility.yul\":16782:16783   */\n      0x02\n        /* \"#utility.yul\":16774:16780   */\n      dup9\n        /* \"#utility.yul\":16770:16784   */\n      mul\n        /* \"#utility.yul\":16766:16788   */\n      add\n        /* \"#utility.yul\":16760:16764   */\n      dup9\n        /* \"#utility.yul\":16753:16789   */\n      sstore\n        /* \"#utility.yul\":16188:16799   */\n      pop\n      pop\n      pop\n        /* \"#utility.yul\":16151:17038   */\n    tag_286:\n      pop\n        /* \"#utility.yul\":15741:17044   */\n      pop\n      pop\n      pop\n        /* \"#utility.yul\":15649:17044   */\n      pop\n      pop\n      jump\t// out\n        /* \"#utility.yul\":17050:17427   */\n    tag_122:\n        /* \"#utility.yul\":17138:17141   */\n      0x00\n        /* \"#utility.yul\":17166:17205   */\n      tag_297\n        /* \"#utility.yul\":17199:17204   */\n      dup3\n        /* \"#utility.yul\":17166:17205   */\n      tag_90\n      jump\t// in\n    tag_297:\n        /* \"#utility.yul\":17221:17292   */\n      tag_298\n        /* \"#utility.yul\":17285:17291   */\n      dup2\n        /* \"#utility.yul\":17280:17283   */\n      dup6\n        /* \"#utility.yul\":17221:17292   */\n      tag_101\n      jump\t// in\n    tag_298:\n        /* \"#utility.yul\":17214:17292   */\n      swap4\n      pop\n        /* \"#utility.yul\":17301:17366   */\n      tag_299\n        /* \"#utility.yul\":17359:17365   */\n      dup2\n        /* \"#utility.yul\":17354:17357   */\n      dup6\n        /* \"#utility.yul\":17347:17351   */\n      0x20\n        /* \"#utility.yul\":17340:17345   */\n      dup7\n        /* \"#utility.yul\":17336:17352   */\n      add\n        /* \"#utility.yul\":17301:17366   */\n      tag_92\n      jump\t// in\n    tag_299:\n        /* \"#utility.yul\":17391:17420   */\n      tag_300\n        /* \"#utility.yul\":17413:17419   */\n      dup2\n        /* \"#utility.yul\":17391:17420   */\n      tag_73\n      jump\t// in\n    tag_300:\n        /* \"#utility.yul\":17386:17389   */\n      dup5\n        /* \"#utility.yul\":17382:17421   */\n      add\n        /* \"#utility.yul\":17375:17421   */\n      swap2\n      pop\n        /* \"#utility.yul\":17142:17427   */\n      pop\n        /* \"#utility.yul\":17050:17427   */\n      swap3\n      swap2\n      pop\n      pop\n      jump\t// out\n        /* \"#utility.yul\":17433:17551   */\n    tag_123:\n        /* \"#utility.yul\":17520:17544   */\n      tag_302\n        /* \"#utility.yul\":17538:17543   */\n      dup2\n        /* \"#utility.yul\":17520:17544   */\n      tag_82\n      jump\t// in\n    tag_302:\n        /* \"#utility.yul\":17515:17518   */\n      dup3\n        /* \"#utility.yul\":17508:17545   */\n      mstore\n        /* \"#utility.yul\":17433:17551   */\n      pop\n      pop\n      jump\t// out\n        /* \"#utility.yul\":17557:17980   */\n    tag_43:\n        /* \"#utility.yul\":17698:17702   */\n      0x00\n        /* \"#utility.yul\":17736:17738   */\n      0x40\n        /* \"#utility.yul\":17725:17734   */\n      dup3\n        /* \"#utility.yul\":17721:17739   */\n      add\n        /* \"#utility.yul\":17713:17739   */\n      swap1\n      pop\n        /* \"#utility.yul\":17785:17794   */\n      dup2\n        /* \"#utility.yul\":17779:17783   */\n      dup2\n        /* \"#utility.yul\":17775:17795   */\n      sub\n        /* \"#utility.yul\":17771:17772   */\n      0x00\n        /* \"#utility.yul\":17760:17769   */\n      dup4\n        /* \"#utility.yul\":17756:17773   */\n      add\n        /* \"#utility.yul\":17749:17796   */\n      mstore\n        /* \"#utility.yul\":17813:17891   */\n      tag_304\n        /* \"#utility.yul\":17886:17890   */\n      dup2\n        /* \"#utility.yul\":17877:17883   */\n      dup6\n        /* \"#utility.yul\":17813:17891   */\n      tag_122\n      jump\t// in\n    tag_304:\n        /* \"#utility.yul\":17805:17891   */\n      swap1\n      pop\n        /* \"#utility.yul\":17901:17973   */\n      tag_305\n        /* \"#utility.yul\":17969:17971   */\n      0x20\n        /* \"#utility.yul\":17958:17967   */\n      dup4\n        /* \"#utility.yul\":17954:17972   */\n      add\n        /* \"#utility.yul\":17945:17951   */\n      dup5\n        /* \"#utility.yul\":17901:17973   */\n      tag_123\n      jump\t// in\n    tag_305:\n        /* \"#utility.yul\":17557:17980   */\n      swap4\n      swap3\n      pop\n      pop\n      pop\n      jump\t// out\n\n    auxdata: 0xa2646970667358221220c7261c18e5a94f7ddbea9ea6646815a1f0ebc610952b60d6cac65ce7e5c457ba64736f6c634300081a0033\n}\n",
				"bytecode": {
					"linkReferences": {},
					"object": "6080604052348015600e575f80fd5b506001805f3373ffffffffffffffffffffffffffffffffffffffff1673ffffffffffffffffffffffffffffffffffffffff1681526020019081526020015f205f6101000a81548160ff021916908315150217905550610fae806100705f395ff3fe608060405234801561000f575f80fd5b5060043610610055575f3560e01c80631e87ff31146100595780633602d1f81461007557806362d8da4414610091578063ac9a5e9a146100ad578063d4f50453146100dd575b5f80fd5b610073600480360381019061006e9190610806565b61010d565b005b61008f600480360381019061008a9190610904565b6102e5565b005b6100ab60048036038101906100a69190610904565b6103c5565b005b6100c760048036038101906100c29190610904565b6104a5565b6040516100d49190610949565b60405180910390f35b6100f760048036038101906100f29190610962565b6104c2565b6040516101049190610b52565b60405180910390f35b60015f3373ffffffffffffffffffffffffffffffffffffffff1673ffffffffffffffffffffffffffffffffffffffff1681526020019081526020015f205f9054906101000a900460ff16610196576040517f08c379a000000000000000000000000000000000000000000000000000000000815260040161018d90610bcc565b60405180910390fd5b5f60405180608001604052808481526020018381526020014281526020013373ffffffffffffffffffffffffffffffffffffffff1681525090505f846040516101df9190610c24565b908152602001604051809103902081908060018154018082558091505060019003905f5260205f2090600402015f909190919091505f820151815f0190816102279190610e34565b50602082015181600101908161023d9190610e34565b50604082015181600201556060820151816003015f6101000a81548173ffffffffffffffffffffffffffffffffffffffff021916908373ffffffffffffffffffffffffffffffffffffffff16021790555050508360405161029e9190610c24565b60405180910390207ffae90a7f8aa768b1e1703d1ba10d289bb92f5a4899b6511728734e1dc5d1af2b84336040516102d7929190610f4a565b60405180910390a250505050565b60015f3373ffffffffffffffffffffffffffffffffffffffff1673ffffffffffffffffffffffffffffffffffffffff1681526020019081526020015f205f9054906101000a900460ff1661036e576040517f08c379a000000000000000000000000000000000000000000000000000000000815260040161036590610bcc565b60405180910390fd5b6001805f8373ffffffffffffffffffffffffffffffffffffffff1673ffffffffffffffffffffffffffffffffffffffff1681526020019081526020015f205f6101000a81548160ff02191690831515021790555050565b60015f3373ffffffffffffffffffffffffffffffffffffffff1673ffffffffffffffffffffffffffffffffffffffff1681526020019081526020015f205f9054906101000a900460ff1661044e576040517f08c379a000000000000000000000000000000000000000000000000000000000815260040161044590610bcc565b60405180910390fd5b5f60015f8373ffffffffffffffffffffffffffffffffffffffff1673ffffffffffffffffffffffffffffffffffffffff1681526020019081526020015f205f6101000a81548160ff02191690831515021790555050565b6001602052805f5260405f205f915054906101000a900460ff1681565b60605f826040516104d39190610c24565b9081526020016040518091039020805480602002602001604051908101604052809291908181526020015f905b828210156106ae578382905f5260205f2090600402016040518060800160405290815f8201805461053090610c67565b80601f016020809104026020016040519081016040528092919081815260200182805461055c90610c67565b80156105a75780601f1061057e576101008083540402835291602001916105a7565b820191905f5260205f20905b81548152906001019060200180831161058a57829003601f168201915b505050505081526020016001820180546105c090610c67565b80601f01602080910402602001604051908101604052809291908181526020018280546105ec90610c67565b80156106375780601f1061060e57610100808354040283529160200191610637565b820191905f5260205f20905b81548152906001019060200180831161061a57829003601f168201915b5050505050815260200160028201548152602001600382015f9054906101000a900473ffffffffffffffffffffffffffffffffffffffff1673ffffffffffffffffffffffffffffffffffffffff1673ffffffffffffffffffffffffffffffffffffffff168152505081526020019060010190610500565b505050509050919050565b5f604051905090565b5f80fd5b5f80fd5b5f80fd5b5f80fd5b5f601f19601f8301169050919050565b7f4e487b71000000000000000000000000000000000000000000000000000000005f52604160045260245ffd5b610718826106d2565b810181811067ffffffffffffffff82111715610737576107366106e2565b5b80604052505050565b5f6107496106b9565b9050610755828261070f565b919050565b5f67ffffffffffffffff821115610774576107736106e2565b5b61077d826106d2565b9050602081019050919050565b828183375f83830152505050565b5f6107aa6107a58461075a565b610740565b9050828152602081018484840111156107c6576107c56106ce565b5b6107d184828561078a565b509392505050565b5f82601f8301126107ed576107ec6106ca565b5b81356107fd848260208601610798565b91505092915050565b5f805f6060848603121561081d5761081c6106c2565b5b5f84013567ffffffffffffffff81111561083a576108396106c6565b5b610846868287016107d9565b935050602084013567ffffffffffffffff811115610867576108666106c6565b5b610873868287016107d9565b925050604084013567ffffffffffffffff811115610894576108936106c6565b5b6108a0868287016107d9565b9150509250925092565b5f73ffffffffffffffffffffffffffffffffffffffff82169050919050565b5f6108d3826108aa565b9050919050565b6108e3816108c9565b81146108ed575f80fd5b50565b5f813590506108fe816108da565b92915050565b5f60208284031215610919576109186106c2565b5b5f610926848285016108f0565b91505092915050565b5f8115159050919050565b6109438161092f565b82525050565b5f60208201905061095c5f83018461093a565b92915050565b5f60208284031215610977576109766106c2565b5b5f82013567ffffffffffffffff811115610994576109936106c6565b5b6109a0848285016107d9565b91505092915050565b5f81519050919050565b5f82825260208201905092915050565b5f819050602082019050919050565b5f81519050919050565b5f82825260208201905092915050565b8281835e5f83830152505050565b5f610a04826109d2565b610a0e81856109dc565b9350610a1e8185602086016109ec565b610a27816106d2565b840191505092915050565b5f819050919050565b610a4481610a32565b82525050565b610a53816108c9565b82525050565b5f608083015f8301518482035f860152610a7382826109fa565b91505060208301518482036020860152610a8d82826109fa565b9150506040830151610aa26040860182610a3b565b506060830151610ab56060860182610a4a565b508091505092915050565b5f610acb8383610a59565b905092915050565b5f602082019050919050565b5f610ae9826109a9565b610af381856109b3565b935083602082028501610b05856109c3565b805f5b85811015610b405784840389528151610b218582610ac0565b9450610b2c83610ad3565b925060208a01995050600181019050610b08565b50829750879550505050505092915050565b5f6020820190508181035f830152610b6a8184610adf565b905092915050565b5f82825260208201905092915050565b7f4e6f7420617574686f72697a65640000000000000000000000000000000000005f82015250565b5f610bb6600e83610b72565b9150610bc182610b82565b602082019050919050565b5f6020820190508181035f830152610be381610baa565b9050919050565b5f81905092915050565b5f610bfe826109d2565b610c088185610bea565b9350610c188185602086016109ec565b80840191505092915050565b5f610c2f8284610bf4565b915081905092915050565b7f4e487b71000000000000000000000000000000000000000000000000000000005f52602260045260245ffd5b5f6002820490506001821680610c7e57607f821691505b602082108103610c9157610c90610c3a565b5b50919050565b5f819050815f5260205f209050919050565b5f6020601f8301049050919050565b5f82821b905092915050565b5f60088302610cf37fffffffffffffffffffffffffffffffffffffffffffffffffffffffffffffffff82610cb8565b610cfd8683610cb8565b95508019841693508086168417925050509392505050565b5f819050919050565b5f610d38610d33610d2e84610a32565b610d15565b610a32565b9050919050565b5f819050919050565b610d5183610d1e565b610d65610d5d82610d3f565b848454610cc4565b825550505050565b5f90565b610d79610d6d565b610d84818484610d48565b505050565b5b81811015610da757610d9c5f82610d71565b600181019050610d8a565b5050565b601f821115610dec57610dbd81610c97565b610dc684610ca9565b81016020851015610dd5578190505b610de9610de185610ca9565b830182610d89565b50505b505050565b5f82821c905092915050565b5f610e0c5f1984600802610df1565b1980831691505092915050565b5f610e248383610dfd565b9150826002028217905092915050565b610e3d826109d2565b67ffffffffffffffff811115610e5657610e556106e2565b5b610e608254610c67565b610e6b828285610dab565b5f60209050601f831160018114610e9c575f8415610e8a578287015190505b610e948582610e19565b865550610efb565b601f198416610eaa86610c97565b5f5b82811015610ed157848901518255600182019150602085019450602081019050610eac565b86831015610eee5784890151610eea601f891682610dfd565b8355505b6001600288020188555050505b505050505050565b5f610f0d826109d2565b610f178185610b72565b9350610f278185602086016109ec565b610f30816106d2565b840191505092915050565b610f44816108c9565b82525050565b5f6040820190508181035f830152610f628185610f03565b9050610f716020830184610f3b565b939250505056fea2646970667358221220c7261c18e5a94f7ddbea9ea6646815a1f0ebc610952b60d6cac65ce7e5c457ba64736f6c634300081a0033",
					"opcodes": "PUSH1 0x80 PUSH1 0x40 MSTORE CALLVALUE DUP1 ISZERO PUSH1 0xE JUMPI PUSH0 DUP1 REVERT JUMPDEST POP PUSH1 0x1 DUP1 PUSH0 CALLER PUSH20 0xFFFFFFFFFFFFFFFFFFFFFFFFFFFFFFFFFFFFFFFF AND PUSH20 0xFFFFFFFFFFFFFFFFFFFFFFFFFFFFFFFFFFFFFFFF AND DUP2 MSTORE PUSH1 0x20 ADD SWAP1 DUP2 MSTORE PUSH1 0x20 ADD PUSH0 KECCAK256 PUSH0 PUSH2 0x100 EXP DUP2 SLOAD DUP2 PUSH1 0xFF MUL NOT AND SWAP1 DUP4 ISZERO ISZERO MUL OR SWAP1 SSTORE POP PUSH2 0xFAE DUP1 PUSH2 0x70 PUSH0 CODECOPY PUSH0 RETURN INVALID PUSH1 0x80 PUSH1 0x40 MSTORE CALLVALUE DUP1 ISZERO PUSH2 0xF JUMPI PUSH0 DUP1 REVERT JUMPDEST POP PUSH1 0x4 CALLDATASIZE LT PUSH2 0x55 JUMPI PUSH0 CALLDATALOAD PUSH1 0xE0 SHR DUP1 PUSH4 0x1E87FF31 EQ PUSH2 0x59 JUMPI DUP1 PUSH4 0x3602D1F8 EQ PUSH2 0x75 JUMPI DUP1 PUSH4 0x62D8DA44 EQ PUSH2 0x91 JUMPI DUP1 PUSH4 0xAC9A5E9A EQ PUSH2 0xAD JUMPI DUP1 PUSH4 0xD4F50453 EQ PUSH2 0xDD JUMPI JUMPDEST PUSH0 DUP1 REVERT JUMPDEST PUSH2 0x73 PUSH1 0x4 DUP1 CALLDATASIZE SUB DUP2 ADD SWAP1 PUSH2 0x6E SWAP2 SWAP1 PUSH2 0x806 JUMP JUMPDEST PUSH2 0x10D JUMP JUMPDEST STOP JUMPDEST PUSH2 0x8F PUSH1 0x4 DUP1 CALLDATASIZE SUB DUP2 ADD SWAP1 PUSH2 0x8A SWAP2 SWAP1 PUSH2 0x904 JUMP JUMPDEST PUSH2 0x2E5 JUMP JUMPDEST STOP JUMPDEST PUSH2 0xAB PUSH1 0x4 DUP1 CALLDATASIZE SUB DUP2 ADD SWAP1 PUSH2 0xA6 SWAP2 SWAP1 PUSH2 0x904 JUMP JUMPDEST PUSH2 0x3C5 JUMP JUMPDEST STOP JUMPDEST PUSH2 0xC7 PUSH1 0x4 DUP1 CALLDATASIZE SUB DUP2 ADD SWAP1 PUSH2 0xC2 SWAP2 SWAP1 PUSH2 0x904 JUMP JUMPDEST PUSH2 0x4A5 JUMP JUMPDEST PUSH1 0x40 MLOAD PUSH2 0xD4 SWAP2 SWAP1 PUSH2 0x949 JUMP JUMPDEST PUSH1 0x40 MLOAD DUP1 SWAP2 SUB SWAP1 RETURN JUMPDEST PUSH2 0xF7 PUSH1 0x4 DUP1 CALLDATASIZE SUB DUP2 ADD SWAP1 PUSH2 0xF2 SWAP2 SWAP1 PUSH2 0x962 JUMP JUMPDEST PUSH2 0x4C2 JUMP JUMPDEST PUSH1 0x40 MLOAD PUSH2 0x104 SWAP2 SWAP1 PUSH2 0xB52 JUMP JUMPDEST PUSH1 0x40 MLOAD DUP1 SWAP2 SUB SWAP1 RETURN JUMPDEST PUSH1 0x1 PUSH0 CALLER PUSH20 0xFFFFFFFFFFFFFFFFFFFFFFFFFFFFFFFFFFFFFFFF AND PUSH20 0xFFFFFFFFFFFFFFFFFFFFFFFFFFFFFFFFFFFFFFFF AND DUP2 MSTORE PUSH1 0x20 ADD SWAP1 DUP2 MSTORE PUSH1 0x20 ADD PUSH0 KECCAK256 PUSH0 SWAP1 SLOAD SWAP1 PUSH2 0x100 EXP SWAP1 DIV PUSH1 0xFF AND PUSH2 0x196 JUMPI PUSH1 0x40 MLOAD PUSH32 0x8C379A000000000000000000000000000000000000000000000000000000000 DUP2 MSTORE PUSH1 0x4 ADD PUSH2 0x18D SWAP1 PUSH2 0xBCC JUMP JUMPDEST PUSH1 0x40 MLOAD DUP1 SWAP2 SUB SWAP1 REVERT JUMPDEST PUSH0 PUSH1 0x40 MLOAD DUP1 PUSH1 0x80 ADD PUSH1 0x40 MSTORE DUP1 DUP5 DUP2 MSTORE PUSH1 0x20 ADD DUP4 DUP2 MSTORE PUSH1 0x20 ADD TIMESTAMP DUP2 MSTORE PUSH1 0x20 ADD CALLER PUSH20 0xFFFFFFFFFFFFFFFFFFFFFFFFFFFFFFFFFFFFFFFF AND DUP2 MSTORE POP SWAP1 POP PUSH0 DUP5 PUSH1 0x40 MLOAD PUSH2 0x1DF SWAP2 SWAP1 PUSH2 0xC24 JUMP JUMPDEST SWAP1 DUP2 MSTORE PUSH1 0x20 ADD PUSH1 0x40 MLOAD DUP1 SWAP2 SUB SWAP1 KECCAK256 DUP2 SWAP1 DUP1 PUSH1 0x1 DUP2 SLOAD ADD DUP1 DUP3 SSTORE DUP1 SWAP2 POP POP PUSH1 0x1 SWAP1 SUB SWAP1 PUSH0 MSTORE PUSH1 0x20 PUSH0 KECCAK256 SWAP1 PUSH1 0x4 MUL ADD PUSH0 SWAP1 SWAP2 SWAP1 SWAP2 SWAP1 SWAP2 POP PUSH0 DUP3 ADD MLOAD DUP2 PUSH0 ADD SWAP1 DUP2 PUSH2 0x227 SWAP2 SWAP1 PUSH2 0xE34 JUMP JUMPDEST POP PUSH1 0x20 DUP3 ADD MLOAD DUP2 PUSH1 0x1 ADD SWAP1 DUP2 PUSH2 0x23D SWAP2 SWAP1 PUSH2 0xE34 JUMP JUMPDEST POP PUSH1 0x40 DUP3 ADD MLOAD DUP2 PUSH1 0x2 ADD SSTORE PUSH1 0x60 DUP3 ADD MLOAD DUP2 PUSH1 0x3 ADD PUSH0 PUSH2 0x100 EXP DUP2 SLOAD DUP2 PUSH20 0xFFFFFFFFFFFFFFFFFFFFFFFFFFFFFFFFFFFFFFFF MUL NOT AND SWAP1 DUP4 PUSH20 0xFFFFFFFFFFFFFFFFFFFFFFFFFFFFFFFFFFFFFFFF AND MUL OR SWAP1 SSTORE POP POP POP DUP4 PUSH1 0x40 MLOAD PUSH2 0x29E SWAP2 SWAP1 PUSH2 0xC24 JUMP JUMPDEST PUSH1 0x40 MLOAD DUP1 SWAP2 SUB SWAP1 KECCAK256 PUSH32 0xFAE90A7F8AA768B1E1703D1BA10D289BB92F5A4899B6511728734E1DC5D1AF2B DUP5 CALLER PUSH1 0x40 MLOAD PUSH2 0x2D7 SWAP3 SWAP2 SWAP1 PUSH2 0xF4A JUMP JUMPDEST PUSH1 0x40 MLOAD DUP1 SWAP2 SUB SWAP1 LOG2 POP POP POP POP JUMP JUMPDEST PUSH1 0x1 PUSH0 CALLER PUSH20 0xFFFFFFFFFFFFFFFFFFFFFFFFFFFFFFFFFFFFFFFF AND PUSH20 0xFFFFFFFFFFFFFFFFFFFFFFFFFFFFFFFFFFFFFFFF AND DUP2 MSTORE PUSH1 0x20 ADD SWAP1 DUP2 MSTORE PUSH1 0x20 ADD PUSH0 KECCAK256 PUSH0 SWAP1 SLOAD SWAP1 PUSH2 0x100 EXP SWAP1 DIV PUSH1 0xFF AND PUSH2 0x36E JUMPI PUSH1 0x40 MLOAD PUSH32 0x8C379A000000000000000000000000000000000000000000000000000000000 DUP2 MSTORE PUSH1 0x4 ADD PUSH2 0x365 SWAP1 PUSH2 0xBCC JUMP JUMPDEST PUSH1 0x40 MLOAD DUP1 SWAP2 SUB SWAP1 REVERT JUMPDEST PUSH1 0x1 DUP1 PUSH0 DUP4 PUSH20 0xFFFFFFFFFFFFFFFFFFFFFFFFFFFFFFFFFFFFFFFF AND PUSH20 0xFFFFFFFFFFFFFFFFFFFFFFFFFFFFFFFFFFFFFFFF AND DUP2 MSTORE PUSH1 0x20 ADD SWAP1 DUP2 MSTORE PUSH1 0x20 ADD PUSH0 KECCAK256 PUSH0 PUSH2 0x100 EXP DUP2 SLOAD DUP2 PUSH1 0xFF MUL NOT AND SWAP1 DUP4 ISZERO ISZERO MUL OR SWAP1 SSTORE POP POP JUMP JUMPDEST PUSH1 0x1 PUSH0 CALLER PUSH20 0xFFFFFFFFFFFFFFFFFFFFFFFFFFFFFFFFFFFFFFFF AND PUSH20 0xFFFFFFFFFFFFFFFFFFFFFFFFFFFFFFFFFFFFFFFF AND DUP2 MSTORE PUSH1 0x20 ADD SWAP1 DUP2 MSTORE PUSH1 0x20 ADD PUSH0 KECCAK256 PUSH0 SWAP1 SLOAD SWAP1 PUSH2 0x100 EXP SWAP1 DIV PUSH1 0xFF AND PUSH2 0x44E JUMPI PUSH1 0x40 MLOAD PUSH32 0x8C379A000000000000000000000000000000000000000000000000000000000 DUP2 MSTORE PUSH1 0x4 ADD PUSH2 0x445 SWAP1 PUSH2 0xBCC JUMP JUMPDEST PUSH1 0x40 MLOAD DUP1 SWAP2 SUB SWAP1 REVERT JUMPDEST PUSH0 PUSH1 0x1 PUSH0 DUP4 PUSH20 0xFFFFFFFFFFFFFFFFFFFFFFFFFFFFFFFFFFFFFFFF AND PUSH20 0xFFFFFFFFFFFFFFFFFFFFFFFFFFFFFFFFFFFFFFFF AND DUP2 MSTORE PUSH1 0x20 ADD SWAP1 DUP2 MSTORE PUSH1 0x20 ADD PUSH0 KECCAK256 PUSH0 PUSH2 0x100 EXP DUP2 SLOAD DUP2 PUSH1 0xFF MUL NOT AND SWAP1 DUP4 ISZERO ISZERO MUL OR SWAP1 SSTORE POP POP JUMP JUMPDEST PUSH1 0x1 PUSH1 0x20 MSTORE DUP1 PUSH0 MSTORE PUSH1 0x40 PUSH0 KECCAK256 PUSH0 SWAP2 POP SLOAD SWAP1 PUSH2 0x100 EXP SWAP1 DIV PUSH1 0xFF AND DUP2 JUMP JUMPDEST PUSH1 0x60 PUSH0 DUP3 PUSH1 0x40 MLOAD PUSH2 0x4D3 SWAP2 SWAP1 PUSH2 0xC24 JUMP JUMPDEST SWAP1 DUP2 MSTORE PUSH1 0x20 ADD PUSH1 0x40 MLOAD DUP1 SWAP2 SUB SWAP1 KECCAK256 DUP1 SLOAD DUP1 PUSH1 0x20 MUL PUSH1 0x20 ADD PUSH1 0x40 MLOAD SWAP1 DUP2 ADD PUSH1 0x40 MSTORE DUP1 SWAP3 SWAP2 SWAP1 DUP2 DUP2 MSTORE PUSH1 0x20 ADD PUSH0 SWAP1 JUMPDEST DUP3 DUP3 LT ISZERO PUSH2 0x6AE JUMPI DUP4 DUP3 SWAP1 PUSH0 MSTORE PUSH1 0x20 PUSH0 KECCAK256 SWAP1 PUSH1 0x4 MUL ADD PUSH1 0x40 MLOAD DUP1 PUSH1 0x80 ADD PUSH1 0x40 MSTORE SWAP1 DUP2 PUSH0 DUP3 ADD DUP1 SLOAD PUSH2 0x530 SWAP1 PUSH2 0xC67 JUMP JUMPDEST DUP1 PUSH1 0x1F ADD PUSH1 0x20 DUP1 SWAP2 DIV MUL PUSH1 0x20 ADD PUSH1 0x40 MLOAD SWAP1 DUP2 ADD PUSH1 0x40 MSTORE DUP1 SWAP3 SWAP2 SWAP1 DUP2 DUP2 MSTORE PUSH1 0x20 ADD DUP3 DUP1 SLOAD PUSH2 0x55C SWAP1 PUSH2 0xC67 JUMP JUMPDEST DUP1 ISZERO PUSH2 0x5A7 JUMPI DUP1 PUSH1 0x1F LT PUSH2 0x57E JUMPI PUSH2 0x100 DUP1 DUP4 SLOAD DIV MUL DUP4 MSTORE SWAP2 PUSH1 0x20 ADD SWAP2 PUSH2 0x5A7 JUMP JUMPDEST DUP3 ADD SWAP2 SWAP1 PUSH0 MSTORE PUSH1 0x20 PUSH0 KECCAK256 SWAP1 JUMPDEST DUP2 SLOAD DUP2 MSTORE SWAP1 PUSH1 0x1 ADD SWAP1 PUSH1 0x20 ADD DUP1 DUP4 GT PUSH2 0x58A JUMPI DUP3 SWAP1 SUB PUSH1 0x1F AND DUP3 ADD SWAP2 JUMPDEST POP POP POP POP POP DUP2 MSTORE PUSH1 0x20 ADD PUSH1 0x1 DUP3 ADD DUP1 SLOAD PUSH2 0x5C0 SWAP1 PUSH2 0xC67 JUMP JUMPDEST DUP1 PUSH1 0x1F ADD PUSH1 0x20 DUP1 SWAP2 DIV MUL PUSH1 0x20 ADD PUSH1 0x40 MLOAD SWAP1 DUP2 ADD PUSH1 0x40 MSTORE DUP1 SWAP3 SWAP2 SWAP1 DUP2 DUP2 MSTORE PUSH1 0x20 ADD DUP3 DUP1 SLOAD PUSH2 0x5EC SWAP1 PUSH2 0xC67 JUMP JUMPDEST DUP1 ISZERO PUSH2 0x637 JUMPI DUP1 PUSH1 0x1F LT PUSH2 0x60E JUMPI PUSH2 0x100 DUP1 DUP4 SLOAD DIV MUL DUP4 MSTORE SWAP2 PUSH1 0x20 ADD SWAP2 PUSH2 0x637 JUMP JUMPDEST DUP3 ADD SWAP2 SWAP1 PUSH0 MSTORE PUSH1 0x20 PUSH0 KECCAK256 SWAP1 JUMPDEST DUP2 SLOAD DUP2 MSTORE SWAP1 PUSH1 0x1 ADD SWAP1 PUSH1 0x20 ADD DUP1 DUP4 GT PUSH2 0x61A JUMPI DUP3 SWAP1 SUB PUSH1 0x1F AND DUP3 ADD SWAP2 JUMPDEST POP POP POP POP POP DUP2 MSTORE PUSH1 0x20 ADD PUSH1 0x2 DUP3 ADD SLOAD DUP2 MSTORE PUSH1 0x20 ADD PUSH1 0x3 DUP3 ADD PUSH0 SWAP1 SLOAD SWAP1 PUSH2 0x100 EXP SWAP1 DIV PUSH20 0xFFFFFFFFFFFFFFFFFFFFFFFFFFFFFFFFFFFFFFFF AND PUSH20 0xFFFFFFFFFFFFFFFFFFFFFFFFFFFFFFFFFFFFFFFF AND PUSH20 0xFFFFFFFFFFFFFFFFFFFFFFFFFFFFFFFFFFFFFFFF AND DUP2 MSTORE POP POP DUP2 MSTORE PUSH1 0x20 ADD SWAP1 PUSH1 0x1 ADD SWAP1 PUSH2 0x500 JUMP JUMPDEST POP POP POP POP SWAP1 POP SWAP2 SWAP1 POP JUMP JUMPDEST PUSH0 PUSH1 0x40 MLOAD SWAP1 POP SWAP1 JUMP JUMPDEST PUSH0 DUP1 REVERT JUMPDEST PUSH0 DUP1 REVERT JUMPDEST PUSH0 DUP1 REVERT JUMPDEST PUSH0 DUP1 REVERT JUMPDEST PUSH0 PUSH1 0x1F NOT PUSH1 0x1F DUP4 ADD AND SWAP1 POP SWAP2 SWAP1 POP JUMP JUMPDEST PUSH32 0x4E487B7100000000000000000000000000000000000000000000000000000000 PUSH0 MSTORE PUSH1 0x41 PUSH1 0x4 MSTORE PUSH1 0x24 PUSH0 REVERT JUMPDEST PUSH2 0x718 DUP3 PUSH2 0x6D2 JUMP JUMPDEST DUP2 ADD DUP2 DUP2 LT PUSH8 0xFFFFFFFFFFFFFFFF DUP3 GT OR ISZERO PUSH2 0x737 JUMPI PUSH2 0x736 PUSH2 0x6E2 JUMP JUMPDEST JUMPDEST DUP1 PUSH1 0x40 MSTORE POP POP POP JUMP JUMPDEST PUSH0 PUSH2 0x749 PUSH2 0x6B9 JUMP JUMPDEST SWAP1 POP PUSH2 0x755 DUP3 DUP3 PUSH2 0x70F JUMP JUMPDEST SWAP2 SWAP1 POP JUMP JUMPDEST PUSH0 PUSH8 0xFFFFFFFFFFFFFFFF DUP3 GT ISZERO PUSH2 0x774 JUMPI PUSH2 0x773 PUSH2 0x6E2 JUMP JUMPDEST JUMPDEST PUSH2 0x77D DUP3 PUSH2 0x6D2 JUMP JUMPDEST SWAP1 POP PUSH1 0x20 DUP2 ADD SWAP1 POP SWAP2 SWAP1 POP JUMP JUMPDEST DUP3 DUP2 DUP4 CALLDATACOPY PUSH0 DUP4 DUP4 ADD MSTORE POP POP POP JUMP JUMPDEST PUSH0 PUSH2 0x7AA PUSH2 0x7A5 DUP5 PUSH2 0x75A JUMP JUMPDEST PUSH2 0x740 JUMP JUMPDEST SWAP1 POP DUP3 DUP2 MSTORE PUSH1 0x20 DUP2 ADD DUP5 DUP5 DUP5 ADD GT ISZERO PUSH2 0x7C6 JUMPI PUSH2 0x7C5 PUSH2 0x6CE JUMP JUMPDEST JUMPDEST PUSH2 0x7D1 DUP5 DUP3 DUP6 PUSH2 0x78A JUMP JUMPDEST POP SWAP4 SWAP3 POP POP POP JUMP JUMPDEST PUSH0 DUP3 PUSH1 0x1F DUP4 ADD SLT PUSH2 0x7ED JUMPI PUSH2 0x7EC PUSH2 0x6CA JUMP JUMPDEST JUMPDEST DUP2 CALLDATALOAD PUSH2 0x7FD DUP5 DUP3 PUSH1 0x20 DUP7 ADD PUSH2 0x798 JUMP JUMPDEST SWAP2 POP POP SWAP3 SWAP2 POP POP JUMP JUMPDEST PUSH0 DUP1 PUSH0 PUSH1 0x60 DUP5 DUP7 SUB SLT ISZERO PUSH2 0x81D JUMPI PUSH2 0x81C PUSH2 0x6C2 JUMP JUMPDEST JUMPDEST PUSH0 DUP5 ADD CALLDATALOAD PUSH8 0xFFFFFFFFFFFFFFFF DUP2 GT ISZERO PUSH2 0x83A JUMPI PUSH2 0x839 PUSH2 0x6C6 JUMP JUMPDEST JUMPDEST PUSH2 0x846 DUP7 DUP3 DUP8 ADD PUSH2 0x7D9 JUMP JUMPDEST SWAP4 POP POP PUSH1 0x20 DUP5 ADD CALLDATALOAD PUSH8 0xFFFFFFFFFFFFFFFF DUP2 GT ISZERO PUSH2 0x867 JUMPI PUSH2 0x866 PUSH2 0x6C6 JUMP JUMPDEST JUMPDEST PUSH2 0x873 DUP7 DUP3 DUP8 ADD PUSH2 0x7D9 JUMP JUMPDEST SWAP3 POP POP PUSH1 0x40 DUP5 ADD CALLDATALOAD PUSH8 0xFFFFFFFFFFFFFFFF DUP2 GT ISZERO PUSH2 0x894 JUMPI PUSH2 0x893 PUSH2 0x6C6 JUMP JUMPDEST JUMPDEST PUSH2 0x8A0 DUP7 DUP3 DUP8 ADD PUSH2 0x7D9 JUMP JUMPDEST SWAP2 POP POP SWAP3 POP SWAP3 POP SWAP3 JUMP JUMPDEST PUSH0 PUSH20 0xFFFFFFFFFFFFFFFFFFFFFFFFFFFFFFFFFFFFFFFF DUP3 AND SWAP1 POP SWAP2 SWAP1 POP JUMP JUMPDEST PUSH0 PUSH2 0x8D3 DUP3 PUSH2 0x8AA JUMP JUMPDEST SWAP1 POP SWAP2 SWAP1 POP JUMP JUMPDEST PUSH2 0x8E3 DUP2 PUSH2 0x8C9 JUMP JUMPDEST DUP2 EQ PUSH2 0x8ED JUMPI PUSH0 DUP1 REVERT JUMPDEST POP JUMP JUMPDEST PUSH0 DUP2 CALLDATALOAD SWAP1 POP PUSH2 0x8FE DUP2 PUSH2 0x8DA JUMP JUMPDEST SWAP3 SWAP2 POP POP JUMP JUMPDEST PUSH0 PUSH1 0x20 DUP3 DUP5 SUB SLT ISZERO PUSH2 0x919 JUMPI PUSH2 0x918 PUSH2 0x6C2 JUMP JUMPDEST JUMPDEST PUSH0 PUSH2 0x926 DUP5 DUP3 DUP6 ADD PUSH2 0x8F0 JUMP JUMPDEST SWAP2 POP POP SWAP3 SWAP2 POP POP JUMP JUMPDEST PUSH0 DUP2 ISZERO ISZERO SWAP1 POP SWAP2 SWAP1 POP JUMP JUMPDEST PUSH2 0x943 DUP2 PUSH2 0x92F JUMP JUMPDEST DUP3 MSTORE POP POP JUMP JUMPDEST PUSH0 PUSH1 0x20 DUP3 ADD SWAP1 POP PUSH2 0x95C PUSH0 DUP4 ADD DUP5 PUSH2 0x93A JUMP JUMPDEST SWAP3 SWAP2 POP POP JUMP JUMPDEST PUSH0 PUSH1 0x20 DUP3 DUP5 SUB SLT ISZERO PUSH2 0x977 JUMPI PUSH2 0x976 PUSH2 0x6C2 JUMP JUMPDEST JUMPDEST PUSH0 DUP3 ADD CALLDATALOAD PUSH8 0xFFFFFFFFFFFFFFFF DUP2 GT ISZERO PUSH2 0x994 JUMPI PUSH2 0x993 PUSH2 0x6C6 JUMP JUMPDEST JUMPDEST PUSH2 0x9A0 DUP5 DUP3 DUP6 ADD PUSH2 0x7D9 JUMP JUMPDEST SWAP2 POP POP SWAP3 SWAP2 POP POP JUMP JUMPDEST PUSH0 DUP2 MLOAD SWAP1 POP SWAP2 SWAP1 POP JUMP JUMPDEST PUSH0 DUP3 DUP3 MSTORE PUSH1 0x20 DUP3 ADD SWAP1 POP SWAP3 SWAP2 POP POP JUMP JUMPDEST PUSH0 DUP2 SWAP1 POP PUSH1 0x20 DUP3 ADD SWAP1 POP SWAP2 SWAP1 POP JUMP JUMPDEST PUSH0 DUP2 MLOAD SWAP1 POP SWAP2 SWAP1 POP JUMP JUMPDEST PUSH0 DUP3 DUP3 MSTORE PUSH1 0x20 DUP3 ADD SWAP1 POP SWAP3 SWAP2 POP POP JUMP JUMPDEST DUP3 DUP2 DUP4 MCOPY PUSH0 DUP4 DUP4 ADD MSTORE POP POP POP JUMP JUMPDEST PUSH0 PUSH2 0xA04 DUP3 PUSH2 0x9D2 JUMP JUMPDEST PUSH2 0xA0E DUP2 DUP6 PUSH2 0x9DC JUMP JUMPDEST SWAP4 POP PUSH2 0xA1E DUP2 DUP6 PUSH1 0x20 DUP7 ADD PUSH2 0x9EC JUMP JUMPDEST PUSH2 0xA27 DUP2 PUSH2 0x6D2 JUMP JUMPDEST DUP5 ADD SWAP2 POP POP SWAP3 SWAP2 POP POP JUMP JUMPDEST PUSH0 DUP2 SWAP1 POP SWAP2 SWAP1 POP JUMP JUMPDEST PUSH2 0xA44 DUP2 PUSH2 0xA32 JUMP JUMPDEST DUP3 MSTORE POP POP JUMP JUMPDEST PUSH2 0xA53 DUP2 PUSH2 0x8C9 JUMP JUMPDEST DUP3 MSTORE POP POP JUMP JUMPDEST PUSH0 PUSH1 0x80 DUP4 ADD PUSH0 DUP4 ADD MLOAD DUP5 DUP3 SUB PUSH0 DUP7 ADD MSTORE PUSH2 0xA73 DUP3 DUP3 PUSH2 0x9FA JUMP JUMPDEST SWAP2 POP POP PUSH1 0x20 DUP4 ADD MLOAD DUP5 DUP3 SUB PUSH1 0x20 DUP7 ADD MSTORE PUSH2 0xA8D DUP3 DUP3 PUSH2 0x9FA JUMP JUMPDEST SWAP2 POP POP PUSH1 0x40 DUP4 ADD MLOAD PUSH2 0xAA2 PUSH1 0x40 DUP7 ADD DUP3 PUSH2 0xA3B JUMP JUMPDEST POP PUSH1 0x60 DUP4 ADD MLOAD PUSH2 0xAB5 PUSH1 0x60 DUP7 ADD DUP3 PUSH2 0xA4A JUMP JUMPDEST POP DUP1 SWAP2 POP POP SWAP3 SWAP2 POP POP JUMP JUMPDEST PUSH0 PUSH2 0xACB DUP4 DUP4 PUSH2 0xA59 JUMP JUMPDEST SWAP1 POP SWAP3 SWAP2 POP POP JUMP JUMPDEST PUSH0 PUSH1 0x20 DUP3 ADD SWAP1 POP SWAP2 SWAP1 POP JUMP JUMPDEST PUSH0 PUSH2 0xAE9 DUP3 PUSH2 0x9A9 JUMP JUMPDEST PUSH2 0xAF3 DUP2 DUP6 PUSH2 0x9B3 JUMP JUMPDEST SWAP4 POP DUP4 PUSH1 0x20 DUP3 MUL DUP6 ADD PUSH2 0xB05 DUP6 PUSH2 0x9C3 JUMP JUMPDEST DUP1 PUSH0 JUMPDEST DUP6 DUP2 LT ISZERO PUSH2 0xB40 JUMPI DUP5 DUP5 SUB DUP10 MSTORE DUP2 MLOAD PUSH2 0xB21 DUP6 DUP3 PUSH2 0xAC0 JUMP JUMPDEST SWAP5 POP PUSH2 0xB2C DUP4 PUSH2 0xAD3 JUMP JUMPDEST SWAP3 POP PUSH1 0x20 DUP11 ADD SWAP10 POP POP PUSH1 0x1 DUP2 ADD SWAP1 POP PUSH2 0xB08 JUMP JUMPDEST POP DUP3 SWAP8 POP DUP8 SWAP6 POP POP POP POP POP POP SWAP3 SWAP2 POP POP JUMP JUMPDEST PUSH0 PUSH1 0x20 DUP3 ADD SWAP1 POP DUP2 DUP2 SUB PUSH0 DUP4 ADD MSTORE PUSH2 0xB6A DUP2 DUP5 PUSH2 0xADF JUMP JUMPDEST SWAP1 POP SWAP3 SWAP2 POP POP JUMP JUMPDEST PUSH0 DUP3 DUP3 MSTORE PUSH1 0x20 DUP3 ADD SWAP1 POP SWAP3 SWAP2 POP POP JUMP JUMPDEST PUSH32 0x4E6F7420617574686F72697A6564000000000000000000000000000000000000 PUSH0 DUP3 ADD MSTORE POP JUMP JUMPDEST PUSH0 PUSH2 0xBB6 PUSH1 0xE DUP4 PUSH2 0xB72 JUMP JUMPDEST SWAP2 POP PUSH2 0xBC1 DUP3 PUSH2 0xB82 JUMP JUMPDEST PUSH1 0x20 DUP3 ADD SWAP1 POP SWAP2 SWAP1 POP JUMP JUMPDEST PUSH0 PUSH1 0x20 DUP3 ADD SWAP1 POP DUP2 DUP2 SUB PUSH0 DUP4 ADD MSTORE PUSH2 0xBE3 DUP2 PUSH2 0xBAA JUMP JUMPDEST SWAP1 POP SWAP2 SWAP1 POP JUMP JUMPDEST PUSH0 DUP2 SWAP1 POP SWAP3 SWAP2 POP POP JUMP JUMPDEST PUSH0 PUSH2 0xBFE DUP3 PUSH2 0x9D2 JUMP JUMPDEST PUSH2 0xC08 DUP2 DUP6 PUSH2 0xBEA JUMP JUMPDEST SWAP4 POP PUSH2 0xC18 DUP2 DUP6 PUSH1 0x20 DUP7 ADD PUSH2 0x9EC JUMP JUMPDEST DUP1 DUP5 ADD SWAP2 POP POP SWAP3 SWAP2 POP POP JUMP JUMPDEST PUSH0 PUSH2 0xC2F DUP3 DUP5 PUSH2 0xBF4 JUMP JUMPDEST SWAP2 POP DUP2 SWAP1 POP SWAP3 SWAP2 POP POP JUMP JUMPDEST PUSH32 0x4E487B7100000000000000000000000000000000000000000000000000000000 PUSH0 MSTORE PUSH1 0x22 PUSH1 0x4 MSTORE PUSH1 0x24 PUSH0 REVERT JUMPDEST PUSH0 PUSH1 0x2 DUP3 DIV SWAP1 POP PUSH1 0x1 DUP3 AND DUP1 PUSH2 0xC7E JUMPI PUSH1 0x7F DUP3 AND SWAP2 POP JUMPDEST PUSH1 0x20 DUP3 LT DUP2 SUB PUSH2 0xC91 JUMPI PUSH2 0xC90 PUSH2 0xC3A JUMP JUMPDEST JUMPDEST POP SWAP2 SWAP1 POP JUMP JUMPDEST PUSH0 DUP2 SWAP1 POP DUP2 PUSH0 MSTORE PUSH1 0x20 PUSH0 KECCAK256 SWAP1 POP SWAP2 SWAP1 POP JUMP JUMPDEST PUSH0 PUSH1 0x20 PUSH1 0x1F DUP4 ADD DIV SWAP1 POP SWAP2 SWAP1 POP JUMP JUMPDEST PUSH0 DUP3 DUP3 SHL SWAP1 POP SWAP3 SWAP2 POP POP JUMP JUMPDEST PUSH0 PUSH1 0x8 DUP4 MUL PUSH2 0xCF3 PUSH32 0xFFFFFFFFFFFFFFFFFFFFFFFFFFFFFFFFFFFFFFFFFFFFFFFFFFFFFFFFFFFFFFFF DUP3 PUSH2 0xCB8 JUMP JUMPDEST PUSH2 0xCFD DUP7 DUP4 PUSH2 0xCB8 JUMP JUMPDEST SWAP6 POP DUP1 NOT DUP5 AND SWAP4 POP DUP1 DUP7 AND DUP5 OR SWAP3 POP POP POP SWAP4 SWAP3 POP POP POP JUMP JUMPDEST PUSH0 DUP2 SWAP1 POP SWAP2 SWAP1 POP JUMP JUMPDEST PUSH0 PUSH2 0xD38 PUSH2 0xD33 PUSH2 0xD2E DUP5 PUSH2 0xA32 JUMP JUMPDEST PUSH2 0xD15 JUMP JUMPDEST PUSH2 0xA32 JUMP JUMPDEST SWAP1 POP SWAP2 SWAP1 POP JUMP JUMPDEST PUSH0 DUP2 SWAP1 POP SWAP2 SWAP1 POP JUMP JUMPDEST PUSH2 0xD51 DUP4 PUSH2 0xD1E JUMP JUMPDEST PUSH2 0xD65 PUSH2 0xD5D DUP3 PUSH2 0xD3F JUMP JUMPDEST DUP5 DUP5 SLOAD PUSH2 0xCC4 JUMP JUMPDEST DUP3 SSTORE POP POP POP POP JUMP JUMPDEST PUSH0 SWAP1 JUMP JUMPDEST PUSH2 0xD79 PUSH2 0xD6D JUMP JUMPDEST PUSH2 0xD84 DUP2 DUP5 DUP5 PUSH2 0xD48 JUMP JUMPDEST POP POP POP JUMP JUMPDEST JUMPDEST DUP2 DUP2 LT ISZERO PUSH2 0xDA7 JUMPI PUSH2 0xD9C PUSH0 DUP3 PUSH2 0xD71 JUMP JUMPDEST PUSH1 0x1 DUP2 ADD SWAP1 POP PUSH2 0xD8A JUMP JUMPDEST POP POP JUMP JUMPDEST PUSH1 0x1F DUP3 GT ISZERO PUSH2 0xDEC JUMPI PUSH2 0xDBD DUP2 PUSH2 0xC97 JUMP JUMPDEST PUSH2 0xDC6 DUP5 PUSH2 0xCA9 JUMP JUMPDEST DUP2 ADD PUSH1 0x20 DUP6 LT ISZERO PUSH2 0xDD5 JUMPI DUP2 SWAP1 POP JUMPDEST PUSH2 0xDE9 PUSH2 0xDE1 DUP6 PUSH2 0xCA9 JUMP JUMPDEST DUP4 ADD DUP3 PUSH2 0xD89 JUMP JUMPDEST POP POP JUMPDEST POP POP POP JUMP JUMPDEST PUSH0 DUP3 DUP3 SHR SWAP1 POP SWAP3 SWAP2 POP POP JUMP JUMPDEST PUSH0 PUSH2 0xE0C PUSH0 NOT DUP5 PUSH1 0x8 MUL PUSH2 0xDF1 JUMP JUMPDEST NOT DUP1 DUP4 AND SWAP2 POP POP SWAP3 SWAP2 POP POP JUMP JUMPDEST PUSH0 PUSH2 0xE24 DUP4 DUP4 PUSH2 0xDFD JUMP JUMPDEST SWAP2 POP DUP3 PUSH1 0x2 MUL DUP3 OR SWAP1 POP SWAP3 SWAP2 POP POP JUMP JUMPDEST PUSH2 0xE3D DUP3 PUSH2 0x9D2 JUMP JUMPDEST PUSH8 0xFFFFFFFFFFFFFFFF DUP2 GT ISZERO PUSH2 0xE56 JUMPI PUSH2 0xE55 PUSH2 0x6E2 JUMP JUMPDEST JUMPDEST PUSH2 0xE60 DUP3 SLOAD PUSH2 0xC67 JUMP JUMPDEST PUSH2 0xE6B DUP3 DUP3 DUP6 PUSH2 0xDAB JUMP JUMPDEST PUSH0 PUSH1 0x20 SWAP1 POP PUSH1 0x1F DUP4 GT PUSH1 0x1 DUP2 EQ PUSH2 0xE9C JUMPI PUSH0 DUP5 ISZERO PUSH2 0xE8A JUMPI DUP3 DUP8 ADD MLOAD SWAP1 POP JUMPDEST PUSH2 0xE94 DUP6 DUP3 PUSH2 0xE19 JUMP JUMPDEST DUP7 SSTORE POP PUSH2 0xEFB JUMP JUMPDEST PUSH1 0x1F NOT DUP5 AND PUSH2 0xEAA DUP7 PUSH2 0xC97 JUMP JUMPDEST PUSH0 JUMPDEST DUP3 DUP2 LT ISZERO PUSH2 0xED1 JUMPI DUP5 DUP10 ADD MLOAD DUP3 SSTORE PUSH1 0x1 DUP3 ADD SWAP2 POP PUSH1 0x20 DUP6 ADD SWAP5 POP PUSH1 0x20 DUP2 ADD SWAP1 POP PUSH2 0xEAC JUMP JUMPDEST DUP7 DUP4 LT ISZERO PUSH2 0xEEE JUMPI DUP5 DUP10 ADD MLOAD PUSH2 0xEEA PUSH1 0x1F DUP10 AND DUP3 PUSH2 0xDFD JUMP JUMPDEST DUP4 SSTORE POP JUMPDEST PUSH1 0x1 PUSH1 0x2 DUP9 MUL ADD DUP9 SSTORE POP POP POP JUMPDEST POP POP POP POP POP POP JUMP JUMPDEST PUSH0 PUSH2 0xF0D DUP3 PUSH2 0x9D2 JUMP JUMPDEST PUSH2 0xF17 DUP2 DUP6 PUSH2 0xB72 JUMP JUMPDEST SWAP4 POP PUSH2 0xF27 DUP2 DUP6 PUSH1 0x20 DUP7 ADD PUSH2 0x9EC JUMP JUMPDEST PUSH2 0xF30 DUP2 PUSH2 0x6D2 JUMP JUMPDEST DUP5 ADD SWAP2 POP POP SWAP3 SWAP2 POP POP JUMP JUMPDEST PUSH2 0xF44 DUP2 PUSH2 0x8C9 JUMP JUMPDEST DUP3 MSTORE POP POP JUMP JUMPDEST PUSH0 PUSH1 0x40 DUP3 ADD SWAP1 POP DUP2 DUP2 SUB PUSH0 DUP4 ADD MSTORE PUSH2 0xF62 DUP2 DUP6 PUSH2 0xF03 JUMP JUMPDEST SWAP1 POP PUSH2 0xF71 PUSH1 0x20 DUP4 ADD DUP5 PUSH2 0xF3B JUMP JUMPDEST SWAP4 SWAP3 POP POP POP JUMP INVALID LOG2 PUSH5 0x6970667358 0x22 SLT KECCAK256 0xC7 0x26 SHR XOR 0xE5 0xA9 0x4F PUSH30 0xDBEA9EA6646815A1F0EBC610952B60D6CAC65CE7E5C457BA64736F6C6343 STOP ADDMOD BYTE STOP CALLER "
				},
				"gasEstimates": {
					"creation": {
						"codeDepositCost": "802800",
						"executionCost": "25189",
						"totalCost": "827989"
					},
					"external": {
						"addAuthorizedRecorder(address)": "27042",
						"authorizedRecorders(address)": "2877",
						"getProductHistory(string)": "infinite",
						"recordProduct(string,string,string)": "infinite",
						"removeAuthorizedRecorder(address)": "27063"
					}
				},
				"methodIdentifiers": {
					"addAuthorizedRecorder(address)": "3602d1f8",
					"authorizedRecorders(address)": "ac9a5e9a",
					"getProductHistory(string)": "d4f50453",
					"recordProduct(string,string,string)": "1e87ff31",
					"removeAuthorizedRecorder(address)": "62d8da44"
				}
			},
			"storageLayout": {
				"storage": [
					{
						"astId": 16,
						"contract": "contracts/ProductTraceability.sol:ProductTraceability",
						"label": "productHistory",
						"offset": 0,
						"slot": "0",
						"type": "t_mapping(t_string_memory_ptr,t_array(t_struct(Event)10_storage)dyn_storage)"
					},
					{
						"astId": 20,
						"contract": "contracts/ProductTraceability.sol:ProductTraceability",
						"label": "authorizedRecorders",
						"offset": 0,
						"slot": "1",
						"type": "t_mapping(t_address,t_bool)"
					}
				],
				"types": {
					"t_address": {
						"encoding": "inplace",
						"label": "address",
						"numberOfBytes": "20"
					},
					"t_array(t_struct(Event)10_storage)dyn_storage": {
						"base": "t_struct(Event)10_storage",
						"encoding": "dynamic_array",
						"label": "struct ProductTraceability.Event[]",
						"numberOfBytes": "32"
					},
					"t_bool": {
						"encoding": "inplace",
						"label": "bool",
						"numberOfBytes": "1"
					},
					"t_mapping(t_address,t_bool)": {
						"encoding": "mapping",
						"key": "t_address",
						"label": "mapping(address => bool)",
						"numberOfBytes": "32",
						"value": "t_bool"
					},
					"t_mapping(t_string_memory_ptr,t_array(t_struct(Event)10_storage)dyn_storage)": {
						"encoding": "mapping",
						"key": "t_string_memory_ptr",
						"label": "mapping(string => struct ProductTraceability.Event[])",
						"numberOfBytes": "32",
						"value": "t_array(t_struct(Event)10_storage)dyn_storage"
					},
					"t_string_memory_ptr": {
						"encoding": "bytes",
						"label": "string",
						"numberOfBytes": "32"
					},
					"t_string_storage": {
						"encoding": "bytes",
						"label": "string",
						"numberOfBytes": "32"
					},
					"t_struct(Event)10_storage": {
						"encoding": "inplace",
						"label": "struct ProductTraceability.Event",
						"members": [
							{
								"astId": 3,
								"contract": "contracts/ProductTraceability.sol:ProductTraceability",
								"label": "eventType",
								"offset": 0,
								"slot": "0",
								"type": "t_string_storage"
							},
							{
								"astId": 5,
								"contract": "contracts/ProductTraceability.sol:ProductTraceability",
								"label": "details",
								"offset": 0,
								"slot": "1",
								"type": "t_string_storage"
							},
							{
								"astId": 7,
								"contract": "contracts/ProductTraceability.sol:ProductTraceability",
								"label": "timestamp",
								"offset": 0,
								"slot": "2",
								"type": "t_uint256"
							},
							{
								"astId": 9,
								"contract": "contracts/ProductTraceability.sol:ProductTraceability",
								"label": "recorder",
								"offset": 0,
								"slot": "3",
								"type": "t_address"
							}
						],
						"numberOfBytes": "128"
					},
					"t_uint256": {
						"encoding": "inplace",
						"label": "uint256",
						"numberOfBytes": "32"
					}
				}
			},
			"userdoc": {
				"kind": "user",
				"methods": {},
				"version": 1
			}
		}
	}
}