{
	"contracts/trace.sol": {
		"Traceability": {
			"abi": [
				{
					"anonymous": false,
					"inputs": [
						{
							"indexed": true,
							"internalType": "bytes32",
							"name": "id",
							"type": "bytes32"
						},
						{
							"indexed": false,
							"internalType": "string",
							"name": "codebar",
							"type": "string"
						},
						{
							"indexed": false,
							"internalType": "string",
							"name": "name",
							"type": "string"
						},
						{
							"indexed": false,
							"internalType": "string",
							"name": "description",
							"type": "string"
						},
						{
							"indexed": false,
							"internalType": "uint256",
							"name": "timestamp",
							"type": "uint256"
						},
						{
							"indexed": false,
							"internalType": "address",
							"name": "author",
							"type": "address"
						}
					],
					"name": "ProductAdded",
					"type": "event"
				},
				{
					"anonymous": false,
					"inputs": [
						{
							"indexed": true,
							"internalType": "bytes32",
							"name": "id",
							"type": "bytes32"
						},
						{
							"indexed": false,
							"internalType": "enum Traceability.State",
							"name": "state",
							"type": "uint8"
						}
					],
					"name": "ProductStateChanged",
					"type": "event"
				},
				{
					"anonymous": false,
					"inputs": [
						{
							"indexed": true,
							"internalType": "bytes32",
							"name": "productId",
							"type": "bytes32"
						},
						{
							"indexed": true,
							"internalType": "bytes32",
							"name": "traceId",
							"type": "bytes32"
						},
						{
							"indexed": false,
							"internalType": "string",
							"name": "description",
							"type": "string"
						},
						{
							"indexed": false,
							"internalType": "uint256",
							"name": "timestamp",
							"type": "uint256"
						},
						{
							"indexed": false,
							"internalType": "address",
							"name": "author",
							"type": "address"
						}
					],
					"name": "TraceAdded",
					"type": "event"
				},
				{
					"inputs": [
						{
							"internalType": "string",
							"name": "_id",
							"type": "string"
						},
						{
							"internalType": "string",
							"name": "_codebar",
							"type": "string"
						},
						{
							"internalType": "string",
							"name": "_name",
							"type": "string"
						},
						{
							"internalType": "string",
							"name": "_description",
							"type": "string"
						}
					],
					"name": "addProduct",
					"outputs": [],
					"stateMutability": "nonpayable",
					"type": "function"
				},
				{
					"inputs": [
						{
							"internalType": "bytes32",
							"name": "_productId",
							"type": "bytes32"
						},
						{
							"internalType": "string",
							"name": "_description",
							"type": "string"
						}
					],
					"name": "addTrace",
					"outputs": [],
					"stateMutability": "nonpayable",
					"type": "function"
				},
				{
					"inputs": [],
					"name": "getAllProductIds",
					"outputs": [
						{
							"internalType": "bytes32[]",
							"name": "",
							"type": "bytes32[]"
						}
					],
					"stateMutability": "view",
					"type": "function"
				},
				{
					"inputs": [
						{
							"internalType": "bytes32",
							"name": "_productId",
							"type": "bytes32"
						}
					],
					"name": "getProduct",
					"outputs": [
						{
							"internalType": "string",
							"name": "codebar",
							"type": "string"
						},
						{
							"internalType": "string",
							"name": "name",
							"type": "string"
						},
						{
							"internalType": "string",
							"name": "description",
							"type": "string"
						},
						{
							"internalType": "uint256",
							"name": "timestamp",
							"type": "uint256"
						},
						{
							"internalType": "address",
							"name": "author",
							"type": "address"
						},
						{
							"internalType": "enum Traceability.State",
							"name": "state",
							"type": "uint8"
						}
					],
					"stateMutability": "view",
					"type": "function"
				},
				{
					"inputs": [
						{
							"internalType": "string",
							"name": "_codebar",
							"type": "string"
						}
					],
					"name": "getProductCountByCodebar",
					"outputs": [
						{
							"internalType": "uint256",
							"name": "",
							"type": "uint256"
						}
					],
					"stateMutability": "view",
					"type": "function"
				},
				{
					"inputs": [
						{
							"internalType": "bytes32",
							"name": "_productId",
							"type": "bytes32"
						}
					],
					"name": "getProductTraces",
					"outputs": [
						{
							"components": [
								{
									"internalType": "bytes32",
									"name": "id",
									"type": "bytes32"
								},
								{
									"internalType": "string",
									"name": "description",
									"type": "string"
								},
								{
									"internalType": "uint256",
									"name": "timestamp",
									"type": "uint256"
								},
								{
									"internalType": "address",
									"name": "author",
									"type": "address"
								},
								{
									"internalType": "enum Traceability.State",
									"name": "state",
									"type": "uint8"
								}
							],
							"internalType": "struct Traceability.Trace[]",
							"name": "",
							"type": "tuple[]"
						}
					],
					"stateMutability": "view",
					"type": "function"
				},
				{
					"inputs": [
						{
							"internalType": "bytes32",
							"name": "_productId",
							"type": "bytes32"
						},
						{
							"internalType": "address",
							"name": "_author",
							"type": "address"
						}
					],
					"name": "getProductTracesByAuthor",
					"outputs": [
						{
							"components": [
								{
									"internalType": "bytes32",
									"name": "id",
									"type": "bytes32"
								},
								{
									"internalType": "string",
									"name": "description",
									"type": "string"
								},
								{
									"internalType": "uint256",
									"name": "timestamp",
									"type": "uint256"
								},
								{
									"internalType": "address",
									"name": "author",
									"type": "address"
								},
								{
									"internalType": "enum Traceability.State",
									"name": "state",
									"type": "uint8"
								}
							],
							"internalType": "struct Traceability.Trace[]",
							"name": "",
							"type": "tuple[]"
						}
					],
					"stateMutability": "view",
					"type": "function"
				},
				{
					"inputs": [
						{
							"internalType": "string",
							"name": "_codebar",
							"type": "string"
						}
					],
					"name": "getProductsByCodebar",
					"outputs": [
						{
							"internalType": "bytes32[]",
							"name": "productIdsByCodebar",
							"type": "bytes32[]"
						},
						{
							"internalType": "string[]",
							"name": "names",
							"type": "string[]"
						},
						{
							"internalType": "string[]",
							"name": "descriptions",
							"type": "string[]"
						},
						{
							"internalType": "uint256[]",
							"name": "timestamps",
							"type": "uint256[]"
						},
						{
							"internalType": "address[]",
							"name": "authors",
							"type": "address[]"
						},
						{
							"internalType": "enum Traceability.State[]",
							"name": "states",
							"type": "uint8[]"
						}
					],
					"stateMutability": "view",
					"type": "function"
				},
				{
					"inputs": [
						{
							"internalType": "bytes32",
							"name": "_traceId",
							"type": "bytes32"
						}
					],
					"name": "getTraceById",
					"outputs": [
						{
							"internalType": "bytes32",
							"name": "productId",
							"type": "bytes32"
						},
						{
							"internalType": "string",
							"name": "description",
							"type": "string"
						},
						{
							"internalType": "uint256",
							"name": "timestamp",
							"type": "uint256"
						},
						{
							"internalType": "address",
							"name": "author",
							"type": "address"
						},
						{
							"internalType": "enum Traceability.State",
							"name": "state",
							"type": "uint8"
						}
					],
					"stateMutability": "view",
					"type": "function"
				},
				{
					"inputs": [
						{
							"internalType": "string",
							"name": "_codebar",
							"type": "string"
						}
					],
					"name": "hasProductsWithCodebar",
					"outputs": [
						{
							"internalType": "bool",
							"name": "",
							"type": "bool"
						}
					],
					"stateMutability": "view",
					"type": "function"
				},
				{
					"inputs": [
						{
							"internalType": "bytes32",
							"name": "_productId",
							"type": "bytes32"
						},
						{
							"internalType": "enum Traceability.State",
							"name": "_state",
							"type": "uint8"
						}
					],
					"name": "setProductState",
					"outputs": [],
					"stateMutability": "nonpayable",
					"type": "function"
				}
			],
			"devdoc": {
				"kind": "dev",
				"methods": {},
				"version": 1
			},
			"evm": {
				"assembly": "    /* \"contracts/trace.sol\":60:9098  contract Traceability {... */\n  mstore(0x40, 0x80)\n  callvalue\n  dup1\n  iszero\n  tag_1\n  jumpi\n  0x00\n  dup1\n  revert\ntag_1:\n  pop\n  dataSize(sub_0)\n  dup1\n  dataOffset(sub_0)\n  0x00\n  codecopy\n  0x00\n  return\nstop\n\nsub_0: assembly {\n        /* \"contracts/trace.sol\":60:9098  contract Traceability {... */\n      mstore(0x40, 0x80)\n      callvalue\n      dup1\n      iszero\n      tag_1\n      jumpi\n      0x00\n      dup1\n      revert\n    tag_1:\n      pop\n      jumpi(tag_2, lt(calldatasize, 0x04))\n      shr(0xe0, calldataload(0x00))\n      dup1\n      0x89015686\n      gt\n      tag_14\n      jumpi\n      dup1\n      0x89015686\n      eq\n      tag_8\n      jumpi\n      dup1\n      0x9635b610\n      eq\n      tag_9\n      jumpi\n      dup1\n      0xb8715c95\n      eq\n      tag_10\n      jumpi\n      dup1\n      0xdc964cb6\n      eq\n      tag_11\n      jumpi\n      dup1\n      0xf0ccdecb\n      eq\n      tag_12\n      jumpi\n      dup1\n      0xfde74e81\n      eq\n      tag_13\n      jumpi\n      jump(tag_2)\n    tag_14:\n      dup1\n      0x3a20e9df\n      eq\n      tag_3\n      jumpi\n      dup1\n      0x5609953a\n      eq\n      tag_4\n      jumpi\n      dup1\n      0x58fb4ad7\n      eq\n      tag_5\n      jumpi\n      dup1\n      0x5a94feca\n      eq\n      tag_6\n      jumpi\n      dup1\n      0x663c01af\n      eq\n      tag_7\n      jumpi\n    tag_2:\n      0x00\n      dup1\n      revert\n        /* \"contracts/trace.sol\":5679:6291  function getProduct(bytes32 _productId) ... */\n    tag_3:\n      tag_15\n      0x04\n      dup1\n      calldatasize\n      sub\n      dup2\n      add\n      swap1\n      tag_16\n      swap2\n      swap1\n      tag_17\n      jump\t// in\n    tag_16:\n      tag_18\n      jump\t// in\n    tag_15:\n      mload(0x40)\n      tag_19\n      swap7\n      swap6\n      swap5\n      swap4\n      swap3\n      swap2\n      swap1\n      tag_20\n      jump\t// in\n    tag_19:\n      mload(0x40)\n      dup1\n      swap2\n      sub\n      swap1\n      return\n        /* \"contracts/trace.sol\":8800:8984  function getProductCountByCodebar(string memory _codebar) ... */\n    tag_4:\n      tag_21\n      0x04\n      dup1\n      calldatasize\n      sub\n      dup2\n      add\n      swap1\n      tag_22\n      swap2\n      swap1\n      tag_23\n      jump\t// in\n    tag_22:\n      tag_24\n      jump\t// in\n    tag_21:\n      mload(0x40)\n      tag_25\n      swap2\n      swap1\n      tag_26\n      jump\t// in\n    tag_25:\n      mload(0x40)\n      dup1\n      swap2\n      sub\n      swap1\n      return\n        /* \"contracts/trace.sol\":6299:7175  function getTraceById(bytes32 _traceId) ... */\n    tag_5:\n      tag_27\n      0x04\n      dup1\n      calldatasize\n      sub\n      dup2\n      add\n      swap1\n      tag_28\n      swap2\n      swap1\n      tag_17\n      jump\t// in\n    tag_28:\n      tag_29\n      jump\t// in\n    tag_27:\n      mload(0x40)\n      tag_30\n      swap6\n      swap5\n      swap4\n      swap3\n      swap2\n      swap1\n      tag_31\n      jump\t// in\n    tag_30:\n      mload(0x40)\n      dup1\n      swap2\n      sub\n      swap1\n      return\n        /* \"contracts/trace.sol\":4540:5437  function getProductTracesByAuthor(bytes32 _productId, address _author) ... */\n    tag_6:\n      tag_32\n      0x04\n      dup1\n      calldatasize\n      sub\n      dup2\n      add\n      swap1\n      tag_33\n      swap2\n      swap1\n      tag_34\n      jump\t// in\n    tag_33:\n      tag_35\n      jump\t// in\n    tag_32:\n      mload(0x40)\n      tag_36\n      swap2\n      swap1\n      tag_37\n      jump\t// in\n    tag_36:\n      mload(0x40)\n      dup1\n      swap2\n      sub\n      swap1\n      return\n        /* \"contracts/trace.sol\":8992:9095  function getAllProductIds() public view returns (bytes32[] memory) {... */\n    tag_7:\n      tag_38\n      tag_39\n      jump\t// in\n    tag_38:\n      mload(0x40)\n      tag_40\n      swap2\n      swap1\n      tag_41\n      jump\t// in\n    tag_40:\n      mload(0x40)\n      dup1\n      swap2\n      sub\n      swap1\n      return\n        /* \"contracts/trace.sol\":7184:8601  function getProductsByCodebar(string memory _codebar) ... */\n    tag_8:\n      tag_42\n      0x04\n      dup1\n      calldatasize\n      sub\n      dup2\n      add\n      swap1\n      tag_43\n      swap2\n      swap1\n      tag_23\n      jump\t// in\n    tag_43:\n      tag_44\n      jump\t// in\n    tag_42:\n      mload(0x40)\n      tag_45\n      swap7\n      swap6\n      swap5\n      swap4\n      swap3\n      swap2\n      swap1\n      tag_46\n      jump\t// in\n    tag_45:\n      mload(0x40)\n      dup1\n      swap2\n      sub\n      swap1\n      return\n        /* \"contracts/trace.sol\":3580:4319  function addTrace(bytes32 _productId, string memory _description) ... */\n    tag_9:\n      tag_47\n      0x04\n      dup1\n      calldatasize\n      sub\n      dup2\n      add\n      swap1\n      tag_48\n      swap2\n      swap1\n      tag_49\n      jump\t// in\n    tag_48:\n      tag_50\n      jump\t// in\n    tag_47:\n      stop\n        /* \"contracts/trace.sol\":8609:8792  function hasProductsWithCodebar(string memory _codebar) ... */\n    tag_10:\n      tag_51\n      0x04\n      dup1\n      calldatasize\n      sub\n      dup2\n      add\n      swap1\n      tag_52\n      swap2\n      swap1\n      tag_23\n      jump\t// in\n    tag_52:\n      tag_53\n      jump\t// in\n    tag_51:\n      mload(0x40)\n      tag_54\n      swap2\n      swap1\n      tag_55\n      jump\t// in\n    tag_54:\n      mload(0x40)\n      dup1\n      swap2\n      sub\n      swap1\n      return\n        /* \"contracts/trace.sol\":5445:5671  function setProductState(bytes32 _productId, State _state) ... */\n    tag_11:\n      tag_56\n      0x04\n      dup1\n      calldatasize\n      sub\n      dup2\n      add\n      swap1\n      tag_57\n      swap2\n      swap1\n      tag_58\n      jump\t// in\n    tag_57:\n      tag_59\n      jump\t// in\n    tag_56:\n      stop\n        /* \"contracts/trace.sol\":4327:4532  function getProductTraces(bytes32 _productId) ... */\n    tag_12:\n      tag_60\n      0x04\n      dup1\n      calldatasize\n      sub\n      dup2\n      add\n      swap1\n      tag_61\n      swap2\n      swap1\n      tag_17\n      jump\t// in\n    tag_61:\n      tag_62\n      jump\t// in\n    tag_60:\n      mload(0x40)\n      tag_63\n      swap2\n      swap1\n      tag_37\n      jump\t// in\n    tag_63:\n      mload(0x40)\n      dup1\n      swap2\n      sub\n      swap1\n      return\n        /* \"contracts/trace.sol\":1867:3572  function addProduct(... */\n    tag_13:\n      tag_64\n      0x04\n      dup1\n      calldatasize\n      sub\n      dup2\n      add\n      swap1\n      tag_65\n      swap2\n      swap1\n      tag_66\n      jump\t// in\n    tag_65:\n      tag_67\n      jump\t// in\n    tag_64:\n      stop\n        /* \"contracts/trace.sol\":5679:6291  function getProduct(bytes32 _productId) ... */\n    tag_18:\n        /* \"contracts/trace.sol\":5819:5840  string memory codebar */\n      0x60\n        /* \"contracts/trace.sol\":5855:5873  string memory name */\n      dup1\n        /* \"contracts/trace.sol\":5888:5913  string memory description */\n      0x60\n        /* \"contracts/trace.sol\":5928:5945  uint256 timestamp */\n      0x00\n        /* \"contracts/trace.sol\":5960:5974  address author */\n      dup1\n        /* \"contracts/trace.sol\":5989:6000  State state */\n      0x00\n        /* \"contracts/trace.sol\":5775:5785  _productId */\n      dup7\n        /* \"contracts/trace.sol\":1256:1264  products */\n      0x00\n        /* \"contracts/trace.sol\":1256:1276  products[_productId] */\n      dup1\n        /* \"contracts/trace.sol\":1265:1275  _productId */\n      dup3\n        /* \"contracts/trace.sol\":1256:1276  products[_productId] */\n      dup2\n      mstore\n      0x20\n      add\n      swap1\n      dup2\n      mstore\n      0x20\n      add\n      0x00\n      keccak256\n        /* \"contracts/trace.sol\":1256:1283  products[_productId].exists */\n      0x05\n      add\n      0x15\n      swap1\n      sload\n      swap1\n      0x0100\n      exp\n      swap1\n      div\n      0xff\n      and\n        /* \"contracts/trace.sol\":1248:1310  require(products[_productId].exists, \"Product does not exist\") */\n      tag_69\n      jumpi\n      mload(0x40)\n      0x08c379a000000000000000000000000000000000000000000000000000000000\n      dup2\n      mstore\n      0x04\n      add\n      tag_70\n      swap1\n      tag_71\n      jump\t// in\n    tag_70:\n      mload(0x40)\n      dup1\n      swap2\n      sub\n      swap1\n      revert\n    tag_69:\n        /* \"contracts/trace.sol\":6029:6051  Product memory product */\n      0x00\n        /* \"contracts/trace.sol\":6054:6062  products */\n      dup1\n        /* \"contracts/trace.sol\":6054:6074  products[_productId] */\n      0x00\n        /* \"contracts/trace.sol\":6063:6073  _productId */\n      dup11\n        /* \"contracts/trace.sol\":6054:6074  products[_productId] */\n      dup2\n      mstore\n      0x20\n      add\n      swap1\n      dup2\n      mstore\n      0x20\n      add\n      0x00\n      keccak256\n        /* \"contracts/trace.sol\":6029:6074  Product memory product = products[_productId] */\n      mload(0x40)\n      dup1\n      0x0100\n      add\n      0x40\n      mstore\n      swap1\n      dup2\n      0x00\n      dup3\n      add\n      sload\n      dup2\n      mstore\n      0x20\n      add\n      0x01\n      dup3\n      add\n      dup1\n      sload\n      tag_73\n      swap1\n      tag_74\n      jump\t// in\n    tag_73:\n      dup1\n      0x1f\n      add\n      0x20\n      dup1\n      swap2\n      div\n      mul\n      0x20\n      add\n      mload(0x40)\n      swap1\n      dup2\n      add\n      0x40\n      mstore\n      dup1\n      swap3\n      swap2\n      swap1\n      dup2\n      dup2\n      mstore\n      0x20\n      add\n      dup3\n      dup1\n      sload\n      tag_75\n      swap1\n      tag_74\n      jump\t// in\n    tag_75:\n      dup1\n      iszero\n      tag_76\n      jumpi\n      dup1\n      0x1f\n      lt\n      tag_77\n      jumpi\n      0x0100\n      dup1\n      dup4\n      sload\n      div\n      mul\n      dup4\n      mstore\n      swap2\n      0x20\n      add\n      swap2\n      jump(tag_76)\n    tag_77:\n      dup3\n      add\n      swap2\n      swap1\n      0x00\n      mstore\n      keccak256(0x00, 0x20)\n      swap1\n    tag_78:\n      dup2\n      sload\n      dup2\n      mstore\n      swap1\n      0x01\n      add\n      swap1\n      0x20\n      add\n      dup1\n      dup4\n      gt\n      tag_78\n      jumpi\n      dup3\n      swap1\n      sub\n      0x1f\n      and\n      dup3\n      add\n      swap2\n    tag_76:\n      pop\n      pop\n      pop\n      pop\n      pop\n      dup2\n      mstore\n      0x20\n      add\n      0x02\n      dup3\n      add\n      dup1\n      sload\n      tag_79\n      swap1\n      tag_74\n      jump\t// in\n    tag_79:\n      dup1\n      0x1f\n      add\n      0x20\n      dup1\n      swap2\n      div\n      mul\n      0x20\n      add\n      mload(0x40)\n      swap1\n      dup2\n      add\n      0x40\n      mstore\n      dup1\n      swap3\n      swap2\n      swap1\n      dup2\n      dup2\n      mstore\n      0x20\n      add\n      dup3\n      dup1\n      sload\n      tag_80\n      swap1\n      tag_74\n      jump\t// in\n    tag_80:\n      dup1\n      iszero\n      tag_81\n      jumpi\n      dup1\n      0x1f\n      lt\n      tag_82\n      jumpi\n      0x0100\n      dup1\n      dup4\n      sload\n      div\n      mul\n      dup4\n      mstore\n      swap2\n      0x20\n      add\n      swap2\n      jump(tag_81)\n    tag_82:\n      dup3\n      add\n      swap2\n      swap1\n      0x00\n      mstore\n      keccak256(0x00, 0x20)\n      swap1\n    tag_83:\n      dup2\n      sload\n      dup2\n      mstore\n      swap1\n      0x01\n      add\n      swap1\n      0x20\n      add\n      dup1\n      dup4\n      gt\n      tag_83\n      jumpi\n      dup3\n      swap1\n      sub\n      0x1f\n      and\n      dup3\n      add\n      swap2\n    tag_81:\n      pop\n      pop\n      pop\n      pop\n      pop\n      dup2\n      mstore\n      0x20\n      add\n      0x03\n      dup3\n      add\n      dup1\n      sload\n      tag_84\n      swap1\n      tag_74\n      jump\t// in\n    tag_84:\n      dup1\n      0x1f\n      add\n      0x20\n      dup1\n      swap2\n      div\n      mul\n      0x20\n      add\n      mload(0x40)\n      swap1\n      dup2\n      add\n      0x40\n      mstore\n      dup1\n      swap3\n      swap2\n      swap1\n      dup2\n      dup2\n      mstore\n      0x20\n      add\n      dup3\n      dup1\n      sload\n      tag_85\n      swap1\n      tag_74\n      jump\t// in\n    tag_85:\n      dup1\n      iszero\n      tag_86\n      jumpi\n      dup1\n      0x1f\n      lt\n      tag_87\n      jumpi\n      0x0100\n      dup1\n      dup4\n      sload\n      div\n      mul\n      dup4\n      mstore\n      swap2\n      0x20\n      add\n      swap2\n      jump(tag_86)\n    tag_87:\n      dup3\n      add\n      swap2\n      swap1\n      0x00\n      mstore\n      keccak256(0x00, 0x20)\n      swap1\n    tag_88:\n      dup2\n      sload\n      dup2\n      mstore\n      swap1\n      0x01\n      add\n      swap1\n      0x20\n      add\n      dup1\n      dup4\n      gt\n      tag_88\n      jumpi\n      dup3\n      swap1\n      sub\n      0x1f\n      and\n      dup3\n      add\n      swap2\n    tag_86:\n      pop\n      pop\n      pop\n      pop\n      pop\n      dup2\n      mstore\n      0x20\n      add\n      0x04\n      dup3\n      add\n      sload\n      dup2\n      mstore\n      0x20\n      add\n      0x05\n      dup3\n      add\n      0x00\n      swap1\n      sload\n      swap1\n      0x0100\n      exp\n      swap1\n      div\n      0xffffffffffffffffffffffffffffffffffffffff\n      and\n      0xffffffffffffffffffffffffffffffffffffffff\n      and\n      0xffffffffffffffffffffffffffffffffffffffff\n      and\n      dup2\n      mstore\n      0x20\n      add\n      0x05\n      dup3\n      add\n      0x14\n      swap1\n      sload\n      swap1\n      0x0100\n      exp\n      swap1\n      div\n      0xff\n      and\n      0x01\n      dup2\n      gt\n      iszero\n      tag_89\n      jumpi\n      tag_90\n      tag_91\n      jump\t// in\n    tag_90:\n    tag_89:\n      0x01\n      dup2\n      gt\n      iszero\n      tag_92\n      jumpi\n      tag_93\n      tag_91\n      jump\t// in\n    tag_93:\n    tag_92:\n      dup2\n      mstore\n      0x20\n      add\n      0x05\n      dup3\n      add\n      0x15\n      swap1\n      sload\n      swap1\n      0x0100\n      exp\n      swap1\n      div\n      0xff\n      and\n      iszero\n      iszero\n      iszero\n      iszero\n      dup2\n      mstore\n      pop\n      pop\n      swap1\n      pop\n        /* \"contracts/trace.sol\":6107:6114  product */\n      dup1\n        /* \"contracts/trace.sol\":6107:6122  product.codebar */\n      0x20\n      add\n      mload\n        /* \"contracts/trace.sol\":6137:6144  product */\n      dup2\n        /* \"contracts/trace.sol\":6137:6149  product.name */\n      0x40\n      add\n      mload\n        /* \"contracts/trace.sol\":6164:6171  product */\n      dup3\n        /* \"contracts/trace.sol\":6164:6183  product.description */\n      0x60\n      add\n      mload\n        /* \"contracts/trace.sol\":6198:6205  product */\n      dup4\n        /* \"contracts/trace.sol\":6198:6215  product.timestamp */\n      0x80\n      add\n      mload\n        /* \"contracts/trace.sol\":6230:6237  product */\n      dup5\n        /* \"contracts/trace.sol\":6230:6244  product.author */\n      0xa0\n      add\n      mload\n        /* \"contracts/trace.sol\":6259:6266  product */\n      dup6\n        /* \"contracts/trace.sol\":6259:6272  product.state */\n      0xc0\n      add\n      mload\n        /* \"contracts/trace.sol\":6085:6283  return (... */\n      swap8\n      pop\n      swap8\n      pop\n      swap8\n      pop\n      swap8\n      pop\n      swap8\n      pop\n      swap8\n      pop\n      pop\n        /* \"contracts/trace.sol\":5679:6291  function getProduct(bytes32 _productId) ... */\n      pop\n      swap2\n      swap4\n      swap6\n      pop\n      swap2\n      swap4\n      swap6\n      jump\t// out\n        /* \"contracts/trace.sol\":8800:8984  function getProductCountByCodebar(string memory _codebar) ... */\n    tag_24:\n        /* \"contracts/trace.sol\":8909:8916  uint256 */\n      0x00\n        /* \"contracts/trace.sol\":8942:8959  codebarToProducts */\n      0x03\n        /* \"contracts/trace.sol\":8960:8968  _codebar */\n      dup3\n        /* \"contracts/trace.sol\":8942:8969  codebarToProducts[_codebar] */\n      mload(0x40)\n      tag_95\n      swap2\n      swap1\n      tag_96\n      jump\t// in\n    tag_95:\n      swap1\n      dup2\n      mstore\n      0x20\n      add\n      mload(0x40)\n      dup1\n      swap2\n      sub\n      swap1\n      keccak256\n        /* \"contracts/trace.sol\":8942:8976  codebarToProducts[_codebar].length */\n      dup1\n      sload\n      swap1\n      pop\n        /* \"contracts/trace.sol\":8935:8976  return codebarToProducts[_codebar].length */\n      swap1\n      pop\n        /* \"contracts/trace.sol\":8800:8984  function getProductCountByCodebar(string memory _codebar) ... */\n      swap2\n      swap1\n      pop\n      jump\t// out\n        /* \"contracts/trace.sol\":6299:7175  function getTraceById(bytes32 _traceId) ... */\n    tag_29:\n        /* \"contracts/trace.sol\":6404:6421  bytes32 productId */\n      0x00\n        /* \"contracts/trace.sol\":6436:6461  string memory description */\n      0x60\n        /* \"contracts/trace.sol\":6476:6493  uint256 timestamp */\n      0x00\n        /* \"contracts/trace.sol\":6508:6522  address author */\n      dup1\n        /* \"contracts/trace.sol\":6537:6548  State state */\n      0x00\n        /* \"contracts/trace.sol\":6577:6599  bytes32 productIdFound */\n      dup1\n        /* \"contracts/trace.sol\":6602:6616  traceToProduct */\n      0x02\n        /* \"contracts/trace.sol\":6602:6626  traceToProduct[_traceId] */\n      0x00\n        /* \"contracts/trace.sol\":6617:6625  _traceId */\n      dup9\n        /* \"contracts/trace.sol\":6602:6626  traceToProduct[_traceId] */\n      dup2\n      mstore\n      0x20\n      add\n      swap1\n      dup2\n      mstore\n      0x20\n      add\n      0x00\n      keccak256\n      sload\n        /* \"contracts/trace.sol\":6577:6626  bytes32 productIdFound = traceToProduct[_traceId] */\n      swap1\n      pop\n        /* \"contracts/trace.sol\":6671:6672  0 */\n      0x00\n        /* \"contracts/trace.sol\":6663:6673  bytes32(0) */\n      dup1\n      shl\n        /* \"contracts/trace.sol\":6645:6659  productIdFound */\n      dup2\n        /* \"contracts/trace.sol\":6645:6673  productIdFound != bytes32(0) */\n      sub\n        /* \"contracts/trace.sol\":6637:6693  require(productIdFound != bytes32(0), \"Trace not found\") */\n      tag_98\n      jumpi\n      mload(0x40)\n      0x08c379a000000000000000000000000000000000000000000000000000000000\n      dup2\n      mstore\n      0x04\n      add\n      tag_99\n      swap1\n      tag_100\n      jump\t// in\n    tag_99:\n      mload(0x40)\n      dup1\n      swap2\n      sub\n      swap1\n      revert\n    tag_98:\n        /* \"contracts/trace.sol\":6706:6728  Trace[] storage traces */\n      0x00\n        /* \"contracts/trace.sol\":6731:6744  productTraces */\n      0x01\n        /* \"contracts/trace.sol\":6731:6760  productTraces[productIdFound] */\n      0x00\n        /* \"contracts/trace.sol\":6745:6759  productIdFound */\n      dup4\n        /* \"contracts/trace.sol\":6731:6760  productTraces[productIdFound] */\n      dup2\n      mstore\n      0x20\n      add\n      swap1\n      dup2\n      mstore\n      0x20\n      add\n      0x00\n      keccak256\n        /* \"contracts/trace.sol\":6706:6760  Trace[] storage traces = productTraces[productIdFound] */\n      swap1\n      pop\n        /* \"contracts/trace.sol\":6776:6785  uint256 i */\n      0x00\n        /* \"contracts/trace.sol\":6771:7132  for (uint256 i = 0; i < traces.length; i++) {... */\n    tag_101:\n        /* \"contracts/trace.sol\":6795:6801  traces */\n      dup2\n        /* \"contracts/trace.sol\":6795:6808  traces.length */\n      dup1\n      sload\n      swap1\n      pop\n        /* \"contracts/trace.sol\":6791:6792  i */\n      dup2\n        /* \"contracts/trace.sol\":6791:6808  i < traces.length */\n      lt\n        /* \"contracts/trace.sol\":6771:7132  for (uint256 i = 0; i < traces.length; i++) {... */\n      iszero\n      tag_102\n      jumpi\n        /* \"contracts/trace.sol\":6850:6858  _traceId */\n      dup9\n        /* \"contracts/trace.sol\":6834:6840  traces */\n      dup3\n        /* \"contracts/trace.sol\":6841:6842  i */\n      dup3\n        /* \"contracts/trace.sol\":6834:6843  traces[i] */\n      dup2\n      sload\n      dup2\n      lt\n      tag_104\n      jumpi\n      tag_105\n      tag_106\n      jump\t// in\n    tag_105:\n    tag_104:\n      swap1\n      0x00\n      mstore\n      keccak256(0x00, 0x20)\n      swap1\n      0x04\n      mul\n      add\n        /* \"contracts/trace.sol\":6834:6846  traces[i].id */\n      0x00\n      add\n      sload\n        /* \"contracts/trace.sol\":6834:6858  traces[i].id == _traceId */\n      sub\n        /* \"contracts/trace.sol\":6830:7121  if (traces[i].id == _traceId) {... */\n      tag_108\n      jumpi\n        /* \"contracts/trace.sol\":6909:6923  productIdFound */\n      dup3\n        /* \"contracts/trace.sol\":6946:6952  traces */\n      dup3\n        /* \"contracts/trace.sol\":6953:6954  i */\n      dup3\n        /* \"contracts/trace.sol\":6946:6955  traces[i] */\n      dup2\n      sload\n      dup2\n      lt\n      tag_109\n      jumpi\n      tag_110\n      tag_106\n      jump\t// in\n    tag_110:\n    tag_109:\n      swap1\n      0x00\n      mstore\n      keccak256(0x00, 0x20)\n      swap1\n      0x04\n      mul\n      add\n        /* \"contracts/trace.sol\":6946:6967  traces[i].description */\n      0x01\n      add\n        /* \"contracts/trace.sol\":6990:6996  traces */\n      dup4\n        /* \"contracts/trace.sol\":6997:6998  i */\n      dup4\n        /* \"contracts/trace.sol\":6990:6999  traces[i] */\n      dup2\n      sload\n      dup2\n      lt\n      tag_112\n      jumpi\n      tag_113\n      tag_106\n      jump\t// in\n    tag_113:\n    tag_112:\n      swap1\n      0x00\n      mstore\n      keccak256(0x00, 0x20)\n      swap1\n      0x04\n      mul\n      add\n        /* \"contracts/trace.sol\":6990:7009  traces[i].timestamp */\n      0x02\n      add\n      sload\n        /* \"contracts/trace.sol\":7032:7038  traces */\n      dup5\n        /* \"contracts/trace.sol\":7039:7040  i */\n      dup5\n        /* \"contracts/trace.sol\":7032:7041  traces[i] */\n      dup2\n      sload\n      dup2\n      lt\n      tag_115\n      jumpi\n      tag_116\n      tag_106\n      jump\t// in\n    tag_116:\n    tag_115:\n      swap1\n      0x00\n      mstore\n      keccak256(0x00, 0x20)\n      swap1\n      0x04\n      mul\n      add\n        /* \"contracts/trace.sol\":7032:7048  traces[i].author */\n      0x03\n      add\n      0x00\n      swap1\n      sload\n      swap1\n      0x0100\n      exp\n      swap1\n      div\n      0xffffffffffffffffffffffffffffffffffffffff\n      and\n        /* \"contracts/trace.sol\":7071:7077  traces */\n      dup6\n        /* \"contracts/trace.sol\":7078:7079  i */\n      dup6\n        /* \"contracts/trace.sol\":7071:7080  traces[i] */\n      dup2\n      sload\n      dup2\n      lt\n      tag_118\n      jumpi\n      tag_119\n      tag_106\n      jump\t// in\n    tag_119:\n    tag_118:\n      swap1\n      0x00\n      mstore\n      keccak256(0x00, 0x20)\n      swap1\n      0x04\n      mul\n      add\n        /* \"contracts/trace.sol\":7071:7086  traces[i].state */\n      0x03\n      add\n      0x14\n      swap1\n      sload\n      swap1\n      0x0100\n      exp\n      swap1\n      div\n      0xff\n      and\n        /* \"contracts/trace.sol\":6879:7105  return (... */\n      dup4\n      dup1\n      sload\n      tag_121\n      swap1\n      tag_74\n      jump\t// in\n    tag_121:\n      dup1\n      0x1f\n      add\n      0x20\n      dup1\n      swap2\n      div\n      mul\n      0x20\n      add\n      mload(0x40)\n      swap1\n      dup2\n      add\n      0x40\n      mstore\n      dup1\n      swap3\n      swap2\n      swap1\n      dup2\n      dup2\n      mstore\n      0x20\n      add\n      dup3\n      dup1\n      sload\n      tag_122\n      swap1\n      tag_74\n      jump\t// in\n    tag_122:\n      dup1\n      iszero\n      tag_123\n      jumpi\n      dup1\n      0x1f\n      lt\n      tag_124\n      jumpi\n      0x0100\n      dup1\n      dup4\n      sload\n      div\n      mul\n      dup4\n      mstore\n      swap2\n      0x20\n      add\n      swap2\n      jump(tag_123)\n    tag_124:\n      dup3\n      add\n      swap2\n      swap1\n      0x00\n      mstore\n      keccak256(0x00, 0x20)\n      swap1\n    tag_125:\n      dup2\n      sload\n      dup2\n      mstore\n      swap1\n      0x01\n      add\n      swap1\n      0x20\n      add\n      dup1\n      dup4\n      gt\n      tag_125\n      jumpi\n      dup3\n      swap1\n      sub\n      0x1f\n      and\n      dup3\n      add\n      swap2\n    tag_123:\n      pop\n      pop\n      pop\n      pop\n      pop\n      swap4\n      pop\n      swap8\n      pop\n      swap8\n      pop\n      swap8\n      pop\n      swap8\n      pop\n      swap8\n      pop\n      pop\n      pop\n      pop\n      jump(tag_97)\n        /* \"contracts/trace.sol\":6830:7121  if (traces[i].id == _traceId) {... */\n    tag_108:\n        /* \"contracts/trace.sol\":6810:6813  i++ */\n      dup1\n      dup1\n      0x01\n      add\n      swap2\n      pop\n      pop\n        /* \"contracts/trace.sol\":6771:7132  for (uint256 i = 0; i < traces.length; i++) {... */\n      jump(tag_101)\n    tag_102:\n      pop\n        /* \"contracts/trace.sol\":7142:7167  revert(\"Trace not found\") */\n      mload(0x40)\n      0x08c379a000000000000000000000000000000000000000000000000000000000\n      dup2\n      mstore\n      0x04\n      add\n      tag_126\n      swap1\n      tag_100\n      jump\t// in\n    tag_126:\n      mload(0x40)\n      dup1\n      swap2\n      sub\n      swap1\n      revert\n        /* \"contracts/trace.sol\":6299:7175  function getTraceById(bytes32 _traceId) ... */\n    tag_97:\n      swap2\n      swap4\n      swap6\n      swap1\n      swap3\n      swap5\n      pop\n      jump\t// out\n        /* \"contracts/trace.sol\":4540:5437  function getProductTracesByAuthor(bytes32 _productId, address _author) ... */\n    tag_35:\n        /* \"contracts/trace.sol\":4697:4711  Trace[] memory */\n      0x60\n        /* \"contracts/trace.sol\":4667:4677  _productId */\n      dup3\n        /* \"contracts/trace.sol\":1256:1264  products */\n      0x00\n        /* \"contracts/trace.sol\":1256:1276  products[_productId] */\n      dup1\n        /* \"contracts/trace.sol\":1265:1275  _productId */\n      dup3\n        /* \"contracts/trace.sol\":1256:1276  products[_productId] */\n      dup2\n      mstore\n      0x20\n      add\n      swap1\n      dup2\n      mstore\n      0x20\n      add\n      0x00\n      keccak256\n        /* \"contracts/trace.sol\":1256:1283  products[_productId].exists */\n      0x05\n      add\n      0x15\n      swap1\n      sload\n      swap1\n      0x0100\n      exp\n      swap1\n      div\n      0xff\n      and\n        /* \"contracts/trace.sol\":1248:1310  require(products[_productId].exists, \"Product does not exist\") */\n      tag_128\n      jumpi\n      mload(0x40)\n      0x08c379a000000000000000000000000000000000000000000000000000000000\n      dup2\n      mstore\n      0x04\n      add\n      tag_129\n      swap1\n      tag_71\n      jump\t// in\n    tag_129:\n      mload(0x40)\n      dup1\n      swap2\n      sub\n      swap1\n      revert\n    tag_128:\n        /* \"contracts/trace.sol\":4730:4755  Trace[] storage allTraces */\n      0x00\n        /* \"contracts/trace.sol\":4758:4771  productTraces */\n      0x01\n        /* \"contracts/trace.sol\":4758:4783  productTraces[_productId] */\n      0x00\n        /* \"contracts/trace.sol\":4772:4782  _productId */\n      dup7\n        /* \"contracts/trace.sol\":4758:4783  productTraces[_productId] */\n      dup2\n      mstore\n      0x20\n      add\n      swap1\n      dup2\n      mstore\n      0x20\n      add\n      0x00\n      keccak256\n        /* \"contracts/trace.sol\":4730:4783  Trace[] storage allTraces = productTraces[_productId] */\n      swap1\n      pop\n        /* \"contracts/trace.sol\":4794:4807  uint256 count */\n      0x00\n        /* \"contracts/trace.sol\":4869:4878  uint256 i */\n      dup1\n        /* \"contracts/trace.sol\":4864:5015  for (uint256 i = 0; i < allTraces.length; i++) {... */\n    tag_131:\n        /* \"contracts/trace.sol\":4888:4897  allTraces */\n      dup3\n        /* \"contracts/trace.sol\":4888:4904  allTraces.length */\n      dup1\n      sload\n      swap1\n      pop\n        /* \"contracts/trace.sol\":4884:4885  i */\n      dup2\n        /* \"contracts/trace.sol\":4884:4904  i < allTraces.length */\n      lt\n        /* \"contracts/trace.sol\":4864:5015  for (uint256 i = 0; i < allTraces.length; i++) {... */\n      iszero\n      tag_132\n      jumpi\n        /* \"contracts/trace.sol\":4953:4960  _author */\n      dup6\n        /* \"contracts/trace.sol\":4930:4960  allTraces[i].author == _author */\n      0xffffffffffffffffffffffffffffffffffffffff\n      and\n        /* \"contracts/trace.sol\":4930:4939  allTraces */\n      dup4\n        /* \"contracts/trace.sol\":4940:4941  i */\n      dup3\n        /* \"contracts/trace.sol\":4930:4942  allTraces[i] */\n      dup2\n      sload\n      dup2\n      lt\n      tag_134\n      jumpi\n      tag_135\n      tag_106\n      jump\t// in\n    tag_135:\n    tag_134:\n      swap1\n      0x00\n      mstore\n      keccak256(0x00, 0x20)\n      swap1\n      0x04\n      mul\n      add\n        /* \"contracts/trace.sol\":4930:4949  allTraces[i].author */\n      0x03\n      add\n      0x00\n      swap1\n      sload\n      swap1\n      0x0100\n      exp\n      swap1\n      div\n      0xffffffffffffffffffffffffffffffffffffffff\n      and\n        /* \"contracts/trace.sol\":4930:4960  allTraces[i].author == _author */\n      0xffffffffffffffffffffffffffffffffffffffff\n      and\n      sub\n        /* \"contracts/trace.sol\":4926:5004  if (allTraces[i].author == _author) {... */\n      tag_137\n      jumpi\n        /* \"contracts/trace.sol\":4981:4988  count++ */\n      dup2\n      dup1\n      tag_138\n      swap1\n      tag_139\n      jump\t// in\n    tag_138:\n      swap3\n      pop\n      pop\n        /* \"contracts/trace.sol\":4926:5004  if (allTraces[i].author == _author) {... */\n    tag_137:\n        /* \"contracts/trace.sol\":4906:4909  i++ */\n      dup1\n      dup1\n      0x01\n      add\n      swap2\n      pop\n      pop\n        /* \"contracts/trace.sol\":4864:5015  for (uint256 i = 0; i < allTraces.length; i++) {... */\n      jump(tag_131)\n    tag_132:\n      pop\n        /* \"contracts/trace.sol\":5075:5096  Trace[] memory result */\n      0x00\n        /* \"contracts/trace.sol\":5111:5116  count */\n      dup2\n        /* \"contracts/trace.sol\":5099:5117  new Trace[](count) */\n      0xffffffffffffffff\n      dup2\n      gt\n      iszero\n      tag_140\n      jumpi\n      tag_141\n      tag_142\n      jump\t// in\n    tag_141:\n    tag_140:\n      mload(0x40)\n      swap1\n      dup1\n      dup3\n      mstore\n      dup1\n      0x20\n      mul\n      0x20\n      add\n      dup3\n      add\n      0x40\n      mstore\n      dup1\n      iszero\n      tag_143\n      jumpi\n      dup2\n      0x20\n      add\n    tag_144:\n      tag_145\n      tag_146\n      jump\t// in\n    tag_145:\n      dup2\n      mstore\n      0x20\n      add\n      swap1\n      0x01\n      swap1\n      sub\n      swap1\n      dup2\n      tag_144\n      jumpi\n      swap1\n      pop\n    tag_143:\n      pop\n        /* \"contracts/trace.sol\":5075:5117  Trace[] memory result = new Trace[](count) */\n      swap1\n      pop\n        /* \"contracts/trace.sol\":5128:5147  uint256 resultIndex */\n      0x00\n        /* \"contracts/trace.sol\":5199:5208  uint256 i */\n      dup1\n        /* \"contracts/trace.sol\":5194:5404  for (uint256 i = 0; i < allTraces.length; i++) {... */\n    tag_147:\n        /* \"contracts/trace.sol\":5218:5227  allTraces */\n      dup5\n        /* \"contracts/trace.sol\":5218:5234  allTraces.length */\n      dup1\n      sload\n      swap1\n      pop\n        /* \"contracts/trace.sol\":5214:5215  i */\n      dup2\n        /* \"contracts/trace.sol\":5214:5234  i < allTraces.length */\n      lt\n        /* \"contracts/trace.sol\":5194:5404  for (uint256 i = 0; i < allTraces.length; i++) {... */\n      iszero\n      tag_148\n      jumpi\n        /* \"contracts/trace.sol\":5283:5290  _author */\n      dup8\n        /* \"contracts/trace.sol\":5260:5290  allTraces[i].author == _author */\n      0xffffffffffffffffffffffffffffffffffffffff\n      and\n        /* \"contracts/trace.sol\":5260:5269  allTraces */\n      dup6\n        /* \"contracts/trace.sol\":5270:5271  i */\n      dup3\n        /* \"contracts/trace.sol\":5260:5272  allTraces[i] */\n      dup2\n      sload\n      dup2\n      lt\n      tag_150\n      jumpi\n      tag_151\n      tag_106\n      jump\t// in\n    tag_151:\n    tag_150:\n      swap1\n      0x00\n      mstore\n      keccak256(0x00, 0x20)\n      swap1\n      0x04\n      mul\n      add\n        /* \"contracts/trace.sol\":5260:5279  allTraces[i].author */\n      0x03\n      add\n      0x00\n      swap1\n      sload\n      swap1\n      0x0100\n      exp\n      swap1\n      div\n      0xffffffffffffffffffffffffffffffffffffffff\n      and\n        /* \"contracts/trace.sol\":5260:5290  allTraces[i].author == _author */\n      0xffffffffffffffffffffffffffffffffffffffff\n      and\n      sub\n        /* \"contracts/trace.sol\":5256:5393  if (allTraces[i].author == _author) {... */\n      tag_153\n      jumpi\n        /* \"contracts/trace.sol\":5333:5342  allTraces */\n      dup5\n        /* \"contracts/trace.sol\":5343:5344  i */\n      dup2\n        /* \"contracts/trace.sol\":5333:5345  allTraces[i] */\n      dup2\n      sload\n      dup2\n      lt\n      tag_154\n      jumpi\n      tag_155\n      tag_106\n      jump\t// in\n    tag_155:\n    tag_154:\n      swap1\n      0x00\n      mstore\n      keccak256(0x00, 0x20)\n      swap1\n      0x04\n      mul\n      add\n        /* \"contracts/trace.sol\":5311:5345  result[resultIndex] = allTraces[i] */\n      mload(0x40)\n      dup1\n      0xa0\n      add\n      0x40\n      mstore\n      swap1\n      dup2\n      0x00\n      dup3\n      add\n      sload\n      dup2\n      mstore\n      0x20\n      add\n      0x01\n      dup3\n      add\n      dup1\n      sload\n      tag_157\n      swap1\n      tag_74\n      jump\t// in\n    tag_157:\n      dup1\n      0x1f\n      add\n      0x20\n      dup1\n      swap2\n      div\n      mul\n      0x20\n      add\n      mload(0x40)\n      swap1\n      dup2\n      add\n      0x40\n      mstore\n      dup1\n      swap3\n      swap2\n      swap1\n      dup2\n      dup2\n      mstore\n      0x20\n      add\n      dup3\n      dup1\n      sload\n      tag_158\n      swap1\n      tag_74\n      jump\t// in\n    tag_158:\n      dup1\n      iszero\n      tag_159\n      jumpi\n      dup1\n      0x1f\n      lt\n      tag_160\n      jumpi\n      0x0100\n      dup1\n      dup4\n      sload\n      div\n      mul\n      dup4\n      mstore\n      swap2\n      0x20\n      add\n      swap2\n      jump(tag_159)\n    tag_160:\n      dup3\n      add\n      swap2\n      swap1\n      0x00\n      mstore\n      keccak256(0x00, 0x20)\n      swap1\n    tag_161:\n      dup2\n      sload\n      dup2\n      mstore\n      swap1\n      0x01\n      add\n      swap1\n      0x20\n      add\n      dup1\n      dup4\n      gt\n      tag_161\n      jumpi\n      dup3\n      swap1\n      sub\n      0x1f\n      and\n      dup3\n      add\n      swap2\n    tag_159:\n      pop\n      pop\n      pop\n      pop\n      pop\n      dup2\n      mstore\n      0x20\n      add\n      0x02\n      dup3\n      add\n      sload\n      dup2\n      mstore\n      0x20\n      add\n      0x03\n      dup3\n      add\n      0x00\n      swap1\n      sload\n      swap1\n      0x0100\n      exp\n      swap1\n      div\n      0xffffffffffffffffffffffffffffffffffffffff\n      and\n      0xffffffffffffffffffffffffffffffffffffffff\n      and\n      0xffffffffffffffffffffffffffffffffffffffff\n      and\n      dup2\n      mstore\n      0x20\n      add\n      0x03\n      dup3\n      add\n      0x14\n      swap1\n      sload\n      swap1\n      0x0100\n      exp\n      swap1\n      div\n      0xff\n      and\n      0x01\n      dup2\n      gt\n      iszero\n      tag_162\n      jumpi\n      tag_163\n      tag_91\n      jump\t// in\n    tag_163:\n    tag_162:\n      0x01\n      dup2\n      gt\n      iszero\n      tag_164\n      jumpi\n      tag_165\n      tag_91\n      jump\t// in\n    tag_165:\n    tag_164:\n      dup2\n      mstore\n      pop\n      pop\n        /* \"contracts/trace.sol\":5311:5317  result */\n      dup4\n        /* \"contracts/trace.sol\":5318:5329  resultIndex */\n      dup4\n        /* \"contracts/trace.sol\":5311:5330  result[resultIndex] */\n      dup2\n      mload\n      dup2\n      lt\n      tag_166\n      jumpi\n      tag_167\n      tag_106\n      jump\t// in\n    tag_167:\n    tag_166:\n      0x20\n      mul\n      0x20\n      add\n      add\n        /* \"contracts/trace.sol\":5311:5345  result[resultIndex] = allTraces[i] */\n      dup2\n      swap1\n      mstore\n      pop\n        /* \"contracts/trace.sol\":5364:5377  resultIndex++ */\n      dup2\n      dup1\n      tag_168\n      swap1\n      tag_139\n      jump\t// in\n    tag_168:\n      swap3\n      pop\n      pop\n        /* \"contracts/trace.sol\":5256:5393  if (allTraces[i].author == _author) {... */\n    tag_153:\n        /* \"contracts/trace.sol\":5236:5239  i++ */\n      dup1\n      dup1\n      0x01\n      add\n      swap2\n      pop\n      pop\n        /* \"contracts/trace.sol\":5194:5404  for (uint256 i = 0; i < allTraces.length; i++) {... */\n      jump(tag_147)\n    tag_148:\n      pop\n        /* \"contracts/trace.sol\":5423:5429  result */\n      dup2\n        /* \"contracts/trace.sol\":5416:5429  return result */\n      swap6\n      pop\n      pop\n      pop\n      pop\n      pop\n        /* \"contracts/trace.sol\":4540:5437  function getProductTracesByAuthor(bytes32 _productId, address _author) ... */\n      pop\n      swap3\n      swap2\n      pop\n      pop\n      jump\t// out\n        /* \"contracts/trace.sol\":8992:9095  function getAllProductIds() public view returns (bytes32[] memory) {... */\n    tag_39:\n        /* \"contracts/trace.sol\":9041:9057  bytes32[] memory */\n      0x60\n        /* \"contracts/trace.sol\":9077:9087  productIds */\n      0x04\n        /* \"contracts/trace.sol\":9070:9087  return productIds */\n      dup1\n      sload\n      dup1\n      0x20\n      mul\n      0x20\n      add\n      mload(0x40)\n      swap1\n      dup2\n      add\n      0x40\n      mstore\n      dup1\n      swap3\n      swap2\n      swap1\n      dup2\n      dup2\n      mstore\n      0x20\n      add\n      dup3\n      dup1\n      sload\n      dup1\n      iszero\n      tag_170\n      jumpi\n      0x20\n      mul\n      dup3\n      add\n      swap2\n      swap1\n      0x00\n      mstore\n      keccak256(0x00, 0x20)\n      swap1\n    tag_171:\n      dup2\n      sload\n      dup2\n      mstore\n      0x20\n      add\n      swap1\n      0x01\n      add\n      swap1\n      dup1\n      dup4\n      gt\n      tag_171\n      jumpi\n    tag_170:\n      pop\n      pop\n      pop\n      pop\n      pop\n      swap1\n      pop\n        /* \"contracts/trace.sol\":8992:9095  function getAllProductIds() public view returns (bytes32[] memory) {... */\n      swap1\n      jump\t// out\n        /* \"contracts/trace.sol\":7184:8601  function getProductsByCodebar(string memory _codebar) ... */\n    tag_44:\n        /* \"contracts/trace.sol\":7303:7339  bytes32[] memory productIdsByCodebar */\n      0x60\n        /* \"contracts/trace.sol\":7354:7375  string[] memory names */\n      dup1\n        /* \"contracts/trace.sol\":7390:7418  string[] memory descriptions */\n      0x60\n        /* \"contracts/trace.sol\":7433:7460  uint256[] memory timestamps */\n      dup1\n        /* \"contracts/trace.sol\":7475:7499  address[] memory authors */\n      0x60\n        /* \"contracts/trace.sol\":7514:7535  State[] memory states */\n      dup1\n        /* \"contracts/trace.sol\":7597:7598  0 */\n      0x00\n        /* \"contracts/trace.sol\":7578:7586  _codebar */\n      dup8\n        /* \"contracts/trace.sol\":7572:7594  bytes(_codebar).length */\n      mload\n        /* \"contracts/trace.sol\":7572:7598  bytes(_codebar).length > 0 */\n      gt\n        /* \"contracts/trace.sol\":7564:7626  require(bytes(_codebar).length > 0, \"Codebar cannot be empty\") */\n      tag_173\n      jumpi\n      mload(0x40)\n      0x08c379a000000000000000000000000000000000000000000000000000000000\n      dup2\n      mstore\n      0x04\n      add\n      tag_174\n      swap1\n      tag_175\n      jump\t// in\n    tag_174:\n      mload(0x40)\n      dup1\n      swap2\n      sub\n      swap1\n      revert\n    tag_173:\n        /* \"contracts/trace.sol\":7647:7675  bytes32[] memory matchingIds */\n      0x00\n        /* \"contracts/trace.sol\":7678:7695  codebarToProducts */\n      0x03\n        /* \"contracts/trace.sol\":7696:7704  _codebar */\n      dup9\n        /* \"contracts/trace.sol\":7678:7705  codebarToProducts[_codebar] */\n      mload(0x40)\n      tag_176\n      swap2\n      swap1\n      tag_96\n      jump\t// in\n    tag_176:\n      swap1\n      dup2\n      mstore\n      0x20\n      add\n      mload(0x40)\n      dup1\n      swap2\n      sub\n      swap1\n      keccak256\n        /* \"contracts/trace.sol\":7647:7705  bytes32[] memory matchingIds = codebarToProducts[_codebar] */\n      dup1\n      sload\n      dup1\n      0x20\n      mul\n      0x20\n      add\n      mload(0x40)\n      swap1\n      dup2\n      add\n      0x40\n      mstore\n      dup1\n      swap3\n      swap2\n      swap1\n      dup2\n      dup2\n      mstore\n      0x20\n      add\n      dup3\n      dup1\n      sload\n      dup1\n      iszero\n      tag_177\n      jumpi\n      0x20\n      mul\n      dup3\n      add\n      swap2\n      swap1\n      0x00\n      mstore\n      keccak256(0x00, 0x20)\n      swap1\n    tag_178:\n      dup2\n      sload\n      dup2\n      mstore\n      0x20\n      add\n      swap1\n      0x01\n      add\n      swap1\n      dup1\n      dup4\n      gt\n      tag_178\n      jumpi\n    tag_177:\n      pop\n      pop\n      pop\n      pop\n      pop\n      swap1\n      pop\n        /* \"contracts/trace.sol\":7745:7746  0 */\n      0x00\n        /* \"contracts/trace.sol\":7724:7735  matchingIds */\n      dup2\n        /* \"contracts/trace.sol\":7724:7742  matchingIds.length */\n      mload\n        /* \"contracts/trace.sol\":7724:7746  matchingIds.length > 0 */\n      gt\n        /* \"contracts/trace.sol\":7716:7786  require(matchingIds.length > 0, \"No products found with this codebar\") */\n      tag_179\n      jumpi\n      mload(0x40)\n      0x08c379a000000000000000000000000000000000000000000000000000000000\n      dup2\n      mstore\n      0x04\n      add\n      tag_180\n      swap1\n      tag_181\n      jump\t// in\n    tag_180:\n      mload(0x40)\n      dup1\n      swap2\n      sub\n      swap1\n      revert\n    tag_179:\n        /* \"contracts/trace.sol\":7872:7883  matchingIds */\n      dup1\n        /* \"contracts/trace.sol\":7872:7890  matchingIds.length */\n      mload\n        /* \"contracts/trace.sol\":7859:7891  new string[](matchingIds.length) */\n      0xffffffffffffffff\n      dup2\n      gt\n      iszero\n      tag_182\n      jumpi\n      tag_183\n      tag_142\n      jump\t// in\n    tag_183:\n    tag_182:\n      mload(0x40)\n      swap1\n      dup1\n      dup3\n      mstore\n      dup1\n      0x20\n      mul\n      0x20\n      add\n      dup3\n      add\n      0x40\n      mstore\n      dup1\n      iszero\n      tag_184\n      jumpi\n      dup2\n      0x20\n      add\n    tag_185:\n      0x60\n      dup2\n      mstore\n      0x20\n      add\n      swap1\n      0x01\n      swap1\n      sub\n      swap1\n      dup2\n      tag_185\n      jumpi\n      swap1\n      pop\n    tag_184:\n      pop\n        /* \"contracts/trace.sol\":7851:7891  names = new string[](matchingIds.length) */\n      swap6\n      pop\n        /* \"contracts/trace.sol\":7930:7941  matchingIds */\n      dup1\n        /* \"contracts/trace.sol\":7930:7948  matchingIds.length */\n      mload\n        /* \"contracts/trace.sol\":7917:7949  new string[](matchingIds.length) */\n      0xffffffffffffffff\n      dup2\n      gt\n      iszero\n      tag_186\n      jumpi\n      tag_187\n      tag_142\n      jump\t// in\n    tag_187:\n    tag_186:\n      mload(0x40)\n      swap1\n      dup1\n      dup3\n      mstore\n      dup1\n      0x20\n      mul\n      0x20\n      add\n      dup3\n      add\n      0x40\n      mstore\n      dup1\n      iszero\n      tag_188\n      jumpi\n      dup2\n      0x20\n      add\n    tag_189:\n      0x60\n      dup2\n      mstore\n      0x20\n      add\n      swap1\n      0x01\n      swap1\n      sub\n      swap1\n      dup2\n      tag_189\n      jumpi\n      swap1\n      pop\n    tag_188:\n      pop\n        /* \"contracts/trace.sol\":7902:7949  descriptions = new string[](matchingIds.length) */\n      swap5\n      pop\n        /* \"contracts/trace.sol\":7987:7998  matchingIds */\n      dup1\n        /* \"contracts/trace.sol\":7987:8005  matchingIds.length */\n      mload\n        /* \"contracts/trace.sol\":7973:8006  new uint256[](matchingIds.length) */\n      0xffffffffffffffff\n      dup2\n      gt\n      iszero\n      tag_190\n      jumpi\n      tag_191\n      tag_142\n      jump\t// in\n    tag_191:\n    tag_190:\n      mload(0x40)\n      swap1\n      dup1\n      dup3\n      mstore\n      dup1\n      0x20\n      mul\n      0x20\n      add\n      dup3\n      add\n      0x40\n      mstore\n      dup1\n      iszero\n      tag_192\n      jumpi\n      dup2\n      0x20\n      add\n      0x20\n      dup3\n      mul\n      dup1\n      calldatasize\n      dup4\n      calldatacopy\n      dup1\n      dup3\n      add\n      swap2\n      pop\n      pop\n      swap1\n      pop\n    tag_192:\n      pop\n        /* \"contracts/trace.sol\":7960:8006  timestamps = new uint256[](matchingIds.length) */\n      swap4\n      pop\n        /* \"contracts/trace.sol\":8041:8052  matchingIds */\n      dup1\n        /* \"contracts/trace.sol\":8041:8059  matchingIds.length */\n      mload\n        /* \"contracts/trace.sol\":8027:8060  new address[](matchingIds.length) */\n      0xffffffffffffffff\n      dup2\n      gt\n      iszero\n      tag_193\n      jumpi\n      tag_194\n      tag_142\n      jump\t// in\n    tag_194:\n    tag_193:\n      mload(0x40)\n      swap1\n      dup1\n      dup3\n      mstore\n      dup1\n      0x20\n      mul\n      0x20\n      add\n      dup3\n      add\n      0x40\n      mstore\n      dup1\n      iszero\n      tag_195\n      jumpi\n      dup2\n      0x20\n      add\n      0x20\n      dup3\n      mul\n      dup1\n      calldatasize\n      dup4\n      calldatacopy\n      dup1\n      dup3\n      add\n      swap2\n      pop\n      pop\n      swap1\n      pop\n    tag_195:\n      pop\n        /* \"contracts/trace.sol\":8017:8060  authors = new address[](matchingIds.length) */\n      swap3\n      pop\n        /* \"contracts/trace.sol\":8092:8103  matchingIds */\n      dup1\n        /* \"contracts/trace.sol\":8092:8110  matchingIds.length */\n      mload\n        /* \"contracts/trace.sol\":8080:8111  new State[](matchingIds.length) */\n      0xffffffffffffffff\n      dup2\n      gt\n      iszero\n      tag_196\n      jumpi\n      tag_197\n      tag_142\n      jump\t// in\n    tag_197:\n    tag_196:\n      mload(0x40)\n      swap1\n      dup1\n      dup3\n      mstore\n      dup1\n      0x20\n      mul\n      0x20\n      add\n      dup3\n      add\n      0x40\n      mstore\n      dup1\n      iszero\n      tag_198\n      jumpi\n      dup2\n      0x20\n      add\n      0x20\n      dup3\n      mul\n      dup1\n      calldatasize\n      dup4\n      calldatacopy\n      dup1\n      dup3\n      add\n      swap2\n      pop\n      pop\n      swap1\n      pop\n    tag_198:\n      pop\n        /* \"contracts/trace.sol\":8071:8111  states = new State[](matchingIds.length) */\n      swap2\n      pop\n        /* \"contracts/trace.sol\":8171:8180  uint256 i */\n      0x00\n        /* \"contracts/trace.sol\":8166:8511  for (uint256 i = 0; i < matchingIds.length; i++) {... */\n    tag_199:\n        /* \"contracts/trace.sol\":8190:8201  matchingIds */\n      dup2\n        /* \"contracts/trace.sol\":8190:8208  matchingIds.length */\n      mload\n        /* \"contracts/trace.sol\":8186:8187  i */\n      dup2\n        /* \"contracts/trace.sol\":8186:8208  i < matchingIds.length */\n      lt\n        /* \"contracts/trace.sol\":8166:8511  for (uint256 i = 0; i < matchingIds.length; i++) {... */\n      iszero\n      tag_200\n      jumpi\n        /* \"contracts/trace.sol\":8230:8252  Product memory product */\n      0x00\n        /* \"contracts/trace.sol\":8255:8263  products */\n      dup1\n        /* \"contracts/trace.sol\":8255:8279  products[matchingIds[i]] */\n      0x00\n        /* \"contracts/trace.sol\":8264:8275  matchingIds */\n      dup5\n        /* \"contracts/trace.sol\":8276:8277  i */\n      dup5\n        /* \"contracts/trace.sol\":8264:8278  matchingIds[i] */\n      dup2\n      mload\n      dup2\n      lt\n      tag_202\n      jumpi\n      tag_203\n      tag_106\n      jump\t// in\n    tag_203:\n    tag_202:\n      0x20\n      mul\n      0x20\n      add\n      add\n      mload\n        /* \"contracts/trace.sol\":8255:8279  products[matchingIds[i]] */\n      dup2\n      mstore\n      0x20\n      add\n      swap1\n      dup2\n      mstore\n      0x20\n      add\n      0x00\n      keccak256\n        /* \"contracts/trace.sol\":8230:8279  Product memory product = products[matchingIds[i]] */\n      mload(0x40)\n      dup1\n      0x0100\n      add\n      0x40\n      mstore\n      swap1\n      dup2\n      0x00\n      dup3\n      add\n      sload\n      dup2\n      mstore\n      0x20\n      add\n      0x01\n      dup3\n      add\n      dup1\n      sload\n      tag_204\n      swap1\n      tag_74\n      jump\t// in\n    tag_204:\n      dup1\n      0x1f\n      add\n      0x20\n      dup1\n      swap2\n      div\n      mul\n      0x20\n      add\n      mload(0x40)\n      swap1\n      dup2\n      add\n      0x40\n      mstore\n      dup1\n      swap3\n      swap2\n      swap1\n      dup2\n      dup2\n      mstore\n      0x20\n      add\n      dup3\n      dup1\n      sload\n      tag_205\n      swap1\n      tag_74\n      jump\t// in\n    tag_205:\n      dup1\n      iszero\n      tag_206\n      jumpi\n      dup1\n      0x1f\n      lt\n      tag_207\n      jumpi\n      0x0100\n      dup1\n      dup4\n      sload\n      div\n      mul\n      dup4\n      mstore\n      swap2\n      0x20\n      add\n      swap2\n      jump(tag_206)\n    tag_207:\n      dup3\n      add\n      swap2\n      swap1\n      0x00\n      mstore\n      keccak256(0x00, 0x20)\n      swap1\n    tag_208:\n      dup2\n      sload\n      dup2\n      mstore\n      swap1\n      0x01\n      add\n      swap1\n      0x20\n      add\n      dup1\n      dup4\n      gt\n      tag_208\n      jumpi\n      dup3\n      swap1\n      sub\n      0x1f\n      and\n      dup3\n      add\n      swap2\n    tag_206:\n      pop\n      pop\n      pop\n      pop\n      pop\n      dup2\n      mstore\n      0x20\n      add\n      0x02\n      dup3\n      add\n      dup1\n      sload\n      tag_209\n      swap1\n      tag_74\n      jump\t// in\n    tag_209:\n      dup1\n      0x1f\n      add\n      0x20\n      dup1\n      swap2\n      div\n      mul\n      0x20\n      add\n      mload(0x40)\n      swap1\n      dup2\n      add\n      0x40\n      mstore\n      dup1\n      swap3\n      swap2\n      swap1\n      dup2\n      dup2\n      mstore\n      0x20\n      add\n      dup3\n      dup1\n      sload\n      tag_210\n      swap1\n      tag_74\n      jump\t// in\n    tag_210:\n      dup1\n      iszero\n      tag_211\n      jumpi\n      dup1\n      0x1f\n      lt\n      tag_212\n      jumpi\n      0x0100\n      dup1\n      dup4\n      sload\n      div\n      mul\n      dup4\n      mstore\n      swap2\n      0x20\n      add\n      swap2\n      jump(tag_211)\n    tag_212:\n      dup3\n      add\n      swap2\n      swap1\n      0x00\n      mstore\n      keccak256(0x00, 0x20)\n      swap1\n    tag_213:\n      dup2\n      sload\n      dup2\n      mstore\n      swap1\n      0x01\n      add\n      swap1\n      0x20\n      add\n      dup1\n      dup4\n      gt\n      tag_213\n      jumpi\n      dup3\n      swap1\n      sub\n      0x1f\n      and\n      dup3\n      add\n      swap2\n    tag_211:\n      pop\n      pop\n      pop\n      pop\n      pop\n      dup2\n      mstore\n      0x20\n      add\n      0x03\n      dup3\n      add\n      dup1\n      sload\n      tag_214\n      swap1\n      tag_74\n      jump\t// in\n    tag_214:\n      dup1\n      0x1f\n      add\n      0x20\n      dup1\n      swap2\n      div\n      mul\n      0x20\n      add\n      mload(0x40)\n      swap1\n      dup2\n      add\n      0x40\n      mstore\n      dup1\n      swap3\n      swap2\n      swap1\n      dup2\n      dup2\n      mstore\n      0x20\n      add\n      dup3\n      dup1\n      sload\n      tag_215\n      swap1\n      tag_74\n      jump\t// in\n    tag_215:\n      dup1\n      iszero\n      tag_216\n      jumpi\n      dup1\n      0x1f\n      lt\n      tag_217\n      jumpi\n      0x0100\n      dup1\n      dup4\n      sload\n      div\n      mul\n      dup4\n      mstore\n      swap2\n      0x20\n      add\n      swap2\n      jump(tag_216)\n    tag_217:\n      dup3\n      add\n      swap2\n      swap1\n      0x00\n      mstore\n      keccak256(0x00, 0x20)\n      swap1\n    tag_218:\n      dup2\n      sload\n      dup2\n      mstore\n      swap1\n      0x01\n      add\n      swap1\n      0x20\n      add\n      dup1\n      dup4\n      gt\n      tag_218\n      jumpi\n      dup3\n      swap1\n      sub\n      0x1f\n      and\n      dup3\n      add\n      swap2\n    tag_216:\n      pop\n      pop\n      pop\n      pop\n      pop\n      dup2\n      mstore\n      0x20\n      add\n      0x04\n      dup3\n      add\n      sload\n      dup2\n      mstore\n      0x20\n      add\n      0x05\n      dup3\n      add\n      0x00\n      swap1\n      sload\n      swap1\n      0x0100\n      exp\n      swap1\n      div\n      0xffffffffffffffffffffffffffffffffffffffff\n      and\n      0xffffffffffffffffffffffffffffffffffffffff\n      and\n      0xffffffffffffffffffffffffffffffffffffffff\n      and\n      dup2\n      mstore\n      0x20\n      add\n      0x05\n      dup3\n      add\n      0x14\n      swap1\n      sload\n      swap1\n      0x0100\n      exp\n      swap1\n      div\n      0xff\n      and\n      0x01\n      dup2\n      gt\n      iszero\n      tag_219\n      jumpi\n      tag_220\n      tag_91\n      jump\t// in\n    tag_220:\n    tag_219:\n      0x01\n      dup2\n      gt\n      iszero\n      tag_221\n      jumpi\n      tag_222\n      tag_91\n      jump\t// in\n    tag_222:\n    tag_221:\n      dup2\n      mstore\n      0x20\n      add\n      0x05\n      dup3\n      add\n      0x15\n      swap1\n      sload\n      swap1\n      0x0100\n      exp\n      swap1\n      div\n      0xff\n      and\n      iszero\n      iszero\n      iszero\n      iszero\n      dup2\n      mstore\n      pop\n      pop\n      swap1\n      pop\n        /* \"contracts/trace.sol\":8305:8312  product */\n      dup1\n        /* \"contracts/trace.sol\":8305:8317  product.name */\n      0x40\n      add\n      mload\n        /* \"contracts/trace.sol\":8294:8299  names */\n      dup9\n        /* \"contracts/trace.sol\":8300:8301  i */\n      dup4\n        /* \"contracts/trace.sol\":8294:8302  names[i] */\n      dup2\n      mload\n      dup2\n      lt\n      tag_223\n      jumpi\n      tag_224\n      tag_106\n      jump\t// in\n    tag_224:\n    tag_223:\n      0x20\n      mul\n      0x20\n      add\n      add\n        /* \"contracts/trace.sol\":8294:8317  names[i] = product.name */\n      dup2\n      swap1\n      mstore\n      pop\n        /* \"contracts/trace.sol\":8350:8357  product */\n      dup1\n        /* \"contracts/trace.sol\":8350:8369  product.description */\n      0x60\n      add\n      mload\n        /* \"contracts/trace.sol\":8332:8344  descriptions */\n      dup8\n        /* \"contracts/trace.sol\":8345:8346  i */\n      dup4\n        /* \"contracts/trace.sol\":8332:8347  descriptions[i] */\n      dup2\n      mload\n      dup2\n      lt\n      tag_225\n      jumpi\n      tag_226\n      tag_106\n      jump\t// in\n    tag_226:\n    tag_225:\n      0x20\n      mul\n      0x20\n      add\n      add\n        /* \"contracts/trace.sol\":8332:8369  descriptions[i] = product.description */\n      dup2\n      swap1\n      mstore\n      pop\n        /* \"contracts/trace.sol\":8400:8407  product */\n      dup1\n        /* \"contracts/trace.sol\":8400:8417  product.timestamp */\n      0x80\n      add\n      mload\n        /* \"contracts/trace.sol\":8384:8394  timestamps */\n      dup7\n        /* \"contracts/trace.sol\":8395:8396  i */\n      dup4\n        /* \"contracts/trace.sol\":8384:8397  timestamps[i] */\n      dup2\n      mload\n      dup2\n      lt\n      tag_227\n      jumpi\n      tag_228\n      tag_106\n      jump\t// in\n    tag_228:\n    tag_227:\n      0x20\n      mul\n      0x20\n      add\n      add\n        /* \"contracts/trace.sol\":8384:8417  timestamps[i] = product.timestamp */\n      dup2\n      dup2\n      mstore\n      pop\n      pop\n        /* \"contracts/trace.sol\":8445:8452  product */\n      dup1\n        /* \"contracts/trace.sol\":8445:8459  product.author */\n      0xa0\n      add\n      mload\n        /* \"contracts/trace.sol\":8432:8439  authors */\n      dup6\n        /* \"contracts/trace.sol\":8440:8441  i */\n      dup4\n        /* \"contracts/trace.sol\":8432:8442  authors[i] */\n      dup2\n      mload\n      dup2\n      lt\n      tag_229\n      jumpi\n      tag_230\n      tag_106\n      jump\t// in\n    tag_230:\n    tag_229:\n      0x20\n      mul\n      0x20\n      add\n      add\n        /* \"contracts/trace.sol\":8432:8459  authors[i] = product.author */\n      swap1\n      0xffffffffffffffffffffffffffffffffffffffff\n      and\n      swap1\n      dup2\n      0xffffffffffffffffffffffffffffffffffffffff\n      and\n      dup2\n      mstore\n      pop\n      pop\n        /* \"contracts/trace.sol\":8486:8493  product */\n      dup1\n        /* \"contracts/trace.sol\":8486:8499  product.state */\n      0xc0\n      add\n      mload\n        /* \"contracts/trace.sol\":8474:8480  states */\n      dup5\n        /* \"contracts/trace.sol\":8481:8482  i */\n      dup4\n        /* \"contracts/trace.sol\":8474:8483  states[i] */\n      dup2\n      mload\n      dup2\n      lt\n      tag_231\n      jumpi\n      tag_232\n      tag_106\n      jump\t// in\n    tag_232:\n    tag_231:\n      0x20\n      mul\n      0x20\n      add\n      add\n        /* \"contracts/trace.sol\":8474:8499  states[i] = product.state */\n      swap1\n      0x01\n      dup2\n      gt\n      iszero\n      tag_233\n      jumpi\n      tag_234\n      tag_91\n      jump\t// in\n    tag_234:\n    tag_233:\n      swap1\n      dup2\n      0x01\n      dup2\n      gt\n      iszero\n      tag_235\n      jumpi\n      tag_236\n      tag_91\n      jump\t// in\n    tag_236:\n    tag_235:\n      dup2\n      mstore\n      pop\n      pop\n        /* \"contracts/trace.sol\":8215:8511  {... */\n      pop\n        /* \"contracts/trace.sol\":8210:8213  i++ */\n      dup1\n      dup1\n      0x01\n      add\n      swap2\n      pop\n      pop\n        /* \"contracts/trace.sol\":8166:8511  for (uint256 i = 0; i < matchingIds.length; i++) {... */\n      jump(tag_199)\n    tag_200:\n      pop\n        /* \"contracts/trace.sol\":8531:8542  matchingIds */\n      dup1\n        /* \"contracts/trace.sol\":8523:8593  return (matchingIds, names, descriptions, timestamps, authors, states) */\n      swap7\n      pop\n      pop\n        /* \"contracts/trace.sol\":7184:8601  function getProductsByCodebar(string memory _codebar) ... */\n      swap2\n      swap4\n      swap6\n      pop\n      swap2\n      swap4\n      swap6\n      jump\t// out\n        /* \"contracts/trace.sol\":3580:4319  function addTrace(bytes32 _productId, string memory _description) ... */\n    tag_50:\n        /* \"contracts/trace.sol\":3687:3697  _productId */\n      dup2\n        /* \"contracts/trace.sol\":1256:1264  products */\n      0x00\n        /* \"contracts/trace.sol\":1256:1276  products[_productId] */\n      dup1\n        /* \"contracts/trace.sol\":1265:1275  _productId */\n      dup3\n        /* \"contracts/trace.sol\":1256:1276  products[_productId] */\n      dup2\n      mstore\n      0x20\n      add\n      swap1\n      dup2\n      mstore\n      0x20\n      add\n      0x00\n      keccak256\n        /* \"contracts/trace.sol\":1256:1283  products[_productId].exists */\n      0x05\n      add\n      0x15\n      swap1\n      sload\n      swap1\n      0x0100\n      exp\n      swap1\n      div\n      0xff\n      and\n        /* \"contracts/trace.sol\":1248:1310  require(products[_productId].exists, \"Product does not exist\") */\n      tag_238\n      jumpi\n      mload(0x40)\n      0x08c379a000000000000000000000000000000000000000000000000000000000\n      dup2\n      mstore\n      0x04\n      add\n      tag_239\n      swap1\n      tag_71\n      jump\t// in\n    tag_239:\n      mload(0x40)\n      dup1\n      swap2\n      sub\n      swap1\n      revert\n    tag_238:\n        /* \"contracts/trace.sol\":3722:3732  _productId */\n      dup3\n        /* \"contracts/trace.sol\":1430:1442  State.Active */\n      0x00\n        /* \"contracts/trace.sol\":1400:1442  products[_productId].state == State.Active */\n      0x01\n      dup2\n      gt\n      iszero\n      tag_241\n      jumpi\n      tag_242\n      tag_91\n      jump\t// in\n    tag_242:\n    tag_241:\n        /* \"contracts/trace.sol\":1400:1408  products */\n      0x00\n        /* \"contracts/trace.sol\":1400:1420  products[_productId] */\n      dup1\n        /* \"contracts/trace.sol\":1409:1419  _productId */\n      dup4\n        /* \"contracts/trace.sol\":1400:1420  products[_productId] */\n      dup2\n      mstore\n      0x20\n      add\n      swap1\n      dup2\n      mstore\n      0x20\n      add\n      0x00\n      keccak256\n        /* \"contracts/trace.sol\":1400:1426  products[_productId].state */\n      0x05\n      add\n      0x14\n      swap1\n      sload\n      swap1\n      0x0100\n      exp\n      swap1\n      div\n      0xff\n      and\n        /* \"contracts/trace.sol\":1400:1442  products[_productId].state == State.Active */\n      0x01\n      dup2\n      gt\n      iszero\n      tag_243\n      jumpi\n      tag_244\n      tag_91\n      jump\t// in\n    tag_244:\n    tag_243:\n      eq\n        /* \"contracts/trace.sol\":1392:1465  require(products[_productId].state == State.Active, \"Product not active\") */\n      tag_245\n      jumpi\n      mload(0x40)\n      0x08c379a000000000000000000000000000000000000000000000000000000000\n      dup2\n      mstore\n      0x04\n      add\n      tag_246\n      swap1\n      tag_247\n      jump\t// in\n    tag_246:\n      mload(0x40)\n      dup1\n      swap2\n      sub\n      swap1\n      revert\n    tag_245:\n        /* \"contracts/trace.sol\":3787:3788  0 */\n      0x00\n        /* \"contracts/trace.sol\":3764:3776  _description */\n      dup4\n        /* \"contracts/trace.sol\":3758:3784  bytes(_description).length */\n      mload\n        /* \"contracts/trace.sol\":3758:3788  bytes(_description).length > 0 */\n      gt\n        /* \"contracts/trace.sol\":3750:3826  require(bytes(_description).length > 0, \"Trace description cannot be empty\") */\n      tag_249\n      jumpi\n      mload(0x40)\n      0x08c379a000000000000000000000000000000000000000000000000000000000\n      dup2\n      mstore\n      0x04\n      add\n      tag_250\n      swap1\n      tag_251\n      jump\t// in\n    tag_250:\n      mload(0x40)\n      dup1\n      swap2\n      sub\n      swap1\n      revert\n    tag_249:\n        /* \"contracts/trace.sol\":3839:3854  bytes32 traceId */\n      0x00\n        /* \"contracts/trace.sol\":3884:3894  _productId */\n      dup5\n        /* \"contracts/trace.sol\":3896:3911  block.timestamp */\n      timestamp\n        /* \"contracts/trace.sol\":3913:3923  msg.sender */\n      caller\n        /* \"contracts/trace.sol\":3925:3937  _description */\n      dup7\n        /* \"contracts/trace.sol\":3867:3938  abi.encodePacked(_productId, block.timestamp, msg.sender, _description) */\n      add(0x20, mload(0x40))\n      tag_252\n      swap5\n      swap4\n      swap3\n      swap2\n      swap1\n      tag_253\n      jump\t// in\n    tag_252:\n      mload(0x40)\n      0x20\n      dup2\n      dup4\n      sub\n      sub\n      dup2\n      mstore\n      swap1\n      0x40\n      mstore\n        /* \"contracts/trace.sol\":3857:3939  keccak256(abi.encodePacked(_productId, block.timestamp, msg.sender, _description)) */\n      dup1\n      mload\n      swap1\n      0x20\n      add\n      keccak256\n        /* \"contracts/trace.sol\":3839:3939  bytes32 traceId = keccak256(abi.encodePacked(_productId, block.timestamp, msg.sender, _description)) */\n      swap1\n      pop\n        /* \"contracts/trace.sol\":3950:3971  Trace memory newTrace */\n      0x00\n        /* \"contracts/trace.sol\":3974:4121  Trace(... */\n      mload(0x40)\n      dup1\n      0xa0\n      add\n      0x40\n      mstore\n      dup1\n        /* \"contracts/trace.sol\":3994:4001  traceId */\n      dup4\n        /* \"contracts/trace.sol\":3974:4121  Trace(... */\n      dup2\n      mstore\n      0x20\n      add\n        /* \"contracts/trace.sol\":4016:4028  _description */\n      dup7\n        /* \"contracts/trace.sol\":3974:4121  Trace(... */\n      dup2\n      mstore\n      0x20\n      add\n        /* \"contracts/trace.sol\":4043:4058  block.timestamp */\n      timestamp\n        /* \"contracts/trace.sol\":3974:4121  Trace(... */\n      dup2\n      mstore\n      0x20\n      add\n        /* \"contracts/trace.sol\":4073:4083  msg.sender */\n      caller\n        /* \"contracts/trace.sol\":3974:4121  Trace(... */\n      0xffffffffffffffffffffffffffffffffffffffff\n      and\n      dup2\n      mstore\n      0x20\n      add\n        /* \"contracts/trace.sol\":4098:4110  State.Active */\n      0x00\n        /* \"contracts/trace.sol\":3974:4121  Trace(... */\n      0x01\n      dup2\n      gt\n      iszero\n      tag_254\n      jumpi\n      tag_255\n      tag_91\n      jump\t// in\n    tag_255:\n    tag_254:\n      dup2\n      mstore\n      pop\n        /* \"contracts/trace.sol\":3950:4121  Trace memory newTrace = Trace(... */\n      swap1\n      pop\n        /* \"contracts/trace.sol\":4134:4147  productTraces */\n      0x01\n        /* \"contracts/trace.sol\":4134:4159  productTraces[_productId] */\n      0x00\n        /* \"contracts/trace.sol\":4148:4158  _productId */\n      dup8\n        /* \"contracts/trace.sol\":4134:4159  productTraces[_productId] */\n      dup2\n      mstore\n      0x20\n      add\n      swap1\n      dup2\n      mstore\n      0x20\n      add\n      0x00\n      keccak256\n        /* \"contracts/trace.sol\":4165:4173  newTrace */\n      dup2\n        /* \"contracts/trace.sol\":4134:4174  productTraces[_productId].push(newTrace) */\n      swap1\n      dup1\n      0x01\n      dup2\n      sload\n      add\n      dup1\n      dup3\n      sstore\n      dup1\n      swap2\n      pop\n      pop\n      0x01\n      swap1\n      sub\n      swap1\n      0x00\n      mstore\n      keccak256(0x00, 0x20)\n      swap1\n      0x04\n      mul\n      add\n      0x00\n      swap1\n      swap2\n      swap1\n      swap2\n      swap1\n      swap2\n      pop\n      0x00\n      dup3\n      add\n      mload\n      dup2\n      0x00\n      add\n      sstore\n      0x20\n      dup3\n      add\n      mload\n      dup2\n      0x01\n      add\n      swap1\n      dup2\n      tag_257\n      swap2\n      swap1\n      tag_258\n      jump\t// in\n    tag_257:\n      pop\n      0x40\n      dup3\n      add\n      mload\n      dup2\n      0x02\n      add\n      sstore\n      0x60\n      dup3\n      add\n      mload\n      dup2\n      0x03\n      add\n      exp(0x0100, 0x00)\n      dup2\n      sload\n      dup2\n      0xffffffffffffffffffffffffffffffffffffffff\n      mul\n      not\n      and\n      swap1\n      dup4\n      0xffffffffffffffffffffffffffffffffffffffff\n      and\n      mul\n      or\n      swap1\n      sstore\n      pop\n      0x80\n      dup3\n      add\n      mload\n      dup2\n      0x03\n      add\n      exp(0x0100, 0x14)\n      dup2\n      sload\n      dup2\n      0xff\n      mul\n      not\n      and\n      swap1\n      dup4\n      0x01\n      dup2\n      gt\n      iszero\n      tag_259\n      jumpi\n      tag_260\n      tag_91\n      jump\t// in\n    tag_260:\n    tag_259:\n      mul\n      or\n      swap1\n      sstore\n      pop\n      pop\n      pop\n        /* \"contracts/trace.sol\":4211:4221  _productId */\n      dup6\n        /* \"contracts/trace.sol\":4185:4199  traceToProduct */\n      0x02\n        /* \"contracts/trace.sol\":4185:4208  traceToProduct[traceId] */\n      0x00\n        /* \"contracts/trace.sol\":4200:4207  traceId */\n      dup5\n        /* \"contracts/trace.sol\":4185:4208  traceToProduct[traceId] */\n      dup2\n      mstore\n      0x20\n      add\n      swap1\n      dup2\n      mstore\n      0x20\n      add\n      0x00\n      keccak256\n        /* \"contracts/trace.sol\":4185:4221  traceToProduct[traceId] = _productId */\n      dup2\n      swap1\n      sstore\n      pop\n        /* \"contracts/trace.sol\":4260:4267  traceId */\n      dup2\n        /* \"contracts/trace.sol\":4248:4258  _productId */\n      dup7\n        /* \"contracts/trace.sol\":4237:4311  TraceAdded(_productId, traceId, _description, block.timestamp, msg.sender) */\n      0xfc7f09d226b2e852bd3f04f352adab8a4e00b078d16e635f5a5102e2ac721fc8\n        /* \"contracts/trace.sol\":4269:4281  _description */\n      dup8\n        /* \"contracts/trace.sol\":4283:4298  block.timestamp */\n      timestamp\n        /* \"contracts/trace.sol\":4300:4310  msg.sender */\n      caller\n        /* \"contracts/trace.sol\":4237:4311  TraceAdded(_productId, traceId, _description, block.timestamp, msg.sender) */\n      mload(0x40)\n      tag_261\n      swap4\n      swap3\n      swap2\n      swap1\n      tag_262\n      jump\t// in\n    tag_261:\n      mload(0x40)\n      dup1\n      swap2\n      sub\n      swap1\n      log3\n        /* \"contracts/trace.sol\":3739:4319  {... */\n      pop\n      pop\n        /* \"contracts/trace.sol\":1321:1322  _ */\n      pop\n        /* \"contracts/trace.sol\":3580:4319  function addTrace(bytes32 _productId, string memory _description) ... */\n      pop\n      pop\n      pop\n      jump\t// out\n        /* \"contracts/trace.sol\":8609:8792  function hasProductsWithCodebar(string memory _codebar) ... */\n    tag_53:\n        /* \"contracts/trace.sol\":8716:8720  bool */\n      0x00\n        /* \"contracts/trace.sol\":8783:8784  0 */\n      dup1\n        /* \"contracts/trace.sol\":8746:8763  codebarToProducts */\n      0x03\n        /* \"contracts/trace.sol\":8764:8772  _codebar */\n      dup4\n        /* \"contracts/trace.sol\":8746:8773  codebarToProducts[_codebar] */\n      mload(0x40)\n      tag_264\n      swap2\n      swap1\n      tag_96\n      jump\t// in\n    tag_264:\n      swap1\n      dup2\n      mstore\n      0x20\n      add\n      mload(0x40)\n      dup1\n      swap2\n      sub\n      swap1\n      keccak256\n        /* \"contracts/trace.sol\":8746:8780  codebarToProducts[_codebar].length */\n      dup1\n      sload\n      swap1\n      pop\n        /* \"contracts/trace.sol\":8746:8784  codebarToProducts[_codebar].length > 0 */\n      gt\n        /* \"contracts/trace.sol\":8739:8784  return codebarToProducts[_codebar].length > 0 */\n      swap1\n      pop\n        /* \"contracts/trace.sol\":8609:8792  function hasProductsWithCodebar(string memory _codebar) ... */\n      swap2\n      swap1\n      pop\n      jump\t// out\n        /* \"contracts/trace.sol\":5445:5671  function setProductState(bytes32 _productId, State _state) ... */\n    tag_59:\n        /* \"contracts/trace.sol\":5545:5555  _productId */\n      dup2\n        /* \"contracts/trace.sol\":1256:1264  products */\n      0x00\n        /* \"contracts/trace.sol\":1256:1276  products[_productId] */\n      dup1\n        /* \"contracts/trace.sol\":1265:1275  _productId */\n      dup3\n        /* \"contracts/trace.sol\":1256:1276  products[_productId] */\n      dup2\n      mstore\n      0x20\n      add\n      swap1\n      dup2\n      mstore\n      0x20\n      add\n      0x00\n      keccak256\n        /* \"contracts/trace.sol\":1256:1283  products[_productId].exists */\n      0x05\n      add\n      0x15\n      swap1\n      sload\n      swap1\n      0x0100\n      exp\n      swap1\n      div\n      0xff\n      and\n        /* \"contracts/trace.sol\":1248:1310  require(products[_productId].exists, \"Product does not exist\") */\n      tag_266\n      jumpi\n      mload(0x40)\n      0x08c379a000000000000000000000000000000000000000000000000000000000\n      dup2\n      mstore\n      0x04\n      add\n      tag_267\n      swap1\n      tag_71\n      jump\t// in\n    tag_267:\n      mload(0x40)\n      dup1\n      swap2\n      sub\n      swap1\n      revert\n    tag_266:\n        /* \"contracts/trace.sol\":5602:5608  _state */\n      dup2\n        /* \"contracts/trace.sol\":5573:5581  products */\n      0x00\n        /* \"contracts/trace.sol\":5573:5593  products[_productId] */\n      dup1\n        /* \"contracts/trace.sol\":5582:5592  _productId */\n      dup6\n        /* \"contracts/trace.sol\":5573:5593  products[_productId] */\n      dup2\n      mstore\n      0x20\n      add\n      swap1\n      dup2\n      mstore\n      0x20\n      add\n      0x00\n      keccak256\n        /* \"contracts/trace.sol\":5573:5599  products[_productId].state */\n      0x05\n      add\n      0x14\n        /* \"contracts/trace.sol\":5573:5608  products[_productId].state = _state */\n      0x0100\n      exp\n      dup2\n      sload\n      dup2\n      0xff\n      mul\n      not\n      and\n      swap1\n      dup4\n      0x01\n      dup2\n      gt\n      iszero\n      tag_269\n      jumpi\n      tag_270\n      tag_91\n      jump\t// in\n    tag_270:\n    tag_269:\n      mul\n      or\n      swap1\n      sstore\n      pop\n        /* \"contracts/trace.sol\":5644:5654  _productId */\n      dup3\n        /* \"contracts/trace.sol\":5624:5663  ProductStateChanged(_productId, _state) */\n      0x6b42974450f95b3d498669e78c1d60139454f4e6c64187cfb138c2d7dbf2aa16\n        /* \"contracts/trace.sol\":5656:5662  _state */\n      dup4\n        /* \"contracts/trace.sol\":5624:5663  ProductStateChanged(_productId, _state) */\n      mload(0x40)\n      tag_271\n      swap2\n      swap1\n      tag_272\n      jump\t// in\n    tag_271:\n      mload(0x40)\n      dup1\n      swap2\n      sub\n      swap1\n      log2\n        /* \"contracts/trace.sol\":5445:5671  function setProductState(bytes32 _productId, State _state) ... */\n      pop\n      pop\n      pop\n      jump\t// out\n        /* \"contracts/trace.sol\":4327:4532  function getProductTraces(bytes32 _productId) ... */\n    tag_62:\n        /* \"contracts/trace.sol\":4459:4473  Trace[] memory */\n      0x60\n        /* \"contracts/trace.sol\":4429:4439  _productId */\n      dup2\n        /* \"contracts/trace.sol\":1256:1264  products */\n      0x00\n        /* \"contracts/trace.sol\":1256:1276  products[_productId] */\n      dup1\n        /* \"contracts/trace.sol\":1265:1275  _productId */\n      dup3\n        /* \"contracts/trace.sol\":1256:1276  products[_productId] */\n      dup2\n      mstore\n      0x20\n      add\n      swap1\n      dup2\n      mstore\n      0x20\n      add\n      0x00\n      keccak256\n        /* \"contracts/trace.sol\":1256:1283  products[_productId].exists */\n      0x05\n      add\n      0x15\n      swap1\n      sload\n      swap1\n      0x0100\n      exp\n      swap1\n      div\n      0xff\n      and\n        /* \"contracts/trace.sol\":1248:1310  require(products[_productId].exists, \"Product does not exist\") */\n      tag_274\n      jumpi\n      mload(0x40)\n      0x08c379a000000000000000000000000000000000000000000000000000000000\n      dup2\n      mstore\n      0x04\n      add\n      tag_275\n      swap1\n      tag_71\n      jump\t// in\n    tag_275:\n      mload(0x40)\n      dup1\n      swap2\n      sub\n      swap1\n      revert\n    tag_274:\n        /* \"contracts/trace.sol\":4499:4512  productTraces */\n      0x01\n        /* \"contracts/trace.sol\":4499:4524  productTraces[_productId] */\n      0x00\n        /* \"contracts/trace.sol\":4513:4523  _productId */\n      dup5\n        /* \"contracts/trace.sol\":4499:4524  productTraces[_productId] */\n      dup2\n      mstore\n      0x20\n      add\n      swap1\n      dup2\n      mstore\n      0x20\n      add\n      0x00\n      keccak256\n        /* \"contracts/trace.sol\":4492:4524  return productTraces[_productId] */\n      dup1\n      sload\n      dup1\n      0x20\n      mul\n      0x20\n      add\n      mload(0x40)\n      swap1\n      dup2\n      add\n      0x40\n      mstore\n      dup1\n      swap3\n      swap2\n      swap1\n      dup2\n      dup2\n      mstore\n      0x20\n      add\n      0x00\n      swap1\n    tag_277:\n      dup3\n      dup3\n      lt\n      iszero\n      tag_278\n      jumpi\n      dup4\n      dup3\n      swap1\n      0x00\n      mstore\n      keccak256(0x00, 0x20)\n      swap1\n      0x04\n      mul\n      add\n      mload(0x40)\n      dup1\n      0xa0\n      add\n      0x40\n      mstore\n      swap1\n      dup2\n      0x00\n      dup3\n      add\n      sload\n      dup2\n      mstore\n      0x20\n      add\n      0x01\n      dup3\n      add\n      dup1\n      sload\n      tag_280\n      swap1\n      tag_74\n      jump\t// in\n    tag_280:\n      dup1\n      0x1f\n      add\n      0x20\n      dup1\n      swap2\n      div\n      mul\n      0x20\n      add\n      mload(0x40)\n      swap1\n      dup2\n      add\n      0x40\n      mstore\n      dup1\n      swap3\n      swap2\n      swap1\n      dup2\n      dup2\n      mstore\n      0x20\n      add\n      dup3\n      dup1\n      sload\n      tag_281\n      swap1\n      tag_74\n      jump\t// in\n    tag_281:\n      dup1\n      iszero\n      tag_282\n      jumpi\n      dup1\n      0x1f\n      lt\n      tag_283\n      jumpi\n      0x0100\n      dup1\n      dup4\n      sload\n      div\n      mul\n      dup4\n      mstore\n      swap2\n      0x20\n      add\n      swap2\n      jump(tag_282)\n    tag_283:\n      dup3\n      add\n      swap2\n      swap1\n      0x00\n      mstore\n      keccak256(0x00, 0x20)\n      swap1\n    tag_284:\n      dup2\n      sload\n      dup2\n      mstore\n      swap1\n      0x01\n      add\n      swap1\n      0x20\n      add\n      dup1\n      dup4\n      gt\n      tag_284\n      jumpi\n      dup3\n      swap1\n      sub\n      0x1f\n      and\n      dup3\n      add\n      swap2\n    tag_282:\n      pop\n      pop\n      pop\n      pop\n      pop\n      dup2\n      mstore\n      0x20\n      add\n      0x02\n      dup3\n      add\n      sload\n      dup2\n      mstore\n      0x20\n      add\n      0x03\n      dup3\n      add\n      0x00\n      swap1\n      sload\n      swap1\n      0x0100\n      exp\n      swap1\n      div\n      0xffffffffffffffffffffffffffffffffffffffff\n      and\n      0xffffffffffffffffffffffffffffffffffffffff\n      and\n      0xffffffffffffffffffffffffffffffffffffffff\n      and\n      dup2\n      mstore\n      0x20\n      add\n      0x03\n      dup3\n      add\n      0x14\n      swap1\n      sload\n      swap1\n      0x0100\n      exp\n      swap1\n      div\n      0xff\n      and\n      0x01\n      dup2\n      gt\n      iszero\n      tag_285\n      jumpi\n      tag_286\n      tag_91\n      jump\t// in\n    tag_286:\n    tag_285:\n      0x01\n      dup2\n      gt\n      iszero\n      tag_287\n      jumpi\n      tag_288\n      tag_91\n      jump\t// in\n    tag_288:\n    tag_287:\n      dup2\n      mstore\n      pop\n      pop\n      dup2\n      mstore\n      0x20\n      add\n      swap1\n      0x01\n      add\n      swap1\n      jump(tag_277)\n    tag_278:\n      pop\n      pop\n      pop\n      pop\n      swap2\n      pop\n        /* \"contracts/trace.sol\":4327:4532  function getProductTraces(bytes32 _productId) ... */\n      pop\n      swap2\n      swap1\n      pop\n      jump\t// out\n        /* \"contracts/trace.sol\":1867:3572  function addProduct(... */\n    tag_67:\n        /* \"contracts/trace.sol\":2068:2069  0 */\n      0x00\n        /* \"contracts/trace.sol\":2054:2057  _id */\n      dup5\n        /* \"contracts/trace.sol\":2048:2065  bytes(_id).length */\n      mload\n        /* \"contracts/trace.sol\":2048:2069  bytes(_id).length > 0 */\n      gt\n        /* \"contracts/trace.sol\":2040:2100  require(bytes(_id).length > 0, \"Product ID cannot be empty\") */\n      tag_290\n      jumpi\n      mload(0x40)\n      0x08c379a000000000000000000000000000000000000000000000000000000000\n      dup2\n      mstore\n      0x04\n      add\n      tag_291\n      swap1\n      tag_292\n      jump\t// in\n    tag_291:\n      mload(0x40)\n      dup1\n      swap2\n      sub\n      swap1\n      revert\n    tag_290:\n        /* \"contracts/trace.sol\":2144:2145  0 */\n      0x00\n        /* \"contracts/trace.sol\":2125:2133  _codebar */\n      dup4\n        /* \"contracts/trace.sol\":2119:2141  bytes(_codebar).length */\n      mload\n        /* \"contracts/trace.sol\":2119:2145  bytes(_codebar).length > 0 */\n      gt\n        /* \"contracts/trace.sol\":2111:2173  require(bytes(_codebar).length > 0, \"Codebar cannot be empty\") */\n      tag_293\n      jumpi\n      mload(0x40)\n      0x08c379a000000000000000000000000000000000000000000000000000000000\n      dup2\n      mstore\n      0x04\n      add\n      tag_294\n      swap1\n      tag_175\n      jump\t// in\n    tag_294:\n      mload(0x40)\n      dup1\n      swap2\n      sub\n      swap1\n      revert\n    tag_293:\n        /* \"contracts/trace.sol\":2214:2215  0 */\n      0x00\n        /* \"contracts/trace.sol\":2198:2203  _name */\n      dup3\n        /* \"contracts/trace.sol\":2192:2211  bytes(_name).length */\n      mload\n        /* \"contracts/trace.sol\":2192:2215  bytes(_name).length > 0 */\n      gt\n        /* \"contracts/trace.sol\":2184:2240  require(bytes(_name).length > 0, \"Name cannot be empty\") */\n      tag_295\n      jumpi\n      mload(0x40)\n      0x08c379a000000000000000000000000000000000000000000000000000000000\n      dup2\n      mstore\n      0x04\n      add\n      tag_296\n      swap1\n      tag_297\n      jump\t// in\n    tag_296:\n      mload(0x40)\n      dup1\n      swap2\n      sub\n      swap1\n      revert\n    tag_295:\n        /* \"contracts/trace.sol\":2288:2289  0 */\n      0x00\n        /* \"contracts/trace.sol\":2265:2277  _description */\n      dup2\n        /* \"contracts/trace.sol\":2259:2285  bytes(_description).length */\n      mload\n        /* \"contracts/trace.sol\":2259:2289  bytes(_description).length > 0 */\n      gt\n        /* \"contracts/trace.sol\":2251:2321  require(bytes(_description).length > 0, \"Description cannot be empty\") */\n      tag_298\n      jumpi\n      mload(0x40)\n      0x08c379a000000000000000000000000000000000000000000000000000000000\n      dup2\n      mstore\n      0x04\n      add\n      tag_299\n      swap1\n      tag_300\n      jump\t// in\n    tag_299:\n      mload(0x40)\n      dup1\n      swap2\n      sub\n      swap1\n      revert\n    tag_298:\n        /* \"contracts/trace.sol\":2342:2359  bytes32 productId */\n      0x00\n        /* \"contracts/trace.sol\":2362:2382  stringToBytes32(_id) */\n      tag_301\n        /* \"contracts/trace.sol\":2378:2381  _id */\n      dup6\n        /* \"contracts/trace.sol\":2362:2377  stringToBytes32 */\n      tag_302\n        /* \"contracts/trace.sol\":2362:2382  stringToBytes32(_id) */\n      jump\t// in\n    tag_301:\n        /* \"contracts/trace.sol\":2342:2382  bytes32 productId = stringToBytes32(_id) */\n      swap1\n      pop\n        /* \"contracts/trace.sol\":2402:2410  products */\n      0x00\n        /* \"contracts/trace.sol\":2402:2421  products[productId] */\n      dup1\n        /* \"contracts/trace.sol\":2411:2420  productId */\n      dup3\n        /* \"contracts/trace.sol\":2402:2421  products[productId] */\n      dup2\n      mstore\n      0x20\n      add\n      swap1\n      dup2\n      mstore\n      0x20\n      add\n      0x00\n      keccak256\n        /* \"contracts/trace.sol\":2402:2428  products[productId].exists */\n      0x05\n      add\n      0x15\n      swap1\n      sload\n      swap1\n      0x0100\n      exp\n      swap1\n      div\n      0xff\n      and\n        /* \"contracts/trace.sol\":2401:2428  !products[productId].exists */\n      iszero\n        /* \"contracts/trace.sol\":2393:2455  require(!products[productId].exists, \"Product already exists\") */\n      tag_303\n      jumpi\n      mload(0x40)\n      0x08c379a000000000000000000000000000000000000000000000000000000000\n      dup2\n      mstore\n      0x04\n      add\n      tag_304\n      swap1\n      tag_305\n      jump\t// in\n    tag_304:\n      mload(0x40)\n      dup1\n      swap2\n      sub\n      swap1\n      revert\n    tag_303:\n        /* \"contracts/trace.sol\":2516:2541  Product memory newProduct */\n      0x00\n        /* \"contracts/trace.sol\":2544:2757  Product(... */\n      mload(0x40)\n      dup1\n      0x0100\n      add\n      0x40\n      mstore\n      dup1\n        /* \"contracts/trace.sol\":2566:2575  productId */\n      dup4\n        /* \"contracts/trace.sol\":2544:2757  Product(... */\n      dup2\n      mstore\n      0x20\n      add\n        /* \"contracts/trace.sol\":2590:2598  _codebar */\n      dup7\n        /* \"contracts/trace.sol\":2544:2757  Product(... */\n      dup2\n      mstore\n      0x20\n      add\n        /* \"contracts/trace.sol\":2613:2618  _name */\n      dup6\n        /* \"contracts/trace.sol\":2544:2757  Product(... */\n      dup2\n      mstore\n      0x20\n      add\n        /* \"contracts/trace.sol\":2633:2645  _description */\n      dup5\n        /* \"contracts/trace.sol\":2544:2757  Product(... */\n      dup2\n      mstore\n      0x20\n      add\n        /* \"contracts/trace.sol\":2660:2675  block.timestamp */\n      timestamp\n        /* \"contracts/trace.sol\":2544:2757  Product(... */\n      dup2\n      mstore\n      0x20\n      add\n        /* \"contracts/trace.sol\":2690:2700  msg.sender */\n      caller\n        /* \"contracts/trace.sol\":2544:2757  Product(... */\n      0xffffffffffffffffffffffffffffffffffffffff\n      and\n      dup2\n      mstore\n      0x20\n      add\n        /* \"contracts/trace.sol\":2715:2727  State.Active */\n      0x00\n        /* \"contracts/trace.sol\":2544:2757  Product(... */\n      0x01\n      dup2\n      gt\n      iszero\n      tag_306\n      jumpi\n      tag_307\n      tag_91\n      jump\t// in\n    tag_307:\n    tag_306:\n      dup2\n      mstore\n      0x20\n      add\n        /* \"contracts/trace.sol\":2742:2746  true */\n      0x01\n        /* \"contracts/trace.sol\":2544:2757  Product(... */\n      iszero\n      iszero\n      dup2\n      mstore\n      pop\n        /* \"contracts/trace.sol\":2516:2757  Product memory newProduct = Product(... */\n      swap1\n      pop\n        /* \"contracts/trace.sol\":2822:2832  newProduct */\n      dup1\n        /* \"contracts/trace.sol\":2800:2808  products */\n      0x00\n        /* \"contracts/trace.sol\":2800:2819  products[productId] */\n      dup1\n        /* \"contracts/trace.sol\":2809:2818  productId */\n      dup5\n        /* \"contracts/trace.sol\":2800:2819  products[productId] */\n      dup2\n      mstore\n      0x20\n      add\n      swap1\n      dup2\n      mstore\n      0x20\n      add\n      0x00\n      keccak256\n        /* \"contracts/trace.sol\":2800:2832  products[productId] = newProduct */\n      0x00\n      dup3\n      add\n      mload\n      dup2\n      0x00\n      add\n      sstore\n      0x20\n      dup3\n      add\n      mload\n      dup2\n      0x01\n      add\n      swap1\n      dup2\n      tag_308\n      swap2\n      swap1\n      tag_258\n      jump\t// in\n    tag_308:\n      pop\n      0x40\n      dup3\n      add\n      mload\n      dup2\n      0x02\n      add\n      swap1\n      dup2\n      tag_309\n      swap2\n      swap1\n      tag_258\n      jump\t// in\n    tag_309:\n      pop\n      0x60\n      dup3\n      add\n      mload\n      dup2\n      0x03\n      add\n      swap1\n      dup2\n      tag_310\n      swap2\n      swap1\n      tag_258\n      jump\t// in\n    tag_310:\n      pop\n      0x80\n      dup3\n      add\n      mload\n      dup2\n      0x04\n      add\n      sstore\n      0xa0\n      dup3\n      add\n      mload\n      dup2\n      0x05\n      add\n      exp(0x0100, 0x00)\n      dup2\n      sload\n      dup2\n      0xffffffffffffffffffffffffffffffffffffffff\n      mul\n      not\n      and\n      swap1\n      dup4\n      0xffffffffffffffffffffffffffffffffffffffff\n      and\n      mul\n      or\n      swap1\n      sstore\n      pop\n      0xc0\n      dup3\n      add\n      mload\n      dup2\n      0x05\n      add\n      exp(0x0100, 0x14)\n      dup2\n      sload\n      dup2\n      0xff\n      mul\n      not\n      and\n      swap1\n      dup4\n      0x01\n      dup2\n      gt\n      iszero\n      tag_311\n      jumpi\n      tag_312\n      tag_91\n      jump\t// in\n    tag_312:\n    tag_311:\n      mul\n      or\n      swap1\n      sstore\n      pop\n      0xe0\n      dup3\n      add\n      mload\n      dup2\n      0x05\n      add\n      exp(0x0100, 0x15)\n      dup2\n      sload\n      dup2\n      0xff\n      mul\n      not\n      and\n      swap1\n      dup4\n      iszero\n      iszero\n      mul\n      or\n      swap1\n      sstore\n      pop\n      swap1\n      pop\n      pop\n        /* \"contracts/trace.sol\":2843:2853  productIds */\n      0x04\n        /* \"contracts/trace.sol\":2859:2868  productId */\n      dup3\n        /* \"contracts/trace.sol\":2843:2869  productIds.push(productId) */\n      swap1\n      dup1\n      0x01\n      dup2\n      sload\n      add\n      dup1\n      dup3\n      sstore\n      dup1\n      swap2\n      pop\n      pop\n      0x01\n      swap1\n      sub\n      swap1\n      0x00\n      mstore\n      keccak256(0x00, 0x20)\n      add\n      0x00\n      swap1\n      swap2\n      swap1\n      swap2\n      swap1\n      swap2\n      pop\n      sstore\n        /* \"contracts/trace.sol\":2880:2897  codebarToProducts */\n      0x03\n        /* \"contracts/trace.sol\":2898:2906  _codebar */\n      dup6\n        /* \"contracts/trace.sol\":2880:2907  codebarToProducts[_codebar] */\n      mload(0x40)\n      tag_314\n      swap2\n      swap1\n      tag_96\n      jump\t// in\n    tag_314:\n      swap1\n      dup2\n      mstore\n      0x20\n      add\n      mload(0x40)\n      dup1\n      swap2\n      sub\n      swap1\n      keccak256\n        /* \"contracts/trace.sol\":2913:2922  productId */\n      dup3\n        /* \"contracts/trace.sol\":2880:2923  codebarToProducts[_codebar].push(productId) */\n      swap1\n      dup1\n      0x01\n      dup2\n      sload\n      add\n      dup1\n      dup3\n      sstore\n      dup1\n      swap2\n      pop\n      pop\n      0x01\n      swap1\n      sub\n      swap1\n      0x00\n      mstore\n      keccak256(0x00, 0x20)\n      add\n      0x00\n      swap1\n      swap2\n      swap1\n      swap2\n      swap1\n      swap2\n      pop\n      sstore\n        /* \"contracts/trace.sol\":2979:2994  bytes32 traceId */\n      0x00\n        /* \"contracts/trace.sol\":3024:3033  productId */\n      dup3\n        /* \"contracts/trace.sol\":3035:3050  block.timestamp */\n      timestamp\n        /* \"contracts/trace.sol\":3007:3059  abi.encodePacked(productId, block.timestamp, \"INIT\") */\n      add(0x20, mload(0x40))\n      tag_316\n      swap3\n      swap2\n      swap1\n      tag_317\n      jump\t// in\n    tag_316:\n      mload(0x40)\n      0x20\n      dup2\n      dup4\n      sub\n      sub\n      dup2\n      mstore\n      swap1\n      0x40\n      mstore\n        /* \"contracts/trace.sol\":2997:3060  keccak256(abi.encodePacked(productId, block.timestamp, \"INIT\")) */\n      dup1\n      mload\n      swap1\n      0x20\n      add\n      keccak256\n        /* \"contracts/trace.sol\":2979:3060  bytes32 traceId = keccak256(abi.encodePacked(productId, block.timestamp, \"INIT\")) */\n      swap1\n      pop\n        /* \"contracts/trace.sol\":3071:3093  Trace memory initTrace */\n      0x00\n        /* \"contracts/trace.sol\":3096:3255  Trace(... */\n      mload(0x40)\n      dup1\n      0xa0\n      add\n      0x40\n      mstore\n      dup1\n        /* \"contracts/trace.sol\":3116:3123  traceId */\n      dup4\n        /* \"contracts/trace.sol\":3096:3255  Trace(... */\n      dup2\n      mstore\n      0x20\n      add\n      mload(0x40)\n      dup1\n      0x40\n      add\n      0x40\n      mstore\n      dup1\n      0x16\n      dup2\n      mstore\n      0x20\n      add\n      0x50726f6475637420696e697469616c697a6174696f6e00000000000000000000\n      dup2\n      mstore\n      pop\n      dup2\n      mstore\n      0x20\n      add\n        /* \"contracts/trace.sol\":3177:3192  block.timestamp */\n      timestamp\n        /* \"contracts/trace.sol\":3096:3255  Trace(... */\n      dup2\n      mstore\n      0x20\n      add\n        /* \"contracts/trace.sol\":3207:3217  msg.sender */\n      caller\n        /* \"contracts/trace.sol\":3096:3255  Trace(... */\n      0xffffffffffffffffffffffffffffffffffffffff\n      and\n      dup2\n      mstore\n      0x20\n      add\n        /* \"contracts/trace.sol\":3232:3244  State.Active */\n      0x00\n        /* \"contracts/trace.sol\":3096:3255  Trace(... */\n      0x01\n      dup2\n      gt\n      iszero\n      tag_318\n      jumpi\n      tag_319\n      tag_91\n      jump\t// in\n    tag_319:\n    tag_318:\n      dup2\n      mstore\n      pop\n        /* \"contracts/trace.sol\":3071:3255  Trace memory initTrace = Trace(... */\n      swap1\n      pop\n        /* \"contracts/trace.sol\":3276:3289  productTraces */\n      0x01\n        /* \"contracts/trace.sol\":3276:3300  productTraces[productId] */\n      0x00\n        /* \"contracts/trace.sol\":3290:3299  productId */\n      dup6\n        /* \"contracts/trace.sol\":3276:3300  productTraces[productId] */\n      dup2\n      mstore\n      0x20\n      add\n      swap1\n      dup2\n      mstore\n      0x20\n      add\n      0x00\n      keccak256\n        /* \"contracts/trace.sol\":3306:3315  initTrace */\n      dup2\n        /* \"contracts/trace.sol\":3276:3316  productTraces[productId].push(initTrace) */\n      swap1\n      dup1\n      0x01\n      dup2\n      sload\n      add\n      dup1\n      dup3\n      sstore\n      dup1\n      swap2\n      pop\n      pop\n      0x01\n      swap1\n      sub\n      swap1\n      0x00\n      mstore\n      keccak256(0x00, 0x20)\n      swap1\n      0x04\n      mul\n      add\n      0x00\n      swap1\n      swap2\n      swap1\n      swap2\n      swap1\n      swap2\n      pop\n      0x00\n      dup3\n      add\n      mload\n      dup2\n      0x00\n      add\n      sstore\n      0x20\n      dup3\n      add\n      mload\n      dup2\n      0x01\n      add\n      swap1\n      dup2\n      tag_321\n      swap2\n      swap1\n      tag_258\n      jump\t// in\n    tag_321:\n      pop\n      0x40\n      dup3\n      add\n      mload\n      dup2\n      0x02\n      add\n      sstore\n      0x60\n      dup3\n      add\n      mload\n      dup2\n      0x03\n      add\n      exp(0x0100, 0x00)\n      dup2\n      sload\n      dup2\n      0xffffffffffffffffffffffffffffffffffffffff\n      mul\n      not\n      and\n      swap1\n      dup4\n      0xffffffffffffffffffffffffffffffffffffffff\n      and\n      mul\n      or\n      swap1\n      sstore\n      pop\n      0x80\n      dup3\n      add\n      mload\n      dup2\n      0x03\n      add\n      exp(0x0100, 0x14)\n      dup2\n      sload\n      dup2\n      0xff\n      mul\n      not\n      and\n      swap1\n      dup4\n      0x01\n      dup2\n      gt\n      iszero\n      tag_322\n      jumpi\n      tag_323\n      tag_91\n      jump\t// in\n    tag_323:\n    tag_322:\n      mul\n      or\n      swap1\n      sstore\n      pop\n      pop\n      pop\n        /* \"contracts/trace.sol\":3353:3362  productId */\n      dup4\n        /* \"contracts/trace.sol\":3327:3341  traceToProduct */\n      0x02\n        /* \"contracts/trace.sol\":3327:3350  traceToProduct[traceId] */\n      0x00\n        /* \"contracts/trace.sol\":3342:3349  traceId */\n      dup5\n        /* \"contracts/trace.sol\":3327:3350  traceToProduct[traceId] */\n      dup2\n      mstore\n      0x20\n      add\n      swap1\n      dup2\n      mstore\n      0x20\n      add\n      0x00\n      keccak256\n        /* \"contracts/trace.sol\":3327:3362  traceToProduct[traceId] = productId */\n      dup2\n      swap1\n      sstore\n      pop\n        /* \"contracts/trace.sol\":3393:3402  productId */\n      dup4\n        /* \"contracts/trace.sol\":3380:3463  ProductAdded(productId, _codebar, _name, _description, block.timestamp, msg.sender) */\n      0x05d95f8b95df6d455e3731c3ddea53d6b339315da38d66461c61654d2f72563f\n        /* \"contracts/trace.sol\":3404:3412  _codebar */\n      dup9\n        /* \"contracts/trace.sol\":3414:3419  _name */\n      dup9\n        /* \"contracts/trace.sol\":3421:3433  _description */\n      dup9\n        /* \"contracts/trace.sol\":3435:3450  block.timestamp */\n      timestamp\n        /* \"contracts/trace.sol\":3452:3462  msg.sender */\n      caller\n        /* \"contracts/trace.sol\":3380:3463  ProductAdded(productId, _codebar, _name, _description, block.timestamp, msg.sender) */\n      mload(0x40)\n      tag_324\n      swap6\n      swap5\n      swap4\n      swap3\n      swap2\n      swap1\n      tag_325\n      jump\t// in\n    tag_324:\n      mload(0x40)\n      dup1\n      swap2\n      sub\n      swap1\n      log2\n        /* \"contracts/trace.sol\":3501:3508  traceId */\n      dup2\n        /* \"contracts/trace.sol\":3490:3499  productId */\n      dup5\n        /* \"contracts/trace.sol\":3479:3564  TraceAdded(productId, traceId, \"Product initialization\", block.timestamp, msg.sender) */\n      0xfc7f09d226b2e852bd3f04f352adab8a4e00b078d16e635f5a5102e2ac721fc8\n        /* \"contracts/trace.sol\":3536:3551  block.timestamp */\n      timestamp\n        /* \"contracts/trace.sol\":3553:3563  msg.sender */\n      caller\n        /* \"contracts/trace.sol\":3479:3564  TraceAdded(productId, traceId, \"Product initialization\", block.timestamp, msg.sender) */\n      mload(0x40)\n      tag_326\n      swap3\n      swap2\n      swap1\n      tag_327\n      jump\t// in\n    tag_326:\n      mload(0x40)\n      dup1\n      swap2\n      sub\n      swap1\n      log3\n        /* \"contracts/trace.sol\":2029:3572  {... */\n      pop\n      pop\n      pop\n      pop\n        /* \"contracts/trace.sol\":1867:3572  function addProduct(... */\n      pop\n      pop\n      pop\n      pop\n      jump\t// out\n        /* \"contracts/trace.sol\":1546:1859  function stringToBytes32(string memory source) private pure returns (bytes32 result) {... */\n    tag_302:\n        /* \"contracts/trace.sol\":1615:1629  bytes32 result */\n      0x00\n        /* \"contracts/trace.sol\":1642:1674  bytes memory tempEmptyStringTest */\n      dup1\n        /* \"contracts/trace.sol\":1683:1689  source */\n      dup3\n        /* \"contracts/trace.sol\":1642:1690  bytes memory tempEmptyStringTest = bytes(source) */\n      swap1\n      pop\n        /* \"contracts/trace.sol\":1735:1736  0 */\n      0x00\n        /* \"contracts/trace.sol\":1705:1724  tempEmptyStringTest */\n      dup2\n        /* \"contracts/trace.sol\":1705:1731  tempEmptyStringTest.length */\n      mload\n        /* \"contracts/trace.sol\":1705:1736  tempEmptyStringTest.length == 0 */\n      sub\n        /* \"contracts/trace.sol\":1701:1775  if (tempEmptyStringTest.length == 0) {... */\n      tag_329\n      jumpi\n        /* \"contracts/trace.sol\":1760:1763  0x0 */\n      0x00\n        /* \"contracts/trace.sol\":1753:1763  return 0x0 */\n      dup1\n      shl\n      swap2\n      pop\n      pop\n      jump(tag_328)\n        /* \"contracts/trace.sol\":1701:1775  if (tempEmptyStringTest.length == 0) {... */\n    tag_329:\n        /* \"contracts/trace.sol\":1837:1839  32 */\n      0x20\n        /* \"contracts/trace.sol\":1829:1835  source */\n      dup4\n        /* \"contracts/trace.sol\":1825:1840  add(source, 32) */\n      add\n        /* \"contracts/trace.sol\":1819:1841  mload(add(source, 32)) */\n      mload\n        /* \"contracts/trace.sol\":1809:1841  result := mload(add(source, 32)) */\n      swap2\n      pop\n        /* \"contracts/trace.sol\":1794:1852  {... */\n      pop\n        /* \"contracts/trace.sol\":1546:1859  function stringToBytes32(string memory source) private pure returns (bytes32 result) {... */\n    tag_328:\n      swap2\n      swap1\n      pop\n      jump\t// out\n    tag_146:\n      mload(0x40)\n      dup1\n      0xa0\n      add\n      0x40\n      mstore\n      dup1\n      0x00\n      dup1\n      not\n      and\n      dup2\n      mstore\n      0x20\n      add\n      0x60\n      dup2\n      mstore\n      0x20\n      add\n      0x00\n      dup2\n      mstore\n      0x20\n      add\n      and(0xffffffffffffffffffffffffffffffffffffffff, 0x00)\n      dup2\n      mstore\n      0x20\n      add\n      0x00\n      0x01\n      dup2\n      gt\n      iszero\n      tag_330\n      jumpi\n      tag_331\n      tag_91\n      jump\t// in\n    tag_331:\n    tag_330:\n      dup2\n      mstore\n      pop\n      swap1\n      jump\t// out\n        /* \"#utility.yul\":7:82   */\n    tag_332:\n        /* \"#utility.yul\":40:46   */\n      0x00\n        /* \"#utility.yul\":73:75   */\n      0x40\n        /* \"#utility.yul\":67:76   */\n      mload\n        /* \"#utility.yul\":57:76   */\n      swap1\n      pop\n        /* \"#utility.yul\":7:82   */\n      swap1\n      jump\t// out\n        /* \"#utility.yul\":88:205   */\n    tag_333:\n        /* \"#utility.yul\":197:198   */\n      0x00\n        /* \"#utility.yul\":194:195   */\n      dup1\n        /* \"#utility.yul\":187:199   */\n      revert\n        /* \"#utility.yul\":211:328   */\n    tag_334:\n        /* \"#utility.yul\":320:321   */\n      0x00\n        /* \"#utility.yul\":317:318   */\n      dup1\n        /* \"#utility.yul\":310:322   */\n      revert\n        /* \"#utility.yul\":334:411   */\n    tag_335:\n        /* \"#utility.yul\":371:378   */\n      0x00\n        /* \"#utility.yul\":400:405   */\n      dup2\n        /* \"#utility.yul\":389:405   */\n      swap1\n      pop\n        /* \"#utility.yul\":334:411   */\n      swap2\n      swap1\n      pop\n      jump\t// out\n        /* \"#utility.yul\":417:539   */\n    tag_336:\n        /* \"#utility.yul\":490:514   */\n      tag_467\n        /* \"#utility.yul\":508:513   */\n      dup2\n        /* \"#utility.yul\":490:514   */\n      tag_335\n      jump\t// in\n    tag_467:\n        /* \"#utility.yul\":483:488   */\n      dup2\n        /* \"#utility.yul\":480:515   */\n      eq\n        /* \"#utility.yul\":470:533   */\n      tag_468\n      jumpi\n        /* \"#utility.yul\":529:530   */\n      0x00\n        /* \"#utility.yul\":526:527   */\n      dup1\n        /* \"#utility.yul\":519:531   */\n      revert\n        /* \"#utility.yul\":470:533   */\n    tag_468:\n        /* \"#utility.yul\":417:539   */\n      pop\n      jump\t// out\n        /* \"#utility.yul\":545:684   */\n    tag_337:\n        /* \"#utility.yul\":591:596   */\n      0x00\n        /* \"#utility.yul\":629:635   */\n      dup2\n        /* \"#utility.yul\":616:636   */\n      calldataload\n        /* \"#utility.yul\":607:636   */\n      swap1\n      pop\n        /* \"#utility.yul\":645:678   */\n      tag_470\n        /* \"#utility.yul\":672:677   */\n      dup2\n        /* \"#utility.yul\":645:678   */\n      tag_336\n      jump\t// in\n    tag_470:\n        /* \"#utility.yul\":545:684   */\n      swap3\n      swap2\n      pop\n      pop\n      jump\t// out\n        /* \"#utility.yul\":690:1019   */\n    tag_17:\n        /* \"#utility.yul\":749:755   */\n      0x00\n        /* \"#utility.yul\":798:800   */\n      0x20\n        /* \"#utility.yul\":786:795   */\n      dup3\n        /* \"#utility.yul\":777:784   */\n      dup5\n        /* \"#utility.yul\":773:796   */\n      sub\n        /* \"#utility.yul\":769:801   */\n      slt\n        /* \"#utility.yul\":766:885   */\n      iszero\n      tag_472\n      jumpi\n        /* \"#utility.yul\":804:883   */\n      tag_473\n      tag_333\n      jump\t// in\n    tag_473:\n        /* \"#utility.yul\":766:885   */\n    tag_472:\n        /* \"#utility.yul\":924:925   */\n      0x00\n        /* \"#utility.yul\":949:1002   */\n      tag_474\n        /* \"#utility.yul\":994:1001   */\n      dup5\n        /* \"#utility.yul\":985:991   */\n      dup3\n        /* \"#utility.yul\":974:983   */\n      dup6\n        /* \"#utility.yul\":970:992   */\n      add\n        /* \"#utility.yul\":949:1002   */\n      tag_337\n      jump\t// in\n    tag_474:\n        /* \"#utility.yul\":939:1002   */\n      swap2\n      pop\n        /* \"#utility.yul\":895:1012   */\n      pop\n        /* \"#utility.yul\":690:1019   */\n      swap3\n      swap2\n      pop\n      pop\n      jump\t// out\n        /* \"#utility.yul\":1025:1124   */\n    tag_338:\n        /* \"#utility.yul\":1077:1083   */\n      0x00\n        /* \"#utility.yul\":1111:1116   */\n      dup2\n        /* \"#utility.yul\":1105:1117   */\n      mload\n        /* \"#utility.yul\":1095:1117   */\n      swap1\n      pop\n        /* \"#utility.yul\":1025:1124   */\n      swap2\n      swap1\n      pop\n      jump\t// out\n        /* \"#utility.yul\":1130:1299   */\n    tag_339:\n        /* \"#utility.yul\":1214:1225   */\n      0x00\n        /* \"#utility.yul\":1248:1254   */\n      dup3\n        /* \"#utility.yul\":1243:1246   */\n      dup3\n        /* \"#utility.yul\":1236:1255   */\n      mstore\n        /* \"#utility.yul\":1288:1292   */\n      0x20\n        /* \"#utility.yul\":1283:1286   */\n      dup3\n        /* \"#utility.yul\":1279:1293   */\n      add\n        /* \"#utility.yul\":1264:1293   */\n      swap1\n      pop\n        /* \"#utility.yul\":1130:1299   */\n      swap3\n      swap2\n      pop\n      pop\n      jump\t// out\n        /* \"#utility.yul\":1305:1444   */\n    tag_340:\n        /* \"#utility.yul\":1394:1400   */\n      dup3\n        /* \"#utility.yul\":1389:1392   */\n      dup2\n        /* \"#utility.yul\":1384:1387   */\n      dup4\n        /* \"#utility.yul\":1378:1401   */\n      mcopy\n        /* \"#utility.yul\":1435:1436   */\n      0x00\n        /* \"#utility.yul\":1426:1432   */\n      dup4\n        /* \"#utility.yul\":1421:1424   */\n      dup4\n        /* \"#utility.yul\":1417:1433   */\n      add\n        /* \"#utility.yul\":1410:1437   */\n      mstore\n        /* \"#utility.yul\":1305:1444   */\n      pop\n      pop\n      pop\n      jump\t// out\n        /* \"#utility.yul\":1450:1552   */\n    tag_341:\n        /* \"#utility.yul\":1491:1497   */\n      0x00\n        /* \"#utility.yul\":1542:1544   */\n      0x1f\n        /* \"#utility.yul\":1538:1545   */\n      not\n        /* \"#utility.yul\":1533:1535   */\n      0x1f\n        /* \"#utility.yul\":1526:1531   */\n      dup4\n        /* \"#utility.yul\":1522:1536   */\n      add\n        /* \"#utility.yul\":1518:1546   */\n      and\n        /* \"#utility.yul\":1508:1546   */\n      swap1\n      pop\n        /* \"#utility.yul\":1450:1552   */\n      swap2\n      swap1\n      pop\n      jump\t// out\n        /* \"#utility.yul\":1558:1935   */\n    tag_342:\n        /* \"#utility.yul\":1646:1649   */\n      0x00\n        /* \"#utility.yul\":1674:1713   */\n      tag_480\n        /* \"#utility.yul\":1707:1712   */\n      dup3\n        /* \"#utility.yul\":1674:1713   */\n      tag_338\n      jump\t// in\n    tag_480:\n        /* \"#utility.yul\":1729:1800   */\n      tag_481\n        /* \"#utility.yul\":1793:1799   */\n      dup2\n        /* \"#utility.yul\":1788:1791   */\n      dup6\n        /* \"#utility.yul\":1729:1800   */\n      tag_339\n      jump\t// in\n    tag_481:\n        /* \"#utility.yul\":1722:1800   */\n      swap4\n      pop\n        /* \"#utility.yul\":1809:1874   */\n      tag_482\n        /* \"#utility.yul\":1867:1873   */\n      dup2\n        /* \"#utility.yul\":1862:1865   */\n      dup6\n        /* \"#utility.yul\":1855:1859   */\n      0x20\n        /* \"#utility.yul\":1848:1853   */\n      dup7\n        /* \"#utility.yul\":1844:1860   */\n      add\n        /* \"#utility.yul\":1809:1874   */\n      tag_340\n      jump\t// in\n    tag_482:\n        /* \"#utility.yul\":1899:1928   */\n      tag_483\n        /* \"#utility.yul\":1921:1927   */\n      dup2\n        /* \"#utility.yul\":1899:1928   */\n      tag_341\n      jump\t// in\n    tag_483:\n        /* \"#utility.yul\":1894:1897   */\n      dup5\n        /* \"#utility.yul\":1890:1929   */\n      add\n        /* \"#utility.yul\":1883:1929   */\n      swap2\n      pop\n        /* \"#utility.yul\":1650:1935   */\n      pop\n        /* \"#utility.yul\":1558:1935   */\n      swap3\n      swap2\n      pop\n      pop\n      jump\t// out\n        /* \"#utility.yul\":1941:2018   */\n    tag_343:\n        /* \"#utility.yul\":1978:1985   */\n      0x00\n        /* \"#utility.yul\":2007:2012   */\n      dup2\n        /* \"#utility.yul\":1996:2012   */\n      swap1\n      pop\n        /* \"#utility.yul\":1941:2018   */\n      swap2\n      swap1\n      pop\n      jump\t// out\n        /* \"#utility.yul\":2024:2142   */\n    tag_344:\n        /* \"#utility.yul\":2111:2135   */\n      tag_486\n        /* \"#utility.yul\":2129:2134   */\n      dup2\n        /* \"#utility.yul\":2111:2135   */\n      tag_343\n      jump\t// in\n    tag_486:\n        /* \"#utility.yul\":2106:2109   */\n      dup3\n        /* \"#utility.yul\":2099:2136   */\n      mstore\n        /* \"#utility.yul\":2024:2142   */\n      pop\n      pop\n      jump\t// out\n        /* \"#utility.yul\":2148:2274   */\n    tag_345:\n        /* \"#utility.yul\":2185:2192   */\n      0x00\n        /* \"#utility.yul\":2225:2267   */\n      0xffffffffffffffffffffffffffffffffffffffff\n        /* \"#utility.yul\":2218:2223   */\n      dup3\n        /* \"#utility.yul\":2214:2268   */\n      and\n        /* \"#utility.yul\":2203:2268   */\n      swap1\n      pop\n        /* \"#utility.yul\":2148:2274   */\n      swap2\n      swap1\n      pop\n      jump\t// out\n        /* \"#utility.yul\":2280:2376   */\n    tag_346:\n        /* \"#utility.yul\":2317:2324   */\n      0x00\n        /* \"#utility.yul\":2346:2370   */\n      tag_489\n        /* \"#utility.yul\":2364:2369   */\n      dup3\n        /* \"#utility.yul\":2346:2370   */\n      tag_345\n      jump\t// in\n    tag_489:\n        /* \"#utility.yul\":2335:2370   */\n      swap1\n      pop\n        /* \"#utility.yul\":2280:2376   */\n      swap2\n      swap1\n      pop\n      jump\t// out\n        /* \"#utility.yul\":2382:2500   */\n    tag_347:\n        /* \"#utility.yul\":2469:2493   */\n      tag_491\n        /* \"#utility.yul\":2487:2492   */\n      dup2\n        /* \"#utility.yul\":2469:2493   */\n      tag_346\n      jump\t// in\n    tag_491:\n        /* \"#utility.yul\":2464:2467   */\n      dup3\n        /* \"#utility.yul\":2457:2494   */\n      mstore\n        /* \"#utility.yul\":2382:2500   */\n      pop\n      pop\n      jump\t// out\n        /* \"#utility.yul\":2506:2686   */\n    tag_91:\n        /* \"#utility.yul\":2554:2631   */\n      0x4e487b7100000000000000000000000000000000000000000000000000000000\n        /* \"#utility.yul\":2551:2552   */\n      0x00\n        /* \"#utility.yul\":2544:2632   */\n      mstore\n        /* \"#utility.yul\":2651:2655   */\n      0x21\n        /* \"#utility.yul\":2648:2649   */\n      0x04\n        /* \"#utility.yul\":2641:2656   */\n      mstore\n        /* \"#utility.yul\":2675:2679   */\n      0x24\n        /* \"#utility.yul\":2672:2673   */\n      0x00\n        /* \"#utility.yul\":2665:2680   */\n      revert\n        /* \"#utility.yul\":2692:2804   */\n    tag_348:\n        /* \"#utility.yul\":2772:2773   */\n      0x02\n        /* \"#utility.yul\":2765:2770   */\n      dup2\n        /* \"#utility.yul\":2762:2774   */\n      lt\n        /* \"#utility.yul\":2752:2798   */\n      tag_494\n      jumpi\n        /* \"#utility.yul\":2778:2796   */\n      tag_495\n      tag_91\n      jump\t// in\n    tag_495:\n        /* \"#utility.yul\":2752:2798   */\n    tag_494:\n        /* \"#utility.yul\":2692:2804   */\n      pop\n      jump\t// out\n        /* \"#utility.yul\":2810:2935   */\n    tag_349:\n        /* \"#utility.yul\":2854:2861   */\n      0x00\n        /* \"#utility.yul\":2883:2888   */\n      dup2\n        /* \"#utility.yul\":2872:2888   */\n      swap1\n      pop\n        /* \"#utility.yul\":2889:2929   */\n      tag_497\n        /* \"#utility.yul\":2923:2928   */\n      dup3\n        /* \"#utility.yul\":2889:2929   */\n      tag_348\n      jump\t// in\n    tag_497:\n        /* \"#utility.yul\":2810:2935   */\n      swap2\n      swap1\n      pop\n      jump\t// out\n        /* \"#utility.yul\":2941:3066   */\n    tag_350:\n        /* \"#utility.yul\":2996:3005   */\n      0x00\n        /* \"#utility.yul\":3029:3060   */\n      tag_499\n        /* \"#utility.yul\":3054:3059   */\n      dup3\n        /* \"#utility.yul\":3029:3060   */\n      tag_349\n      jump\t// in\n    tag_499:\n        /* \"#utility.yul\":3016:3060   */\n      swap1\n      pop\n        /* \"#utility.yul\":2941:3066   */\n      swap2\n      swap1\n      pop\n      jump\t// out\n        /* \"#utility.yul\":3072:3213   */\n    tag_351:\n        /* \"#utility.yul\":3164:3206   */\n      tag_501\n        /* \"#utility.yul\":3200:3205   */\n      dup2\n        /* \"#utility.yul\":3164:3206   */\n      tag_350\n      jump\t// in\n    tag_501:\n        /* \"#utility.yul\":3159:3162   */\n      dup3\n        /* \"#utility.yul\":3152:3207   */\n      mstore\n        /* \"#utility.yul\":3072:3213   */\n      pop\n      pop\n      jump\t// out\n        /* \"#utility.yul\":3219:4277   */\n    tag_20:\n        /* \"#utility.yul\":3517:3521   */\n      0x00\n        /* \"#utility.yul\":3555:3558   */\n      0xc0\n        /* \"#utility.yul\":3544:3553   */\n      dup3\n        /* \"#utility.yul\":3540:3559   */\n      add\n        /* \"#utility.yul\":3532:3559   */\n      swap1\n      pop\n        /* \"#utility.yul\":3605:3614   */\n      dup2\n        /* \"#utility.yul\":3599:3603   */\n      dup2\n        /* \"#utility.yul\":3595:3615   */\n      sub\n        /* \"#utility.yul\":3591:3592   */\n      0x00\n        /* \"#utility.yul\":3580:3589   */\n      dup4\n        /* \"#utility.yul\":3576:3593   */\n      add\n        /* \"#utility.yul\":3569:3616   */\n      mstore\n        /* \"#utility.yul\":3633:3711   */\n      tag_503\n        /* \"#utility.yul\":3706:3710   */\n      dup2\n        /* \"#utility.yul\":3697:3703   */\n      dup10\n        /* \"#utility.yul\":3633:3711   */\n      tag_342\n      jump\t// in\n    tag_503:\n        /* \"#utility.yul\":3625:3711   */\n      swap1\n      pop\n        /* \"#utility.yul\":3758:3767   */\n      dup2\n        /* \"#utility.yul\":3752:3756   */\n      dup2\n        /* \"#utility.yul\":3748:3768   */\n      sub\n        /* \"#utility.yul\":3743:3745   */\n      0x20\n        /* \"#utility.yul\":3732:3741   */\n      dup4\n        /* \"#utility.yul\":3728:3746   */\n      add\n        /* \"#utility.yul\":3721:3769   */\n      mstore\n        /* \"#utility.yul\":3786:3864   */\n      tag_504\n        /* \"#utility.yul\":3859:3863   */\n      dup2\n        /* \"#utility.yul\":3850:3856   */\n      dup9\n        /* \"#utility.yul\":3786:3864   */\n      tag_342\n      jump\t// in\n    tag_504:\n        /* \"#utility.yul\":3778:3864   */\n      swap1\n      pop\n        /* \"#utility.yul\":3911:3920   */\n      dup2\n        /* \"#utility.yul\":3905:3909   */\n      dup2\n        /* \"#utility.yul\":3901:3921   */\n      sub\n        /* \"#utility.yul\":3896:3898   */\n      0x40\n        /* \"#utility.yul\":3885:3894   */\n      dup4\n        /* \"#utility.yul\":3881:3899   */\n      add\n        /* \"#utility.yul\":3874:3922   */\n      mstore\n        /* \"#utility.yul\":3939:4017   */\n      tag_505\n        /* \"#utility.yul\":4012:4016   */\n      dup2\n        /* \"#utility.yul\":4003:4009   */\n      dup8\n        /* \"#utility.yul\":3939:4017   */\n      tag_342\n      jump\t// in\n    tag_505:\n        /* \"#utility.yul\":3931:4017   */\n      swap1\n      pop\n        /* \"#utility.yul\":4027:4099   */\n      tag_506\n        /* \"#utility.yul\":4095:4097   */\n      0x60\n        /* \"#utility.yul\":4084:4093   */\n      dup4\n        /* \"#utility.yul\":4080:4098   */\n      add\n        /* \"#utility.yul\":4071:4077   */\n      dup7\n        /* \"#utility.yul\":4027:4099   */\n      tag_344\n      jump\t// in\n    tag_506:\n        /* \"#utility.yul\":4109:4182   */\n      tag_507\n        /* \"#utility.yul\":4177:4180   */\n      0x80\n        /* \"#utility.yul\":4166:4175   */\n      dup4\n        /* \"#utility.yul\":4162:4181   */\n      add\n        /* \"#utility.yul\":4153:4159   */\n      dup6\n        /* \"#utility.yul\":4109:4182   */\n      tag_347\n      jump\t// in\n    tag_507:\n        /* \"#utility.yul\":4192:4270   */\n      tag_508\n        /* \"#utility.yul\":4265:4268   */\n      0xa0\n        /* \"#utility.yul\":4254:4263   */\n      dup4\n        /* \"#utility.yul\":4250:4269   */\n      add\n        /* \"#utility.yul\":4241:4247   */\n      dup5\n        /* \"#utility.yul\":4192:4270   */\n      tag_351\n      jump\t// in\n    tag_508:\n        /* \"#utility.yul\":3219:4277   */\n      swap8\n      swap7\n      pop\n      pop\n      pop\n      pop\n      pop\n      pop\n      pop\n      jump\t// out\n        /* \"#utility.yul\":4283:4400   */\n    tag_352:\n        /* \"#utility.yul\":4392:4393   */\n      0x00\n        /* \"#utility.yul\":4389:4390   */\n      dup1\n        /* \"#utility.yul\":4382:4394   */\n      revert\n        /* \"#utility.yul\":4406:4523   */\n    tag_353:\n        /* \"#utility.yul\":4515:4516   */\n      0x00\n        /* \"#utility.yul\":4512:4513   */\n      dup1\n        /* \"#utility.yul\":4505:4517   */\n      revert\n        /* \"#utility.yul\":4529:4709   */\n    tag_142:\n        /* \"#utility.yul\":4577:4654   */\n      0x4e487b7100000000000000000000000000000000000000000000000000000000\n        /* \"#utility.yul\":4574:4575   */\n      0x00\n        /* \"#utility.yul\":4567:4655   */\n      mstore\n        /* \"#utility.yul\":4674:4678   */\n      0x41\n        /* \"#utility.yul\":4671:4672   */\n      0x04\n        /* \"#utility.yul\":4664:4679   */\n      mstore\n        /* \"#utility.yul\":4698:4702   */\n      0x24\n        /* \"#utility.yul\":4695:4696   */\n      0x00\n        /* \"#utility.yul\":4688:4703   */\n      revert\n        /* \"#utility.yul\":4715:4996   */\n    tag_354:\n        /* \"#utility.yul\":4798:4825   */\n      tag_513\n        /* \"#utility.yul\":4820:4824   */\n      dup3\n        /* \"#utility.yul\":4798:4825   */\n      tag_341\n      jump\t// in\n    tag_513:\n        /* \"#utility.yul\":4790:4796   */\n      dup2\n        /* \"#utility.yul\":4786:4826   */\n      add\n        /* \"#utility.yul\":4928:4934   */\n      dup2\n        /* \"#utility.yul\":4916:4926   */\n      dup2\n        /* \"#utility.yul\":4913:4935   */\n      lt\n        /* \"#utility.yul\":4892:4910   */\n      0xffffffffffffffff\n        /* \"#utility.yul\":4880:4890   */\n      dup3\n        /* \"#utility.yul\":4877:4911   */\n      gt\n        /* \"#utility.yul\":4874:4936   */\n      or\n        /* \"#utility.yul\":4871:4959   */\n      iszero\n      tag_514\n      jumpi\n        /* \"#utility.yul\":4939:4957   */\n      tag_515\n      tag_142\n      jump\t// in\n    tag_515:\n        /* \"#utility.yul\":4871:4959   */\n    tag_514:\n        /* \"#utility.yul\":4979:4989   */\n      dup1\n        /* \"#utility.yul\":4975:4977   */\n      0x40\n        /* \"#utility.yul\":4968:4990   */\n      mstore\n        /* \"#utility.yul\":4758:4996   */\n      pop\n        /* \"#utility.yul\":4715:4996   */\n      pop\n      pop\n      jump\t// out\n        /* \"#utility.yul\":5002:5131   */\n    tag_355:\n        /* \"#utility.yul\":5036:5042   */\n      0x00\n        /* \"#utility.yul\":5063:5083   */\n      tag_517\n      tag_332\n      jump\t// in\n    tag_517:\n        /* \"#utility.yul\":5053:5083   */\n      swap1\n      pop\n        /* \"#utility.yul\":5092:5125   */\n      tag_518\n        /* \"#utility.yul\":5120:5124   */\n      dup3\n        /* \"#utility.yul\":5112:5118   */\n      dup3\n        /* \"#utility.yul\":5092:5125   */\n      tag_354\n      jump\t// in\n    tag_518:\n        /* \"#utility.yul\":5002:5131   */\n      swap2\n      swap1\n      pop\n      jump\t// out\n        /* \"#utility.yul\":5137:5445   */\n    tag_356:\n        /* \"#utility.yul\":5199:5203   */\n      0x00\n        /* \"#utility.yul\":5289:5307   */\n      0xffffffffffffffff\n        /* \"#utility.yul\":5281:5287   */\n      dup3\n        /* \"#utility.yul\":5278:5308   */\n      gt\n        /* \"#utility.yul\":5275:5331   */\n      iszero\n      tag_520\n      jumpi\n        /* \"#utility.yul\":5311:5329   */\n      tag_521\n      tag_142\n      jump\t// in\n    tag_521:\n        /* \"#utility.yul\":5275:5331   */\n    tag_520:\n        /* \"#utility.yul\":5349:5378   */\n      tag_522\n        /* \"#utility.yul\":5371:5377   */\n      dup3\n        /* \"#utility.yul\":5349:5378   */\n      tag_341\n      jump\t// in\n    tag_522:\n        /* \"#utility.yul\":5341:5378   */\n      swap1\n      pop\n        /* \"#utility.yul\":5433:5437   */\n      0x20\n        /* \"#utility.yul\":5427:5431   */\n      dup2\n        /* \"#utility.yul\":5423:5438   */\n      add\n        /* \"#utility.yul\":5415:5438   */\n      swap1\n      pop\n        /* \"#utility.yul\":5137:5445   */\n      swap2\n      swap1\n      pop\n      jump\t// out\n        /* \"#utility.yul\":5451:5599   */\n    tag_357:\n        /* \"#utility.yul\":5549:5555   */\n      dup3\n        /* \"#utility.yul\":5544:5547   */\n      dup2\n        /* \"#utility.yul\":5539:5542   */\n      dup4\n        /* \"#utility.yul\":5526:5556   */\n      calldatacopy\n        /* \"#utility.yul\":5590:5591   */\n      0x00\n        /* \"#utility.yul\":5581:5587   */\n      dup4\n        /* \"#utility.yul\":5576:5579   */\n      dup4\n        /* \"#utility.yul\":5572:5588   */\n      add\n        /* \"#utility.yul\":5565:5592   */\n      mstore\n        /* \"#utility.yul\":5451:5599   */\n      pop\n      pop\n      pop\n      jump\t// out\n        /* \"#utility.yul\":5605:6030   */\n    tag_358:\n        /* \"#utility.yul\":5683:5688   */\n      0x00\n        /* \"#utility.yul\":5708:5774   */\n      tag_525\n        /* \"#utility.yul\":5724:5773   */\n      tag_526\n        /* \"#utility.yul\":5766:5772   */\n      dup5\n        /* \"#utility.yul\":5724:5773   */\n      tag_356\n      jump\t// in\n    tag_526:\n        /* \"#utility.yul\":5708:5774   */\n      tag_355\n      jump\t// in\n    tag_525:\n        /* \"#utility.yul\":5699:5774   */\n      swap1\n      pop\n        /* \"#utility.yul\":5797:5803   */\n      dup3\n        /* \"#utility.yul\":5790:5795   */\n      dup2\n        /* \"#utility.yul\":5783:5804   */\n      mstore\n        /* \"#utility.yul\":5835:5839   */\n      0x20\n        /* \"#utility.yul\":5828:5833   */\n      dup2\n        /* \"#utility.yul\":5824:5840   */\n      add\n        /* \"#utility.yul\":5873:5876   */\n      dup5\n        /* \"#utility.yul\":5864:5870   */\n      dup5\n        /* \"#utility.yul\":5859:5862   */\n      dup5\n        /* \"#utility.yul\":5855:5871   */\n      add\n        /* \"#utility.yul\":5852:5877   */\n      gt\n        /* \"#utility.yul\":5849:5961   */\n      iszero\n      tag_527\n      jumpi\n        /* \"#utility.yul\":5880:5959   */\n      tag_528\n      tag_353\n      jump\t// in\n    tag_528:\n        /* \"#utility.yul\":5849:5961   */\n    tag_527:\n        /* \"#utility.yul\":5970:6024   */\n      tag_529\n        /* \"#utility.yul\":6017:6023   */\n      dup5\n        /* \"#utility.yul\":6012:6015   */\n      dup3\n        /* \"#utility.yul\":6007:6010   */\n      dup6\n        /* \"#utility.yul\":5970:6024   */\n      tag_357\n      jump\t// in\n    tag_529:\n        /* \"#utility.yul\":5689:6030   */\n      pop\n        /* \"#utility.yul\":5605:6030   */\n      swap4\n      swap3\n      pop\n      pop\n      pop\n      jump\t// out\n        /* \"#utility.yul\":6050:6390   */\n    tag_359:\n        /* \"#utility.yul\":6106:6111   */\n      0x00\n        /* \"#utility.yul\":6155:6158   */\n      dup3\n        /* \"#utility.yul\":6148:6152   */\n      0x1f\n        /* \"#utility.yul\":6140:6146   */\n      dup4\n        /* \"#utility.yul\":6136:6153   */\n      add\n        /* \"#utility.yul\":6132:6159   */\n      slt\n        /* \"#utility.yul\":6122:6244   */\n      tag_531\n      jumpi\n        /* \"#utility.yul\":6163:6242   */\n      tag_532\n      tag_352\n      jump\t// in\n    tag_532:\n        /* \"#utility.yul\":6122:6244   */\n    tag_531:\n        /* \"#utility.yul\":6280:6286   */\n      dup2\n        /* \"#utility.yul\":6267:6287   */\n      calldataload\n        /* \"#utility.yul\":6305:6384   */\n      tag_533\n        /* \"#utility.yul\":6380:6383   */\n      dup5\n        /* \"#utility.yul\":6372:6378   */\n      dup3\n        /* \"#utility.yul\":6365:6369   */\n      0x20\n        /* \"#utility.yul\":6357:6363   */\n      dup7\n        /* \"#utility.yul\":6353:6370   */\n      add\n        /* \"#utility.yul\":6305:6384   */\n      tag_358\n      jump\t// in\n    tag_533:\n        /* \"#utility.yul\":6296:6384   */\n      swap2\n      pop\n        /* \"#utility.yul\":6112:6390   */\n      pop\n        /* \"#utility.yul\":6050:6390   */\n      swap3\n      swap2\n      pop\n      pop\n      jump\t// out\n        /* \"#utility.yul\":6396:6905   */\n    tag_23:\n        /* \"#utility.yul\":6465:6471   */\n      0x00\n        /* \"#utility.yul\":6514:6516   */\n      0x20\n        /* \"#utility.yul\":6502:6511   */\n      dup3\n        /* \"#utility.yul\":6493:6500   */\n      dup5\n        /* \"#utility.yul\":6489:6512   */\n      sub\n        /* \"#utility.yul\":6485:6517   */\n      slt\n        /* \"#utility.yul\":6482:6601   */\n      iszero\n      tag_535\n      jumpi\n        /* \"#utility.yul\":6520:6599   */\n      tag_536\n      tag_333\n      jump\t// in\n    tag_536:\n        /* \"#utility.yul\":6482:6601   */\n    tag_535:\n        /* \"#utility.yul\":6668:6669   */\n      0x00\n        /* \"#utility.yul\":6657:6666   */\n      dup3\n        /* \"#utility.yul\":6653:6670   */\n      add\n        /* \"#utility.yul\":6640:6671   */\n      calldataload\n        /* \"#utility.yul\":6698:6716   */\n      0xffffffffffffffff\n        /* \"#utility.yul\":6690:6696   */\n      dup2\n        /* \"#utility.yul\":6687:6717   */\n      gt\n        /* \"#utility.yul\":6684:6801   */\n      iszero\n      tag_537\n      jumpi\n        /* \"#utility.yul\":6720:6799   */\n      tag_538\n      tag_334\n      jump\t// in\n    tag_538:\n        /* \"#utility.yul\":6684:6801   */\n    tag_537:\n        /* \"#utility.yul\":6825:6888   */\n      tag_539\n        /* \"#utility.yul\":6880:6887   */\n      dup5\n        /* \"#utility.yul\":6871:6877   */\n      dup3\n        /* \"#utility.yul\":6860:6869   */\n      dup6\n        /* \"#utility.yul\":6856:6878   */\n      add\n        /* \"#utility.yul\":6825:6888   */\n      tag_359\n      jump\t// in\n    tag_539:\n        /* \"#utility.yul\":6815:6888   */\n      swap2\n      pop\n        /* \"#utility.yul\":6611:6898   */\n      pop\n        /* \"#utility.yul\":6396:6905   */\n      swap3\n      swap2\n      pop\n      pop\n      jump\t// out\n        /* \"#utility.yul\":6911:7133   */\n    tag_26:\n        /* \"#utility.yul\":7004:7008   */\n      0x00\n        /* \"#utility.yul\":7042:7044   */\n      0x20\n        /* \"#utility.yul\":7031:7040   */\n      dup3\n        /* \"#utility.yul\":7027:7045   */\n      add\n        /* \"#utility.yul\":7019:7045   */\n      swap1\n      pop\n        /* \"#utility.yul\":7055:7126   */\n      tag_541\n        /* \"#utility.yul\":7123:7124   */\n      0x00\n        /* \"#utility.yul\":7112:7121   */\n      dup4\n        /* \"#utility.yul\":7108:7125   */\n      add\n        /* \"#utility.yul\":7099:7105   */\n      dup5\n        /* \"#utility.yul\":7055:7126   */\n      tag_344\n      jump\t// in\n    tag_541:\n        /* \"#utility.yul\":6911:7133   */\n      swap3\n      swap2\n      pop\n      pop\n      jump\t// out\n        /* \"#utility.yul\":7139:7257   */\n    tag_360:\n        /* \"#utility.yul\":7226:7250   */\n      tag_543\n        /* \"#utility.yul\":7244:7249   */\n      dup2\n        /* \"#utility.yul\":7226:7250   */\n      tag_335\n      jump\t// in\n    tag_543:\n        /* \"#utility.yul\":7221:7224   */\n      dup3\n        /* \"#utility.yul\":7214:7251   */\n      mstore\n        /* \"#utility.yul\":7139:7257   */\n      pop\n      pop\n      jump\t// out\n        /* \"#utility.yul\":7263:8028   */\n    tag_31:\n        /* \"#utility.yul\":7493:7497   */\n      0x00\n        /* \"#utility.yul\":7531:7534   */\n      0xa0\n        /* \"#utility.yul\":7520:7529   */\n      dup3\n        /* \"#utility.yul\":7516:7535   */\n      add\n        /* \"#utility.yul\":7508:7535   */\n      swap1\n      pop\n        /* \"#utility.yul\":7545:7616   */\n      tag_545\n        /* \"#utility.yul\":7613:7614   */\n      0x00\n        /* \"#utility.yul\":7602:7611   */\n      dup4\n        /* \"#utility.yul\":7598:7615   */\n      add\n        /* \"#utility.yul\":7589:7595   */\n      dup9\n        /* \"#utility.yul\":7545:7616   */\n      tag_360\n      jump\t// in\n    tag_545:\n        /* \"#utility.yul\":7663:7672   */\n      dup2\n        /* \"#utility.yul\":7657:7661   */\n      dup2\n        /* \"#utility.yul\":7653:7673   */\n      sub\n        /* \"#utility.yul\":7648:7650   */\n      0x20\n        /* \"#utility.yul\":7637:7646   */\n      dup4\n        /* \"#utility.yul\":7633:7651   */\n      add\n        /* \"#utility.yul\":7626:7674   */\n      mstore\n        /* \"#utility.yul\":7691:7769   */\n      tag_546\n        /* \"#utility.yul\":7764:7768   */\n      dup2\n        /* \"#utility.yul\":7755:7761   */\n      dup8\n        /* \"#utility.yul\":7691:7769   */\n      tag_342\n      jump\t// in\n    tag_546:\n        /* \"#utility.yul\":7683:7769   */\n      swap1\n      pop\n        /* \"#utility.yul\":7779:7851   */\n      tag_547\n        /* \"#utility.yul\":7847:7849   */\n      0x40\n        /* \"#utility.yul\":7836:7845   */\n      dup4\n        /* \"#utility.yul\":7832:7850   */\n      add\n        /* \"#utility.yul\":7823:7829   */\n      dup7\n        /* \"#utility.yul\":7779:7851   */\n      tag_344\n      jump\t// in\n    tag_547:\n        /* \"#utility.yul\":7861:7933   */\n      tag_548\n        /* \"#utility.yul\":7929:7931   */\n      0x60\n        /* \"#utility.yul\":7918:7927   */\n      dup4\n        /* \"#utility.yul\":7914:7932   */\n      add\n        /* \"#utility.yul\":7905:7911   */\n      dup6\n        /* \"#utility.yul\":7861:7933   */\n      tag_347\n      jump\t// in\n    tag_548:\n        /* \"#utility.yul\":7943:8021   */\n      tag_549\n        /* \"#utility.yul\":8016:8019   */\n      0x80\n        /* \"#utility.yul\":8005:8014   */\n      dup4\n        /* \"#utility.yul\":8001:8020   */\n      add\n        /* \"#utility.yul\":7992:7998   */\n      dup5\n        /* \"#utility.yul\":7943:8021   */\n      tag_351\n      jump\t// in\n    tag_549:\n        /* \"#utility.yul\":7263:8028   */\n      swap7\n      swap6\n      pop\n      pop\n      pop\n      pop\n      pop\n      pop\n      jump\t// out\n        /* \"#utility.yul\":8034:8156   */\n    tag_361:\n        /* \"#utility.yul\":8107:8131   */\n      tag_551\n        /* \"#utility.yul\":8125:8130   */\n      dup2\n        /* \"#utility.yul\":8107:8131   */\n      tag_346\n      jump\t// in\n    tag_551:\n        /* \"#utility.yul\":8100:8105   */\n      dup2\n        /* \"#utility.yul\":8097:8132   */\n      eq\n        /* \"#utility.yul\":8087:8150   */\n      tag_552\n      jumpi\n        /* \"#utility.yul\":8146:8147   */\n      0x00\n        /* \"#utility.yul\":8143:8144   */\n      dup1\n        /* \"#utility.yul\":8136:8148   */\n      revert\n        /* \"#utility.yul\":8087:8150   */\n    tag_552:\n        /* \"#utility.yul\":8034:8156   */\n      pop\n      jump\t// out\n        /* \"#utility.yul\":8162:8301   */\n    tag_362:\n        /* \"#utility.yul\":8208:8213   */\n      0x00\n        /* \"#utility.yul\":8246:8252   */\n      dup2\n        /* \"#utility.yul\":8233:8253   */\n      calldataload\n        /* \"#utility.yul\":8224:8253   */\n      swap1\n      pop\n        /* \"#utility.yul\":8262:8295   */\n      tag_554\n        /* \"#utility.yul\":8289:8294   */\n      dup2\n        /* \"#utility.yul\":8262:8295   */\n      tag_361\n      jump\t// in\n    tag_554:\n        /* \"#utility.yul\":8162:8301   */\n      swap3\n      swap2\n      pop\n      pop\n      jump\t// out\n        /* \"#utility.yul\":8307:8781   */\n    tag_34:\n        /* \"#utility.yul\":8375:8381   */\n      0x00\n        /* \"#utility.yul\":8383:8389   */\n      dup1\n        /* \"#utility.yul\":8432:8434   */\n      0x40\n        /* \"#utility.yul\":8420:8429   */\n      dup4\n        /* \"#utility.yul\":8411:8418   */\n      dup6\n        /* \"#utility.yul\":8407:8430   */\n      sub\n        /* \"#utility.yul\":8403:8435   */\n      slt\n        /* \"#utility.yul\":8400:8519   */\n      iszero\n      tag_556\n      jumpi\n        /* \"#utility.yul\":8438:8517   */\n      tag_557\n      tag_333\n      jump\t// in\n    tag_557:\n        /* \"#utility.yul\":8400:8519   */\n    tag_556:\n        /* \"#utility.yul\":8558:8559   */\n      0x00\n        /* \"#utility.yul\":8583:8636   */\n      tag_558\n        /* \"#utility.yul\":8628:8635   */\n      dup6\n        /* \"#utility.yul\":8619:8625   */\n      dup3\n        /* \"#utility.yul\":8608:8617   */\n      dup7\n        /* \"#utility.yul\":8604:8626   */\n      add\n        /* \"#utility.yul\":8583:8636   */\n      tag_337\n      jump\t// in\n    tag_558:\n        /* \"#utility.yul\":8573:8636   */\n      swap3\n      pop\n        /* \"#utility.yul\":8529:8646   */\n      pop\n        /* \"#utility.yul\":8685:8687   */\n      0x20\n        /* \"#utility.yul\":8711:8764   */\n      tag_559\n        /* \"#utility.yul\":8756:8763   */\n      dup6\n        /* \"#utility.yul\":8747:8753   */\n      dup3\n        /* \"#utility.yul\":8736:8745   */\n      dup7\n        /* \"#utility.yul\":8732:8754   */\n      add\n        /* \"#utility.yul\":8711:8764   */\n      tag_362\n      jump\t// in\n    tag_559:\n        /* \"#utility.yul\":8701:8764   */\n      swap2\n      pop\n        /* \"#utility.yul\":8656:8774   */\n      pop\n        /* \"#utility.yul\":8307:8781   */\n      swap3\n      pop\n      swap3\n      swap1\n      pop\n      jump\t// out\n        /* \"#utility.yul\":8787:8922   */\n    tag_363:\n        /* \"#utility.yul\":8875:8881   */\n      0x00\n        /* \"#utility.yul\":8909:8914   */\n      dup2\n        /* \"#utility.yul\":8903:8915   */\n      mload\n        /* \"#utility.yul\":8893:8915   */\n      swap1\n      pop\n        /* \"#utility.yul\":8787:8922   */\n      swap2\n      swap1\n      pop\n      jump\t// out\n        /* \"#utility.yul\":8928:9133   */\n    tag_364:\n        /* \"#utility.yul\":9048:9059   */\n      0x00\n        /* \"#utility.yul\":9082:9088   */\n      dup3\n        /* \"#utility.yul\":9077:9080   */\n      dup3\n        /* \"#utility.yul\":9070:9089   */\n      mstore\n        /* \"#utility.yul\":9122:9126   */\n      0x20\n        /* \"#utility.yul\":9117:9120   */\n      dup3\n        /* \"#utility.yul\":9113:9127   */\n      add\n        /* \"#utility.yul\":9098:9127   */\n      swap1\n      pop\n        /* \"#utility.yul\":8928:9133   */\n      swap3\n      swap2\n      pop\n      pop\n      jump\t// out\n        /* \"#utility.yul\":9139:9292   */\n    tag_365:\n        /* \"#utility.yul\":9227:9231   */\n      0x00\n        /* \"#utility.yul\":9250:9253   */\n      dup2\n        /* \"#utility.yul\":9242:9253   */\n      swap1\n      pop\n        /* \"#utility.yul\":9280:9284   */\n      0x20\n        /* \"#utility.yul\":9275:9278   */\n      dup3\n        /* \"#utility.yul\":9271:9285   */\n      add\n        /* \"#utility.yul\":9263:9285   */\n      swap1\n      pop\n        /* \"#utility.yul\":9139:9292   */\n      swap2\n      swap1\n      pop\n      jump\t// out\n        /* \"#utility.yul\":9298:9406   */\n    tag_366:\n        /* \"#utility.yul\":9375:9399   */\n      tag_564\n        /* \"#utility.yul\":9393:9398   */\n      dup2\n        /* \"#utility.yul\":9375:9399   */\n      tag_335\n      jump\t// in\n    tag_564:\n        /* \"#utility.yul\":9370:9373   */\n      dup3\n        /* \"#utility.yul\":9363:9400   */\n      mstore\n        /* \"#utility.yul\":9298:9406   */\n      pop\n      pop\n      jump\t// out\n        /* \"#utility.yul\":9412:9571   */\n    tag_367:\n        /* \"#utility.yul\":9486:9497   */\n      0x00\n        /* \"#utility.yul\":9520:9526   */\n      dup3\n        /* \"#utility.yul\":9515:9518   */\n      dup3\n        /* \"#utility.yul\":9508:9527   */\n      mstore\n        /* \"#utility.yul\":9560:9564   */\n      0x20\n        /* \"#utility.yul\":9555:9558   */\n      dup3\n        /* \"#utility.yul\":9551:9565   */\n      add\n        /* \"#utility.yul\":9536:9565   */\n      swap1\n      pop\n        /* \"#utility.yul\":9412:9571   */\n      swap3\n      swap2\n      pop\n      pop\n      jump\t// out\n        /* \"#utility.yul\":9577:9934   */\n    tag_368:\n        /* \"#utility.yul\":9655:9658   */\n      0x00\n        /* \"#utility.yul\":9683:9722   */\n      tag_567\n        /* \"#utility.yul\":9716:9721   */\n      dup3\n        /* \"#utility.yul\":9683:9722   */\n      tag_338\n      jump\t// in\n    tag_567:\n        /* \"#utility.yul\":9738:9799   */\n      tag_568\n        /* \"#utility.yul\":9792:9798   */\n      dup2\n        /* \"#utility.yul\":9787:9790   */\n      dup6\n        /* \"#utility.yul\":9738:9799   */\n      tag_367\n      jump\t// in\n    tag_568:\n        /* \"#utility.yul\":9731:9799   */\n      swap4\n      pop\n        /* \"#utility.yul\":9808:9873   */\n      tag_569\n        /* \"#utility.yul\":9866:9872   */\n      dup2\n        /* \"#utility.yul\":9861:9864   */\n      dup6\n        /* \"#utility.yul\":9854:9858   */\n      0x20\n        /* \"#utility.yul\":9847:9852   */\n      dup7\n        /* \"#utility.yul\":9843:9859   */\n      add\n        /* \"#utility.yul\":9808:9873   */\n      tag_340\n      jump\t// in\n    tag_569:\n        /* \"#utility.yul\":9898:9927   */\n      tag_570\n        /* \"#utility.yul\":9920:9926   */\n      dup2\n        /* \"#utility.yul\":9898:9927   */\n      tag_341\n      jump\t// in\n    tag_570:\n        /* \"#utility.yul\":9893:9896   */\n      dup5\n        /* \"#utility.yul\":9889:9928   */\n      add\n        /* \"#utility.yul\":9882:9928   */\n      swap2\n      pop\n        /* \"#utility.yul\":9659:9934   */\n      pop\n        /* \"#utility.yul\":9577:9934   */\n      swap3\n      swap2\n      pop\n      pop\n      jump\t// out\n        /* \"#utility.yul\":9940:10048   */\n    tag_369:\n        /* \"#utility.yul\":10017:10041   */\n      tag_572\n        /* \"#utility.yul\":10035:10040   */\n      dup2\n        /* \"#utility.yul\":10017:10041   */\n      tag_343\n      jump\t// in\n    tag_572:\n        /* \"#utility.yul\":10012:10015   */\n      dup3\n        /* \"#utility.yul\":10005:10042   */\n      mstore\n        /* \"#utility.yul\":9940:10048   */\n      pop\n      pop\n      jump\t// out\n        /* \"#utility.yul\":10054:10162   */\n    tag_370:\n        /* \"#utility.yul\":10131:10155   */\n      tag_574\n        /* \"#utility.yul\":10149:10154   */\n      dup2\n        /* \"#utility.yul\":10131:10155   */\n      tag_346\n      jump\t// in\n    tag_574:\n        /* \"#utility.yul\":10126:10129   */\n      dup3\n        /* \"#utility.yul\":10119:10156   */\n      mstore\n        /* \"#utility.yul\":10054:10162   */\n      pop\n      pop\n      jump\t// out\n        /* \"#utility.yul\":10168:10299   */\n    tag_371:\n        /* \"#utility.yul\":10250:10292   */\n      tag_576\n        /* \"#utility.yul\":10286:10291   */\n      dup2\n        /* \"#utility.yul\":10250:10292   */\n      tag_350\n      jump\t// in\n    tag_576:\n        /* \"#utility.yul\":10245:10248   */\n      dup3\n        /* \"#utility.yul\":10238:10293   */\n      mstore\n        /* \"#utility.yul\":10168:10299   */\n      pop\n      pop\n      jump\t// out\n        /* \"#utility.yul\":10367:11495   */\n    tag_372:\n        /* \"#utility.yul\":10468:10471   */\n      0x00\n        /* \"#utility.yul\":10504:10508   */\n      0xa0\n        /* \"#utility.yul\":10499:10502   */\n      dup4\n        /* \"#utility.yul\":10495:10509   */\n      add\n        /* \"#utility.yul\":10589:10593   */\n      0x00\n        /* \"#utility.yul\":10582:10587   */\n      dup4\n        /* \"#utility.yul\":10578:10594   */\n      add\n        /* \"#utility.yul\":10572:10595   */\n      mload\n        /* \"#utility.yul\":10608:10671   */\n      tag_578\n        /* \"#utility.yul\":10665:10669   */\n      0x00\n        /* \"#utility.yul\":10660:10663   */\n      dup7\n        /* \"#utility.yul\":10656:10670   */\n      add\n        /* \"#utility.yul\":10642:10654   */\n      dup3\n        /* \"#utility.yul\":10608:10671   */\n      tag_366\n      jump\t// in\n    tag_578:\n        /* \"#utility.yul\":10519:10681   */\n      pop\n        /* \"#utility.yul\":10770:10774   */\n      0x20\n        /* \"#utility.yul\":10763:10768   */\n      dup4\n        /* \"#utility.yul\":10759:10775   */\n      add\n        /* \"#utility.yul\":10753:10776   */\n      mload\n        /* \"#utility.yul\":10823:10826   */\n      dup5\n        /* \"#utility.yul\":10817:10821   */\n      dup3\n        /* \"#utility.yul\":10813:10827   */\n      sub\n        /* \"#utility.yul\":10806:10810   */\n      0x20\n        /* \"#utility.yul\":10801:10804   */\n      dup7\n        /* \"#utility.yul\":10797:10811   */\n      add\n        /* \"#utility.yul\":10790:10828   */\n      mstore\n        /* \"#utility.yul\":10849:10922   */\n      tag_579\n        /* \"#utility.yul\":10917:10921   */\n      dup3\n        /* \"#utility.yul\":10903:10915   */\n      dup3\n        /* \"#utility.yul\":10849:10922   */\n      tag_368\n      jump\t// in\n    tag_579:\n        /* \"#utility.yul\":10841:10922   */\n      swap2\n      pop\n        /* \"#utility.yul\":10691:10933   */\n      pop\n        /* \"#utility.yul\":11020:11024   */\n      0x40\n        /* \"#utility.yul\":11013:11018   */\n      dup4\n        /* \"#utility.yul\":11009:11025   */\n      add\n        /* \"#utility.yul\":11003:11026   */\n      mload\n        /* \"#utility.yul\":11039:11102   */\n      tag_580\n        /* \"#utility.yul\":11096:11100   */\n      0x40\n        /* \"#utility.yul\":11091:11094   */\n      dup7\n        /* \"#utility.yul\":11087:11101   */\n      add\n        /* \"#utility.yul\":11073:11085   */\n      dup3\n        /* \"#utility.yul\":11039:11102   */\n      tag_369\n      jump\t// in\n    tag_580:\n        /* \"#utility.yul\":10943:11112   */\n      pop\n        /* \"#utility.yul\":11196:11200   */\n      0x60\n        /* \"#utility.yul\":11189:11194   */\n      dup4\n        /* \"#utility.yul\":11185:11201   */\n      add\n        /* \"#utility.yul\":11179:11202   */\n      mload\n        /* \"#utility.yul\":11215:11278   */\n      tag_581\n        /* \"#utility.yul\":11272:11276   */\n      0x60\n        /* \"#utility.yul\":11267:11270   */\n      dup7\n        /* \"#utility.yul\":11263:11277   */\n      add\n        /* \"#utility.yul\":11249:11261   */\n      dup3\n        /* \"#utility.yul\":11215:11278   */\n      tag_370\n      jump\t// in\n    tag_581:\n        /* \"#utility.yul\":11122:11288   */\n      pop\n        /* \"#utility.yul\":11371:11375   */\n      0x80\n        /* \"#utility.yul\":11364:11369   */\n      dup4\n        /* \"#utility.yul\":11360:11376   */\n      add\n        /* \"#utility.yul\":11354:11377   */\n      mload\n        /* \"#utility.yul\":11390:11458   */\n      tag_582\n        /* \"#utility.yul\":11452:11456   */\n      0x80\n        /* \"#utility.yul\":11447:11450   */\n      dup7\n        /* \"#utility.yul\":11443:11457   */\n      add\n        /* \"#utility.yul\":11429:11441   */\n      dup3\n        /* \"#utility.yul\":11390:11458   */\n      tag_371\n      jump\t// in\n    tag_582:\n        /* \"#utility.yul\":11298:11468   */\n      pop\n        /* \"#utility.yul\":11485:11489   */\n      dup1\n        /* \"#utility.yul\":11478:11489   */\n      swap2\n      pop\n        /* \"#utility.yul\":10473:11495   */\n      pop\n        /* \"#utility.yul\":10367:11495   */\n      swap3\n      swap2\n      pop\n      pop\n      jump\t// out\n        /* \"#utility.yul\":11501:11741   */\n    tag_373:\n        /* \"#utility.yul\":11612:11622   */\n      0x00\n        /* \"#utility.yul\":11647:11735   */\n      tag_584\n        /* \"#utility.yul\":11731:11734   */\n      dup4\n        /* \"#utility.yul\":11723:11729   */\n      dup4\n        /* \"#utility.yul\":11647:11735   */\n      tag_372\n      jump\t// in\n    tag_584:\n        /* \"#utility.yul\":11633:11735   */\n      swap1\n      pop\n        /* \"#utility.yul\":11501:11741   */\n      swap3\n      swap2\n      pop\n      pop\n      jump\t// out\n        /* \"#utility.yul\":11747:11881   */\n    tag_374:\n        /* \"#utility.yul\":11838:11842   */\n      0x00\n        /* \"#utility.yul\":11870:11874   */\n      0x20\n        /* \"#utility.yul\":11865:11868   */\n      dup3\n        /* \"#utility.yul\":11861:11875   */\n      add\n        /* \"#utility.yul\":11853:11875   */\n      swap1\n      pop\n        /* \"#utility.yul\":11747:11881   */\n      swap2\n      swap1\n      pop\n      jump\t// out\n        /* \"#utility.yul\":11953:13032   */\n    tag_375:\n        /* \"#utility.yul\":12114:12117   */\n      0x00\n        /* \"#utility.yul\":12143:12218   */\n      tag_587\n        /* \"#utility.yul\":12212:12217   */\n      dup3\n        /* \"#utility.yul\":12143:12218   */\n      tag_363\n      jump\t// in\n    tag_587:\n        /* \"#utility.yul\":12234:12341   */\n      tag_588\n        /* \"#utility.yul\":12334:12340   */\n      dup2\n        /* \"#utility.yul\":12329:12332   */\n      dup6\n        /* \"#utility.yul\":12234:12341   */\n      tag_364\n      jump\t// in\n    tag_588:\n        /* \"#utility.yul\":12227:12341   */\n      swap4\n      pop\n        /* \"#utility.yul\":12367:12370   */\n      dup4\n        /* \"#utility.yul\":12412:12416   */\n      0x20\n        /* \"#utility.yul\":12404:12410   */\n      dup3\n        /* \"#utility.yul\":12400:12417   */\n      mul\n        /* \"#utility.yul\":12395:12398   */\n      dup6\n        /* \"#utility.yul\":12391:12418   */\n      add\n        /* \"#utility.yul\":12442:12519   */\n      tag_589\n        /* \"#utility.yul\":12513:12518   */\n      dup6\n        /* \"#utility.yul\":12442:12519   */\n      tag_365\n      jump\t// in\n    tag_589:\n        /* \"#utility.yul\":12542:12549   */\n      dup1\n        /* \"#utility.yul\":12573:12574   */\n      0x00\n        /* \"#utility.yul\":12558:12987   */\n    tag_590:\n        /* \"#utility.yul\":12583:12589   */\n      dup6\n        /* \"#utility.yul\":12580:12581   */\n      dup2\n        /* \"#utility.yul\":12577:12590   */\n      lt\n        /* \"#utility.yul\":12558:12987   */\n      iszero\n      tag_592\n      jumpi\n        /* \"#utility.yul\":12654:12663   */\n      dup5\n        /* \"#utility.yul\":12648:12652   */\n      dup5\n        /* \"#utility.yul\":12644:12664   */\n      sub\n        /* \"#utility.yul\":12639:12642   */\n      dup10\n        /* \"#utility.yul\":12632:12665   */\n      mstore\n        /* \"#utility.yul\":12705:12711   */\n      dup2\n        /* \"#utility.yul\":12699:12712   */\n      mload\n        /* \"#utility.yul\":12733:12839   */\n      tag_593\n        /* \"#utility.yul\":12834:12838   */\n      dup6\n        /* \"#utility.yul\":12819:12832   */\n      dup3\n        /* \"#utility.yul\":12733:12839   */\n      tag_373\n      jump\t// in\n    tag_593:\n        /* \"#utility.yul\":12725:12839   */\n      swap5\n      pop\n        /* \"#utility.yul\":12862:12943   */\n      tag_594\n        /* \"#utility.yul\":12936:12942   */\n      dup4\n        /* \"#utility.yul\":12862:12943   */\n      tag_374\n      jump\t// in\n    tag_594:\n        /* \"#utility.yul\":12852:12943   */\n      swap3\n      pop\n        /* \"#utility.yul\":12972:12976   */\n      0x20\n        /* \"#utility.yul\":12967:12970   */\n      dup11\n        /* \"#utility.yul\":12963:12977   */\n      add\n        /* \"#utility.yul\":12956:12977   */\n      swap10\n      pop\n        /* \"#utility.yul\":12618:12987   */\n      pop\n        /* \"#utility.yul\":12605:12606   */\n      0x01\n        /* \"#utility.yul\":12602:12603   */\n      dup2\n        /* \"#utility.yul\":12598:12607   */\n      add\n        /* \"#utility.yul\":12593:12607   */\n      swap1\n      pop\n        /* \"#utility.yul\":12558:12987   */\n      jump(tag_590)\n    tag_592:\n        /* \"#utility.yul\":12562:12576   */\n      pop\n        /* \"#utility.yul\":13003:13007   */\n      dup3\n        /* \"#utility.yul\":12996:13007   */\n      swap8\n      pop\n        /* \"#utility.yul\":13023:13026   */\n      dup8\n        /* \"#utility.yul\":13016:13026   */\n      swap6\n      pop\n        /* \"#utility.yul\":12119:13032   */\n      pop\n      pop\n      pop\n      pop\n      pop\n        /* \"#utility.yul\":11953:13032   */\n      swap3\n      swap2\n      pop\n      pop\n      jump\t// out\n        /* \"#utility.yul\":13038:13495   */\n    tag_37:\n        /* \"#utility.yul\":13223:13227   */\n      0x00\n        /* \"#utility.yul\":13261:13263   */\n      0x20\n        /* \"#utility.yul\":13250:13259   */\n      dup3\n        /* \"#utility.yul\":13246:13264   */\n      add\n        /* \"#utility.yul\":13238:13264   */\n      swap1\n      pop\n        /* \"#utility.yul\":13310:13319   */\n      dup2\n        /* \"#utility.yul\":13304:13308   */\n      dup2\n        /* \"#utility.yul\":13300:13320   */\n      sub\n        /* \"#utility.yul\":13296:13297   */\n      0x00\n        /* \"#utility.yul\":13285:13294   */\n      dup4\n        /* \"#utility.yul\":13281:13298   */\n      add\n        /* \"#utility.yul\":13274:13321   */\n      mstore\n        /* \"#utility.yul\":13338:13488   */\n      tag_596\n        /* \"#utility.yul\":13483:13487   */\n      dup2\n        /* \"#utility.yul\":13474:13480   */\n      dup5\n        /* \"#utility.yul\":13338:13488   */\n      tag_375\n      jump\t// in\n    tag_596:\n        /* \"#utility.yul\":13330:13488   */\n      swap1\n      pop\n        /* \"#utility.yul\":13038:13495   */\n      swap3\n      swap2\n      pop\n      pop\n      jump\t// out\n        /* \"#utility.yul\":13501:13615   */\n    tag_376:\n        /* \"#utility.yul\":13568:13574   */\n      0x00\n        /* \"#utility.yul\":13602:13607   */\n      dup2\n        /* \"#utility.yul\":13596:13608   */\n      mload\n        /* \"#utility.yul\":13586:13608   */\n      swap1\n      pop\n        /* \"#utility.yul\":13501:13615   */\n      swap2\n      swap1\n      pop\n      jump\t// out\n        /* \"#utility.yul\":13621:13805   */\n    tag_377:\n        /* \"#utility.yul\":13720:13731   */\n      0x00\n        /* \"#utility.yul\":13754:13760   */\n      dup3\n        /* \"#utility.yul\":13749:13752   */\n      dup3\n        /* \"#utility.yul\":13742:13761   */\n      mstore\n        /* \"#utility.yul\":13794:13798   */\n      0x20\n        /* \"#utility.yul\":13789:13792   */\n      dup3\n        /* \"#utility.yul\":13785:13799   */\n      add\n        /* \"#utility.yul\":13770:13799   */\n      swap1\n      pop\n        /* \"#utility.yul\":13621:13805   */\n      swap3\n      swap2\n      pop\n      pop\n      jump\t// out\n        /* \"#utility.yul\":13811:13943   */\n    tag_378:\n        /* \"#utility.yul\":13878:13882   */\n      0x00\n        /* \"#utility.yul\":13901:13904   */\n      dup2\n        /* \"#utility.yul\":13893:13904   */\n      swap1\n      pop\n        /* \"#utility.yul\":13931:13935   */\n      0x20\n        /* \"#utility.yul\":13926:13929   */\n      dup3\n        /* \"#utility.yul\":13922:13936   */\n      add\n        /* \"#utility.yul\":13914:13936   */\n      swap1\n      pop\n        /* \"#utility.yul\":13811:13943   */\n      swap2\n      swap1\n      pop\n      jump\t// out\n        /* \"#utility.yul\":13949:14128   */\n    tag_379:\n        /* \"#utility.yul\":14018:14028   */\n      0x00\n        /* \"#utility.yul\":14039:14085   */\n      tag_601\n        /* \"#utility.yul\":14081:14084   */\n      dup4\n        /* \"#utility.yul\":14073:14079   */\n      dup4\n        /* \"#utility.yul\":14039:14085   */\n      tag_366\n      jump\t// in\n    tag_601:\n        /* \"#utility.yul\":14117:14121   */\n      0x20\n        /* \"#utility.yul\":14112:14115   */\n      dup4\n        /* \"#utility.yul\":14108:14122   */\n      add\n        /* \"#utility.yul\":14094:14122   */\n      swap1\n      pop\n        /* \"#utility.yul\":13949:14128   */\n      swap3\n      swap2\n      pop\n      pop\n      jump\t// out\n        /* \"#utility.yul\":14134:14247   */\n    tag_380:\n        /* \"#utility.yul\":14204:14208   */\n      0x00\n        /* \"#utility.yul\":14236:14240   */\n      0x20\n        /* \"#utility.yul\":14231:14234   */\n      dup3\n        /* \"#utility.yul\":14227:14241   */\n      add\n        /* \"#utility.yul\":14219:14241   */\n      swap1\n      pop\n        /* \"#utility.yul\":14134:14247   */\n      swap2\n      swap1\n      pop\n      jump\t// out\n        /* \"#utility.yul\":14283:15015   */\n    tag_381:\n        /* \"#utility.yul\":14402:14405   */\n      0x00\n        /* \"#utility.yul\":14431:14485   */\n      tag_604\n        /* \"#utility.yul\":14479:14484   */\n      dup3\n        /* \"#utility.yul\":14431:14485   */\n      tag_376\n      jump\t// in\n    tag_604:\n        /* \"#utility.yul\":14501:14587   */\n      tag_605\n        /* \"#utility.yul\":14580:14586   */\n      dup2\n        /* \"#utility.yul\":14575:14578   */\n      dup6\n        /* \"#utility.yul\":14501:14587   */\n      tag_377\n      jump\t// in\n    tag_605:\n        /* \"#utility.yul\":14494:14587   */\n      swap4\n      pop\n        /* \"#utility.yul\":14611:14667   */\n      tag_606\n        /* \"#utility.yul\":14661:14666   */\n      dup4\n        /* \"#utility.yul\":14611:14667   */\n      tag_378\n      jump\t// in\n    tag_606:\n        /* \"#utility.yul\":14690:14697   */\n      dup1\n        /* \"#utility.yul\":14721:14722   */\n      0x00\n        /* \"#utility.yul\":14706:14990   */\n    tag_607:\n        /* \"#utility.yul\":14731:14737   */\n      dup4\n        /* \"#utility.yul\":14728:14729   */\n      dup2\n        /* \"#utility.yul\":14725:14738   */\n      lt\n        /* \"#utility.yul\":14706:14990   */\n      iszero\n      tag_609\n      jumpi\n        /* \"#utility.yul\":14807:14813   */\n      dup2\n        /* \"#utility.yul\":14801:14814   */\n      mload\n        /* \"#utility.yul\":14834:14897   */\n      tag_610\n        /* \"#utility.yul\":14893:14896   */\n      dup9\n        /* \"#utility.yul\":14878:14891   */\n      dup3\n        /* \"#utility.yul\":14834:14897   */\n      tag_379\n      jump\t// in\n    tag_610:\n        /* \"#utility.yul\":14827:14897   */\n      swap8\n      pop\n        /* \"#utility.yul\":14920:14980   */\n      tag_611\n        /* \"#utility.yul\":14973:14979   */\n      dup4\n        /* \"#utility.yul\":14920:14980   */\n      tag_380\n      jump\t// in\n    tag_611:\n        /* \"#utility.yul\":14910:14980   */\n      swap3\n      pop\n        /* \"#utility.yul\":14766:14990   */\n      pop\n        /* \"#utility.yul\":14753:14754   */\n      0x01\n        /* \"#utility.yul\":14750:14751   */\n      dup2\n        /* \"#utility.yul\":14746:14755   */\n      add\n        /* \"#utility.yul\":14741:14755   */\n      swap1\n      pop\n        /* \"#utility.yul\":14706:14990   */\n      jump(tag_607)\n    tag_609:\n        /* \"#utility.yul\":14710:14724   */\n      pop\n        /* \"#utility.yul\":15006:15009   */\n      dup6\n        /* \"#utility.yul\":14999:15009   */\n      swap4\n      pop\n        /* \"#utility.yul\":14407:15015   */\n      pop\n      pop\n      pop\n        /* \"#utility.yul\":14283:15015   */\n      swap3\n      swap2\n      pop\n      pop\n      jump\t// out\n        /* \"#utility.yul\":15021:15394   */\n    tag_41:\n        /* \"#utility.yul\":15164:15168   */\n      0x00\n        /* \"#utility.yul\":15202:15204   */\n      0x20\n        /* \"#utility.yul\":15191:15200   */\n      dup3\n        /* \"#utility.yul\":15187:15205   */\n      add\n        /* \"#utility.yul\":15179:15205   */\n      swap1\n      pop\n        /* \"#utility.yul\":15251:15260   */\n      dup2\n        /* \"#utility.yul\":15245:15249   */\n      dup2\n        /* \"#utility.yul\":15241:15261   */\n      sub\n        /* \"#utility.yul\":15237:15238   */\n      0x00\n        /* \"#utility.yul\":15226:15235   */\n      dup4\n        /* \"#utility.yul\":15222:15239   */\n      add\n        /* \"#utility.yul\":15215:15262   */\n      mstore\n        /* \"#utility.yul\":15279:15387   */\n      tag_613\n        /* \"#utility.yul\":15382:15386   */\n      dup2\n        /* \"#utility.yul\":15373:15379   */\n      dup5\n        /* \"#utility.yul\":15279:15387   */\n      tag_381\n      jump\t// in\n    tag_613:\n        /* \"#utility.yul\":15271:15387   */\n      swap1\n      pop\n        /* \"#utility.yul\":15021:15394   */\n      swap3\n      swap2\n      pop\n      pop\n      jump\t// out\n        /* \"#utility.yul\":15400:15524   */\n    tag_382:\n        /* \"#utility.yul\":15477:15483   */\n      0x00\n        /* \"#utility.yul\":15511:15516   */\n      dup2\n        /* \"#utility.yul\":15505:15517   */\n      mload\n        /* \"#utility.yul\":15495:15517   */\n      swap1\n      pop\n        /* \"#utility.yul\":15400:15524   */\n      swap2\n      swap1\n      pop\n      jump\t// out\n        /* \"#utility.yul\":15530:15724   */\n    tag_383:\n        /* \"#utility.yul\":15639:15650   */\n      0x00\n        /* \"#utility.yul\":15673:15679   */\n      dup3\n        /* \"#utility.yul\":15668:15671   */\n      dup3\n        /* \"#utility.yul\":15661:15680   */\n      mstore\n        /* \"#utility.yul\":15713:15717   */\n      0x20\n        /* \"#utility.yul\":15708:15711   */\n      dup3\n        /* \"#utility.yul\":15704:15718   */\n      add\n        /* \"#utility.yul\":15689:15718   */\n      swap1\n      pop\n        /* \"#utility.yul\":15530:15724   */\n      swap3\n      swap2\n      pop\n      pop\n      jump\t// out\n        /* \"#utility.yul\":15730:15872   */\n    tag_384:\n        /* \"#utility.yul\":15807:15811   */\n      0x00\n        /* \"#utility.yul\":15830:15833   */\n      dup2\n        /* \"#utility.yul\":15822:15833   */\n      swap1\n      pop\n        /* \"#utility.yul\":15860:15864   */\n      0x20\n        /* \"#utility.yul\":15855:15858   */\n      dup3\n        /* \"#utility.yul\":15851:15865   */\n      add\n        /* \"#utility.yul\":15843:15865   */\n      swap1\n      pop\n        /* \"#utility.yul\":15730:15872   */\n      swap2\n      swap1\n      pop\n      jump\t// out\n        /* \"#utility.yul\":15878:16074   */\n    tag_385:\n        /* \"#utility.yul\":15967:15977   */\n      0x00\n        /* \"#utility.yul\":16002:16068   */\n      tag_618\n        /* \"#utility.yul\":16064:16067   */\n      dup4\n        /* \"#utility.yul\":16056:16062   */\n      dup4\n        /* \"#utility.yul\":16002:16068   */\n      tag_368\n      jump\t// in\n    tag_618:\n        /* \"#utility.yul\":15988:16068   */\n      swap1\n      pop\n        /* \"#utility.yul\":15878:16074   */\n      swap3\n      swap2\n      pop\n      pop\n      jump\t// out\n        /* \"#utility.yul\":16080:16203   */\n    tag_386:\n        /* \"#utility.yul\":16160:16164   */\n      0x00\n        /* \"#utility.yul\":16192:16196   */\n      0x20\n        /* \"#utility.yul\":16187:16190   */\n      dup3\n        /* \"#utility.yul\":16183:16197   */\n      add\n        /* \"#utility.yul\":16175:16197   */\n      swap1\n      pop\n        /* \"#utility.yul\":16080:16203   */\n      swap2\n      swap1\n      pop\n      jump\t// out\n        /* \"#utility.yul\":16237:17228   */\n    tag_387:\n        /* \"#utility.yul\":16376:16379   */\n      0x00\n        /* \"#utility.yul\":16405:16469   */\n      tag_621\n        /* \"#utility.yul\":16463:16468   */\n      dup3\n        /* \"#utility.yul\":16405:16469   */\n      tag_382\n      jump\t// in\n    tag_621:\n        /* \"#utility.yul\":16485:16581   */\n      tag_622\n        /* \"#utility.yul\":16574:16580   */\n      dup2\n        /* \"#utility.yul\":16569:16572   */\n      dup6\n        /* \"#utility.yul\":16485:16581   */\n      tag_383\n      jump\t// in\n    tag_622:\n        /* \"#utility.yul\":16478:16581   */\n      swap4\n      pop\n        /* \"#utility.yul\":16607:16610   */\n      dup4\n        /* \"#utility.yul\":16652:16656   */\n      0x20\n        /* \"#utility.yul\":16644:16650   */\n      dup3\n        /* \"#utility.yul\":16640:16657   */\n      mul\n        /* \"#utility.yul\":16635:16638   */\n      dup6\n        /* \"#utility.yul\":16631:16658   */\n      add\n        /* \"#utility.yul\":16682:16748   */\n      tag_623\n        /* \"#utility.yul\":16742:16747   */\n      dup6\n        /* \"#utility.yul\":16682:16748   */\n      tag_384\n      jump\t// in\n    tag_623:\n        /* \"#utility.yul\":16771:16778   */\n      dup1\n        /* \"#utility.yul\":16802:16803   */\n      0x00\n        /* \"#utility.yul\":16787:17183   */\n    tag_624:\n        /* \"#utility.yul\":16812:16818   */\n      dup6\n        /* \"#utility.yul\":16809:16810   */\n      dup2\n        /* \"#utility.yul\":16806:16819   */\n      lt\n        /* \"#utility.yul\":16787:17183   */\n      iszero\n      tag_626\n      jumpi\n        /* \"#utility.yul\":16883:16892   */\n      dup5\n        /* \"#utility.yul\":16877:16881   */\n      dup5\n        /* \"#utility.yul\":16873:16893   */\n      sub\n        /* \"#utility.yul\":16868:16871   */\n      dup10\n        /* \"#utility.yul\":16861:16894   */\n      mstore\n        /* \"#utility.yul\":16934:16940   */\n      dup2\n        /* \"#utility.yul\":16928:16941   */\n      mload\n        /* \"#utility.yul\":16962:17046   */\n      tag_627\n        /* \"#utility.yul\":17041:17045   */\n      dup6\n        /* \"#utility.yul\":17026:17039   */\n      dup3\n        /* \"#utility.yul\":16962:17046   */\n      tag_385\n      jump\t// in\n    tag_627:\n        /* \"#utility.yul\":16954:17046   */\n      swap5\n      pop\n        /* \"#utility.yul\":17069:17139   */\n      tag_628\n        /* \"#utility.yul\":17132:17138   */\n      dup4\n        /* \"#utility.yul\":17069:17139   */\n      tag_386\n      jump\t// in\n    tag_628:\n        /* \"#utility.yul\":17059:17139   */\n      swap3\n      pop\n        /* \"#utility.yul\":17168:17172   */\n      0x20\n        /* \"#utility.yul\":17163:17166   */\n      dup11\n        /* \"#utility.yul\":17159:17173   */\n      add\n        /* \"#utility.yul\":17152:17173   */\n      swap10\n      pop\n        /* \"#utility.yul\":16847:17183   */\n      pop\n        /* \"#utility.yul\":16834:16835   */\n      0x01\n        /* \"#utility.yul\":16831:16832   */\n      dup2\n        /* \"#utility.yul\":16827:16836   */\n      add\n        /* \"#utility.yul\":16822:16836   */\n      swap1\n      pop\n        /* \"#utility.yul\":16787:17183   */\n      jump(tag_624)\n    tag_626:\n        /* \"#utility.yul\":16791:16805   */\n      pop\n        /* \"#utility.yul\":17199:17203   */\n      dup3\n        /* \"#utility.yul\":17192:17203   */\n      swap8\n      pop\n        /* \"#utility.yul\":17219:17222   */\n      dup8\n        /* \"#utility.yul\":17212:17222   */\n      swap6\n      pop\n        /* \"#utility.yul\":16381:17228   */\n      pop\n      pop\n      pop\n      pop\n      pop\n        /* \"#utility.yul\":16237:17228   */\n      swap3\n      swap2\n      pop\n      pop\n      jump\t// out\n        /* \"#utility.yul\":17234:17348   */\n    tag_388:\n        /* \"#utility.yul\":17301:17307   */\n      0x00\n        /* \"#utility.yul\":17335:17340   */\n      dup2\n        /* \"#utility.yul\":17329:17341   */\n      mload\n        /* \"#utility.yul\":17319:17341   */\n      swap1\n      pop\n        /* \"#utility.yul\":17234:17348   */\n      swap2\n      swap1\n      pop\n      jump\t// out\n        /* \"#utility.yul\":17354:17538   */\n    tag_389:\n        /* \"#utility.yul\":17453:17464   */\n      0x00\n        /* \"#utility.yul\":17487:17493   */\n      dup3\n        /* \"#utility.yul\":17482:17485   */\n      dup3\n        /* \"#utility.yul\":17475:17494   */\n      mstore\n        /* \"#utility.yul\":17527:17531   */\n      0x20\n        /* \"#utility.yul\":17522:17525   */\n      dup3\n        /* \"#utility.yul\":17518:17532   */\n      add\n        /* \"#utility.yul\":17503:17532   */\n      swap1\n      pop\n        /* \"#utility.yul\":17354:17538   */\n      swap3\n      swap2\n      pop\n      pop\n      jump\t// out\n        /* \"#utility.yul\":17544:17676   */\n    tag_390:\n        /* \"#utility.yul\":17611:17615   */\n      0x00\n        /* \"#utility.yul\":17634:17637   */\n      dup2\n        /* \"#utility.yul\":17626:17637   */\n      swap1\n      pop\n        /* \"#utility.yul\":17664:17668   */\n      0x20\n        /* \"#utility.yul\":17659:17662   */\n      dup3\n        /* \"#utility.yul\":17655:17669   */\n      add\n        /* \"#utility.yul\":17647:17669   */\n      swap1\n      pop\n        /* \"#utility.yul\":17544:17676   */\n      swap2\n      swap1\n      pop\n      jump\t// out\n        /* \"#utility.yul\":17682:17861   */\n    tag_391:\n        /* \"#utility.yul\":17751:17761   */\n      0x00\n        /* \"#utility.yul\":17772:17818   */\n      tag_633\n        /* \"#utility.yul\":17814:17817   */\n      dup4\n        /* \"#utility.yul\":17806:17812   */\n      dup4\n        /* \"#utility.yul\":17772:17818   */\n      tag_369\n      jump\t// in\n    tag_633:\n        /* \"#utility.yul\":17850:17854   */\n      0x20\n        /* \"#utility.yul\":17845:17848   */\n      dup4\n        /* \"#utility.yul\":17841:17855   */\n      add\n        /* \"#utility.yul\":17827:17855   */\n      swap1\n      pop\n        /* \"#utility.yul\":17682:17861   */\n      swap3\n      swap2\n      pop\n      pop\n      jump\t// out\n        /* \"#utility.yul\":17867:17980   */\n    tag_392:\n        /* \"#utility.yul\":17937:17941   */\n      0x00\n        /* \"#utility.yul\":17969:17973   */\n      0x20\n        /* \"#utility.yul\":17964:17967   */\n      dup3\n        /* \"#utility.yul\":17960:17974   */\n      add\n        /* \"#utility.yul\":17952:17974   */\n      swap1\n      pop\n        /* \"#utility.yul\":17867:17980   */\n      swap2\n      swap1\n      pop\n      jump\t// out\n        /* \"#utility.yul\":18016:18748   */\n    tag_393:\n        /* \"#utility.yul\":18135:18138   */\n      0x00\n        /* \"#utility.yul\":18164:18218   */\n      tag_636\n        /* \"#utility.yul\":18212:18217   */\n      dup3\n        /* \"#utility.yul\":18164:18218   */\n      tag_388\n      jump\t// in\n    tag_636:\n        /* \"#utility.yul\":18234:18320   */\n      tag_637\n        /* \"#utility.yul\":18313:18319   */\n      dup2\n        /* \"#utility.yul\":18308:18311   */\n      dup6\n        /* \"#utility.yul\":18234:18320   */\n      tag_389\n      jump\t// in\n    tag_637:\n        /* \"#utility.yul\":18227:18320   */\n      swap4\n      pop\n        /* \"#utility.yul\":18344:18400   */\n      tag_638\n        /* \"#utility.yul\":18394:18399   */\n      dup4\n        /* \"#utility.yul\":18344:18400   */\n      tag_390\n      jump\t// in\n    tag_638:\n        /* \"#utility.yul\":18423:18430   */\n      dup1\n        /* \"#utility.yul\":18454:18455   */\n      0x00\n        /* \"#utility.yul\":18439:18723   */\n    tag_639:\n        /* \"#utility.yul\":18464:18470   */\n      dup4\n        /* \"#utility.yul\":18461:18462   */\n      dup2\n        /* \"#utility.yul\":18458:18471   */\n      lt\n        /* \"#utility.yul\":18439:18723   */\n      iszero\n      tag_641\n      jumpi\n        /* \"#utility.yul\":18540:18546   */\n      dup2\n        /* \"#utility.yul\":18534:18547   */\n      mload\n        /* \"#utility.yul\":18567:18630   */\n      tag_642\n        /* \"#utility.yul\":18626:18629   */\n      dup9\n        /* \"#utility.yul\":18611:18624   */\n      dup3\n        /* \"#utility.yul\":18567:18630   */\n      tag_391\n      jump\t// in\n    tag_642:\n        /* \"#utility.yul\":18560:18630   */\n      swap8\n      pop\n        /* \"#utility.yul\":18653:18713   */\n      tag_643\n        /* \"#utility.yul\":18706:18712   */\n      dup4\n        /* \"#utility.yul\":18653:18713   */\n      tag_392\n      jump\t// in\n    tag_643:\n        /* \"#utility.yul\":18643:18713   */\n      swap3\n      pop\n        /* \"#utility.yul\":18499:18723   */\n      pop\n        /* \"#utility.yul\":18486:18487   */\n      0x01\n        /* \"#utility.yul\":18483:18484   */\n      dup2\n        /* \"#utility.yul\":18479:18488   */\n      add\n        /* \"#utility.yul\":18474:18488   */\n      swap1\n      pop\n        /* \"#utility.yul\":18439:18723   */\n      jump(tag_639)\n    tag_641:\n        /* \"#utility.yul\":18443:18457   */\n      pop\n        /* \"#utility.yul\":18739:18742   */\n      dup6\n        /* \"#utility.yul\":18732:18742   */\n      swap4\n      pop\n        /* \"#utility.yul\":18140:18748   */\n      pop\n      pop\n      pop\n        /* \"#utility.yul\":18016:18748   */\n      swap3\n      swap2\n      pop\n      pop\n      jump\t// out\n        /* \"#utility.yul\":18754:18868   */\n    tag_394:\n        /* \"#utility.yul\":18821:18827   */\n      0x00\n        /* \"#utility.yul\":18855:18860   */\n      dup2\n        /* \"#utility.yul\":18849:18861   */\n      mload\n        /* \"#utility.yul\":18839:18861   */\n      swap1\n      pop\n        /* \"#utility.yul\":18754:18868   */\n      swap2\n      swap1\n      pop\n      jump\t// out\n        /* \"#utility.yul\":18874:19058   */\n    tag_395:\n        /* \"#utility.yul\":18973:18984   */\n      0x00\n        /* \"#utility.yul\":19007:19013   */\n      dup3\n        /* \"#utility.yul\":19002:19005   */\n      dup3\n        /* \"#utility.yul\":18995:19014   */\n      mstore\n        /* \"#utility.yul\":19047:19051   */\n      0x20\n        /* \"#utility.yul\":19042:19045   */\n      dup3\n        /* \"#utility.yul\":19038:19052   */\n      add\n        /* \"#utility.yul\":19023:19052   */\n      swap1\n      pop\n        /* \"#utility.yul\":18874:19058   */\n      swap3\n      swap2\n      pop\n      pop\n      jump\t// out\n        /* \"#utility.yul\":19064:19196   */\n    tag_396:\n        /* \"#utility.yul\":19131:19135   */\n      0x00\n        /* \"#utility.yul\":19154:19157   */\n      dup2\n        /* \"#utility.yul\":19146:19157   */\n      swap1\n      pop\n        /* \"#utility.yul\":19184:19188   */\n      0x20\n        /* \"#utility.yul\":19179:19182   */\n      dup3\n        /* \"#utility.yul\":19175:19189   */\n      add\n        /* \"#utility.yul\":19167:19189   */\n      swap1\n      pop\n        /* \"#utility.yul\":19064:19196   */\n      swap2\n      swap1\n      pop\n      jump\t// out\n        /* \"#utility.yul\":19202:19381   */\n    tag_397:\n        /* \"#utility.yul\":19271:19281   */\n      0x00\n        /* \"#utility.yul\":19292:19338   */\n      tag_648\n        /* \"#utility.yul\":19334:19337   */\n      dup4\n        /* \"#utility.yul\":19326:19332   */\n      dup4\n        /* \"#utility.yul\":19292:19338   */\n      tag_370\n      jump\t// in\n    tag_648:\n        /* \"#utility.yul\":19370:19374   */\n      0x20\n        /* \"#utility.yul\":19365:19368   */\n      dup4\n        /* \"#utility.yul\":19361:19375   */\n      add\n        /* \"#utility.yul\":19347:19375   */\n      swap1\n      pop\n        /* \"#utility.yul\":19202:19381   */\n      swap3\n      swap2\n      pop\n      pop\n      jump\t// out\n        /* \"#utility.yul\":19387:19500   */\n    tag_398:\n        /* \"#utility.yul\":19457:19461   */\n      0x00\n        /* \"#utility.yul\":19489:19493   */\n      0x20\n        /* \"#utility.yul\":19484:19487   */\n      dup3\n        /* \"#utility.yul\":19480:19494   */\n      add\n        /* \"#utility.yul\":19472:19494   */\n      swap1\n      pop\n        /* \"#utility.yul\":19387:19500   */\n      swap2\n      swap1\n      pop\n      jump\t// out\n        /* \"#utility.yul\":19536:20268   */\n    tag_399:\n        /* \"#utility.yul\":19655:19658   */\n      0x00\n        /* \"#utility.yul\":19684:19738   */\n      tag_651\n        /* \"#utility.yul\":19732:19737   */\n      dup3\n        /* \"#utility.yul\":19684:19738   */\n      tag_394\n      jump\t// in\n    tag_651:\n        /* \"#utility.yul\":19754:19840   */\n      tag_652\n        /* \"#utility.yul\":19833:19839   */\n      dup2\n        /* \"#utility.yul\":19828:19831   */\n      dup6\n        /* \"#utility.yul\":19754:19840   */\n      tag_395\n      jump\t// in\n    tag_652:\n        /* \"#utility.yul\":19747:19840   */\n      swap4\n      pop\n        /* \"#utility.yul\":19864:19920   */\n      tag_653\n        /* \"#utility.yul\":19914:19919   */\n      dup4\n        /* \"#utility.yul\":19864:19920   */\n      tag_396\n      jump\t// in\n    tag_653:\n        /* \"#utility.yul\":19943:19950   */\n      dup1\n        /* \"#utility.yul\":19974:19975   */\n      0x00\n        /* \"#utility.yul\":19959:20243   */\n    tag_654:\n        /* \"#utility.yul\":19984:19990   */\n      dup4\n        /* \"#utility.yul\":19981:19982   */\n      dup2\n        /* \"#utility.yul\":19978:19991   */\n      lt\n        /* \"#utility.yul\":19959:20243   */\n      iszero\n      tag_656\n      jumpi\n        /* \"#utility.yul\":20060:20066   */\n      dup2\n        /* \"#utility.yul\":20054:20067   */\n      mload\n        /* \"#utility.yul\":20087:20150   */\n      tag_657\n        /* \"#utility.yul\":20146:20149   */\n      dup9\n        /* \"#utility.yul\":20131:20144   */\n      dup3\n        /* \"#utility.yul\":20087:20150   */\n      tag_397\n      jump\t// in\n    tag_657:\n        /* \"#utility.yul\":20080:20150   */\n      swap8\n      pop\n        /* \"#utility.yul\":20173:20233   */\n      tag_658\n        /* \"#utility.yul\":20226:20232   */\n      dup4\n        /* \"#utility.yul\":20173:20233   */\n      tag_398\n      jump\t// in\n    tag_658:\n        /* \"#utility.yul\":20163:20233   */\n      swap3\n      pop\n        /* \"#utility.yul\":20019:20243   */\n      pop\n        /* \"#utility.yul\":20006:20007   */\n      0x01\n        /* \"#utility.yul\":20003:20004   */\n      dup2\n        /* \"#utility.yul\":19999:20008   */\n      add\n        /* \"#utility.yul\":19994:20008   */\n      swap1\n      pop\n        /* \"#utility.yul\":19959:20243   */\n      jump(tag_654)\n    tag_656:\n        /* \"#utility.yul\":19963:19977   */\n      pop\n        /* \"#utility.yul\":20259:20262   */\n      dup6\n        /* \"#utility.yul\":20252:20262   */\n      swap4\n      pop\n        /* \"#utility.yul\":19660:20268   */\n      pop\n      pop\n      pop\n        /* \"#utility.yul\":19536:20268   */\n      swap3\n      swap2\n      pop\n      pop\n      jump\t// out\n        /* \"#utility.yul\":20274:20395   */\n    tag_400:\n        /* \"#utility.yul\":20348:20354   */\n      0x00\n        /* \"#utility.yul\":20382:20387   */\n      dup2\n        /* \"#utility.yul\":20376:20388   */\n      mload\n        /* \"#utility.yul\":20366:20388   */\n      swap1\n      pop\n        /* \"#utility.yul\":20274:20395   */\n      swap2\n      swap1\n      pop\n      jump\t// out\n        /* \"#utility.yul\":20401:20583   */\n    tag_401:\n        /* \"#utility.yul\":20498:20509   */\n      0x00\n        /* \"#utility.yul\":20532:20538   */\n      dup3\n        /* \"#utility.yul\":20527:20530   */\n      dup3\n        /* \"#utility.yul\":20520:20539   */\n      mstore\n        /* \"#utility.yul\":20572:20576   */\n      0x20\n        /* \"#utility.yul\":20567:20570   */\n      dup3\n        /* \"#utility.yul\":20563:20577   */\n      add\n        /* \"#utility.yul\":20548:20577   */\n      swap1\n      pop\n        /* \"#utility.yul\":20401:20583   */\n      swap3\n      swap2\n      pop\n      pop\n      jump\t// out\n        /* \"#utility.yul\":20589:20728   */\n    tag_402:\n        /* \"#utility.yul\":20663:20667   */\n      0x00\n        /* \"#utility.yul\":20686:20689   */\n      dup2\n        /* \"#utility.yul\":20678:20689   */\n      swap1\n      pop\n        /* \"#utility.yul\":20716:20720   */\n      0x20\n        /* \"#utility.yul\":20711:20714   */\n      dup3\n        /* \"#utility.yul\":20707:20721   */\n      add\n        /* \"#utility.yul\":20699:20721   */\n      swap1\n      pop\n        /* \"#utility.yul\":20589:20728   */\n      swap2\n      swap1\n      pop\n      jump\t// out\n        /* \"#utility.yul\":20734:20923   */\n    tag_403:\n        /* \"#utility.yul\":20808:20818   */\n      0x00\n        /* \"#utility.yul\":20829:20880   */\n      tag_663\n        /* \"#utility.yul\":20876:20879   */\n      dup4\n        /* \"#utility.yul\":20868:20874   */\n      dup4\n        /* \"#utility.yul\":20829:20880   */\n      tag_371\n      jump\t// in\n    tag_663:\n        /* \"#utility.yul\":20912:20916   */\n      0x20\n        /* \"#utility.yul\":20907:20910   */\n      dup4\n        /* \"#utility.yul\":20903:20917   */\n      add\n        /* \"#utility.yul\":20889:20917   */\n      swap1\n      pop\n        /* \"#utility.yul\":20734:20923   */\n      swap3\n      swap2\n      pop\n      pop\n      jump\t// out\n        /* \"#utility.yul\":20929:21049   */\n    tag_404:\n        /* \"#utility.yul\":21006:21010   */\n      0x00\n        /* \"#utility.yul\":21038:21042   */\n      0x20\n        /* \"#utility.yul\":21033:21036   */\n      dup3\n        /* \"#utility.yul\":21029:21043   */\n      add\n        /* \"#utility.yul\":21021:21043   */\n      swap1\n      pop\n        /* \"#utility.yul\":20929:21049   */\n      swap2\n      swap1\n      pop\n      jump\t// out\n        /* \"#utility.yul\":21099:21860   */\n    tag_405:\n        /* \"#utility.yul\":21223:21226   */\n      0x00\n        /* \"#utility.yul\":21252:21313   */\n      tag_666\n        /* \"#utility.yul\":21307:21312   */\n      dup3\n        /* \"#utility.yul\":21252:21313   */\n      tag_400\n      jump\t// in\n    tag_666:\n        /* \"#utility.yul\":21329:21413   */\n      tag_667\n        /* \"#utility.yul\":21406:21412   */\n      dup2\n        /* \"#utility.yul\":21401:21404   */\n      dup6\n        /* \"#utility.yul\":21329:21413   */\n      tag_401\n      jump\t// in\n    tag_667:\n        /* \"#utility.yul\":21322:21413   */\n      swap4\n      pop\n        /* \"#utility.yul\":21437:21500   */\n      tag_668\n        /* \"#utility.yul\":21494:21499   */\n      dup4\n        /* \"#utility.yul\":21437:21500   */\n      tag_402\n      jump\t// in\n    tag_668:\n        /* \"#utility.yul\":21523:21530   */\n      dup1\n        /* \"#utility.yul\":21554:21555   */\n      0x00\n        /* \"#utility.yul\":21539:21835   */\n    tag_669:\n        /* \"#utility.yul\":21564:21570   */\n      dup4\n        /* \"#utility.yul\":21561:21562   */\n      dup2\n        /* \"#utility.yul\":21558:21571   */\n      lt\n        /* \"#utility.yul\":21539:21835   */\n      iszero\n      tag_671\n      jumpi\n        /* \"#utility.yul\":21640:21646   */\n      dup2\n        /* \"#utility.yul\":21634:21647   */\n      mload\n        /* \"#utility.yul\":21667:21735   */\n      tag_672\n        /* \"#utility.yul\":21731:21734   */\n      dup9\n        /* \"#utility.yul\":21716:21729   */\n      dup3\n        /* \"#utility.yul\":21667:21735   */\n      tag_403\n      jump\t// in\n    tag_672:\n        /* \"#utility.yul\":21660:21735   */\n      swap8\n      pop\n        /* \"#utility.yul\":21758:21825   */\n      tag_673\n        /* \"#utility.yul\":21818:21824   */\n      dup4\n        /* \"#utility.yul\":21758:21825   */\n      tag_404\n      jump\t// in\n    tag_673:\n        /* \"#utility.yul\":21748:21825   */\n      swap3\n      pop\n        /* \"#utility.yul\":21599:21835   */\n      pop\n        /* \"#utility.yul\":21586:21587   */\n      0x01\n        /* \"#utility.yul\":21583:21584   */\n      dup2\n        /* \"#utility.yul\":21579:21588   */\n      add\n        /* \"#utility.yul\":21574:21588   */\n      swap1\n      pop\n        /* \"#utility.yul\":21539:21835   */\n      jump(tag_669)\n    tag_671:\n        /* \"#utility.yul\":21543:21557   */\n      pop\n        /* \"#utility.yul\":21851:21854   */\n      dup6\n        /* \"#utility.yul\":21844:21854   */\n      swap4\n      pop\n        /* \"#utility.yul\":21228:21860   */\n      pop\n      pop\n      pop\n        /* \"#utility.yul\":21099:21860   */\n      swap3\n      swap2\n      pop\n      pop\n      jump\t// out\n        /* \"#utility.yul\":21866:23637   */\n    tag_46:\n        /* \"#utility.yul\":22444:22448   */\n      0x00\n        /* \"#utility.yul\":22482:22485   */\n      0xc0\n        /* \"#utility.yul\":22471:22480   */\n      dup3\n        /* \"#utility.yul\":22467:22486   */\n      add\n        /* \"#utility.yul\":22459:22486   */\n      swap1\n      pop\n        /* \"#utility.yul\":22532:22541   */\n      dup2\n        /* \"#utility.yul\":22526:22530   */\n      dup2\n        /* \"#utility.yul\":22522:22542   */\n      sub\n        /* \"#utility.yul\":22518:22519   */\n      0x00\n        /* \"#utility.yul\":22507:22516   */\n      dup4\n        /* \"#utility.yul\":22503:22520   */\n      add\n        /* \"#utility.yul\":22496:22543   */\n      mstore\n        /* \"#utility.yul\":22560:22668   */\n      tag_675\n        /* \"#utility.yul\":22663:22667   */\n      dup2\n        /* \"#utility.yul\":22654:22660   */\n      dup10\n        /* \"#utility.yul\":22560:22668   */\n      tag_381\n      jump\t// in\n    tag_675:\n        /* \"#utility.yul\":22552:22668   */\n      swap1\n      pop\n        /* \"#utility.yul\":22715:22724   */\n      dup2\n        /* \"#utility.yul\":22709:22713   */\n      dup2\n        /* \"#utility.yul\":22705:22725   */\n      sub\n        /* \"#utility.yul\":22700:22702   */\n      0x20\n        /* \"#utility.yul\":22689:22698   */\n      dup4\n        /* \"#utility.yul\":22685:22703   */\n      add\n        /* \"#utility.yul\":22678:22726   */\n      mstore\n        /* \"#utility.yul\":22743:22871   */\n      tag_676\n        /* \"#utility.yul\":22866:22870   */\n      dup2\n        /* \"#utility.yul\":22857:22863   */\n      dup9\n        /* \"#utility.yul\":22743:22871   */\n      tag_387\n      jump\t// in\n    tag_676:\n        /* \"#utility.yul\":22735:22871   */\n      swap1\n      pop\n        /* \"#utility.yul\":22918:22927   */\n      dup2\n        /* \"#utility.yul\":22912:22916   */\n      dup2\n        /* \"#utility.yul\":22908:22928   */\n      sub\n        /* \"#utility.yul\":22903:22905   */\n      0x40\n        /* \"#utility.yul\":22892:22901   */\n      dup4\n        /* \"#utility.yul\":22888:22906   */\n      add\n        /* \"#utility.yul\":22881:22929   */\n      mstore\n        /* \"#utility.yul\":22946:23074   */\n      tag_677\n        /* \"#utility.yul\":23069:23073   */\n      dup2\n        /* \"#utility.yul\":23060:23066   */\n      dup8\n        /* \"#utility.yul\":22946:23074   */\n      tag_387\n      jump\t// in\n    tag_677:\n        /* \"#utility.yul\":22938:23074   */\n      swap1\n      pop\n        /* \"#utility.yul\":23121:23130   */\n      dup2\n        /* \"#utility.yul\":23115:23119   */\n      dup2\n        /* \"#utility.yul\":23111:23131   */\n      sub\n        /* \"#utility.yul\":23106:23108   */\n      0x60\n        /* \"#utility.yul\":23095:23104   */\n      dup4\n        /* \"#utility.yul\":23091:23109   */\n      add\n        /* \"#utility.yul\":23084:23132   */\n      mstore\n        /* \"#utility.yul\":23149:23257   */\n      tag_678\n        /* \"#utility.yul\":23252:23256   */\n      dup2\n        /* \"#utility.yul\":23243:23249   */\n      dup7\n        /* \"#utility.yul\":23149:23257   */\n      tag_393\n      jump\t// in\n    tag_678:\n        /* \"#utility.yul\":23141:23257   */\n      swap1\n      pop\n        /* \"#utility.yul\":23305:23314   */\n      dup2\n        /* \"#utility.yul\":23299:23303   */\n      dup2\n        /* \"#utility.yul\":23295:23315   */\n      sub\n        /* \"#utility.yul\":23289:23292   */\n      0x80\n        /* \"#utility.yul\":23278:23287   */\n      dup4\n        /* \"#utility.yul\":23274:23293   */\n      add\n        /* \"#utility.yul\":23267:23316   */\n      mstore\n        /* \"#utility.yul\":23333:23441   */\n      tag_679\n        /* \"#utility.yul\":23436:23440   */\n      dup2\n        /* \"#utility.yul\":23427:23433   */\n      dup6\n        /* \"#utility.yul\":23333:23441   */\n      tag_399\n      jump\t// in\n    tag_679:\n        /* \"#utility.yul\":23325:23441   */\n      swap1\n      pop\n        /* \"#utility.yul\":23489:23498   */\n      dup2\n        /* \"#utility.yul\":23483:23487   */\n      dup2\n        /* \"#utility.yul\":23479:23499   */\n      sub\n        /* \"#utility.yul\":23473:23476   */\n      0xa0\n        /* \"#utility.yul\":23462:23471   */\n      dup4\n        /* \"#utility.yul\":23458:23477   */\n      add\n        /* \"#utility.yul\":23451:23500   */\n      mstore\n        /* \"#utility.yul\":23517:23630   */\n      tag_680\n        /* \"#utility.yul\":23625:23629   */\n      dup2\n        /* \"#utility.yul\":23616:23622   */\n      dup5\n        /* \"#utility.yul\":23517:23630   */\n      tag_405\n      jump\t// in\n    tag_680:\n        /* \"#utility.yul\":23509:23630   */\n      swap1\n      pop\n        /* \"#utility.yul\":21866:23637   */\n      swap8\n      swap7\n      pop\n      pop\n      pop\n      pop\n      pop\n      pop\n      pop\n      jump\t// out\n        /* \"#utility.yul\":23643:24297   */\n    tag_49:\n        /* \"#utility.yul\":23721:23727   */\n      0x00\n        /* \"#utility.yul\":23729:23735   */\n      dup1\n        /* \"#utility.yul\":23778:23780   */\n      0x40\n        /* \"#utility.yul\":23766:23775   */\n      dup4\n        /* \"#utility.yul\":23757:23764   */\n      dup6\n        /* \"#utility.yul\":23753:23776   */\n      sub\n        /* \"#utility.yul\":23749:23781   */\n      slt\n        /* \"#utility.yul\":23746:23865   */\n      iszero\n      tag_682\n      jumpi\n        /* \"#utility.yul\":23784:23863   */\n      tag_683\n      tag_333\n      jump\t// in\n    tag_683:\n        /* \"#utility.yul\":23746:23865   */\n    tag_682:\n        /* \"#utility.yul\":23904:23905   */\n      0x00\n        /* \"#utility.yul\":23929:23982   */\n      tag_684\n        /* \"#utility.yul\":23974:23981   */\n      dup6\n        /* \"#utility.yul\":23965:23971   */\n      dup3\n        /* \"#utility.yul\":23954:23963   */\n      dup7\n        /* \"#utility.yul\":23950:23972   */\n      add\n        /* \"#utility.yul\":23929:23982   */\n      tag_337\n      jump\t// in\n    tag_684:\n        /* \"#utility.yul\":23919:23982   */\n      swap3\n      pop\n        /* \"#utility.yul\":23875:23992   */\n      pop\n        /* \"#utility.yul\":24059:24061   */\n      0x20\n        /* \"#utility.yul\":24048:24057   */\n      dup4\n        /* \"#utility.yul\":24044:24062   */\n      add\n        /* \"#utility.yul\":24031:24063   */\n      calldataload\n        /* \"#utility.yul\":24090:24108   */\n      0xffffffffffffffff\n        /* \"#utility.yul\":24082:24088   */\n      dup2\n        /* \"#utility.yul\":24079:24109   */\n      gt\n        /* \"#utility.yul\":24076:24193   */\n      iszero\n      tag_685\n      jumpi\n        /* \"#utility.yul\":24112:24191   */\n      tag_686\n      tag_334\n      jump\t// in\n    tag_686:\n        /* \"#utility.yul\":24076:24193   */\n    tag_685:\n        /* \"#utility.yul\":24217:24280   */\n      tag_687\n        /* \"#utility.yul\":24272:24279   */\n      dup6\n        /* \"#utility.yul\":24263:24269   */\n      dup3\n        /* \"#utility.yul\":24252:24261   */\n      dup7\n        /* \"#utility.yul\":24248:24270   */\n      add\n        /* \"#utility.yul\":24217:24280   */\n      tag_359\n      jump\t// in\n    tag_687:\n        /* \"#utility.yul\":24207:24280   */\n      swap2\n      pop\n        /* \"#utility.yul\":24002:24290   */\n      pop\n        /* \"#utility.yul\":23643:24297   */\n      swap3\n      pop\n      swap3\n      swap1\n      pop\n      jump\t// out\n        /* \"#utility.yul\":24303:24393   */\n    tag_406:\n        /* \"#utility.yul\":24337:24344   */\n      0x00\n        /* \"#utility.yul\":24380:24385   */\n      dup2\n        /* \"#utility.yul\":24373:24386   */\n      iszero\n        /* \"#utility.yul\":24366:24387   */\n      iszero\n        /* \"#utility.yul\":24355:24387   */\n      swap1\n      pop\n        /* \"#utility.yul\":24303:24393   */\n      swap2\n      swap1\n      pop\n      jump\t// out\n        /* \"#utility.yul\":24399:24508   */\n    tag_407:\n        /* \"#utility.yul\":24480:24501   */\n      tag_690\n        /* \"#utility.yul\":24495:24500   */\n      dup2\n        /* \"#utility.yul\":24480:24501   */\n      tag_406\n      jump\t// in\n    tag_690:\n        /* \"#utility.yul\":24475:24478   */\n      dup3\n        /* \"#utility.yul\":24468:24502   */\n      mstore\n        /* \"#utility.yul\":24399:24508   */\n      pop\n      pop\n      jump\t// out\n        /* \"#utility.yul\":24514:24724   */\n    tag_55:\n        /* \"#utility.yul\":24601:24605   */\n      0x00\n        /* \"#utility.yul\":24639:24641   */\n      0x20\n        /* \"#utility.yul\":24628:24637   */\n      dup3\n        /* \"#utility.yul\":24624:24642   */\n      add\n        /* \"#utility.yul\":24616:24642   */\n      swap1\n      pop\n        /* \"#utility.yul\":24652:24717   */\n      tag_692\n        /* \"#utility.yul\":24714:24715   */\n      0x00\n        /* \"#utility.yul\":24703:24712   */\n      dup4\n        /* \"#utility.yul\":24699:24716   */\n      add\n        /* \"#utility.yul\":24690:24696   */\n      dup5\n        /* \"#utility.yul\":24652:24717   */\n      tag_407\n      jump\t// in\n    tag_692:\n        /* \"#utility.yul\":24514:24724   */\n      swap3\n      swap2\n      pop\n      pop\n      jump\t// out\n        /* \"#utility.yul\":24730:24836   */\n    tag_408:\n        /* \"#utility.yul\":24810:24811   */\n      0x02\n        /* \"#utility.yul\":24803:24808   */\n      dup2\n        /* \"#utility.yul\":24800:24812   */\n      lt\n        /* \"#utility.yul\":24790:24830   */\n      tag_694\n      jumpi\n        /* \"#utility.yul\":24826:24827   */\n      0x00\n        /* \"#utility.yul\":24823:24824   */\n      dup1\n        /* \"#utility.yul\":24816:24828   */\n      revert\n        /* \"#utility.yul\":24790:24830   */\n    tag_694:\n        /* \"#utility.yul\":24730:24836   */\n      pop\n      jump\t// out\n        /* \"#utility.yul\":24842:24995   */\n    tag_409:\n        /* \"#utility.yul\":24895:24900   */\n      0x00\n        /* \"#utility.yul\":24933:24939   */\n      dup2\n        /* \"#utility.yul\":24920:24940   */\n      calldataload\n        /* \"#utility.yul\":24911:24940   */\n      swap1\n      pop\n        /* \"#utility.yul\":24949:24989   */\n      tag_696\n        /* \"#utility.yul\":24983:24988   */\n      dup2\n        /* \"#utility.yul\":24949:24989   */\n      tag_408\n      jump\t// in\n    tag_696:\n        /* \"#utility.yul\":24842:24995   */\n      swap3\n      swap2\n      pop\n      pop\n      jump\t// out\n        /* \"#utility.yul\":25001:25489   */\n    tag_58:\n        /* \"#utility.yul\":25076:25082   */\n      0x00\n        /* \"#utility.yul\":25084:25090   */\n      dup1\n        /* \"#utility.yul\":25133:25135   */\n      0x40\n        /* \"#utility.yul\":25121:25130   */\n      dup4\n        /* \"#utility.yul\":25112:25119   */\n      dup6\n        /* \"#utility.yul\":25108:25131   */\n      sub\n        /* \"#utility.yul\":25104:25136   */\n      slt\n        /* \"#utility.yul\":25101:25220   */\n      iszero\n      tag_698\n      jumpi\n        /* \"#utility.yul\":25139:25218   */\n      tag_699\n      tag_333\n      jump\t// in\n    tag_699:\n        /* \"#utility.yul\":25101:25220   */\n    tag_698:\n        /* \"#utility.yul\":25259:25260   */\n      0x00\n        /* \"#utility.yul\":25284:25337   */\n      tag_700\n        /* \"#utility.yul\":25329:25336   */\n      dup6\n        /* \"#utility.yul\":25320:25326   */\n      dup3\n        /* \"#utility.yul\":25309:25318   */\n      dup7\n        /* \"#utility.yul\":25305:25327   */\n      add\n        /* \"#utility.yul\":25284:25337   */\n      tag_337\n      jump\t// in\n    tag_700:\n        /* \"#utility.yul\":25274:25337   */\n      swap3\n      pop\n        /* \"#utility.yul\":25230:25347   */\n      pop\n        /* \"#utility.yul\":25386:25388   */\n      0x20\n        /* \"#utility.yul\":25412:25472   */\n      tag_701\n        /* \"#utility.yul\":25464:25471   */\n      dup6\n        /* \"#utility.yul\":25455:25461   */\n      dup3\n        /* \"#utility.yul\":25444:25453   */\n      dup7\n        /* \"#utility.yul\":25440:25462   */\n      add\n        /* \"#utility.yul\":25412:25472   */\n      tag_409\n      jump\t// in\n    tag_701:\n        /* \"#utility.yul\":25402:25472   */\n      swap2\n      pop\n        /* \"#utility.yul\":25357:25482   */\n      pop\n        /* \"#utility.yul\":25001:25489   */\n      swap3\n      pop\n      swap3\n      swap1\n      pop\n      jump\t// out\n        /* \"#utility.yul\":25495:26980   */\n    tag_66:\n        /* \"#utility.yul\":25621:25627   */\n      0x00\n        /* \"#utility.yul\":25629:25635   */\n      dup1\n        /* \"#utility.yul\":25637:25643   */\n      0x00\n        /* \"#utility.yul\":25645:25651   */\n      dup1\n        /* \"#utility.yul\":25694:25697   */\n      0x80\n        /* \"#utility.yul\":25682:25691   */\n      dup6\n        /* \"#utility.yul\":25673:25680   */\n      dup8\n        /* \"#utility.yul\":25669:25692   */\n      sub\n        /* \"#utility.yul\":25665:25698   */\n      slt\n        /* \"#utility.yul\":25662:25782   */\n      iszero\n      tag_703\n      jumpi\n        /* \"#utility.yul\":25701:25780   */\n      tag_704\n      tag_333\n      jump\t// in\n    tag_704:\n        /* \"#utility.yul\":25662:25782   */\n    tag_703:\n        /* \"#utility.yul\":25849:25850   */\n      0x00\n        /* \"#utility.yul\":25838:25847   */\n      dup6\n        /* \"#utility.yul\":25834:25851   */\n      add\n        /* \"#utility.yul\":25821:25852   */\n      calldataload\n        /* \"#utility.yul\":25879:25897   */\n      0xffffffffffffffff\n        /* \"#utility.yul\":25871:25877   */\n      dup2\n        /* \"#utility.yul\":25868:25898   */\n      gt\n        /* \"#utility.yul\":25865:25982   */\n      iszero\n      tag_705\n      jumpi\n        /* \"#utility.yul\":25901:25980   */\n      tag_706\n      tag_334\n      jump\t// in\n    tag_706:\n        /* \"#utility.yul\":25865:25982   */\n    tag_705:\n        /* \"#utility.yul\":26006:26069   */\n      tag_707\n        /* \"#utility.yul\":26061:26068   */\n      dup8\n        /* \"#utility.yul\":26052:26058   */\n      dup3\n        /* \"#utility.yul\":26041:26050   */\n      dup9\n        /* \"#utility.yul\":26037:26059   */\n      add\n        /* \"#utility.yul\":26006:26069   */\n      tag_359\n      jump\t// in\n    tag_707:\n        /* \"#utility.yul\":25996:26069   */\n      swap5\n      pop\n        /* \"#utility.yul\":25792:26079   */\n      pop\n        /* \"#utility.yul\":26146:26148   */\n      0x20\n        /* \"#utility.yul\":26135:26144   */\n      dup6\n        /* \"#utility.yul\":26131:26149   */\n      add\n        /* \"#utility.yul\":26118:26150   */\n      calldataload\n        /* \"#utility.yul\":26177:26195   */\n      0xffffffffffffffff\n        /* \"#utility.yul\":26169:26175   */\n      dup2\n        /* \"#utility.yul\":26166:26196   */\n      gt\n        /* \"#utility.yul\":26163:26280   */\n      iszero\n      tag_708\n      jumpi\n        /* \"#utility.yul\":26199:26278   */\n      tag_709\n      tag_334\n      jump\t// in\n    tag_709:\n        /* \"#utility.yul\":26163:26280   */\n    tag_708:\n        /* \"#utility.yul\":26304:26367   */\n      tag_710\n        /* \"#utility.yul\":26359:26366   */\n      dup8\n        /* \"#utility.yul\":26350:26356   */\n      dup3\n        /* \"#utility.yul\":26339:26348   */\n      dup9\n        /* \"#utility.yul\":26335:26357   */\n      add\n        /* \"#utility.yul\":26304:26367   */\n      tag_359\n      jump\t// in\n    tag_710:\n        /* \"#utility.yul\":26294:26367   */\n      swap4\n      pop\n        /* \"#utility.yul\":26089:26377   */\n      pop\n        /* \"#utility.yul\":26444:26446   */\n      0x40\n        /* \"#utility.yul\":26433:26442   */\n      dup6\n        /* \"#utility.yul\":26429:26447   */\n      add\n        /* \"#utility.yul\":26416:26448   */\n      calldataload\n        /* \"#utility.yul\":26475:26493   */\n      0xffffffffffffffff\n        /* \"#utility.yul\":26467:26473   */\n      dup2\n        /* \"#utility.yul\":26464:26494   */\n      gt\n        /* \"#utility.yul\":26461:26578   */\n      iszero\n      tag_711\n      jumpi\n        /* \"#utility.yul\":26497:26576   */\n      tag_712\n      tag_334\n      jump\t// in\n    tag_712:\n        /* \"#utility.yul\":26461:26578   */\n    tag_711:\n        /* \"#utility.yul\":26602:26665   */\n      tag_713\n        /* \"#utility.yul\":26657:26664   */\n      dup8\n        /* \"#utility.yul\":26648:26654   */\n      dup3\n        /* \"#utility.yul\":26637:26646   */\n      dup9\n        /* \"#utility.yul\":26633:26655   */\n      add\n        /* \"#utility.yul\":26602:26665   */\n      tag_359\n      jump\t// in\n    tag_713:\n        /* \"#utility.yul\":26592:26665   */\n      swap3\n      pop\n        /* \"#utility.yul\":26387:26675   */\n      pop\n        /* \"#utility.yul\":26742:26744   */\n      0x60\n        /* \"#utility.yul\":26731:26740   */\n      dup6\n        /* \"#utility.yul\":26727:26745   */\n      add\n        /* \"#utility.yul\":26714:26746   */\n      calldataload\n        /* \"#utility.yul\":26773:26791   */\n      0xffffffffffffffff\n        /* \"#utility.yul\":26765:26771   */\n      dup2\n        /* \"#utility.yul\":26762:26792   */\n      gt\n        /* \"#utility.yul\":26759:26876   */\n      iszero\n      tag_714\n      jumpi\n        /* \"#utility.yul\":26795:26874   */\n      tag_715\n      tag_334\n      jump\t// in\n    tag_715:\n        /* \"#utility.yul\":26759:26876   */\n    tag_714:\n        /* \"#utility.yul\":26900:26963   */\n      tag_716\n        /* \"#utility.yul\":26955:26962   */\n      dup8\n        /* \"#utility.yul\":26946:26952   */\n      dup3\n        /* \"#utility.yul\":26935:26944   */\n      dup9\n        /* \"#utility.yul\":26931:26953   */\n      add\n        /* \"#utility.yul\":26900:26963   */\n      tag_359\n      jump\t// in\n    tag_716:\n        /* \"#utility.yul\":26890:26963   */\n      swap2\n      pop\n        /* \"#utility.yul\":26685:26973   */\n      pop\n        /* \"#utility.yul\":25495:26980   */\n      swap3\n      swap6\n      swap2\n      swap5\n      pop\n      swap3\n      pop\n      jump\t// out\n        /* \"#utility.yul\":26986:27158   */\n    tag_410:\n        /* \"#utility.yul\":27126:27150   */\n      0x50726f6475637420646f6573206e6f7420657869737400000000000000000000\n        /* \"#utility.yul\":27122:27123   */\n      0x00\n        /* \"#utility.yul\":27114:27120   */\n      dup3\n        /* \"#utility.yul\":27110:27124   */\n      add\n        /* \"#utility.yul\":27103:27151   */\n      mstore\n        /* \"#utility.yul\":26986:27158   */\n      pop\n      jump\t// out\n        /* \"#utility.yul\":27164:27530   */\n    tag_411:\n        /* \"#utility.yul\":27306:27309   */\n      0x00\n        /* \"#utility.yul\":27327:27394   */\n      tag_719\n        /* \"#utility.yul\":27391:27393   */\n      0x16\n        /* \"#utility.yul\":27386:27389   */\n      dup4\n        /* \"#utility.yul\":27327:27394   */\n      tag_339\n      jump\t// in\n    tag_719:\n        /* \"#utility.yul\":27320:27394   */\n      swap2\n      pop\n        /* \"#utility.yul\":27403:27496   */\n      tag_720\n        /* \"#utility.yul\":27492:27495   */\n      dup3\n        /* \"#utility.yul\":27403:27496   */\n      tag_410\n      jump\t// in\n    tag_720:\n        /* \"#utility.yul\":27521:27523   */\n      0x20\n        /* \"#utility.yul\":27516:27519   */\n      dup3\n        /* \"#utility.yul\":27512:27524   */\n      add\n        /* \"#utility.yul\":27505:27524   */\n      swap1\n      pop\n        /* \"#utility.yul\":27164:27530   */\n      swap2\n      swap1\n      pop\n      jump\t// out\n        /* \"#utility.yul\":27536:27955   */\n    tag_71:\n        /* \"#utility.yul\":27702:27706   */\n      0x00\n        /* \"#utility.yul\":27740:27742   */\n      0x20\n        /* \"#utility.yul\":27729:27738   */\n      dup3\n        /* \"#utility.yul\":27725:27743   */\n      add\n        /* \"#utility.yul\":27717:27743   */\n      swap1\n      pop\n        /* \"#utility.yul\":27789:27798   */\n      dup2\n        /* \"#utility.yul\":27783:27787   */\n      dup2\n        /* \"#utility.yul\":27779:27799   */\n      sub\n        /* \"#utility.yul\":27775:27776   */\n      0x00\n        /* \"#utility.yul\":27764:27773   */\n      dup4\n        /* \"#utility.yul\":27760:27777   */\n      add\n        /* \"#utility.yul\":27753:27800   */\n      mstore\n        /* \"#utility.yul\":27817:27948   */\n      tag_722\n        /* \"#utility.yul\":27943:27947   */\n      dup2\n        /* \"#utility.yul\":27817:27948   */\n      tag_411\n      jump\t// in\n    tag_722:\n        /* \"#utility.yul\":27809:27948   */\n      swap1\n      pop\n        /* \"#utility.yul\":27536:27955   */\n      swap2\n      swap1\n      pop\n      jump\t// out\n        /* \"#utility.yul\":27961:28141   */\n    tag_412:\n        /* \"#utility.yul\":28009:28086   */\n      0x4e487b7100000000000000000000000000000000000000000000000000000000\n        /* \"#utility.yul\":28006:28007   */\n      0x00\n        /* \"#utility.yul\":27999:28087   */\n      mstore\n        /* \"#utility.yul\":28106:28110   */\n      0x22\n        /* \"#utility.yul\":28103:28104   */\n      0x04\n        /* \"#utility.yul\":28096:28111   */\n      mstore\n        /* \"#utility.yul\":28130:28134   */\n      0x24\n        /* \"#utility.yul\":28127:28128   */\n      0x00\n        /* \"#utility.yul\":28120:28135   */\n      revert\n        /* \"#utility.yul\":28147:28467   */\n    tag_74:\n        /* \"#utility.yul\":28191:28197   */\n      0x00\n        /* \"#utility.yul\":28228:28229   */\n      0x02\n        /* \"#utility.yul\":28222:28226   */\n      dup3\n        /* \"#utility.yul\":28218:28230   */\n      div\n        /* \"#utility.yul\":28208:28230   */\n      swap1\n      pop\n        /* \"#utility.yul\":28275:28276   */\n      0x01\n        /* \"#utility.yul\":28269:28273   */\n      dup3\n        /* \"#utility.yul\":28265:28277   */\n      and\n        /* \"#utility.yul\":28296:28314   */\n      dup1\n        /* \"#utility.yul\":28286:28367   */\n      tag_725\n      jumpi\n        /* \"#utility.yul\":28352:28356   */\n      0x7f\n        /* \"#utility.yul\":28344:28350   */\n      dup3\n        /* \"#utility.yul\":28340:28357   */\n      and\n        /* \"#utility.yul\":28330:28357   */\n      swap2\n      pop\n        /* \"#utility.yul\":28286:28367   */\n    tag_725:\n        /* \"#utility.yul\":28414:28416   */\n      0x20\n        /* \"#utility.yul\":28406:28412   */\n      dup3\n        /* \"#utility.yul\":28403:28417   */\n      lt\n        /* \"#utility.yul\":28383:28401   */\n      dup2\n        /* \"#utility.yul\":28380:28418   */\n      sub\n        /* \"#utility.yul\":28377:28461   */\n      tag_726\n      jumpi\n        /* \"#utility.yul\":28433:28451   */\n      tag_727\n      tag_412\n      jump\t// in\n    tag_727:\n        /* \"#utility.yul\":28377:28461   */\n    tag_726:\n        /* \"#utility.yul\":28198:28467   */\n      pop\n        /* \"#utility.yul\":28147:28467   */\n      swap2\n      swap1\n      pop\n      jump\t// out\n        /* \"#utility.yul\":28473:28621   */\n    tag_413:\n        /* \"#utility.yul\":28575:28586   */\n      0x00\n        /* \"#utility.yul\":28612:28615   */\n      dup2\n        /* \"#utility.yul\":28597:28615   */\n      swap1\n      pop\n        /* \"#utility.yul\":28473:28621   */\n      swap3\n      swap2\n      pop\n      pop\n      jump\t// out\n        /* \"#utility.yul\":28627:29017   */\n    tag_414:\n        /* \"#utility.yul\":28733:28736   */\n      0x00\n        /* \"#utility.yul\":28761:28800   */\n      tag_730\n        /* \"#utility.yul\":28794:28799   */\n      dup3\n        /* \"#utility.yul\":28761:28800   */\n      tag_338\n      jump\t// in\n    tag_730:\n        /* \"#utility.yul\":28816:28905   */\n      tag_731\n        /* \"#utility.yul\":28898:28904   */\n      dup2\n        /* \"#utility.yul\":28893:28896   */\n      dup6\n        /* \"#utility.yul\":28816:28905   */\n      tag_413\n      jump\t// in\n    tag_731:\n        /* \"#utility.yul\":28809:28905   */\n      swap4\n      pop\n        /* \"#utility.yul\":28914:28979   */\n      tag_732\n        /* \"#utility.yul\":28972:28978   */\n      dup2\n        /* \"#utility.yul\":28967:28970   */\n      dup6\n        /* \"#utility.yul\":28960:28964   */\n      0x20\n        /* \"#utility.yul\":28953:28958   */\n      dup7\n        /* \"#utility.yul\":28949:28965   */\n      add\n        /* \"#utility.yul\":28914:28979   */\n      tag_340\n      jump\t// in\n    tag_732:\n        /* \"#utility.yul\":29004:29010   */\n      dup1\n        /* \"#utility.yul\":28999:29002   */\n      dup5\n        /* \"#utility.yul\":28995:29011   */\n      add\n        /* \"#utility.yul\":28988:29011   */\n      swap2\n      pop\n        /* \"#utility.yul\":28737:29017   */\n      pop\n        /* \"#utility.yul\":28627:29017   */\n      swap3\n      swap2\n      pop\n      pop\n      jump\t// out\n        /* \"#utility.yul\":29023:29298   */\n    tag_96:\n        /* \"#utility.yul\":29155:29158   */\n      0x00\n        /* \"#utility.yul\":29177:29272   */\n      tag_734\n        /* \"#utility.yul\":29268:29271   */\n      dup3\n        /* \"#utility.yul\":29259:29265   */\n      dup5\n        /* \"#utility.yul\":29177:29272   */\n      tag_414\n      jump\t// in\n    tag_734:\n        /* \"#utility.yul\":29170:29272   */\n      swap2\n      pop\n        /* \"#utility.yul\":29289:29292   */\n      dup2\n        /* \"#utility.yul\":29282:29292   */\n      swap1\n      pop\n        /* \"#utility.yul\":29023:29298   */\n      swap3\n      swap2\n      pop\n      pop\n      jump\t// out\n        /* \"#utility.yul\":29304:29469   */\n    tag_415:\n        /* \"#utility.yul\":29444:29461   */\n      0x5472616365206e6f7420666f756e640000000000000000000000000000000000\n        /* \"#utility.yul\":29440:29441   */\n      0x00\n        /* \"#utility.yul\":29432:29438   */\n      dup3\n        /* \"#utility.yul\":29428:29442   */\n      add\n        /* \"#utility.yul\":29421:29462   */\n      mstore\n        /* \"#utility.yul\":29304:29469   */\n      pop\n      jump\t// out\n        /* \"#utility.yul\":29475:29841   */\n    tag_416:\n        /* \"#utility.yul\":29617:29620   */\n      0x00\n        /* \"#utility.yul\":29638:29705   */\n      tag_737\n        /* \"#utility.yul\":29702:29704   */\n      0x0f\n        /* \"#utility.yul\":29697:29700   */\n      dup4\n        /* \"#utility.yul\":29638:29705   */\n      tag_339\n      jump\t// in\n    tag_737:\n        /* \"#utility.yul\":29631:29705   */\n      swap2\n      pop\n        /* \"#utility.yul\":29714:29807   */\n      tag_738\n        /* \"#utility.yul\":29803:29806   */\n      dup3\n        /* \"#utility.yul\":29714:29807   */\n      tag_415\n      jump\t// in\n    tag_738:\n        /* \"#utility.yul\":29832:29834   */\n      0x20\n        /* \"#utility.yul\":29827:29830   */\n      dup3\n        /* \"#utility.yul\":29823:29835   */\n      add\n        /* \"#utility.yul\":29816:29835   */\n      swap1\n      pop\n        /* \"#utility.yul\":29475:29841   */\n      swap2\n      swap1\n      pop\n      jump\t// out\n        /* \"#utility.yul\":29847:30266   */\n    tag_100:\n        /* \"#utility.yul\":30013:30017   */\n      0x00\n        /* \"#utility.yul\":30051:30053   */\n      0x20\n        /* \"#utility.yul\":30040:30049   */\n      dup3\n        /* \"#utility.yul\":30036:30054   */\n      add\n        /* \"#utility.yul\":30028:30054   */\n      swap1\n      pop\n        /* \"#utility.yul\":30100:30109   */\n      dup2\n        /* \"#utility.yul\":30094:30098   */\n      dup2\n        /* \"#utility.yul\":30090:30110   */\n      sub\n        /* \"#utility.yul\":30086:30087   */\n      0x00\n        /* \"#utility.yul\":30075:30084   */\n      dup4\n        /* \"#utility.yul\":30071:30088   */\n      add\n        /* \"#utility.yul\":30064:30111   */\n      mstore\n        /* \"#utility.yul\":30128:30259   */\n      tag_740\n        /* \"#utility.yul\":30254:30258   */\n      dup2\n        /* \"#utility.yul\":30128:30259   */\n      tag_416\n      jump\t// in\n    tag_740:\n        /* \"#utility.yul\":30120:30259   */\n      swap1\n      pop\n        /* \"#utility.yul\":29847:30266   */\n      swap2\n      swap1\n      pop\n      jump\t// out\n        /* \"#utility.yul\":30272:30452   */\n    tag_106:\n        /* \"#utility.yul\":30320:30397   */\n      0x4e487b7100000000000000000000000000000000000000000000000000000000\n        /* \"#utility.yul\":30317:30318   */\n      0x00\n        /* \"#utility.yul\":30310:30398   */\n      mstore\n        /* \"#utility.yul\":30417:30421   */\n      0x32\n        /* \"#utility.yul\":30414:30415   */\n      0x04\n        /* \"#utility.yul\":30407:30422   */\n      mstore\n        /* \"#utility.yul\":30441:30445   */\n      0x24\n        /* \"#utility.yul\":30438:30439   */\n      0x00\n        /* \"#utility.yul\":30431:30446   */\n      revert\n        /* \"#utility.yul\":30458:30638   */\n    tag_417:\n        /* \"#utility.yul\":30506:30583   */\n      0x4e487b7100000000000000000000000000000000000000000000000000000000\n        /* \"#utility.yul\":30503:30504   */\n      0x00\n        /* \"#utility.yul\":30496:30584   */\n      mstore\n        /* \"#utility.yul\":30603:30607   */\n      0x11\n        /* \"#utility.yul\":30600:30601   */\n      0x04\n        /* \"#utility.yul\":30593:30608   */\n      mstore\n        /* \"#utility.yul\":30627:30631   */\n      0x24\n        /* \"#utility.yul\":30624:30625   */\n      0x00\n        /* \"#utility.yul\":30617:30632   */\n      revert\n        /* \"#utility.yul\":30644:30877   */\n    tag_139:\n        /* \"#utility.yul\":30683:30686   */\n      0x00\n        /* \"#utility.yul\":30706:30730   */\n      tag_744\n        /* \"#utility.yul\":30724:30729   */\n      dup3\n        /* \"#utility.yul\":30706:30730   */\n      tag_343\n      jump\t// in\n    tag_744:\n        /* \"#utility.yul\":30697:30730   */\n      swap2\n      pop\n        /* \"#utility.yul\":30752:30818   */\n      0xffffffffffffffffffffffffffffffffffffffffffffffffffffffffffffffff\n        /* \"#utility.yul\":30745:30750   */\n      dup3\n        /* \"#utility.yul\":30742:30819   */\n      sub\n        /* \"#utility.yul\":30739:30842   */\n      tag_745\n      jumpi\n        /* \"#utility.yul\":30822:30840   */\n      tag_746\n      tag_417\n      jump\t// in\n    tag_746:\n        /* \"#utility.yul\":30739:30842   */\n    tag_745:\n        /* \"#utility.yul\":30869:30870   */\n      0x01\n        /* \"#utility.yul\":30862:30867   */\n      dup3\n        /* \"#utility.yul\":30858:30871   */\n      add\n        /* \"#utility.yul\":30851:30871   */\n      swap1\n      pop\n        /* \"#utility.yul\":30644:30877   */\n      swap2\n      swap1\n      pop\n      jump\t// out\n        /* \"#utility.yul\":30883:31056   */\n    tag_418:\n        /* \"#utility.yul\":31023:31048   */\n      0x436f64656261722063616e6e6f7420626520656d707479000000000000000000\n        /* \"#utility.yul\":31019:31020   */\n      0x00\n        /* \"#utility.yul\":31011:31017   */\n      dup3\n        /* \"#utility.yul\":31007:31021   */\n      add\n        /* \"#utility.yul\":31000:31049   */\n      mstore\n        /* \"#utility.yul\":30883:31056   */\n      pop\n      jump\t// out\n        /* \"#utility.yul\":31062:31428   */\n    tag_419:\n        /* \"#utility.yul\":31204:31207   */\n      0x00\n        /* \"#utility.yul\":31225:31292   */\n      tag_749\n        /* \"#utility.yul\":31289:31291   */\n      0x17\n        /* \"#utility.yul\":31284:31287   */\n      dup4\n        /* \"#utility.yul\":31225:31292   */\n      tag_339\n      jump\t// in\n    tag_749:\n        /* \"#utility.yul\":31218:31292   */\n      swap2\n      pop\n        /* \"#utility.yul\":31301:31394   */\n      tag_750\n        /* \"#utility.yul\":31390:31393   */\n      dup3\n        /* \"#utility.yul\":31301:31394   */\n      tag_418\n      jump\t// in\n    tag_750:\n        /* \"#utility.yul\":31419:31421   */\n      0x20\n        /* \"#utility.yul\":31414:31417   */\n      dup3\n        /* \"#utility.yul\":31410:31422   */\n      add\n        /* \"#utility.yul\":31403:31422   */\n      swap1\n      pop\n        /* \"#utility.yul\":31062:31428   */\n      swap2\n      swap1\n      pop\n      jump\t// out\n        /* \"#utility.yul\":31434:31853   */\n    tag_175:\n        /* \"#utility.yul\":31600:31604   */\n      0x00\n        /* \"#utility.yul\":31638:31640   */\n      0x20\n        /* \"#utility.yul\":31627:31636   */\n      dup3\n        /* \"#utility.yul\":31623:31641   */\n      add\n        /* \"#utility.yul\":31615:31641   */\n      swap1\n      pop\n        /* \"#utility.yul\":31687:31696   */\n      dup2\n        /* \"#utility.yul\":31681:31685   */\n      dup2\n        /* \"#utility.yul\":31677:31697   */\n      sub\n        /* \"#utility.yul\":31673:31674   */\n      0x00\n        /* \"#utility.yul\":31662:31671   */\n      dup4\n        /* \"#utility.yul\":31658:31675   */\n      add\n        /* \"#utility.yul\":31651:31698   */\n      mstore\n        /* \"#utility.yul\":31715:31846   */\n      tag_752\n        /* \"#utility.yul\":31841:31845   */\n      dup2\n        /* \"#utility.yul\":31715:31846   */\n      tag_419\n      jump\t// in\n    tag_752:\n        /* \"#utility.yul\":31707:31846   */\n      swap1\n      pop\n        /* \"#utility.yul\":31434:31853   */\n      swap2\n      swap1\n      pop\n      jump\t// out\n        /* \"#utility.yul\":31859:32081   */\n    tag_420:\n        /* \"#utility.yul\":31999:32033   */\n      0x4e6f2070726f647563747320666f756e642077697468207468697320636f6465\n        /* \"#utility.yul\":31995:31996   */\n      0x00\n        /* \"#utility.yul\":31987:31993   */\n      dup3\n        /* \"#utility.yul\":31983:31997   */\n      add\n        /* \"#utility.yul\":31976:32034   */\n      mstore\n        /* \"#utility.yul\":32068:32073   */\n      0x6261720000000000000000000000000000000000000000000000000000000000\n        /* \"#utility.yul\":32063:32065   */\n      0x20\n        /* \"#utility.yul\":32055:32061   */\n      dup3\n        /* \"#utility.yul\":32051:32066   */\n      add\n        /* \"#utility.yul\":32044:32074   */\n      mstore\n        /* \"#utility.yul\":31859:32081   */\n      pop\n      jump\t// out\n        /* \"#utility.yul\":32087:32453   */\n    tag_421:\n        /* \"#utility.yul\":32229:32232   */\n      0x00\n        /* \"#utility.yul\":32250:32317   */\n      tag_755\n        /* \"#utility.yul\":32314:32316   */\n      0x23\n        /* \"#utility.yul\":32309:32312   */\n      dup4\n        /* \"#utility.yul\":32250:32317   */\n      tag_339\n      jump\t// in\n    tag_755:\n        /* \"#utility.yul\":32243:32317   */\n      swap2\n      pop\n        /* \"#utility.yul\":32326:32419   */\n      tag_756\n        /* \"#utility.yul\":32415:32418   */\n      dup3\n        /* \"#utility.yul\":32326:32419   */\n      tag_420\n      jump\t// in\n    tag_756:\n        /* \"#utility.yul\":32444:32446   */\n      0x40\n        /* \"#utility.yul\":32439:32442   */\n      dup3\n        /* \"#utility.yul\":32435:32447   */\n      add\n        /* \"#utility.yul\":32428:32447   */\n      swap1\n      pop\n        /* \"#utility.yul\":32087:32453   */\n      swap2\n      swap1\n      pop\n      jump\t// out\n        /* \"#utility.yul\":32459:32878   */\n    tag_181:\n        /* \"#utility.yul\":32625:32629   */\n      0x00\n        /* \"#utility.yul\":32663:32665   */\n      0x20\n        /* \"#utility.yul\":32652:32661   */\n      dup3\n        /* \"#utility.yul\":32648:32666   */\n      add\n        /* \"#utility.yul\":32640:32666   */\n      swap1\n      pop\n        /* \"#utility.yul\":32712:32721   */\n      dup2\n        /* \"#utility.yul\":32706:32710   */\n      dup2\n        /* \"#utility.yul\":32702:32722   */\n      sub\n        /* \"#utility.yul\":32698:32699   */\n      0x00\n        /* \"#utility.yul\":32687:32696   */\n      dup4\n        /* \"#utility.yul\":32683:32700   */\n      add\n        /* \"#utility.yul\":32676:32723   */\n      mstore\n        /* \"#utility.yul\":32740:32871   */\n      tag_758\n        /* \"#utility.yul\":32866:32870   */\n      dup2\n        /* \"#utility.yul\":32740:32871   */\n      tag_421\n      jump\t// in\n    tag_758:\n        /* \"#utility.yul\":32732:32871   */\n      swap1\n      pop\n        /* \"#utility.yul\":32459:32878   */\n      swap2\n      swap1\n      pop\n      jump\t// out\n        /* \"#utility.yul\":32884:33052   */\n    tag_422:\n        /* \"#utility.yul\":33024:33044   */\n      0x50726f64756374206e6f74206163746976650000000000000000000000000000\n        /* \"#utility.yul\":33020:33021   */\n      0x00\n        /* \"#utility.yul\":33012:33018   */\n      dup3\n        /* \"#utility.yul\":33008:33022   */\n      add\n        /* \"#utility.yul\":33001:33045   */\n      mstore\n        /* \"#utility.yul\":32884:33052   */\n      pop\n      jump\t// out\n        /* \"#utility.yul\":33058:33424   */\n    tag_423:\n        /* \"#utility.yul\":33200:33203   */\n      0x00\n        /* \"#utility.yul\":33221:33288   */\n      tag_761\n        /* \"#utility.yul\":33285:33287   */\n      0x12\n        /* \"#utility.yul\":33280:33283   */\n      dup4\n        /* \"#utility.yul\":33221:33288   */\n      tag_339\n      jump\t// in\n    tag_761:\n        /* \"#utility.yul\":33214:33288   */\n      swap2\n      pop\n        /* \"#utility.yul\":33297:33390   */\n      tag_762\n        /* \"#utility.yul\":33386:33389   */\n      dup3\n        /* \"#utility.yul\":33297:33390   */\n      tag_422\n      jump\t// in\n    tag_762:\n        /* \"#utility.yul\":33415:33417   */\n      0x20\n        /* \"#utility.yul\":33410:33413   */\n      dup3\n        /* \"#utility.yul\":33406:33418   */\n      add\n        /* \"#utility.yul\":33399:33418   */\n      swap1\n      pop\n        /* \"#utility.yul\":33058:33424   */\n      swap2\n      swap1\n      pop\n      jump\t// out\n        /* \"#utility.yul\":33430:33849   */\n    tag_247:\n        /* \"#utility.yul\":33596:33600   */\n      0x00\n        /* \"#utility.yul\":33634:33636   */\n      0x20\n        /* \"#utility.yul\":33623:33632   */\n      dup3\n        /* \"#utility.yul\":33619:33637   */\n      add\n        /* \"#utility.yul\":33611:33637   */\n      swap1\n      pop\n        /* \"#utility.yul\":33683:33692   */\n      dup2\n        /* \"#utility.yul\":33677:33681   */\n      dup2\n        /* \"#utility.yul\":33673:33693   */\n      sub\n        /* \"#utility.yul\":33669:33670   */\n      0x00\n        /* \"#utility.yul\":33658:33667   */\n      dup4\n        /* \"#utility.yul\":33654:33671   */\n      add\n        /* \"#utility.yul\":33647:33694   */\n      mstore\n        /* \"#utility.yul\":33711:33842   */\n      tag_764\n        /* \"#utility.yul\":33837:33841   */\n      dup2\n        /* \"#utility.yul\":33711:33842   */\n      tag_423\n      jump\t// in\n    tag_764:\n        /* \"#utility.yul\":33703:33842   */\n      swap1\n      pop\n        /* \"#utility.yul\":33430:33849   */\n      swap2\n      swap1\n      pop\n      jump\t// out\n        /* \"#utility.yul\":33855:34075   */\n    tag_424:\n        /* \"#utility.yul\":33995:34029   */\n      0x5472616365206465736372697074696f6e2063616e6e6f7420626520656d7074\n        /* \"#utility.yul\":33991:33992   */\n      0x00\n        /* \"#utility.yul\":33983:33989   */\n      dup3\n        /* \"#utility.yul\":33979:33993   */\n      add\n        /* \"#utility.yul\":33972:34030   */\n      mstore\n        /* \"#utility.yul\":34064:34067   */\n      0x7900000000000000000000000000000000000000000000000000000000000000\n        /* \"#utility.yul\":34059:34061   */\n      0x20\n        /* \"#utility.yul\":34051:34057   */\n      dup3\n        /* \"#utility.yul\":34047:34062   */\n      add\n        /* \"#utility.yul\":34040:34068   */\n      mstore\n        /* \"#utility.yul\":33855:34075   */\n      pop\n      jump\t// out\n        /* \"#utility.yul\":34081:34447   */\n    tag_425:\n        /* \"#utility.yul\":34223:34226   */\n      0x00\n        /* \"#utility.yul\":34244:34311   */\n      tag_767\n        /* \"#utility.yul\":34308:34310   */\n      0x21\n        /* \"#utility.yul\":34303:34306   */\n      dup4\n        /* \"#utility.yul\":34244:34311   */\n      tag_339\n      jump\t// in\n    tag_767:\n        /* \"#utility.yul\":34237:34311   */\n      swap2\n      pop\n        /* \"#utility.yul\":34320:34413   */\n      tag_768\n        /* \"#utility.yul\":34409:34412   */\n      dup3\n        /* \"#utility.yul\":34320:34413   */\n      tag_424\n      jump\t// in\n    tag_768:\n        /* \"#utility.yul\":34438:34440   */\n      0x40\n        /* \"#utility.yul\":34433:34436   */\n      dup3\n        /* \"#utility.yul\":34429:34441   */\n      add\n        /* \"#utility.yul\":34422:34441   */\n      swap1\n      pop\n        /* \"#utility.yul\":34081:34447   */\n      swap2\n      swap1\n      pop\n      jump\t// out\n        /* \"#utility.yul\":34453:34872   */\n    tag_251:\n        /* \"#utility.yul\":34619:34623   */\n      0x00\n        /* \"#utility.yul\":34657:34659   */\n      0x20\n        /* \"#utility.yul\":34646:34655   */\n      dup3\n        /* \"#utility.yul\":34642:34660   */\n      add\n        /* \"#utility.yul\":34634:34660   */\n      swap1\n      pop\n        /* \"#utility.yul\":34706:34715   */\n      dup2\n        /* \"#utility.yul\":34700:34704   */\n      dup2\n        /* \"#utility.yul\":34696:34716   */\n      sub\n        /* \"#utility.yul\":34692:34693   */\n      0x00\n        /* \"#utility.yul\":34681:34690   */\n      dup4\n        /* \"#utility.yul\":34677:34694   */\n      add\n        /* \"#utility.yul\":34670:34717   */\n      mstore\n        /* \"#utility.yul\":34734:34865   */\n      tag_770\n        /* \"#utility.yul\":34860:34864   */\n      dup2\n        /* \"#utility.yul\":34734:34865   */\n      tag_425\n      jump\t// in\n    tag_770:\n        /* \"#utility.yul\":34726:34865   */\n      swap1\n      pop\n        /* \"#utility.yul\":34453:34872   */\n      swap2\n      swap1\n      pop\n      jump\t// out\n        /* \"#utility.yul\":34878:34957   */\n    tag_426:\n        /* \"#utility.yul\":34917:34924   */\n      0x00\n        /* \"#utility.yul\":34946:34951   */\n      dup2\n        /* \"#utility.yul\":34935:34951   */\n      swap1\n      pop\n        /* \"#utility.yul\":34878:34957   */\n      swap2\n      swap1\n      pop\n      jump\t// out\n        /* \"#utility.yul\":34963:35120   */\n    tag_427:\n        /* \"#utility.yul\":35068:35113   */\n      tag_773\n        /* \"#utility.yul\":35088:35112   */\n      tag_774\n        /* \"#utility.yul\":35106:35111   */\n      dup3\n        /* \"#utility.yul\":35088:35112   */\n      tag_335\n      jump\t// in\n    tag_774:\n        /* \"#utility.yul\":35068:35113   */\n      tag_426\n      jump\t// in\n    tag_773:\n        /* \"#utility.yul\":35063:35066   */\n      dup3\n        /* \"#utility.yul\":35056:35114   */\n      mstore\n        /* \"#utility.yul\":34963:35120   */\n      pop\n      pop\n      jump\t// out\n        /* \"#utility.yul\":35126:35205   */\n    tag_428:\n        /* \"#utility.yul\":35165:35172   */\n      0x00\n        /* \"#utility.yul\":35194:35199   */\n      dup2\n        /* \"#utility.yul\":35183:35199   */\n      swap1\n      pop\n        /* \"#utility.yul\":35126:35205   */\n      swap2\n      swap1\n      pop\n      jump\t// out\n        /* \"#utility.yul\":35211:35368   */\n    tag_429:\n        /* \"#utility.yul\":35316:35361   */\n      tag_777\n        /* \"#utility.yul\":35336:35360   */\n      tag_778\n        /* \"#utility.yul\":35354:35359   */\n      dup3\n        /* \"#utility.yul\":35336:35360   */\n      tag_343\n      jump\t// in\n    tag_778:\n        /* \"#utility.yul\":35316:35361   */\n      tag_428\n      jump\t// in\n    tag_777:\n        /* \"#utility.yul\":35311:35314   */\n      dup3\n        /* \"#utility.yul\":35304:35362   */\n      mstore\n        /* \"#utility.yul\":35211:35368   */\n      pop\n      pop\n      jump\t// out\n        /* \"#utility.yul\":35374:35468   */\n    tag_430:\n        /* \"#utility.yul\":35407:35415   */\n      0x00\n        /* \"#utility.yul\":35455:35460   */\n      dup2\n        /* \"#utility.yul\":35451:35453   */\n      0x60\n        /* \"#utility.yul\":35447:35461   */\n      shl\n        /* \"#utility.yul\":35426:35461   */\n      swap1\n      pop\n        /* \"#utility.yul\":35374:35468   */\n      swap2\n      swap1\n      pop\n      jump\t// out\n        /* \"#utility.yul\":35474:35568   */\n    tag_431:\n        /* \"#utility.yul\":35513:35520   */\n      0x00\n        /* \"#utility.yul\":35542:35562   */\n      tag_781\n        /* \"#utility.yul\":35556:35561   */\n      dup3\n        /* \"#utility.yul\":35542:35562   */\n      tag_430\n      jump\t// in\n    tag_781:\n        /* \"#utility.yul\":35531:35562   */\n      swap1\n      pop\n        /* \"#utility.yul\":35474:35568   */\n      swap2\n      swap1\n      pop\n      jump\t// out\n        /* \"#utility.yul\":35574:35674   */\n    tag_432:\n        /* \"#utility.yul\":35613:35620   */\n      0x00\n        /* \"#utility.yul\":35642:35668   */\n      tag_783\n        /* \"#utility.yul\":35662:35667   */\n      dup3\n        /* \"#utility.yul\":35642:35668   */\n      tag_431\n      jump\t// in\n    tag_783:\n        /* \"#utility.yul\":35631:35668   */\n      swap1\n      pop\n        /* \"#utility.yul\":35574:35674   */\n      swap2\n      swap1\n      pop\n      jump\t// out\n        /* \"#utility.yul\":35680:35837   */\n    tag_433:\n        /* \"#utility.yul\":35785:35830   */\n      tag_785\n        /* \"#utility.yul\":35805:35829   */\n      tag_786\n        /* \"#utility.yul\":35823:35828   */\n      dup3\n        /* \"#utility.yul\":35805:35829   */\n      tag_346\n      jump\t// in\n    tag_786:\n        /* \"#utility.yul\":35785:35830   */\n      tag_432\n      jump\t// in\n    tag_785:\n        /* \"#utility.yul\":35780:35783   */\n      dup3\n        /* \"#utility.yul\":35773:35831   */\n      mstore\n        /* \"#utility.yul\":35680:35837   */\n      pop\n      pop\n      jump\t// out\n        /* \"#utility.yul\":35843:36541   */\n    tag_253:\n        /* \"#utility.yul\":36059:36062   */\n      0x00\n        /* \"#utility.yul\":36074:36149   */\n      tag_788\n        /* \"#utility.yul\":36145:36148   */\n      dup3\n        /* \"#utility.yul\":36136:36142   */\n      dup8\n        /* \"#utility.yul\":36074:36149   */\n      tag_427\n      jump\t// in\n    tag_788:\n        /* \"#utility.yul\":36174:36176   */\n      0x20\n        /* \"#utility.yul\":36169:36172   */\n      dup3\n        /* \"#utility.yul\":36165:36177   */\n      add\n        /* \"#utility.yul\":36158:36177   */\n      swap2\n      pop\n        /* \"#utility.yul\":36187:36262   */\n      tag_789\n        /* \"#utility.yul\":36258:36261   */\n      dup3\n        /* \"#utility.yul\":36249:36255   */\n      dup7\n        /* \"#utility.yul\":36187:36262   */\n      tag_429\n      jump\t// in\n    tag_789:\n        /* \"#utility.yul\":36287:36289   */\n      0x20\n        /* \"#utility.yul\":36282:36285   */\n      dup3\n        /* \"#utility.yul\":36278:36290   */\n      add\n        /* \"#utility.yul\":36271:36290   */\n      swap2\n      pop\n        /* \"#utility.yul\":36300:36375   */\n      tag_790\n        /* \"#utility.yul\":36371:36374   */\n      dup3\n        /* \"#utility.yul\":36362:36368   */\n      dup6\n        /* \"#utility.yul\":36300:36375   */\n      tag_433\n      jump\t// in\n    tag_790:\n        /* \"#utility.yul\":36400:36402   */\n      0x14\n        /* \"#utility.yul\":36395:36398   */\n      dup3\n        /* \"#utility.yul\":36391:36403   */\n      add\n        /* \"#utility.yul\":36384:36403   */\n      swap2\n      pop\n        /* \"#utility.yul\":36420:36515   */\n      tag_791\n        /* \"#utility.yul\":36511:36514   */\n      dup3\n        /* \"#utility.yul\":36502:36508   */\n      dup5\n        /* \"#utility.yul\":36420:36515   */\n      tag_414\n      jump\t// in\n    tag_791:\n        /* \"#utility.yul\":36413:36515   */\n      swap2\n      pop\n        /* \"#utility.yul\":36532:36535   */\n      dup2\n        /* \"#utility.yul\":36525:36535   */\n      swap1\n      pop\n        /* \"#utility.yul\":35843:36541   */\n      swap6\n      swap5\n      pop\n      pop\n      pop\n      pop\n      pop\n      jump\t// out\n        /* \"#utility.yul\":36547:36688   */\n    tag_434:\n        /* \"#utility.yul\":36596:36600   */\n      0x00\n        /* \"#utility.yul\":36619:36622   */\n      dup2\n        /* \"#utility.yul\":36611:36622   */\n      swap1\n      pop\n        /* \"#utility.yul\":36642:36645   */\n      dup2\n        /* \"#utility.yul\":36639:36640   */\n      0x00\n        /* \"#utility.yul\":36632:36646   */\n      mstore\n        /* \"#utility.yul\":36676:36680   */\n      0x20\n        /* \"#utility.yul\":36673:36674   */\n      0x00\n        /* \"#utility.yul\":36663:36681   */\n      keccak256\n        /* \"#utility.yul\":36655:36681   */\n      swap1\n      pop\n        /* \"#utility.yul\":36547:36688   */\n      swap2\n      swap1\n      pop\n      jump\t// out\n        /* \"#utility.yul\":36694:36787   */\n    tag_435:\n        /* \"#utility.yul\":36731:36737   */\n      0x00\n        /* \"#utility.yul\":36778:36780   */\n      0x20\n        /* \"#utility.yul\":36773:36775   */\n      0x1f\n        /* \"#utility.yul\":36766:36771   */\n      dup4\n        /* \"#utility.yul\":36762:36776   */\n      add\n        /* \"#utility.yul\":36758:36781   */\n      div\n        /* \"#utility.yul\":36748:36781   */\n      swap1\n      pop\n        /* \"#utility.yul\":36694:36787   */\n      swap2\n      swap1\n      pop\n      jump\t// out\n        /* \"#utility.yul\":36793:36900   */\n    tag_436:\n        /* \"#utility.yul\":36837:36845   */\n      0x00\n        /* \"#utility.yul\":36887:36892   */\n      dup3\n        /* \"#utility.yul\":36881:36885   */\n      dup3\n        /* \"#utility.yul\":36877:36893   */\n      shl\n        /* \"#utility.yul\":36856:36893   */\n      swap1\n      pop\n        /* \"#utility.yul\":36793:36900   */\n      swap3\n      swap2\n      pop\n      pop\n      jump\t// out\n        /* \"#utility.yul\":36906:37299   */\n    tag_437:\n        /* \"#utility.yul\":36975:36981   */\n      0x00\n        /* \"#utility.yul\":37025:37026   */\n      0x08\n        /* \"#utility.yul\":37013:37023   */\n      dup4\n        /* \"#utility.yul\":37009:37027   */\n      mul\n        /* \"#utility.yul\":37048:37145   */\n      tag_796\n        /* \"#utility.yul\":37078:37144   */\n      0xffffffffffffffffffffffffffffffffffffffffffffffffffffffffffffffff\n        /* \"#utility.yul\":37067:37076   */\n      dup3\n        /* \"#utility.yul\":37048:37145   */\n      tag_436\n      jump\t// in\n    tag_796:\n        /* \"#utility.yul\":37166:37205   */\n      tag_797\n        /* \"#utility.yul\":37196:37204   */\n      dup7\n        /* \"#utility.yul\":37185:37194   */\n      dup4\n        /* \"#utility.yul\":37166:37205   */\n      tag_436\n      jump\t// in\n    tag_797:\n        /* \"#utility.yul\":37154:37205   */\n      swap6\n      pop\n        /* \"#utility.yul\":37238:37242   */\n      dup1\n        /* \"#utility.yul\":37234:37243   */\n      not\n        /* \"#utility.yul\":37227:37232   */\n      dup5\n        /* \"#utility.yul\":37223:37244   */\n      and\n        /* \"#utility.yul\":37214:37244   */\n      swap4\n      pop\n        /* \"#utility.yul\":37287:37291   */\n      dup1\n        /* \"#utility.yul\":37277:37285   */\n      dup7\n        /* \"#utility.yul\":37273:37292   */\n      and\n        /* \"#utility.yul\":37266:37271   */\n      dup5\n        /* \"#utility.yul\":37263:37293   */\n      or\n        /* \"#utility.yul\":37253:37293   */\n      swap3\n      pop\n        /* \"#utility.yul\":36982:37299   */\n      pop\n      pop\n        /* \"#utility.yul\":36906:37299   */\n      swap4\n      swap3\n      pop\n      pop\n      pop\n      jump\t// out\n        /* \"#utility.yul\":37305:37365   */\n    tag_438:\n        /* \"#utility.yul\":37333:37336   */\n      0x00\n        /* \"#utility.yul\":37354:37359   */\n      dup2\n        /* \"#utility.yul\":37347:37359   */\n      swap1\n      pop\n        /* \"#utility.yul\":37305:37365   */\n      swap2\n      swap1\n      pop\n      jump\t// out\n        /* \"#utility.yul\":37371:37513   */\n    tag_439:\n        /* \"#utility.yul\":37421:37430   */\n      0x00\n        /* \"#utility.yul\":37454:37507   */\n      tag_800\n        /* \"#utility.yul\":37472:37506   */\n      tag_801\n        /* \"#utility.yul\":37481:37505   */\n      tag_802\n        /* \"#utility.yul\":37499:37504   */\n      dup5\n        /* \"#utility.yul\":37481:37505   */\n      tag_343\n      jump\t// in\n    tag_802:\n        /* \"#utility.yul\":37472:37506   */\n      tag_438\n      jump\t// in\n    tag_801:\n        /* \"#utility.yul\":37454:37507   */\n      tag_343\n      jump\t// in\n    tag_800:\n        /* \"#utility.yul\":37441:37507   */\n      swap1\n      pop\n        /* \"#utility.yul\":37371:37513   */\n      swap2\n      swap1\n      pop\n      jump\t// out\n        /* \"#utility.yul\":37519:37594   */\n    tag_440:\n        /* \"#utility.yul\":37562:37565   */\n      0x00\n        /* \"#utility.yul\":37583:37588   */\n      dup2\n        /* \"#utility.yul\":37576:37588   */\n      swap1\n      pop\n        /* \"#utility.yul\":37519:37594   */\n      swap2\n      swap1\n      pop\n      jump\t// out\n        /* \"#utility.yul\":37600:37869   */\n    tag_441:\n        /* \"#utility.yul\":37710:37749   */\n      tag_805\n        /* \"#utility.yul\":37741:37748   */\n      dup4\n        /* \"#utility.yul\":37710:37749   */\n      tag_439\n      jump\t// in\n    tag_805:\n        /* \"#utility.yul\":37771:37862   */\n      tag_806\n        /* \"#utility.yul\":37820:37861   */\n      tag_807\n        /* \"#utility.yul\":37844:37860   */\n      dup3\n        /* \"#utility.yul\":37820:37861   */\n      tag_440\n      jump\t// in\n    tag_807:\n        /* \"#utility.yul\":37812:37818   */\n      dup5\n        /* \"#utility.yul\":37805:37809   */\n      dup5\n        /* \"#utility.yul\":37799:37810   */\n      sload\n        /* \"#utility.yul\":37771:37862   */\n      tag_437\n      jump\t// in\n    tag_806:\n        /* \"#utility.yul\":37765:37769   */\n      dup3\n        /* \"#utility.yul\":37758:37863   */\n      sstore\n        /* \"#utility.yul\":37676:37869   */\n      pop\n        /* \"#utility.yul\":37600:37869   */\n      pop\n      pop\n      pop\n      jump\t// out\n        /* \"#utility.yul\":37875:37948   */\n    tag_442:\n        /* \"#utility.yul\":37920:37923   */\n      0x00\n        /* \"#utility.yul\":37875:37948   */\n      swap1\n      jump\t// out\n        /* \"#utility.yul\":37954:38143   */\n    tag_443:\n        /* \"#utility.yul\":38031:38063   */\n      tag_810\n      tag_442\n      jump\t// in\n    tag_810:\n        /* \"#utility.yul\":38072:38137   */\n      tag_811\n        /* \"#utility.yul\":38130:38136   */\n      dup2\n        /* \"#utility.yul\":38122:38128   */\n      dup5\n        /* \"#utility.yul\":38116:38120   */\n      dup5\n        /* \"#utility.yul\":38072:38137   */\n      tag_441\n      jump\t// in\n    tag_811:\n        /* \"#utility.yul\":38007:38143   */\n      pop\n        /* \"#utility.yul\":37954:38143   */\n      pop\n      pop\n      jump\t// out\n        /* \"#utility.yul\":38149:38335   */\n    tag_444:\n        /* \"#utility.yul\":38209:38329   */\n    tag_813:\n        /* \"#utility.yul\":38226:38229   */\n      dup2\n        /* \"#utility.yul\":38219:38224   */\n      dup2\n        /* \"#utility.yul\":38216:38230   */\n      lt\n        /* \"#utility.yul\":38209:38329   */\n      iszero\n      tag_815\n      jumpi\n        /* \"#utility.yul\":38280:38319   */\n      tag_816\n        /* \"#utility.yul\":38317:38318   */\n      0x00\n        /* \"#utility.yul\":38310:38315   */\n      dup3\n        /* \"#utility.yul\":38280:38319   */\n      tag_443\n      jump\t// in\n    tag_816:\n        /* \"#utility.yul\":38253:38254   */\n      0x01\n        /* \"#utility.yul\":38246:38251   */\n      dup2\n        /* \"#utility.yul\":38242:38255   */\n      add\n        /* \"#utility.yul\":38233:38255   */\n      swap1\n      pop\n        /* \"#utility.yul\":38209:38329   */\n      jump(tag_813)\n    tag_815:\n        /* \"#utility.yul\":38149:38335   */\n      pop\n      pop\n      jump\t// out\n        /* \"#utility.yul\":38341:38884   */\n    tag_445:\n        /* \"#utility.yul\":38442:38444   */\n      0x1f\n        /* \"#utility.yul\":38437:38440   */\n      dup3\n        /* \"#utility.yul\":38434:38445   */\n      gt\n        /* \"#utility.yul\":38431:38877   */\n      iszero\n      tag_818\n      jumpi\n        /* \"#utility.yul\":38476:38514   */\n      tag_819\n        /* \"#utility.yul\":38508:38513   */\n      dup2\n        /* \"#utility.yul\":38476:38514   */\n      tag_434\n      jump\t// in\n    tag_819:\n        /* \"#utility.yul\":38560:38589   */\n      tag_820\n        /* \"#utility.yul\":38578:38588   */\n      dup5\n        /* \"#utility.yul\":38560:38589   */\n      tag_435\n      jump\t// in\n    tag_820:\n        /* \"#utility.yul\":38550:38558   */\n      dup2\n        /* \"#utility.yul\":38546:38590   */\n      add\n        /* \"#utility.yul\":38743:38745   */\n      0x20\n        /* \"#utility.yul\":38731:38741   */\n      dup6\n        /* \"#utility.yul\":38728:38746   */\n      lt\n        /* \"#utility.yul\":38725:38774   */\n      iszero\n      tag_821\n      jumpi\n        /* \"#utility.yul\":38764:38772   */\n      dup2\n        /* \"#utility.yul\":38749:38772   */\n      swap1\n      pop\n        /* \"#utility.yul\":38725:38774   */\n    tag_821:\n        /* \"#utility.yul\":38787:38867   */\n      tag_822\n        /* \"#utility.yul\":38843:38865   */\n      tag_823\n        /* \"#utility.yul\":38861:38864   */\n      dup6\n        /* \"#utility.yul\":38843:38865   */\n      tag_435\n      jump\t// in\n    tag_823:\n        /* \"#utility.yul\":38833:38841   */\n      dup4\n        /* \"#utility.yul\":38829:38866   */\n      add\n        /* \"#utility.yul\":38816:38827   */\n      dup3\n        /* \"#utility.yul\":38787:38867   */\n      tag_444\n      jump\t// in\n    tag_822:\n        /* \"#utility.yul\":38446:38877   */\n      pop\n      pop\n        /* \"#utility.yul\":38431:38877   */\n    tag_818:\n        /* \"#utility.yul\":38341:38884   */\n      pop\n      pop\n      pop\n      jump\t// out\n        /* \"#utility.yul\":38890:39007   */\n    tag_446:\n        /* \"#utility.yul\":38944:38952   */\n      0x00\n        /* \"#utility.yul\":38994:38999   */\n      dup3\n        /* \"#utility.yul\":38988:38992   */\n      dup3\n        /* \"#utility.yul\":38984:39000   */\n      shr\n        /* \"#utility.yul\":38963:39000   */\n      swap1\n      pop\n        /* \"#utility.yul\":38890:39007   */\n      swap3\n      swap2\n      pop\n      pop\n      jump\t// out\n        /* \"#utility.yul\":39013:39182   */\n    tag_447:\n        /* \"#utility.yul\":39057:39063   */\n      0x00\n        /* \"#utility.yul\":39090:39141   */\n      tag_826\n        /* \"#utility.yul\":39138:39139   */\n      0x00\n        /* \"#utility.yul\":39134:39140   */\n      not\n        /* \"#utility.yul\":39126:39131   */\n      dup5\n        /* \"#utility.yul\":39123:39124   */\n      0x08\n        /* \"#utility.yul\":39119:39132   */\n      mul\n        /* \"#utility.yul\":39090:39141   */\n      tag_446\n      jump\t// in\n    tag_826:\n        /* \"#utility.yul\":39086:39142   */\n      not\n        /* \"#utility.yul\":39171:39175   */\n      dup1\n        /* \"#utility.yul\":39165:39169   */\n      dup4\n        /* \"#utility.yul\":39161:39176   */\n      and\n        /* \"#utility.yul\":39151:39176   */\n      swap2\n      pop\n        /* \"#utility.yul\":39064:39182   */\n      pop\n        /* \"#utility.yul\":39013:39182   */\n      swap3\n      swap2\n      pop\n      pop\n      jump\t// out\n        /* \"#utility.yul\":39187:39482   */\n    tag_448:\n        /* \"#utility.yul\":39263:39267   */\n      0x00\n        /* \"#utility.yul\":39409:39438   */\n      tag_828\n        /* \"#utility.yul\":39434:39437   */\n      dup4\n        /* \"#utility.yul\":39428:39432   */\n      dup4\n        /* \"#utility.yul\":39409:39438   */\n      tag_447\n      jump\t// in\n    tag_828:\n        /* \"#utility.yul\":39401:39438   */\n      swap2\n      pop\n        /* \"#utility.yul\":39471:39474   */\n      dup3\n        /* \"#utility.yul\":39468:39469   */\n      0x02\n        /* \"#utility.yul\":39464:39475   */\n      mul\n        /* \"#utility.yul\":39458:39462   */\n      dup3\n        /* \"#utility.yul\":39455:39476   */\n      or\n        /* \"#utility.yul\":39447:39476   */\n      swap1\n      pop\n        /* \"#utility.yul\":39187:39482   */\n      swap3\n      swap2\n      pop\n      pop\n      jump\t// out\n        /* \"#utility.yul\":39487:40882   */\n    tag_258:\n        /* \"#utility.yul\":39604:39641   */\n      tag_830\n        /* \"#utility.yul\":39637:39640   */\n      dup3\n        /* \"#utility.yul\":39604:39641   */\n      tag_338\n      jump\t// in\n    tag_830:\n        /* \"#utility.yul\":39706:39724   */\n      0xffffffffffffffff\n        /* \"#utility.yul\":39698:39704   */\n      dup2\n        /* \"#utility.yul\":39695:39725   */\n      gt\n        /* \"#utility.yul\":39692:39748   */\n      iszero\n      tag_831\n      jumpi\n        /* \"#utility.yul\":39728:39746   */\n      tag_832\n      tag_142\n      jump\t// in\n    tag_832:\n        /* \"#utility.yul\":39692:39748   */\n    tag_831:\n        /* \"#utility.yul\":39772:39810   */\n      tag_833\n        /* \"#utility.yul\":39804:39808   */\n      dup3\n        /* \"#utility.yul\":39798:39809   */\n      sload\n        /* \"#utility.yul\":39772:39810   */\n      tag_74\n      jump\t// in\n    tag_833:\n        /* \"#utility.yul\":39857:39924   */\n      tag_834\n        /* \"#utility.yul\":39917:39923   */\n      dup3\n        /* \"#utility.yul\":39909:39915   */\n      dup3\n        /* \"#utility.yul\":39903:39907   */\n      dup6\n        /* \"#utility.yul\":39857:39924   */\n      tag_445\n      jump\t// in\n    tag_834:\n        /* \"#utility.yul\":39951:39952   */\n      0x00\n        /* \"#utility.yul\":39975:39979   */\n      0x20\n        /* \"#utility.yul\":39962:39979   */\n      swap1\n      pop\n        /* \"#utility.yul\":40007:40009   */\n      0x1f\n        /* \"#utility.yul\":39999:40005   */\n      dup4\n        /* \"#utility.yul\":39996:40010   */\n      gt\n        /* \"#utility.yul\":40024:40025   */\n      0x01\n        /* \"#utility.yul\":40019:40637   */\n      dup2\n      eq\n      tag_836\n      jumpi\n        /* \"#utility.yul\":40681:40682   */\n      0x00\n        /* \"#utility.yul\":40698:40704   */\n      dup5\n        /* \"#utility.yul\":40695:40772   */\n      iszero\n      tag_837\n      jumpi\n        /* \"#utility.yul\":40747:40756   */\n      dup3\n        /* \"#utility.yul\":40742:40745   */\n      dup8\n        /* \"#utility.yul\":40738:40757   */\n      add\n        /* \"#utility.yul\":40732:40758   */\n      mload\n        /* \"#utility.yul\":40723:40758   */\n      swap1\n      pop\n        /* \"#utility.yul\":40695:40772   */\n    tag_837:\n        /* \"#utility.yul\":40798:40865   */\n      tag_838\n        /* \"#utility.yul\":40858:40864   */\n      dup6\n        /* \"#utility.yul\":40851:40856   */\n      dup3\n        /* \"#utility.yul\":40798:40865   */\n      tag_448\n      jump\t// in\n    tag_838:\n        /* \"#utility.yul\":40792:40796   */\n      dup7\n        /* \"#utility.yul\":40785:40866   */\n      sstore\n        /* \"#utility.yul\":40654:40876   */\n      pop\n        /* \"#utility.yul\":39989:40876   */\n      jump(tag_835)\n        /* \"#utility.yul\":40019:40637   */\n    tag_836:\n        /* \"#utility.yul\":40071:40075   */\n      0x1f\n        /* \"#utility.yul\":40067:40076   */\n      not\n        /* \"#utility.yul\":40059:40065   */\n      dup5\n        /* \"#utility.yul\":40055:40077   */\n      and\n        /* \"#utility.yul\":40105:40142   */\n      tag_839\n        /* \"#utility.yul\":40137:40141   */\n      dup7\n        /* \"#utility.yul\":40105:40142   */\n      tag_434\n      jump\t// in\n    tag_839:\n        /* \"#utility.yul\":40164:40165   */\n      0x00\n        /* \"#utility.yul\":40178:40386   */\n    tag_840:\n        /* \"#utility.yul\":40192:40199   */\n      dup3\n        /* \"#utility.yul\":40189:40190   */\n      dup2\n        /* \"#utility.yul\":40186:40200   */\n      lt\n        /* \"#utility.yul\":40178:40386   */\n      iszero\n      tag_842\n      jumpi\n        /* \"#utility.yul\":40271:40280   */\n      dup5\n        /* \"#utility.yul\":40266:40269   */\n      dup10\n        /* \"#utility.yul\":40262:40281   */\n      add\n        /* \"#utility.yul\":40256:40282   */\n      mload\n        /* \"#utility.yul\":40248:40254   */\n      dup3\n        /* \"#utility.yul\":40241:40283   */\n      sstore\n        /* \"#utility.yul\":40322:40323   */\n      0x01\n        /* \"#utility.yul\":40314:40320   */\n      dup3\n        /* \"#utility.yul\":40310:40324   */\n      add\n        /* \"#utility.yul\":40300:40324   */\n      swap2\n      pop\n        /* \"#utility.yul\":40369:40371   */\n      0x20\n        /* \"#utility.yul\":40358:40367   */\n      dup6\n        /* \"#utility.yul\":40354:40372   */\n      add\n        /* \"#utility.yul\":40341:40372   */\n      swap5\n      pop\n        /* \"#utility.yul\":40215:40219   */\n      0x20\n        /* \"#utility.yul\":40212:40213   */\n      dup2\n        /* \"#utility.yul\":40208:40220   */\n      add\n        /* \"#utility.yul\":40203:40220   */\n      swap1\n      pop\n        /* \"#utility.yul\":40178:40386   */\n      jump(tag_840)\n    tag_842:\n        /* \"#utility.yul\":40414:40420   */\n      dup7\n        /* \"#utility.yul\":40405:40412   */\n      dup4\n        /* \"#utility.yul\":40402:40421   */\n      lt\n        /* \"#utility.yul\":40399:40578   */\n      iszero\n      tag_843\n      jumpi\n        /* \"#utility.yul\":40472:40481   */\n      dup5\n        /* \"#utility.yul\":40467:40470   */\n      dup10\n        /* \"#utility.yul\":40463:40482   */\n      add\n        /* \"#utility.yul\":40457:40483   */\n      mload\n        /* \"#utility.yul\":40515:40563   */\n      tag_844\n        /* \"#utility.yul\":40557:40561   */\n      0x1f\n        /* \"#utility.yul\":40549:40555   */\n      dup10\n        /* \"#utility.yul\":40545:40562   */\n      and\n        /* \"#utility.yul\":40534:40543   */\n      dup3\n        /* \"#utility.yul\":40515:40563   */\n      tag_447\n      jump\t// in\n    tag_844:\n        /* \"#utility.yul\":40507:40513   */\n      dup4\n        /* \"#utility.yul\":40500:40564   */\n      sstore\n        /* \"#utility.yul\":40422:40578   */\n      pop\n        /* \"#utility.yul\":40399:40578   */\n    tag_843:\n        /* \"#utility.yul\":40624:40625   */\n      0x01\n        /* \"#utility.yul\":40620:40621   */\n      0x02\n        /* \"#utility.yul\":40612:40618   */\n      dup9\n        /* \"#utility.yul\":40608:40622   */\n      mul\n        /* \"#utility.yul\":40604:40626   */\n      add\n        /* \"#utility.yul\":40598:40602   */\n      dup9\n        /* \"#utility.yul\":40591:40627   */\n      sstore\n        /* \"#utility.yul\":40026:40637   */\n      pop\n      pop\n      pop\n        /* \"#utility.yul\":39989:40876   */\n    tag_835:\n      pop\n        /* \"#utility.yul\":39579:40882   */\n      pop\n      pop\n      pop\n        /* \"#utility.yul\":39487:40882   */\n      pop\n      pop\n      jump\t// out\n        /* \"#utility.yul\":40888:41421   */\n    tag_262:\n        /* \"#utility.yul\":41057:41061   */\n      0x00\n        /* \"#utility.yul\":41095:41097   */\n      0x60\n        /* \"#utility.yul\":41084:41093   */\n      dup3\n        /* \"#utility.yul\":41080:41098   */\n      add\n        /* \"#utility.yul\":41072:41098   */\n      swap1\n      pop\n        /* \"#utility.yul\":41144:41153   */\n      dup2\n        /* \"#utility.yul\":41138:41142   */\n      dup2\n        /* \"#utility.yul\":41134:41154   */\n      sub\n        /* \"#utility.yul\":41130:41131   */\n      0x00\n        /* \"#utility.yul\":41119:41128   */\n      dup4\n        /* \"#utility.yul\":41115:41132   */\n      add\n        /* \"#utility.yul\":41108:41155   */\n      mstore\n        /* \"#utility.yul\":41172:41250   */\n      tag_846\n        /* \"#utility.yul\":41245:41249   */\n      dup2\n        /* \"#utility.yul\":41236:41242   */\n      dup7\n        /* \"#utility.yul\":41172:41250   */\n      tag_342\n      jump\t// in\n    tag_846:\n        /* \"#utility.yul\":41164:41250   */\n      swap1\n      pop\n        /* \"#utility.yul\":41260:41332   */\n      tag_847\n        /* \"#utility.yul\":41328:41330   */\n      0x20\n        /* \"#utility.yul\":41317:41326   */\n      dup4\n        /* \"#utility.yul\":41313:41331   */\n      add\n        /* \"#utility.yul\":41304:41310   */\n      dup6\n        /* \"#utility.yul\":41260:41332   */\n      tag_344\n      jump\t// in\n    tag_847:\n        /* \"#utility.yul\":41342:41414   */\n      tag_848\n        /* \"#utility.yul\":41410:41412   */\n      0x40\n        /* \"#utility.yul\":41399:41408   */\n      dup4\n        /* \"#utility.yul\":41395:41413   */\n      add\n        /* \"#utility.yul\":41386:41392   */\n      dup5\n        /* \"#utility.yul\":41342:41414   */\n      tag_347\n      jump\t// in\n    tag_848:\n        /* \"#utility.yul\":40888:41421   */\n      swap5\n      swap4\n      pop\n      pop\n      pop\n      pop\n      jump\t// out\n        /* \"#utility.yul\":41427:41659   */\n    tag_272:\n        /* \"#utility.yul\":41525:41529   */\n      0x00\n        /* \"#utility.yul\":41563:41565   */\n      0x20\n        /* \"#utility.yul\":41552:41561   */\n      dup3\n        /* \"#utility.yul\":41548:41566   */\n      add\n        /* \"#utility.yul\":41540:41566   */\n      swap1\n      pop\n        /* \"#utility.yul\":41576:41652   */\n      tag_850\n        /* \"#utility.yul\":41649:41650   */\n      0x00\n        /* \"#utility.yul\":41638:41647   */\n      dup4\n        /* \"#utility.yul\":41634:41651   */\n      add\n        /* \"#utility.yul\":41625:41631   */\n      dup5\n        /* \"#utility.yul\":41576:41652   */\n      tag_351\n      jump\t// in\n    tag_850:\n        /* \"#utility.yul\":41427:41659   */\n      swap3\n      swap2\n      pop\n      pop\n      jump\t// out\n        /* \"#utility.yul\":41665:41841   */\n    tag_449:\n        /* \"#utility.yul\":41805:41833   */\n      0x50726f647563742049442063616e6e6f7420626520656d707479000000000000\n        /* \"#utility.yul\":41801:41802   */\n      0x00\n        /* \"#utility.yul\":41793:41799   */\n      dup3\n        /* \"#utility.yul\":41789:41803   */\n      add\n        /* \"#utility.yul\":41782:41834   */\n      mstore\n        /* \"#utility.yul\":41665:41841   */\n      pop\n      jump\t// out\n        /* \"#utility.yul\":41847:42213   */\n    tag_450:\n        /* \"#utility.yul\":41989:41992   */\n      0x00\n        /* \"#utility.yul\":42010:42077   */\n      tag_853\n        /* \"#utility.yul\":42074:42076   */\n      0x1a\n        /* \"#utility.yul\":42069:42072   */\n      dup4\n        /* \"#utility.yul\":42010:42077   */\n      tag_339\n      jump\t// in\n    tag_853:\n        /* \"#utility.yul\":42003:42077   */\n      swap2\n      pop\n        /* \"#utility.yul\":42086:42179   */\n      tag_854\n        /* \"#utility.yul\":42175:42178   */\n      dup3\n        /* \"#utility.yul\":42086:42179   */\n      tag_449\n      jump\t// in\n    tag_854:\n        /* \"#utility.yul\":42204:42206   */\n      0x20\n        /* \"#utility.yul\":42199:42202   */\n      dup3\n        /* \"#utility.yul\":42195:42207   */\n      add\n        /* \"#utility.yul\":42188:42207   */\n      swap1\n      pop\n        /* \"#utility.yul\":41847:42213   */\n      swap2\n      swap1\n      pop\n      jump\t// out\n        /* \"#utility.yul\":42219:42638   */\n    tag_292:\n        /* \"#utility.yul\":42385:42389   */\n      0x00\n        /* \"#utility.yul\":42423:42425   */\n      0x20\n        /* \"#utility.yul\":42412:42421   */\n      dup3\n        /* \"#utility.yul\":42408:42426   */\n      add\n        /* \"#utility.yul\":42400:42426   */\n      swap1\n      pop\n        /* \"#utility.yul\":42472:42481   */\n      dup2\n        /* \"#utility.yul\":42466:42470   */\n      dup2\n        /* \"#utility.yul\":42462:42482   */\n      sub\n        /* \"#utility.yul\":42458:42459   */\n      0x00\n        /* \"#utility.yul\":42447:42456   */\n      dup4\n        /* \"#utility.yul\":42443:42460   */\n      add\n        /* \"#utility.yul\":42436:42483   */\n      mstore\n        /* \"#utility.yul\":42500:42631   */\n      tag_856\n        /* \"#utility.yul\":42626:42630   */\n      dup2\n        /* \"#utility.yul\":42500:42631   */\n      tag_450\n      jump\t// in\n    tag_856:\n        /* \"#utility.yul\":42492:42631   */\n      swap1\n      pop\n        /* \"#utility.yul\":42219:42638   */\n      swap2\n      swap1\n      pop\n      jump\t// out\n        /* \"#utility.yul\":42644:42814   */\n    tag_451:\n        /* \"#utility.yul\":42784:42806   */\n      0x4e616d652063616e6e6f7420626520656d707479000000000000000000000000\n        /* \"#utility.yul\":42780:42781   */\n      0x00\n        /* \"#utility.yul\":42772:42778   */\n      dup3\n        /* \"#utility.yul\":42768:42782   */\n      add\n        /* \"#utility.yul\":42761:42807   */\n      mstore\n        /* \"#utility.yul\":42644:42814   */\n      pop\n      jump\t// out\n        /* \"#utility.yul\":42820:43186   */\n    tag_452:\n        /* \"#utility.yul\":42962:42965   */\n      0x00\n        /* \"#utility.yul\":42983:43050   */\n      tag_859\n        /* \"#utility.yul\":43047:43049   */\n      0x14\n        /* \"#utility.yul\":43042:43045   */\n      dup4\n        /* \"#utility.yul\":42983:43050   */\n      tag_339\n      jump\t// in\n    tag_859:\n        /* \"#utility.yul\":42976:43050   */\n      swap2\n      pop\n        /* \"#utility.yul\":43059:43152   */\n      tag_860\n        /* \"#utility.yul\":43148:43151   */\n      dup3\n        /* \"#utility.yul\":43059:43152   */\n      tag_451\n      jump\t// in\n    tag_860:\n        /* \"#utility.yul\":43177:43179   */\n      0x20\n        /* \"#utility.yul\":43172:43175   */\n      dup3\n        /* \"#utility.yul\":43168:43180   */\n      add\n        /* \"#utility.yul\":43161:43180   */\n      swap1\n      pop\n        /* \"#utility.yul\":42820:43186   */\n      swap2\n      swap1\n      pop\n      jump\t// out\n        /* \"#utility.yul\":43192:43611   */\n    tag_297:\n        /* \"#utility.yul\":43358:43362   */\n      0x00\n        /* \"#utility.yul\":43396:43398   */\n      0x20\n        /* \"#utility.yul\":43385:43394   */\n      dup3\n        /* \"#utility.yul\":43381:43399   */\n      add\n        /* \"#utility.yul\":43373:43399   */\n      swap1\n      pop\n        /* \"#utility.yul\":43445:43454   */\n      dup2\n        /* \"#utility.yul\":43439:43443   */\n      dup2\n        /* \"#utility.yul\":43435:43455   */\n      sub\n        /* \"#utility.yul\":43431:43432   */\n      0x00\n        /* \"#utility.yul\":43420:43429   */\n      dup4\n        /* \"#utility.yul\":43416:43433   */\n      add\n        /* \"#utility.yul\":43409:43456   */\n      mstore\n        /* \"#utility.yul\":43473:43604   */\n      tag_862\n        /* \"#utility.yul\":43599:43603   */\n      dup2\n        /* \"#utility.yul\":43473:43604   */\n      tag_452\n      jump\t// in\n    tag_862:\n        /* \"#utility.yul\":43465:43604   */\n      swap1\n      pop\n        /* \"#utility.yul\":43192:43611   */\n      swap2\n      swap1\n      pop\n      jump\t// out\n        /* \"#utility.yul\":43617:43794   */\n    tag_453:\n        /* \"#utility.yul\":43757:43786   */\n      0x4465736372697074696f6e2063616e6e6f7420626520656d7074790000000000\n        /* \"#utility.yul\":43753:43754   */\n      0x00\n        /* \"#utility.yul\":43745:43751   */\n      dup3\n        /* \"#utility.yul\":43741:43755   */\n      add\n        /* \"#utility.yul\":43734:43787   */\n      mstore\n        /* \"#utility.yul\":43617:43794   */\n      pop\n      jump\t// out\n        /* \"#utility.yul\":43800:44166   */\n    tag_454:\n        /* \"#utility.yul\":43942:43945   */\n      0x00\n        /* \"#utility.yul\":43963:44030   */\n      tag_865\n        /* \"#utility.yul\":44027:44029   */\n      0x1b\n        /* \"#utility.yul\":44022:44025   */\n      dup4\n        /* \"#utility.yul\":43963:44030   */\n      tag_339\n      jump\t// in\n    tag_865:\n        /* \"#utility.yul\":43956:44030   */\n      swap2\n      pop\n        /* \"#utility.yul\":44039:44132   */\n      tag_866\n        /* \"#utility.yul\":44128:44131   */\n      dup3\n        /* \"#utility.yul\":44039:44132   */\n      tag_453\n      jump\t// in\n    tag_866:\n        /* \"#utility.yul\":44157:44159   */\n      0x20\n        /* \"#utility.yul\":44152:44155   */\n      dup3\n        /* \"#utility.yul\":44148:44160   */\n      add\n        /* \"#utility.yul\":44141:44160   */\n      swap1\n      pop\n        /* \"#utility.yul\":43800:44166   */\n      swap2\n      swap1\n      pop\n      jump\t// out\n        /* \"#utility.yul\":44172:44591   */\n    tag_300:\n        /* \"#utility.yul\":44338:44342   */\n      0x00\n        /* \"#utility.yul\":44376:44378   */\n      0x20\n        /* \"#utility.yul\":44365:44374   */\n      dup3\n        /* \"#utility.yul\":44361:44379   */\n      add\n        /* \"#utility.yul\":44353:44379   */\n      swap1\n      pop\n        /* \"#utility.yul\":44425:44434   */\n      dup2\n        /* \"#utility.yul\":44419:44423   */\n      dup2\n        /* \"#utility.yul\":44415:44435   */\n      sub\n        /* \"#utility.yul\":44411:44412   */\n      0x00\n        /* \"#utility.yul\":44400:44409   */\n      dup4\n        /* \"#utility.yul\":44396:44413   */\n      add\n        /* \"#utility.yul\":44389:44436   */\n      mstore\n        /* \"#utility.yul\":44453:44584   */\n      tag_868\n        /* \"#utility.yul\":44579:44583   */\n      dup2\n        /* \"#utility.yul\":44453:44584   */\n      tag_454\n      jump\t// in\n    tag_868:\n        /* \"#utility.yul\":44445:44584   */\n      swap1\n      pop\n        /* \"#utility.yul\":44172:44591   */\n      swap2\n      swap1\n      pop\n      jump\t// out\n        /* \"#utility.yul\":44597:44769   */\n    tag_455:\n        /* \"#utility.yul\":44737:44761   */\n      0x50726f6475637420616c72656164792065786973747300000000000000000000\n        /* \"#utility.yul\":44733:44734   */\n      0x00\n        /* \"#utility.yul\":44725:44731   */\n      dup3\n        /* \"#utility.yul\":44721:44735   */\n      add\n        /* \"#utility.yul\":44714:44762   */\n      mstore\n        /* \"#utility.yul\":44597:44769   */\n      pop\n      jump\t// out\n        /* \"#utility.yul\":44775:45141   */\n    tag_456:\n        /* \"#utility.yul\":44917:44920   */\n      0x00\n        /* \"#utility.yul\":44938:45005   */\n      tag_871\n        /* \"#utility.yul\":45002:45004   */\n      0x16\n        /* \"#utility.yul\":44997:45000   */\n      dup4\n        /* \"#utility.yul\":44938:45005   */\n      tag_339\n      jump\t// in\n    tag_871:\n        /* \"#utility.yul\":44931:45005   */\n      swap2\n      pop\n        /* \"#utility.yul\":45014:45107   */\n      tag_872\n        /* \"#utility.yul\":45103:45106   */\n      dup3\n        /* \"#utility.yul\":45014:45107   */\n      tag_455\n      jump\t// in\n    tag_872:\n        /* \"#utility.yul\":45132:45134   */\n      0x20\n        /* \"#utility.yul\":45127:45130   */\n      dup3\n        /* \"#utility.yul\":45123:45135   */\n      add\n        /* \"#utility.yul\":45116:45135   */\n      swap1\n      pop\n        /* \"#utility.yul\":44775:45141   */\n      swap2\n      swap1\n      pop\n      jump\t// out\n        /* \"#utility.yul\":45147:45566   */\n    tag_305:\n        /* \"#utility.yul\":45313:45317   */\n      0x00\n        /* \"#utility.yul\":45351:45353   */\n      0x20\n        /* \"#utility.yul\":45340:45349   */\n      dup3\n        /* \"#utility.yul\":45336:45354   */\n      add\n        /* \"#utility.yul\":45328:45354   */\n      swap1\n      pop\n        /* \"#utility.yul\":45400:45409   */\n      dup2\n        /* \"#utility.yul\":45394:45398   */\n      dup2\n        /* \"#utility.yul\":45390:45410   */\n      sub\n        /* \"#utility.yul\":45386:45387   */\n      0x00\n        /* \"#utility.yul\":45375:45384   */\n      dup4\n        /* \"#utility.yul\":45371:45388   */\n      add\n        /* \"#utility.yul\":45364:45411   */\n      mstore\n        /* \"#utility.yul\":45428:45559   */\n      tag_874\n        /* \"#utility.yul\":45554:45558   */\n      dup2\n        /* \"#utility.yul\":45428:45559   */\n      tag_456\n      jump\t// in\n    tag_874:\n        /* \"#utility.yul\":45420:45559   */\n      swap1\n      pop\n        /* \"#utility.yul\":45147:45566   */\n      swap2\n      swap1\n      pop\n      jump\t// out\n        /* \"#utility.yul\":45572:45726   */\n    tag_457:\n        /* \"#utility.yul\":45712:45718   */\n      0x494e495400000000000000000000000000000000000000000000000000000000\n        /* \"#utility.yul\":45708:45709   */\n      0x00\n        /* \"#utility.yul\":45700:45706   */\n      dup3\n        /* \"#utility.yul\":45696:45710   */\n      add\n        /* \"#utility.yul\":45689:45719   */\n      mstore\n        /* \"#utility.yul\":45572:45726   */\n      pop\n      jump\t// out\n        /* \"#utility.yul\":45732:46132   */\n    tag_458:\n        /* \"#utility.yul\":45892:45895   */\n      0x00\n        /* \"#utility.yul\":45913:45997   */\n      tag_877\n        /* \"#utility.yul\":45995:45996   */\n      0x04\n        /* \"#utility.yul\":45990:45993   */\n      dup4\n        /* \"#utility.yul\":45913:45997   */\n      tag_413\n      jump\t// in\n    tag_877:\n        /* \"#utility.yul\":45906:45997   */\n      swap2\n      pop\n        /* \"#utility.yul\":46006:46099   */\n      tag_878\n        /* \"#utility.yul\":46095:46098   */\n      dup3\n        /* \"#utility.yul\":46006:46099   */\n      tag_457\n      jump\t// in\n    tag_878:\n        /* \"#utility.yul\":46124:46125   */\n      0x04\n        /* \"#utility.yul\":46119:46122   */\n      dup3\n        /* \"#utility.yul\":46115:46126   */\n      add\n        /* \"#utility.yul\":46108:46126   */\n      swap1\n      pop\n        /* \"#utility.yul\":45732:46132   */\n      swap2\n      swap1\n      pop\n      jump\t// out\n        /* \"#utility.yul\":46138:46801   */\n    tag_317:\n        /* \"#utility.yul\":46379:46382   */\n      0x00\n        /* \"#utility.yul\":46394:46469   */\n      tag_880\n        /* \"#utility.yul\":46465:46468   */\n      dup3\n        /* \"#utility.yul\":46456:46462   */\n      dup6\n        /* \"#utility.yul\":46394:46469   */\n      tag_427\n      jump\t// in\n    tag_880:\n        /* \"#utility.yul\":46494:46496   */\n      0x20\n        /* \"#utility.yul\":46489:46492   */\n      dup3\n        /* \"#utility.yul\":46485:46497   */\n      add\n        /* \"#utility.yul\":46478:46497   */\n      swap2\n      pop\n        /* \"#utility.yul\":46507:46582   */\n      tag_881\n        /* \"#utility.yul\":46578:46581   */\n      dup3\n        /* \"#utility.yul\":46569:46575   */\n      dup5\n        /* \"#utility.yul\":46507:46582   */\n      tag_429\n      jump\t// in\n    tag_881:\n        /* \"#utility.yul\":46607:46609   */\n      0x20\n        /* \"#utility.yul\":46602:46605   */\n      dup3\n        /* \"#utility.yul\":46598:46610   */\n      add\n        /* \"#utility.yul\":46591:46610   */\n      swap2\n      pop\n        /* \"#utility.yul\":46627:46775   */\n      tag_882\n        /* \"#utility.yul\":46771:46774   */\n      dup3\n        /* \"#utility.yul\":46627:46775   */\n      tag_458\n      jump\t// in\n    tag_882:\n        /* \"#utility.yul\":46620:46775   */\n      swap2\n      pop\n        /* \"#utility.yul\":46792:46795   */\n      dup2\n        /* \"#utility.yul\":46785:46795   */\n      swap1\n      pop\n        /* \"#utility.yul\":46138:46801   */\n      swap4\n      swap3\n      pop\n      pop\n      pop\n      jump\t// out\n        /* \"#utility.yul\":46807:47744   */\n    tag_325:\n        /* \"#utility.yul\":47072:47076   */\n      0x00\n        /* \"#utility.yul\":47110:47113   */\n      0xa0\n        /* \"#utility.yul\":47099:47108   */\n      dup3\n        /* \"#utility.yul\":47095:47114   */\n      add\n        /* \"#utility.yul\":47087:47114   */\n      swap1\n      pop\n        /* \"#utility.yul\":47160:47169   */\n      dup2\n        /* \"#utility.yul\":47154:47158   */\n      dup2\n        /* \"#utility.yul\":47150:47170   */\n      sub\n        /* \"#utility.yul\":47146:47147   */\n      0x00\n        /* \"#utility.yul\":47135:47144   */\n      dup4\n        /* \"#utility.yul\":47131:47148   */\n      add\n        /* \"#utility.yul\":47124:47171   */\n      mstore\n        /* \"#utility.yul\":47188:47266   */\n      tag_884\n        /* \"#utility.yul\":47261:47265   */\n      dup2\n        /* \"#utility.yul\":47252:47258   */\n      dup9\n        /* \"#utility.yul\":47188:47266   */\n      tag_342\n      jump\t// in\n    tag_884:\n        /* \"#utility.yul\":47180:47266   */\n      swap1\n      pop\n        /* \"#utility.yul\":47313:47322   */\n      dup2\n        /* \"#utility.yul\":47307:47311   */\n      dup2\n        /* \"#utility.yul\":47303:47323   */\n      sub\n        /* \"#utility.yul\":47298:47300   */\n      0x20\n        /* \"#utility.yul\":47287:47296   */\n      dup4\n        /* \"#utility.yul\":47283:47301   */\n      add\n        /* \"#utility.yul\":47276:47324   */\n      mstore\n        /* \"#utility.yul\":47341:47419   */\n      tag_885\n        /* \"#utility.yul\":47414:47418   */\n      dup2\n        /* \"#utility.yul\":47405:47411   */\n      dup8\n        /* \"#utility.yul\":47341:47419   */\n      tag_342\n      jump\t// in\n    tag_885:\n        /* \"#utility.yul\":47333:47419   */\n      swap1\n      pop\n        /* \"#utility.yul\":47466:47475   */\n      dup2\n        /* \"#utility.yul\":47460:47464   */\n      dup2\n        /* \"#utility.yul\":47456:47476   */\n      sub\n        /* \"#utility.yul\":47451:47453   */\n      0x40\n        /* \"#utility.yul\":47440:47449   */\n      dup4\n        /* \"#utility.yul\":47436:47454   */\n      add\n        /* \"#utility.yul\":47429:47477   */\n      mstore\n        /* \"#utility.yul\":47494:47572   */\n      tag_886\n        /* \"#utility.yul\":47567:47571   */\n      dup2\n        /* \"#utility.yul\":47558:47564   */\n      dup7\n        /* \"#utility.yul\":47494:47572   */\n      tag_342\n      jump\t// in\n    tag_886:\n        /* \"#utility.yul\":47486:47572   */\n      swap1\n      pop\n        /* \"#utility.yul\":47582:47654   */\n      tag_887\n        /* \"#utility.yul\":47650:47652   */\n      0x60\n        /* \"#utility.yul\":47639:47648   */\n      dup4\n        /* \"#utility.yul\":47635:47653   */\n      add\n        /* \"#utility.yul\":47626:47632   */\n      dup6\n        /* \"#utility.yul\":47582:47654   */\n      tag_344\n      jump\t// in\n    tag_887:\n        /* \"#utility.yul\":47664:47737   */\n      tag_888\n        /* \"#utility.yul\":47732:47735   */\n      0x80\n        /* \"#utility.yul\":47721:47730   */\n      dup4\n        /* \"#utility.yul\":47717:47736   */\n      add\n        /* \"#utility.yul\":47708:47714   */\n      dup5\n        /* \"#utility.yul\":47664:47737   */\n      tag_347\n      jump\t// in\n    tag_888:\n        /* \"#utility.yul\":46807:47744   */\n      swap7\n      swap6\n      pop\n      pop\n      pop\n      pop\n      pop\n      pop\n      jump\t// out\n        /* \"#utility.yul\":47750:47922   */\n    tag_459:\n        /* \"#utility.yul\":47890:47914   */\n      0x50726f6475637420696e697469616c697a6174696f6e00000000000000000000\n        /* \"#utility.yul\":47886:47887   */\n      0x00\n        /* \"#utility.yul\":47878:47884   */\n      dup3\n        /* \"#utility.yul\":47874:47888   */\n      add\n        /* \"#utility.yul\":47867:47915   */\n      mstore\n        /* \"#utility.yul\":47750:47922   */\n      pop\n      jump\t// out\n        /* \"#utility.yul\":47928:48294   */\n    tag_460:\n        /* \"#utility.yul\":48070:48073   */\n      0x00\n        /* \"#utility.yul\":48091:48158   */\n      tag_891\n        /* \"#utility.yul\":48155:48157   */\n      0x16\n        /* \"#utility.yul\":48150:48153   */\n      dup4\n        /* \"#utility.yul\":48091:48158   */\n      tag_339\n      jump\t// in\n    tag_891:\n        /* \"#utility.yul\":48084:48158   */\n      swap2\n      pop\n        /* \"#utility.yul\":48167:48260   */\n      tag_892\n        /* \"#utility.yul\":48256:48259   */\n      dup3\n        /* \"#utility.yul\":48167:48260   */\n      tag_459\n      jump\t// in\n    tag_892:\n        /* \"#utility.yul\":48285:48287   */\n      0x20\n        /* \"#utility.yul\":48280:48283   */\n      dup3\n        /* \"#utility.yul\":48276:48288   */\n      add\n        /* \"#utility.yul\":48269:48288   */\n      swap1\n      pop\n        /* \"#utility.yul\":47928:48294   */\n      swap2\n      swap1\n      pop\n      jump\t// out\n        /* \"#utility.yul\":48300:48939   */\n    tag_327:\n        /* \"#utility.yul\":48522:48526   */\n      0x00\n        /* \"#utility.yul\":48560:48562   */\n      0x60\n        /* \"#utility.yul\":48549:48558   */\n      dup3\n        /* \"#utility.yul\":48545:48563   */\n      add\n        /* \"#utility.yul\":48537:48563   */\n      swap1\n      pop\n        /* \"#utility.yul\":48609:48618   */\n      dup2\n        /* \"#utility.yul\":48603:48607   */\n      dup2\n        /* \"#utility.yul\":48599:48619   */\n      sub\n        /* \"#utility.yul\":48595:48596   */\n      0x00\n        /* \"#utility.yul\":48584:48593   */\n      dup4\n        /* \"#utility.yul\":48580:48597   */\n      add\n        /* \"#utility.yul\":48573:48620   */\n      mstore\n        /* \"#utility.yul\":48637:48768   */\n      tag_894\n        /* \"#utility.yul\":48763:48767   */\n      dup2\n        /* \"#utility.yul\":48637:48768   */\n      tag_460\n      jump\t// in\n    tag_894:\n        /* \"#utility.yul\":48629:48768   */\n      swap1\n      pop\n        /* \"#utility.yul\":48778:48850   */\n      tag_895\n        /* \"#utility.yul\":48846:48848   */\n      0x20\n        /* \"#utility.yul\":48835:48844   */\n      dup4\n        /* \"#utility.yul\":48831:48849   */\n      add\n        /* \"#utility.yul\":48822:48828   */\n      dup6\n        /* \"#utility.yul\":48778:48850   */\n      tag_344\n      jump\t// in\n    tag_895:\n        /* \"#utility.yul\":48860:48932   */\n      tag_896\n        /* \"#utility.yul\":48928:48930   */\n      0x40\n        /* \"#utility.yul\":48917:48926   */\n      dup4\n        /* \"#utility.yul\":48913:48931   */\n      add\n        /* \"#utility.yul\":48904:48910   */\n      dup5\n        /* \"#utility.yul\":48860:48932   */\n      tag_347\n      jump\t// in\n    tag_896:\n        /* \"#utility.yul\":48300:48939   */\n      swap4\n      swap3\n      pop\n      pop\n      pop\n      jump\t// out\n\n    auxdata: 0xa2646970667358221220551246867d36f417b070e92d7321b2aac698260a72f6ebd03e13955703f67f0364736f6c634300081a0033\n}\n",
				"bytecode": {
					"linkReferences": {},
					"object": "6080604052348015600e575f80fd5b5061351c8061001c5f395ff3fe608060405234801561000f575f80fd5b50600436106100a7575f3560e01c8063890156861161006f57806389015686146101925780639635b610146101c7578063b8715c95146101e3578063dc964cb614610213578063f0ccdecb1461022f578063fde74e811461025f576100a7565b80633a20e9df146100ab5780635609953a146100e057806358fb4ad7146101105780635a94feca14610144578063663c01af14610174575b5f80fd5b6100c560048036038101906100c09190611e77565b61027b565b6040516100d796959493929190611fdc565b60405180910390f35b6100fa60048036038101906100f5919061217c565b6105a6565b60405161010791906121c3565b60405180910390f35b61012a60048036038101906101259190611e77565b6105d0565b60405161013b9594939291906121eb565b60405180910390f35b61015e6004803603810190610159919061226d565b61081f565b60405161016b919061245d565b60405180910390f35b61017c610bb6565b6040516101899190612525565b60405180910390f35b6101ac60048036038101906101a7919061217c565b610c0c565b6040516101be969594939291906127f8565b60405180910390f35b6101e160048036038101906101dc9190612881565b611263565b005b6101fd60048036038101906101f8919061217c565b611543565b60405161020a91906128f5565b60405180910390f35b61022d60048036038101906102289190612931565b61156f565b005b61024960048036038101906102449190611e77565b611648565b604051610256919061245d565b60405180910390f35b6102796004803603810190610274919061296f565b61184a565b005b60608060605f805f865f808281526020019081526020015f2060050160159054906101000a900460ff166102e4576040517f08c379a00000000000000000000000000000000000000000000000000000000081526004016102db90612a8d565b60405180910390fd5b5f805f8a81526020019081526020015f20604051806101000160405290815f820154815260200160018201805461031a90612ad8565b80601f016020809104026020016040519081016040528092919081815260200182805461034690612ad8565b80156103915780601f1061036857610100808354040283529160200191610391565b820191905f5260205f20905b81548152906001019060200180831161037457829003601f168201915b505050505081526020016002820180546103aa90612ad8565b80601f01602080910402602001604051908101604052809291908181526020018280546103d690612ad8565b80156104215780601f106103f857610100808354040283529160200191610421565b820191905f5260205f20905b81548152906001019060200180831161040457829003601f168201915b5050505050815260200160038201805461043a90612ad8565b80601f016020809104026020016040519081016040528092919081815260200182805461046690612ad8565b80156104b15780601f10610488576101008083540402835291602001916104b1565b820191905f5260205f20905b81548152906001019060200180831161049457829003601f168201915b5050505050815260200160048201548152602001600582015f9054906101000a900473ffffffffffffffffffffffffffffffffffffffff1673ffffffffffffffffffffffffffffffffffffffff1673ffffffffffffffffffffffffffffffffffffffff1681526020016005820160149054906101000a900460ff16600181111561053e5761053d611f69565b5b60018111156105505761054f611f69565b5b81526020016005820160159054906101000a900460ff161515151581525050905080602001518160400151826060015183608001518460a001518560c00151975097509750975097509750505091939550919395565b5f6003826040516105b79190612b42565b9081526020016040518091039020805490509050919050565b5f60605f805f8060025f8881526020019081526020015f205490505f801b810361062f576040517f08c379a000000000000000000000000000000000000000000000000000000000815260040161062690612ba2565b60405180910390fd5b5f60015f8381526020019081526020015f2090505f5b81805490508110156107da578882828154811061066557610664612bc0565b5b905f5260205f2090600402015f0154036107cd578282828154811061068d5761068c612bc0565b5b905f5260205f2090600402016001018383815481106106af576106ae612bc0565b5b905f5260205f209060040201600201548484815481106106d2576106d1612bc0565b5b905f5260205f2090600402016003015f9054906101000a900473ffffffffffffffffffffffffffffffffffffffff1685858154811061071457610713612bc0565b5b905f5260205f20906004020160030160149054906101000a900460ff1683805461073d90612ad8565b80601f016020809104026020016040519081016040528092919081815260200182805461076990612ad8565b80156107b45780601f1061078b576101008083540402835291602001916107b4565b820191905f5260205f20905b81548152906001019060200180831161079757829003601f168201915b5050505050935097509750975097509750505050610816565b8080600101915050610645565b506040517f08c379a000000000000000000000000000000000000000000000000000000000815260040161080d90612ba2565b60405180910390fd5b91939590929450565b6060825f808281526020019081526020015f2060050160159054906101000a900460ff16610882576040517f08c379a000000000000000000000000000000000000000000000000000000000815260040161087990612a8d565b60405180910390fd5b5f60015f8681526020019081526020015f2090505f805b8280549050811015610935578573ffffffffffffffffffffffffffffffffffffffff168382815481106108cf576108ce612bc0565b5b905f5260205f2090600402016003015f9054906101000a900473ffffffffffffffffffffffffffffffffffffffff1673ffffffffffffffffffffffffffffffffffffffff160361092857818061092490612c1a565b9250505b8080600101915050610899565b505f8167ffffffffffffffff81111561095157610950612058565b5b60405190808252806020026020018201604052801561098a57816020015b610977611ddd565b81526020019060019003908161096f5790505b5090505f805b8480549050811015610ba7578773ffffffffffffffffffffffffffffffffffffffff168582815481106109c6576109c5612bc0565b5b905f5260205f2090600402016003015f9054906101000a900473ffffffffffffffffffffffffffffffffffffffff1673ffffffffffffffffffffffffffffffffffffffff1603610b9a57848181548110610a2357610a22612bc0565b5b905f5260205f2090600402016040518060a00160405290815f8201548152602001600182018054610a5390612ad8565b80601f0160208091040260200160405190810160405280929190818152602001828054610a7f90612ad8565b8015610aca5780601f10610aa157610100808354040283529160200191610aca565b820191905f5260205f20905b815481529060010190602001808311610aad57829003601f168201915b5050505050815260200160028201548152602001600382015f9054906101000a900473ffffffffffffffffffffffffffffffffffffffff1673ffffffffffffffffffffffffffffffffffffffff1673ffffffffffffffffffffffffffffffffffffffff1681526020016003820160149054906101000a900460ff166001811115610b5757610b56611f69565b5b6001811115610b6957610b68611f69565b5b81525050838381518110610b8057610b7f612bc0565b5b60200260200101819052508180610b9690612c1a565b9250505b8080600101915050610990565b50819550505050505092915050565b60606004805480602002602001604051908101604052809291908181526020018280548015610c0257602002820191905f5260205f20905b815481526020019060010190808311610bee575b5050505050905090565b6060806060806060805f875111610c58576040517f08c379a0000000000000000000000000000000000000000000000000000000008152600401610c4f90612cab565b60405180910390fd5b5f600388604051610c699190612b42565b9081526020016040518091039020805480602002602001604051908101604052809291908181526020018280548015610cbf57602002820191905f5260205f20905b815481526020019060010190808311610cab575b505050505090505f815111610d09576040517f08c379a0000000000000000000000000000000000000000000000000000000008152600401610d0090612d39565b60405180910390fd5b805167ffffffffffffffff811115610d2457610d23612058565b5b604051908082528060200260200182016040528015610d5757816020015b6060815260200190600190039081610d425790505b509550805167ffffffffffffffff811115610d7557610d74612058565b5b604051908082528060200260200182016040528015610da857816020015b6060815260200190600190039081610d935790505b509450805167ffffffffffffffff811115610dc657610dc5612058565b5b604051908082528060200260200182016040528015610df45781602001602082028036833780820191505090505b509350805167ffffffffffffffff811115610e1257610e11612058565b5b604051908082528060200260200182016040528015610e405781602001602082028036833780820191505090505b509250805167ffffffffffffffff811115610e5e57610e5d612058565b5b604051908082528060200260200182016040528015610e8c5781602001602082028036833780820191505090505b5091505f5b8151811015611255575f805f848481518110610eb057610eaf612bc0565b5b602002602001015181526020019081526020015f20604051806101000160405290815f8201548152602001600182018054610eea90612ad8565b80601f0160208091040260200160405190810160405280929190818152602001828054610f1690612ad8565b8015610f615780601f10610f3857610100808354040283529160200191610f61565b820191905f5260205f20905b815481529060010190602001808311610f4457829003601f168201915b50505050508152602001600282018054610f7a90612ad8565b80601f0160208091040260200160405190810160405280929190818152602001828054610fa690612ad8565b8015610ff15780601f10610fc857610100808354040283529160200191610ff1565b820191905f5260205f20905b815481529060010190602001808311610fd457829003601f168201915b5050505050815260200160038201805461100a90612ad8565b80601f016020809104026020016040519081016040528092919081815260200182805461103690612ad8565b80156110815780601f1061105857610100808354040283529160200191611081565b820191905f5260205f20905b81548152906001019060200180831161106457829003601f168201915b5050505050815260200160048201548152602001600582015f9054906101000a900473ffffffffffffffffffffffffffffffffffffffff1673ffffffffffffffffffffffffffffffffffffffff1673ffffffffffffffffffffffffffffffffffffffff1681526020016005820160149054906101000a900460ff16600181111561110e5761110d611f69565b5b60018111156111205761111f611f69565b5b81526020016005820160159054906101000a900460ff1615151515815250509050806040015188838151811061115957611158612bc0565b5b6020026020010181905250806060015187838151811061117c5761117b612bc0565b5b6020026020010181905250806080015186838151811061119f5761119e612bc0565b5b6020026020010181815250508060a001518583815181106111c3576111c2612bc0565b5b602002602001019073ffffffffffffffffffffffffffffffffffffffff16908173ffffffffffffffffffffffffffffffffffffffff16815250508060c0015184838151811061121557611214612bc0565b5b6020026020010190600181111561122f5761122e611f69565b5b9081600181111561124357611242611f69565b5b81525050508080600101915050610e91565b508096505091939550919395565b815f808281526020019081526020015f2060050160159054906101000a900460ff166112c4576040517f08c379a00000000000000000000000000000000000000000000000000000000081526004016112bb90612a8d565b60405180910390fd5b825f60018111156112d8576112d7611f69565b5b5f808381526020019081526020015f2060050160149054906101000a900460ff16600181111561130b5761130a611f69565b5b1461134b576040517f08c379a000000000000000000000000000000000000000000000000000000000815260040161134290612da1565b60405180910390fd5b5f83511161138e576040517f08c379a000000000000000000000000000000000000000000000000000000000815260040161138590612e2f565b60405180910390fd5b5f844233866040516020016113a69493929190612ed2565b6040516020818303038152906040528051906020012090505f6040518060a001604052808381526020018681526020014281526020013373ffffffffffffffffffffffffffffffffffffffff1681526020015f600181111561140b5761140a611f69565b5b815250905060015f8781526020019081526020015f2081908060018154018082558091505060019003905f5260205f2090600402015f909190919091505f820151815f0155602082015181600101908161146591906130b8565b50604082015181600201556060820151816003015f6101000a81548173ffffffffffffffffffffffffffffffffffffffff021916908373ffffffffffffffffffffffffffffffffffffffff16021790555060808201518160030160146101000a81548160ff021916908360018111156114e1576114e0611f69565b5b021790555050508560025f8481526020019081526020015f208190555081867ffc7f09d226b2e852bd3f04f352adab8a4e00b078d16e635f5a5102e2ac721fc887423360405161153393929190613187565b60405180910390a3505050505050565b5f806003836040516115559190612b42565b908152602001604051809103902080549050119050919050565b815f808281526020019081526020015f2060050160159054906101000a900460ff166115d0576040517f08c379a00000000000000000000000000000000000000000000000000000000081526004016115c790612a8d565b60405180910390fd5b815f808581526020019081526020015f2060050160146101000a81548160ff0219169083600181111561160657611605611f69565b5b0217905550827f6b42974450f95b3d498669e78c1d60139454f4e6c64187cfb138c2d7dbf2aa168360405161163b91906131c3565b60405180910390a2505050565b6060815f808281526020019081526020015f2060050160159054906101000a900460ff166116ab576040517f08c379a00000000000000000000000000000000000000000000000000000000081526004016116a290612a8d565b60405180910390fd5b60015f8481526020019081526020015f20805480602002602001604051908101604052809291908181526020015f905b8282101561183e578382905f5260205f2090600402016040518060a00160405290815f820154815260200160018201805461171590612ad8565b80601f016020809104026020016040519081016040528092919081815260200182805461174190612ad8565b801561178c5780601f106117635761010080835404028352916020019161178c565b820191905f5260205f20905b81548152906001019060200180831161176f57829003601f168201915b5050505050815260200160028201548152602001600382015f9054906101000a900473ffffffffffffffffffffffffffffffffffffffff1673ffffffffffffffffffffffffffffffffffffffff1673ffffffffffffffffffffffffffffffffffffffff1681526020016003820160149054906101000a900460ff16600181111561181957611818611f69565b5b600181111561182b5761182a611f69565b5b81525050815260200190600101906116db565b50505050915050919050565b5f84511161188d576040517f08c379a000000000000000000000000000000000000000000000000000000000815260040161188490613226565b60405180910390fd5b5f8351116118d0576040517f08c379a00000000000000000000000000000000000000000000000000000000081526004016118c790612cab565b60405180910390fd5b5f825111611913576040517f08c379a000000000000000000000000000000000000000000000000000000000815260040161190a9061328e565b60405180910390fd5b5f815111611956576040517f08c379a000000000000000000000000000000000000000000000000000000000815260040161194d906132f6565b60405180910390fd5b5f61196085611db7565b90505f808281526020019081526020015f2060050160159054906101000a900460ff16156119c3576040517f08c379a00000000000000000000000000000000000000000000000000000000081526004016119ba9061335e565b60405180910390fd5b5f6040518061010001604052808381526020018681526020018581526020018481526020014281526020013373ffffffffffffffffffffffffffffffffffffffff1681526020015f6001811115611a1d57611a1c611f69565b5b8152602001600115158152509050805f808481526020019081526020015f205f820151815f01556020820151816001019081611a5991906130b8565b506040820151816002019081611a6f91906130b8565b506060820151816003019081611a8591906130b8565b506080820151816004015560a0820151816005015f6101000a81548173ffffffffffffffffffffffffffffffffffffffff021916908373ffffffffffffffffffffffffffffffffffffffff16021790555060c08201518160050160146101000a81548160ff02191690836001811115611b0157611b00611f69565b5b021790555060e08201518160050160156101000a81548160ff021916908315150217905550905050600482908060018154018082558091505060019003905f5260205f20015f9091909190915055600385604051611b5f9190612b42565b908152602001604051809103902082908060018154018082558091505060019003905f5260205f20015f90919091909150555f8242604051602001611ba59291906133c6565b6040516020818303038152906040528051906020012090505f6040518060a001604052808381526020016040518060400160405280601681526020017f50726f6475637420696e697469616c697a6174696f6e0000000000000000000081525081526020014281526020013373ffffffffffffffffffffffffffffffffffffffff1681526020015f6001811115611c3f57611c3e611f69565b5b815250905060015f8581526020019081526020015f2081908060018154018082558091505060019003905f5260205f2090600402015f909190919091505f820151815f01556020820151816001019081611c9991906130b8565b50604082015181600201556060820151816003015f6101000a81548173ffffffffffffffffffffffffffffffffffffffff021916908373ffffffffffffffffffffffffffffffffffffffff16021790555060808201518160030160146101000a81548160ff02191690836001811115611d1557611d14611f69565b5b021790555050508360025f8481526020019081526020015f2081905550837f05d95f8b95df6d455e3731c3ddea53d6b339315da38d66461c61654d2f72563f8888884233604051611d6a9594939291906133fc565b60405180910390a281847ffc7f09d226b2e852bd3f04f352adab8a4e00b078d16e635f5a5102e2ac721fc84233604051611da59291906134ac565b60405180910390a35050505050505050565b5f808290505f815103611dcf575f801b915050611dd8565b60208301519150505b919050565b6040518060a001604052805f8019168152602001606081526020015f81526020015f73ffffffffffffffffffffffffffffffffffffffff1681526020015f6001811115611e2d57611e2c611f69565b5b81525090565b5f604051905090565b5f80fd5b5f80fd5b5f819050919050565b611e5681611e44565b8114611e60575f80fd5b50565b5f81359050611e7181611e4d565b92915050565b5f60208284031215611e8c57611e8b611e3c565b5b5f611e9984828501611e63565b91505092915050565b5f81519050919050565b5f82825260208201905092915050565b8281835e5f83830152505050565b5f601f19601f8301169050919050565b5f611ee482611ea2565b611eee8185611eac565b9350611efe818560208601611ebc565b611f0781611eca565b840191505092915050565b5f819050919050565b611f2481611f12565b82525050565b5f73ffffffffffffffffffffffffffffffffffffffff82169050919050565b5f611f5382611f2a565b9050919050565b611f6381611f49565b82525050565b7f4e487b71000000000000000000000000000000000000000000000000000000005f52602160045260245ffd5b60028110611fa757611fa6611f69565b5b50565b5f819050611fb782611f96565b919050565b5f611fc682611faa565b9050919050565b611fd681611fbc565b82525050565b5f60c0820190508181035f830152611ff48189611eda565b905081810360208301526120088188611eda565b9050818103604083015261201c8187611eda565b905061202b6060830186611f1b565b6120386080830185611f5a565b61204560a0830184611fcd565b979650505050505050565b5f80fd5b5f80fd5b7f4e487b71000000000000000000000000000000000000000000000000000000005f52604160045260245ffd5b61208e82611eca565b810181811067ffffffffffffffff821117156120ad576120ac612058565b5b80604052505050565b5f6120bf611e33565b90506120cb8282612085565b919050565b5f67ffffffffffffffff8211156120ea576120e9612058565b5b6120f382611eca565b9050602081019050919050565b828183375f83830152505050565b5f61212061211b846120d0565b6120b6565b90508281526020810184848401111561213c5761213b612054565b5b612147848285612100565b509392505050565b5f82601f83011261216357612162612050565b5b813561217384826020860161210e565b91505092915050565b5f6020828403121561219157612190611e3c565b5b5f82013567ffffffffffffffff8111156121ae576121ad611e40565b5b6121ba8482850161214f565b91505092915050565b5f6020820190506121d65f830184611f1b565b92915050565b6121e581611e44565b82525050565b5f60a0820190506121fe5f8301886121dc565b81810360208301526122108187611eda565b905061221f6040830186611f1b565b61222c6060830185611f5a565b6122396080830184611fcd565b9695505050505050565b61224c81611f49565b8114612256575f80fd5b50565b5f8135905061226781612243565b92915050565b5f806040838503121561228357612282611e3c565b5b5f61229085828601611e63565b92505060206122a185828601612259565b9150509250929050565b5f81519050919050565b5f82825260208201905092915050565b5f819050602082019050919050565b6122dd81611e44565b82525050565b5f82825260208201905092915050565b5f6122fd82611ea2565b61230781856122e3565b9350612317818560208601611ebc565b61232081611eca565b840191505092915050565b61233481611f12565b82525050565b61234381611f49565b82525050565b61235281611fbc565b82525050565b5f60a083015f83015161236d5f8601826122d4565b506020830151848203602086015261238582826122f3565b915050604083015161239a604086018261232b565b5060608301516123ad606086018261233a565b5060808301516123c06080860182612349565b508091505092915050565b5f6123d68383612358565b905092915050565b5f602082019050919050565b5f6123f4826122ab565b6123fe81856122b5565b935083602082028501612410856122c5565b805f5b8581101561244b578484038952815161242c85826123cb565b9450612437836123de565b925060208a01995050600181019050612413565b50829750879550505050505092915050565b5f6020820190508181035f83015261247581846123ea565b905092915050565b5f81519050919050565b5f82825260208201905092915050565b5f819050602082019050919050565b5f6124b183836122d4565b60208301905092915050565b5f602082019050919050565b5f6124d38261247d565b6124dd8185612487565b93506124e883612497565b805f5b838110156125185781516124ff88826124a6565b975061250a836124bd565b9250506001810190506124eb565b5085935050505092915050565b5f6020820190508181035f83015261253d81846124c9565b905092915050565b5f81519050919050565b5f82825260208201905092915050565b5f819050602082019050919050565b5f61257983836122f3565b905092915050565b5f602082019050919050565b5f61259782612545565b6125a1818561254f565b9350836020820285016125b38561255f565b805f5b858110156125ee57848403895281516125cf858261256e565b94506125da83612581565b925060208a019950506001810190506125b6565b50829750879550505050505092915050565b5f81519050919050565b5f82825260208201905092915050565b5f819050602082019050919050565b5f612634838361232b565b60208301905092915050565b5f602082019050919050565b5f61265682612600565b612660818561260a565b935061266b8361261a565b805f5b8381101561269b5781516126828882612629565b975061268d83612640565b92505060018101905061266e565b5085935050505092915050565b5f81519050919050565b5f82825260208201905092915050565b5f819050602082019050919050565b5f6126dc838361233a565b60208301905092915050565b5f602082019050919050565b5f6126fe826126a8565b61270881856126b2565b9350612713836126c2565b805f5b8381101561274357815161272a88826126d1565b9750612735836126e8565b925050600181019050612716565b5085935050505092915050565b5f81519050919050565b5f82825260208201905092915050565b5f819050602082019050919050565b5f6127848383612349565b60208301905092915050565b5f602082019050919050565b5f6127a682612750565b6127b0818561275a565b93506127bb8361276a565b805f5b838110156127eb5781516127d28882612779565b97506127dd83612790565b9250506001810190506127be565b5085935050505092915050565b5f60c0820190508181035f83015261281081896124c9565b90508181036020830152612824818861258d565b90508181036040830152612838818761258d565b9050818103606083015261284c818661264c565b9050818103608083015261286081856126f4565b905081810360a0830152612874818461279c565b9050979650505050505050565b5f806040838503121561289757612896611e3c565b5b5f6128a485828601611e63565b925050602083013567ffffffffffffffff8111156128c5576128c4611e40565b5b6128d18582860161214f565b9150509250929050565b5f8115159050919050565b6128ef816128db565b82525050565b5f6020820190506129085f8301846128e6565b92915050565b6002811061291a575f80fd5b50565b5f8135905061292b8161290e565b92915050565b5f806040838503121561294757612946611e3c565b5b5f61295485828601611e63565b92505060206129658582860161291d565b9150509250929050565b5f805f806080858703121561298757612986611e3c565b5b5f85013567ffffffffffffffff8111156129a4576129a3611e40565b5b6129b08782880161214f565b945050602085013567ffffffffffffffff8111156129d1576129d0611e40565b5b6129dd8782880161214f565b935050604085013567ffffffffffffffff8111156129fe576129fd611e40565b5b612a0a8782880161214f565b925050606085013567ffffffffffffffff811115612a2b57612a2a611e40565b5b612a378782880161214f565b91505092959194509250565b7f50726f6475637420646f6573206e6f74206578697374000000000000000000005f82015250565b5f612a77601683611eac565b9150612a8282612a43565b602082019050919050565b5f6020820190508181035f830152612aa481612a6b565b9050919050565b7f4e487b71000000000000000000000000000000000000000000000000000000005f52602260045260245ffd5b5f6002820490506001821680612aef57607f821691505b602082108103612b0257612b01612aab565b5b50919050565b5f81905092915050565b5f612b1c82611ea2565b612b268185612b08565b9350612b36818560208601611ebc565b80840191505092915050565b5f612b4d8284612b12565b915081905092915050565b7f5472616365206e6f7420666f756e6400000000000000000000000000000000005f82015250565b5f612b8c600f83611eac565b9150612b9782612b58565b602082019050919050565b5f6020820190508181035f830152612bb981612b80565b9050919050565b7f4e487b71000000000000000000000000000000000000000000000000000000005f52603260045260245ffd5b7f4e487b71000000000000000000000000000000000000000000000000000000005f52601160045260245ffd5b5f612c2482611f12565b91507fffffffffffffffffffffffffffffffffffffffffffffffffffffffffffffffff8203612c5657612c55612bed565b5b600182019050919050565b7f436f64656261722063616e6e6f7420626520656d7074790000000000000000005f82015250565b5f612c95601783611eac565b9150612ca082612c61565b602082019050919050565b5f6020820190508181035f830152612cc281612c89565b9050919050565b7f4e6f2070726f647563747320666f756e642077697468207468697320636f64655f8201527f6261720000000000000000000000000000000000000000000000000000000000602082015250565b5f612d23602383611eac565b9150612d2e82612cc9565b604082019050919050565b5f6020820190508181035f830152612d5081612d17565b9050919050565b7f50726f64756374206e6f742061637469766500000000000000000000000000005f82015250565b5f612d8b601283611eac565b9150612d9682612d57565b602082019050919050565b5f6020820190508181035f830152612db881612d7f565b9050919050565b7f5472616365206465736372697074696f6e2063616e6e6f7420626520656d70745f8201527f7900000000000000000000000000000000000000000000000000000000000000602082015250565b5f612e19602183611eac565b9150612e2482612dbf565b604082019050919050565b5f6020820190508181035f830152612e4681612e0d565b9050919050565b5f819050919050565b612e67612e6282611e44565b612e4d565b82525050565b5f819050919050565b612e87612e8282611f12565b612e6d565b82525050565b5f8160601b9050919050565b5f612ea382612e8d565b9050919050565b5f612eb482612e99565b9050919050565b612ecc612ec782611f49565b612eaa565b82525050565b5f612edd8287612e56565b602082019150612eed8286612e76565b602082019150612efd8285612ebb565b601482019150612f0d8284612b12565b915081905095945050505050565b5f819050815f5260205f209050919050565b5f6020601f8301049050919050565b5f82821b905092915050565b5f60088302612f777fffffffffffffffffffffffffffffffffffffffffffffffffffffffffffffffff82612f3c565b612f818683612f3c565b95508019841693508086168417925050509392505050565b5f819050919050565b5f612fbc612fb7612fb284611f12565b612f99565b611f12565b9050919050565b5f819050919050565b612fd583612fa2565b612fe9612fe182612fc3565b848454612f48565b825550505050565b5f90565b612ffd612ff1565b613008818484612fcc565b505050565b5b8181101561302b576130205f82612ff5565b60018101905061300e565b5050565b601f8211156130705761304181612f1b565b61304a84612f2d565b81016020851015613059578190505b61306d61306585612f2d565b83018261300d565b50505b505050565b5f82821c905092915050565b5f6130905f1984600802613075565b1980831691505092915050565b5f6130a88383613081565b9150826002028217905092915050565b6130c182611ea2565b67ffffffffffffffff8111156130da576130d9612058565b5b6130e48254612ad8565b6130ef82828561302f565b5f60209050601f831160018114613120575f841561310e578287015190505b613118858261309d565b86555061317f565b601f19841661312e86612f1b565b5f5b8281101561315557848901518255600182019150602085019450602081019050613130565b86831015613172578489015161316e601f891682613081565b8355505b6001600288020188555050505b505050505050565b5f6060820190508181035f83015261319f8186611eda565b90506131ae6020830185611f1b565b6131bb6040830184611f5a565b949350505050565b5f6020820190506131d65f830184611fcd565b92915050565b7f50726f647563742049442063616e6e6f7420626520656d7074790000000000005f82015250565b5f613210601a83611eac565b915061321b826131dc565b602082019050919050565b5f6020820190508181035f83015261323d81613204565b9050919050565b7f4e616d652063616e6e6f7420626520656d7074790000000000000000000000005f82015250565b5f613278601483611eac565b915061328382613244565b602082019050919050565b5f6020820190508181035f8301526132a58161326c565b9050919050565b7f4465736372697074696f6e2063616e6e6f7420626520656d70747900000000005f82015250565b5f6132e0601b83611eac565b91506132eb826132ac565b602082019050919050565b5f6020820190508181035f83015261330d816132d4565b9050919050565b7f50726f6475637420616c726561647920657869737473000000000000000000005f82015250565b5f613348601683611eac565b915061335382613314565b602082019050919050565b5f6020820190508181035f8301526133758161333c565b9050919050565b7f494e4954000000000000000000000000000000000000000000000000000000005f82015250565b5f6133b0600483612b08565b91506133bb8261337c565b600482019050919050565b5f6133d18285612e56565b6020820191506133e18284612e76565b6020820191506133f0826133a4565b91508190509392505050565b5f60a0820190508181035f8301526134148188611eda565b905081810360208301526134288187611eda565b9050818103604083015261343c8186611eda565b905061344b6060830185611f1b565b6134586080830184611f5a565b9695505050505050565b7f50726f6475637420696e697469616c697a6174696f6e000000000000000000005f82015250565b5f613496601683611eac565b91506134a182613462565b602082019050919050565b5f6060820190508181035f8301526134c38161348a565b90506134d26020830185611f1b565b6134df6040830184611f5a565b939250505056fea2646970667358221220551246867d36f417b070e92d7321b2aac698260a72f6ebd03e13955703f67f0364736f6c634300081a0033",
					"opcodes": "PUSH1 0x80 PUSH1 0x40 MSTORE CALLVALUE DUP1 ISZERO PUSH1 0xE JUMPI PUSH0 DUP1 REVERT JUMPDEST POP PUSH2 0x351C DUP1 PUSH2 0x1C PUSH0 CODECOPY PUSH0 RETURN INVALID PUSH1 0x80 PUSH1 0x40 MSTORE CALLVALUE DUP1 ISZERO PUSH2 0xF JUMPI PUSH0 DUP1 REVERT JUMPDEST POP PUSH1 0x4 CALLDATASIZE LT PUSH2 0xA7 JUMPI PUSH0 CALLDATALOAD PUSH1 0xE0 SHR DUP1 PUSH4 0x89015686 GT PUSH2 0x6F JUMPI DUP1 PUSH4 0x89015686 EQ PUSH2 0x192 JUMPI DUP1 PUSH4 0x9635B610 EQ PUSH2 0x1C7 JUMPI DUP1 PUSH4 0xB8715C95 EQ PUSH2 0x1E3 JUMPI DUP1 PUSH4 0xDC964CB6 EQ PUSH2 0x213 JUMPI DUP1 PUSH4 0xF0CCDECB EQ PUSH2 0x22F JUMPI DUP1 PUSH4 0xFDE74E81 EQ PUSH2 0x25F JUMPI PUSH2 0xA7 JUMP JUMPDEST DUP1 PUSH4 0x3A20E9DF EQ PUSH2 0xAB JUMPI DUP1 PUSH4 0x5609953A EQ PUSH2 0xE0 JUMPI DUP1 PUSH4 0x58FB4AD7 EQ PUSH2 0x110 JUMPI DUP1 PUSH4 0x5A94FECA EQ PUSH2 0x144 JUMPI DUP1 PUSH4 0x663C01AF EQ PUSH2 0x174 JUMPI JUMPDEST PUSH0 DUP1 REVERT JUMPDEST PUSH2 0xC5 PUSH1 0x4 DUP1 CALLDATASIZE SUB DUP2 ADD SWAP1 PUSH2 0xC0 SWAP2 SWAP1 PUSH2 0x1E77 JUMP JUMPDEST PUSH2 0x27B JUMP JUMPDEST PUSH1 0x40 MLOAD PUSH2 0xD7 SWAP7 SWAP6 SWAP5 SWAP4 SWAP3 SWAP2 SWAP1 PUSH2 0x1FDC JUMP JUMPDEST PUSH1 0x40 MLOAD DUP1 SWAP2 SUB SWAP1 RETURN JUMPDEST PUSH2 0xFA PUSH1 0x4 DUP1 CALLDATASIZE SUB DUP2 ADD SWAP1 PUSH2 0xF5 SWAP2 SWAP1 PUSH2 0x217C JUMP JUMPDEST PUSH2 0x5A6 JUMP JUMPDEST PUSH1 0x40 MLOAD PUSH2 0x107 SWAP2 SWAP1 PUSH2 0x21C3 JUMP JUMPDEST PUSH1 0x40 MLOAD DUP1 SWAP2 SUB SWAP1 RETURN JUMPDEST PUSH2 0x12A PUSH1 0x4 DUP1 CALLDATASIZE SUB DUP2 ADD SWAP1 PUSH2 0x125 SWAP2 SWAP1 PUSH2 0x1E77 JUMP JUMPDEST PUSH2 0x5D0 JUMP JUMPDEST PUSH1 0x40 MLOAD PUSH2 0x13B SWAP6 SWAP5 SWAP4 SWAP3 SWAP2 SWAP1 PUSH2 0x21EB JUMP JUMPDEST PUSH1 0x40 MLOAD DUP1 SWAP2 SUB SWAP1 RETURN JUMPDEST PUSH2 0x15E PUSH1 0x4 DUP1 CALLDATASIZE SUB DUP2 ADD SWAP1 PUSH2 0x159 SWAP2 SWAP1 PUSH2 0x226D JUMP JUMPDEST PUSH2 0x81F JUMP JUMPDEST PUSH1 0x40 MLOAD PUSH2 0x16B SWAP2 SWAP1 PUSH2 0x245D JUMP JUMPDEST PUSH1 0x40 MLOAD DUP1 SWAP2 SUB SWAP1 RETURN JUMPDEST PUSH2 0x17C PUSH2 0xBB6 JUMP JUMPDEST PUSH1 0x40 MLOAD PUSH2 0x189 SWAP2 SWAP1 PUSH2 0x2525 JUMP JUMPDEST PUSH1 0x40 MLOAD DUP1 SWAP2 SUB SWAP1 RETURN JUMPDEST PUSH2 0x1AC PUSH1 0x4 DUP1 CALLDATASIZE SUB DUP2 ADD SWAP1 PUSH2 0x1A7 SWAP2 SWAP1 PUSH2 0x217C JUMP JUMPDEST PUSH2 0xC0C JUMP JUMPDEST PUSH1 0x40 MLOAD PUSH2 0x1BE SWAP7 SWAP6 SWAP5 SWAP4 SWAP3 SWAP2 SWAP1 PUSH2 0x27F8 JUMP JUMPDEST PUSH1 0x40 MLOAD DUP1 SWAP2 SUB SWAP1 RETURN JUMPDEST PUSH2 0x1E1 PUSH1 0x4 DUP1 CALLDATASIZE SUB DUP2 ADD SWAP1 PUSH2 0x1DC SWAP2 SWAP1 PUSH2 0x2881 JUMP JUMPDEST PUSH2 0x1263 JUMP JUMPDEST STOP JUMPDEST PUSH2 0x1FD PUSH1 0x4 DUP1 CALLDATASIZE SUB DUP2 ADD SWAP1 PUSH2 0x1F8 SWAP2 SWAP1 PUSH2 0x217C JUMP JUMPDEST PUSH2 0x1543 JUMP JUMPDEST PUSH1 0x40 MLOAD PUSH2 0x20A SWAP2 SWAP1 PUSH2 0x28F5 JUMP JUMPDEST PUSH1 0x40 MLOAD DUP1 SWAP2 SUB SWAP1 RETURN JUMPDEST PUSH2 0x22D PUSH1 0x4 DUP1 CALLDATASIZE SUB DUP2 ADD SWAP1 PUSH2 0x228 SWAP2 SWAP1 PUSH2 0x2931 JUMP JUMPDEST PUSH2 0x156F JUMP JUMPDEST STOP JUMPDEST PUSH2 0x249 PUSH1 0x4 DUP1 CALLDATASIZE SUB DUP2 ADD SWAP1 PUSH2 0x244 SWAP2 SWAP1 PUSH2 0x1E77 JUMP JUMPDEST PUSH2 0x1648 JUMP JUMPDEST PUSH1 0x40 MLOAD PUSH2 0x256 SWAP2 SWAP1 PUSH2 0x245D JUMP JUMPDEST PUSH1 0x40 MLOAD DUP1 SWAP2 SUB SWAP1 RETURN JUMPDEST PUSH2 0x279 PUSH1 0x4 DUP1 CALLDATASIZE SUB DUP2 ADD SWAP1 PUSH2 0x274 SWAP2 SWAP1 PUSH2 0x296F JUMP JUMPDEST PUSH2 0x184A JUMP JUMPDEST STOP JUMPDEST PUSH1 0x60 DUP1 PUSH1 0x60 PUSH0 DUP1 PUSH0 DUP7 PUSH0 DUP1 DUP3 DUP2 MSTORE PUSH1 0x20 ADD SWAP1 DUP2 MSTORE PUSH1 0x20 ADD PUSH0 KECCAK256 PUSH1 0x5 ADD PUSH1 0x15 SWAP1 SLOAD SWAP1 PUSH2 0x100 EXP SWAP1 DIV PUSH1 0xFF AND PUSH2 0x2E4 JUMPI PUSH1 0x40 MLOAD PUSH32 0x8C379A000000000000000000000000000000000000000000000000000000000 DUP2 MSTORE PUSH1 0x4 ADD PUSH2 0x2DB SWAP1 PUSH2 0x2A8D JUMP JUMPDEST PUSH1 0x40 MLOAD DUP1 SWAP2 SUB SWAP1 REVERT JUMPDEST PUSH0 DUP1 PUSH0 DUP11 DUP2 MSTORE PUSH1 0x20 ADD SWAP1 DUP2 MSTORE PUSH1 0x20 ADD PUSH0 KECCAK256 PUSH1 0x40 MLOAD DUP1 PUSH2 0x100 ADD PUSH1 0x40 MSTORE SWAP1 DUP2 PUSH0 DUP3 ADD SLOAD DUP2 MSTORE PUSH1 0x20 ADD PUSH1 0x1 DUP3 ADD DUP1 SLOAD PUSH2 0x31A SWAP1 PUSH2 0x2AD8 JUMP JUMPDEST DUP1 PUSH1 0x1F ADD PUSH1 0x20 DUP1 SWAP2 DIV MUL PUSH1 0x20 ADD PUSH1 0x40 MLOAD SWAP1 DUP2 ADD PUSH1 0x40 MSTORE DUP1 SWAP3 SWAP2 SWAP1 DUP2 DUP2 MSTORE PUSH1 0x20 ADD DUP3 DUP1 SLOAD PUSH2 0x346 SWAP1 PUSH2 0x2AD8 JUMP JUMPDEST DUP1 ISZERO PUSH2 0x391 JUMPI DUP1 PUSH1 0x1F LT PUSH2 0x368 JUMPI PUSH2 0x100 DUP1 DUP4 SLOAD DIV MUL DUP4 MSTORE SWAP2 PUSH1 0x20 ADD SWAP2 PUSH2 0x391 JUMP JUMPDEST DUP3 ADD SWAP2 SWAP1 PUSH0 MSTORE PUSH1 0x20 PUSH0 KECCAK256 SWAP1 JUMPDEST DUP2 SLOAD DUP2 MSTORE SWAP1 PUSH1 0x1 ADD SWAP1 PUSH1 0x20 ADD DUP1 DUP4 GT PUSH2 0x374 JUMPI DUP3 SWAP1 SUB PUSH1 0x1F AND DUP3 ADD SWAP2 JUMPDEST POP POP POP POP POP DUP2 MSTORE PUSH1 0x20 ADD PUSH1 0x2 DUP3 ADD DUP1 SLOAD PUSH2 0x3AA SWAP1 PUSH2 0x2AD8 JUMP JUMPDEST DUP1 PUSH1 0x1F ADD PUSH1 0x20 DUP1 SWAP2 DIV MUL PUSH1 0x20 ADD PUSH1 0x40 MLOAD SWAP1 DUP2 ADD PUSH1 0x40 MSTORE DUP1 SWAP3 SWAP2 SWAP1 DUP2 DUP2 MSTORE PUSH1 0x20 ADD DUP3 DUP1 SLOAD PUSH2 0x3D6 SWAP1 PUSH2 0x2AD8 JUMP JUMPDEST DUP1 ISZERO PUSH2 0x421 JUMPI DUP1 PUSH1 0x1F LT PUSH2 0x3F8 JUMPI PUSH2 0x100 DUP1 DUP4 SLOAD DIV MUL DUP4 MSTORE SWAP2 PUSH1 0x20 ADD SWAP2 PUSH2 0x421 JUMP JUMPDEST DUP3 ADD SWAP2 SWAP1 PUSH0 MSTORE PUSH1 0x20 PUSH0 KECCAK256 SWAP1 JUMPDEST DUP2 SLOAD DUP2 MSTORE SWAP1 PUSH1 0x1 ADD SWAP1 PUSH1 0x20 ADD DUP1 DUP4 GT PUSH2 0x404 JUMPI DUP3 SWAP1 SUB PUSH1 0x1F AND DUP3 ADD SWAP2 JUMPDEST POP POP POP POP POP DUP2 MSTORE PUSH1 0x20 ADD PUSH1 0x3 DUP3 ADD DUP1 SLOAD PUSH2 0x43A SWAP1 PUSH2 0x2AD8 JUMP JUMPDEST DUP1 PUSH1 0x1F ADD PUSH1 0x20 DUP1 SWAP2 DIV MUL PUSH1 0x20 ADD PUSH1 0x40 MLOAD SWAP1 DUP2 ADD PUSH1 0x40 MSTORE DUP1 SWAP3 SWAP2 SWAP1 DUP2 DUP2 MSTORE PUSH1 0x20 ADD DUP3 DUP1 SLOAD PUSH2 0x466 SWAP1 PUSH2 0x2AD8 JUMP JUMPDEST DUP1 ISZERO PUSH2 0x4B1 JUMPI DUP1 PUSH1 0x1F LT PUSH2 0x488 JUMPI PUSH2 0x100 DUP1 DUP4 SLOAD DIV MUL DUP4 MSTORE SWAP2 PUSH1 0x20 ADD SWAP2 PUSH2 0x4B1 JUMP JUMPDEST DUP3 ADD SWAP2 SWAP1 PUSH0 MSTORE PUSH1 0x20 PUSH0 KECCAK256 SWAP1 JUMPDEST DUP2 SLOAD DUP2 MSTORE SWAP1 PUSH1 0x1 ADD SWAP1 PUSH1 0x20 ADD DUP1 DUP4 GT PUSH2 0x494 JUMPI DUP3 SWAP1 SUB PUSH1 0x1F AND DUP3 ADD SWAP2 JUMPDEST POP POP POP POP POP DUP2 MSTORE PUSH1 0x20 ADD PUSH1 0x4 DUP3 ADD SLOAD DUP2 MSTORE PUSH1 0x20 ADD PUSH1 0x5 DUP3 ADD PUSH0 SWAP1 SLOAD SWAP1 PUSH2 0x100 EXP SWAP1 DIV PUSH20 0xFFFFFFFFFFFFFFFFFFFFFFFFFFFFFFFFFFFFFFFF AND PUSH20 0xFFFFFFFFFFFFFFFFFFFFFFFFFFFFFFFFFFFFFFFF AND PUSH20 0xFFFFFFFFFFFFFFFFFFFFFFFFFFFFFFFFFFFFFFFF AND DUP2 MSTORE PUSH1 0x20 ADD PUSH1 0x5 DUP3 ADD PUSH1 0x14 SWAP1 SLOAD SWAP1 PUSH2 0x100 EXP SWAP1 DIV PUSH1 0xFF AND PUSH1 0x1 DUP2 GT ISZERO PUSH2 0x53E JUMPI PUSH2 0x53D PUSH2 0x1F69 JUMP JUMPDEST JUMPDEST PUSH1 0x1 DUP2 GT ISZERO PUSH2 0x550 JUMPI PUSH2 0x54F PUSH2 0x1F69 JUMP JUMPDEST JUMPDEST DUP2 MSTORE PUSH1 0x20 ADD PUSH1 0x5 DUP3 ADD PUSH1 0x15 SWAP1 SLOAD SWAP1 PUSH2 0x100 EXP SWAP1 DIV PUSH1 0xFF AND ISZERO ISZERO ISZERO ISZERO DUP2 MSTORE POP POP SWAP1 POP DUP1 PUSH1 0x20 ADD MLOAD DUP2 PUSH1 0x40 ADD MLOAD DUP3 PUSH1 0x60 ADD MLOAD DUP4 PUSH1 0x80 ADD MLOAD DUP5 PUSH1 0xA0 ADD MLOAD DUP6 PUSH1 0xC0 ADD MLOAD SWAP8 POP SWAP8 POP SWAP8 POP SWAP8 POP SWAP8 POP SWAP8 POP POP POP SWAP2 SWAP4 SWAP6 POP SWAP2 SWAP4 SWAP6 JUMP JUMPDEST PUSH0 PUSH1 0x3 DUP3 PUSH1 0x40 MLOAD PUSH2 0x5B7 SWAP2 SWAP1 PUSH2 0x2B42 JUMP JUMPDEST SWAP1 DUP2 MSTORE PUSH1 0x20 ADD PUSH1 0x40 MLOAD DUP1 SWAP2 SUB SWAP1 KECCAK256 DUP1 SLOAD SWAP1 POP SWAP1 POP SWAP2 SWAP1 POP JUMP JUMPDEST PUSH0 PUSH1 0x60 PUSH0 DUP1 PUSH0 DUP1 PUSH1 0x2 PUSH0 DUP9 DUP2 MSTORE PUSH1 0x20 ADD SWAP1 DUP2 MSTORE PUSH1 0x20 ADD PUSH0 KECCAK256 SLOAD SWAP1 POP PUSH0 DUP1 SHL DUP2 SUB PUSH2 0x62F JUMPI PUSH1 0x40 MLOAD PUSH32 0x8C379A000000000000000000000000000000000000000000000000000000000 DUP2 MSTORE PUSH1 0x4 ADD PUSH2 0x626 SWAP1 PUSH2 0x2BA2 JUMP JUMPDEST PUSH1 0x40 MLOAD DUP1 SWAP2 SUB SWAP1 REVERT JUMPDEST PUSH0 PUSH1 0x1 PUSH0 DUP4 DUP2 MSTORE PUSH1 0x20 ADD SWAP1 DUP2 MSTORE PUSH1 0x20 ADD PUSH0 KECCAK256 SWAP1 POP PUSH0 JUMPDEST DUP2 DUP1 SLOAD SWAP1 POP DUP2 LT ISZERO PUSH2 0x7DA JUMPI DUP9 DUP3 DUP3 DUP2 SLOAD DUP2 LT PUSH2 0x665 JUMPI PUSH2 0x664 PUSH2 0x2BC0 JUMP JUMPDEST JUMPDEST SWAP1 PUSH0 MSTORE PUSH1 0x20 PUSH0 KECCAK256 SWAP1 PUSH1 0x4 MUL ADD PUSH0 ADD SLOAD SUB PUSH2 0x7CD JUMPI DUP3 DUP3 DUP3 DUP2 SLOAD DUP2 LT PUSH2 0x68D JUMPI PUSH2 0x68C PUSH2 0x2BC0 JUMP JUMPDEST JUMPDEST SWAP1 PUSH0 MSTORE PUSH1 0x20 PUSH0 KECCAK256 SWAP1 PUSH1 0x4 MUL ADD PUSH1 0x1 ADD DUP4 DUP4 DUP2 SLOAD DUP2 LT PUSH2 0x6AF JUMPI PUSH2 0x6AE PUSH2 0x2BC0 JUMP JUMPDEST JUMPDEST SWAP1 PUSH0 MSTORE PUSH1 0x20 PUSH0 KECCAK256 SWAP1 PUSH1 0x4 MUL ADD PUSH1 0x2 ADD SLOAD DUP5 DUP5 DUP2 SLOAD DUP2 LT PUSH2 0x6D2 JUMPI PUSH2 0x6D1 PUSH2 0x2BC0 JUMP JUMPDEST JUMPDEST SWAP1 PUSH0 MSTORE PUSH1 0x20 PUSH0 KECCAK256 SWAP1 PUSH1 0x4 MUL ADD PUSH1 0x3 ADD PUSH0 SWAP1 SLOAD SWAP1 PUSH2 0x100 EXP SWAP1 DIV PUSH20 0xFFFFFFFFFFFFFFFFFFFFFFFFFFFFFFFFFFFFFFFF AND DUP6 DUP6 DUP2 SLOAD DUP2 LT PUSH2 0x714 JUMPI PUSH2 0x713 PUSH2 0x2BC0 JUMP JUMPDEST JUMPDEST SWAP1 PUSH0 MSTORE PUSH1 0x20 PUSH0 KECCAK256 SWAP1 PUSH1 0x4 MUL ADD PUSH1 0x3 ADD PUSH1 0x14 SWAP1 SLOAD SWAP1 PUSH2 0x100 EXP SWAP1 DIV PUSH1 0xFF AND DUP4 DUP1 SLOAD PUSH2 0x73D SWAP1 PUSH2 0x2AD8 JUMP JUMPDEST DUP1 PUSH1 0x1F ADD PUSH1 0x20 DUP1 SWAP2 DIV MUL PUSH1 0x20 ADD PUSH1 0x40 MLOAD SWAP1 DUP2 ADD PUSH1 0x40 MSTORE DUP1 SWAP3 SWAP2 SWAP1 DUP2 DUP2 MSTORE PUSH1 0x20 ADD DUP3 DUP1 SLOAD PUSH2 0x769 SWAP1 PUSH2 0x2AD8 JUMP JUMPDEST DUP1 ISZERO PUSH2 0x7B4 JUMPI DUP1 PUSH1 0x1F LT PUSH2 0x78B JUMPI PUSH2 0x100 DUP1 DUP4 SLOAD DIV MUL DUP4 MSTORE SWAP2 PUSH1 0x20 ADD SWAP2 PUSH2 0x7B4 JUMP JUMPDEST DUP3 ADD SWAP2 SWAP1 PUSH0 MSTORE PUSH1 0x20 PUSH0 KECCAK256 SWAP1 JUMPDEST DUP2 SLOAD DUP2 MSTORE SWAP1 PUSH1 0x1 ADD SWAP1 PUSH1 0x20 ADD DUP1 DUP4 GT PUSH2 0x797 JUMPI DUP3 SWAP1 SUB PUSH1 0x1F AND DUP3 ADD SWAP2 JUMPDEST POP POP POP POP POP SWAP4 POP SWAP8 POP SWAP8 POP SWAP8 POP SWAP8 POP SWAP8 POP POP POP POP PUSH2 0x816 JUMP JUMPDEST DUP1 DUP1 PUSH1 0x1 ADD SWAP2 POP POP PUSH2 0x645 JUMP JUMPDEST POP PUSH1 0x40 MLOAD PUSH32 0x8C379A000000000000000000000000000000000000000000000000000000000 DUP2 MSTORE PUSH1 0x4 ADD PUSH2 0x80D SWAP1 PUSH2 0x2BA2 JUMP JUMPDEST PUSH1 0x40 MLOAD DUP1 SWAP2 SUB SWAP1 REVERT JUMPDEST SWAP2 SWAP4 SWAP6 SWAP1 SWAP3 SWAP5 POP JUMP JUMPDEST PUSH1 0x60 DUP3 PUSH0 DUP1 DUP3 DUP2 MSTORE PUSH1 0x20 ADD SWAP1 DUP2 MSTORE PUSH1 0x20 ADD PUSH0 KECCAK256 PUSH1 0x5 ADD PUSH1 0x15 SWAP1 SLOAD SWAP1 PUSH2 0x100 EXP SWAP1 DIV PUSH1 0xFF AND PUSH2 0x882 JUMPI PUSH1 0x40 MLOAD PUSH32 0x8C379A000000000000000000000000000000000000000000000000000000000 DUP2 MSTORE PUSH1 0x4 ADD PUSH2 0x879 SWAP1 PUSH2 0x2A8D JUMP JUMPDEST PUSH1 0x40 MLOAD DUP1 SWAP2 SUB SWAP1 REVERT JUMPDEST PUSH0 PUSH1 0x1 PUSH0 DUP7 DUP2 MSTORE PUSH1 0x20 ADD SWAP1 DUP2 MSTORE PUSH1 0x20 ADD PUSH0 KECCAK256 SWAP1 POP PUSH0 DUP1 JUMPDEST DUP3 DUP1 SLOAD SWAP1 POP DUP2 LT ISZERO PUSH2 0x935 JUMPI DUP6 PUSH20 0xFFFFFFFFFFFFFFFFFFFFFFFFFFFFFFFFFFFFFFFF AND DUP4 DUP3 DUP2 SLOAD DUP2 LT PUSH2 0x8CF JUMPI PUSH2 0x8CE PUSH2 0x2BC0 JUMP JUMPDEST JUMPDEST SWAP1 PUSH0 MSTORE PUSH1 0x20 PUSH0 KECCAK256 SWAP1 PUSH1 0x4 MUL ADD PUSH1 0x3 ADD PUSH0 SWAP1 SLOAD SWAP1 PUSH2 0x100 EXP SWAP1 DIV PUSH20 0xFFFFFFFFFFFFFFFFFFFFFFFFFFFFFFFFFFFFFFFF AND PUSH20 0xFFFFFFFFFFFFFFFFFFFFFFFFFFFFFFFFFFFFFFFF AND SUB PUSH2 0x928 JUMPI DUP2 DUP1 PUSH2 0x924 SWAP1 PUSH2 0x2C1A JUMP JUMPDEST SWAP3 POP POP JUMPDEST DUP1 DUP1 PUSH1 0x1 ADD SWAP2 POP POP PUSH2 0x899 JUMP JUMPDEST POP PUSH0 DUP2 PUSH8 0xFFFFFFFFFFFFFFFF DUP2 GT ISZERO PUSH2 0x951 JUMPI PUSH2 0x950 PUSH2 0x2058 JUMP JUMPDEST JUMPDEST PUSH1 0x40 MLOAD SWAP1 DUP1 DUP3 MSTORE DUP1 PUSH1 0x20 MUL PUSH1 0x20 ADD DUP3 ADD PUSH1 0x40 MSTORE DUP1 ISZERO PUSH2 0x98A JUMPI DUP2 PUSH1 0x20 ADD JUMPDEST PUSH2 0x977 PUSH2 0x1DDD JUMP JUMPDEST DUP2 MSTORE PUSH1 0x20 ADD SWAP1 PUSH1 0x1 SWAP1 SUB SWAP1 DUP2 PUSH2 0x96F JUMPI SWAP1 POP JUMPDEST POP SWAP1 POP PUSH0 DUP1 JUMPDEST DUP5 DUP1 SLOAD SWAP1 POP DUP2 LT ISZERO PUSH2 0xBA7 JUMPI DUP8 PUSH20 0xFFFFFFFFFFFFFFFFFFFFFFFFFFFFFFFFFFFFFFFF AND DUP6 DUP3 DUP2 SLOAD DUP2 LT PUSH2 0x9C6 JUMPI PUSH2 0x9C5 PUSH2 0x2BC0 JUMP JUMPDEST JUMPDEST SWAP1 PUSH0 MSTORE PUSH1 0x20 PUSH0 KECCAK256 SWAP1 PUSH1 0x4 MUL ADD PUSH1 0x3 ADD PUSH0 SWAP1 SLOAD SWAP1 PUSH2 0x100 EXP SWAP1 DIV PUSH20 0xFFFFFFFFFFFFFFFFFFFFFFFFFFFFFFFFFFFFFFFF AND PUSH20 0xFFFFFFFFFFFFFFFFFFFFFFFFFFFFFFFFFFFFFFFF AND SUB PUSH2 0xB9A JUMPI DUP5 DUP2 DUP2 SLOAD DUP2 LT PUSH2 0xA23 JUMPI PUSH2 0xA22 PUSH2 0x2BC0 JUMP JUMPDEST JUMPDEST SWAP1 PUSH0 MSTORE PUSH1 0x20 PUSH0 KECCAK256 SWAP1 PUSH1 0x4 MUL ADD PUSH1 0x40 MLOAD DUP1 PUSH1 0xA0 ADD PUSH1 0x40 MSTORE SWAP1 DUP2 PUSH0 DUP3 ADD SLOAD DUP2 MSTORE PUSH1 0x20 ADD PUSH1 0x1 DUP3 ADD DUP1 SLOAD PUSH2 0xA53 SWAP1 PUSH2 0x2AD8 JUMP JUMPDEST DUP1 PUSH1 0x1F ADD PUSH1 0x20 DUP1 SWAP2 DIV MUL PUSH1 0x20 ADD PUSH1 0x40 MLOAD SWAP1 DUP2 ADD PUSH1 0x40 MSTORE DUP1 SWAP3 SWAP2 SWAP1 DUP2 DUP2 MSTORE PUSH1 0x20 ADD DUP3 DUP1 SLOAD PUSH2 0xA7F SWAP1 PUSH2 0x2AD8 JUMP JUMPDEST DUP1 ISZERO PUSH2 0xACA JUMPI DUP1 PUSH1 0x1F LT PUSH2 0xAA1 JUMPI PUSH2 0x100 DUP1 DUP4 SLOAD DIV MUL DUP4 MSTORE SWAP2 PUSH1 0x20 ADD SWAP2 PUSH2 0xACA JUMP JUMPDEST DUP3 ADD SWAP2 SWAP1 PUSH0 MSTORE PUSH1 0x20 PUSH0 KECCAK256 SWAP1 JUMPDEST DUP2 SLOAD DUP2 MSTORE SWAP1 PUSH1 0x1 ADD SWAP1 PUSH1 0x20 ADD DUP1 DUP4 GT PUSH2 0xAAD JUMPI DUP3 SWAP1 SUB PUSH1 0x1F AND DUP3 ADD SWAP2 JUMPDEST POP POP POP POP POP DUP2 MSTORE PUSH1 0x20 ADD PUSH1 0x2 DUP3 ADD SLOAD DUP2 MSTORE PUSH1 0x20 ADD PUSH1 0x3 DUP3 ADD PUSH0 SWAP1 SLOAD SWAP1 PUSH2 0x100 EXP SWAP1 DIV PUSH20 0xFFFFFFFFFFFFFFFFFFFFFFFFFFFFFFFFFFFFFFFF AND PUSH20 0xFFFFFFFFFFFFFFFFFFFFFFFFFFFFFFFFFFFFFFFF AND PUSH20 0xFFFFFFFFFFFFFFFFFFFFFFFFFFFFFFFFFFFFFFFF AND DUP2 MSTORE PUSH1 0x20 ADD PUSH1 0x3 DUP3 ADD PUSH1 0x14 SWAP1 SLOAD SWAP1 PUSH2 0x100 EXP SWAP1 DIV PUSH1 0xFF AND PUSH1 0x1 DUP2 GT ISZERO PUSH2 0xB57 JUMPI PUSH2 0xB56 PUSH2 0x1F69 JUMP JUMPDEST JUMPDEST PUSH1 0x1 DUP2 GT ISZERO PUSH2 0xB69 JUMPI PUSH2 0xB68 PUSH2 0x1F69 JUMP JUMPDEST JUMPDEST DUP2 MSTORE POP POP DUP4 DUP4 DUP2 MLOAD DUP2 LT PUSH2 0xB80 JUMPI PUSH2 0xB7F PUSH2 0x2BC0 JUMP JUMPDEST JUMPDEST PUSH1 0x20 MUL PUSH1 0x20 ADD ADD DUP2 SWAP1 MSTORE POP DUP2 DUP1 PUSH2 0xB96 SWAP1 PUSH2 0x2C1A JUMP JUMPDEST SWAP3 POP POP JUMPDEST DUP1 DUP1 PUSH1 0x1 ADD SWAP2 POP POP PUSH2 0x990 JUMP JUMPDEST POP DUP2 SWAP6 POP POP POP POP POP POP SWAP3 SWAP2 POP POP JUMP JUMPDEST PUSH1 0x60 PUSH1 0x4 DUP1 SLOAD DUP1 PUSH1 0x20 MUL PUSH1 0x20 ADD PUSH1 0x40 MLOAD SWAP1 DUP2 ADD PUSH1 0x40 MSTORE DUP1 SWAP3 SWAP2 SWAP1 DUP2 DUP2 MSTORE PUSH1 0x20 ADD DUP3 DUP1 SLOAD DUP1 ISZERO PUSH2 0xC02 JUMPI PUSH1 0x20 MUL DUP3 ADD SWAP2 SWAP1 PUSH0 MSTORE PUSH1 0x20 PUSH0 KECCAK256 SWAP1 JUMPDEST DUP2 SLOAD DUP2 MSTORE PUSH1 0x20 ADD SWAP1 PUSH1 0x1 ADD SWAP1 DUP1 DUP4 GT PUSH2 0xBEE JUMPI JUMPDEST POP POP POP POP POP SWAP1 POP SWAP1 JUMP JUMPDEST PUSH1 0x60 DUP1 PUSH1 0x60 DUP1 PUSH1 0x60 DUP1 PUSH0 DUP8 MLOAD GT PUSH2 0xC58 JUMPI PUSH1 0x40 MLOAD PUSH32 0x8C379A000000000000000000000000000000000000000000000000000000000 DUP2 MSTORE PUSH1 0x4 ADD PUSH2 0xC4F SWAP1 PUSH2 0x2CAB JUMP JUMPDEST PUSH1 0x40 MLOAD DUP1 SWAP2 SUB SWAP1 REVERT JUMPDEST PUSH0 PUSH1 0x3 DUP9 PUSH1 0x40 MLOAD PUSH2 0xC69 SWAP2 SWAP1 PUSH2 0x2B42 JUMP JUMPDEST SWAP1 DUP2 MSTORE PUSH1 0x20 ADD PUSH1 0x40 MLOAD DUP1 SWAP2 SUB SWAP1 KECCAK256 DUP1 SLOAD DUP1 PUSH1 0x20 MUL PUSH1 0x20 ADD PUSH1 0x40 MLOAD SWAP1 DUP2 ADD PUSH1 0x40 MSTORE DUP1 SWAP3 SWAP2 SWAP1 DUP2 DUP2 MSTORE PUSH1 0x20 ADD DUP3 DUP1 SLOAD DUP1 ISZERO PUSH2 0xCBF JUMPI PUSH1 0x20 MUL DUP3 ADD SWAP2 SWAP1 PUSH0 MSTORE PUSH1 0x20 PUSH0 KECCAK256 SWAP1 JUMPDEST DUP2 SLOAD DUP2 MSTORE PUSH1 0x20 ADD SWAP1 PUSH1 0x1 ADD SWAP1 DUP1 DUP4 GT PUSH2 0xCAB JUMPI JUMPDEST POP POP POP POP POP SWAP1 POP PUSH0 DUP2 MLOAD GT PUSH2 0xD09 JUMPI PUSH1 0x40 MLOAD PUSH32 0x8C379A000000000000000000000000000000000000000000000000000000000 DUP2 MSTORE PUSH1 0x4 ADD PUSH2 0xD00 SWAP1 PUSH2 0x2D39 JUMP JUMPDEST PUSH1 0x40 MLOAD DUP1 SWAP2 SUB SWAP1 REVERT JUMPDEST DUP1 MLOAD PUSH8 0xFFFFFFFFFFFFFFFF DUP2 GT ISZERO PUSH2 0xD24 JUMPI PUSH2 0xD23 PUSH2 0x2058 JUMP JUMPDEST JUMPDEST PUSH1 0x40 MLOAD SWAP1 DUP1 DUP3 MSTORE DUP1 PUSH1 0x20 MUL PUSH1 0x20 ADD DUP3 ADD PUSH1 0x40 MSTORE DUP1 ISZERO PUSH2 0xD57 JUMPI DUP2 PUSH1 0x20 ADD JUMPDEST PUSH1 0x60 DUP2 MSTORE PUSH1 0x20 ADD SWAP1 PUSH1 0x1 SWAP1 SUB SWAP1 DUP2 PUSH2 0xD42 JUMPI SWAP1 POP JUMPDEST POP SWAP6 POP DUP1 MLOAD PUSH8 0xFFFFFFFFFFFFFFFF DUP2 GT ISZERO PUSH2 0xD75 JUMPI PUSH2 0xD74 PUSH2 0x2058 JUMP JUMPDEST JUMPDEST PUSH1 0x40 MLOAD SWAP1 DUP1 DUP3 MSTORE DUP1 PUSH1 0x20 MUL PUSH1 0x20 ADD DUP3 ADD PUSH1 0x40 MSTORE DUP1 ISZERO PUSH2 0xDA8 JUMPI DUP2 PUSH1 0x20 ADD JUMPDEST PUSH1 0x60 DUP2 MSTORE PUSH1 0x20 ADD SWAP1 PUSH1 0x1 SWAP1 SUB SWAP1 DUP2 PUSH2 0xD93 JUMPI SWAP1 POP JUMPDEST POP SWAP5 POP DUP1 MLOAD PUSH8 0xFFFFFFFFFFFFFFFF DUP2 GT ISZERO PUSH2 0xDC6 JUMPI PUSH2 0xDC5 PUSH2 0x2058 JUMP JUMPDEST JUMPDEST PUSH1 0x40 MLOAD SWAP1 DUP1 DUP3 MSTORE DUP1 PUSH1 0x20 MUL PUSH1 0x20 ADD DUP3 ADD PUSH1 0x40 MSTORE DUP1 ISZERO PUSH2 0xDF4 JUMPI DUP2 PUSH1 0x20 ADD PUSH1 0x20 DUP3 MUL DUP1 CALLDATASIZE DUP4 CALLDATACOPY DUP1 DUP3 ADD SWAP2 POP POP SWAP1 POP JUMPDEST POP SWAP4 POP DUP1 MLOAD PUSH8 0xFFFFFFFFFFFFFFFF DUP2 GT ISZERO PUSH2 0xE12 JUMPI PUSH2 0xE11 PUSH2 0x2058 JUMP JUMPDEST JUMPDEST PUSH1 0x40 MLOAD SWAP1 DUP1 DUP3 MSTORE DUP1 PUSH1 0x20 MUL PUSH1 0x20 ADD DUP3 ADD PUSH1 0x40 MSTORE DUP1 ISZERO PUSH2 0xE40 JUMPI DUP2 PUSH1 0x20 ADD PUSH1 0x20 DUP3 MUL DUP1 CALLDATASIZE DUP4 CALLDATACOPY DUP1 DUP3 ADD SWAP2 POP POP SWAP1 POP JUMPDEST POP SWAP3 POP DUP1 MLOAD PUSH8 0xFFFFFFFFFFFFFFFF DUP2 GT ISZERO PUSH2 0xE5E JUMPI PUSH2 0xE5D PUSH2 0x2058 JUMP JUMPDEST JUMPDEST PUSH1 0x40 MLOAD SWAP1 DUP1 DUP3 MSTORE DUP1 PUSH1 0x20 MUL PUSH1 0x20 ADD DUP3 ADD PUSH1 0x40 MSTORE DUP1 ISZERO PUSH2 0xE8C JUMPI DUP2 PUSH1 0x20 ADD PUSH1 0x20 DUP3 MUL DUP1 CALLDATASIZE DUP4 CALLDATACOPY DUP1 DUP3 ADD SWAP2 POP POP SWAP1 POP JUMPDEST POP SWAP2 POP PUSH0 JUMPDEST DUP2 MLOAD DUP2 LT ISZERO PUSH2 0x1255 JUMPI PUSH0 DUP1 PUSH0 DUP5 DUP5 DUP2 MLOAD DUP2 LT PUSH2 0xEB0 JUMPI PUSH2 0xEAF PUSH2 0x2BC0 JUMP JUMPDEST JUMPDEST PUSH1 0x20 MUL PUSH1 0x20 ADD ADD MLOAD DUP2 MSTORE PUSH1 0x20 ADD SWAP1 DUP2 MSTORE PUSH1 0x20 ADD PUSH0 KECCAK256 PUSH1 0x40 MLOAD DUP1 PUSH2 0x100 ADD PUSH1 0x40 MSTORE SWAP1 DUP2 PUSH0 DUP3 ADD SLOAD DUP2 MSTORE PUSH1 0x20 ADD PUSH1 0x1 DUP3 ADD DUP1 SLOAD PUSH2 0xEEA SWAP1 PUSH2 0x2AD8 JUMP JUMPDEST DUP1 PUSH1 0x1F ADD PUSH1 0x20 DUP1 SWAP2 DIV MUL PUSH1 0x20 ADD PUSH1 0x40 MLOAD SWAP1 DUP2 ADD PUSH1 0x40 MSTORE DUP1 SWAP3 SWAP2 SWAP1 DUP2 DUP2 MSTORE PUSH1 0x20 ADD DUP3 DUP1 SLOAD PUSH2 0xF16 SWAP1 PUSH2 0x2AD8 JUMP JUMPDEST DUP1 ISZERO PUSH2 0xF61 JUMPI DUP1 PUSH1 0x1F LT PUSH2 0xF38 JUMPI PUSH2 0x100 DUP1 DUP4 SLOAD DIV MUL DUP4 MSTORE SWAP2 PUSH1 0x20 ADD SWAP2 PUSH2 0xF61 JUMP JUMPDEST DUP3 ADD SWAP2 SWAP1 PUSH0 MSTORE PUSH1 0x20 PUSH0 KECCAK256 SWAP1 JUMPDEST DUP2 SLOAD DUP2 MSTORE SWAP1 PUSH1 0x1 ADD SWAP1 PUSH1 0x20 ADD DUP1 DUP4 GT PUSH2 0xF44 JUMPI DUP3 SWAP1 SUB PUSH1 0x1F AND DUP3 ADD SWAP2 JUMPDEST POP POP POP POP POP DUP2 MSTORE PUSH1 0x20 ADD PUSH1 0x2 DUP3 ADD DUP1 SLOAD PUSH2 0xF7A SWAP1 PUSH2 0x2AD8 JUMP JUMPDEST DUP1 PUSH1 0x1F ADD PUSH1 0x20 DUP1 SWAP2 DIV MUL PUSH1 0x20 ADD PUSH1 0x40 MLOAD SWAP1 DUP2 ADD PUSH1 0x40 MSTORE DUP1 SWAP3 SWAP2 SWAP1 DUP2 DUP2 MSTORE PUSH1 0x20 ADD DUP3 DUP1 SLOAD PUSH2 0xFA6 SWAP1 PUSH2 0x2AD8 JUMP JUMPDEST DUP1 ISZERO PUSH2 0xFF1 JUMPI DUP1 PUSH1 0x1F LT PUSH2 0xFC8 JUMPI PUSH2 0x100 DUP1 DUP4 SLOAD DIV MUL DUP4 MSTORE SWAP2 PUSH1 0x20 ADD SWAP2 PUSH2 0xFF1 JUMP JUMPDEST DUP3 ADD SWAP2 SWAP1 PUSH0 MSTORE PUSH1 0x20 PUSH0 KECCAK256 SWAP1 JUMPDEST DUP2 SLOAD DUP2 MSTORE SWAP1 PUSH1 0x1 ADD SWAP1 PUSH1 0x20 ADD DUP1 DUP4 GT PUSH2 0xFD4 JUMPI DUP3 SWAP1 SUB PUSH1 0x1F AND DUP3 ADD SWAP2 JUMPDEST POP POP POP POP POP DUP2 MSTORE PUSH1 0x20 ADD PUSH1 0x3 DUP3 ADD DUP1 SLOAD PUSH2 0x100A SWAP1 PUSH2 0x2AD8 JUMP JUMPDEST DUP1 PUSH1 0x1F ADD PUSH1 0x20 DUP1 SWAP2 DIV MUL PUSH1 0x20 ADD PUSH1 0x40 MLOAD SWAP1 DUP2 ADD PUSH1 0x40 MSTORE DUP1 SWAP3 SWAP2 SWAP1 DUP2 DUP2 MSTORE PUSH1 0x20 ADD DUP3 DUP1 SLOAD PUSH2 0x1036 SWAP1 PUSH2 0x2AD8 JUMP JUMPDEST DUP1 ISZERO PUSH2 0x1081 JUMPI DUP1 PUSH1 0x1F LT PUSH2 0x1058 JUMPI PUSH2 0x100 DUP1 DUP4 SLOAD DIV MUL DUP4 MSTORE SWAP2 PUSH1 0x20 ADD SWAP2 PUSH2 0x1081 JUMP JUMPDEST DUP3 ADD SWAP2 SWAP1 PUSH0 MSTORE PUSH1 0x20 PUSH0 KECCAK256 SWAP1 JUMPDEST DUP2 SLOAD DUP2 MSTORE SWAP1 PUSH1 0x1 ADD SWAP1 PUSH1 0x20 ADD DUP1 DUP4 GT PUSH2 0x1064 JUMPI DUP3 SWAP1 SUB PUSH1 0x1F AND DUP3 ADD SWAP2 JUMPDEST POP POP POP POP POP DUP2 MSTORE PUSH1 0x20 ADD PUSH1 0x4 DUP3 ADD SLOAD DUP2 MSTORE PUSH1 0x20 ADD PUSH1 0x5 DUP3 ADD PUSH0 SWAP1 SLOAD SWAP1 PUSH2 0x100 EXP SWAP1 DIV PUSH20 0xFFFFFFFFFFFFFFFFFFFFFFFFFFFFFFFFFFFFFFFF AND PUSH20 0xFFFFFFFFFFFFFFFFFFFFFFFFFFFFFFFFFFFFFFFF AND PUSH20 0xFFFFFFFFFFFFFFFFFFFFFFFFFFFFFFFFFFFFFFFF AND DUP2 MSTORE PUSH1 0x20 ADD PUSH1 0x5 DUP3 ADD PUSH1 0x14 SWAP1 SLOAD SWAP1 PUSH2 0x100 EXP SWAP1 DIV PUSH1 0xFF AND PUSH1 0x1 DUP2 GT ISZERO PUSH2 0x110E JUMPI PUSH2 0x110D PUSH2 0x1F69 JUMP JUMPDEST JUMPDEST PUSH1 0x1 DUP2 GT ISZERO PUSH2 0x1120 JUMPI PUSH2 0x111F PUSH2 0x1F69 JUMP JUMPDEST JUMPDEST DUP2 MSTORE PUSH1 0x20 ADD PUSH1 0x5 DUP3 ADD PUSH1 0x15 SWAP1 SLOAD SWAP1 PUSH2 0x100 EXP SWAP1 DIV PUSH1 0xFF AND ISZERO ISZERO ISZERO ISZERO DUP2 MSTORE POP POP SWAP1 POP DUP1 PUSH1 0x40 ADD MLOAD DUP9 DUP4 DUP2 MLOAD DUP2 LT PUSH2 0x1159 JUMPI PUSH2 0x1158 PUSH2 0x2BC0 JUMP JUMPDEST JUMPDEST PUSH1 0x20 MUL PUSH1 0x20 ADD ADD DUP2 SWAP1 MSTORE POP DUP1 PUSH1 0x60 ADD MLOAD DUP8 DUP4 DUP2 MLOAD DUP2 LT PUSH2 0x117C JUMPI PUSH2 0x117B PUSH2 0x2BC0 JUMP JUMPDEST JUMPDEST PUSH1 0x20 MUL PUSH1 0x20 ADD ADD DUP2 SWAP1 MSTORE POP DUP1 PUSH1 0x80 ADD MLOAD DUP7 DUP4 DUP2 MLOAD DUP2 LT PUSH2 0x119F JUMPI PUSH2 0x119E PUSH2 0x2BC0 JUMP JUMPDEST JUMPDEST PUSH1 0x20 MUL PUSH1 0x20 ADD ADD DUP2 DUP2 MSTORE POP POP DUP1 PUSH1 0xA0 ADD MLOAD DUP6 DUP4 DUP2 MLOAD DUP2 LT PUSH2 0x11C3 JUMPI PUSH2 0x11C2 PUSH2 0x2BC0 JUMP JUMPDEST JUMPDEST PUSH1 0x20 MUL PUSH1 0x20 ADD ADD SWAP1 PUSH20 0xFFFFFFFFFFFFFFFFFFFFFFFFFFFFFFFFFFFFFFFF AND SWAP1 DUP2 PUSH20 0xFFFFFFFFFFFFFFFFFFFFFFFFFFFFFFFFFFFFFFFF AND DUP2 MSTORE POP POP DUP1 PUSH1 0xC0 ADD MLOAD DUP5 DUP4 DUP2 MLOAD DUP2 LT PUSH2 0x1215 JUMPI PUSH2 0x1214 PUSH2 0x2BC0 JUMP JUMPDEST JUMPDEST PUSH1 0x20 MUL PUSH1 0x20 ADD ADD SWAP1 PUSH1 0x1 DUP2 GT ISZERO PUSH2 0x122F JUMPI PUSH2 0x122E PUSH2 0x1F69 JUMP JUMPDEST JUMPDEST SWAP1 DUP2 PUSH1 0x1 DUP2 GT ISZERO PUSH2 0x1243 JUMPI PUSH2 0x1242 PUSH2 0x1F69 JUMP JUMPDEST JUMPDEST DUP2 MSTORE POP POP POP DUP1 DUP1 PUSH1 0x1 ADD SWAP2 POP POP PUSH2 0xE91 JUMP JUMPDEST POP DUP1 SWAP7 POP POP SWAP2 SWAP4 SWAP6 POP SWAP2 SWAP4 SWAP6 JUMP JUMPDEST DUP2 PUSH0 DUP1 DUP3 DUP2 MSTORE PUSH1 0x20 ADD SWAP1 DUP2 MSTORE PUSH1 0x20 ADD PUSH0 KECCAK256 PUSH1 0x5 ADD PUSH1 0x15 SWAP1 SLOAD SWAP1 PUSH2 0x100 EXP SWAP1 DIV PUSH1 0xFF AND PUSH2 0x12C4 JUMPI PUSH1 0x40 MLOAD PUSH32 0x8C379A000000000000000000000000000000000000000000000000000000000 DUP2 MSTORE PUSH1 0x4 ADD PUSH2 0x12BB SWAP1 PUSH2 0x2A8D JUMP JUMPDEST PUSH1 0x40 MLOAD DUP1 SWAP2 SUB SWAP1 REVERT JUMPDEST DUP3 PUSH0 PUSH1 0x1 DUP2 GT ISZERO PUSH2 0x12D8 JUMPI PUSH2 0x12D7 PUSH2 0x1F69 JUMP JUMPDEST JUMPDEST PUSH0 DUP1 DUP4 DUP2 MSTORE PUSH1 0x20 ADD SWAP1 DUP2 MSTORE PUSH1 0x20 ADD PUSH0 KECCAK256 PUSH1 0x5 ADD PUSH1 0x14 SWAP1 SLOAD SWAP1 PUSH2 0x100 EXP SWAP1 DIV PUSH1 0xFF AND PUSH1 0x1 DUP2 GT ISZERO PUSH2 0x130B JUMPI PUSH2 0x130A PUSH2 0x1F69 JUMP JUMPDEST JUMPDEST EQ PUSH2 0x134B JUMPI PUSH1 0x40 MLOAD PUSH32 0x8C379A000000000000000000000000000000000000000000000000000000000 DUP2 MSTORE PUSH1 0x4 ADD PUSH2 0x1342 SWAP1 PUSH2 0x2DA1 JUMP JUMPDEST PUSH1 0x40 MLOAD DUP1 SWAP2 SUB SWAP1 REVERT JUMPDEST PUSH0 DUP4 MLOAD GT PUSH2 0x138E JUMPI PUSH1 0x40 MLOAD PUSH32 0x8C379A000000000000000000000000000000000000000000000000000000000 DUP2 MSTORE PUSH1 0x4 ADD PUSH2 0x1385 SWAP1 PUSH2 0x2E2F JUMP JUMPDEST PUSH1 0x40 MLOAD DUP1 SWAP2 SUB SWAP1 REVERT JUMPDEST PUSH0 DUP5 TIMESTAMP CALLER DUP7 PUSH1 0x40 MLOAD PUSH1 0x20 ADD PUSH2 0x13A6 SWAP5 SWAP4 SWAP3 SWAP2 SWAP1 PUSH2 0x2ED2 JUMP JUMPDEST PUSH1 0x40 MLOAD PUSH1 0x20 DUP2 DUP4 SUB SUB DUP2 MSTORE SWAP1 PUSH1 0x40 MSTORE DUP1 MLOAD SWAP1 PUSH1 0x20 ADD KECCAK256 SWAP1 POP PUSH0 PUSH1 0x40 MLOAD DUP1 PUSH1 0xA0 ADD PUSH1 0x40 MSTORE DUP1 DUP4 DUP2 MSTORE PUSH1 0x20 ADD DUP7 DUP2 MSTORE PUSH1 0x20 ADD TIMESTAMP DUP2 MSTORE PUSH1 0x20 ADD CALLER PUSH20 0xFFFFFFFFFFFFFFFFFFFFFFFFFFFFFFFFFFFFFFFF AND DUP2 MSTORE PUSH1 0x20 ADD PUSH0 PUSH1 0x1 DUP2 GT ISZERO PUSH2 0x140B JUMPI PUSH2 0x140A PUSH2 0x1F69 JUMP JUMPDEST JUMPDEST DUP2 MSTORE POP SWAP1 POP PUSH1 0x1 PUSH0 DUP8 DUP2 MSTORE PUSH1 0x20 ADD SWAP1 DUP2 MSTORE PUSH1 0x20 ADD PUSH0 KECCAK256 DUP2 SWAP1 DUP1 PUSH1 0x1 DUP2 SLOAD ADD DUP1 DUP3 SSTORE DUP1 SWAP2 POP POP PUSH1 0x1 SWAP1 SUB SWAP1 PUSH0 MSTORE PUSH1 0x20 PUSH0 KECCAK256 SWAP1 PUSH1 0x4 MUL ADD PUSH0 SWAP1 SWAP2 SWAP1 SWAP2 SWAP1 SWAP2 POP PUSH0 DUP3 ADD MLOAD DUP2 PUSH0 ADD SSTORE PUSH1 0x20 DUP3 ADD MLOAD DUP2 PUSH1 0x1 ADD SWAP1 DUP2 PUSH2 0x1465 SWAP2 SWAP1 PUSH2 0x30B8 JUMP JUMPDEST POP PUSH1 0x40 DUP3 ADD MLOAD DUP2 PUSH1 0x2 ADD SSTORE PUSH1 0x60 DUP3 ADD MLOAD DUP2 PUSH1 0x3 ADD PUSH0 PUSH2 0x100 EXP DUP2 SLOAD DUP2 PUSH20 0xFFFFFFFFFFFFFFFFFFFFFFFFFFFFFFFFFFFFFFFF MUL NOT AND SWAP1 DUP4 PUSH20 0xFFFFFFFFFFFFFFFFFFFFFFFFFFFFFFFFFFFFFFFF AND MUL OR SWAP1 SSTORE POP PUSH1 0x80 DUP3 ADD MLOAD DUP2 PUSH1 0x3 ADD PUSH1 0x14 PUSH2 0x100 EXP DUP2 SLOAD DUP2 PUSH1 0xFF MUL NOT AND SWAP1 DUP4 PUSH1 0x1 DUP2 GT ISZERO PUSH2 0x14E1 JUMPI PUSH2 0x14E0 PUSH2 0x1F69 JUMP JUMPDEST JUMPDEST MUL OR SWAP1 SSTORE POP POP POP DUP6 PUSH1 0x2 PUSH0 DUP5 DUP2 MSTORE PUSH1 0x20 ADD SWAP1 DUP2 MSTORE PUSH1 0x20 ADD PUSH0 KECCAK256 DUP2 SWAP1 SSTORE POP DUP2 DUP7 PUSH32 0xFC7F09D226B2E852BD3F04F352ADAB8A4E00B078D16E635F5A5102E2AC721FC8 DUP8 TIMESTAMP CALLER PUSH1 0x40 MLOAD PUSH2 0x1533 SWAP4 SWAP3 SWAP2 SWAP1 PUSH2 0x3187 JUMP JUMPDEST PUSH1 0x40 MLOAD DUP1 SWAP2 SUB SWAP1 LOG3 POP POP POP POP POP POP JUMP JUMPDEST PUSH0 DUP1 PUSH1 0x3 DUP4 PUSH1 0x40 MLOAD PUSH2 0x1555 SWAP2 SWAP1 PUSH2 0x2B42 JUMP JUMPDEST SWAP1 DUP2 MSTORE PUSH1 0x20 ADD PUSH1 0x40 MLOAD DUP1 SWAP2 SUB SWAP1 KECCAK256 DUP1 SLOAD SWAP1 POP GT SWAP1 POP SWAP2 SWAP1 POP JUMP JUMPDEST DUP2 PUSH0 DUP1 DUP3 DUP2 MSTORE PUSH1 0x20 ADD SWAP1 DUP2 MSTORE PUSH1 0x20 ADD PUSH0 KECCAK256 PUSH1 0x5 ADD PUSH1 0x15 SWAP1 SLOAD SWAP1 PUSH2 0x100 EXP SWAP1 DIV PUSH1 0xFF AND PUSH2 0x15D0 JUMPI PUSH1 0x40 MLOAD PUSH32 0x8C379A000000000000000000000000000000000000000000000000000000000 DUP2 MSTORE PUSH1 0x4 ADD PUSH2 0x15C7 SWAP1 PUSH2 0x2A8D JUMP JUMPDEST PUSH1 0x40 MLOAD DUP1 SWAP2 SUB SWAP1 REVERT JUMPDEST DUP2 PUSH0 DUP1 DUP6 DUP2 MSTORE PUSH1 0x20 ADD SWAP1 DUP2 MSTORE PUSH1 0x20 ADD PUSH0 KECCAK256 PUSH1 0x5 ADD PUSH1 0x14 PUSH2 0x100 EXP DUP2 SLOAD DUP2 PUSH1 0xFF MUL NOT AND SWAP1 DUP4 PUSH1 0x1 DUP2 GT ISZERO PUSH2 0x1606 JUMPI PUSH2 0x1605 PUSH2 0x1F69 JUMP JUMPDEST JUMPDEST MUL OR SWAP1 SSTORE POP DUP3 PUSH32 0x6B42974450F95B3D498669E78C1D60139454F4E6C64187CFB138C2D7DBF2AA16 DUP4 PUSH1 0x40 MLOAD PUSH2 0x163B SWAP2 SWAP1 PUSH2 0x31C3 JUMP JUMPDEST PUSH1 0x40 MLOAD DUP1 SWAP2 SUB SWAP1 LOG2 POP POP POP JUMP JUMPDEST PUSH1 0x60 DUP2 PUSH0 DUP1 DUP3 DUP2 MSTORE PUSH1 0x20 ADD SWAP1 DUP2 MSTORE PUSH1 0x20 ADD PUSH0 KECCAK256 PUSH1 0x5 ADD PUSH1 0x15 SWAP1 SLOAD SWAP1 PUSH2 0x100 EXP SWAP1 DIV PUSH1 0xFF AND PUSH2 0x16AB JUMPI PUSH1 0x40 MLOAD PUSH32 0x8C379A000000000000000000000000000000000000000000000000000000000 DUP2 MSTORE PUSH1 0x4 ADD PUSH2 0x16A2 SWAP1 PUSH2 0x2A8D JUMP JUMPDEST PUSH1 0x40 MLOAD DUP1 SWAP2 SUB SWAP1 REVERT JUMPDEST PUSH1 0x1 PUSH0 DUP5 DUP2 MSTORE PUSH1 0x20 ADD SWAP1 DUP2 MSTORE PUSH1 0x20 ADD PUSH0 KECCAK256 DUP1 SLOAD DUP1 PUSH1 0x20 MUL PUSH1 0x20 ADD PUSH1 0x40 MLOAD SWAP1 DUP2 ADD PUSH1 0x40 MSTORE DUP1 SWAP3 SWAP2 SWAP1 DUP2 DUP2 MSTORE PUSH1 0x20 ADD PUSH0 SWAP1 JUMPDEST DUP3 DUP3 LT ISZERO PUSH2 0x183E JUMPI DUP4 DUP3 SWAP1 PUSH0 MSTORE PUSH1 0x20 PUSH0 KECCAK256 SWAP1 PUSH1 0x4 MUL ADD PUSH1 0x40 MLOAD DUP1 PUSH1 0xA0 ADD PUSH1 0x40 MSTORE SWAP1 DUP2 PUSH0 DUP3 ADD SLOAD DUP2 MSTORE PUSH1 0x20 ADD PUSH1 0x1 DUP3 ADD DUP1 SLOAD PUSH2 0x1715 SWAP1 PUSH2 0x2AD8 JUMP JUMPDEST DUP1 PUSH1 0x1F ADD PUSH1 0x20 DUP1 SWAP2 DIV MUL PUSH1 0x20 ADD PUSH1 0x40 MLOAD SWAP1 DUP2 ADD PUSH1 0x40 MSTORE DUP1 SWAP3 SWAP2 SWAP1 DUP2 DUP2 MSTORE PUSH1 0x20 ADD DUP3 DUP1 SLOAD PUSH2 0x1741 SWAP1 PUSH2 0x2AD8 JUMP JUMPDEST DUP1 ISZERO PUSH2 0x178C JUMPI DUP1 PUSH1 0x1F LT PUSH2 0x1763 JUMPI PUSH2 0x100 DUP1 DUP4 SLOAD DIV MUL DUP4 MSTORE SWAP2 PUSH1 0x20 ADD SWAP2 PUSH2 0x178C JUMP JUMPDEST DUP3 ADD SWAP2 SWAP1 PUSH0 MSTORE PUSH1 0x20 PUSH0 KECCAK256 SWAP1 JUMPDEST DUP2 SLOAD DUP2 MSTORE SWAP1 PUSH1 0x1 ADD SWAP1 PUSH1 0x20 ADD DUP1 DUP4 GT PUSH2 0x176F JUMPI DUP3 SWAP1 SUB PUSH1 0x1F AND DUP3 ADD SWAP2 JUMPDEST POP POP POP POP POP DUP2 MSTORE PUSH1 0x20 ADD PUSH1 0x2 DUP3 ADD SLOAD DUP2 MSTORE PUSH1 0x20 ADD PUSH1 0x3 DUP3 ADD PUSH0 SWAP1 SLOAD SWAP1 PUSH2 0x100 EXP SWAP1 DIV PUSH20 0xFFFFFFFFFFFFFFFFFFFFFFFFFFFFFFFFFFFFFFFF AND PUSH20 0xFFFFFFFFFFFFFFFFFFFFFFFFFFFFFFFFFFFFFFFF AND PUSH20 0xFFFFFFFFFFFFFFFFFFFFFFFFFFFFFFFFFFFFFFFF AND DUP2 MSTORE PUSH1 0x20 ADD PUSH1 0x3 DUP3 ADD PUSH1 0x14 SWAP1 SLOAD SWAP1 PUSH2 0x100 EXP SWAP1 DIV PUSH1 0xFF AND PUSH1 0x1 DUP2 GT ISZERO PUSH2 0x1819 JUMPI PUSH2 0x1818 PUSH2 0x1F69 JUMP JUMPDEST JUMPDEST PUSH1 0x1 DUP2 GT ISZERO PUSH2 0x182B JUMPI PUSH2 0x182A PUSH2 0x1F69 JUMP JUMPDEST JUMPDEST DUP2 MSTORE POP POP DUP2 MSTORE PUSH1 0x20 ADD SWAP1 PUSH1 0x1 ADD SWAP1 PUSH2 0x16DB JUMP JUMPDEST POP POP POP POP SWAP2 POP POP SWAP2 SWAP1 POP JUMP JUMPDEST PUSH0 DUP5 MLOAD GT PUSH2 0x188D JUMPI PUSH1 0x40 MLOAD PUSH32 0x8C379A000000000000000000000000000000000000000000000000000000000 DUP2 MSTORE PUSH1 0x4 ADD PUSH2 0x1884 SWAP1 PUSH2 0x3226 JUMP JUMPDEST PUSH1 0x40 MLOAD DUP1 SWAP2 SUB SWAP1 REVERT JUMPDEST PUSH0 DUP4 MLOAD GT PUSH2 0x18D0 JUMPI PUSH1 0x40 MLOAD PUSH32 0x8C379A000000000000000000000000000000000000000000000000000000000 DUP2 MSTORE PUSH1 0x4 ADD PUSH2 0x18C7 SWAP1 PUSH2 0x2CAB JUMP JUMPDEST PUSH1 0x40 MLOAD DUP1 SWAP2 SUB SWAP1 REVERT JUMPDEST PUSH0 DUP3 MLOAD GT PUSH2 0x1913 JUMPI PUSH1 0x40 MLOAD PUSH32 0x8C379A000000000000000000000000000000000000000000000000000000000 DUP2 MSTORE PUSH1 0x4 ADD PUSH2 0x190A SWAP1 PUSH2 0x328E JUMP JUMPDEST PUSH1 0x40 MLOAD DUP1 SWAP2 SUB SWAP1 REVERT JUMPDEST PUSH0 DUP2 MLOAD GT PUSH2 0x1956 JUMPI PUSH1 0x40 MLOAD PUSH32 0x8C379A000000000000000000000000000000000000000000000000000000000 DUP2 MSTORE PUSH1 0x4 ADD PUSH2 0x194D SWAP1 PUSH2 0x32F6 JUMP JUMPDEST PUSH1 0x40 MLOAD DUP1 SWAP2 SUB SWAP1 REVERT JUMPDEST PUSH0 PUSH2 0x1960 DUP6 PUSH2 0x1DB7 JUMP JUMPDEST SWAP1 POP PUSH0 DUP1 DUP3 DUP2 MSTORE PUSH1 0x20 ADD SWAP1 DUP2 MSTORE PUSH1 0x20 ADD PUSH0 KECCAK256 PUSH1 0x5 ADD PUSH1 0x15 SWAP1 SLOAD SWAP1 PUSH2 0x100 EXP SWAP1 DIV PUSH1 0xFF AND ISZERO PUSH2 0x19C3 JUMPI PUSH1 0x40 MLOAD PUSH32 0x8C379A000000000000000000000000000000000000000000000000000000000 DUP2 MSTORE PUSH1 0x4 ADD PUSH2 0x19BA SWAP1 PUSH2 0x335E JUMP JUMPDEST PUSH1 0x40 MLOAD DUP1 SWAP2 SUB SWAP1 REVERT JUMPDEST PUSH0 PUSH1 0x40 MLOAD DUP1 PUSH2 0x100 ADD PUSH1 0x40 MSTORE DUP1 DUP4 DUP2 MSTORE PUSH1 0x20 ADD DUP7 DUP2 MSTORE PUSH1 0x20 ADD DUP6 DUP2 MSTORE PUSH1 0x20 ADD DUP5 DUP2 MSTORE PUSH1 0x20 ADD TIMESTAMP DUP2 MSTORE PUSH1 0x20 ADD CALLER PUSH20 0xFFFFFFFFFFFFFFFFFFFFFFFFFFFFFFFFFFFFFFFF AND DUP2 MSTORE PUSH1 0x20 ADD PUSH0 PUSH1 0x1 DUP2 GT ISZERO PUSH2 0x1A1D JUMPI PUSH2 0x1A1C PUSH2 0x1F69 JUMP JUMPDEST JUMPDEST DUP2 MSTORE PUSH1 0x20 ADD PUSH1 0x1 ISZERO ISZERO DUP2 MSTORE POP SWAP1 POP DUP1 PUSH0 DUP1 DUP5 DUP2 MSTORE PUSH1 0x20 ADD SWAP1 DUP2 MSTORE PUSH1 0x20 ADD PUSH0 KECCAK256 PUSH0 DUP3 ADD MLOAD DUP2 PUSH0 ADD SSTORE PUSH1 0x20 DUP3 ADD MLOAD DUP2 PUSH1 0x1 ADD SWAP1 DUP2 PUSH2 0x1A59 SWAP2 SWAP1 PUSH2 0x30B8 JUMP JUMPDEST POP PUSH1 0x40 DUP3 ADD MLOAD DUP2 PUSH1 0x2 ADD SWAP1 DUP2 PUSH2 0x1A6F SWAP2 SWAP1 PUSH2 0x30B8 JUMP JUMPDEST POP PUSH1 0x60 DUP3 ADD MLOAD DUP2 PUSH1 0x3 ADD SWAP1 DUP2 PUSH2 0x1A85 SWAP2 SWAP1 PUSH2 0x30B8 JUMP JUMPDEST POP PUSH1 0x80 DUP3 ADD MLOAD DUP2 PUSH1 0x4 ADD SSTORE PUSH1 0xA0 DUP3 ADD MLOAD DUP2 PUSH1 0x5 ADD PUSH0 PUSH2 0x100 EXP DUP2 SLOAD DUP2 PUSH20 0xFFFFFFFFFFFFFFFFFFFFFFFFFFFFFFFFFFFFFFFF MUL NOT AND SWAP1 DUP4 PUSH20 0xFFFFFFFFFFFFFFFFFFFFFFFFFFFFFFFFFFFFFFFF AND MUL OR SWAP1 SSTORE POP PUSH1 0xC0 DUP3 ADD MLOAD DUP2 PUSH1 0x5 ADD PUSH1 0x14 PUSH2 0x100 EXP DUP2 SLOAD DUP2 PUSH1 0xFF MUL NOT AND SWAP1 DUP4 PUSH1 0x1 DUP2 GT ISZERO PUSH2 0x1B01 JUMPI PUSH2 0x1B00 PUSH2 0x1F69 JUMP JUMPDEST JUMPDEST MUL OR SWAP1 SSTORE POP PUSH1 0xE0 DUP3 ADD MLOAD DUP2 PUSH1 0x5 ADD PUSH1 0x15 PUSH2 0x100 EXP DUP2 SLOAD DUP2 PUSH1 0xFF MUL NOT AND SWAP1 DUP4 ISZERO ISZERO MUL OR SWAP1 SSTORE POP SWAP1 POP POP PUSH1 0x4 DUP3 SWAP1 DUP1 PUSH1 0x1 DUP2 SLOAD ADD DUP1 DUP3 SSTORE DUP1 SWAP2 POP POP PUSH1 0x1 SWAP1 SUB SWAP1 PUSH0 MSTORE PUSH1 0x20 PUSH0 KECCAK256 ADD PUSH0 SWAP1 SWAP2 SWAP1 SWAP2 SWAP1 SWAP2 POP SSTORE PUSH1 0x3 DUP6 PUSH1 0x40 MLOAD PUSH2 0x1B5F SWAP2 SWAP1 PUSH2 0x2B42 JUMP JUMPDEST SWAP1 DUP2 MSTORE PUSH1 0x20 ADD PUSH1 0x40 MLOAD DUP1 SWAP2 SUB SWAP1 KECCAK256 DUP3 SWAP1 DUP1 PUSH1 0x1 DUP2 SLOAD ADD DUP1 DUP3 SSTORE DUP1 SWAP2 POP POP PUSH1 0x1 SWAP1 SUB SWAP1 PUSH0 MSTORE PUSH1 0x20 PUSH0 KECCAK256 ADD PUSH0 SWAP1 SWAP2 SWAP1 SWAP2 SWAP1 SWAP2 POP SSTORE PUSH0 DUP3 TIMESTAMP PUSH1 0x40 MLOAD PUSH1 0x20 ADD PUSH2 0x1BA5 SWAP3 SWAP2 SWAP1 PUSH2 0x33C6 JUMP JUMPDEST PUSH1 0x40 MLOAD PUSH1 0x20 DUP2 DUP4 SUB SUB DUP2 MSTORE SWAP1 PUSH1 0x40 MSTORE DUP1 MLOAD SWAP1 PUSH1 0x20 ADD KECCAK256 SWAP1 POP PUSH0 PUSH1 0x40 MLOAD DUP1 PUSH1 0xA0 ADD PUSH1 0x40 MSTORE DUP1 DUP4 DUP2 MSTORE PUSH1 0x20 ADD PUSH1 0x40 MLOAD DUP1 PUSH1 0x40 ADD PUSH1 0x40 MSTORE DUP1 PUSH1 0x16 DUP2 MSTORE PUSH1 0x20 ADD PUSH32 0x50726F6475637420696E697469616C697A6174696F6E00000000000000000000 DUP2 MSTORE POP DUP2 MSTORE PUSH1 0x20 ADD TIMESTAMP DUP2 MSTORE PUSH1 0x20 ADD CALLER PUSH20 0xFFFFFFFFFFFFFFFFFFFFFFFFFFFFFFFFFFFFFFFF AND DUP2 MSTORE PUSH1 0x20 ADD PUSH0 PUSH1 0x1 DUP2 GT ISZERO PUSH2 0x1C3F JUMPI PUSH2 0x1C3E PUSH2 0x1F69 JUMP JUMPDEST JUMPDEST DUP2 MSTORE POP SWAP1 POP PUSH1 0x1 PUSH0 DUP6 DUP2 MSTORE PUSH1 0x20 ADD SWAP1 DUP2 MSTORE PUSH1 0x20 ADD PUSH0 KECCAK256 DUP2 SWAP1 DUP1 PUSH1 0x1 DUP2 SLOAD ADD DUP1 DUP3 SSTORE DUP1 SWAP2 POP POP PUSH1 0x1 SWAP1 SUB SWAP1 PUSH0 MSTORE PUSH1 0x20 PUSH0 KECCAK256 SWAP1 PUSH1 0x4 MUL ADD PUSH0 SWAP1 SWAP2 SWAP1 SWAP2 SWAP1 SWAP2 POP PUSH0 DUP3 ADD MLOAD DUP2 PUSH0 ADD SSTORE PUSH1 0x20 DUP3 ADD MLOAD DUP2 PUSH1 0x1 ADD SWAP1 DUP2 PUSH2 0x1C99 SWAP2 SWAP1 PUSH2 0x30B8 JUMP JUMPDEST POP PUSH1 0x40 DUP3 ADD MLOAD DUP2 PUSH1 0x2 ADD SSTORE PUSH1 0x60 DUP3 ADD MLOAD DUP2 PUSH1 0x3 ADD PUSH0 PUSH2 0x100 EXP DUP2 SLOAD DUP2 PUSH20 0xFFFFFFFFFFFFFFFFFFFFFFFFFFFFFFFFFFFFFFFF MUL NOT AND SWAP1 DUP4 PUSH20 0xFFFFFFFFFFFFFFFFFFFFFFFFFFFFFFFFFFFFFFFF AND MUL OR SWAP1 SSTORE POP PUSH1 0x80 DUP3 ADD MLOAD DUP2 PUSH1 0x3 ADD PUSH1 0x14 PUSH2 0x100 EXP DUP2 SLOAD DUP2 PUSH1 0xFF MUL NOT AND SWAP1 DUP4 PUSH1 0x1 DUP2 GT ISZERO PUSH2 0x1D15 JUMPI PUSH2 0x1D14 PUSH2 0x1F69 JUMP JUMPDEST JUMPDEST MUL OR SWAP1 SSTORE POP POP POP DUP4 PUSH1 0x2 PUSH0 DUP5 DUP2 MSTORE PUSH1 0x20 ADD SWAP1 DUP2 MSTORE PUSH1 0x20 ADD PUSH0 KECCAK256 DUP2 SWAP1 SSTORE POP DUP4 PUSH32 0x5D95F8B95DF6D455E3731C3DDEA53D6B339315DA38D66461C61654D2F72563F DUP9 DUP9 DUP9 TIMESTAMP CALLER PUSH1 0x40 MLOAD PUSH2 0x1D6A SWAP6 SWAP5 SWAP4 SWAP3 SWAP2 SWAP1 PUSH2 0x33FC JUMP JUMPDEST PUSH1 0x40 MLOAD DUP1 SWAP2 SUB SWAP1 LOG2 DUP2 DUP5 PUSH32 0xFC7F09D226B2E852BD3F04F352ADAB8A4E00B078D16E635F5A5102E2AC721FC8 TIMESTAMP CALLER PUSH1 0x40 MLOAD PUSH2 0x1DA5 SWAP3 SWAP2 SWAP1 PUSH2 0x34AC JUMP JUMPDEST PUSH1 0x40 MLOAD DUP1 SWAP2 SUB SWAP1 LOG3 POP POP POP POP POP POP POP POP JUMP JUMPDEST PUSH0 DUP1 DUP3 SWAP1 POP PUSH0 DUP2 MLOAD SUB PUSH2 0x1DCF JUMPI PUSH0 DUP1 SHL SWAP2 POP POP PUSH2 0x1DD8 JUMP JUMPDEST PUSH1 0x20 DUP4 ADD MLOAD SWAP2 POP POP JUMPDEST SWAP2 SWAP1 POP JUMP JUMPDEST PUSH1 0x40 MLOAD DUP1 PUSH1 0xA0 ADD PUSH1 0x40 MSTORE DUP1 PUSH0 DUP1 NOT AND DUP2 MSTORE PUSH1 0x20 ADD PUSH1 0x60 DUP2 MSTORE PUSH1 0x20 ADD PUSH0 DUP2 MSTORE PUSH1 0x20 ADD PUSH0 PUSH20 0xFFFFFFFFFFFFFFFFFFFFFFFFFFFFFFFFFFFFFFFF AND DUP2 MSTORE PUSH1 0x20 ADD PUSH0 PUSH1 0x1 DUP2 GT ISZERO PUSH2 0x1E2D JUMPI PUSH2 0x1E2C PUSH2 0x1F69 JUMP JUMPDEST JUMPDEST DUP2 MSTORE POP SWAP1 JUMP JUMPDEST PUSH0 PUSH1 0x40 MLOAD SWAP1 POP SWAP1 JUMP JUMPDEST PUSH0 DUP1 REVERT JUMPDEST PUSH0 DUP1 REVERT JUMPDEST PUSH0 DUP2 SWAP1 POP SWAP2 SWAP1 POP JUMP JUMPDEST PUSH2 0x1E56 DUP2 PUSH2 0x1E44 JUMP JUMPDEST DUP2 EQ PUSH2 0x1E60 JUMPI PUSH0 DUP1 REVERT JUMPDEST POP JUMP JUMPDEST PUSH0 DUP2 CALLDATALOAD SWAP1 POP PUSH2 0x1E71 DUP2 PUSH2 0x1E4D JUMP JUMPDEST SWAP3 SWAP2 POP POP JUMP JUMPDEST PUSH0 PUSH1 0x20 DUP3 DUP5 SUB SLT ISZERO PUSH2 0x1E8C JUMPI PUSH2 0x1E8B PUSH2 0x1E3C JUMP JUMPDEST JUMPDEST PUSH0 PUSH2 0x1E99 DUP5 DUP3 DUP6 ADD PUSH2 0x1E63 JUMP JUMPDEST SWAP2 POP POP SWAP3 SWAP2 POP POP JUMP JUMPDEST PUSH0 DUP2 MLOAD SWAP1 POP SWAP2 SWAP1 POP JUMP JUMPDEST PUSH0 DUP3 DUP3 MSTORE PUSH1 0x20 DUP3 ADD SWAP1 POP SWAP3 SWAP2 POP POP JUMP JUMPDEST DUP3 DUP2 DUP4 MCOPY PUSH0 DUP4 DUP4 ADD MSTORE POP POP POP JUMP JUMPDEST PUSH0 PUSH1 0x1F NOT PUSH1 0x1F DUP4 ADD AND SWAP1 POP SWAP2 SWAP1 POP JUMP JUMPDEST PUSH0 PUSH2 0x1EE4 DUP3 PUSH2 0x1EA2 JUMP JUMPDEST PUSH2 0x1EEE DUP2 DUP6 PUSH2 0x1EAC JUMP JUMPDEST SWAP4 POP PUSH2 0x1EFE DUP2 DUP6 PUSH1 0x20 DUP7 ADD PUSH2 0x1EBC JUMP JUMPDEST PUSH2 0x1F07 DUP2 PUSH2 0x1ECA JUMP JUMPDEST DUP5 ADD SWAP2 POP POP SWAP3 SWAP2 POP POP JUMP JUMPDEST PUSH0 DUP2 SWAP1 POP SWAP2 SWAP1 POP JUMP JUMPDEST PUSH2 0x1F24 DUP2 PUSH2 0x1F12 JUMP JUMPDEST DUP3 MSTORE POP POP JUMP JUMPDEST PUSH0 PUSH20 0xFFFFFFFFFFFFFFFFFFFFFFFFFFFFFFFFFFFFFFFF DUP3 AND SWAP1 POP SWAP2 SWAP1 POP JUMP JUMPDEST PUSH0 PUSH2 0x1F53 DUP3 PUSH2 0x1F2A JUMP JUMPDEST SWAP1 POP SWAP2 SWAP1 POP JUMP JUMPDEST PUSH2 0x1F63 DUP2 PUSH2 0x1F49 JUMP JUMPDEST DUP3 MSTORE POP POP JUMP JUMPDEST PUSH32 0x4E487B7100000000000000000000000000000000000000000000000000000000 PUSH0 MSTORE PUSH1 0x21 PUSH1 0x4 MSTORE PUSH1 0x24 PUSH0 REVERT JUMPDEST PUSH1 0x2 DUP2 LT PUSH2 0x1FA7 JUMPI PUSH2 0x1FA6 PUSH2 0x1F69 JUMP JUMPDEST JUMPDEST POP JUMP JUMPDEST PUSH0 DUP2 SWAP1 POP PUSH2 0x1FB7 DUP3 PUSH2 0x1F96 JUMP JUMPDEST SWAP2 SWAP1 POP JUMP JUMPDEST PUSH0 PUSH2 0x1FC6 DUP3 PUSH2 0x1FAA JUMP JUMPDEST SWAP1 POP SWAP2 SWAP1 POP JUMP JUMPDEST PUSH2 0x1FD6 DUP2 PUSH2 0x1FBC JUMP JUMPDEST DUP3 MSTORE POP POP JUMP JUMPDEST PUSH0 PUSH1 0xC0 DUP3 ADD SWAP1 POP DUP2 DUP2 SUB PUSH0 DUP4 ADD MSTORE PUSH2 0x1FF4 DUP2 DUP10 PUSH2 0x1EDA JUMP JUMPDEST SWAP1 POP DUP2 DUP2 SUB PUSH1 0x20 DUP4 ADD MSTORE PUSH2 0x2008 DUP2 DUP9 PUSH2 0x1EDA JUMP JUMPDEST SWAP1 POP DUP2 DUP2 SUB PUSH1 0x40 DUP4 ADD MSTORE PUSH2 0x201C DUP2 DUP8 PUSH2 0x1EDA JUMP JUMPDEST SWAP1 POP PUSH2 0x202B PUSH1 0x60 DUP4 ADD DUP7 PUSH2 0x1F1B JUMP JUMPDEST PUSH2 0x2038 PUSH1 0x80 DUP4 ADD DUP6 PUSH2 0x1F5A JUMP JUMPDEST PUSH2 0x2045 PUSH1 0xA0 DUP4 ADD DUP5 PUSH2 0x1FCD JUMP JUMPDEST SWAP8 SWAP7 POP POP POP POP POP POP POP JUMP JUMPDEST PUSH0 DUP1 REVERT JUMPDEST PUSH0 DUP1 REVERT JUMPDEST PUSH32 0x4E487B7100000000000000000000000000000000000000000000000000000000 PUSH0 MSTORE PUSH1 0x41 PUSH1 0x4 MSTORE PUSH1 0x24 PUSH0 REVERT JUMPDEST PUSH2 0x208E DUP3 PUSH2 0x1ECA JUMP JUMPDEST DUP2 ADD DUP2 DUP2 LT PUSH8 0xFFFFFFFFFFFFFFFF DUP3 GT OR ISZERO PUSH2 0x20AD JUMPI PUSH2 0x20AC PUSH2 0x2058 JUMP JUMPDEST JUMPDEST DUP1 PUSH1 0x40 MSTORE POP POP POP JUMP JUMPDEST PUSH0 PUSH2 0x20BF PUSH2 0x1E33 JUMP JUMPDEST SWAP1 POP PUSH2 0x20CB DUP3 DUP3 PUSH2 0x2085 JUMP JUMPDEST SWAP2 SWAP1 POP JUMP JUMPDEST PUSH0 PUSH8 0xFFFFFFFFFFFFFFFF DUP3 GT ISZERO PUSH2 0x20EA JUMPI PUSH2 0x20E9 PUSH2 0x2058 JUMP JUMPDEST JUMPDEST PUSH2 0x20F3 DUP3 PUSH2 0x1ECA JUMP JUMPDEST SWAP1 POP PUSH1 0x20 DUP2 ADD SWAP1 POP SWAP2 SWAP1 POP JUMP JUMPDEST DUP3 DUP2 DUP4 CALLDATACOPY PUSH0 DUP4 DUP4 ADD MSTORE POP POP POP JUMP JUMPDEST PUSH0 PUSH2 0x2120 PUSH2 0x211B DUP5 PUSH2 0x20D0 JUMP JUMPDEST PUSH2 0x20B6 JUMP JUMPDEST SWAP1 POP DUP3 DUP2 MSTORE PUSH1 0x20 DUP2 ADD DUP5 DUP5 DUP5 ADD GT ISZERO PUSH2 0x213C JUMPI PUSH2 0x213B PUSH2 0x2054 JUMP JUMPDEST JUMPDEST PUSH2 0x2147 DUP5 DUP3 DUP6 PUSH2 0x2100 JUMP JUMPDEST POP SWAP4 SWAP3 POP POP POP JUMP JUMPDEST PUSH0 DUP3 PUSH1 0x1F DUP4 ADD SLT PUSH2 0x2163 JUMPI PUSH2 0x2162 PUSH2 0x2050 JUMP JUMPDEST JUMPDEST DUP2 CALLDATALOAD PUSH2 0x2173 DUP5 DUP3 PUSH1 0x20 DUP7 ADD PUSH2 0x210E JUMP JUMPDEST SWAP2 POP POP SWAP3 SWAP2 POP POP JUMP JUMPDEST PUSH0 PUSH1 0x20 DUP3 DUP5 SUB SLT ISZERO PUSH2 0x2191 JUMPI PUSH2 0x2190 PUSH2 0x1E3C JUMP JUMPDEST JUMPDEST PUSH0 DUP3 ADD CALLDATALOAD PUSH8 0xFFFFFFFFFFFFFFFF DUP2 GT ISZERO PUSH2 0x21AE JUMPI PUSH2 0x21AD PUSH2 0x1E40 JUMP JUMPDEST JUMPDEST PUSH2 0x21BA DUP5 DUP3 DUP6 ADD PUSH2 0x214F JUMP JUMPDEST SWAP2 POP POP SWAP3 SWAP2 POP POP JUMP JUMPDEST PUSH0 PUSH1 0x20 DUP3 ADD SWAP1 POP PUSH2 0x21D6 PUSH0 DUP4 ADD DUP5 PUSH2 0x1F1B JUMP JUMPDEST SWAP3 SWAP2 POP POP JUMP JUMPDEST PUSH2 0x21E5 DUP2 PUSH2 0x1E44 JUMP JUMPDEST DUP3 MSTORE POP POP JUMP JUMPDEST PUSH0 PUSH1 0xA0 DUP3 ADD SWAP1 POP PUSH2 0x21FE PUSH0 DUP4 ADD DUP9 PUSH2 0x21DC JUMP JUMPDEST DUP2 DUP2 SUB PUSH1 0x20 DUP4 ADD MSTORE PUSH2 0x2210 DUP2 DUP8 PUSH2 0x1EDA JUMP JUMPDEST SWAP1 POP PUSH2 0x221F PUSH1 0x40 DUP4 ADD DUP7 PUSH2 0x1F1B JUMP JUMPDEST PUSH2 0x222C PUSH1 0x60 DUP4 ADD DUP6 PUSH2 0x1F5A JUMP JUMPDEST PUSH2 0x2239 PUSH1 0x80 DUP4 ADD DUP5 PUSH2 0x1FCD JUMP JUMPDEST SWAP7 SWAP6 POP POP POP POP POP POP JUMP JUMPDEST PUSH2 0x224C DUP2 PUSH2 0x1F49 JUMP JUMPDEST DUP2 EQ PUSH2 0x2256 JUMPI PUSH0 DUP1 REVERT JUMPDEST POP JUMP JUMPDEST PUSH0 DUP2 CALLDATALOAD SWAP1 POP PUSH2 0x2267 DUP2 PUSH2 0x2243 JUMP JUMPDEST SWAP3 SWAP2 POP POP JUMP JUMPDEST PUSH0 DUP1 PUSH1 0x40 DUP4 DUP6 SUB SLT ISZERO PUSH2 0x2283 JUMPI PUSH2 0x2282 PUSH2 0x1E3C JUMP JUMPDEST JUMPDEST PUSH0 PUSH2 0x2290 DUP6 DUP3 DUP7 ADD PUSH2 0x1E63 JUMP JUMPDEST SWAP3 POP POP PUSH1 0x20 PUSH2 0x22A1 DUP6 DUP3 DUP7 ADD PUSH2 0x2259 JUMP JUMPDEST SWAP2 POP POP SWAP3 POP SWAP3 SWAP1 POP JUMP JUMPDEST PUSH0 DUP2 MLOAD SWAP1 POP SWAP2 SWAP1 POP JUMP JUMPDEST PUSH0 DUP3 DUP3 MSTORE PUSH1 0x20 DUP3 ADD SWAP1 POP SWAP3 SWAP2 POP POP JUMP JUMPDEST PUSH0 DUP2 SWAP1 POP PUSH1 0x20 DUP3 ADD SWAP1 POP SWAP2 SWAP1 POP JUMP JUMPDEST PUSH2 0x22DD DUP2 PUSH2 0x1E44 JUMP JUMPDEST DUP3 MSTORE POP POP JUMP JUMPDEST PUSH0 DUP3 DUP3 MSTORE PUSH1 0x20 DUP3 ADD SWAP1 POP SWAP3 SWAP2 POP POP JUMP JUMPDEST PUSH0 PUSH2 0x22FD DUP3 PUSH2 0x1EA2 JUMP JUMPDEST PUSH2 0x2307 DUP2 DUP6 PUSH2 0x22E3 JUMP JUMPDEST SWAP4 POP PUSH2 0x2317 DUP2 DUP6 PUSH1 0x20 DUP7 ADD PUSH2 0x1EBC JUMP JUMPDEST PUSH2 0x2320 DUP2 PUSH2 0x1ECA JUMP JUMPDEST DUP5 ADD SWAP2 POP POP SWAP3 SWAP2 POP POP JUMP JUMPDEST PUSH2 0x2334 DUP2 PUSH2 0x1F12 JUMP JUMPDEST DUP3 MSTORE POP POP JUMP JUMPDEST PUSH2 0x2343 DUP2 PUSH2 0x1F49 JUMP JUMPDEST DUP3 MSTORE POP POP JUMP JUMPDEST PUSH2 0x2352 DUP2 PUSH2 0x1FBC JUMP JUMPDEST DUP3 MSTORE POP POP JUMP JUMPDEST PUSH0 PUSH1 0xA0 DUP4 ADD PUSH0 DUP4 ADD MLOAD PUSH2 0x236D PUSH0 DUP7 ADD DUP3 PUSH2 0x22D4 JUMP JUMPDEST POP PUSH1 0x20 DUP4 ADD MLOAD DUP5 DUP3 SUB PUSH1 0x20 DUP7 ADD MSTORE PUSH2 0x2385 DUP3 DUP3 PUSH2 0x22F3 JUMP JUMPDEST SWAP2 POP POP PUSH1 0x40 DUP4 ADD MLOAD PUSH2 0x239A PUSH1 0x40 DUP7 ADD DUP3 PUSH2 0x232B JUMP JUMPDEST POP PUSH1 0x60 DUP4 ADD MLOAD PUSH2 0x23AD PUSH1 0x60 DUP7 ADD DUP3 PUSH2 0x233A JUMP JUMPDEST POP PUSH1 0x80 DUP4 ADD MLOAD PUSH2 0x23C0 PUSH1 0x80 DUP7 ADD DUP3 PUSH2 0x2349 JUMP JUMPDEST POP DUP1 SWAP2 POP POP SWAP3 SWAP2 POP POP JUMP JUMPDEST PUSH0 PUSH2 0x23D6 DUP4 DUP4 PUSH2 0x2358 JUMP JUMPDEST SWAP1 POP SWAP3 SWAP2 POP POP JUMP JUMPDEST PUSH0 PUSH1 0x20 DUP3 ADD SWAP1 POP SWAP2 SWAP1 POP JUMP JUMPDEST PUSH0 PUSH2 0x23F4 DUP3 PUSH2 0x22AB JUMP JUMPDEST PUSH2 0x23FE DUP2 DUP6 PUSH2 0x22B5 JUMP JUMPDEST SWAP4 POP DUP4 PUSH1 0x20 DUP3 MUL DUP6 ADD PUSH2 0x2410 DUP6 PUSH2 0x22C5 JUMP JUMPDEST DUP1 PUSH0 JUMPDEST DUP6 DUP2 LT ISZERO PUSH2 0x244B JUMPI DUP5 DUP5 SUB DUP10 MSTORE DUP2 MLOAD PUSH2 0x242C DUP6 DUP3 PUSH2 0x23CB JUMP JUMPDEST SWAP5 POP PUSH2 0x2437 DUP4 PUSH2 0x23DE JUMP JUMPDEST SWAP3 POP PUSH1 0x20 DUP11 ADD SWAP10 POP POP PUSH1 0x1 DUP2 ADD SWAP1 POP PUSH2 0x2413 JUMP JUMPDEST POP DUP3 SWAP8 POP DUP8 SWAP6 POP POP POP POP POP POP SWAP3 SWAP2 POP POP JUMP JUMPDEST PUSH0 PUSH1 0x20 DUP3 ADD SWAP1 POP DUP2 DUP2 SUB PUSH0 DUP4 ADD MSTORE PUSH2 0x2475 DUP2 DUP5 PUSH2 0x23EA JUMP JUMPDEST SWAP1 POP SWAP3 SWAP2 POP POP JUMP JUMPDEST PUSH0 DUP2 MLOAD SWAP1 POP SWAP2 SWAP1 POP JUMP JUMPDEST PUSH0 DUP3 DUP3 MSTORE PUSH1 0x20 DUP3 ADD SWAP1 POP SWAP3 SWAP2 POP POP JUMP JUMPDEST PUSH0 DUP2 SWAP1 POP PUSH1 0x20 DUP3 ADD SWAP1 POP SWAP2 SWAP1 POP JUMP JUMPDEST PUSH0 PUSH2 0x24B1 DUP4 DUP4 PUSH2 0x22D4 JUMP JUMPDEST PUSH1 0x20 DUP4 ADD SWAP1 POP SWAP3 SWAP2 POP POP JUMP JUMPDEST PUSH0 PUSH1 0x20 DUP3 ADD SWAP1 POP SWAP2 SWAP1 POP JUMP JUMPDEST PUSH0 PUSH2 0x24D3 DUP3 PUSH2 0x247D JUMP JUMPDEST PUSH2 0x24DD DUP2 DUP6 PUSH2 0x2487 JUMP JUMPDEST SWAP4 POP PUSH2 0x24E8 DUP4 PUSH2 0x2497 JUMP JUMPDEST DUP1 PUSH0 JUMPDEST DUP4 DUP2 LT ISZERO PUSH2 0x2518 JUMPI DUP2 MLOAD PUSH2 0x24FF DUP9 DUP3 PUSH2 0x24A6 JUMP JUMPDEST SWAP8 POP PUSH2 0x250A DUP4 PUSH2 0x24BD JUMP JUMPDEST SWAP3 POP POP PUSH1 0x1 DUP2 ADD SWAP1 POP PUSH2 0x24EB JUMP JUMPDEST POP DUP6 SWAP4 POP POP POP POP SWAP3 SWAP2 POP POP JUMP JUMPDEST PUSH0 PUSH1 0x20 DUP3 ADD SWAP1 POP DUP2 DUP2 SUB PUSH0 DUP4 ADD MSTORE PUSH2 0x253D DUP2 DUP5 PUSH2 0x24C9 JUMP JUMPDEST SWAP1 POP SWAP3 SWAP2 POP POP JUMP JUMPDEST PUSH0 DUP2 MLOAD SWAP1 POP SWAP2 SWAP1 POP JUMP JUMPDEST PUSH0 DUP3 DUP3 MSTORE PUSH1 0x20 DUP3 ADD SWAP1 POP SWAP3 SWAP2 POP POP JUMP JUMPDEST PUSH0 DUP2 SWAP1 POP PUSH1 0x20 DUP3 ADD SWAP1 POP SWAP2 SWAP1 POP JUMP JUMPDEST PUSH0 PUSH2 0x2579 DUP4 DUP4 PUSH2 0x22F3 JUMP JUMPDEST SWAP1 POP SWAP3 SWAP2 POP POP JUMP JUMPDEST PUSH0 PUSH1 0x20 DUP3 ADD SWAP1 POP SWAP2 SWAP1 POP JUMP JUMPDEST PUSH0 PUSH2 0x2597 DUP3 PUSH2 0x2545 JUMP JUMPDEST PUSH2 0x25A1 DUP2 DUP6 PUSH2 0x254F JUMP JUMPDEST SWAP4 POP DUP4 PUSH1 0x20 DUP3 MUL DUP6 ADD PUSH2 0x25B3 DUP6 PUSH2 0x255F JUMP JUMPDEST DUP1 PUSH0 JUMPDEST DUP6 DUP2 LT ISZERO PUSH2 0x25EE JUMPI DUP5 DUP5 SUB DUP10 MSTORE DUP2 MLOAD PUSH2 0x25CF DUP6 DUP3 PUSH2 0x256E JUMP JUMPDEST SWAP5 POP PUSH2 0x25DA DUP4 PUSH2 0x2581 JUMP JUMPDEST SWAP3 POP PUSH1 0x20 DUP11 ADD SWAP10 POP POP PUSH1 0x1 DUP2 ADD SWAP1 POP PUSH2 0x25B6 JUMP JUMPDEST POP DUP3 SWAP8 POP DUP8 SWAP6 POP POP POP POP POP POP SWAP3 SWAP2 POP POP JUMP JUMPDEST PUSH0 DUP2 MLOAD SWAP1 POP SWAP2 SWAP1 POP JUMP JUMPDEST PUSH0 DUP3 DUP3 MSTORE PUSH1 0x20 DUP3 ADD SWAP1 POP SWAP3 SWAP2 POP POP JUMP JUMPDEST PUSH0 DUP2 SWAP1 POP PUSH1 0x20 DUP3 ADD SWAP1 POP SWAP2 SWAP1 POP JUMP JUMPDEST PUSH0 PUSH2 0x2634 DUP4 DUP4 PUSH2 0x232B JUMP JUMPDEST PUSH1 0x20 DUP4 ADD SWAP1 POP SWAP3 SWAP2 POP POP JUMP JUMPDEST PUSH0 PUSH1 0x20 DUP3 ADD SWAP1 POP SWAP2 SWAP1 POP JUMP JUMPDEST PUSH0 PUSH2 0x2656 DUP3 PUSH2 0x2600 JUMP JUMPDEST PUSH2 0x2660 DUP2 DUP6 PUSH2 0x260A JUMP JUMPDEST SWAP4 POP PUSH2 0x266B DUP4 PUSH2 0x261A JUMP JUMPDEST DUP1 PUSH0 JUMPDEST DUP4 DUP2 LT ISZERO PUSH2 0x269B JUMPI DUP2 MLOAD PUSH2 0x2682 DUP9 DUP3 PUSH2 0x2629 JUMP JUMPDEST SWAP8 POP PUSH2 0x268D DUP4 PUSH2 0x2640 JUMP JUMPDEST SWAP3 POP POP PUSH1 0x1 DUP2 ADD SWAP1 POP PUSH2 0x266E JUMP JUMPDEST POP DUP6 SWAP4 POP POP POP POP SWAP3 SWAP2 POP POP JUMP JUMPDEST PUSH0 DUP2 MLOAD SWAP1 POP SWAP2 SWAP1 POP JUMP JUMPDEST PUSH0 DUP3 DUP3 MSTORE PUSH1 0x20 DUP3 ADD SWAP1 POP SWAP3 SWAP2 POP POP JUMP JUMPDEST PUSH0 DUP2 SWAP1 POP PUSH1 0x20 DUP3 ADD SWAP1 POP SWAP2 SWAP1 POP JUMP JUMPDEST PUSH0 PUSH2 0x26DC DUP4 DUP4 PUSH2 0x233A JUMP JUMPDEST PUSH1 0x20 DUP4 ADD SWAP1 POP SWAP3 SWAP2 POP POP JUMP JUMPDEST PUSH0 PUSH1 0x20 DUP3 ADD SWAP1 POP SWAP2 SWAP1 POP JUMP JUMPDEST PUSH0 PUSH2 0x26FE DUP3 PUSH2 0x26A8 JUMP JUMPDEST PUSH2 0x2708 DUP2 DUP6 PUSH2 0x26B2 JUMP JUMPDEST SWAP4 POP PUSH2 0x2713 DUP4 PUSH2 0x26C2 JUMP JUMPDEST DUP1 PUSH0 JUMPDEST DUP4 DUP2 LT ISZERO PUSH2 0x2743 JUMPI DUP2 MLOAD PUSH2 0x272A DUP9 DUP3 PUSH2 0x26D1 JUMP JUMPDEST SWAP8 POP PUSH2 0x2735 DUP4 PUSH2 0x26E8 JUMP JUMPDEST SWAP3 POP POP PUSH1 0x1 DUP2 ADD SWAP1 POP PUSH2 0x2716 JUMP JUMPDEST POP DUP6 SWAP4 POP POP POP POP SWAP3 SWAP2 POP POP JUMP JUMPDEST PUSH0 DUP2 MLOAD SWAP1 POP SWAP2 SWAP1 POP JUMP JUMPDEST PUSH0 DUP3 DUP3 MSTORE PUSH1 0x20 DUP3 ADD SWAP1 POP SWAP3 SWAP2 POP POP JUMP JUMPDEST PUSH0 DUP2 SWAP1 POP PUSH1 0x20 DUP3 ADD SWAP1 POP SWAP2 SWAP1 POP JUMP JUMPDEST PUSH0 PUSH2 0x2784 DUP4 DUP4 PUSH2 0x2349 JUMP JUMPDEST PUSH1 0x20 DUP4 ADD SWAP1 POP SWAP3 SWAP2 POP POP JUMP JUMPDEST PUSH0 PUSH1 0x20 DUP3 ADD SWAP1 POP SWAP2 SWAP1 POP JUMP JUMPDEST PUSH0 PUSH2 0x27A6 DUP3 PUSH2 0x2750 JUMP JUMPDEST PUSH2 0x27B0 DUP2 DUP6 PUSH2 0x275A JUMP JUMPDEST SWAP4 POP PUSH2 0x27BB DUP4 PUSH2 0x276A JUMP JUMPDEST DUP1 PUSH0 JUMPDEST DUP4 DUP2 LT ISZERO PUSH2 0x27EB JUMPI DUP2 MLOAD PUSH2 0x27D2 DUP9 DUP3 PUSH2 0x2779 JUMP JUMPDEST SWAP8 POP PUSH2 0x27DD DUP4 PUSH2 0x2790 JUMP JUMPDEST SWAP3 POP POP PUSH1 0x1 DUP2 ADD SWAP1 POP PUSH2 0x27BE JUMP JUMPDEST POP DUP6 SWAP4 POP POP POP POP SWAP3 SWAP2 POP POP JUMP JUMPDEST PUSH0 PUSH1 0xC0 DUP3 ADD SWAP1 POP DUP2 DUP2 SUB PUSH0 DUP4 ADD MSTORE PUSH2 0x2810 DUP2 DUP10 PUSH2 0x24C9 JUMP JUMPDEST SWAP1 POP DUP2 DUP2 SUB PUSH1 0x20 DUP4 ADD MSTORE PUSH2 0x2824 DUP2 DUP9 PUSH2 0x258D JUMP JUMPDEST SWAP1 POP DUP2 DUP2 SUB PUSH1 0x40 DUP4 ADD MSTORE PUSH2 0x2838 DUP2 DUP8 PUSH2 0x258D JUMP JUMPDEST SWAP1 POP DUP2 DUP2 SUB PUSH1 0x60 DUP4 ADD MSTORE PUSH2 0x284C DUP2 DUP7 PUSH2 0x264C JUMP JUMPDEST SWAP1 POP DUP2 DUP2 SUB PUSH1 0x80 DUP4 ADD MSTORE PUSH2 0x2860 DUP2 DUP6 PUSH2 0x26F4 JUMP JUMPDEST SWAP1 POP DUP2 DUP2 SUB PUSH1 0xA0 DUP4 ADD MSTORE PUSH2 0x2874 DUP2 DUP5 PUSH2 0x279C JUMP JUMPDEST SWAP1 POP SWAP8 SWAP7 POP POP POP POP POP POP POP JUMP JUMPDEST PUSH0 DUP1 PUSH1 0x40 DUP4 DUP6 SUB SLT ISZERO PUSH2 0x2897 JUMPI PUSH2 0x2896 PUSH2 0x1E3C JUMP JUMPDEST JUMPDEST PUSH0 PUSH2 0x28A4 DUP6 DUP3 DUP7 ADD PUSH2 0x1E63 JUMP JUMPDEST SWAP3 POP POP PUSH1 0x20 DUP4 ADD CALLDATALOAD PUSH8 0xFFFFFFFFFFFFFFFF DUP2 GT ISZERO PUSH2 0x28C5 JUMPI PUSH2 0x28C4 PUSH2 0x1E40 JUMP JUMPDEST JUMPDEST PUSH2 0x28D1 DUP6 DUP3 DUP7 ADD PUSH2 0x214F JUMP JUMPDEST SWAP2 POP POP SWAP3 POP SWAP3 SWAP1 POP JUMP JUMPDEST PUSH0 DUP2 ISZERO ISZERO SWAP1 POP SWAP2 SWAP1 POP JUMP JUMPDEST PUSH2 0x28EF DUP2 PUSH2 0x28DB JUMP JUMPDEST DUP3 MSTORE POP POP JUMP JUMPDEST PUSH0 PUSH1 0x20 DUP3 ADD SWAP1 POP PUSH2 0x2908 PUSH0 DUP4 ADD DUP5 PUSH2 0x28E6 JUMP JUMPDEST SWAP3 SWAP2 POP POP JUMP JUMPDEST PUSH1 0x2 DUP2 LT PUSH2 0x291A JUMPI PUSH0 DUP1 REVERT JUMPDEST POP JUMP JUMPDEST PUSH0 DUP2 CALLDATALOAD SWAP1 POP PUSH2 0x292B DUP2 PUSH2 0x290E JUMP JUMPDEST SWAP3 SWAP2 POP POP JUMP JUMPDEST PUSH0 DUP1 PUSH1 0x40 DUP4 DUP6 SUB SLT ISZERO PUSH2 0x2947 JUMPI PUSH2 0x2946 PUSH2 0x1E3C JUMP JUMPDEST JUMPDEST PUSH0 PUSH2 0x2954 DUP6 DUP3 DUP7 ADD PUSH2 0x1E63 JUMP JUMPDEST SWAP3 POP POP PUSH1 0x20 PUSH2 0x2965 DUP6 DUP3 DUP7 ADD PUSH2 0x291D JUMP JUMPDEST SWAP2 POP POP SWAP3 POP SWAP3 SWAP1 POP JUMP JUMPDEST PUSH0 DUP1 PUSH0 DUP1 PUSH1 0x80 DUP6 DUP8 SUB SLT ISZERO PUSH2 0x2987 JUMPI PUSH2 0x2986 PUSH2 0x1E3C JUMP JUMPDEST JUMPDEST PUSH0 DUP6 ADD CALLDATALOAD PUSH8 0xFFFFFFFFFFFFFFFF DUP2 GT ISZERO PUSH2 0x29A4 JUMPI PUSH2 0x29A3 PUSH2 0x1E40 JUMP JUMPDEST JUMPDEST PUSH2 0x29B0 DUP8 DUP3 DUP9 ADD PUSH2 0x214F JUMP JUMPDEST SWAP5 POP POP PUSH1 0x20 DUP6 ADD CALLDATALOAD PUSH8 0xFFFFFFFFFFFFFFFF DUP2 GT ISZERO PUSH2 0x29D1 JUMPI PUSH2 0x29D0 PUSH2 0x1E40 JUMP JUMPDEST JUMPDEST PUSH2 0x29DD DUP8 DUP3 DUP9 ADD PUSH2 0x214F JUMP JUMPDEST SWAP4 POP POP PUSH1 0x40 DUP6 ADD CALLDATALOAD PUSH8 0xFFFFFFFFFFFFFFFF DUP2 GT ISZERO PUSH2 0x29FE JUMPI PUSH2 0x29FD PUSH2 0x1E40 JUMP JUMPDEST JUMPDEST PUSH2 0x2A0A DUP8 DUP3 DUP9 ADD PUSH2 0x214F JUMP JUMPDEST SWAP3 POP POP PUSH1 0x60 DUP6 ADD CALLDATALOAD PUSH8 0xFFFFFFFFFFFFFFFF DUP2 GT ISZERO PUSH2 0x2A2B JUMPI PUSH2 0x2A2A PUSH2 0x1E40 JUMP JUMPDEST JUMPDEST PUSH2 0x2A37 DUP8 DUP3 DUP9 ADD PUSH2 0x214F JUMP JUMPDEST SWAP2 POP POP SWAP3 SWAP6 SWAP2 SWAP5 POP SWAP3 POP JUMP JUMPDEST PUSH32 0x50726F6475637420646F6573206E6F7420657869737400000000000000000000 PUSH0 DUP3 ADD MSTORE POP JUMP JUMPDEST PUSH0 PUSH2 0x2A77 PUSH1 0x16 DUP4 PUSH2 0x1EAC JUMP JUMPDEST SWAP2 POP PUSH2 0x2A82 DUP3 PUSH2 0x2A43 JUMP JUMPDEST PUSH1 0x20 DUP3 ADD SWAP1 POP SWAP2 SWAP1 POP JUMP JUMPDEST PUSH0 PUSH1 0x20 DUP3 ADD SWAP1 POP DUP2 DUP2 SUB PUSH0 DUP4 ADD MSTORE PUSH2 0x2AA4 DUP2 PUSH2 0x2A6B JUMP JUMPDEST SWAP1 POP SWAP2 SWAP1 POP JUMP JUMPDEST PUSH32 0x4E487B7100000000000000000000000000000000000000000000000000000000 PUSH0 MSTORE PUSH1 0x22 PUSH1 0x4 MSTORE PUSH1 0x24 PUSH0 REVERT JUMPDEST PUSH0 PUSH1 0x2 DUP3 DIV SWAP1 POP PUSH1 0x1 DUP3 AND DUP1 PUSH2 0x2AEF JUMPI PUSH1 0x7F DUP3 AND SWAP2 POP JUMPDEST PUSH1 0x20 DUP3 LT DUP2 SUB PUSH2 0x2B02 JUMPI PUSH2 0x2B01 PUSH2 0x2AAB JUMP JUMPDEST JUMPDEST POP SWAP2 SWAP1 POP JUMP JUMPDEST PUSH0 DUP2 SWAP1 POP SWAP3 SWAP2 POP POP JUMP JUMPDEST PUSH0 PUSH2 0x2B1C DUP3 PUSH2 0x1EA2 JUMP JUMPDEST PUSH2 0x2B26 DUP2 DUP6 PUSH2 0x2B08 JUMP JUMPDEST SWAP4 POP PUSH2 0x2B36 DUP2 DUP6 PUSH1 0x20 DUP7 ADD PUSH2 0x1EBC JUMP JUMPDEST DUP1 DUP5 ADD SWAP2 POP POP SWAP3 SWAP2 POP POP JUMP JUMPDEST PUSH0 PUSH2 0x2B4D DUP3 DUP5 PUSH2 0x2B12 JUMP JUMPDEST SWAP2 POP DUP2 SWAP1 POP SWAP3 SWAP2 POP POP JUMP JUMPDEST PUSH32 0x5472616365206E6F7420666F756E640000000000000000000000000000000000 PUSH0 DUP3 ADD MSTORE POP JUMP JUMPDEST PUSH0 PUSH2 0x2B8C PUSH1 0xF DUP4 PUSH2 0x1EAC JUMP JUMPDEST SWAP2 POP PUSH2 0x2B97 DUP3 PUSH2 0x2B58 JUMP JUMPDEST PUSH1 0x20 DUP3 ADD SWAP1 POP SWAP2 SWAP1 POP JUMP JUMPDEST PUSH0 PUSH1 0x20 DUP3 ADD SWAP1 POP DUP2 DUP2 SUB PUSH0 DUP4 ADD MSTORE PUSH2 0x2BB9 DUP2 PUSH2 0x2B80 JUMP JUMPDEST SWAP1 POP SWAP2 SWAP1 POP JUMP JUMPDEST PUSH32 0x4E487B7100000000000000000000000000000000000000000000000000000000 PUSH0 MSTORE PUSH1 0x32 PUSH1 0x4 MSTORE PUSH1 0x24 PUSH0 REVERT JUMPDEST PUSH32 0x4E487B7100000000000000000000000000000000000000000000000000000000 PUSH0 MSTORE PUSH1 0x11 PUSH1 0x4 MSTORE PUSH1 0x24 PUSH0 REVERT JUMPDEST PUSH0 PUSH2 0x2C24 DUP3 PUSH2 0x1F12 JUMP JUMPDEST SWAP2 POP PUSH32 0xFFFFFFFFFFFFFFFFFFFFFFFFFFFFFFFFFFFFFFFFFFFFFFFFFFFFFFFFFFFFFFFF DUP3 SUB PUSH2 0x2C56 JUMPI PUSH2 0x2C55 PUSH2 0x2BED JUMP JUMPDEST JUMPDEST PUSH1 0x1 DUP3 ADD SWAP1 POP SWAP2 SWAP1 POP JUMP JUMPDEST PUSH32 0x436F64656261722063616E6E6F7420626520656D707479000000000000000000 PUSH0 DUP3 ADD MSTORE POP JUMP JUMPDEST PUSH0 PUSH2 0x2C95 PUSH1 0x17 DUP4 PUSH2 0x1EAC JUMP JUMPDEST SWAP2 POP PUSH2 0x2CA0 DUP3 PUSH2 0x2C61 JUMP JUMPDEST PUSH1 0x20 DUP3 ADD SWAP1 POP SWAP2 SWAP1 POP JUMP JUMPDEST PUSH0 PUSH1 0x20 DUP3 ADD SWAP1 POP DUP2 DUP2 SUB PUSH0 DUP4 ADD MSTORE PUSH2 0x2CC2 DUP2 PUSH2 0x2C89 JUMP JUMPDEST SWAP1 POP SWAP2 SWAP1 POP JUMP JUMPDEST PUSH32 0x4E6F2070726F647563747320666F756E642077697468207468697320636F6465 PUSH0 DUP3 ADD MSTORE PUSH32 0x6261720000000000000000000000000000000000000000000000000000000000 PUSH1 0x20 DUP3 ADD MSTORE POP JUMP JUMPDEST PUSH0 PUSH2 0x2D23 PUSH1 0x23 DUP4 PUSH2 0x1EAC JUMP JUMPDEST SWAP2 POP PUSH2 0x2D2E DUP3 PUSH2 0x2CC9 JUMP JUMPDEST PUSH1 0x40 DUP3 ADD SWAP1 POP SWAP2 SWAP1 POP JUMP JUMPDEST PUSH0 PUSH1 0x20 DUP3 ADD SWAP1 POP DUP2 DUP2 SUB PUSH0 DUP4 ADD MSTORE PUSH2 0x2D50 DUP2 PUSH2 0x2D17 JUMP JUMPDEST SWAP1 POP SWAP2 SWAP1 POP JUMP JUMPDEST PUSH32 0x50726F64756374206E6F74206163746976650000000000000000000000000000 PUSH0 DUP3 ADD MSTORE POP JUMP JUMPDEST PUSH0 PUSH2 0x2D8B PUSH1 0x12 DUP4 PUSH2 0x1EAC JUMP JUMPDEST SWAP2 POP PUSH2 0x2D96 DUP3 PUSH2 0x2D57 JUMP JUMPDEST PUSH1 0x20 DUP3 ADD SWAP1 POP SWAP2 SWAP1 POP JUMP JUMPDEST PUSH0 PUSH1 0x20 DUP3 ADD SWAP1 POP DUP2 DUP2 SUB PUSH0 DUP4 ADD MSTORE PUSH2 0x2DB8 DUP2 PUSH2 0x2D7F JUMP JUMPDEST SWAP1 POP SWAP2 SWAP1 POP JUMP JUMPDEST PUSH32 0x5472616365206465736372697074696F6E2063616E6E6F7420626520656D7074 PUSH0 DUP3 ADD MSTORE PUSH32 0x7900000000000000000000000000000000000000000000000000000000000000 PUSH1 0x20 DUP3 ADD MSTORE POP JUMP JUMPDEST PUSH0 PUSH2 0x2E19 PUSH1 0x21 DUP4 PUSH2 0x1EAC JUMP JUMPDEST SWAP2 POP PUSH2 0x2E24 DUP3 PUSH2 0x2DBF JUMP JUMPDEST PUSH1 0x40 DUP3 ADD SWAP1 POP SWAP2 SWAP1 POP JUMP JUMPDEST PUSH0 PUSH1 0x20 DUP3 ADD SWAP1 POP DUP2 DUP2 SUB PUSH0 DUP4 ADD MSTORE PUSH2 0x2E46 DUP2 PUSH2 0x2E0D JUMP JUMPDEST SWAP1 POP SWAP2 SWAP1 POP JUMP JUMPDEST PUSH0 DUP2 SWAP1 POP SWAP2 SWAP1 POP JUMP JUMPDEST PUSH2 0x2E67 PUSH2 0x2E62 DUP3 PUSH2 0x1E44 JUMP JUMPDEST PUSH2 0x2E4D JUMP JUMPDEST DUP3 MSTORE POP POP JUMP JUMPDEST PUSH0 DUP2 SWAP1 POP SWAP2 SWAP1 POP JUMP JUMPDEST PUSH2 0x2E87 PUSH2 0x2E82 DUP3 PUSH2 0x1F12 JUMP JUMPDEST PUSH2 0x2E6D JUMP JUMPDEST DUP3 MSTORE POP POP JUMP JUMPDEST PUSH0 DUP2 PUSH1 0x60 SHL SWAP1 POP SWAP2 SWAP1 POP JUMP JUMPDEST PUSH0 PUSH2 0x2EA3 DUP3 PUSH2 0x2E8D JUMP JUMPDEST SWAP1 POP SWAP2 SWAP1 POP JUMP JUMPDEST PUSH0 PUSH2 0x2EB4 DUP3 PUSH2 0x2E99 JUMP JUMPDEST SWAP1 POP SWAP2 SWAP1 POP JUMP JUMPDEST PUSH2 0x2ECC PUSH2 0x2EC7 DUP3 PUSH2 0x1F49 JUMP JUMPDEST PUSH2 0x2EAA JUMP JUMPDEST DUP3 MSTORE POP POP JUMP JUMPDEST PUSH0 PUSH2 0x2EDD DUP3 DUP8 PUSH2 0x2E56 JUMP JUMPDEST PUSH1 0x20 DUP3 ADD SWAP2 POP PUSH2 0x2EED DUP3 DUP7 PUSH2 0x2E76 JUMP JUMPDEST PUSH1 0x20 DUP3 ADD SWAP2 POP PUSH2 0x2EFD DUP3 DUP6 PUSH2 0x2EBB JUMP JUMPDEST PUSH1 0x14 DUP3 ADD SWAP2 POP PUSH2 0x2F0D DUP3 DUP5 PUSH2 0x2B12 JUMP JUMPDEST SWAP2 POP DUP2 SWAP1 POP SWAP6 SWAP5 POP POP POP POP POP JUMP JUMPDEST PUSH0 DUP2 SWAP1 POP DUP2 PUSH0 MSTORE PUSH1 0x20 PUSH0 KECCAK256 SWAP1 POP SWAP2 SWAP1 POP JUMP JUMPDEST PUSH0 PUSH1 0x20 PUSH1 0x1F DUP4 ADD DIV SWAP1 POP SWAP2 SWAP1 POP JUMP JUMPDEST PUSH0 DUP3 DUP3 SHL SWAP1 POP SWAP3 SWAP2 POP POP JUMP JUMPDEST PUSH0 PUSH1 0x8 DUP4 MUL PUSH2 0x2F77 PUSH32 0xFFFFFFFFFFFFFFFFFFFFFFFFFFFFFFFFFFFFFFFFFFFFFFFFFFFFFFFFFFFFFFFF DUP3 PUSH2 0x2F3C JUMP JUMPDEST PUSH2 0x2F81 DUP7 DUP4 PUSH2 0x2F3C JUMP JUMPDEST SWAP6 POP DUP1 NOT DUP5 AND SWAP4 POP DUP1 DUP7 AND DUP5 OR SWAP3 POP POP POP SWAP4 SWAP3 POP POP POP JUMP JUMPDEST PUSH0 DUP2 SWAP1 POP SWAP2 SWAP1 POP JUMP JUMPDEST PUSH0 PUSH2 0x2FBC PUSH2 0x2FB7 PUSH2 0x2FB2 DUP5 PUSH2 0x1F12 JUMP JUMPDEST PUSH2 0x2F99 JUMP JUMPDEST PUSH2 0x1F12 JUMP JUMPDEST SWAP1 POP SWAP2 SWAP1 POP JUMP JUMPDEST PUSH0 DUP2 SWAP1 POP SWAP2 SWAP1 POP JUMP JUMPDEST PUSH2 0x2FD5 DUP4 PUSH2 0x2FA2 JUMP JUMPDEST PUSH2 0x2FE9 PUSH2 0x2FE1 DUP3 PUSH2 0x2FC3 JUMP JUMPDEST DUP5 DUP5 SLOAD PUSH2 0x2F48 JUMP JUMPDEST DUP3 SSTORE POP POP POP POP JUMP JUMPDEST PUSH0 SWAP1 JUMP JUMPDEST PUSH2 0x2FFD PUSH2 0x2FF1 JUMP JUMPDEST PUSH2 0x3008 DUP2 DUP5 DUP5 PUSH2 0x2FCC JUMP JUMPDEST POP POP POP JUMP JUMPDEST JUMPDEST DUP2 DUP2 LT ISZERO PUSH2 0x302B JUMPI PUSH2 0x3020 PUSH0 DUP3 PUSH2 0x2FF5 JUMP JUMPDEST PUSH1 0x1 DUP2 ADD SWAP1 POP PUSH2 0x300E JUMP JUMPDEST POP POP JUMP JUMPDEST PUSH1 0x1F DUP3 GT ISZERO PUSH2 0x3070 JUMPI PUSH2 0x3041 DUP2 PUSH2 0x2F1B JUMP JUMPDEST PUSH2 0x304A DUP5 PUSH2 0x2F2D JUMP JUMPDEST DUP2 ADD PUSH1 0x20 DUP6 LT ISZERO PUSH2 0x3059 JUMPI DUP2 SWAP1 POP JUMPDEST PUSH2 0x306D PUSH2 0x3065 DUP6 PUSH2 0x2F2D JUMP JUMPDEST DUP4 ADD DUP3 PUSH2 0x300D JUMP JUMPDEST POP POP JUMPDEST POP POP POP JUMP JUMPDEST PUSH0 DUP3 DUP3 SHR SWAP1 POP SWAP3 SWAP2 POP POP JUMP JUMPDEST PUSH0 PUSH2 0x3090 PUSH0 NOT DUP5 PUSH1 0x8 MUL PUSH2 0x3075 JUMP JUMPDEST NOT DUP1 DUP4 AND SWAP2 POP POP SWAP3 SWAP2 POP POP JUMP JUMPDEST PUSH0 PUSH2 0x30A8 DUP4 DUP4 PUSH2 0x3081 JUMP JUMPDEST SWAP2 POP DUP3 PUSH1 0x2 MUL DUP3 OR SWAP1 POP SWAP3 SWAP2 POP POP JUMP JUMPDEST PUSH2 0x30C1 DUP3 PUSH2 0x1EA2 JUMP JUMPDEST PUSH8 0xFFFFFFFFFFFFFFFF DUP2 GT ISZERO PUSH2 0x30DA JUMPI PUSH2 0x30D9 PUSH2 0x2058 JUMP JUMPDEST JUMPDEST PUSH2 0x30E4 DUP3 SLOAD PUSH2 0x2AD8 JUMP JUMPDEST PUSH2 0x30EF DUP3 DUP3 DUP6 PUSH2 0x302F JUMP JUMPDEST PUSH0 PUSH1 0x20 SWAP1 POP PUSH1 0x1F DUP4 GT PUSH1 0x1 DUP2 EQ PUSH2 0x3120 JUMPI PUSH0 DUP5 ISZERO PUSH2 0x310E JUMPI DUP3 DUP8 ADD MLOAD SWAP1 POP JUMPDEST PUSH2 0x3118 DUP6 DUP3 PUSH2 0x309D JUMP JUMPDEST DUP7 SSTORE POP PUSH2 0x317F JUMP JUMPDEST PUSH1 0x1F NOT DUP5 AND PUSH2 0x312E DUP7 PUSH2 0x2F1B JUMP JUMPDEST PUSH0 JUMPDEST DUP3 DUP2 LT ISZERO PUSH2 0x3155 JUMPI DUP5 DUP10 ADD MLOAD DUP3 SSTORE PUSH1 0x1 DUP3 ADD SWAP2 POP PUSH1 0x20 DUP6 ADD SWAP5 POP PUSH1 0x20 DUP2 ADD SWAP1 POP PUSH2 0x3130 JUMP JUMPDEST DUP7 DUP4 LT ISZERO PUSH2 0x3172 JUMPI DUP5 DUP10 ADD MLOAD PUSH2 0x316E PUSH1 0x1F DUP10 AND DUP3 PUSH2 0x3081 JUMP JUMPDEST DUP4 SSTORE POP JUMPDEST PUSH1 0x1 PUSH1 0x2 DUP9 MUL ADD DUP9 SSTORE POP POP POP JUMPDEST POP POP POP POP POP POP JUMP JUMPDEST PUSH0 PUSH1 0x60 DUP3 ADD SWAP1 POP DUP2 DUP2 SUB PUSH0 DUP4 ADD MSTORE PUSH2 0x319F DUP2 DUP7 PUSH2 0x1EDA JUMP JUMPDEST SWAP1 POP PUSH2 0x31AE PUSH1 0x20 DUP4 ADD DUP6 PUSH2 0x1F1B JUMP JUMPDEST PUSH2 0x31BB PUSH1 0x40 DUP4 ADD DUP5 PUSH2 0x1F5A JUMP JUMPDEST SWAP5 SWAP4 POP POP POP POP JUMP JUMPDEST PUSH0 PUSH1 0x20 DUP3 ADD SWAP1 POP PUSH2 0x31D6 PUSH0 DUP4 ADD DUP5 PUSH2 0x1FCD JUMP JUMPDEST SWAP3 SWAP2 POP POP JUMP JUMPDEST PUSH32 0x50726F647563742049442063616E6E6F7420626520656D707479000000000000 PUSH0 DUP3 ADD MSTORE POP JUMP JUMPDEST PUSH0 PUSH2 0x3210 PUSH1 0x1A DUP4 PUSH2 0x1EAC JUMP JUMPDEST SWAP2 POP PUSH2 0x321B DUP3 PUSH2 0x31DC JUMP JUMPDEST PUSH1 0x20 DUP3 ADD SWAP1 POP SWAP2 SWAP1 POP JUMP JUMPDEST PUSH0 PUSH1 0x20 DUP3 ADD SWAP1 POP DUP2 DUP2 SUB PUSH0 DUP4 ADD MSTORE PUSH2 0x323D DUP2 PUSH2 0x3204 JUMP JUMPDEST SWAP1 POP SWAP2 SWAP1 POP JUMP JUMPDEST PUSH32 0x4E616D652063616E6E6F7420626520656D707479000000000000000000000000 PUSH0 DUP3 ADD MSTORE POP JUMP JUMPDEST PUSH0 PUSH2 0x3278 PUSH1 0x14 DUP4 PUSH2 0x1EAC JUMP JUMPDEST SWAP2 POP PUSH2 0x3283 DUP3 PUSH2 0x3244 JUMP JUMPDEST PUSH1 0x20 DUP3 ADD SWAP1 POP SWAP2 SWAP1 POP JUMP JUMPDEST PUSH0 PUSH1 0x20 DUP3 ADD SWAP1 POP DUP2 DUP2 SUB PUSH0 DUP4 ADD MSTORE PUSH2 0x32A5 DUP2 PUSH2 0x326C JUMP JUMPDEST SWAP1 POP SWAP2 SWAP1 POP JUMP JUMPDEST PUSH32 0x4465736372697074696F6E2063616E6E6F7420626520656D7074790000000000 PUSH0 DUP3 ADD MSTORE POP JUMP JUMPDEST PUSH0 PUSH2 0x32E0 PUSH1 0x1B DUP4 PUSH2 0x1EAC JUMP JUMPDEST SWAP2 POP PUSH2 0x32EB DUP3 PUSH2 0x32AC JUMP JUMPDEST PUSH1 0x20 DUP3 ADD SWAP1 POP SWAP2 SWAP1 POP JUMP JUMPDEST PUSH0 PUSH1 0x20 DUP3 ADD SWAP1 POP DUP2 DUP2 SUB PUSH0 DUP4 ADD MSTORE PUSH2 0x330D DUP2 PUSH2 0x32D4 JUMP JUMPDEST SWAP1 POP SWAP2 SWAP1 POP JUMP JUMPDEST PUSH32 0x50726F6475637420616C72656164792065786973747300000000000000000000 PUSH0 DUP3 ADD MSTORE POP JUMP JUMPDEST PUSH0 PUSH2 0x3348 PUSH1 0x16 DUP4 PUSH2 0x1EAC JUMP JUMPDEST SWAP2 POP PUSH2 0x3353 DUP3 PUSH2 0x3314 JUMP JUMPDEST PUSH1 0x20 DUP3 ADD SWAP1 POP SWAP2 SWAP1 POP JUMP JUMPDEST PUSH0 PUSH1 0x20 DUP3 ADD SWAP1 POP DUP2 DUP2 SUB PUSH0 DUP4 ADD MSTORE PUSH2 0x3375 DUP2 PUSH2 0x333C JUMP JUMPDEST SWAP1 POP SWAP2 SWAP1 POP JUMP JUMPDEST PUSH32 0x494E495400000000000000000000000000000000000000000000000000000000 PUSH0 DUP3 ADD MSTORE POP JUMP JUMPDEST PUSH0 PUSH2 0x33B0 PUSH1 0x4 DUP4 PUSH2 0x2B08 JUMP JUMPDEST SWAP2 POP PUSH2 0x33BB DUP3 PUSH2 0x337C JUMP JUMPDEST PUSH1 0x4 DUP3 ADD SWAP1 POP SWAP2 SWAP1 POP JUMP JUMPDEST PUSH0 PUSH2 0x33D1 DUP3 DUP6 PUSH2 0x2E56 JUMP JUMPDEST PUSH1 0x20 DUP3 ADD SWAP2 POP PUSH2 0x33E1 DUP3 DUP5 PUSH2 0x2E76 JUMP JUMPDEST PUSH1 0x20 DUP3 ADD SWAP2 POP PUSH2 0x33F0 DUP3 PUSH2 0x33A4 JUMP JUMPDEST SWAP2 POP DUP2 SWAP1 POP SWAP4 SWAP3 POP POP POP JUMP JUMPDEST PUSH0 PUSH1 0xA0 DUP3 ADD SWAP1 POP DUP2 DUP2 SUB PUSH0 DUP4 ADD MSTORE PUSH2 0x3414 DUP2 DUP9 PUSH2 0x1EDA JUMP JUMPDEST SWAP1 POP DUP2 DUP2 SUB PUSH1 0x20 DUP4 ADD MSTORE PUSH2 0x3428 DUP2 DUP8 PUSH2 0x1EDA JUMP JUMPDEST SWAP1 POP DUP2 DUP2 SUB PUSH1 0x40 DUP4 ADD MSTORE PUSH2 0x343C DUP2 DUP7 PUSH2 0x1EDA JUMP JUMPDEST SWAP1 POP PUSH2 0x344B PUSH1 0x60 DUP4 ADD DUP6 PUSH2 0x1F1B JUMP JUMPDEST PUSH2 0x3458 PUSH1 0x80 DUP4 ADD DUP5 PUSH2 0x1F5A JUMP JUMPDEST SWAP7 SWAP6 POP POP POP POP POP POP JUMP JUMPDEST PUSH32 0x50726F6475637420696E697469616C697A6174696F6E00000000000000000000 PUSH0 DUP3 ADD MSTORE POP JUMP JUMPDEST PUSH0 PUSH2 0x3496 PUSH1 0x16 DUP4 PUSH2 0x1EAC JUMP JUMPDEST SWAP2 POP PUSH2 0x34A1 DUP3 PUSH2 0x3462 JUMP JUMPDEST PUSH1 0x20 DUP3 ADD SWAP1 POP SWAP2 SWAP1 POP JUMP JUMPDEST PUSH0 PUSH1 0x60 DUP3 ADD SWAP1 POP DUP2 DUP2 SUB PUSH0 DUP4 ADD MSTORE PUSH2 0x34C3 DUP2 PUSH2 0x348A JUMP JUMPDEST SWAP1 POP PUSH2 0x34D2 PUSH1 0x20 DUP4 ADD DUP6 PUSH2 0x1F1B JUMP JUMPDEST PUSH2 0x34DF PUSH1 0x40 DUP4 ADD DUP5 PUSH2 0x1F5A JUMP JUMPDEST SWAP4 SWAP3 POP POP POP JUMP INVALID LOG2 PUSH5 0x6970667358 0x22 SLT KECCAK256 SSTORE SLT CHAINID DUP7 PUSH30 0x36F417B070E92D7321B2AAC698260A72F6EBD03E13955703F67F0364736F PUSH13 0x634300081A0033000000000000 "
				},
				"gasEstimates": {
					"creation": {
						"codeDepositCost": "2719200",
						"executionCost": "2951",
						"totalCost": "2722151"
					},
					"external": {
						"addProduct(string,string,string,string)": "infinite",
						"addTrace(bytes32,string)": "infinite",
						"getAllProductIds()": "infinite",
						"getProduct(bytes32)": "infinite",
						"getProductCountByCodebar(string)": "infinite",
						"getProductTraces(bytes32)": "infinite",
						"getProductTracesByAuthor(bytes32,address)": "infinite",
						"getProductsByCodebar(string)": "infinite",
						"getTraceById(bytes32)": "infinite",
						"hasProductsWithCodebar(string)": "infinite",
						"setProductState(bytes32,uint8)": "28965"
					},
					"internal": {
						"stringToBytes32(string memory)": "infinite"
					}
				},
				"methodIdentifiers": {
					"addProduct(string,string,string,string)": "fde74e81",
					"addTrace(bytes32,string)": "9635b610",
					"getAllProductIds()": "663c01af",
					"getProduct(bytes32)": "3a20e9df",
					"getProductCountByCodebar(string)": "5609953a",
					"getProductTraces(bytes32)": "f0ccdecb",
					"getProductTracesByAuthor(bytes32,address)": "5a94feca",
					"getProductsByCodebar(string)": "89015686",
					"getTraceById(bytes32)": "58fb4ad7",
					"hasProductsWithCodebar(string)": "b8715c95",
					"setProductState(bytes32,uint8)": "dc964cb6"
				}
			},
			"storageLayout": {
				"storage": [
					{
						"astId": 39,
						"contract": "contracts/trace.sol:Traceability",
						"label": "products",
						"offset": 0,
						"slot": "0",
						"type": "t_mapping(t_bytes32,t_struct(Product)34_storage)"
					},
					{
						"astId": 45,
						"contract": "contracts/trace.sol:Traceability",
						"label": "productTraces",
						"offset": 0,
						"slot": "1",
						"type": "t_mapping(t_bytes32,t_array(t_struct(Trace)16_storage)dyn_storage)"
					},
					{
						"astId": 49,
						"contract": "contracts/trace.sol:Traceability",
						"label": "traceToProduct",
						"offset": 0,
						"slot": "2",
						"type": "t_mapping(t_bytes32,t_bytes32)"
					},
					{
						"astId": 54,
						"contract": "contracts/trace.sol:Traceability",
						"label": "codebarToProducts",
						"offset": 0,
						"slot": "3",
						"type": "t_mapping(t_string_memory_ptr,t_array(t_bytes32)dyn_storage)"
					},
					{
						"astId": 57,
						"contract": "contracts/trace.sol:Traceability",
						"label": "productIds",
						"offset": 0,
						"slot": "4",
						"type": "t_array(t_bytes32)dyn_storage"
					}
				],
				"types": {
					"t_address": {
						"encoding": "inplace",
						"label": "address",
						"numberOfBytes": "20"
					},
					"t_array(t_bytes32)dyn_storage": {
						"base": "t_bytes32",
						"encoding": "dynamic_array",
						"label": "bytes32[]",
						"numberOfBytes": "32"
					},
					"t_array(t_struct(Trace)16_storage)dyn_storage": {
						"base": "t_struct(Trace)16_storage",
						"encoding": "dynamic_array",
						"label": "struct Traceability.Trace[]",
						"numberOfBytes": "32"
					},
					"t_bool": {
						"encoding": "inplace",
						"label": "bool",
						"numberOfBytes": "1"
					},
					"t_bytes32": {
						"encoding": "inplace",
						"label": "bytes32",
						"numberOfBytes": "32"
					},
					"t_enum(State)4": {
						"encoding": "inplace",
						"label": "enum Traceability.State",
						"numberOfBytes": "1"
					},
					"t_mapping(t_bytes32,t_array(t_struct(Trace)16_storage)dyn_storage)": {
						"encoding": "mapping",
						"key": "t_bytes32",
						"label": "mapping(bytes32 => struct Traceability.Trace[])",
						"numberOfBytes": "32",
						"value": "t_array(t_struct(Trace)16_storage)dyn_storage"
					},
					"t_mapping(t_bytes32,t_bytes32)": {
						"encoding": "mapping",
						"key": "t_bytes32",
						"label": "mapping(bytes32 => bytes32)",
						"numberOfBytes": "32",
						"value": "t_bytes32"
					},
					"t_mapping(t_bytes32,t_struct(Product)34_storage)": {
						"encoding": "mapping",
						"key": "t_bytes32",
						"label": "mapping(bytes32 => struct Traceability.Product)",
						"numberOfBytes": "32",
						"value": "t_struct(Product)34_storage"
					},
					"t_mapping(t_string_memory_ptr,t_array(t_bytes32)dyn_storage)": {
						"encoding": "mapping",
						"key": "t_string_memory_ptr",
						"label": "mapping(string => bytes32[])",
						"numberOfBytes": "32",
						"value": "t_array(t_bytes32)dyn_storage"
					},
					"t_string_memory_ptr": {
						"encoding": "bytes",
						"label": "string",
						"numberOfBytes": "32"
					},
					"t_string_storage": {
						"encoding": "bytes",
						"label": "string",
						"numberOfBytes": "32"
					},
					"t_struct(Product)34_storage": {
						"encoding": "inplace",
						"label": "struct Traceability.Product",
						"members": [
							{
								"astId": 18,
								"contract": "contracts/trace.sol:Traceability",
								"label": "id",
								"offset": 0,
								"slot": "0",
								"type": "t_bytes32"
							},
							{
								"astId": 20,
								"contract": "contracts/trace.sol:Traceability",
								"label": "codebar",
								"offset": 0,
								"slot": "1",
								"type": "t_string_storage"
							},
							{
								"astId": 22,
								"contract": "contracts/trace.sol:Traceability",
								"label": "name",
								"offset": 0,
								"slot": "2",
								"type": "t_string_storage"
							},
							{
								"astId": 24,
								"contract": "contracts/trace.sol:Traceability",
								"label": "description",
								"offset": 0,
								"slot": "3",
								"type": "t_string_storage"
							},
							{
								"astId": 26,
								"contract": "contracts/trace.sol:Traceability",
								"label": "timestamp",
								"offset": 0,
								"slot": "4",
								"type": "t_uint256"
							},
							{
								"astId": 28,
								"contract": "contracts/trace.sol:Traceability",
								"label": "author",
								"offset": 0,
								"slot": "5",
								"type": "t_address"
							},
							{
								"astId": 31,
								"contract": "contracts/trace.sol:Traceability",
								"label": "state",
								"offset": 20,
								"slot": "5",
								"type": "t_enum(State)4"
							},
							{
								"astId": 33,
								"contract": "contracts/trace.sol:Traceability",
								"label": "exists",
								"offset": 21,
								"slot": "5",
								"type": "t_bool"
							}
						],
						"numberOfBytes": "192"
					},
					"t_struct(Trace)16_storage": {
						"encoding": "inplace",
						"label": "struct Traceability.Trace",
						"members": [
							{
								"astId": 6,
								"contract": "contracts/trace.sol:Traceability",
								"label": "id",
								"offset": 0,
								"slot": "0",
								"type": "t_bytes32"
							},
							{
								"astId": 8,
								"contract": "contracts/trace.sol:Traceability",
								"label": "description",
								"offset": 0,
								"slot": "1",
								"type": "t_string_storage"
							},
							{
								"astId": 10,
								"contract": "contracts/trace.sol:Traceability",
								"label": "timestamp",
								"offset": 0,
								"slot": "2",
								"type": "t_uint256"
							},
							{
								"astId": 12,
								"contract": "contracts/trace.sol:Traceability",
								"label": "author",
								"offset": 0,
								"slot": "3",
								"type": "t_address"
							},
							{
								"astId": 15,
								"contract": "contracts/trace.sol:Traceability",
								"label": "state",
								"offset": 20,
								"slot": "3",
								"type": "t_enum(State)4"
							}
						],
						"numberOfBytes": "128"
					},
					"t_uint256": {
						"encoding": "inplace",
						"label": "uint256",
						"numberOfBytes": "32"
					}
				}
			},
			"userdoc": {
				"kind": "user",
				"methods": {},
				"version": 1
			}
		}
	}
}