{
	"contracts/trace.sol": {
		"Traceability": {
			"abi": [
				{
					"anonymous": false,
					"inputs": [
						{
							"indexed": true,
							"internalType": "bytes32",
							"name": "id",
							"type": "bytes32"
						},
						{
							"indexed": false,
							"internalType": "string",
							"name": "codebar",
							"type": "string"
						},
						{
							"indexed": false,
							"internalType": "string",
							"name": "name",
							"type": "string"
						},
						{
							"indexed": false,
							"internalType": "string",
							"name": "description",
							"type": "string"
						},
						{
							"indexed": false,
							"internalType": "uint256",
							"name": "timestamp",
							"type": "uint256"
						},
						{
							"indexed": false,
							"internalType": "address",
							"name": "author",
							"type": "address"
						}
					],
					"name": "ProductAdded",
					"type": "event"
				},
				{
					"anonymous": false,
					"inputs": [
						{
							"indexed": true,
							"internalType": "bytes32",
							"name": "id",
							"type": "bytes32"
						},
						{
							"indexed": false,
							"internalType": "enum Traceability.State",
							"name": "state",
							"type": "uint8"
						}
					],
					"name": "ProductStateChanged",
					"type": "event"
				},
				{
					"anonymous": false,
					"inputs": [
						{
							"indexed": true,
							"internalType": "bytes32",
							"name": "productId",
							"type": "bytes32"
						},
						{
							"indexed": true,
							"internalType": "bytes32",
							"name": "traceId",
							"type": "bytes32"
						},
						{
							"indexed": false,
							"internalType": "string",
							"name": "description",
							"type": "string"
						},
						{
							"indexed": false,
							"internalType": "uint256",
							"name": "timestamp",
							"type": "uint256"
						},
						{
							"indexed": false,
							"internalType": "address",
							"name": "author",
							"type": "address"
						}
					],
					"name": "TraceAdded",
					"type": "event"
				},
				{
					"inputs": [
						{
							"internalType": "string",
							"name": "_id",
							"type": "string"
						},
						{
							"internalType": "string",
							"name": "_codebar",
							"type": "string"
						},
						{
							"internalType": "string",
							"name": "_name",
							"type": "string"
						},
						{
							"internalType": "string",
							"name": "_description",
							"type": "string"
						}
					],
					"name": "addProduct",
					"outputs": [],
					"stateMutability": "nonpayable",
					"type": "function"
				},
				{
					"inputs": [
						{
							"internalType": "bytes32",
							"name": "_productId",
							"type": "bytes32"
						},
						{
							"internalType": "string",
							"name": "_description",
							"type": "string"
						}
					],
					"name": "addTrace",
					"outputs": [],
					"stateMutability": "nonpayable",
					"type": "function"
				},
				{
					"inputs": [],
					"name": "getAllProductIds",
					"outputs": [
						{
							"internalType": "bytes32[]",
							"name": "",
							"type": "bytes32[]"
						}
					],
					"stateMutability": "view",
					"type": "function"
				},
				{
					"inputs": [
						{
							"internalType": "bytes32",
							"name": "_productId",
							"type": "bytes32"
						}
					],
					"name": "getProduct",
					"outputs": [
						{
							"internalType": "string",
							"name": "codebar",
							"type": "string"
						},
						{
							"internalType": "string",
							"name": "name",
							"type": "string"
						},
						{
							"internalType": "string",
							"name": "description",
							"type": "string"
						},
						{
							"internalType": "uint256",
							"name": "timestamp",
							"type": "uint256"
						},
						{
							"internalType": "address",
							"name": "author",
							"type": "address"
						},
						{
							"internalType": "enum Traceability.State",
							"name": "state",
							"type": "uint8"
						}
					],
					"stateMutability": "view",
					"type": "function"
				},
				{
					"inputs": [
						{
							"internalType": "bytes32",
							"name": "_productId",
							"type": "bytes32"
						}
					],
					"name": "getProductTraces",
					"outputs": [
						{
							"components": [
								{
									"internalType": "bytes32",
									"name": "id",
									"type": "bytes32"
								},
								{
									"internalType": "string",
									"name": "description",
									"type": "string"
								},
								{
									"internalType": "uint256",
									"name": "timestamp",
									"type": "uint256"
								},
								{
									"internalType": "address",
									"name": "author",
									"type": "address"
								},
								{
									"internalType": "enum Traceability.State",
									"name": "state",
									"type": "uint8"
								}
							],
							"internalType": "struct Traceability.Trace[]",
							"name": "",
							"type": "tuple[]"
						}
					],
					"stateMutability": "view",
					"type": "function"
				},
				{
					"inputs": [
						{
							"internalType": "bytes32",
							"name": "_productId",
							"type": "bytes32"
						},
						{
							"internalType": "address",
							"name": "_author",
							"type": "address"
						}
					],
					"name": "getProductTracesByAuthor",
					"outputs": [
						{
							"components": [
								{
									"internalType": "bytes32",
									"name": "id",
									"type": "bytes32"
								},
								{
									"internalType": "string",
									"name": "description",
									"type": "string"
								},
								{
									"internalType": "uint256",
									"name": "timestamp",
									"type": "uint256"
								},
								{
									"internalType": "address",
									"name": "author",
									"type": "address"
								},
								{
									"internalType": "enum Traceability.State",
									"name": "state",
									"type": "uint8"
								}
							],
							"internalType": "struct Traceability.Trace[]",
							"name": "",
							"type": "tuple[]"
						}
					],
					"stateMutability": "view",
					"type": "function"
				},
				{
					"inputs": [
						{
							"internalType": "bytes32",
							"name": "_traceId",
							"type": "bytes32"
						}
					],
					"name": "getTraceById",
					"outputs": [
						{
							"internalType": "bytes32",
							"name": "productId",
							"type": "bytes32"
						},
						{
							"internalType": "string",
							"name": "description",
							"type": "string"
						},
						{
							"internalType": "uint256",
							"name": "timestamp",
							"type": "uint256"
						},
						{
							"internalType": "address",
							"name": "author",
							"type": "address"
						},
						{
							"internalType": "enum Traceability.State",
							"name": "state",
							"type": "uint8"
						}
					],
					"stateMutability": "view",
					"type": "function"
				},
				{
					"inputs": [
						{
							"internalType": "bytes32",
							"name": "_productId",
							"type": "bytes32"
						},
						{
							"internalType": "enum Traceability.State",
							"name": "_state",
							"type": "uint8"
						}
					],
					"name": "setProductState",
					"outputs": [],
					"stateMutability": "nonpayable",
					"type": "function"
				}
			],
			"devdoc": {
				"kind": "dev",
				"methods": {},
				"version": 1
			},
			"evm": {
				"assembly": "    /* \"contracts/trace.sol\":60:7174  contract Traceability {... */\n  mstore(0x40, 0x80)\n  callvalue\n  dup1\n  iszero\n  tag_1\n  jumpi\n  0x00\n  dup1\n  revert\ntag_1:\n  pop\n  dataSize(sub_0)\n  dup1\n  dataOffset(sub_0)\n  0x00\n  codecopy\n  0x00\n  return\nstop\n\nsub_0: assembly {\n        /* \"contracts/trace.sol\":60:7174  contract Traceability {... */\n      mstore(0x40, 0x80)\n      callvalue\n      dup1\n      iszero\n      tag_1\n      jumpi\n      0x00\n      dup1\n      revert\n    tag_1:\n      pop\n      jumpi(tag_2, lt(calldatasize, 0x04))\n      shr(0xe0, calldataload(0x00))\n      dup1\n      0x9635b610\n      gt\n      tag_11\n      jumpi\n      dup1\n      0x9635b610\n      eq\n      tag_7\n      jumpi\n      dup1\n      0xdc964cb6\n      eq\n      tag_8\n      jumpi\n      dup1\n      0xf0ccdecb\n      eq\n      tag_9\n      jumpi\n      dup1\n      0xfde74e81\n      eq\n      tag_10\n      jumpi\n      jump(tag_2)\n    tag_11:\n      dup1\n      0x3a20e9df\n      eq\n      tag_3\n      jumpi\n      dup1\n      0x58fb4ad7\n      eq\n      tag_4\n      jumpi\n      dup1\n      0x5a94feca\n      eq\n      tag_5\n      jumpi\n      dup1\n      0x663c01af\n      eq\n      tag_6\n      jumpi\n    tag_2:\n      0x00\n      dup1\n      revert\n        /* \"contracts/trace.sol\":5564:6176  function getProduct(bytes32 _productId) ... */\n    tag_3:\n      tag_12\n      0x04\n      dup1\n      calldatasize\n      sub\n      dup2\n      add\n      swap1\n      tag_13\n      swap2\n      swap1\n      tag_14\n      jump\t// in\n    tag_13:\n      tag_15\n      jump\t// in\n    tag_12:\n      mload(0x40)\n      tag_16\n      swap7\n      swap6\n      swap5\n      swap4\n      swap3\n      swap2\n      swap1\n      tag_17\n      jump\t// in\n    tag_16:\n      mload(0x40)\n      dup1\n      swap2\n      sub\n      swap1\n      return\n        /* \"contracts/trace.sol\":6184:7060  function getTraceById(bytes32 _traceId) ... */\n    tag_4:\n      tag_18\n      0x04\n      dup1\n      calldatasize\n      sub\n      dup2\n      add\n      swap1\n      tag_19\n      swap2\n      swap1\n      tag_14\n      jump\t// in\n    tag_19:\n      tag_20\n      jump\t// in\n    tag_18:\n      mload(0x40)\n      tag_21\n      swap6\n      swap5\n      swap4\n      swap3\n      swap2\n      swap1\n      tag_22\n      jump\t// in\n    tag_21:\n      mload(0x40)\n      dup1\n      swap2\n      sub\n      swap1\n      return\n        /* \"contracts/trace.sol\":4425:5322  function getProductTracesByAuthor(bytes32 _productId, address _author) ... */\n    tag_5:\n      tag_23\n      0x04\n      dup1\n      calldatasize\n      sub\n      dup2\n      add\n      swap1\n      tag_24\n      swap2\n      swap1\n      tag_25\n      jump\t// in\n    tag_24:\n      tag_26\n      jump\t// in\n    tag_23:\n      mload(0x40)\n      tag_27\n      swap2\n      swap1\n      tag_28\n      jump\t// in\n    tag_27:\n      mload(0x40)\n      dup1\n      swap2\n      sub\n      swap1\n      return\n        /* \"contracts/trace.sol\":7068:7171  function getAllProductIds() public view returns (bytes32[] memory) {... */\n    tag_6:\n      tag_29\n      tag_30\n      jump\t// in\n    tag_29:\n      mload(0x40)\n      tag_31\n      swap2\n      swap1\n      tag_32\n      jump\t// in\n    tag_31:\n      mload(0x40)\n      dup1\n      swap2\n      sub\n      swap1\n      return\n        /* \"contracts/trace.sol\":3465:4204  function addTrace(bytes32 _productId, string memory _description) ... */\n    tag_7:\n      tag_33\n      0x04\n      dup1\n      calldatasize\n      sub\n      dup2\n      add\n      swap1\n      tag_34\n      swap2\n      swap1\n      tag_35\n      jump\t// in\n    tag_34:\n      tag_36\n      jump\t// in\n    tag_33:\n      stop\n        /* \"contracts/trace.sol\":5330:5556  function setProductState(bytes32 _productId, State _state) ... */\n    tag_8:\n      tag_37\n      0x04\n      dup1\n      calldatasize\n      sub\n      dup2\n      add\n      swap1\n      tag_38\n      swap2\n      swap1\n      tag_39\n      jump\t// in\n    tag_38:\n      tag_40\n      jump\t// in\n    tag_37:\n      stop\n        /* \"contracts/trace.sol\":4212:4417  function getProductTraces(bytes32 _productId) ... */\n    tag_9:\n      tag_41\n      0x04\n      dup1\n      calldatasize\n      sub\n      dup2\n      add\n      swap1\n      tag_42\n      swap2\n      swap1\n      tag_14\n      jump\t// in\n    tag_42:\n      tag_43\n      jump\t// in\n    tag_41:\n      mload(0x40)\n      tag_44\n      swap2\n      swap1\n      tag_28\n      jump\t// in\n    tag_44:\n      mload(0x40)\n      dup1\n      swap2\n      sub\n      swap1\n      return\n        /* \"contracts/trace.sol\":1806:3457  function addProduct(... */\n    tag_10:\n      tag_45\n      0x04\n      dup1\n      calldatasize\n      sub\n      dup2\n      add\n      swap1\n      tag_46\n      swap2\n      swap1\n      tag_47\n      jump\t// in\n    tag_46:\n      tag_48\n      jump\t// in\n    tag_45:\n      stop\n        /* \"contracts/trace.sol\":5564:6176  function getProduct(bytes32 _productId) ... */\n    tag_15:\n        /* \"contracts/trace.sol\":5704:5725  string memory codebar */\n      0x60\n        /* \"contracts/trace.sol\":5740:5758  string memory name */\n      dup1\n        /* \"contracts/trace.sol\":5773:5798  string memory description */\n      0x60\n        /* \"contracts/trace.sol\":5813:5830  uint256 timestamp */\n      0x00\n        /* \"contracts/trace.sol\":5845:5859  address author */\n      dup1\n        /* \"contracts/trace.sol\":5874:5885  State state */\n      0x00\n        /* \"contracts/trace.sol\":5660:5670  _productId */\n      dup7\n        /* \"contracts/trace.sol\":1195:1203  products */\n      0x00\n        /* \"contracts/trace.sol\":1195:1215  products[_productId] */\n      dup1\n        /* \"contracts/trace.sol\":1204:1214  _productId */\n      dup3\n        /* \"contracts/trace.sol\":1195:1215  products[_productId] */\n      dup2\n      mstore\n      0x20\n      add\n      swap1\n      dup2\n      mstore\n      0x20\n      add\n      0x00\n      keccak256\n        /* \"contracts/trace.sol\":1195:1222  products[_productId].exists */\n      0x05\n      add\n      0x15\n      swap1\n      sload\n      swap1\n      0x0100\n      exp\n      swap1\n      div\n      0xff\n      and\n        /* \"contracts/trace.sol\":1187:1249  require(products[_productId].exists, \"Product does not exist\") */\n      tag_50\n      jumpi\n      mload(0x40)\n      0x08c379a000000000000000000000000000000000000000000000000000000000\n      dup2\n      mstore\n      0x04\n      add\n      tag_51\n      swap1\n      tag_52\n      jump\t// in\n    tag_51:\n      mload(0x40)\n      dup1\n      swap2\n      sub\n      swap1\n      revert\n    tag_50:\n        /* \"contracts/trace.sol\":5914:5936  Product memory product */\n      0x00\n        /* \"contracts/trace.sol\":5939:5947  products */\n      dup1\n        /* \"contracts/trace.sol\":5939:5959  products[_productId] */\n      0x00\n        /* \"contracts/trace.sol\":5948:5958  _productId */\n      dup11\n        /* \"contracts/trace.sol\":5939:5959  products[_productId] */\n      dup2\n      mstore\n      0x20\n      add\n      swap1\n      dup2\n      mstore\n      0x20\n      add\n      0x00\n      keccak256\n        /* \"contracts/trace.sol\":5914:5959  Product memory product = products[_productId] */\n      mload(0x40)\n      dup1\n      0x0100\n      add\n      0x40\n      mstore\n      swap1\n      dup2\n      0x00\n      dup3\n      add\n      sload\n      dup2\n      mstore\n      0x20\n      add\n      0x01\n      dup3\n      add\n      dup1\n      sload\n      tag_54\n      swap1\n      tag_55\n      jump\t// in\n    tag_54:\n      dup1\n      0x1f\n      add\n      0x20\n      dup1\n      swap2\n      div\n      mul\n      0x20\n      add\n      mload(0x40)\n      swap1\n      dup2\n      add\n      0x40\n      mstore\n      dup1\n      swap3\n      swap2\n      swap1\n      dup2\n      dup2\n      mstore\n      0x20\n      add\n      dup3\n      dup1\n      sload\n      tag_56\n      swap1\n      tag_55\n      jump\t// in\n    tag_56:\n      dup1\n      iszero\n      tag_57\n      jumpi\n      dup1\n      0x1f\n      lt\n      tag_58\n      jumpi\n      0x0100\n      dup1\n      dup4\n      sload\n      div\n      mul\n      dup4\n      mstore\n      swap2\n      0x20\n      add\n      swap2\n      jump(tag_57)\n    tag_58:\n      dup3\n      add\n      swap2\n      swap1\n      0x00\n      mstore\n      keccak256(0x00, 0x20)\n      swap1\n    tag_59:\n      dup2\n      sload\n      dup2\n      mstore\n      swap1\n      0x01\n      add\n      swap1\n      0x20\n      add\n      dup1\n      dup4\n      gt\n      tag_59\n      jumpi\n      dup3\n      swap1\n      sub\n      0x1f\n      and\n      dup3\n      add\n      swap2\n    tag_57:\n      pop\n      pop\n      pop\n      pop\n      pop\n      dup2\n      mstore\n      0x20\n      add\n      0x02\n      dup3\n      add\n      dup1\n      sload\n      tag_60\n      swap1\n      tag_55\n      jump\t// in\n    tag_60:\n      dup1\n      0x1f\n      add\n      0x20\n      dup1\n      swap2\n      div\n      mul\n      0x20\n      add\n      mload(0x40)\n      swap1\n      dup2\n      add\n      0x40\n      mstore\n      dup1\n      swap3\n      swap2\n      swap1\n      dup2\n      dup2\n      mstore\n      0x20\n      add\n      dup3\n      dup1\n      sload\n      tag_61\n      swap1\n      tag_55\n      jump\t// in\n    tag_61:\n      dup1\n      iszero\n      tag_62\n      jumpi\n      dup1\n      0x1f\n      lt\n      tag_63\n      jumpi\n      0x0100\n      dup1\n      dup4\n      sload\n      div\n      mul\n      dup4\n      mstore\n      swap2\n      0x20\n      add\n      swap2\n      jump(tag_62)\n    tag_63:\n      dup3\n      add\n      swap2\n      swap1\n      0x00\n      mstore\n      keccak256(0x00, 0x20)\n      swap1\n    tag_64:\n      dup2\n      sload\n      dup2\n      mstore\n      swap1\n      0x01\n      add\n      swap1\n      0x20\n      add\n      dup1\n      dup4\n      gt\n      tag_64\n      jumpi\n      dup3\n      swap1\n      sub\n      0x1f\n      and\n      dup3\n      add\n      swap2\n    tag_62:\n      pop\n      pop\n      pop\n      pop\n      pop\n      dup2\n      mstore\n      0x20\n      add\n      0x03\n      dup3\n      add\n      dup1\n      sload\n      tag_65\n      swap1\n      tag_55\n      jump\t// in\n    tag_65:\n      dup1\n      0x1f\n      add\n      0x20\n      dup1\n      swap2\n      div\n      mul\n      0x20\n      add\n      mload(0x40)\n      swap1\n      dup2\n      add\n      0x40\n      mstore\n      dup1\n      swap3\n      swap2\n      swap1\n      dup2\n      dup2\n      mstore\n      0x20\n      add\n      dup3\n      dup1\n      sload\n      tag_66\n      swap1\n      tag_55\n      jump\t// in\n    tag_66:\n      dup1\n      iszero\n      tag_67\n      jumpi\n      dup1\n      0x1f\n      lt\n      tag_68\n      jumpi\n      0x0100\n      dup1\n      dup4\n      sload\n      div\n      mul\n      dup4\n      mstore\n      swap2\n      0x20\n      add\n      swap2\n      jump(tag_67)\n    tag_68:\n      dup3\n      add\n      swap2\n      swap1\n      0x00\n      mstore\n      keccak256(0x00, 0x20)\n      swap1\n    tag_69:\n      dup2\n      sload\n      dup2\n      mstore\n      swap1\n      0x01\n      add\n      swap1\n      0x20\n      add\n      dup1\n      dup4\n      gt\n      tag_69\n      jumpi\n      dup3\n      swap1\n      sub\n      0x1f\n      and\n      dup3\n      add\n      swap2\n    tag_67:\n      pop\n      pop\n      pop\n      pop\n      pop\n      dup2\n      mstore\n      0x20\n      add\n      0x04\n      dup3\n      add\n      sload\n      dup2\n      mstore\n      0x20\n      add\n      0x05\n      dup3\n      add\n      0x00\n      swap1\n      sload\n      swap1\n      0x0100\n      exp\n      swap1\n      div\n      0xffffffffffffffffffffffffffffffffffffffff\n      and\n      0xffffffffffffffffffffffffffffffffffffffff\n      and\n      0xffffffffffffffffffffffffffffffffffffffff\n      and\n      dup2\n      mstore\n      0x20\n      add\n      0x05\n      dup3\n      add\n      0x14\n      swap1\n      sload\n      swap1\n      0x0100\n      exp\n      swap1\n      div\n      0xff\n      and\n      0x01\n      dup2\n      gt\n      iszero\n      tag_70\n      jumpi\n      tag_71\n      tag_72\n      jump\t// in\n    tag_71:\n    tag_70:\n      0x01\n      dup2\n      gt\n      iszero\n      tag_73\n      jumpi\n      tag_74\n      tag_72\n      jump\t// in\n    tag_74:\n    tag_73:\n      dup2\n      mstore\n      0x20\n      add\n      0x05\n      dup3\n      add\n      0x15\n      swap1\n      sload\n      swap1\n      0x0100\n      exp\n      swap1\n      div\n      0xff\n      and\n      iszero\n      iszero\n      iszero\n      iszero\n      dup2\n      mstore\n      pop\n      pop\n      swap1\n      pop\n        /* \"contracts/trace.sol\":5992:5999  product */\n      dup1\n        /* \"contracts/trace.sol\":5992:6007  product.codebar */\n      0x20\n      add\n      mload\n        /* \"contracts/trace.sol\":6022:6029  product */\n      dup2\n        /* \"contracts/trace.sol\":6022:6034  product.name */\n      0x40\n      add\n      mload\n        /* \"contracts/trace.sol\":6049:6056  product */\n      dup3\n        /* \"contracts/trace.sol\":6049:6068  product.description */\n      0x60\n      add\n      mload\n        /* \"contracts/trace.sol\":6083:6090  product */\n      dup4\n        /* \"contracts/trace.sol\":6083:6100  product.timestamp */\n      0x80\n      add\n      mload\n        /* \"contracts/trace.sol\":6115:6122  product */\n      dup5\n        /* \"contracts/trace.sol\":6115:6129  product.author */\n      0xa0\n      add\n      mload\n        /* \"contracts/trace.sol\":6144:6151  product */\n      dup6\n        /* \"contracts/trace.sol\":6144:6157  product.state */\n      0xc0\n      add\n      mload\n        /* \"contracts/trace.sol\":5970:6168  return (... */\n      swap8\n      pop\n      swap8\n      pop\n      swap8\n      pop\n      swap8\n      pop\n      swap8\n      pop\n      swap8\n      pop\n      pop\n        /* \"contracts/trace.sol\":5564:6176  function getProduct(bytes32 _productId) ... */\n      pop\n      swap2\n      swap4\n      swap6\n      pop\n      swap2\n      swap4\n      swap6\n      jump\t// out\n        /* \"contracts/trace.sol\":6184:7060  function getTraceById(bytes32 _traceId) ... */\n    tag_20:\n        /* \"contracts/trace.sol\":6289:6306  bytes32 productId */\n      0x00\n        /* \"contracts/trace.sol\":6321:6346  string memory description */\n      0x60\n        /* \"contracts/trace.sol\":6361:6378  uint256 timestamp */\n      0x00\n        /* \"contracts/trace.sol\":6393:6407  address author */\n      dup1\n        /* \"contracts/trace.sol\":6422:6433  State state */\n      0x00\n        /* \"contracts/trace.sol\":6462:6484  bytes32 productIdFound */\n      dup1\n        /* \"contracts/trace.sol\":6487:6501  traceToProduct */\n      0x02\n        /* \"contracts/trace.sol\":6487:6511  traceToProduct[_traceId] */\n      0x00\n        /* \"contracts/trace.sol\":6502:6510  _traceId */\n      dup9\n        /* \"contracts/trace.sol\":6487:6511  traceToProduct[_traceId] */\n      dup2\n      mstore\n      0x20\n      add\n      swap1\n      dup2\n      mstore\n      0x20\n      add\n      0x00\n      keccak256\n      sload\n        /* \"contracts/trace.sol\":6462:6511  bytes32 productIdFound = traceToProduct[_traceId] */\n      swap1\n      pop\n        /* \"contracts/trace.sol\":6556:6557  0 */\n      0x00\n        /* \"contracts/trace.sol\":6548:6558  bytes32(0) */\n      dup1\n      shl\n        /* \"contracts/trace.sol\":6530:6544  productIdFound */\n      dup2\n        /* \"contracts/trace.sol\":6530:6558  productIdFound != bytes32(0) */\n      sub\n        /* \"contracts/trace.sol\":6522:6578  require(productIdFound != bytes32(0), \"Trace not found\") */\n      tag_76\n      jumpi\n      mload(0x40)\n      0x08c379a000000000000000000000000000000000000000000000000000000000\n      dup2\n      mstore\n      0x04\n      add\n      tag_77\n      swap1\n      tag_78\n      jump\t// in\n    tag_77:\n      mload(0x40)\n      dup1\n      swap2\n      sub\n      swap1\n      revert\n    tag_76:\n        /* \"contracts/trace.sol\":6591:6613  Trace[] storage traces */\n      0x00\n        /* \"contracts/trace.sol\":6616:6629  productTraces */\n      0x01\n        /* \"contracts/trace.sol\":6616:6645  productTraces[productIdFound] */\n      0x00\n        /* \"contracts/trace.sol\":6630:6644  productIdFound */\n      dup4\n        /* \"contracts/trace.sol\":6616:6645  productTraces[productIdFound] */\n      dup2\n      mstore\n      0x20\n      add\n      swap1\n      dup2\n      mstore\n      0x20\n      add\n      0x00\n      keccak256\n        /* \"contracts/trace.sol\":6591:6645  Trace[] storage traces = productTraces[productIdFound] */\n      swap1\n      pop\n        /* \"contracts/trace.sol\":6661:6670  uint256 i */\n      0x00\n        /* \"contracts/trace.sol\":6656:7017  for (uint256 i = 0; i < traces.length; i++) {... */\n    tag_79:\n        /* \"contracts/trace.sol\":6680:6686  traces */\n      dup2\n        /* \"contracts/trace.sol\":6680:6693  traces.length */\n      dup1\n      sload\n      swap1\n      pop\n        /* \"contracts/trace.sol\":6676:6677  i */\n      dup2\n        /* \"contracts/trace.sol\":6676:6693  i < traces.length */\n      lt\n        /* \"contracts/trace.sol\":6656:7017  for (uint256 i = 0; i < traces.length; i++) {... */\n      iszero\n      tag_80\n      jumpi\n        /* \"contracts/trace.sol\":6735:6743  _traceId */\n      dup9\n        /* \"contracts/trace.sol\":6719:6725  traces */\n      dup3\n        /* \"contracts/trace.sol\":6726:6727  i */\n      dup3\n        /* \"contracts/trace.sol\":6719:6728  traces[i] */\n      dup2\n      sload\n      dup2\n      lt\n      tag_82\n      jumpi\n      tag_83\n      tag_84\n      jump\t// in\n    tag_83:\n    tag_82:\n      swap1\n      0x00\n      mstore\n      keccak256(0x00, 0x20)\n      swap1\n      0x04\n      mul\n      add\n        /* \"contracts/trace.sol\":6719:6731  traces[i].id */\n      0x00\n      add\n      sload\n        /* \"contracts/trace.sol\":6719:6743  traces[i].id == _traceId */\n      sub\n        /* \"contracts/trace.sol\":6715:7006  if (traces[i].id == _traceId) {... */\n      tag_86\n      jumpi\n        /* \"contracts/trace.sol\":6794:6808  productIdFound */\n      dup3\n        /* \"contracts/trace.sol\":6831:6837  traces */\n      dup3\n        /* \"contracts/trace.sol\":6838:6839  i */\n      dup3\n        /* \"contracts/trace.sol\":6831:6840  traces[i] */\n      dup2\n      sload\n      dup2\n      lt\n      tag_87\n      jumpi\n      tag_88\n      tag_84\n      jump\t// in\n    tag_88:\n    tag_87:\n      swap1\n      0x00\n      mstore\n      keccak256(0x00, 0x20)\n      swap1\n      0x04\n      mul\n      add\n        /* \"contracts/trace.sol\":6831:6852  traces[i].description */\n      0x01\n      add\n        /* \"contracts/trace.sol\":6875:6881  traces */\n      dup4\n        /* \"contracts/trace.sol\":6882:6883  i */\n      dup4\n        /* \"contracts/trace.sol\":6875:6884  traces[i] */\n      dup2\n      sload\n      dup2\n      lt\n      tag_90\n      jumpi\n      tag_91\n      tag_84\n      jump\t// in\n    tag_91:\n    tag_90:\n      swap1\n      0x00\n      mstore\n      keccak256(0x00, 0x20)\n      swap1\n      0x04\n      mul\n      add\n        /* \"contracts/trace.sol\":6875:6894  traces[i].timestamp */\n      0x02\n      add\n      sload\n        /* \"contracts/trace.sol\":6917:6923  traces */\n      dup5\n        /* \"contracts/trace.sol\":6924:6925  i */\n      dup5\n        /* \"contracts/trace.sol\":6917:6926  traces[i] */\n      dup2\n      sload\n      dup2\n      lt\n      tag_93\n      jumpi\n      tag_94\n      tag_84\n      jump\t// in\n    tag_94:\n    tag_93:\n      swap1\n      0x00\n      mstore\n      keccak256(0x00, 0x20)\n      swap1\n      0x04\n      mul\n      add\n        /* \"contracts/trace.sol\":6917:6933  traces[i].author */\n      0x03\n      add\n      0x00\n      swap1\n      sload\n      swap1\n      0x0100\n      exp\n      swap1\n      div\n      0xffffffffffffffffffffffffffffffffffffffff\n      and\n        /* \"contracts/trace.sol\":6956:6962  traces */\n      dup6\n        /* \"contracts/trace.sol\":6963:6964  i */\n      dup6\n        /* \"contracts/trace.sol\":6956:6965  traces[i] */\n      dup2\n      sload\n      dup2\n      lt\n      tag_96\n      jumpi\n      tag_97\n      tag_84\n      jump\t// in\n    tag_97:\n    tag_96:\n      swap1\n      0x00\n      mstore\n      keccak256(0x00, 0x20)\n      swap1\n      0x04\n      mul\n      add\n        /* \"contracts/trace.sol\":6956:6971  traces[i].state */\n      0x03\n      add\n      0x14\n      swap1\n      sload\n      swap1\n      0x0100\n      exp\n      swap1\n      div\n      0xff\n      and\n        /* \"contracts/trace.sol\":6764:6990  return (... */\n      dup4\n      dup1\n      sload\n      tag_99\n      swap1\n      tag_55\n      jump\t// in\n    tag_99:\n      dup1\n      0x1f\n      add\n      0x20\n      dup1\n      swap2\n      div\n      mul\n      0x20\n      add\n      mload(0x40)\n      swap1\n      dup2\n      add\n      0x40\n      mstore\n      dup1\n      swap3\n      swap2\n      swap1\n      dup2\n      dup2\n      mstore\n      0x20\n      add\n      dup3\n      dup1\n      sload\n      tag_100\n      swap1\n      tag_55\n      jump\t// in\n    tag_100:\n      dup1\n      iszero\n      tag_101\n      jumpi\n      dup1\n      0x1f\n      lt\n      tag_102\n      jumpi\n      0x0100\n      dup1\n      dup4\n      sload\n      div\n      mul\n      dup4\n      mstore\n      swap2\n      0x20\n      add\n      swap2\n      jump(tag_101)\n    tag_102:\n      dup3\n      add\n      swap2\n      swap1\n      0x00\n      mstore\n      keccak256(0x00, 0x20)\n      swap1\n    tag_103:\n      dup2\n      sload\n      dup2\n      mstore\n      swap1\n      0x01\n      add\n      swap1\n      0x20\n      add\n      dup1\n      dup4\n      gt\n      tag_103\n      jumpi\n      dup3\n      swap1\n      sub\n      0x1f\n      and\n      dup3\n      add\n      swap2\n    tag_101:\n      pop\n      pop\n      pop\n      pop\n      pop\n      swap4\n      pop\n      swap8\n      pop\n      swap8\n      pop\n      swap8\n      pop\n      swap8\n      pop\n      swap8\n      pop\n      pop\n      pop\n      pop\n      jump(tag_75)\n        /* \"contracts/trace.sol\":6715:7006  if (traces[i].id == _traceId) {... */\n    tag_86:\n        /* \"contracts/trace.sol\":6695:6698  i++ */\n      dup1\n      dup1\n      0x01\n      add\n      swap2\n      pop\n      pop\n        /* \"contracts/trace.sol\":6656:7017  for (uint256 i = 0; i < traces.length; i++) {... */\n      jump(tag_79)\n    tag_80:\n      pop\n        /* \"contracts/trace.sol\":7027:7052  revert(\"Trace not found\") */\n      mload(0x40)\n      0x08c379a000000000000000000000000000000000000000000000000000000000\n      dup2\n      mstore\n      0x04\n      add\n      tag_104\n      swap1\n      tag_78\n      jump\t// in\n    tag_104:\n      mload(0x40)\n      dup1\n      swap2\n      sub\n      swap1\n      revert\n        /* \"contracts/trace.sol\":6184:7060  function getTraceById(bytes32 _traceId) ... */\n    tag_75:\n      swap2\n      swap4\n      swap6\n      swap1\n      swap3\n      swap5\n      pop\n      jump\t// out\n        /* \"contracts/trace.sol\":4425:5322  function getProductTracesByAuthor(bytes32 _productId, address _author) ... */\n    tag_26:\n        /* \"contracts/trace.sol\":4582:4596  Trace[] memory */\n      0x60\n        /* \"contracts/trace.sol\":4552:4562  _productId */\n      dup3\n        /* \"contracts/trace.sol\":1195:1203  products */\n      0x00\n        /* \"contracts/trace.sol\":1195:1215  products[_productId] */\n      dup1\n        /* \"contracts/trace.sol\":1204:1214  _productId */\n      dup3\n        /* \"contracts/trace.sol\":1195:1215  products[_productId] */\n      dup2\n      mstore\n      0x20\n      add\n      swap1\n      dup2\n      mstore\n      0x20\n      add\n      0x00\n      keccak256\n        /* \"contracts/trace.sol\":1195:1222  products[_productId].exists */\n      0x05\n      add\n      0x15\n      swap1\n      sload\n      swap1\n      0x0100\n      exp\n      swap1\n      div\n      0xff\n      and\n        /* \"contracts/trace.sol\":1187:1249  require(products[_productId].exists, \"Product does not exist\") */\n      tag_106\n      jumpi\n      mload(0x40)\n      0x08c379a000000000000000000000000000000000000000000000000000000000\n      dup2\n      mstore\n      0x04\n      add\n      tag_107\n      swap1\n      tag_52\n      jump\t// in\n    tag_107:\n      mload(0x40)\n      dup1\n      swap2\n      sub\n      swap1\n      revert\n    tag_106:\n        /* \"contracts/trace.sol\":4615:4640  Trace[] storage allTraces */\n      0x00\n        /* \"contracts/trace.sol\":4643:4656  productTraces */\n      0x01\n        /* \"contracts/trace.sol\":4643:4668  productTraces[_productId] */\n      0x00\n        /* \"contracts/trace.sol\":4657:4667  _productId */\n      dup7\n        /* \"contracts/trace.sol\":4643:4668  productTraces[_productId] */\n      dup2\n      mstore\n      0x20\n      add\n      swap1\n      dup2\n      mstore\n      0x20\n      add\n      0x00\n      keccak256\n        /* \"contracts/trace.sol\":4615:4668  Trace[] storage allTraces = productTraces[_productId] */\n      swap1\n      pop\n        /* \"contracts/trace.sol\":4679:4692  uint256 count */\n      0x00\n        /* \"contracts/trace.sol\":4754:4763  uint256 i */\n      dup1\n        /* \"contracts/trace.sol\":4749:4900  for (uint256 i = 0; i < allTraces.length; i++) {... */\n    tag_109:\n        /* \"contracts/trace.sol\":4773:4782  allTraces */\n      dup3\n        /* \"contracts/trace.sol\":4773:4789  allTraces.length */\n      dup1\n      sload\n      swap1\n      pop\n        /* \"contracts/trace.sol\":4769:4770  i */\n      dup2\n        /* \"contracts/trace.sol\":4769:4789  i < allTraces.length */\n      lt\n        /* \"contracts/trace.sol\":4749:4900  for (uint256 i = 0; i < allTraces.length; i++) {... */\n      iszero\n      tag_110\n      jumpi\n        /* \"contracts/trace.sol\":4838:4845  _author */\n      dup6\n        /* \"contracts/trace.sol\":4815:4845  allTraces[i].author == _author */\n      0xffffffffffffffffffffffffffffffffffffffff\n      and\n        /* \"contracts/trace.sol\":4815:4824  allTraces */\n      dup4\n        /* \"contracts/trace.sol\":4825:4826  i */\n      dup3\n        /* \"contracts/trace.sol\":4815:4827  allTraces[i] */\n      dup2\n      sload\n      dup2\n      lt\n      tag_112\n      jumpi\n      tag_113\n      tag_84\n      jump\t// in\n    tag_113:\n    tag_112:\n      swap1\n      0x00\n      mstore\n      keccak256(0x00, 0x20)\n      swap1\n      0x04\n      mul\n      add\n        /* \"contracts/trace.sol\":4815:4834  allTraces[i].author */\n      0x03\n      add\n      0x00\n      swap1\n      sload\n      swap1\n      0x0100\n      exp\n      swap1\n      div\n      0xffffffffffffffffffffffffffffffffffffffff\n      and\n        /* \"contracts/trace.sol\":4815:4845  allTraces[i].author == _author */\n      0xffffffffffffffffffffffffffffffffffffffff\n      and\n      sub\n        /* \"contracts/trace.sol\":4811:4889  if (allTraces[i].author == _author) {... */\n      tag_115\n      jumpi\n        /* \"contracts/trace.sol\":4866:4873  count++ */\n      dup2\n      dup1\n      tag_116\n      swap1\n      tag_117\n      jump\t// in\n    tag_116:\n      swap3\n      pop\n      pop\n        /* \"contracts/trace.sol\":4811:4889  if (allTraces[i].author == _author) {... */\n    tag_115:\n        /* \"contracts/trace.sol\":4791:4794  i++ */\n      dup1\n      dup1\n      0x01\n      add\n      swap2\n      pop\n      pop\n        /* \"contracts/trace.sol\":4749:4900  for (uint256 i = 0; i < allTraces.length; i++) {... */\n      jump(tag_109)\n    tag_110:\n      pop\n        /* \"contracts/trace.sol\":4960:4981  Trace[] memory result */\n      0x00\n        /* \"contracts/trace.sol\":4996:5001  count */\n      dup2\n        /* \"contracts/trace.sol\":4984:5002  new Trace[](count) */\n      0xffffffffffffffff\n      dup2\n      gt\n      iszero\n      tag_118\n      jumpi\n      tag_119\n      tag_120\n      jump\t// in\n    tag_119:\n    tag_118:\n      mload(0x40)\n      swap1\n      dup1\n      dup3\n      mstore\n      dup1\n      0x20\n      mul\n      0x20\n      add\n      dup3\n      add\n      0x40\n      mstore\n      dup1\n      iszero\n      tag_121\n      jumpi\n      dup2\n      0x20\n      add\n    tag_122:\n      tag_123\n      tag_124\n      jump\t// in\n    tag_123:\n      dup2\n      mstore\n      0x20\n      add\n      swap1\n      0x01\n      swap1\n      sub\n      swap1\n      dup2\n      tag_122\n      jumpi\n      swap1\n      pop\n    tag_121:\n      pop\n        /* \"contracts/trace.sol\":4960:5002  Trace[] memory result = new Trace[](count) */\n      swap1\n      pop\n        /* \"contracts/trace.sol\":5013:5032  uint256 resultIndex */\n      0x00\n        /* \"contracts/trace.sol\":5084:5093  uint256 i */\n      dup1\n        /* \"contracts/trace.sol\":5079:5289  for (uint256 i = 0; i < allTraces.length; i++) {... */\n    tag_125:\n        /* \"contracts/trace.sol\":5103:5112  allTraces */\n      dup5\n        /* \"contracts/trace.sol\":5103:5119  allTraces.length */\n      dup1\n      sload\n      swap1\n      pop\n        /* \"contracts/trace.sol\":5099:5100  i */\n      dup2\n        /* \"contracts/trace.sol\":5099:5119  i < allTraces.length */\n      lt\n        /* \"contracts/trace.sol\":5079:5289  for (uint256 i = 0; i < allTraces.length; i++) {... */\n      iszero\n      tag_126\n      jumpi\n        /* \"contracts/trace.sol\":5168:5175  _author */\n      dup8\n        /* \"contracts/trace.sol\":5145:5175  allTraces[i].author == _author */\n      0xffffffffffffffffffffffffffffffffffffffff\n      and\n        /* \"contracts/trace.sol\":5145:5154  allTraces */\n      dup6\n        /* \"contracts/trace.sol\":5155:5156  i */\n      dup3\n        /* \"contracts/trace.sol\":5145:5157  allTraces[i] */\n      dup2\n      sload\n      dup2\n      lt\n      tag_128\n      jumpi\n      tag_129\n      tag_84\n      jump\t// in\n    tag_129:\n    tag_128:\n      swap1\n      0x00\n      mstore\n      keccak256(0x00, 0x20)\n      swap1\n      0x04\n      mul\n      add\n        /* \"contracts/trace.sol\":5145:5164  allTraces[i].author */\n      0x03\n      add\n      0x00\n      swap1\n      sload\n      swap1\n      0x0100\n      exp\n      swap1\n      div\n      0xffffffffffffffffffffffffffffffffffffffff\n      and\n        /* \"contracts/trace.sol\":5145:5175  allTraces[i].author == _author */\n      0xffffffffffffffffffffffffffffffffffffffff\n      and\n      sub\n        /* \"contracts/trace.sol\":5141:5278  if (allTraces[i].author == _author) {... */\n      tag_131\n      jumpi\n        /* \"contracts/trace.sol\":5218:5227  allTraces */\n      dup5\n        /* \"contracts/trace.sol\":5228:5229  i */\n      dup2\n        /* \"contracts/trace.sol\":5218:5230  allTraces[i] */\n      dup2\n      sload\n      dup2\n      lt\n      tag_132\n      jumpi\n      tag_133\n      tag_84\n      jump\t// in\n    tag_133:\n    tag_132:\n      swap1\n      0x00\n      mstore\n      keccak256(0x00, 0x20)\n      swap1\n      0x04\n      mul\n      add\n        /* \"contracts/trace.sol\":5196:5230  result[resultIndex] = allTraces[i] */\n      mload(0x40)\n      dup1\n      0xa0\n      add\n      0x40\n      mstore\n      swap1\n      dup2\n      0x00\n      dup3\n      add\n      sload\n      dup2\n      mstore\n      0x20\n      add\n      0x01\n      dup3\n      add\n      dup1\n      sload\n      tag_135\n      swap1\n      tag_55\n      jump\t// in\n    tag_135:\n      dup1\n      0x1f\n      add\n      0x20\n      dup1\n      swap2\n      div\n      mul\n      0x20\n      add\n      mload(0x40)\n      swap1\n      dup2\n      add\n      0x40\n      mstore\n      dup1\n      swap3\n      swap2\n      swap1\n      dup2\n      dup2\n      mstore\n      0x20\n      add\n      dup3\n      dup1\n      sload\n      tag_136\n      swap1\n      tag_55\n      jump\t// in\n    tag_136:\n      dup1\n      iszero\n      tag_137\n      jumpi\n      dup1\n      0x1f\n      lt\n      tag_138\n      jumpi\n      0x0100\n      dup1\n      dup4\n      sload\n      div\n      mul\n      dup4\n      mstore\n      swap2\n      0x20\n      add\n      swap2\n      jump(tag_137)\n    tag_138:\n      dup3\n      add\n      swap2\n      swap1\n      0x00\n      mstore\n      keccak256(0x00, 0x20)\n      swap1\n    tag_139:\n      dup2\n      sload\n      dup2\n      mstore\n      swap1\n      0x01\n      add\n      swap1\n      0x20\n      add\n      dup1\n      dup4\n      gt\n      tag_139\n      jumpi\n      dup3\n      swap1\n      sub\n      0x1f\n      and\n      dup3\n      add\n      swap2\n    tag_137:\n      pop\n      pop\n      pop\n      pop\n      pop\n      dup2\n      mstore\n      0x20\n      add\n      0x02\n      dup3\n      add\n      sload\n      dup2\n      mstore\n      0x20\n      add\n      0x03\n      dup3\n      add\n      0x00\n      swap1\n      sload\n      swap1\n      0x0100\n      exp\n      swap1\n      div\n      0xffffffffffffffffffffffffffffffffffffffff\n      and\n      0xffffffffffffffffffffffffffffffffffffffff\n      and\n      0xffffffffffffffffffffffffffffffffffffffff\n      and\n      dup2\n      mstore\n      0x20\n      add\n      0x03\n      dup3\n      add\n      0x14\n      swap1\n      sload\n      swap1\n      0x0100\n      exp\n      swap1\n      div\n      0xff\n      and\n      0x01\n      dup2\n      gt\n      iszero\n      tag_140\n      jumpi\n      tag_141\n      tag_72\n      jump\t// in\n    tag_141:\n    tag_140:\n      0x01\n      dup2\n      gt\n      iszero\n      tag_142\n      jumpi\n      tag_143\n      tag_72\n      jump\t// in\n    tag_143:\n    tag_142:\n      dup2\n      mstore\n      pop\n      pop\n        /* \"contracts/trace.sol\":5196:5202  result */\n      dup4\n        /* \"contracts/trace.sol\":5203:5214  resultIndex */\n      dup4\n        /* \"contracts/trace.sol\":5196:5215  result[resultIndex] */\n      dup2\n      mload\n      dup2\n      lt\n      tag_144\n      jumpi\n      tag_145\n      tag_84\n      jump\t// in\n    tag_145:\n    tag_144:\n      0x20\n      mul\n      0x20\n      add\n      add\n        /* \"contracts/trace.sol\":5196:5230  result[resultIndex] = allTraces[i] */\n      dup2\n      swap1\n      mstore\n      pop\n        /* \"contracts/trace.sol\":5249:5262  resultIndex++ */\n      dup2\n      dup1\n      tag_146\n      swap1\n      tag_117\n      jump\t// in\n    tag_146:\n      swap3\n      pop\n      pop\n        /* \"contracts/trace.sol\":5141:5278  if (allTraces[i].author == _author) {... */\n    tag_131:\n        /* \"contracts/trace.sol\":5121:5124  i++ */\n      dup1\n      dup1\n      0x01\n      add\n      swap2\n      pop\n      pop\n        /* \"contracts/trace.sol\":5079:5289  for (uint256 i = 0; i < allTraces.length; i++) {... */\n      jump(tag_125)\n    tag_126:\n      pop\n        /* \"contracts/trace.sol\":5308:5314  result */\n      dup2\n        /* \"contracts/trace.sol\":5301:5314  return result */\n      swap6\n      pop\n      pop\n      pop\n      pop\n      pop\n        /* \"contracts/trace.sol\":4425:5322  function getProductTracesByAuthor(bytes32 _productId, address _author) ... */\n      pop\n      swap3\n      swap2\n      pop\n      pop\n      jump\t// out\n        /* \"contracts/trace.sol\":7068:7171  function getAllProductIds() public view returns (bytes32[] memory) {... */\n    tag_30:\n        /* \"contracts/trace.sol\":7117:7133  bytes32[] memory */\n      0x60\n        /* \"contracts/trace.sol\":7153:7163  productIds */\n      0x03\n        /* \"contracts/trace.sol\":7146:7163  return productIds */\n      dup1\n      sload\n      dup1\n      0x20\n      mul\n      0x20\n      add\n      mload(0x40)\n      swap1\n      dup2\n      add\n      0x40\n      mstore\n      dup1\n      swap3\n      swap2\n      swap1\n      dup2\n      dup2\n      mstore\n      0x20\n      add\n      dup3\n      dup1\n      sload\n      dup1\n      iszero\n      tag_148\n      jumpi\n      0x20\n      mul\n      dup3\n      add\n      swap2\n      swap1\n      0x00\n      mstore\n      keccak256(0x00, 0x20)\n      swap1\n    tag_149:\n      dup2\n      sload\n      dup2\n      mstore\n      0x20\n      add\n      swap1\n      0x01\n      add\n      swap1\n      dup1\n      dup4\n      gt\n      tag_149\n      jumpi\n    tag_148:\n      pop\n      pop\n      pop\n      pop\n      pop\n      swap1\n      pop\n        /* \"contracts/trace.sol\":7068:7171  function getAllProductIds() public view returns (bytes32[] memory) {... */\n      swap1\n      jump\t// out\n        /* \"contracts/trace.sol\":3465:4204  function addTrace(bytes32 _productId, string memory _description) ... */\n    tag_36:\n        /* \"contracts/trace.sol\":3572:3582  _productId */\n      dup2\n        /* \"contracts/trace.sol\":1195:1203  products */\n      0x00\n        /* \"contracts/trace.sol\":1195:1215  products[_productId] */\n      dup1\n        /* \"contracts/trace.sol\":1204:1214  _productId */\n      dup3\n        /* \"contracts/trace.sol\":1195:1215  products[_productId] */\n      dup2\n      mstore\n      0x20\n      add\n      swap1\n      dup2\n      mstore\n      0x20\n      add\n      0x00\n      keccak256\n        /* \"contracts/trace.sol\":1195:1222  products[_productId].exists */\n      0x05\n      add\n      0x15\n      swap1\n      sload\n      swap1\n      0x0100\n      exp\n      swap1\n      div\n      0xff\n      and\n        /* \"contracts/trace.sol\":1187:1249  require(products[_productId].exists, \"Product does not exist\") */\n      tag_151\n      jumpi\n      mload(0x40)\n      0x08c379a000000000000000000000000000000000000000000000000000000000\n      dup2\n      mstore\n      0x04\n      add\n      tag_152\n      swap1\n      tag_52\n      jump\t// in\n    tag_152:\n      mload(0x40)\n      dup1\n      swap2\n      sub\n      swap1\n      revert\n    tag_151:\n        /* \"contracts/trace.sol\":3607:3617  _productId */\n      dup3\n        /* \"contracts/trace.sol\":1369:1381  State.Active */\n      0x00\n        /* \"contracts/trace.sol\":1339:1381  products[_productId].state == State.Active */\n      0x01\n      dup2\n      gt\n      iszero\n      tag_154\n      jumpi\n      tag_155\n      tag_72\n      jump\t// in\n    tag_155:\n    tag_154:\n        /* \"contracts/trace.sol\":1339:1347  products */\n      0x00\n        /* \"contracts/trace.sol\":1339:1359  products[_productId] */\n      dup1\n        /* \"contracts/trace.sol\":1348:1358  _productId */\n      dup4\n        /* \"contracts/trace.sol\":1339:1359  products[_productId] */\n      dup2\n      mstore\n      0x20\n      add\n      swap1\n      dup2\n      mstore\n      0x20\n      add\n      0x00\n      keccak256\n        /* \"contracts/trace.sol\":1339:1365  products[_productId].state */\n      0x05\n      add\n      0x14\n      swap1\n      sload\n      swap1\n      0x0100\n      exp\n      swap1\n      div\n      0xff\n      and\n        /* \"contracts/trace.sol\":1339:1381  products[_productId].state == State.Active */\n      0x01\n      dup2\n      gt\n      iszero\n      tag_156\n      jumpi\n      tag_157\n      tag_72\n      jump\t// in\n    tag_157:\n    tag_156:\n      eq\n        /* \"contracts/trace.sol\":1331:1404  require(products[_productId].state == State.Active, \"Product not active\") */\n      tag_158\n      jumpi\n      mload(0x40)\n      0x08c379a000000000000000000000000000000000000000000000000000000000\n      dup2\n      mstore\n      0x04\n      add\n      tag_159\n      swap1\n      tag_160\n      jump\t// in\n    tag_159:\n      mload(0x40)\n      dup1\n      swap2\n      sub\n      swap1\n      revert\n    tag_158:\n        /* \"contracts/trace.sol\":3672:3673  0 */\n      0x00\n        /* \"contracts/trace.sol\":3649:3661  _description */\n      dup4\n        /* \"contracts/trace.sol\":3643:3669  bytes(_description).length */\n      mload\n        /* \"contracts/trace.sol\":3643:3673  bytes(_description).length > 0 */\n      gt\n        /* \"contracts/trace.sol\":3635:3711  require(bytes(_description).length > 0, \"Trace description cannot be empty\") */\n      tag_162\n      jumpi\n      mload(0x40)\n      0x08c379a000000000000000000000000000000000000000000000000000000000\n      dup2\n      mstore\n      0x04\n      add\n      tag_163\n      swap1\n      tag_164\n      jump\t// in\n    tag_163:\n      mload(0x40)\n      dup1\n      swap2\n      sub\n      swap1\n      revert\n    tag_162:\n        /* \"contracts/trace.sol\":3724:3739  bytes32 traceId */\n      0x00\n        /* \"contracts/trace.sol\":3769:3779  _productId */\n      dup5\n        /* \"contracts/trace.sol\":3781:3796  block.timestamp */\n      timestamp\n        /* \"contracts/trace.sol\":3798:3808  msg.sender */\n      caller\n        /* \"contracts/trace.sol\":3810:3822  _description */\n      dup7\n        /* \"contracts/trace.sol\":3752:3823  abi.encodePacked(_productId, block.timestamp, msg.sender, _description) */\n      add(0x20, mload(0x40))\n      tag_165\n      swap5\n      swap4\n      swap3\n      swap2\n      swap1\n      tag_166\n      jump\t// in\n    tag_165:\n      mload(0x40)\n      0x20\n      dup2\n      dup4\n      sub\n      sub\n      dup2\n      mstore\n      swap1\n      0x40\n      mstore\n        /* \"contracts/trace.sol\":3742:3824  keccak256(abi.encodePacked(_productId, block.timestamp, msg.sender, _description)) */\n      dup1\n      mload\n      swap1\n      0x20\n      add\n      keccak256\n        /* \"contracts/trace.sol\":3724:3824  bytes32 traceId = keccak256(abi.encodePacked(_productId, block.timestamp, msg.sender, _description)) */\n      swap1\n      pop\n        /* \"contracts/trace.sol\":3835:3856  Trace memory newTrace */\n      0x00\n        /* \"contracts/trace.sol\":3859:4006  Trace(... */\n      mload(0x40)\n      dup1\n      0xa0\n      add\n      0x40\n      mstore\n      dup1\n        /* \"contracts/trace.sol\":3879:3886  traceId */\n      dup4\n        /* \"contracts/trace.sol\":3859:4006  Trace(... */\n      dup2\n      mstore\n      0x20\n      add\n        /* \"contracts/trace.sol\":3901:3913  _description */\n      dup7\n        /* \"contracts/trace.sol\":3859:4006  Trace(... */\n      dup2\n      mstore\n      0x20\n      add\n        /* \"contracts/trace.sol\":3928:3943  block.timestamp */\n      timestamp\n        /* \"contracts/trace.sol\":3859:4006  Trace(... */\n      dup2\n      mstore\n      0x20\n      add\n        /* \"contracts/trace.sol\":3958:3968  msg.sender */\n      caller\n        /* \"contracts/trace.sol\":3859:4006  Trace(... */\n      0xffffffffffffffffffffffffffffffffffffffff\n      and\n      dup2\n      mstore\n      0x20\n      add\n        /* \"contracts/trace.sol\":3983:3995  State.Active */\n      0x00\n        /* \"contracts/trace.sol\":3859:4006  Trace(... */\n      0x01\n      dup2\n      gt\n      iszero\n      tag_167\n      jumpi\n      tag_168\n      tag_72\n      jump\t// in\n    tag_168:\n    tag_167:\n      dup2\n      mstore\n      pop\n        /* \"contracts/trace.sol\":3835:4006  Trace memory newTrace = Trace(... */\n      swap1\n      pop\n        /* \"contracts/trace.sol\":4019:4032  productTraces */\n      0x01\n        /* \"contracts/trace.sol\":4019:4044  productTraces[_productId] */\n      0x00\n        /* \"contracts/trace.sol\":4033:4043  _productId */\n      dup8\n        /* \"contracts/trace.sol\":4019:4044  productTraces[_productId] */\n      dup2\n      mstore\n      0x20\n      add\n      swap1\n      dup2\n      mstore\n      0x20\n      add\n      0x00\n      keccak256\n        /* \"contracts/trace.sol\":4050:4058  newTrace */\n      dup2\n        /* \"contracts/trace.sol\":4019:4059  productTraces[_productId].push(newTrace) */\n      swap1\n      dup1\n      0x01\n      dup2\n      sload\n      add\n      dup1\n      dup3\n      sstore\n      dup1\n      swap2\n      pop\n      pop\n      0x01\n      swap1\n      sub\n      swap1\n      0x00\n      mstore\n      keccak256(0x00, 0x20)\n      swap1\n      0x04\n      mul\n      add\n      0x00\n      swap1\n      swap2\n      swap1\n      swap2\n      swap1\n      swap2\n      pop\n      0x00\n      dup3\n      add\n      mload\n      dup2\n      0x00\n      add\n      sstore\n      0x20\n      dup3\n      add\n      mload\n      dup2\n      0x01\n      add\n      swap1\n      dup2\n      tag_170\n      swap2\n      swap1\n      tag_171\n      jump\t// in\n    tag_170:\n      pop\n      0x40\n      dup3\n      add\n      mload\n      dup2\n      0x02\n      add\n      sstore\n      0x60\n      dup3\n      add\n      mload\n      dup2\n      0x03\n      add\n      exp(0x0100, 0x00)\n      dup2\n      sload\n      dup2\n      0xffffffffffffffffffffffffffffffffffffffff\n      mul\n      not\n      and\n      swap1\n      dup4\n      0xffffffffffffffffffffffffffffffffffffffff\n      and\n      mul\n      or\n      swap1\n      sstore\n      pop\n      0x80\n      dup3\n      add\n      mload\n      dup2\n      0x03\n      add\n      exp(0x0100, 0x14)\n      dup2\n      sload\n      dup2\n      0xff\n      mul\n      not\n      and\n      swap1\n      dup4\n      0x01\n      dup2\n      gt\n      iszero\n      tag_172\n      jumpi\n      tag_173\n      tag_72\n      jump\t// in\n    tag_173:\n    tag_172:\n      mul\n      or\n      swap1\n      sstore\n      pop\n      pop\n      pop\n        /* \"contracts/trace.sol\":4096:4106  _productId */\n      dup6\n        /* \"contracts/trace.sol\":4070:4084  traceToProduct */\n      0x02\n        /* \"contracts/trace.sol\":4070:4093  traceToProduct[traceId] */\n      0x00\n        /* \"contracts/trace.sol\":4085:4092  traceId */\n      dup5\n        /* \"contracts/trace.sol\":4070:4093  traceToProduct[traceId] */\n      dup2\n      mstore\n      0x20\n      add\n      swap1\n      dup2\n      mstore\n      0x20\n      add\n      0x00\n      keccak256\n        /* \"contracts/trace.sol\":4070:4106  traceToProduct[traceId] = _productId */\n      dup2\n      swap1\n      sstore\n      pop\n        /* \"contracts/trace.sol\":4145:4152  traceId */\n      dup2\n        /* \"contracts/trace.sol\":4133:4143  _productId */\n      dup7\n        /* \"contracts/trace.sol\":4122:4196  TraceAdded(_productId, traceId, _description, block.timestamp, msg.sender) */\n      0xfc7f09d226b2e852bd3f04f352adab8a4e00b078d16e635f5a5102e2ac721fc8\n        /* \"contracts/trace.sol\":4154:4166  _description */\n      dup8\n        /* \"contracts/trace.sol\":4168:4183  block.timestamp */\n      timestamp\n        /* \"contracts/trace.sol\":4185:4195  msg.sender */\n      caller\n        /* \"contracts/trace.sol\":4122:4196  TraceAdded(_productId, traceId, _description, block.timestamp, msg.sender) */\n      mload(0x40)\n      tag_174\n      swap4\n      swap3\n      swap2\n      swap1\n      tag_175\n      jump\t// in\n    tag_174:\n      mload(0x40)\n      dup1\n      swap2\n      sub\n      swap1\n      log3\n        /* \"contracts/trace.sol\":3624:4204  {... */\n      pop\n      pop\n        /* \"contracts/trace.sol\":1260:1261  _ */\n      pop\n        /* \"contracts/trace.sol\":3465:4204  function addTrace(bytes32 _productId, string memory _description) ... */\n      pop\n      pop\n      pop\n      jump\t// out\n        /* \"contracts/trace.sol\":5330:5556  function setProductState(bytes32 _productId, State _state) ... */\n    tag_40:\n        /* \"contracts/trace.sol\":5430:5440  _productId */\n      dup2\n        /* \"contracts/trace.sol\":1195:1203  products */\n      0x00\n        /* \"contracts/trace.sol\":1195:1215  products[_productId] */\n      dup1\n        /* \"contracts/trace.sol\":1204:1214  _productId */\n      dup3\n        /* \"contracts/trace.sol\":1195:1215  products[_productId] */\n      dup2\n      mstore\n      0x20\n      add\n      swap1\n      dup2\n      mstore\n      0x20\n      add\n      0x00\n      keccak256\n        /* \"contracts/trace.sol\":1195:1222  products[_productId].exists */\n      0x05\n      add\n      0x15\n      swap1\n      sload\n      swap1\n      0x0100\n      exp\n      swap1\n      div\n      0xff\n      and\n        /* \"contracts/trace.sol\":1187:1249  require(products[_productId].exists, \"Product does not exist\") */\n      tag_177\n      jumpi\n      mload(0x40)\n      0x08c379a000000000000000000000000000000000000000000000000000000000\n      dup2\n      mstore\n      0x04\n      add\n      tag_178\n      swap1\n      tag_52\n      jump\t// in\n    tag_178:\n      mload(0x40)\n      dup1\n      swap2\n      sub\n      swap1\n      revert\n    tag_177:\n        /* \"contracts/trace.sol\":5487:5493  _state */\n      dup2\n        /* \"contracts/trace.sol\":5458:5466  products */\n      0x00\n        /* \"contracts/trace.sol\":5458:5478  products[_productId] */\n      dup1\n        /* \"contracts/trace.sol\":5467:5477  _productId */\n      dup6\n        /* \"contracts/trace.sol\":5458:5478  products[_productId] */\n      dup2\n      mstore\n      0x20\n      add\n      swap1\n      dup2\n      mstore\n      0x20\n      add\n      0x00\n      keccak256\n        /* \"contracts/trace.sol\":5458:5484  products[_productId].state */\n      0x05\n      add\n      0x14\n        /* \"contracts/trace.sol\":5458:5493  products[_productId].state = _state */\n      0x0100\n      exp\n      dup2\n      sload\n      dup2\n      0xff\n      mul\n      not\n      and\n      swap1\n      dup4\n      0x01\n      dup2\n      gt\n      iszero\n      tag_180\n      jumpi\n      tag_181\n      tag_72\n      jump\t// in\n    tag_181:\n    tag_180:\n      mul\n      or\n      swap1\n      sstore\n      pop\n        /* \"contracts/trace.sol\":5529:5539  _productId */\n      dup3\n        /* \"contracts/trace.sol\":5509:5548  ProductStateChanged(_productId, _state) */\n      0x6b42974450f95b3d498669e78c1d60139454f4e6c64187cfb138c2d7dbf2aa16\n        /* \"contracts/trace.sol\":5541:5547  _state */\n      dup4\n        /* \"contracts/trace.sol\":5509:5548  ProductStateChanged(_productId, _state) */\n      mload(0x40)\n      tag_182\n      swap2\n      swap1\n      tag_183\n      jump\t// in\n    tag_182:\n      mload(0x40)\n      dup1\n      swap2\n      sub\n      swap1\n      log2\n        /* \"contracts/trace.sol\":5330:5556  function setProductState(bytes32 _productId, State _state) ... */\n      pop\n      pop\n      pop\n      jump\t// out\n        /* \"contracts/trace.sol\":4212:4417  function getProductTraces(bytes32 _productId) ... */\n    tag_43:\n        /* \"contracts/trace.sol\":4344:4358  Trace[] memory */\n      0x60\n        /* \"contracts/trace.sol\":4314:4324  _productId */\n      dup2\n        /* \"contracts/trace.sol\":1195:1203  products */\n      0x00\n        /* \"contracts/trace.sol\":1195:1215  products[_productId] */\n      dup1\n        /* \"contracts/trace.sol\":1204:1214  _productId */\n      dup3\n        /* \"contracts/trace.sol\":1195:1215  products[_productId] */\n      dup2\n      mstore\n      0x20\n      add\n      swap1\n      dup2\n      mstore\n      0x20\n      add\n      0x00\n      keccak256\n        /* \"contracts/trace.sol\":1195:1222  products[_productId].exists */\n      0x05\n      add\n      0x15\n      swap1\n      sload\n      swap1\n      0x0100\n      exp\n      swap1\n      div\n      0xff\n      and\n        /* \"contracts/trace.sol\":1187:1249  require(products[_productId].exists, \"Product does not exist\") */\n      tag_185\n      jumpi\n      mload(0x40)\n      0x08c379a000000000000000000000000000000000000000000000000000000000\n      dup2\n      mstore\n      0x04\n      add\n      tag_186\n      swap1\n      tag_52\n      jump\t// in\n    tag_186:\n      mload(0x40)\n      dup1\n      swap2\n      sub\n      swap1\n      revert\n    tag_185:\n        /* \"contracts/trace.sol\":4384:4397  productTraces */\n      0x01\n        /* \"contracts/trace.sol\":4384:4409  productTraces[_productId] */\n      0x00\n        /* \"contracts/trace.sol\":4398:4408  _productId */\n      dup5\n        /* \"contracts/trace.sol\":4384:4409  productTraces[_productId] */\n      dup2\n      mstore\n      0x20\n      add\n      swap1\n      dup2\n      mstore\n      0x20\n      add\n      0x00\n      keccak256\n        /* \"contracts/trace.sol\":4377:4409  return productTraces[_productId] */\n      dup1\n      sload\n      dup1\n      0x20\n      mul\n      0x20\n      add\n      mload(0x40)\n      swap1\n      dup2\n      add\n      0x40\n      mstore\n      dup1\n      swap3\n      swap2\n      swap1\n      dup2\n      dup2\n      mstore\n      0x20\n      add\n      0x00\n      swap1\n    tag_188:\n      dup3\n      dup3\n      lt\n      iszero\n      tag_189\n      jumpi\n      dup4\n      dup3\n      swap1\n      0x00\n      mstore\n      keccak256(0x00, 0x20)\n      swap1\n      0x04\n      mul\n      add\n      mload(0x40)\n      dup1\n      0xa0\n      add\n      0x40\n      mstore\n      swap1\n      dup2\n      0x00\n      dup3\n      add\n      sload\n      dup2\n      mstore\n      0x20\n      add\n      0x01\n      dup3\n      add\n      dup1\n      sload\n      tag_191\n      swap1\n      tag_55\n      jump\t// in\n    tag_191:\n      dup1\n      0x1f\n      add\n      0x20\n      dup1\n      swap2\n      div\n      mul\n      0x20\n      add\n      mload(0x40)\n      swap1\n      dup2\n      add\n      0x40\n      mstore\n      dup1\n      swap3\n      swap2\n      swap1\n      dup2\n      dup2\n      mstore\n      0x20\n      add\n      dup3\n      dup1\n      sload\n      tag_192\n      swap1\n      tag_55\n      jump\t// in\n    tag_192:\n      dup1\n      iszero\n      tag_193\n      jumpi\n      dup1\n      0x1f\n      lt\n      tag_194\n      jumpi\n      0x0100\n      dup1\n      dup4\n      sload\n      div\n      mul\n      dup4\n      mstore\n      swap2\n      0x20\n      add\n      swap2\n      jump(tag_193)\n    tag_194:\n      dup3\n      add\n      swap2\n      swap1\n      0x00\n      mstore\n      keccak256(0x00, 0x20)\n      swap1\n    tag_195:\n      dup2\n      sload\n      dup2\n      mstore\n      swap1\n      0x01\n      add\n      swap1\n      0x20\n      add\n      dup1\n      dup4\n      gt\n      tag_195\n      jumpi\n      dup3\n      swap1\n      sub\n      0x1f\n      and\n      dup3\n      add\n      swap2\n    tag_193:\n      pop\n      pop\n      pop\n      pop\n      pop\n      dup2\n      mstore\n      0x20\n      add\n      0x02\n      dup3\n      add\n      sload\n      dup2\n      mstore\n      0x20\n      add\n      0x03\n      dup3\n      add\n      0x00\n      swap1\n      sload\n      swap1\n      0x0100\n      exp\n      swap1\n      div\n      0xffffffffffffffffffffffffffffffffffffffff\n      and\n      0xffffffffffffffffffffffffffffffffffffffff\n      and\n      0xffffffffffffffffffffffffffffffffffffffff\n      and\n      dup2\n      mstore\n      0x20\n      add\n      0x03\n      dup3\n      add\n      0x14\n      swap1\n      sload\n      swap1\n      0x0100\n      exp\n      swap1\n      div\n      0xff\n      and\n      0x01\n      dup2\n      gt\n      iszero\n      tag_196\n      jumpi\n      tag_197\n      tag_72\n      jump\t// in\n    tag_197:\n    tag_196:\n      0x01\n      dup2\n      gt\n      iszero\n      tag_198\n      jumpi\n      tag_199\n      tag_72\n      jump\t// in\n    tag_199:\n    tag_198:\n      dup2\n      mstore\n      pop\n      pop\n      dup2\n      mstore\n      0x20\n      add\n      swap1\n      0x01\n      add\n      swap1\n      jump(tag_188)\n    tag_189:\n      pop\n      pop\n      pop\n      pop\n      swap2\n      pop\n        /* \"contracts/trace.sol\":4212:4417  function getProductTraces(bytes32 _productId) ... */\n      pop\n      swap2\n      swap1\n      pop\n      jump\t// out\n        /* \"contracts/trace.sol\":1806:3457  function addProduct(... */\n    tag_48:\n        /* \"contracts/trace.sol\":2007:2008  0 */\n      0x00\n        /* \"contracts/trace.sol\":1993:1996  _id */\n      dup5\n        /* \"contracts/trace.sol\":1987:2004  bytes(_id).length */\n      mload\n        /* \"contracts/trace.sol\":1987:2008  bytes(_id).length > 0 */\n      gt\n        /* \"contracts/trace.sol\":1979:2039  require(bytes(_id).length > 0, \"Product ID cannot be empty\") */\n      tag_201\n      jumpi\n      mload(0x40)\n      0x08c379a000000000000000000000000000000000000000000000000000000000\n      dup2\n      mstore\n      0x04\n      add\n      tag_202\n      swap1\n      tag_203\n      jump\t// in\n    tag_202:\n      mload(0x40)\n      dup1\n      swap2\n      sub\n      swap1\n      revert\n    tag_201:\n        /* \"contracts/trace.sol\":2083:2084  0 */\n      0x00\n        /* \"contracts/trace.sol\":2064:2072  _codebar */\n      dup4\n        /* \"contracts/trace.sol\":2058:2080  bytes(_codebar).length */\n      mload\n        /* \"contracts/trace.sol\":2058:2084  bytes(_codebar).length > 0 */\n      gt\n        /* \"contracts/trace.sol\":2050:2112  require(bytes(_codebar).length > 0, \"Codebar cannot be empty\") */\n      tag_204\n      jumpi\n      mload(0x40)\n      0x08c379a000000000000000000000000000000000000000000000000000000000\n      dup2\n      mstore\n      0x04\n      add\n      tag_205\n      swap1\n      tag_206\n      jump\t// in\n    tag_205:\n      mload(0x40)\n      dup1\n      swap2\n      sub\n      swap1\n      revert\n    tag_204:\n        /* \"contracts/trace.sol\":2153:2154  0 */\n      0x00\n        /* \"contracts/trace.sol\":2137:2142  _name */\n      dup3\n        /* \"contracts/trace.sol\":2131:2150  bytes(_name).length */\n      mload\n        /* \"contracts/trace.sol\":2131:2154  bytes(_name).length > 0 */\n      gt\n        /* \"contracts/trace.sol\":2123:2179  require(bytes(_name).length > 0, \"Name cannot be empty\") */\n      tag_207\n      jumpi\n      mload(0x40)\n      0x08c379a000000000000000000000000000000000000000000000000000000000\n      dup2\n      mstore\n      0x04\n      add\n      tag_208\n      swap1\n      tag_209\n      jump\t// in\n    tag_208:\n      mload(0x40)\n      dup1\n      swap2\n      sub\n      swap1\n      revert\n    tag_207:\n        /* \"contracts/trace.sol\":2227:2228  0 */\n      0x00\n        /* \"contracts/trace.sol\":2204:2216  _description */\n      dup2\n        /* \"contracts/trace.sol\":2198:2224  bytes(_description).length */\n      mload\n        /* \"contracts/trace.sol\":2198:2228  bytes(_description).length > 0 */\n      gt\n        /* \"contracts/trace.sol\":2190:2260  require(bytes(_description).length > 0, \"Description cannot be empty\") */\n      tag_210\n      jumpi\n      mload(0x40)\n      0x08c379a000000000000000000000000000000000000000000000000000000000\n      dup2\n      mstore\n      0x04\n      add\n      tag_211\n      swap1\n      tag_212\n      jump\t// in\n    tag_211:\n      mload(0x40)\n      dup1\n      swap2\n      sub\n      swap1\n      revert\n    tag_210:\n        /* \"contracts/trace.sol\":2281:2298  bytes32 productId */\n      0x00\n        /* \"contracts/trace.sol\":2301:2321  stringToBytes32(_id) */\n      tag_213\n        /* \"contracts/trace.sol\":2317:2320  _id */\n      dup6\n        /* \"contracts/trace.sol\":2301:2316  stringToBytes32 */\n      tag_214\n        /* \"contracts/trace.sol\":2301:2321  stringToBytes32(_id) */\n      jump\t// in\n    tag_213:\n        /* \"contracts/trace.sol\":2281:2321  bytes32 productId = stringToBytes32(_id) */\n      swap1\n      pop\n        /* \"contracts/trace.sol\":2341:2349  products */\n      0x00\n        /* \"contracts/trace.sol\":2341:2360  products[productId] */\n      dup1\n        /* \"contracts/trace.sol\":2350:2359  productId */\n      dup3\n        /* \"contracts/trace.sol\":2341:2360  products[productId] */\n      dup2\n      mstore\n      0x20\n      add\n      swap1\n      dup2\n      mstore\n      0x20\n      add\n      0x00\n      keccak256\n        /* \"contracts/trace.sol\":2341:2367  products[productId].exists */\n      0x05\n      add\n      0x15\n      swap1\n      sload\n      swap1\n      0x0100\n      exp\n      swap1\n      div\n      0xff\n      and\n        /* \"contracts/trace.sol\":2340:2367  !products[productId].exists */\n      iszero\n        /* \"contracts/trace.sol\":2332:2394  require(!products[productId].exists, \"Product already exists\") */\n      tag_215\n      jumpi\n      mload(0x40)\n      0x08c379a000000000000000000000000000000000000000000000000000000000\n      dup2\n      mstore\n      0x04\n      add\n      tag_216\n      swap1\n      tag_217\n      jump\t// in\n    tag_216:\n      mload(0x40)\n      dup1\n      swap2\n      sub\n      swap1\n      revert\n    tag_215:\n        /* \"contracts/trace.sol\":2455:2480  Product memory newProduct */\n      0x00\n        /* \"contracts/trace.sol\":2483:2696  Product(... */\n      mload(0x40)\n      dup1\n      0x0100\n      add\n      0x40\n      mstore\n      dup1\n        /* \"contracts/trace.sol\":2505:2514  productId */\n      dup4\n        /* \"contracts/trace.sol\":2483:2696  Product(... */\n      dup2\n      mstore\n      0x20\n      add\n        /* \"contracts/trace.sol\":2529:2537  _codebar */\n      dup7\n        /* \"contracts/trace.sol\":2483:2696  Product(... */\n      dup2\n      mstore\n      0x20\n      add\n        /* \"contracts/trace.sol\":2552:2557  _name */\n      dup6\n        /* \"contracts/trace.sol\":2483:2696  Product(... */\n      dup2\n      mstore\n      0x20\n      add\n        /* \"contracts/trace.sol\":2572:2584  _description */\n      dup5\n        /* \"contracts/trace.sol\":2483:2696  Product(... */\n      dup2\n      mstore\n      0x20\n      add\n        /* \"contracts/trace.sol\":2599:2614  block.timestamp */\n      timestamp\n        /* \"contracts/trace.sol\":2483:2696  Product(... */\n      dup2\n      mstore\n      0x20\n      add\n        /* \"contracts/trace.sol\":2629:2639  msg.sender */\n      caller\n        /* \"contracts/trace.sol\":2483:2696  Product(... */\n      0xffffffffffffffffffffffffffffffffffffffff\n      and\n      dup2\n      mstore\n      0x20\n      add\n        /* \"contracts/trace.sol\":2654:2666  State.Active */\n      0x00\n        /* \"contracts/trace.sol\":2483:2696  Product(... */\n      0x01\n      dup2\n      gt\n      iszero\n      tag_218\n      jumpi\n      tag_219\n      tag_72\n      jump\t// in\n    tag_219:\n    tag_218:\n      dup2\n      mstore\n      0x20\n      add\n        /* \"contracts/trace.sol\":2681:2685  true */\n      0x01\n        /* \"contracts/trace.sol\":2483:2696  Product(... */\n      iszero\n      iszero\n      dup2\n      mstore\n      pop\n        /* \"contracts/trace.sol\":2455:2696  Product memory newProduct = Product(... */\n      swap1\n      pop\n        /* \"contracts/trace.sol\":2761:2771  newProduct */\n      dup1\n        /* \"contracts/trace.sol\":2739:2747  products */\n      0x00\n        /* \"contracts/trace.sol\":2739:2758  products[productId] */\n      dup1\n        /* \"contracts/trace.sol\":2748:2757  productId */\n      dup5\n        /* \"contracts/trace.sol\":2739:2758  products[productId] */\n      dup2\n      mstore\n      0x20\n      add\n      swap1\n      dup2\n      mstore\n      0x20\n      add\n      0x00\n      keccak256\n        /* \"contracts/trace.sol\":2739:2771  products[productId] = newProduct */\n      0x00\n      dup3\n      add\n      mload\n      dup2\n      0x00\n      add\n      sstore\n      0x20\n      dup3\n      add\n      mload\n      dup2\n      0x01\n      add\n      swap1\n      dup2\n      tag_220\n      swap2\n      swap1\n      tag_171\n      jump\t// in\n    tag_220:\n      pop\n      0x40\n      dup3\n      add\n      mload\n      dup2\n      0x02\n      add\n      swap1\n      dup2\n      tag_221\n      swap2\n      swap1\n      tag_171\n      jump\t// in\n    tag_221:\n      pop\n      0x60\n      dup3\n      add\n      mload\n      dup2\n      0x03\n      add\n      swap1\n      dup2\n      tag_222\n      swap2\n      swap1\n      tag_171\n      jump\t// in\n    tag_222:\n      pop\n      0x80\n      dup3\n      add\n      mload\n      dup2\n      0x04\n      add\n      sstore\n      0xa0\n      dup3\n      add\n      mload\n      dup2\n      0x05\n      add\n      exp(0x0100, 0x00)\n      dup2\n      sload\n      dup2\n      0xffffffffffffffffffffffffffffffffffffffff\n      mul\n      not\n      and\n      swap1\n      dup4\n      0xffffffffffffffffffffffffffffffffffffffff\n      and\n      mul\n      or\n      swap1\n      sstore\n      pop\n      0xc0\n      dup3\n      add\n      mload\n      dup2\n      0x05\n      add\n      exp(0x0100, 0x14)\n      dup2\n      sload\n      dup2\n      0xff\n      mul\n      not\n      and\n      swap1\n      dup4\n      0x01\n      dup2\n      gt\n      iszero\n      tag_223\n      jumpi\n      tag_224\n      tag_72\n      jump\t// in\n    tag_224:\n    tag_223:\n      mul\n      or\n      swap1\n      sstore\n      pop\n      0xe0\n      dup3\n      add\n      mload\n      dup2\n      0x05\n      add\n      exp(0x0100, 0x15)\n      dup2\n      sload\n      dup2\n      0xff\n      mul\n      not\n      and\n      swap1\n      dup4\n      iszero\n      iszero\n      mul\n      or\n      swap1\n      sstore\n      pop\n      swap1\n      pop\n      pop\n        /* \"contracts/trace.sol\":2782:2792  productIds */\n      0x03\n        /* \"contracts/trace.sol\":2798:2807  productId */\n      dup3\n        /* \"contracts/trace.sol\":2782:2808  productIds.push(productId) */\n      swap1\n      dup1\n      0x01\n      dup2\n      sload\n      add\n      dup1\n      dup3\n      sstore\n      dup1\n      swap2\n      pop\n      pop\n      0x01\n      swap1\n      sub\n      swap1\n      0x00\n      mstore\n      keccak256(0x00, 0x20)\n      add\n      0x00\n      swap1\n      swap2\n      swap1\n      swap2\n      swap1\n      swap2\n      pop\n      sstore\n        /* \"contracts/trace.sol\":2864:2879  bytes32 traceId */\n      0x00\n        /* \"contracts/trace.sol\":2909:2918  productId */\n      dup3\n        /* \"contracts/trace.sol\":2920:2935  block.timestamp */\n      timestamp\n        /* \"contracts/trace.sol\":2892:2944  abi.encodePacked(productId, block.timestamp, \"INIT\") */\n      add(0x20, mload(0x40))\n      tag_226\n      swap3\n      swap2\n      swap1\n      tag_227\n      jump\t// in\n    tag_226:\n      mload(0x40)\n      0x20\n      dup2\n      dup4\n      sub\n      sub\n      dup2\n      mstore\n      swap1\n      0x40\n      mstore\n        /* \"contracts/trace.sol\":2882:2945  keccak256(abi.encodePacked(productId, block.timestamp, \"INIT\")) */\n      dup1\n      mload\n      swap1\n      0x20\n      add\n      keccak256\n        /* \"contracts/trace.sol\":2864:2945  bytes32 traceId = keccak256(abi.encodePacked(productId, block.timestamp, \"INIT\")) */\n      swap1\n      pop\n        /* \"contracts/trace.sol\":2956:2978  Trace memory initTrace */\n      0x00\n        /* \"contracts/trace.sol\":2981:3140  Trace(... */\n      mload(0x40)\n      dup1\n      0xa0\n      add\n      0x40\n      mstore\n      dup1\n        /* \"contracts/trace.sol\":3001:3008  traceId */\n      dup4\n        /* \"contracts/trace.sol\":2981:3140  Trace(... */\n      dup2\n      mstore\n      0x20\n      add\n      mload(0x40)\n      dup1\n      0x40\n      add\n      0x40\n      mstore\n      dup1\n      0x16\n      dup2\n      mstore\n      0x20\n      add\n      0x50726f6475637420696e697469616c697a6174696f6e00000000000000000000\n      dup2\n      mstore\n      pop\n      dup2\n      mstore\n      0x20\n      add\n        /* \"contracts/trace.sol\":3062:3077  block.timestamp */\n      timestamp\n        /* \"contracts/trace.sol\":2981:3140  Trace(... */\n      dup2\n      mstore\n      0x20\n      add\n        /* \"contracts/trace.sol\":3092:3102  msg.sender */\n      caller\n        /* \"contracts/trace.sol\":2981:3140  Trace(... */\n      0xffffffffffffffffffffffffffffffffffffffff\n      and\n      dup2\n      mstore\n      0x20\n      add\n        /* \"contracts/trace.sol\":3117:3129  State.Active */\n      0x00\n        /* \"contracts/trace.sol\":2981:3140  Trace(... */\n      0x01\n      dup2\n      gt\n      iszero\n      tag_228\n      jumpi\n      tag_229\n      tag_72\n      jump\t// in\n    tag_229:\n    tag_228:\n      dup2\n      mstore\n      pop\n        /* \"contracts/trace.sol\":2956:3140  Trace memory initTrace = Trace(... */\n      swap1\n      pop\n        /* \"contracts/trace.sol\":3161:3174  productTraces */\n      0x01\n        /* \"contracts/trace.sol\":3161:3185  productTraces[productId] */\n      0x00\n        /* \"contracts/trace.sol\":3175:3184  productId */\n      dup6\n        /* \"contracts/trace.sol\":3161:3185  productTraces[productId] */\n      dup2\n      mstore\n      0x20\n      add\n      swap1\n      dup2\n      mstore\n      0x20\n      add\n      0x00\n      keccak256\n        /* \"contracts/trace.sol\":3191:3200  initTrace */\n      dup2\n        /* \"contracts/trace.sol\":3161:3201  productTraces[productId].push(initTrace) */\n      swap1\n      dup1\n      0x01\n      dup2\n      sload\n      add\n      dup1\n      dup3\n      sstore\n      dup1\n      swap2\n      pop\n      pop\n      0x01\n      swap1\n      sub\n      swap1\n      0x00\n      mstore\n      keccak256(0x00, 0x20)\n      swap1\n      0x04\n      mul\n      add\n      0x00\n      swap1\n      swap2\n      swap1\n      swap2\n      swap1\n      swap2\n      pop\n      0x00\n      dup3\n      add\n      mload\n      dup2\n      0x00\n      add\n      sstore\n      0x20\n      dup3\n      add\n      mload\n      dup2\n      0x01\n      add\n      swap1\n      dup2\n      tag_231\n      swap2\n      swap1\n      tag_171\n      jump\t// in\n    tag_231:\n      pop\n      0x40\n      dup3\n      add\n      mload\n      dup2\n      0x02\n      add\n      sstore\n      0x60\n      dup3\n      add\n      mload\n      dup2\n      0x03\n      add\n      exp(0x0100, 0x00)\n      dup2\n      sload\n      dup2\n      0xffffffffffffffffffffffffffffffffffffffff\n      mul\n      not\n      and\n      swap1\n      dup4\n      0xffffffffffffffffffffffffffffffffffffffff\n      and\n      mul\n      or\n      swap1\n      sstore\n      pop\n      0x80\n      dup3\n      add\n      mload\n      dup2\n      0x03\n      add\n      exp(0x0100, 0x14)\n      dup2\n      sload\n      dup2\n      0xff\n      mul\n      not\n      and\n      swap1\n      dup4\n      0x01\n      dup2\n      gt\n      iszero\n      tag_232\n      jumpi\n      tag_233\n      tag_72\n      jump\t// in\n    tag_233:\n    tag_232:\n      mul\n      or\n      swap1\n      sstore\n      pop\n      pop\n      pop\n        /* \"contracts/trace.sol\":3238:3247  productId */\n      dup4\n        /* \"contracts/trace.sol\":3212:3226  traceToProduct */\n      0x02\n        /* \"contracts/trace.sol\":3212:3235  traceToProduct[traceId] */\n      0x00\n        /* \"contracts/trace.sol\":3227:3234  traceId */\n      dup5\n        /* \"contracts/trace.sol\":3212:3235  traceToProduct[traceId] */\n      dup2\n      mstore\n      0x20\n      add\n      swap1\n      dup2\n      mstore\n      0x20\n      add\n      0x00\n      keccak256\n        /* \"contracts/trace.sol\":3212:3247  traceToProduct[traceId] = productId */\n      dup2\n      swap1\n      sstore\n      pop\n        /* \"contracts/trace.sol\":3278:3287  productId */\n      dup4\n        /* \"contracts/trace.sol\":3265:3348  ProductAdded(productId, _codebar, _name, _description, block.timestamp, msg.sender) */\n      0x05d95f8b95df6d455e3731c3ddea53d6b339315da38d66461c61654d2f72563f\n        /* \"contracts/trace.sol\":3289:3297  _codebar */\n      dup9\n        /* \"contracts/trace.sol\":3299:3304  _name */\n      dup9\n        /* \"contracts/trace.sol\":3306:3318  _description */\n      dup9\n        /* \"contracts/trace.sol\":3320:3335  block.timestamp */\n      timestamp\n        /* \"contracts/trace.sol\":3337:3347  msg.sender */\n      caller\n        /* \"contracts/trace.sol\":3265:3348  ProductAdded(productId, _codebar, _name, _description, block.timestamp, msg.sender) */\n      mload(0x40)\n      tag_234\n      swap6\n      swap5\n      swap4\n      swap3\n      swap2\n      swap1\n      tag_235\n      jump\t// in\n    tag_234:\n      mload(0x40)\n      dup1\n      swap2\n      sub\n      swap1\n      log2\n        /* \"contracts/trace.sol\":3386:3393  traceId */\n      dup2\n        /* \"contracts/trace.sol\":3375:3384  productId */\n      dup5\n        /* \"contracts/trace.sol\":3364:3449  TraceAdded(productId, traceId, \"Product initialization\", block.timestamp, msg.sender) */\n      0xfc7f09d226b2e852bd3f04f352adab8a4e00b078d16e635f5a5102e2ac721fc8\n        /* \"contracts/trace.sol\":3421:3436  block.timestamp */\n      timestamp\n        /* \"contracts/trace.sol\":3438:3448  msg.sender */\n      caller\n        /* \"contracts/trace.sol\":3364:3449  TraceAdded(productId, traceId, \"Product initialization\", block.timestamp, msg.sender) */\n      mload(0x40)\n      tag_236\n      swap3\n      swap2\n      swap1\n      tag_237\n      jump\t// in\n    tag_236:\n      mload(0x40)\n      dup1\n      swap2\n      sub\n      swap1\n      log3\n        /* \"contracts/trace.sol\":1968:3457  {... */\n      pop\n      pop\n      pop\n      pop\n        /* \"contracts/trace.sol\":1806:3457  function addProduct(... */\n      pop\n      pop\n      pop\n      pop\n      jump\t// out\n        /* \"contracts/trace.sol\":1485:1798  function stringToBytes32(string memory source) private pure returns (bytes32 result) {... */\n    tag_214:\n        /* \"contracts/trace.sol\":1554:1568  bytes32 result */\n      0x00\n        /* \"contracts/trace.sol\":1581:1613  bytes memory tempEmptyStringTest */\n      dup1\n        /* \"contracts/trace.sol\":1622:1628  source */\n      dup3\n        /* \"contracts/trace.sol\":1581:1629  bytes memory tempEmptyStringTest = bytes(source) */\n      swap1\n      pop\n        /* \"contracts/trace.sol\":1674:1675  0 */\n      0x00\n        /* \"contracts/trace.sol\":1644:1663  tempEmptyStringTest */\n      dup2\n        /* \"contracts/trace.sol\":1644:1670  tempEmptyStringTest.length */\n      mload\n        /* \"contracts/trace.sol\":1644:1675  tempEmptyStringTest.length == 0 */\n      sub\n        /* \"contracts/trace.sol\":1640:1714  if (tempEmptyStringTest.length == 0) {... */\n      tag_239\n      jumpi\n        /* \"contracts/trace.sol\":1699:1702  0x0 */\n      0x00\n        /* \"contracts/trace.sol\":1692:1702  return 0x0 */\n      dup1\n      shl\n      swap2\n      pop\n      pop\n      jump(tag_238)\n        /* \"contracts/trace.sol\":1640:1714  if (tempEmptyStringTest.length == 0) {... */\n    tag_239:\n        /* \"contracts/trace.sol\":1776:1778  32 */\n      0x20\n        /* \"contracts/trace.sol\":1768:1774  source */\n      dup4\n        /* \"contracts/trace.sol\":1764:1779  add(source, 32) */\n      add\n        /* \"contracts/trace.sol\":1758:1780  mload(add(source, 32)) */\n      mload\n        /* \"contracts/trace.sol\":1748:1780  result := mload(add(source, 32)) */\n      swap2\n      pop\n        /* \"contracts/trace.sol\":1733:1791  {... */\n      pop\n        /* \"contracts/trace.sol\":1485:1798  function stringToBytes32(string memory source) private pure returns (bytes32 result) {... */\n    tag_238:\n      swap2\n      swap1\n      pop\n      jump\t// out\n    tag_124:\n      mload(0x40)\n      dup1\n      0xa0\n      add\n      0x40\n      mstore\n      dup1\n      0x00\n      dup1\n      not\n      and\n      dup2\n      mstore\n      0x20\n      add\n      0x60\n      dup2\n      mstore\n      0x20\n      add\n      0x00\n      dup2\n      mstore\n      0x20\n      add\n      and(0xffffffffffffffffffffffffffffffffffffffff, 0x00)\n      dup2\n      mstore\n      0x20\n      add\n      0x00\n      0x01\n      dup2\n      gt\n      iszero\n      tag_240\n      jumpi\n      tag_241\n      tag_72\n      jump\t// in\n    tag_241:\n    tag_240:\n      dup2\n      mstore\n      pop\n      swap1\n      jump\t// out\n        /* \"#utility.yul\":7:82   */\n    tag_242:\n        /* \"#utility.yul\":40:46   */\n      0x00\n        /* \"#utility.yul\":73:75   */\n      0x40\n        /* \"#utility.yul\":67:76   */\n      mload\n        /* \"#utility.yul\":57:76   */\n      swap1\n      pop\n        /* \"#utility.yul\":7:82   */\n      swap1\n      jump\t// out\n        /* \"#utility.yul\":88:205   */\n    tag_243:\n        /* \"#utility.yul\":197:198   */\n      0x00\n        /* \"#utility.yul\":194:195   */\n      dup1\n        /* \"#utility.yul\":187:199   */\n      revert\n        /* \"#utility.yul\":211:328   */\n    tag_244:\n        /* \"#utility.yul\":320:321   */\n      0x00\n        /* \"#utility.yul\":317:318   */\n      dup1\n        /* \"#utility.yul\":310:322   */\n      revert\n        /* \"#utility.yul\":334:411   */\n    tag_245:\n        /* \"#utility.yul\":371:378   */\n      0x00\n        /* \"#utility.yul\":400:405   */\n      dup2\n        /* \"#utility.yul\":389:405   */\n      swap1\n      pop\n        /* \"#utility.yul\":334:411   */\n      swap2\n      swap1\n      pop\n      jump\t// out\n        /* \"#utility.yul\":417:539   */\n    tag_246:\n        /* \"#utility.yul\":490:514   */\n      tag_349\n        /* \"#utility.yul\":508:513   */\n      dup2\n        /* \"#utility.yul\":490:514   */\n      tag_245\n      jump\t// in\n    tag_349:\n        /* \"#utility.yul\":483:488   */\n      dup2\n        /* \"#utility.yul\":480:515   */\n      eq\n        /* \"#utility.yul\":470:533   */\n      tag_350\n      jumpi\n        /* \"#utility.yul\":529:530   */\n      0x00\n        /* \"#utility.yul\":526:527   */\n      dup1\n        /* \"#utility.yul\":519:531   */\n      revert\n        /* \"#utility.yul\":470:533   */\n    tag_350:\n        /* \"#utility.yul\":417:539   */\n      pop\n      jump\t// out\n        /* \"#utility.yul\":545:684   */\n    tag_247:\n        /* \"#utility.yul\":591:596   */\n      0x00\n        /* \"#utility.yul\":629:635   */\n      dup2\n        /* \"#utility.yul\":616:636   */\n      calldataload\n        /* \"#utility.yul\":607:636   */\n      swap1\n      pop\n        /* \"#utility.yul\":645:678   */\n      tag_352\n        /* \"#utility.yul\":672:677   */\n      dup2\n        /* \"#utility.yul\":645:678   */\n      tag_246\n      jump\t// in\n    tag_352:\n        /* \"#utility.yul\":545:684   */\n      swap3\n      swap2\n      pop\n      pop\n      jump\t// out\n        /* \"#utility.yul\":690:1019   */\n    tag_14:\n        /* \"#utility.yul\":749:755   */\n      0x00\n        /* \"#utility.yul\":798:800   */\n      0x20\n        /* \"#utility.yul\":786:795   */\n      dup3\n        /* \"#utility.yul\":777:784   */\n      dup5\n        /* \"#utility.yul\":773:796   */\n      sub\n        /* \"#utility.yul\":769:801   */\n      slt\n        /* \"#utility.yul\":766:885   */\n      iszero\n      tag_354\n      jumpi\n        /* \"#utility.yul\":804:883   */\n      tag_355\n      tag_243\n      jump\t// in\n    tag_355:\n        /* \"#utility.yul\":766:885   */\n    tag_354:\n        /* \"#utility.yul\":924:925   */\n      0x00\n        /* \"#utility.yul\":949:1002   */\n      tag_356\n        /* \"#utility.yul\":994:1001   */\n      dup5\n        /* \"#utility.yul\":985:991   */\n      dup3\n        /* \"#utility.yul\":974:983   */\n      dup6\n        /* \"#utility.yul\":970:992   */\n      add\n        /* \"#utility.yul\":949:1002   */\n      tag_247\n      jump\t// in\n    tag_356:\n        /* \"#utility.yul\":939:1002   */\n      swap2\n      pop\n        /* \"#utility.yul\":895:1012   */\n      pop\n        /* \"#utility.yul\":690:1019   */\n      swap3\n      swap2\n      pop\n      pop\n      jump\t// out\n        /* \"#utility.yul\":1025:1124   */\n    tag_248:\n        /* \"#utility.yul\":1077:1083   */\n      0x00\n        /* \"#utility.yul\":1111:1116   */\n      dup2\n        /* \"#utility.yul\":1105:1117   */\n      mload\n        /* \"#utility.yul\":1095:1117   */\n      swap1\n      pop\n        /* \"#utility.yul\":1025:1124   */\n      swap2\n      swap1\n      pop\n      jump\t// out\n        /* \"#utility.yul\":1130:1299   */\n    tag_249:\n        /* \"#utility.yul\":1214:1225   */\n      0x00\n        /* \"#utility.yul\":1248:1254   */\n      dup3\n        /* \"#utility.yul\":1243:1246   */\n      dup3\n        /* \"#utility.yul\":1236:1255   */\n      mstore\n        /* \"#utility.yul\":1288:1292   */\n      0x20\n        /* \"#utility.yul\":1283:1286   */\n      dup3\n        /* \"#utility.yul\":1279:1293   */\n      add\n        /* \"#utility.yul\":1264:1293   */\n      swap1\n      pop\n        /* \"#utility.yul\":1130:1299   */\n      swap3\n      swap2\n      pop\n      pop\n      jump\t// out\n        /* \"#utility.yul\":1305:1444   */\n    tag_250:\n        /* \"#utility.yul\":1394:1400   */\n      dup3\n        /* \"#utility.yul\":1389:1392   */\n      dup2\n        /* \"#utility.yul\":1384:1387   */\n      dup4\n        /* \"#utility.yul\":1378:1401   */\n      mcopy\n        /* \"#utility.yul\":1435:1436   */\n      0x00\n        /* \"#utility.yul\":1426:1432   */\n      dup4\n        /* \"#utility.yul\":1421:1424   */\n      dup4\n        /* \"#utility.yul\":1417:1433   */\n      add\n        /* \"#utility.yul\":1410:1437   */\n      mstore\n        /* \"#utility.yul\":1305:1444   */\n      pop\n      pop\n      pop\n      jump\t// out\n        /* \"#utility.yul\":1450:1552   */\n    tag_251:\n        /* \"#utility.yul\":1491:1497   */\n      0x00\n        /* \"#utility.yul\":1542:1544   */\n      0x1f\n        /* \"#utility.yul\":1538:1545   */\n      not\n        /* \"#utility.yul\":1533:1535   */\n      0x1f\n        /* \"#utility.yul\":1526:1531   */\n      dup4\n        /* \"#utility.yul\":1522:1536   */\n      add\n        /* \"#utility.yul\":1518:1546   */\n      and\n        /* \"#utility.yul\":1508:1546   */\n      swap1\n      pop\n        /* \"#utility.yul\":1450:1552   */\n      swap2\n      swap1\n      pop\n      jump\t// out\n        /* \"#utility.yul\":1558:1935   */\n    tag_252:\n        /* \"#utility.yul\":1646:1649   */\n      0x00\n        /* \"#utility.yul\":1674:1713   */\n      tag_362\n        /* \"#utility.yul\":1707:1712   */\n      dup3\n        /* \"#utility.yul\":1674:1713   */\n      tag_248\n      jump\t// in\n    tag_362:\n        /* \"#utility.yul\":1729:1800   */\n      tag_363\n        /* \"#utility.yul\":1793:1799   */\n      dup2\n        /* \"#utility.yul\":1788:1791   */\n      dup6\n        /* \"#utility.yul\":1729:1800   */\n      tag_249\n      jump\t// in\n    tag_363:\n        /* \"#utility.yul\":1722:1800   */\n      swap4\n      pop\n        /* \"#utility.yul\":1809:1874   */\n      tag_364\n        /* \"#utility.yul\":1867:1873   */\n      dup2\n        /* \"#utility.yul\":1862:1865   */\n      dup6\n        /* \"#utility.yul\":1855:1859   */\n      0x20\n        /* \"#utility.yul\":1848:1853   */\n      dup7\n        /* \"#utility.yul\":1844:1860   */\n      add\n        /* \"#utility.yul\":1809:1874   */\n      tag_250\n      jump\t// in\n    tag_364:\n        /* \"#utility.yul\":1899:1928   */\n      tag_365\n        /* \"#utility.yul\":1921:1927   */\n      dup2\n        /* \"#utility.yul\":1899:1928   */\n      tag_251\n      jump\t// in\n    tag_365:\n        /* \"#utility.yul\":1894:1897   */\n      dup5\n        /* \"#utility.yul\":1890:1929   */\n      add\n        /* \"#utility.yul\":1883:1929   */\n      swap2\n      pop\n        /* \"#utility.yul\":1650:1935   */\n      pop\n        /* \"#utility.yul\":1558:1935   */\n      swap3\n      swap2\n      pop\n      pop\n      jump\t// out\n        /* \"#utility.yul\":1941:2018   */\n    tag_253:\n        /* \"#utility.yul\":1978:1985   */\n      0x00\n        /* \"#utility.yul\":2007:2012   */\n      dup2\n        /* \"#utility.yul\":1996:2012   */\n      swap1\n      pop\n        /* \"#utility.yul\":1941:2018   */\n      swap2\n      swap1\n      pop\n      jump\t// out\n        /* \"#utility.yul\":2024:2142   */\n    tag_254:\n        /* \"#utility.yul\":2111:2135   */\n      tag_368\n        /* \"#utility.yul\":2129:2134   */\n      dup2\n        /* \"#utility.yul\":2111:2135   */\n      tag_253\n      jump\t// in\n    tag_368:\n        /* \"#utility.yul\":2106:2109   */\n      dup3\n        /* \"#utility.yul\":2099:2136   */\n      mstore\n        /* \"#utility.yul\":2024:2142   */\n      pop\n      pop\n      jump\t// out\n        /* \"#utility.yul\":2148:2274   */\n    tag_255:\n        /* \"#utility.yul\":2185:2192   */\n      0x00\n        /* \"#utility.yul\":2225:2267   */\n      0xffffffffffffffffffffffffffffffffffffffff\n        /* \"#utility.yul\":2218:2223   */\n      dup3\n        /* \"#utility.yul\":2214:2268   */\n      and\n        /* \"#utility.yul\":2203:2268   */\n      swap1\n      pop\n        /* \"#utility.yul\":2148:2274   */\n      swap2\n      swap1\n      pop\n      jump\t// out\n        /* \"#utility.yul\":2280:2376   */\n    tag_256:\n        /* \"#utility.yul\":2317:2324   */\n      0x00\n        /* \"#utility.yul\":2346:2370   */\n      tag_371\n        /* \"#utility.yul\":2364:2369   */\n      dup3\n        /* \"#utility.yul\":2346:2370   */\n      tag_255\n      jump\t// in\n    tag_371:\n        /* \"#utility.yul\":2335:2370   */\n      swap1\n      pop\n        /* \"#utility.yul\":2280:2376   */\n      swap2\n      swap1\n      pop\n      jump\t// out\n        /* \"#utility.yul\":2382:2500   */\n    tag_257:\n        /* \"#utility.yul\":2469:2493   */\n      tag_373\n        /* \"#utility.yul\":2487:2492   */\n      dup2\n        /* \"#utility.yul\":2469:2493   */\n      tag_256\n      jump\t// in\n    tag_373:\n        /* \"#utility.yul\":2464:2467   */\n      dup3\n        /* \"#utility.yul\":2457:2494   */\n      mstore\n        /* \"#utility.yul\":2382:2500   */\n      pop\n      pop\n      jump\t// out\n        /* \"#utility.yul\":2506:2686   */\n    tag_72:\n        /* \"#utility.yul\":2554:2631   */\n      0x4e487b7100000000000000000000000000000000000000000000000000000000\n        /* \"#utility.yul\":2551:2552   */\n      0x00\n        /* \"#utility.yul\":2544:2632   */\n      mstore\n        /* \"#utility.yul\":2651:2655   */\n      0x21\n        /* \"#utility.yul\":2648:2649   */\n      0x04\n        /* \"#utility.yul\":2641:2656   */\n      mstore\n        /* \"#utility.yul\":2675:2679   */\n      0x24\n        /* \"#utility.yul\":2672:2673   */\n      0x00\n        /* \"#utility.yul\":2665:2680   */\n      revert\n        /* \"#utility.yul\":2692:2804   */\n    tag_258:\n        /* \"#utility.yul\":2772:2773   */\n      0x02\n        /* \"#utility.yul\":2765:2770   */\n      dup2\n        /* \"#utility.yul\":2762:2774   */\n      lt\n        /* \"#utility.yul\":2752:2798   */\n      tag_376\n      jumpi\n        /* \"#utility.yul\":2778:2796   */\n      tag_377\n      tag_72\n      jump\t// in\n    tag_377:\n        /* \"#utility.yul\":2752:2798   */\n    tag_376:\n        /* \"#utility.yul\":2692:2804   */\n      pop\n      jump\t// out\n        /* \"#utility.yul\":2810:2935   */\n    tag_259:\n        /* \"#utility.yul\":2854:2861   */\n      0x00\n        /* \"#utility.yul\":2883:2888   */\n      dup2\n        /* \"#utility.yul\":2872:2888   */\n      swap1\n      pop\n        /* \"#utility.yul\":2889:2929   */\n      tag_379\n        /* \"#utility.yul\":2923:2928   */\n      dup3\n        /* \"#utility.yul\":2889:2929   */\n      tag_258\n      jump\t// in\n    tag_379:\n        /* \"#utility.yul\":2810:2935   */\n      swap2\n      swap1\n      pop\n      jump\t// out\n        /* \"#utility.yul\":2941:3066   */\n    tag_260:\n        /* \"#utility.yul\":2996:3005   */\n      0x00\n        /* \"#utility.yul\":3029:3060   */\n      tag_381\n        /* \"#utility.yul\":3054:3059   */\n      dup3\n        /* \"#utility.yul\":3029:3060   */\n      tag_259\n      jump\t// in\n    tag_381:\n        /* \"#utility.yul\":3016:3060   */\n      swap1\n      pop\n        /* \"#utility.yul\":2941:3066   */\n      swap2\n      swap1\n      pop\n      jump\t// out\n        /* \"#utility.yul\":3072:3213   */\n    tag_261:\n        /* \"#utility.yul\":3164:3206   */\n      tag_383\n        /* \"#utility.yul\":3200:3205   */\n      dup2\n        /* \"#utility.yul\":3164:3206   */\n      tag_260\n      jump\t// in\n    tag_383:\n        /* \"#utility.yul\":3159:3162   */\n      dup3\n        /* \"#utility.yul\":3152:3207   */\n      mstore\n        /* \"#utility.yul\":3072:3213   */\n      pop\n      pop\n      jump\t// out\n        /* \"#utility.yul\":3219:4277   */\n    tag_17:\n        /* \"#utility.yul\":3517:3521   */\n      0x00\n        /* \"#utility.yul\":3555:3558   */\n      0xc0\n        /* \"#utility.yul\":3544:3553   */\n      dup3\n        /* \"#utility.yul\":3540:3559   */\n      add\n        /* \"#utility.yul\":3532:3559   */\n      swap1\n      pop\n        /* \"#utility.yul\":3605:3614   */\n      dup2\n        /* \"#utility.yul\":3599:3603   */\n      dup2\n        /* \"#utility.yul\":3595:3615   */\n      sub\n        /* \"#utility.yul\":3591:3592   */\n      0x00\n        /* \"#utility.yul\":3580:3589   */\n      dup4\n        /* \"#utility.yul\":3576:3593   */\n      add\n        /* \"#utility.yul\":3569:3616   */\n      mstore\n        /* \"#utility.yul\":3633:3711   */\n      tag_385\n        /* \"#utility.yul\":3706:3710   */\n      dup2\n        /* \"#utility.yul\":3697:3703   */\n      dup10\n        /* \"#utility.yul\":3633:3711   */\n      tag_252\n      jump\t// in\n    tag_385:\n        /* \"#utility.yul\":3625:3711   */\n      swap1\n      pop\n        /* \"#utility.yul\":3758:3767   */\n      dup2\n        /* \"#utility.yul\":3752:3756   */\n      dup2\n        /* \"#utility.yul\":3748:3768   */\n      sub\n        /* \"#utility.yul\":3743:3745   */\n      0x20\n        /* \"#utility.yul\":3732:3741   */\n      dup4\n        /* \"#utility.yul\":3728:3746   */\n      add\n        /* \"#utility.yul\":3721:3769   */\n      mstore\n        /* \"#utility.yul\":3786:3864   */\n      tag_386\n        /* \"#utility.yul\":3859:3863   */\n      dup2\n        /* \"#utility.yul\":3850:3856   */\n      dup9\n        /* \"#utility.yul\":3786:3864   */\n      tag_252\n      jump\t// in\n    tag_386:\n        /* \"#utility.yul\":3778:3864   */\n      swap1\n      pop\n        /* \"#utility.yul\":3911:3920   */\n      dup2\n        /* \"#utility.yul\":3905:3909   */\n      dup2\n        /* \"#utility.yul\":3901:3921   */\n      sub\n        /* \"#utility.yul\":3896:3898   */\n      0x40\n        /* \"#utility.yul\":3885:3894   */\n      dup4\n        /* \"#utility.yul\":3881:3899   */\n      add\n        /* \"#utility.yul\":3874:3922   */\n      mstore\n        /* \"#utility.yul\":3939:4017   */\n      tag_387\n        /* \"#utility.yul\":4012:4016   */\n      dup2\n        /* \"#utility.yul\":4003:4009   */\n      dup8\n        /* \"#utility.yul\":3939:4017   */\n      tag_252\n      jump\t// in\n    tag_387:\n        /* \"#utility.yul\":3931:4017   */\n      swap1\n      pop\n        /* \"#utility.yul\":4027:4099   */\n      tag_388\n        /* \"#utility.yul\":4095:4097   */\n      0x60\n        /* \"#utility.yul\":4084:4093   */\n      dup4\n        /* \"#utility.yul\":4080:4098   */\n      add\n        /* \"#utility.yul\":4071:4077   */\n      dup7\n        /* \"#utility.yul\":4027:4099   */\n      tag_254\n      jump\t// in\n    tag_388:\n        /* \"#utility.yul\":4109:4182   */\n      tag_389\n        /* \"#utility.yul\":4177:4180   */\n      0x80\n        /* \"#utility.yul\":4166:4175   */\n      dup4\n        /* \"#utility.yul\":4162:4181   */\n      add\n        /* \"#utility.yul\":4153:4159   */\n      dup6\n        /* \"#utility.yul\":4109:4182   */\n      tag_257\n      jump\t// in\n    tag_389:\n        /* \"#utility.yul\":4192:4270   */\n      tag_390\n        /* \"#utility.yul\":4265:4268   */\n      0xa0\n        /* \"#utility.yul\":4254:4263   */\n      dup4\n        /* \"#utility.yul\":4250:4269   */\n      add\n        /* \"#utility.yul\":4241:4247   */\n      dup5\n        /* \"#utility.yul\":4192:4270   */\n      tag_261\n      jump\t// in\n    tag_390:\n        /* \"#utility.yul\":3219:4277   */\n      swap8\n      swap7\n      pop\n      pop\n      pop\n      pop\n      pop\n      pop\n      pop\n      jump\t// out\n        /* \"#utility.yul\":4283:4401   */\n    tag_262:\n        /* \"#utility.yul\":4370:4394   */\n      tag_392\n        /* \"#utility.yul\":4388:4393   */\n      dup2\n        /* \"#utility.yul\":4370:4394   */\n      tag_245\n      jump\t// in\n    tag_392:\n        /* \"#utility.yul\":4365:4368   */\n      dup3\n        /* \"#utility.yul\":4358:4395   */\n      mstore\n        /* \"#utility.yul\":4283:4401   */\n      pop\n      pop\n      jump\t// out\n        /* \"#utility.yul\":4407:5172   */\n    tag_22:\n        /* \"#utility.yul\":4637:4641   */\n      0x00\n        /* \"#utility.yul\":4675:4678   */\n      0xa0\n        /* \"#utility.yul\":4664:4673   */\n      dup3\n        /* \"#utility.yul\":4660:4679   */\n      add\n        /* \"#utility.yul\":4652:4679   */\n      swap1\n      pop\n        /* \"#utility.yul\":4689:4760   */\n      tag_394\n        /* \"#utility.yul\":4757:4758   */\n      0x00\n        /* \"#utility.yul\":4746:4755   */\n      dup4\n        /* \"#utility.yul\":4742:4759   */\n      add\n        /* \"#utility.yul\":4733:4739   */\n      dup9\n        /* \"#utility.yul\":4689:4760   */\n      tag_262\n      jump\t// in\n    tag_394:\n        /* \"#utility.yul\":4807:4816   */\n      dup2\n        /* \"#utility.yul\":4801:4805   */\n      dup2\n        /* \"#utility.yul\":4797:4817   */\n      sub\n        /* \"#utility.yul\":4792:4794   */\n      0x20\n        /* \"#utility.yul\":4781:4790   */\n      dup4\n        /* \"#utility.yul\":4777:4795   */\n      add\n        /* \"#utility.yul\":4770:4818   */\n      mstore\n        /* \"#utility.yul\":4835:4913   */\n      tag_395\n        /* \"#utility.yul\":4908:4912   */\n      dup2\n        /* \"#utility.yul\":4899:4905   */\n      dup8\n        /* \"#utility.yul\":4835:4913   */\n      tag_252\n      jump\t// in\n    tag_395:\n        /* \"#utility.yul\":4827:4913   */\n      swap1\n      pop\n        /* \"#utility.yul\":4923:4995   */\n      tag_396\n        /* \"#utility.yul\":4991:4993   */\n      0x40\n        /* \"#utility.yul\":4980:4989   */\n      dup4\n        /* \"#utility.yul\":4976:4994   */\n      add\n        /* \"#utility.yul\":4967:4973   */\n      dup7\n        /* \"#utility.yul\":4923:4995   */\n      tag_254\n      jump\t// in\n    tag_396:\n        /* \"#utility.yul\":5005:5077   */\n      tag_397\n        /* \"#utility.yul\":5073:5075   */\n      0x60\n        /* \"#utility.yul\":5062:5071   */\n      dup4\n        /* \"#utility.yul\":5058:5076   */\n      add\n        /* \"#utility.yul\":5049:5055   */\n      dup6\n        /* \"#utility.yul\":5005:5077   */\n      tag_257\n      jump\t// in\n    tag_397:\n        /* \"#utility.yul\":5087:5165   */\n      tag_398\n        /* \"#utility.yul\":5160:5163   */\n      0x80\n        /* \"#utility.yul\":5149:5158   */\n      dup4\n        /* \"#utility.yul\":5145:5164   */\n      add\n        /* \"#utility.yul\":5136:5142   */\n      dup5\n        /* \"#utility.yul\":5087:5165   */\n      tag_261\n      jump\t// in\n    tag_398:\n        /* \"#utility.yul\":4407:5172   */\n      swap7\n      swap6\n      pop\n      pop\n      pop\n      pop\n      pop\n      pop\n      jump\t// out\n        /* \"#utility.yul\":5178:5300   */\n    tag_263:\n        /* \"#utility.yul\":5251:5275   */\n      tag_400\n        /* \"#utility.yul\":5269:5274   */\n      dup2\n        /* \"#utility.yul\":5251:5275   */\n      tag_256\n      jump\t// in\n    tag_400:\n        /* \"#utility.yul\":5244:5249   */\n      dup2\n        /* \"#utility.yul\":5241:5276   */\n      eq\n        /* \"#utility.yul\":5231:5294   */\n      tag_401\n      jumpi\n        /* \"#utility.yul\":5290:5291   */\n      0x00\n        /* \"#utility.yul\":5287:5288   */\n      dup1\n        /* \"#utility.yul\":5280:5292   */\n      revert\n        /* \"#utility.yul\":5231:5294   */\n    tag_401:\n        /* \"#utility.yul\":5178:5300   */\n      pop\n      jump\t// out\n        /* \"#utility.yul\":5306:5445   */\n    tag_264:\n        /* \"#utility.yul\":5352:5357   */\n      0x00\n        /* \"#utility.yul\":5390:5396   */\n      dup2\n        /* \"#utility.yul\":5377:5397   */\n      calldataload\n        /* \"#utility.yul\":5368:5397   */\n      swap1\n      pop\n        /* \"#utility.yul\":5406:5439   */\n      tag_403\n        /* \"#utility.yul\":5433:5438   */\n      dup2\n        /* \"#utility.yul\":5406:5439   */\n      tag_263\n      jump\t// in\n    tag_403:\n        /* \"#utility.yul\":5306:5445   */\n      swap3\n      swap2\n      pop\n      pop\n      jump\t// out\n        /* \"#utility.yul\":5451:5925   */\n    tag_25:\n        /* \"#utility.yul\":5519:5525   */\n      0x00\n        /* \"#utility.yul\":5527:5533   */\n      dup1\n        /* \"#utility.yul\":5576:5578   */\n      0x40\n        /* \"#utility.yul\":5564:5573   */\n      dup4\n        /* \"#utility.yul\":5555:5562   */\n      dup6\n        /* \"#utility.yul\":5551:5574   */\n      sub\n        /* \"#utility.yul\":5547:5579   */\n      slt\n        /* \"#utility.yul\":5544:5663   */\n      iszero\n      tag_405\n      jumpi\n        /* \"#utility.yul\":5582:5661   */\n      tag_406\n      tag_243\n      jump\t// in\n    tag_406:\n        /* \"#utility.yul\":5544:5663   */\n    tag_405:\n        /* \"#utility.yul\":5702:5703   */\n      0x00\n        /* \"#utility.yul\":5727:5780   */\n      tag_407\n        /* \"#utility.yul\":5772:5779   */\n      dup6\n        /* \"#utility.yul\":5763:5769   */\n      dup3\n        /* \"#utility.yul\":5752:5761   */\n      dup7\n        /* \"#utility.yul\":5748:5770   */\n      add\n        /* \"#utility.yul\":5727:5780   */\n      tag_247\n      jump\t// in\n    tag_407:\n        /* \"#utility.yul\":5717:5780   */\n      swap3\n      pop\n        /* \"#utility.yul\":5673:5790   */\n      pop\n        /* \"#utility.yul\":5829:5831   */\n      0x20\n        /* \"#utility.yul\":5855:5908   */\n      tag_408\n        /* \"#utility.yul\":5900:5907   */\n      dup6\n        /* \"#utility.yul\":5891:5897   */\n      dup3\n        /* \"#utility.yul\":5880:5889   */\n      dup7\n        /* \"#utility.yul\":5876:5898   */\n      add\n        /* \"#utility.yul\":5855:5908   */\n      tag_264\n      jump\t// in\n    tag_408:\n        /* \"#utility.yul\":5845:5908   */\n      swap2\n      pop\n        /* \"#utility.yul\":5800:5918   */\n      pop\n        /* \"#utility.yul\":5451:5925   */\n      swap3\n      pop\n      swap3\n      swap1\n      pop\n      jump\t// out\n        /* \"#utility.yul\":5931:6066   */\n    tag_265:\n        /* \"#utility.yul\":6019:6025   */\n      0x00\n        /* \"#utility.yul\":6053:6058   */\n      dup2\n        /* \"#utility.yul\":6047:6059   */\n      mload\n        /* \"#utility.yul\":6037:6059   */\n      swap1\n      pop\n        /* \"#utility.yul\":5931:6066   */\n      swap2\n      swap1\n      pop\n      jump\t// out\n        /* \"#utility.yul\":6072:6277   */\n    tag_266:\n        /* \"#utility.yul\":6192:6203   */\n      0x00\n        /* \"#utility.yul\":6226:6232   */\n      dup3\n        /* \"#utility.yul\":6221:6224   */\n      dup3\n        /* \"#utility.yul\":6214:6233   */\n      mstore\n        /* \"#utility.yul\":6266:6270   */\n      0x20\n        /* \"#utility.yul\":6261:6264   */\n      dup3\n        /* \"#utility.yul\":6257:6271   */\n      add\n        /* \"#utility.yul\":6242:6271   */\n      swap1\n      pop\n        /* \"#utility.yul\":6072:6277   */\n      swap3\n      swap2\n      pop\n      pop\n      jump\t// out\n        /* \"#utility.yul\":6283:6436   */\n    tag_267:\n        /* \"#utility.yul\":6371:6375   */\n      0x00\n        /* \"#utility.yul\":6394:6397   */\n      dup2\n        /* \"#utility.yul\":6386:6397   */\n      swap1\n      pop\n        /* \"#utility.yul\":6424:6428   */\n      0x20\n        /* \"#utility.yul\":6419:6422   */\n      dup3\n        /* \"#utility.yul\":6415:6429   */\n      add\n        /* \"#utility.yul\":6407:6429   */\n      swap1\n      pop\n        /* \"#utility.yul\":6283:6436   */\n      swap2\n      swap1\n      pop\n      jump\t// out\n        /* \"#utility.yul\":6442:6550   */\n    tag_268:\n        /* \"#utility.yul\":6519:6543   */\n      tag_413\n        /* \"#utility.yul\":6537:6542   */\n      dup2\n        /* \"#utility.yul\":6519:6543   */\n      tag_245\n      jump\t// in\n    tag_413:\n        /* \"#utility.yul\":6514:6517   */\n      dup3\n        /* \"#utility.yul\":6507:6544   */\n      mstore\n        /* \"#utility.yul\":6442:6550   */\n      pop\n      pop\n      jump\t// out\n        /* \"#utility.yul\":6556:6715   */\n    tag_269:\n        /* \"#utility.yul\":6630:6641   */\n      0x00\n        /* \"#utility.yul\":6664:6670   */\n      dup3\n        /* \"#utility.yul\":6659:6662   */\n      dup3\n        /* \"#utility.yul\":6652:6671   */\n      mstore\n        /* \"#utility.yul\":6704:6708   */\n      0x20\n        /* \"#utility.yul\":6699:6702   */\n      dup3\n        /* \"#utility.yul\":6695:6709   */\n      add\n        /* \"#utility.yul\":6680:6709   */\n      swap1\n      pop\n        /* \"#utility.yul\":6556:6715   */\n      swap3\n      swap2\n      pop\n      pop\n      jump\t// out\n        /* \"#utility.yul\":6721:7078   */\n    tag_270:\n        /* \"#utility.yul\":6799:6802   */\n      0x00\n        /* \"#utility.yul\":6827:6866   */\n      tag_416\n        /* \"#utility.yul\":6860:6865   */\n      dup3\n        /* \"#utility.yul\":6827:6866   */\n      tag_248\n      jump\t// in\n    tag_416:\n        /* \"#utility.yul\":6882:6943   */\n      tag_417\n        /* \"#utility.yul\":6936:6942   */\n      dup2\n        /* \"#utility.yul\":6931:6934   */\n      dup6\n        /* \"#utility.yul\":6882:6943   */\n      tag_269\n      jump\t// in\n    tag_417:\n        /* \"#utility.yul\":6875:6943   */\n      swap4\n      pop\n        /* \"#utility.yul\":6952:7017   */\n      tag_418\n        /* \"#utility.yul\":7010:7016   */\n      dup2\n        /* \"#utility.yul\":7005:7008   */\n      dup6\n        /* \"#utility.yul\":6998:7002   */\n      0x20\n        /* \"#utility.yul\":6991:6996   */\n      dup7\n        /* \"#utility.yul\":6987:7003   */\n      add\n        /* \"#utility.yul\":6952:7017   */\n      tag_250\n      jump\t// in\n    tag_418:\n        /* \"#utility.yul\":7042:7071   */\n      tag_419\n        /* \"#utility.yul\":7064:7070   */\n      dup2\n        /* \"#utility.yul\":7042:7071   */\n      tag_251\n      jump\t// in\n    tag_419:\n        /* \"#utility.yul\":7037:7040   */\n      dup5\n        /* \"#utility.yul\":7033:7072   */\n      add\n        /* \"#utility.yul\":7026:7072   */\n      swap2\n      pop\n        /* \"#utility.yul\":6803:7078   */\n      pop\n        /* \"#utility.yul\":6721:7078   */\n      swap3\n      swap2\n      pop\n      pop\n      jump\t// out\n        /* \"#utility.yul\":7084:7192   */\n    tag_271:\n        /* \"#utility.yul\":7161:7185   */\n      tag_421\n        /* \"#utility.yul\":7179:7184   */\n      dup2\n        /* \"#utility.yul\":7161:7185   */\n      tag_253\n      jump\t// in\n    tag_421:\n        /* \"#utility.yul\":7156:7159   */\n      dup3\n        /* \"#utility.yul\":7149:7186   */\n      mstore\n        /* \"#utility.yul\":7084:7192   */\n      pop\n      pop\n      jump\t// out\n        /* \"#utility.yul\":7198:7306   */\n    tag_272:\n        /* \"#utility.yul\":7275:7299   */\n      tag_423\n        /* \"#utility.yul\":7293:7298   */\n      dup2\n        /* \"#utility.yul\":7275:7299   */\n      tag_256\n      jump\t// in\n    tag_423:\n        /* \"#utility.yul\":7270:7273   */\n      dup3\n        /* \"#utility.yul\":7263:7300   */\n      mstore\n        /* \"#utility.yul\":7198:7306   */\n      pop\n      pop\n      jump\t// out\n        /* \"#utility.yul\":7312:7443   */\n    tag_273:\n        /* \"#utility.yul\":7394:7436   */\n      tag_425\n        /* \"#utility.yul\":7430:7435   */\n      dup2\n        /* \"#utility.yul\":7394:7436   */\n      tag_260\n      jump\t// in\n    tag_425:\n        /* \"#utility.yul\":7389:7392   */\n      dup3\n        /* \"#utility.yul\":7382:7437   */\n      mstore\n        /* \"#utility.yul\":7312:7443   */\n      pop\n      pop\n      jump\t// out\n        /* \"#utility.yul\":7511:8639   */\n    tag_274:\n        /* \"#utility.yul\":7612:7615   */\n      0x00\n        /* \"#utility.yul\":7648:7652   */\n      0xa0\n        /* \"#utility.yul\":7643:7646   */\n      dup4\n        /* \"#utility.yul\":7639:7653   */\n      add\n        /* \"#utility.yul\":7733:7737   */\n      0x00\n        /* \"#utility.yul\":7726:7731   */\n      dup4\n        /* \"#utility.yul\":7722:7738   */\n      add\n        /* \"#utility.yul\":7716:7739   */\n      mload\n        /* \"#utility.yul\":7752:7815   */\n      tag_427\n        /* \"#utility.yul\":7809:7813   */\n      0x00\n        /* \"#utility.yul\":7804:7807   */\n      dup7\n        /* \"#utility.yul\":7800:7814   */\n      add\n        /* \"#utility.yul\":7786:7798   */\n      dup3\n        /* \"#utility.yul\":7752:7815   */\n      tag_268\n      jump\t// in\n    tag_427:\n        /* \"#utility.yul\":7663:7825   */\n      pop\n        /* \"#utility.yul\":7914:7918   */\n      0x20\n        /* \"#utility.yul\":7907:7912   */\n      dup4\n        /* \"#utility.yul\":7903:7919   */\n      add\n        /* \"#utility.yul\":7897:7920   */\n      mload\n        /* \"#utility.yul\":7967:7970   */\n      dup5\n        /* \"#utility.yul\":7961:7965   */\n      dup3\n        /* \"#utility.yul\":7957:7971   */\n      sub\n        /* \"#utility.yul\":7950:7954   */\n      0x20\n        /* \"#utility.yul\":7945:7948   */\n      dup7\n        /* \"#utility.yul\":7941:7955   */\n      add\n        /* \"#utility.yul\":7934:7972   */\n      mstore\n        /* \"#utility.yul\":7993:8066   */\n      tag_428\n        /* \"#utility.yul\":8061:8065   */\n      dup3\n        /* \"#utility.yul\":8047:8059   */\n      dup3\n        /* \"#utility.yul\":7993:8066   */\n      tag_270\n      jump\t// in\n    tag_428:\n        /* \"#utility.yul\":7985:8066   */\n      swap2\n      pop\n        /* \"#utility.yul\":7835:8077   */\n      pop\n        /* \"#utility.yul\":8164:8168   */\n      0x40\n        /* \"#utility.yul\":8157:8162   */\n      dup4\n        /* \"#utility.yul\":8153:8169   */\n      add\n        /* \"#utility.yul\":8147:8170   */\n      mload\n        /* \"#utility.yul\":8183:8246   */\n      tag_429\n        /* \"#utility.yul\":8240:8244   */\n      0x40\n        /* \"#utility.yul\":8235:8238   */\n      dup7\n        /* \"#utility.yul\":8231:8245   */\n      add\n        /* \"#utility.yul\":8217:8229   */\n      dup3\n        /* \"#utility.yul\":8183:8246   */\n      tag_271\n      jump\t// in\n    tag_429:\n        /* \"#utility.yul\":8087:8256   */\n      pop\n        /* \"#utility.yul\":8340:8344   */\n      0x60\n        /* \"#utility.yul\":8333:8338   */\n      dup4\n        /* \"#utility.yul\":8329:8345   */\n      add\n        /* \"#utility.yul\":8323:8346   */\n      mload\n        /* \"#utility.yul\":8359:8422   */\n      tag_430\n        /* \"#utility.yul\":8416:8420   */\n      0x60\n        /* \"#utility.yul\":8411:8414   */\n      dup7\n        /* \"#utility.yul\":8407:8421   */\n      add\n        /* \"#utility.yul\":8393:8405   */\n      dup3\n        /* \"#utility.yul\":8359:8422   */\n      tag_272\n      jump\t// in\n    tag_430:\n        /* \"#utility.yul\":8266:8432   */\n      pop\n        /* \"#utility.yul\":8515:8519   */\n      0x80\n        /* \"#utility.yul\":8508:8513   */\n      dup4\n        /* \"#utility.yul\":8504:8520   */\n      add\n        /* \"#utility.yul\":8498:8521   */\n      mload\n        /* \"#utility.yul\":8534:8602   */\n      tag_431\n        /* \"#utility.yul\":8596:8600   */\n      0x80\n        /* \"#utility.yul\":8591:8594   */\n      dup7\n        /* \"#utility.yul\":8587:8601   */\n      add\n        /* \"#utility.yul\":8573:8585   */\n      dup3\n        /* \"#utility.yul\":8534:8602   */\n      tag_273\n      jump\t// in\n    tag_431:\n        /* \"#utility.yul\":8442:8612   */\n      pop\n        /* \"#utility.yul\":8629:8633   */\n      dup1\n        /* \"#utility.yul\":8622:8633   */\n      swap2\n      pop\n        /* \"#utility.yul\":7617:8639   */\n      pop\n        /* \"#utility.yul\":7511:8639   */\n      swap3\n      swap2\n      pop\n      pop\n      jump\t// out\n        /* \"#utility.yul\":8645:8885   */\n    tag_275:\n        /* \"#utility.yul\":8756:8766   */\n      0x00\n        /* \"#utility.yul\":8791:8879   */\n      tag_433\n        /* \"#utility.yul\":8875:8878   */\n      dup4\n        /* \"#utility.yul\":8867:8873   */\n      dup4\n        /* \"#utility.yul\":8791:8879   */\n      tag_274\n      jump\t// in\n    tag_433:\n        /* \"#utility.yul\":8777:8879   */\n      swap1\n      pop\n        /* \"#utility.yul\":8645:8885   */\n      swap3\n      swap2\n      pop\n      pop\n      jump\t// out\n        /* \"#utility.yul\":8891:9025   */\n    tag_276:\n        /* \"#utility.yul\":8982:8986   */\n      0x00\n        /* \"#utility.yul\":9014:9018   */\n      0x20\n        /* \"#utility.yul\":9009:9012   */\n      dup3\n        /* \"#utility.yul\":9005:9019   */\n      add\n        /* \"#utility.yul\":8997:9019   */\n      swap1\n      pop\n        /* \"#utility.yul\":8891:9025   */\n      swap2\n      swap1\n      pop\n      jump\t// out\n        /* \"#utility.yul\":9097:10176   */\n    tag_277:\n        /* \"#utility.yul\":9258:9261   */\n      0x00\n        /* \"#utility.yul\":9287:9362   */\n      tag_436\n        /* \"#utility.yul\":9356:9361   */\n      dup3\n        /* \"#utility.yul\":9287:9362   */\n      tag_265\n      jump\t// in\n    tag_436:\n        /* \"#utility.yul\":9378:9485   */\n      tag_437\n        /* \"#utility.yul\":9478:9484   */\n      dup2\n        /* \"#utility.yul\":9473:9476   */\n      dup6\n        /* \"#utility.yul\":9378:9485   */\n      tag_266\n      jump\t// in\n    tag_437:\n        /* \"#utility.yul\":9371:9485   */\n      swap4\n      pop\n        /* \"#utility.yul\":9511:9514   */\n      dup4\n        /* \"#utility.yul\":9556:9560   */\n      0x20\n        /* \"#utility.yul\":9548:9554   */\n      dup3\n        /* \"#utility.yul\":9544:9561   */\n      mul\n        /* \"#utility.yul\":9539:9542   */\n      dup6\n        /* \"#utility.yul\":9535:9562   */\n      add\n        /* \"#utility.yul\":9586:9663   */\n      tag_438\n        /* \"#utility.yul\":9657:9662   */\n      dup6\n        /* \"#utility.yul\":9586:9663   */\n      tag_267\n      jump\t// in\n    tag_438:\n        /* \"#utility.yul\":9686:9693   */\n      dup1\n        /* \"#utility.yul\":9717:9718   */\n      0x00\n        /* \"#utility.yul\":9702:10131   */\n    tag_439:\n        /* \"#utility.yul\":9727:9733   */\n      dup6\n        /* \"#utility.yul\":9724:9725   */\n      dup2\n        /* \"#utility.yul\":9721:9734   */\n      lt\n        /* \"#utility.yul\":9702:10131   */\n      iszero\n      tag_441\n      jumpi\n        /* \"#utility.yul\":9798:9807   */\n      dup5\n        /* \"#utility.yul\":9792:9796   */\n      dup5\n        /* \"#utility.yul\":9788:9808   */\n      sub\n        /* \"#utility.yul\":9783:9786   */\n      dup10\n        /* \"#utility.yul\":9776:9809   */\n      mstore\n        /* \"#utility.yul\":9849:9855   */\n      dup2\n        /* \"#utility.yul\":9843:9856   */\n      mload\n        /* \"#utility.yul\":9877:9983   */\n      tag_442\n        /* \"#utility.yul\":9978:9982   */\n      dup6\n        /* \"#utility.yul\":9963:9976   */\n      dup3\n        /* \"#utility.yul\":9877:9983   */\n      tag_275\n      jump\t// in\n    tag_442:\n        /* \"#utility.yul\":9869:9983   */\n      swap5\n      pop\n        /* \"#utility.yul\":10006:10087   */\n      tag_443\n        /* \"#utility.yul\":10080:10086   */\n      dup4\n        /* \"#utility.yul\":10006:10087   */\n      tag_276\n      jump\t// in\n    tag_443:\n        /* \"#utility.yul\":9996:10087   */\n      swap3\n      pop\n        /* \"#utility.yul\":10116:10120   */\n      0x20\n        /* \"#utility.yul\":10111:10114   */\n      dup11\n        /* \"#utility.yul\":10107:10121   */\n      add\n        /* \"#utility.yul\":10100:10121   */\n      swap10\n      pop\n        /* \"#utility.yul\":9762:10131   */\n      pop\n        /* \"#utility.yul\":9749:9750   */\n      0x01\n        /* \"#utility.yul\":9746:9747   */\n      dup2\n        /* \"#utility.yul\":9742:9751   */\n      add\n        /* \"#utility.yul\":9737:9751   */\n      swap1\n      pop\n        /* \"#utility.yul\":9702:10131   */\n      jump(tag_439)\n    tag_441:\n        /* \"#utility.yul\":9706:9720   */\n      pop\n        /* \"#utility.yul\":10147:10151   */\n      dup3\n        /* \"#utility.yul\":10140:10151   */\n      swap8\n      pop\n        /* \"#utility.yul\":10167:10170   */\n      dup8\n        /* \"#utility.yul\":10160:10170   */\n      swap6\n      pop\n        /* \"#utility.yul\":9263:10176   */\n      pop\n      pop\n      pop\n      pop\n      pop\n        /* \"#utility.yul\":9097:10176   */\n      swap3\n      swap2\n      pop\n      pop\n      jump\t// out\n        /* \"#utility.yul\":10182:10639   */\n    tag_28:\n        /* \"#utility.yul\":10367:10371   */\n      0x00\n        /* \"#utility.yul\":10405:10407   */\n      0x20\n        /* \"#utility.yul\":10394:10403   */\n      dup3\n        /* \"#utility.yul\":10390:10408   */\n      add\n        /* \"#utility.yul\":10382:10408   */\n      swap1\n      pop\n        /* \"#utility.yul\":10454:10463   */\n      dup2\n        /* \"#utility.yul\":10448:10452   */\n      dup2\n        /* \"#utility.yul\":10444:10464   */\n      sub\n        /* \"#utility.yul\":10440:10441   */\n      0x00\n        /* \"#utility.yul\":10429:10438   */\n      dup4\n        /* \"#utility.yul\":10425:10442   */\n      add\n        /* \"#utility.yul\":10418:10465   */\n      mstore\n        /* \"#utility.yul\":10482:10632   */\n      tag_445\n        /* \"#utility.yul\":10627:10631   */\n      dup2\n        /* \"#utility.yul\":10618:10624   */\n      dup5\n        /* \"#utility.yul\":10482:10632   */\n      tag_277\n      jump\t// in\n    tag_445:\n        /* \"#utility.yul\":10474:10632   */\n      swap1\n      pop\n        /* \"#utility.yul\":10182:10639   */\n      swap3\n      swap2\n      pop\n      pop\n      jump\t// out\n        /* \"#utility.yul\":10645:10759   */\n    tag_278:\n        /* \"#utility.yul\":10712:10718   */\n      0x00\n        /* \"#utility.yul\":10746:10751   */\n      dup2\n        /* \"#utility.yul\":10740:10752   */\n      mload\n        /* \"#utility.yul\":10730:10752   */\n      swap1\n      pop\n        /* \"#utility.yul\":10645:10759   */\n      swap2\n      swap1\n      pop\n      jump\t// out\n        /* \"#utility.yul\":10765:10949   */\n    tag_279:\n        /* \"#utility.yul\":10864:10875   */\n      0x00\n        /* \"#utility.yul\":10898:10904   */\n      dup3\n        /* \"#utility.yul\":10893:10896   */\n      dup3\n        /* \"#utility.yul\":10886:10905   */\n      mstore\n        /* \"#utility.yul\":10938:10942   */\n      0x20\n        /* \"#utility.yul\":10933:10936   */\n      dup3\n        /* \"#utility.yul\":10929:10943   */\n      add\n        /* \"#utility.yul\":10914:10943   */\n      swap1\n      pop\n        /* \"#utility.yul\":10765:10949   */\n      swap3\n      swap2\n      pop\n      pop\n      jump\t// out\n        /* \"#utility.yul\":10955:11087   */\n    tag_280:\n        /* \"#utility.yul\":11022:11026   */\n      0x00\n        /* \"#utility.yul\":11045:11048   */\n      dup2\n        /* \"#utility.yul\":11037:11048   */\n      swap1\n      pop\n        /* \"#utility.yul\":11075:11079   */\n      0x20\n        /* \"#utility.yul\":11070:11073   */\n      dup3\n        /* \"#utility.yul\":11066:11080   */\n      add\n        /* \"#utility.yul\":11058:11080   */\n      swap1\n      pop\n        /* \"#utility.yul\":10955:11087   */\n      swap2\n      swap1\n      pop\n      jump\t// out\n        /* \"#utility.yul\":11093:11272   */\n    tag_281:\n        /* \"#utility.yul\":11162:11172   */\n      0x00\n        /* \"#utility.yul\":11183:11229   */\n      tag_450\n        /* \"#utility.yul\":11225:11228   */\n      dup4\n        /* \"#utility.yul\":11217:11223   */\n      dup4\n        /* \"#utility.yul\":11183:11229   */\n      tag_268\n      jump\t// in\n    tag_450:\n        /* \"#utility.yul\":11261:11265   */\n      0x20\n        /* \"#utility.yul\":11256:11259   */\n      dup4\n        /* \"#utility.yul\":11252:11266   */\n      add\n        /* \"#utility.yul\":11238:11266   */\n      swap1\n      pop\n        /* \"#utility.yul\":11093:11272   */\n      swap3\n      swap2\n      pop\n      pop\n      jump\t// out\n        /* \"#utility.yul\":11278:11391   */\n    tag_282:\n        /* \"#utility.yul\":11348:11352   */\n      0x00\n        /* \"#utility.yul\":11380:11384   */\n      0x20\n        /* \"#utility.yul\":11375:11378   */\n      dup3\n        /* \"#utility.yul\":11371:11385   */\n      add\n        /* \"#utility.yul\":11363:11385   */\n      swap1\n      pop\n        /* \"#utility.yul\":11278:11391   */\n      swap2\n      swap1\n      pop\n      jump\t// out\n        /* \"#utility.yul\":11427:12159   */\n    tag_283:\n        /* \"#utility.yul\":11546:11549   */\n      0x00\n        /* \"#utility.yul\":11575:11629   */\n      tag_453\n        /* \"#utility.yul\":11623:11628   */\n      dup3\n        /* \"#utility.yul\":11575:11629   */\n      tag_278\n      jump\t// in\n    tag_453:\n        /* \"#utility.yul\":11645:11731   */\n      tag_454\n        /* \"#utility.yul\":11724:11730   */\n      dup2\n        /* \"#utility.yul\":11719:11722   */\n      dup6\n        /* \"#utility.yul\":11645:11731   */\n      tag_279\n      jump\t// in\n    tag_454:\n        /* \"#utility.yul\":11638:11731   */\n      swap4\n      pop\n        /* \"#utility.yul\":11755:11811   */\n      tag_455\n        /* \"#utility.yul\":11805:11810   */\n      dup4\n        /* \"#utility.yul\":11755:11811   */\n      tag_280\n      jump\t// in\n    tag_455:\n        /* \"#utility.yul\":11834:11841   */\n      dup1\n        /* \"#utility.yul\":11865:11866   */\n      0x00\n        /* \"#utility.yul\":11850:12134   */\n    tag_456:\n        /* \"#utility.yul\":11875:11881   */\n      dup4\n        /* \"#utility.yul\":11872:11873   */\n      dup2\n        /* \"#utility.yul\":11869:11882   */\n      lt\n        /* \"#utility.yul\":11850:12134   */\n      iszero\n      tag_458\n      jumpi\n        /* \"#utility.yul\":11951:11957   */\n      dup2\n        /* \"#utility.yul\":11945:11958   */\n      mload\n        /* \"#utility.yul\":11978:12041   */\n      tag_459\n        /* \"#utility.yul\":12037:12040   */\n      dup9\n        /* \"#utility.yul\":12022:12035   */\n      dup3\n        /* \"#utility.yul\":11978:12041   */\n      tag_281\n      jump\t// in\n    tag_459:\n        /* \"#utility.yul\":11971:12041   */\n      swap8\n      pop\n        /* \"#utility.yul\":12064:12124   */\n      tag_460\n        /* \"#utility.yul\":12117:12123   */\n      dup4\n        /* \"#utility.yul\":12064:12124   */\n      tag_282\n      jump\t// in\n    tag_460:\n        /* \"#utility.yul\":12054:12124   */\n      swap3\n      pop\n        /* \"#utility.yul\":11910:12134   */\n      pop\n        /* \"#utility.yul\":11897:11898   */\n      0x01\n        /* \"#utility.yul\":11894:11895   */\n      dup2\n        /* \"#utility.yul\":11890:11899   */\n      add\n        /* \"#utility.yul\":11885:11899   */\n      swap1\n      pop\n        /* \"#utility.yul\":11850:12134   */\n      jump(tag_456)\n    tag_458:\n        /* \"#utility.yul\":11854:11868   */\n      pop\n        /* \"#utility.yul\":12150:12153   */\n      dup6\n        /* \"#utility.yul\":12143:12153   */\n      swap4\n      pop\n        /* \"#utility.yul\":11551:12159   */\n      pop\n      pop\n      pop\n        /* \"#utility.yul\":11427:12159   */\n      swap3\n      swap2\n      pop\n      pop\n      jump\t// out\n        /* \"#utility.yul\":12165:12538   */\n    tag_32:\n        /* \"#utility.yul\":12308:12312   */\n      0x00\n        /* \"#utility.yul\":12346:12348   */\n      0x20\n        /* \"#utility.yul\":12335:12344   */\n      dup3\n        /* \"#utility.yul\":12331:12349   */\n      add\n        /* \"#utility.yul\":12323:12349   */\n      swap1\n      pop\n        /* \"#utility.yul\":12395:12404   */\n      dup2\n        /* \"#utility.yul\":12389:12393   */\n      dup2\n        /* \"#utility.yul\":12385:12405   */\n      sub\n        /* \"#utility.yul\":12381:12382   */\n      0x00\n        /* \"#utility.yul\":12370:12379   */\n      dup4\n        /* \"#utility.yul\":12366:12383   */\n      add\n        /* \"#utility.yul\":12359:12406   */\n      mstore\n        /* \"#utility.yul\":12423:12531   */\n      tag_462\n        /* \"#utility.yul\":12526:12530   */\n      dup2\n        /* \"#utility.yul\":12517:12523   */\n      dup5\n        /* \"#utility.yul\":12423:12531   */\n      tag_283\n      jump\t// in\n    tag_462:\n        /* \"#utility.yul\":12415:12531   */\n      swap1\n      pop\n        /* \"#utility.yul\":12165:12538   */\n      swap3\n      swap2\n      pop\n      pop\n      jump\t// out\n        /* \"#utility.yul\":12544:12661   */\n    tag_284:\n        /* \"#utility.yul\":12653:12654   */\n      0x00\n        /* \"#utility.yul\":12650:12651   */\n      dup1\n        /* \"#utility.yul\":12643:12655   */\n      revert\n        /* \"#utility.yul\":12667:12784   */\n    tag_285:\n        /* \"#utility.yul\":12776:12777   */\n      0x00\n        /* \"#utility.yul\":12773:12774   */\n      dup1\n        /* \"#utility.yul\":12766:12778   */\n      revert\n        /* \"#utility.yul\":12790:12970   */\n    tag_120:\n        /* \"#utility.yul\":12838:12915   */\n      0x4e487b7100000000000000000000000000000000000000000000000000000000\n        /* \"#utility.yul\":12835:12836   */\n      0x00\n        /* \"#utility.yul\":12828:12916   */\n      mstore\n        /* \"#utility.yul\":12935:12939   */\n      0x41\n        /* \"#utility.yul\":12932:12933   */\n      0x04\n        /* \"#utility.yul\":12925:12940   */\n      mstore\n        /* \"#utility.yul\":12959:12963   */\n      0x24\n        /* \"#utility.yul\":12956:12957   */\n      0x00\n        /* \"#utility.yul\":12949:12964   */\n      revert\n        /* \"#utility.yul\":12976:13257   */\n    tag_286:\n        /* \"#utility.yul\":13059:13086   */\n      tag_467\n        /* \"#utility.yul\":13081:13085   */\n      dup3\n        /* \"#utility.yul\":13059:13086   */\n      tag_251\n      jump\t// in\n    tag_467:\n        /* \"#utility.yul\":13051:13057   */\n      dup2\n        /* \"#utility.yul\":13047:13087   */\n      add\n        /* \"#utility.yul\":13189:13195   */\n      dup2\n        /* \"#utility.yul\":13177:13187   */\n      dup2\n        /* \"#utility.yul\":13174:13196   */\n      lt\n        /* \"#utility.yul\":13153:13171   */\n      0xffffffffffffffff\n        /* \"#utility.yul\":13141:13151   */\n      dup3\n        /* \"#utility.yul\":13138:13172   */\n      gt\n        /* \"#utility.yul\":13135:13197   */\n      or\n        /* \"#utility.yul\":13132:13220   */\n      iszero\n      tag_468\n      jumpi\n        /* \"#utility.yul\":13200:13218   */\n      tag_469\n      tag_120\n      jump\t// in\n    tag_469:\n        /* \"#utility.yul\":13132:13220   */\n    tag_468:\n        /* \"#utility.yul\":13240:13250   */\n      dup1\n        /* \"#utility.yul\":13236:13238   */\n      0x40\n        /* \"#utility.yul\":13229:13251   */\n      mstore\n        /* \"#utility.yul\":13019:13257   */\n      pop\n        /* \"#utility.yul\":12976:13257   */\n      pop\n      pop\n      jump\t// out\n        /* \"#utility.yul\":13263:13392   */\n    tag_287:\n        /* \"#utility.yul\":13297:13303   */\n      0x00\n        /* \"#utility.yul\":13324:13344   */\n      tag_471\n      tag_242\n      jump\t// in\n    tag_471:\n        /* \"#utility.yul\":13314:13344   */\n      swap1\n      pop\n        /* \"#utility.yul\":13353:13386   */\n      tag_472\n        /* \"#utility.yul\":13381:13385   */\n      dup3\n        /* \"#utility.yul\":13373:13379   */\n      dup3\n        /* \"#utility.yul\":13353:13386   */\n      tag_286\n      jump\t// in\n    tag_472:\n        /* \"#utility.yul\":13263:13392   */\n      swap2\n      swap1\n      pop\n      jump\t// out\n        /* \"#utility.yul\":13398:13706   */\n    tag_288:\n        /* \"#utility.yul\":13460:13464   */\n      0x00\n        /* \"#utility.yul\":13550:13568   */\n      0xffffffffffffffff\n        /* \"#utility.yul\":13542:13548   */\n      dup3\n        /* \"#utility.yul\":13539:13569   */\n      gt\n        /* \"#utility.yul\":13536:13592   */\n      iszero\n      tag_474\n      jumpi\n        /* \"#utility.yul\":13572:13590   */\n      tag_475\n      tag_120\n      jump\t// in\n    tag_475:\n        /* \"#utility.yul\":13536:13592   */\n    tag_474:\n        /* \"#utility.yul\":13610:13639   */\n      tag_476\n        /* \"#utility.yul\":13632:13638   */\n      dup3\n        /* \"#utility.yul\":13610:13639   */\n      tag_251\n      jump\t// in\n    tag_476:\n        /* \"#utility.yul\":13602:13639   */\n      swap1\n      pop\n        /* \"#utility.yul\":13694:13698   */\n      0x20\n        /* \"#utility.yul\":13688:13692   */\n      dup2\n        /* \"#utility.yul\":13684:13699   */\n      add\n        /* \"#utility.yul\":13676:13699   */\n      swap1\n      pop\n        /* \"#utility.yul\":13398:13706   */\n      swap2\n      swap1\n      pop\n      jump\t// out\n        /* \"#utility.yul\":13712:13860   */\n    tag_289:\n        /* \"#utility.yul\":13810:13816   */\n      dup3\n        /* \"#utility.yul\":13805:13808   */\n      dup2\n        /* \"#utility.yul\":13800:13803   */\n      dup4\n        /* \"#utility.yul\":13787:13817   */\n      calldatacopy\n        /* \"#utility.yul\":13851:13852   */\n      0x00\n        /* \"#utility.yul\":13842:13848   */\n      dup4\n        /* \"#utility.yul\":13837:13840   */\n      dup4\n        /* \"#utility.yul\":13833:13849   */\n      add\n        /* \"#utility.yul\":13826:13853   */\n      mstore\n        /* \"#utility.yul\":13712:13860   */\n      pop\n      pop\n      pop\n      jump\t// out\n        /* \"#utility.yul\":13866:14291   */\n    tag_290:\n        /* \"#utility.yul\":13944:13949   */\n      0x00\n        /* \"#utility.yul\":13969:14035   */\n      tag_479\n        /* \"#utility.yul\":13985:14034   */\n      tag_480\n        /* \"#utility.yul\":14027:14033   */\n      dup5\n        /* \"#utility.yul\":13985:14034   */\n      tag_288\n      jump\t// in\n    tag_480:\n        /* \"#utility.yul\":13969:14035   */\n      tag_287\n      jump\t// in\n    tag_479:\n        /* \"#utility.yul\":13960:14035   */\n      swap1\n      pop\n        /* \"#utility.yul\":14058:14064   */\n      dup3\n        /* \"#utility.yul\":14051:14056   */\n      dup2\n        /* \"#utility.yul\":14044:14065   */\n      mstore\n        /* \"#utility.yul\":14096:14100   */\n      0x20\n        /* \"#utility.yul\":14089:14094   */\n      dup2\n        /* \"#utility.yul\":14085:14101   */\n      add\n        /* \"#utility.yul\":14134:14137   */\n      dup5\n        /* \"#utility.yul\":14125:14131   */\n      dup5\n        /* \"#utility.yul\":14120:14123   */\n      dup5\n        /* \"#utility.yul\":14116:14132   */\n      add\n        /* \"#utility.yul\":14113:14138   */\n      gt\n        /* \"#utility.yul\":14110:14222   */\n      iszero\n      tag_481\n      jumpi\n        /* \"#utility.yul\":14141:14220   */\n      tag_482\n      tag_285\n      jump\t// in\n    tag_482:\n        /* \"#utility.yul\":14110:14222   */\n    tag_481:\n        /* \"#utility.yul\":14231:14285   */\n      tag_483\n        /* \"#utility.yul\":14278:14284   */\n      dup5\n        /* \"#utility.yul\":14273:14276   */\n      dup3\n        /* \"#utility.yul\":14268:14271   */\n      dup6\n        /* \"#utility.yul\":14231:14285   */\n      tag_289\n      jump\t// in\n    tag_483:\n        /* \"#utility.yul\":13950:14291   */\n      pop\n        /* \"#utility.yul\":13866:14291   */\n      swap4\n      swap3\n      pop\n      pop\n      pop\n      jump\t// out\n        /* \"#utility.yul\":14311:14651   */\n    tag_291:\n        /* \"#utility.yul\":14367:14372   */\n      0x00\n        /* \"#utility.yul\":14416:14419   */\n      dup3\n        /* \"#utility.yul\":14409:14413   */\n      0x1f\n        /* \"#utility.yul\":14401:14407   */\n      dup4\n        /* \"#utility.yul\":14397:14414   */\n      add\n        /* \"#utility.yul\":14393:14420   */\n      slt\n        /* \"#utility.yul\":14383:14505   */\n      tag_485\n      jumpi\n        /* \"#utility.yul\":14424:14503   */\n      tag_486\n      tag_284\n      jump\t// in\n    tag_486:\n        /* \"#utility.yul\":14383:14505   */\n    tag_485:\n        /* \"#utility.yul\":14541:14547   */\n      dup2\n        /* \"#utility.yul\":14528:14548   */\n      calldataload\n        /* \"#utility.yul\":14566:14645   */\n      tag_487\n        /* \"#utility.yul\":14641:14644   */\n      dup5\n        /* \"#utility.yul\":14633:14639   */\n      dup3\n        /* \"#utility.yul\":14626:14630   */\n      0x20\n        /* \"#utility.yul\":14618:14624   */\n      dup7\n        /* \"#utility.yul\":14614:14631   */\n      add\n        /* \"#utility.yul\":14566:14645   */\n      tag_290\n      jump\t// in\n    tag_487:\n        /* \"#utility.yul\":14557:14645   */\n      swap2\n      pop\n        /* \"#utility.yul\":14373:14651   */\n      pop\n        /* \"#utility.yul\":14311:14651   */\n      swap3\n      swap2\n      pop\n      pop\n      jump\t// out\n        /* \"#utility.yul\":14657:15311   */\n    tag_35:\n        /* \"#utility.yul\":14735:14741   */\n      0x00\n        /* \"#utility.yul\":14743:14749   */\n      dup1\n        /* \"#utility.yul\":14792:14794   */\n      0x40\n        /* \"#utility.yul\":14780:14789   */\n      dup4\n        /* \"#utility.yul\":14771:14778   */\n      dup6\n        /* \"#utility.yul\":14767:14790   */\n      sub\n        /* \"#utility.yul\":14763:14795   */\n      slt\n        /* \"#utility.yul\":14760:14879   */\n      iszero\n      tag_489\n      jumpi\n        /* \"#utility.yul\":14798:14877   */\n      tag_490\n      tag_243\n      jump\t// in\n    tag_490:\n        /* \"#utility.yul\":14760:14879   */\n    tag_489:\n        /* \"#utility.yul\":14918:14919   */\n      0x00\n        /* \"#utility.yul\":14943:14996   */\n      tag_491\n        /* \"#utility.yul\":14988:14995   */\n      dup6\n        /* \"#utility.yul\":14979:14985   */\n      dup3\n        /* \"#utility.yul\":14968:14977   */\n      dup7\n        /* \"#utility.yul\":14964:14986   */\n      add\n        /* \"#utility.yul\":14943:14996   */\n      tag_247\n      jump\t// in\n    tag_491:\n        /* \"#utility.yul\":14933:14996   */\n      swap3\n      pop\n        /* \"#utility.yul\":14889:15006   */\n      pop\n        /* \"#utility.yul\":15073:15075   */\n      0x20\n        /* \"#utility.yul\":15062:15071   */\n      dup4\n        /* \"#utility.yul\":15058:15076   */\n      add\n        /* \"#utility.yul\":15045:15077   */\n      calldataload\n        /* \"#utility.yul\":15104:15122   */\n      0xffffffffffffffff\n        /* \"#utility.yul\":15096:15102   */\n      dup2\n        /* \"#utility.yul\":15093:15123   */\n      gt\n        /* \"#utility.yul\":15090:15207   */\n      iszero\n      tag_492\n      jumpi\n        /* \"#utility.yul\":15126:15205   */\n      tag_493\n      tag_244\n      jump\t// in\n    tag_493:\n        /* \"#utility.yul\":15090:15207   */\n    tag_492:\n        /* \"#utility.yul\":15231:15294   */\n      tag_494\n        /* \"#utility.yul\":15286:15293   */\n      dup6\n        /* \"#utility.yul\":15277:15283   */\n      dup3\n        /* \"#utility.yul\":15266:15275   */\n      dup7\n        /* \"#utility.yul\":15262:15284   */\n      add\n        /* \"#utility.yul\":15231:15294   */\n      tag_291\n      jump\t// in\n    tag_494:\n        /* \"#utility.yul\":15221:15294   */\n      swap2\n      pop\n        /* \"#utility.yul\":15016:15304   */\n      pop\n        /* \"#utility.yul\":14657:15311   */\n      swap3\n      pop\n      swap3\n      swap1\n      pop\n      jump\t// out\n        /* \"#utility.yul\":15317:15423   */\n    tag_292:\n        /* \"#utility.yul\":15397:15398   */\n      0x02\n        /* \"#utility.yul\":15390:15395   */\n      dup2\n        /* \"#utility.yul\":15387:15399   */\n      lt\n        /* \"#utility.yul\":15377:15417   */\n      tag_496\n      jumpi\n        /* \"#utility.yul\":15413:15414   */\n      0x00\n        /* \"#utility.yul\":15410:15411   */\n      dup1\n        /* \"#utility.yul\":15403:15415   */\n      revert\n        /* \"#utility.yul\":15377:15417   */\n    tag_496:\n        /* \"#utility.yul\":15317:15423   */\n      pop\n      jump\t// out\n        /* \"#utility.yul\":15429:15582   */\n    tag_293:\n        /* \"#utility.yul\":15482:15487   */\n      0x00\n        /* \"#utility.yul\":15520:15526   */\n      dup2\n        /* \"#utility.yul\":15507:15527   */\n      calldataload\n        /* \"#utility.yul\":15498:15527   */\n      swap1\n      pop\n        /* \"#utility.yul\":15536:15576   */\n      tag_498\n        /* \"#utility.yul\":15570:15575   */\n      dup2\n        /* \"#utility.yul\":15536:15576   */\n      tag_292\n      jump\t// in\n    tag_498:\n        /* \"#utility.yul\":15429:15582   */\n      swap3\n      swap2\n      pop\n      pop\n      jump\t// out\n        /* \"#utility.yul\":15588:16076   */\n    tag_39:\n        /* \"#utility.yul\":15663:15669   */\n      0x00\n        /* \"#utility.yul\":15671:15677   */\n      dup1\n        /* \"#utility.yul\":15720:15722   */\n      0x40\n        /* \"#utility.yul\":15708:15717   */\n      dup4\n        /* \"#utility.yul\":15699:15706   */\n      dup6\n        /* \"#utility.yul\":15695:15718   */\n      sub\n        /* \"#utility.yul\":15691:15723   */\n      slt\n        /* \"#utility.yul\":15688:15807   */\n      iszero\n      tag_500\n      jumpi\n        /* \"#utility.yul\":15726:15805   */\n      tag_501\n      tag_243\n      jump\t// in\n    tag_501:\n        /* \"#utility.yul\":15688:15807   */\n    tag_500:\n        /* \"#utility.yul\":15846:15847   */\n      0x00\n        /* \"#utility.yul\":15871:15924   */\n      tag_502\n        /* \"#utility.yul\":15916:15923   */\n      dup6\n        /* \"#utility.yul\":15907:15913   */\n      dup3\n        /* \"#utility.yul\":15896:15905   */\n      dup7\n        /* \"#utility.yul\":15892:15914   */\n      add\n        /* \"#utility.yul\":15871:15924   */\n      tag_247\n      jump\t// in\n    tag_502:\n        /* \"#utility.yul\":15861:15924   */\n      swap3\n      pop\n        /* \"#utility.yul\":15817:15934   */\n      pop\n        /* \"#utility.yul\":15973:15975   */\n      0x20\n        /* \"#utility.yul\":15999:16059   */\n      tag_503\n        /* \"#utility.yul\":16051:16058   */\n      dup6\n        /* \"#utility.yul\":16042:16048   */\n      dup3\n        /* \"#utility.yul\":16031:16040   */\n      dup7\n        /* \"#utility.yul\":16027:16049   */\n      add\n        /* \"#utility.yul\":15999:16059   */\n      tag_293\n      jump\t// in\n    tag_503:\n        /* \"#utility.yul\":15989:16059   */\n      swap2\n      pop\n        /* \"#utility.yul\":15944:16069   */\n      pop\n        /* \"#utility.yul\":15588:16076   */\n      swap3\n      pop\n      swap3\n      swap1\n      pop\n      jump\t// out\n        /* \"#utility.yul\":16082:17567   */\n    tag_47:\n        /* \"#utility.yul\":16208:16214   */\n      0x00\n        /* \"#utility.yul\":16216:16222   */\n      dup1\n        /* \"#utility.yul\":16224:16230   */\n      0x00\n        /* \"#utility.yul\":16232:16238   */\n      dup1\n        /* \"#utility.yul\":16281:16284   */\n      0x80\n        /* \"#utility.yul\":16269:16278   */\n      dup6\n        /* \"#utility.yul\":16260:16267   */\n      dup8\n        /* \"#utility.yul\":16256:16279   */\n      sub\n        /* \"#utility.yul\":16252:16285   */\n      slt\n        /* \"#utility.yul\":16249:16369   */\n      iszero\n      tag_505\n      jumpi\n        /* \"#utility.yul\":16288:16367   */\n      tag_506\n      tag_243\n      jump\t// in\n    tag_506:\n        /* \"#utility.yul\":16249:16369   */\n    tag_505:\n        /* \"#utility.yul\":16436:16437   */\n      0x00\n        /* \"#utility.yul\":16425:16434   */\n      dup6\n        /* \"#utility.yul\":16421:16438   */\n      add\n        /* \"#utility.yul\":16408:16439   */\n      calldataload\n        /* \"#utility.yul\":16466:16484   */\n      0xffffffffffffffff\n        /* \"#utility.yul\":16458:16464   */\n      dup2\n        /* \"#utility.yul\":16455:16485   */\n      gt\n        /* \"#utility.yul\":16452:16569   */\n      iszero\n      tag_507\n      jumpi\n        /* \"#utility.yul\":16488:16567   */\n      tag_508\n      tag_244\n      jump\t// in\n    tag_508:\n        /* \"#utility.yul\":16452:16569   */\n    tag_507:\n        /* \"#utility.yul\":16593:16656   */\n      tag_509\n        /* \"#utility.yul\":16648:16655   */\n      dup8\n        /* \"#utility.yul\":16639:16645   */\n      dup3\n        /* \"#utility.yul\":16628:16637   */\n      dup9\n        /* \"#utility.yul\":16624:16646   */\n      add\n        /* \"#utility.yul\":16593:16656   */\n      tag_291\n      jump\t// in\n    tag_509:\n        /* \"#utility.yul\":16583:16656   */\n      swap5\n      pop\n        /* \"#utility.yul\":16379:16666   */\n      pop\n        /* \"#utility.yul\":16733:16735   */\n      0x20\n        /* \"#utility.yul\":16722:16731   */\n      dup6\n        /* \"#utility.yul\":16718:16736   */\n      add\n        /* \"#utility.yul\":16705:16737   */\n      calldataload\n        /* \"#utility.yul\":16764:16782   */\n      0xffffffffffffffff\n        /* \"#utility.yul\":16756:16762   */\n      dup2\n        /* \"#utility.yul\":16753:16783   */\n      gt\n        /* \"#utility.yul\":16750:16867   */\n      iszero\n      tag_510\n      jumpi\n        /* \"#utility.yul\":16786:16865   */\n      tag_511\n      tag_244\n      jump\t// in\n    tag_511:\n        /* \"#utility.yul\":16750:16867   */\n    tag_510:\n        /* \"#utility.yul\":16891:16954   */\n      tag_512\n        /* \"#utility.yul\":16946:16953   */\n      dup8\n        /* \"#utility.yul\":16937:16943   */\n      dup3\n        /* \"#utility.yul\":16926:16935   */\n      dup9\n        /* \"#utility.yul\":16922:16944   */\n      add\n        /* \"#utility.yul\":16891:16954   */\n      tag_291\n      jump\t// in\n    tag_512:\n        /* \"#utility.yul\":16881:16954   */\n      swap4\n      pop\n        /* \"#utility.yul\":16676:16964   */\n      pop\n        /* \"#utility.yul\":17031:17033   */\n      0x40\n        /* \"#utility.yul\":17020:17029   */\n      dup6\n        /* \"#utility.yul\":17016:17034   */\n      add\n        /* \"#utility.yul\":17003:17035   */\n      calldataload\n        /* \"#utility.yul\":17062:17080   */\n      0xffffffffffffffff\n        /* \"#utility.yul\":17054:17060   */\n      dup2\n        /* \"#utility.yul\":17051:17081   */\n      gt\n        /* \"#utility.yul\":17048:17165   */\n      iszero\n      tag_513\n      jumpi\n        /* \"#utility.yul\":17084:17163   */\n      tag_514\n      tag_244\n      jump\t// in\n    tag_514:\n        /* \"#utility.yul\":17048:17165   */\n    tag_513:\n        /* \"#utility.yul\":17189:17252   */\n      tag_515\n        /* \"#utility.yul\":17244:17251   */\n      dup8\n        /* \"#utility.yul\":17235:17241   */\n      dup3\n        /* \"#utility.yul\":17224:17233   */\n      dup9\n        /* \"#utility.yul\":17220:17242   */\n      add\n        /* \"#utility.yul\":17189:17252   */\n      tag_291\n      jump\t// in\n    tag_515:\n        /* \"#utility.yul\":17179:17252   */\n      swap3\n      pop\n        /* \"#utility.yul\":16974:17262   */\n      pop\n        /* \"#utility.yul\":17329:17331   */\n      0x60\n        /* \"#utility.yul\":17318:17327   */\n      dup6\n        /* \"#utility.yul\":17314:17332   */\n      add\n        /* \"#utility.yul\":17301:17333   */\n      calldataload\n        /* \"#utility.yul\":17360:17378   */\n      0xffffffffffffffff\n        /* \"#utility.yul\":17352:17358   */\n      dup2\n        /* \"#utility.yul\":17349:17379   */\n      gt\n        /* \"#utility.yul\":17346:17463   */\n      iszero\n      tag_516\n      jumpi\n        /* \"#utility.yul\":17382:17461   */\n      tag_517\n      tag_244\n      jump\t// in\n    tag_517:\n        /* \"#utility.yul\":17346:17463   */\n    tag_516:\n        /* \"#utility.yul\":17487:17550   */\n      tag_518\n        /* \"#utility.yul\":17542:17549   */\n      dup8\n        /* \"#utility.yul\":17533:17539   */\n      dup3\n        /* \"#utility.yul\":17522:17531   */\n      dup9\n        /* \"#utility.yul\":17518:17540   */\n      add\n        /* \"#utility.yul\":17487:17550   */\n      tag_291\n      jump\t// in\n    tag_518:\n        /* \"#utility.yul\":17477:17550   */\n      swap2\n      pop\n        /* \"#utility.yul\":17272:17560   */\n      pop\n        /* \"#utility.yul\":16082:17567   */\n      swap3\n      swap6\n      swap2\n      swap5\n      pop\n      swap3\n      pop\n      jump\t// out\n        /* \"#utility.yul\":17573:17745   */\n    tag_294:\n        /* \"#utility.yul\":17713:17737   */\n      0x50726f6475637420646f6573206e6f7420657869737400000000000000000000\n        /* \"#utility.yul\":17709:17710   */\n      0x00\n        /* \"#utility.yul\":17701:17707   */\n      dup3\n        /* \"#utility.yul\":17697:17711   */\n      add\n        /* \"#utility.yul\":17690:17738   */\n      mstore\n        /* \"#utility.yul\":17573:17745   */\n      pop\n      jump\t// out\n        /* \"#utility.yul\":17751:18117   */\n    tag_295:\n        /* \"#utility.yul\":17893:17896   */\n      0x00\n        /* \"#utility.yul\":17914:17981   */\n      tag_521\n        /* \"#utility.yul\":17978:17980   */\n      0x16\n        /* \"#utility.yul\":17973:17976   */\n      dup4\n        /* \"#utility.yul\":17914:17981   */\n      tag_249\n      jump\t// in\n    tag_521:\n        /* \"#utility.yul\":17907:17981   */\n      swap2\n      pop\n        /* \"#utility.yul\":17990:18083   */\n      tag_522\n        /* \"#utility.yul\":18079:18082   */\n      dup3\n        /* \"#utility.yul\":17990:18083   */\n      tag_294\n      jump\t// in\n    tag_522:\n        /* \"#utility.yul\":18108:18110   */\n      0x20\n        /* \"#utility.yul\":18103:18106   */\n      dup3\n        /* \"#utility.yul\":18099:18111   */\n      add\n        /* \"#utility.yul\":18092:18111   */\n      swap1\n      pop\n        /* \"#utility.yul\":17751:18117   */\n      swap2\n      swap1\n      pop\n      jump\t// out\n        /* \"#utility.yul\":18123:18542   */\n    tag_52:\n        /* \"#utility.yul\":18289:18293   */\n      0x00\n        /* \"#utility.yul\":18327:18329   */\n      0x20\n        /* \"#utility.yul\":18316:18325   */\n      dup3\n        /* \"#utility.yul\":18312:18330   */\n      add\n        /* \"#utility.yul\":18304:18330   */\n      swap1\n      pop\n        /* \"#utility.yul\":18376:18385   */\n      dup2\n        /* \"#utility.yul\":18370:18374   */\n      dup2\n        /* \"#utility.yul\":18366:18386   */\n      sub\n        /* \"#utility.yul\":18362:18363   */\n      0x00\n        /* \"#utility.yul\":18351:18360   */\n      dup4\n        /* \"#utility.yul\":18347:18364   */\n      add\n        /* \"#utility.yul\":18340:18387   */\n      mstore\n        /* \"#utility.yul\":18404:18535   */\n      tag_524\n        /* \"#utility.yul\":18530:18534   */\n      dup2\n        /* \"#utility.yul\":18404:18535   */\n      tag_295\n      jump\t// in\n    tag_524:\n        /* \"#utility.yul\":18396:18535   */\n      swap1\n      pop\n        /* \"#utility.yul\":18123:18542   */\n      swap2\n      swap1\n      pop\n      jump\t// out\n        /* \"#utility.yul\":18548:18728   */\n    tag_296:\n        /* \"#utility.yul\":18596:18673   */\n      0x4e487b7100000000000000000000000000000000000000000000000000000000\n        /* \"#utility.yul\":18593:18594   */\n      0x00\n        /* \"#utility.yul\":18586:18674   */\n      mstore\n        /* \"#utility.yul\":18693:18697   */\n      0x22\n        /* \"#utility.yul\":18690:18691   */\n      0x04\n        /* \"#utility.yul\":18683:18698   */\n      mstore\n        /* \"#utility.yul\":18717:18721   */\n      0x24\n        /* \"#utility.yul\":18714:18715   */\n      0x00\n        /* \"#utility.yul\":18707:18722   */\n      revert\n        /* \"#utility.yul\":18734:19054   */\n    tag_55:\n        /* \"#utility.yul\":18778:18784   */\n      0x00\n        /* \"#utility.yul\":18815:18816   */\n      0x02\n        /* \"#utility.yul\":18809:18813   */\n      dup3\n        /* \"#utility.yul\":18805:18817   */\n      div\n        /* \"#utility.yul\":18795:18817   */\n      swap1\n      pop\n        /* \"#utility.yul\":18862:18863   */\n      0x01\n        /* \"#utility.yul\":18856:18860   */\n      dup3\n        /* \"#utility.yul\":18852:18864   */\n      and\n        /* \"#utility.yul\":18883:18901   */\n      dup1\n        /* \"#utility.yul\":18873:18954   */\n      tag_527\n      jumpi\n        /* \"#utility.yul\":18939:18943   */\n      0x7f\n        /* \"#utility.yul\":18931:18937   */\n      dup3\n        /* \"#utility.yul\":18927:18944   */\n      and\n        /* \"#utility.yul\":18917:18944   */\n      swap2\n      pop\n        /* \"#utility.yul\":18873:18954   */\n    tag_527:\n        /* \"#utility.yul\":19001:19003   */\n      0x20\n        /* \"#utility.yul\":18993:18999   */\n      dup3\n        /* \"#utility.yul\":18990:19004   */\n      lt\n        /* \"#utility.yul\":18970:18988   */\n      dup2\n        /* \"#utility.yul\":18967:19005   */\n      sub\n        /* \"#utility.yul\":18964:19048   */\n      tag_528\n      jumpi\n        /* \"#utility.yul\":19020:19038   */\n      tag_529\n      tag_296\n      jump\t// in\n    tag_529:\n        /* \"#utility.yul\":18964:19048   */\n    tag_528:\n        /* \"#utility.yul\":18785:19054   */\n      pop\n        /* \"#utility.yul\":18734:19054   */\n      swap2\n      swap1\n      pop\n      jump\t// out\n        /* \"#utility.yul\":19060:19225   */\n    tag_297:\n        /* \"#utility.yul\":19200:19217   */\n      0x5472616365206e6f7420666f756e640000000000000000000000000000000000\n        /* \"#utility.yul\":19196:19197   */\n      0x00\n        /* \"#utility.yul\":19188:19194   */\n      dup3\n        /* \"#utility.yul\":19184:19198   */\n      add\n        /* \"#utility.yul\":19177:19218   */\n      mstore\n        /* \"#utility.yul\":19060:19225   */\n      pop\n      jump\t// out\n        /* \"#utility.yul\":19231:19597   */\n    tag_298:\n        /* \"#utility.yul\":19373:19376   */\n      0x00\n        /* \"#utility.yul\":19394:19461   */\n      tag_532\n        /* \"#utility.yul\":19458:19460   */\n      0x0f\n        /* \"#utility.yul\":19453:19456   */\n      dup4\n        /* \"#utility.yul\":19394:19461   */\n      tag_249\n      jump\t// in\n    tag_532:\n        /* \"#utility.yul\":19387:19461   */\n      swap2\n      pop\n        /* \"#utility.yul\":19470:19563   */\n      tag_533\n        /* \"#utility.yul\":19559:19562   */\n      dup3\n        /* \"#utility.yul\":19470:19563   */\n      tag_297\n      jump\t// in\n    tag_533:\n        /* \"#utility.yul\":19588:19590   */\n      0x20\n        /* \"#utility.yul\":19583:19586   */\n      dup3\n        /* \"#utility.yul\":19579:19591   */\n      add\n        /* \"#utility.yul\":19572:19591   */\n      swap1\n      pop\n        /* \"#utility.yul\":19231:19597   */\n      swap2\n      swap1\n      pop\n      jump\t// out\n        /* \"#utility.yul\":19603:20022   */\n    tag_78:\n        /* \"#utility.yul\":19769:19773   */\n      0x00\n        /* \"#utility.yul\":19807:19809   */\n      0x20\n        /* \"#utility.yul\":19796:19805   */\n      dup3\n        /* \"#utility.yul\":19792:19810   */\n      add\n        /* \"#utility.yul\":19784:19810   */\n      swap1\n      pop\n        /* \"#utility.yul\":19856:19865   */\n      dup2\n        /* \"#utility.yul\":19850:19854   */\n      dup2\n        /* \"#utility.yul\":19846:19866   */\n      sub\n        /* \"#utility.yul\":19842:19843   */\n      0x00\n        /* \"#utility.yul\":19831:19840   */\n      dup4\n        /* \"#utility.yul\":19827:19844   */\n      add\n        /* \"#utility.yul\":19820:19867   */\n      mstore\n        /* \"#utility.yul\":19884:20015   */\n      tag_535\n        /* \"#utility.yul\":20010:20014   */\n      dup2\n        /* \"#utility.yul\":19884:20015   */\n      tag_298\n      jump\t// in\n    tag_535:\n        /* \"#utility.yul\":19876:20015   */\n      swap1\n      pop\n        /* \"#utility.yul\":19603:20022   */\n      swap2\n      swap1\n      pop\n      jump\t// out\n        /* \"#utility.yul\":20028:20208   */\n    tag_84:\n        /* \"#utility.yul\":20076:20153   */\n      0x4e487b7100000000000000000000000000000000000000000000000000000000\n        /* \"#utility.yul\":20073:20074   */\n      0x00\n        /* \"#utility.yul\":20066:20154   */\n      mstore\n        /* \"#utility.yul\":20173:20177   */\n      0x32\n        /* \"#utility.yul\":20170:20171   */\n      0x04\n        /* \"#utility.yul\":20163:20178   */\n      mstore\n        /* \"#utility.yul\":20197:20201   */\n      0x24\n        /* \"#utility.yul\":20194:20195   */\n      0x00\n        /* \"#utility.yul\":20187:20202   */\n      revert\n        /* \"#utility.yul\":20214:20394   */\n    tag_299:\n        /* \"#utility.yul\":20262:20339   */\n      0x4e487b7100000000000000000000000000000000000000000000000000000000\n        /* \"#utility.yul\":20259:20260   */\n      0x00\n        /* \"#utility.yul\":20252:20340   */\n      mstore\n        /* \"#utility.yul\":20359:20363   */\n      0x11\n        /* \"#utility.yul\":20356:20357   */\n      0x04\n        /* \"#utility.yul\":20349:20364   */\n      mstore\n        /* \"#utility.yul\":20383:20387   */\n      0x24\n        /* \"#utility.yul\":20380:20381   */\n      0x00\n        /* \"#utility.yul\":20373:20388   */\n      revert\n        /* \"#utility.yul\":20400:20633   */\n    tag_117:\n        /* \"#utility.yul\":20439:20442   */\n      0x00\n        /* \"#utility.yul\":20462:20486   */\n      tag_539\n        /* \"#utility.yul\":20480:20485   */\n      dup3\n        /* \"#utility.yul\":20462:20486   */\n      tag_253\n      jump\t// in\n    tag_539:\n        /* \"#utility.yul\":20453:20486   */\n      swap2\n      pop\n        /* \"#utility.yul\":20508:20574   */\n      0xffffffffffffffffffffffffffffffffffffffffffffffffffffffffffffffff\n        /* \"#utility.yul\":20501:20506   */\n      dup3\n        /* \"#utility.yul\":20498:20575   */\n      sub\n        /* \"#utility.yul\":20495:20598   */\n      tag_540\n      jumpi\n        /* \"#utility.yul\":20578:20596   */\n      tag_541\n      tag_299\n      jump\t// in\n    tag_541:\n        /* \"#utility.yul\":20495:20598   */\n    tag_540:\n        /* \"#utility.yul\":20625:20626   */\n      0x01\n        /* \"#utility.yul\":20618:20623   */\n      dup3\n        /* \"#utility.yul\":20614:20627   */\n      add\n        /* \"#utility.yul\":20607:20627   */\n      swap1\n      pop\n        /* \"#utility.yul\":20400:20633   */\n      swap2\n      swap1\n      pop\n      jump\t// out\n        /* \"#utility.yul\":20639:20807   */\n    tag_300:\n        /* \"#utility.yul\":20779:20799   */\n      0x50726f64756374206e6f74206163746976650000000000000000000000000000\n        /* \"#utility.yul\":20775:20776   */\n      0x00\n        /* \"#utility.yul\":20767:20773   */\n      dup3\n        /* \"#utility.yul\":20763:20777   */\n      add\n        /* \"#utility.yul\":20756:20800   */\n      mstore\n        /* \"#utility.yul\":20639:20807   */\n      pop\n      jump\t// out\n        /* \"#utility.yul\":20813:21179   */\n    tag_301:\n        /* \"#utility.yul\":20955:20958   */\n      0x00\n        /* \"#utility.yul\":20976:21043   */\n      tag_544\n        /* \"#utility.yul\":21040:21042   */\n      0x12\n        /* \"#utility.yul\":21035:21038   */\n      dup4\n        /* \"#utility.yul\":20976:21043   */\n      tag_249\n      jump\t// in\n    tag_544:\n        /* \"#utility.yul\":20969:21043   */\n      swap2\n      pop\n        /* \"#utility.yul\":21052:21145   */\n      tag_545\n        /* \"#utility.yul\":21141:21144   */\n      dup3\n        /* \"#utility.yul\":21052:21145   */\n      tag_300\n      jump\t// in\n    tag_545:\n        /* \"#utility.yul\":21170:21172   */\n      0x20\n        /* \"#utility.yul\":21165:21168   */\n      dup3\n        /* \"#utility.yul\":21161:21173   */\n      add\n        /* \"#utility.yul\":21154:21173   */\n      swap1\n      pop\n        /* \"#utility.yul\":20813:21179   */\n      swap2\n      swap1\n      pop\n      jump\t// out\n        /* \"#utility.yul\":21185:21604   */\n    tag_160:\n        /* \"#utility.yul\":21351:21355   */\n      0x00\n        /* \"#utility.yul\":21389:21391   */\n      0x20\n        /* \"#utility.yul\":21378:21387   */\n      dup3\n        /* \"#utility.yul\":21374:21392   */\n      add\n        /* \"#utility.yul\":21366:21392   */\n      swap1\n      pop\n        /* \"#utility.yul\":21438:21447   */\n      dup2\n        /* \"#utility.yul\":21432:21436   */\n      dup2\n        /* \"#utility.yul\":21428:21448   */\n      sub\n        /* \"#utility.yul\":21424:21425   */\n      0x00\n        /* \"#utility.yul\":21413:21422   */\n      dup4\n        /* \"#utility.yul\":21409:21426   */\n      add\n        /* \"#utility.yul\":21402:21449   */\n      mstore\n        /* \"#utility.yul\":21466:21597   */\n      tag_547\n        /* \"#utility.yul\":21592:21596   */\n      dup2\n        /* \"#utility.yul\":21466:21597   */\n      tag_301\n      jump\t// in\n    tag_547:\n        /* \"#utility.yul\":21458:21597   */\n      swap1\n      pop\n        /* \"#utility.yul\":21185:21604   */\n      swap2\n      swap1\n      pop\n      jump\t// out\n        /* \"#utility.yul\":21610:21830   */\n    tag_302:\n        /* \"#utility.yul\":21750:21784   */\n      0x5472616365206465736372697074696f6e2063616e6e6f7420626520656d7074\n        /* \"#utility.yul\":21746:21747   */\n      0x00\n        /* \"#utility.yul\":21738:21744   */\n      dup3\n        /* \"#utility.yul\":21734:21748   */\n      add\n        /* \"#utility.yul\":21727:21785   */\n      mstore\n        /* \"#utility.yul\":21819:21822   */\n      0x7900000000000000000000000000000000000000000000000000000000000000\n        /* \"#utility.yul\":21814:21816   */\n      0x20\n        /* \"#utility.yul\":21806:21812   */\n      dup3\n        /* \"#utility.yul\":21802:21817   */\n      add\n        /* \"#utility.yul\":21795:21823   */\n      mstore\n        /* \"#utility.yul\":21610:21830   */\n      pop\n      jump\t// out\n        /* \"#utility.yul\":21836:22202   */\n    tag_303:\n        /* \"#utility.yul\":21978:21981   */\n      0x00\n        /* \"#utility.yul\":21999:22066   */\n      tag_550\n        /* \"#utility.yul\":22063:22065   */\n      0x21\n        /* \"#utility.yul\":22058:22061   */\n      dup4\n        /* \"#utility.yul\":21999:22066   */\n      tag_249\n      jump\t// in\n    tag_550:\n        /* \"#utility.yul\":21992:22066   */\n      swap2\n      pop\n        /* \"#utility.yul\":22075:22168   */\n      tag_551\n        /* \"#utility.yul\":22164:22167   */\n      dup3\n        /* \"#utility.yul\":22075:22168   */\n      tag_302\n      jump\t// in\n    tag_551:\n        /* \"#utility.yul\":22193:22195   */\n      0x40\n        /* \"#utility.yul\":22188:22191   */\n      dup3\n        /* \"#utility.yul\":22184:22196   */\n      add\n        /* \"#utility.yul\":22177:22196   */\n      swap1\n      pop\n        /* \"#utility.yul\":21836:22202   */\n      swap2\n      swap1\n      pop\n      jump\t// out\n        /* \"#utility.yul\":22208:22627   */\n    tag_164:\n        /* \"#utility.yul\":22374:22378   */\n      0x00\n        /* \"#utility.yul\":22412:22414   */\n      0x20\n        /* \"#utility.yul\":22401:22410   */\n      dup3\n        /* \"#utility.yul\":22397:22415   */\n      add\n        /* \"#utility.yul\":22389:22415   */\n      swap1\n      pop\n        /* \"#utility.yul\":22461:22470   */\n      dup2\n        /* \"#utility.yul\":22455:22459   */\n      dup2\n        /* \"#utility.yul\":22451:22471   */\n      sub\n        /* \"#utility.yul\":22447:22448   */\n      0x00\n        /* \"#utility.yul\":22436:22445   */\n      dup4\n        /* \"#utility.yul\":22432:22449   */\n      add\n        /* \"#utility.yul\":22425:22472   */\n      mstore\n        /* \"#utility.yul\":22489:22620   */\n      tag_553\n        /* \"#utility.yul\":22615:22619   */\n      dup2\n        /* \"#utility.yul\":22489:22620   */\n      tag_303\n      jump\t// in\n    tag_553:\n        /* \"#utility.yul\":22481:22620   */\n      swap1\n      pop\n        /* \"#utility.yul\":22208:22627   */\n      swap2\n      swap1\n      pop\n      jump\t// out\n        /* \"#utility.yul\":22633:22712   */\n    tag_304:\n        /* \"#utility.yul\":22672:22679   */\n      0x00\n        /* \"#utility.yul\":22701:22706   */\n      dup2\n        /* \"#utility.yul\":22690:22706   */\n      swap1\n      pop\n        /* \"#utility.yul\":22633:22712   */\n      swap2\n      swap1\n      pop\n      jump\t// out\n        /* \"#utility.yul\":22718:22875   */\n    tag_305:\n        /* \"#utility.yul\":22823:22868   */\n      tag_556\n        /* \"#utility.yul\":22843:22867   */\n      tag_557\n        /* \"#utility.yul\":22861:22866   */\n      dup3\n        /* \"#utility.yul\":22843:22867   */\n      tag_245\n      jump\t// in\n    tag_557:\n        /* \"#utility.yul\":22823:22868   */\n      tag_304\n      jump\t// in\n    tag_556:\n        /* \"#utility.yul\":22818:22821   */\n      dup3\n        /* \"#utility.yul\":22811:22869   */\n      mstore\n        /* \"#utility.yul\":22718:22875   */\n      pop\n      pop\n      jump\t// out\n        /* \"#utility.yul\":22881:22960   */\n    tag_306:\n        /* \"#utility.yul\":22920:22927   */\n      0x00\n        /* \"#utility.yul\":22949:22954   */\n      dup2\n        /* \"#utility.yul\":22938:22954   */\n      swap1\n      pop\n        /* \"#utility.yul\":22881:22960   */\n      swap2\n      swap1\n      pop\n      jump\t// out\n        /* \"#utility.yul\":22966:23123   */\n    tag_307:\n        /* \"#utility.yul\":23071:23116   */\n      tag_560\n        /* \"#utility.yul\":23091:23115   */\n      tag_561\n        /* \"#utility.yul\":23109:23114   */\n      dup3\n        /* \"#utility.yul\":23091:23115   */\n      tag_253\n      jump\t// in\n    tag_561:\n        /* \"#utility.yul\":23071:23116   */\n      tag_306\n      jump\t// in\n    tag_560:\n        /* \"#utility.yul\":23066:23069   */\n      dup3\n        /* \"#utility.yul\":23059:23117   */\n      mstore\n        /* \"#utility.yul\":22966:23123   */\n      pop\n      pop\n      jump\t// out\n        /* \"#utility.yul\":23129:23223   */\n    tag_308:\n        /* \"#utility.yul\":23162:23170   */\n      0x00\n        /* \"#utility.yul\":23210:23215   */\n      dup2\n        /* \"#utility.yul\":23206:23208   */\n      0x60\n        /* \"#utility.yul\":23202:23216   */\n      shl\n        /* \"#utility.yul\":23181:23216   */\n      swap1\n      pop\n        /* \"#utility.yul\":23129:23223   */\n      swap2\n      swap1\n      pop\n      jump\t// out\n        /* \"#utility.yul\":23229:23323   */\n    tag_309:\n        /* \"#utility.yul\":23268:23275   */\n      0x00\n        /* \"#utility.yul\":23297:23317   */\n      tag_564\n        /* \"#utility.yul\":23311:23316   */\n      dup3\n        /* \"#utility.yul\":23297:23317   */\n      tag_308\n      jump\t// in\n    tag_564:\n        /* \"#utility.yul\":23286:23317   */\n      swap1\n      pop\n        /* \"#utility.yul\":23229:23323   */\n      swap2\n      swap1\n      pop\n      jump\t// out\n        /* \"#utility.yul\":23329:23429   */\n    tag_310:\n        /* \"#utility.yul\":23368:23375   */\n      0x00\n        /* \"#utility.yul\":23397:23423   */\n      tag_566\n        /* \"#utility.yul\":23417:23422   */\n      dup3\n        /* \"#utility.yul\":23397:23423   */\n      tag_309\n      jump\t// in\n    tag_566:\n        /* \"#utility.yul\":23386:23423   */\n      swap1\n      pop\n        /* \"#utility.yul\":23329:23429   */\n      swap2\n      swap1\n      pop\n      jump\t// out\n        /* \"#utility.yul\":23435:23592   */\n    tag_311:\n        /* \"#utility.yul\":23540:23585   */\n      tag_568\n        /* \"#utility.yul\":23560:23584   */\n      tag_569\n        /* \"#utility.yul\":23578:23583   */\n      dup3\n        /* \"#utility.yul\":23560:23584   */\n      tag_256\n      jump\t// in\n    tag_569:\n        /* \"#utility.yul\":23540:23585   */\n      tag_310\n      jump\t// in\n    tag_568:\n        /* \"#utility.yul\":23535:23538   */\n      dup3\n        /* \"#utility.yul\":23528:23586   */\n      mstore\n        /* \"#utility.yul\":23435:23592   */\n      pop\n      pop\n      jump\t// out\n        /* \"#utility.yul\":23598:23746   */\n    tag_312:\n        /* \"#utility.yul\":23700:23711   */\n      0x00\n        /* \"#utility.yul\":23737:23740   */\n      dup2\n        /* \"#utility.yul\":23722:23740   */\n      swap1\n      pop\n        /* \"#utility.yul\":23598:23746   */\n      swap3\n      swap2\n      pop\n      pop\n      jump\t// out\n        /* \"#utility.yul\":23752:24142   */\n    tag_313:\n        /* \"#utility.yul\":23858:23861   */\n      0x00\n        /* \"#utility.yul\":23886:23925   */\n      tag_572\n        /* \"#utility.yul\":23919:23924   */\n      dup3\n        /* \"#utility.yul\":23886:23925   */\n      tag_248\n      jump\t// in\n    tag_572:\n        /* \"#utility.yul\":23941:24030   */\n      tag_573\n        /* \"#utility.yul\":24023:24029   */\n      dup2\n        /* \"#utility.yul\":24018:24021   */\n      dup6\n        /* \"#utility.yul\":23941:24030   */\n      tag_312\n      jump\t// in\n    tag_573:\n        /* \"#utility.yul\":23934:24030   */\n      swap4\n      pop\n        /* \"#utility.yul\":24039:24104   */\n      tag_574\n        /* \"#utility.yul\":24097:24103   */\n      dup2\n        /* \"#utility.yul\":24092:24095   */\n      dup6\n        /* \"#utility.yul\":24085:24089   */\n      0x20\n        /* \"#utility.yul\":24078:24083   */\n      dup7\n        /* \"#utility.yul\":24074:24090   */\n      add\n        /* \"#utility.yul\":24039:24104   */\n      tag_250\n      jump\t// in\n    tag_574:\n        /* \"#utility.yul\":24129:24135   */\n      dup1\n        /* \"#utility.yul\":24124:24127   */\n      dup5\n        /* \"#utility.yul\":24120:24136   */\n      add\n        /* \"#utility.yul\":24113:24136   */\n      swap2\n      pop\n        /* \"#utility.yul\":23862:24142   */\n      pop\n        /* \"#utility.yul\":23752:24142   */\n      swap3\n      swap2\n      pop\n      pop\n      jump\t// out\n        /* \"#utility.yul\":24148:24846   */\n    tag_166:\n        /* \"#utility.yul\":24364:24367   */\n      0x00\n        /* \"#utility.yul\":24379:24454   */\n      tag_576\n        /* \"#utility.yul\":24450:24453   */\n      dup3\n        /* \"#utility.yul\":24441:24447   */\n      dup8\n        /* \"#utility.yul\":24379:24454   */\n      tag_305\n      jump\t// in\n    tag_576:\n        /* \"#utility.yul\":24479:24481   */\n      0x20\n        /* \"#utility.yul\":24474:24477   */\n      dup3\n        /* \"#utility.yul\":24470:24482   */\n      add\n        /* \"#utility.yul\":24463:24482   */\n      swap2\n      pop\n        /* \"#utility.yul\":24492:24567   */\n      tag_577\n        /* \"#utility.yul\":24563:24566   */\n      dup3\n        /* \"#utility.yul\":24554:24560   */\n      dup7\n        /* \"#utility.yul\":24492:24567   */\n      tag_307\n      jump\t// in\n    tag_577:\n        /* \"#utility.yul\":24592:24594   */\n      0x20\n        /* \"#utility.yul\":24587:24590   */\n      dup3\n        /* \"#utility.yul\":24583:24595   */\n      add\n        /* \"#utility.yul\":24576:24595   */\n      swap2\n      pop\n        /* \"#utility.yul\":24605:24680   */\n      tag_578\n        /* \"#utility.yul\":24676:24679   */\n      dup3\n        /* \"#utility.yul\":24667:24673   */\n      dup6\n        /* \"#utility.yul\":24605:24680   */\n      tag_311\n      jump\t// in\n    tag_578:\n        /* \"#utility.yul\":24705:24707   */\n      0x14\n        /* \"#utility.yul\":24700:24703   */\n      dup3\n        /* \"#utility.yul\":24696:24708   */\n      add\n        /* \"#utility.yul\":24689:24708   */\n      swap2\n      pop\n        /* \"#utility.yul\":24725:24820   */\n      tag_579\n        /* \"#utility.yul\":24816:24819   */\n      dup3\n        /* \"#utility.yul\":24807:24813   */\n      dup5\n        /* \"#utility.yul\":24725:24820   */\n      tag_313\n      jump\t// in\n    tag_579:\n        /* \"#utility.yul\":24718:24820   */\n      swap2\n      pop\n        /* \"#utility.yul\":24837:24840   */\n      dup2\n        /* \"#utility.yul\":24830:24840   */\n      swap1\n      pop\n        /* \"#utility.yul\":24148:24846   */\n      swap6\n      swap5\n      pop\n      pop\n      pop\n      pop\n      pop\n      jump\t// out\n        /* \"#utility.yul\":24852:24993   */\n    tag_314:\n        /* \"#utility.yul\":24901:24905   */\n      0x00\n        /* \"#utility.yul\":24924:24927   */\n      dup2\n        /* \"#utility.yul\":24916:24927   */\n      swap1\n      pop\n        /* \"#utility.yul\":24947:24950   */\n      dup2\n        /* \"#utility.yul\":24944:24945   */\n      0x00\n        /* \"#utility.yul\":24937:24951   */\n      mstore\n        /* \"#utility.yul\":24981:24985   */\n      0x20\n        /* \"#utility.yul\":24978:24979   */\n      0x00\n        /* \"#utility.yul\":24968:24986   */\n      keccak256\n        /* \"#utility.yul\":24960:24986   */\n      swap1\n      pop\n        /* \"#utility.yul\":24852:24993   */\n      swap2\n      swap1\n      pop\n      jump\t// out\n        /* \"#utility.yul\":24999:25092   */\n    tag_315:\n        /* \"#utility.yul\":25036:25042   */\n      0x00\n        /* \"#utility.yul\":25083:25085   */\n      0x20\n        /* \"#utility.yul\":25078:25080   */\n      0x1f\n        /* \"#utility.yul\":25071:25076   */\n      dup4\n        /* \"#utility.yul\":25067:25081   */\n      add\n        /* \"#utility.yul\":25063:25086   */\n      div\n        /* \"#utility.yul\":25053:25086   */\n      swap1\n      pop\n        /* \"#utility.yul\":24999:25092   */\n      swap2\n      swap1\n      pop\n      jump\t// out\n        /* \"#utility.yul\":25098:25205   */\n    tag_316:\n        /* \"#utility.yul\":25142:25150   */\n      0x00\n        /* \"#utility.yul\":25192:25197   */\n      dup3\n        /* \"#utility.yul\":25186:25190   */\n      dup3\n        /* \"#utility.yul\":25182:25198   */\n      shl\n        /* \"#utility.yul\":25161:25198   */\n      swap1\n      pop\n        /* \"#utility.yul\":25098:25205   */\n      swap3\n      swap2\n      pop\n      pop\n      jump\t// out\n        /* \"#utility.yul\":25211:25604   */\n    tag_317:\n        /* \"#utility.yul\":25280:25286   */\n      0x00\n        /* \"#utility.yul\":25330:25331   */\n      0x08\n        /* \"#utility.yul\":25318:25328   */\n      dup4\n        /* \"#utility.yul\":25314:25332   */\n      mul\n        /* \"#utility.yul\":25353:25450   */\n      tag_584\n        /* \"#utility.yul\":25383:25449   */\n      0xffffffffffffffffffffffffffffffffffffffffffffffffffffffffffffffff\n        /* \"#utility.yul\":25372:25381   */\n      dup3\n        /* \"#utility.yul\":25353:25450   */\n      tag_316\n      jump\t// in\n    tag_584:\n        /* \"#utility.yul\":25471:25510   */\n      tag_585\n        /* \"#utility.yul\":25501:25509   */\n      dup7\n        /* \"#utility.yul\":25490:25499   */\n      dup4\n        /* \"#utility.yul\":25471:25510   */\n      tag_316\n      jump\t// in\n    tag_585:\n        /* \"#utility.yul\":25459:25510   */\n      swap6\n      pop\n        /* \"#utility.yul\":25543:25547   */\n      dup1\n        /* \"#utility.yul\":25539:25548   */\n      not\n        /* \"#utility.yul\":25532:25537   */\n      dup5\n        /* \"#utility.yul\":25528:25549   */\n      and\n        /* \"#utility.yul\":25519:25549   */\n      swap4\n      pop\n        /* \"#utility.yul\":25592:25596   */\n      dup1\n        /* \"#utility.yul\":25582:25590   */\n      dup7\n        /* \"#utility.yul\":25578:25597   */\n      and\n        /* \"#utility.yul\":25571:25576   */\n      dup5\n        /* \"#utility.yul\":25568:25598   */\n      or\n        /* \"#utility.yul\":25558:25598   */\n      swap3\n      pop\n        /* \"#utility.yul\":25287:25604   */\n      pop\n      pop\n        /* \"#utility.yul\":25211:25604   */\n      swap4\n      swap3\n      pop\n      pop\n      pop\n      jump\t// out\n        /* \"#utility.yul\":25610:25670   */\n    tag_318:\n        /* \"#utility.yul\":25638:25641   */\n      0x00\n        /* \"#utility.yul\":25659:25664   */\n      dup2\n        /* \"#utility.yul\":25652:25664   */\n      swap1\n      pop\n        /* \"#utility.yul\":25610:25670   */\n      swap2\n      swap1\n      pop\n      jump\t// out\n        /* \"#utility.yul\":25676:25818   */\n    tag_319:\n        /* \"#utility.yul\":25726:25735   */\n      0x00\n        /* \"#utility.yul\":25759:25812   */\n      tag_588\n        /* \"#utility.yul\":25777:25811   */\n      tag_589\n        /* \"#utility.yul\":25786:25810   */\n      tag_590\n        /* \"#utility.yul\":25804:25809   */\n      dup5\n        /* \"#utility.yul\":25786:25810   */\n      tag_253\n      jump\t// in\n    tag_590:\n        /* \"#utility.yul\":25777:25811   */\n      tag_318\n      jump\t// in\n    tag_589:\n        /* \"#utility.yul\":25759:25812   */\n      tag_253\n      jump\t// in\n    tag_588:\n        /* \"#utility.yul\":25746:25812   */\n      swap1\n      pop\n        /* \"#utility.yul\":25676:25818   */\n      swap2\n      swap1\n      pop\n      jump\t// out\n        /* \"#utility.yul\":25824:25899   */\n    tag_320:\n        /* \"#utility.yul\":25867:25870   */\n      0x00\n        /* \"#utility.yul\":25888:25893   */\n      dup2\n        /* \"#utility.yul\":25881:25893   */\n      swap1\n      pop\n        /* \"#utility.yul\":25824:25899   */\n      swap2\n      swap1\n      pop\n      jump\t// out\n        /* \"#utility.yul\":25905:26174   */\n    tag_321:\n        /* \"#utility.yul\":26015:26054   */\n      tag_593\n        /* \"#utility.yul\":26046:26053   */\n      dup4\n        /* \"#utility.yul\":26015:26054   */\n      tag_319\n      jump\t// in\n    tag_593:\n        /* \"#utility.yul\":26076:26167   */\n      tag_594\n        /* \"#utility.yul\":26125:26166   */\n      tag_595\n        /* \"#utility.yul\":26149:26165   */\n      dup3\n        /* \"#utility.yul\":26125:26166   */\n      tag_320\n      jump\t// in\n    tag_595:\n        /* \"#utility.yul\":26117:26123   */\n      dup5\n        /* \"#utility.yul\":26110:26114   */\n      dup5\n        /* \"#utility.yul\":26104:26115   */\n      sload\n        /* \"#utility.yul\":26076:26167   */\n      tag_317\n      jump\t// in\n    tag_594:\n        /* \"#utility.yul\":26070:26074   */\n      dup3\n        /* \"#utility.yul\":26063:26168   */\n      sstore\n        /* \"#utility.yul\":25981:26174   */\n      pop\n        /* \"#utility.yul\":25905:26174   */\n      pop\n      pop\n      pop\n      jump\t// out\n        /* \"#utility.yul\":26180:26253   */\n    tag_322:\n        /* \"#utility.yul\":26225:26228   */\n      0x00\n        /* \"#utility.yul\":26180:26253   */\n      swap1\n      jump\t// out\n        /* \"#utility.yul\":26259:26448   */\n    tag_323:\n        /* \"#utility.yul\":26336:26368   */\n      tag_598\n      tag_322\n      jump\t// in\n    tag_598:\n        /* \"#utility.yul\":26377:26442   */\n      tag_599\n        /* \"#utility.yul\":26435:26441   */\n      dup2\n        /* \"#utility.yul\":26427:26433   */\n      dup5\n        /* \"#utility.yul\":26421:26425   */\n      dup5\n        /* \"#utility.yul\":26377:26442   */\n      tag_321\n      jump\t// in\n    tag_599:\n        /* \"#utility.yul\":26312:26448   */\n      pop\n        /* \"#utility.yul\":26259:26448   */\n      pop\n      pop\n      jump\t// out\n        /* \"#utility.yul\":26454:26640   */\n    tag_324:\n        /* \"#utility.yul\":26514:26634   */\n    tag_601:\n        /* \"#utility.yul\":26531:26534   */\n      dup2\n        /* \"#utility.yul\":26524:26529   */\n      dup2\n        /* \"#utility.yul\":26521:26535   */\n      lt\n        /* \"#utility.yul\":26514:26634   */\n      iszero\n      tag_603\n      jumpi\n        /* \"#utility.yul\":26585:26624   */\n      tag_604\n        /* \"#utility.yul\":26622:26623   */\n      0x00\n        /* \"#utility.yul\":26615:26620   */\n      dup3\n        /* \"#utility.yul\":26585:26624   */\n      tag_323\n      jump\t// in\n    tag_604:\n        /* \"#utility.yul\":26558:26559   */\n      0x01\n        /* \"#utility.yul\":26551:26556   */\n      dup2\n        /* \"#utility.yul\":26547:26560   */\n      add\n        /* \"#utility.yul\":26538:26560   */\n      swap1\n      pop\n        /* \"#utility.yul\":26514:26634   */\n      jump(tag_601)\n    tag_603:\n        /* \"#utility.yul\":26454:26640   */\n      pop\n      pop\n      jump\t// out\n        /* \"#utility.yul\":26646:27189   */\n    tag_325:\n        /* \"#utility.yul\":26747:26749   */\n      0x1f\n        /* \"#utility.yul\":26742:26745   */\n      dup3\n        /* \"#utility.yul\":26739:26750   */\n      gt\n        /* \"#utility.yul\":26736:27182   */\n      iszero\n      tag_606\n      jumpi\n        /* \"#utility.yul\":26781:26819   */\n      tag_607\n        /* \"#utility.yul\":26813:26818   */\n      dup2\n        /* \"#utility.yul\":26781:26819   */\n      tag_314\n      jump\t// in\n    tag_607:\n        /* \"#utility.yul\":26865:26894   */\n      tag_608\n        /* \"#utility.yul\":26883:26893   */\n      dup5\n        /* \"#utility.yul\":26865:26894   */\n      tag_315\n      jump\t// in\n    tag_608:\n        /* \"#utility.yul\":26855:26863   */\n      dup2\n        /* \"#utility.yul\":26851:26895   */\n      add\n        /* \"#utility.yul\":27048:27050   */\n      0x20\n        /* \"#utility.yul\":27036:27046   */\n      dup6\n        /* \"#utility.yul\":27033:27051   */\n      lt\n        /* \"#utility.yul\":27030:27079   */\n      iszero\n      tag_609\n      jumpi\n        /* \"#utility.yul\":27069:27077   */\n      dup2\n        /* \"#utility.yul\":27054:27077   */\n      swap1\n      pop\n        /* \"#utility.yul\":27030:27079   */\n    tag_609:\n        /* \"#utility.yul\":27092:27172   */\n      tag_610\n        /* \"#utility.yul\":27148:27170   */\n      tag_611\n        /* \"#utility.yul\":27166:27169   */\n      dup6\n        /* \"#utility.yul\":27148:27170   */\n      tag_315\n      jump\t// in\n    tag_611:\n        /* \"#utility.yul\":27138:27146   */\n      dup4\n        /* \"#utility.yul\":27134:27171   */\n      add\n        /* \"#utility.yul\":27121:27132   */\n      dup3\n        /* \"#utility.yul\":27092:27172   */\n      tag_324\n      jump\t// in\n    tag_610:\n        /* \"#utility.yul\":26751:27182   */\n      pop\n      pop\n        /* \"#utility.yul\":26736:27182   */\n    tag_606:\n        /* \"#utility.yul\":26646:27189   */\n      pop\n      pop\n      pop\n      jump\t// out\n        /* \"#utility.yul\":27195:27312   */\n    tag_326:\n        /* \"#utility.yul\":27249:27257   */\n      0x00\n        /* \"#utility.yul\":27299:27304   */\n      dup3\n        /* \"#utility.yul\":27293:27297   */\n      dup3\n        /* \"#utility.yul\":27289:27305   */\n      shr\n        /* \"#utility.yul\":27268:27305   */\n      swap1\n      pop\n        /* \"#utility.yul\":27195:27312   */\n      swap3\n      swap2\n      pop\n      pop\n      jump\t// out\n        /* \"#utility.yul\":27318:27487   */\n    tag_327:\n        /* \"#utility.yul\":27362:27368   */\n      0x00\n        /* \"#utility.yul\":27395:27446   */\n      tag_614\n        /* \"#utility.yul\":27443:27444   */\n      0x00\n        /* \"#utility.yul\":27439:27445   */\n      not\n        /* \"#utility.yul\":27431:27436   */\n      dup5\n        /* \"#utility.yul\":27428:27429   */\n      0x08\n        /* \"#utility.yul\":27424:27437   */\n      mul\n        /* \"#utility.yul\":27395:27446   */\n      tag_326\n      jump\t// in\n    tag_614:\n        /* \"#utility.yul\":27391:27447   */\n      not\n        /* \"#utility.yul\":27476:27480   */\n      dup1\n        /* \"#utility.yul\":27470:27474   */\n      dup4\n        /* \"#utility.yul\":27466:27481   */\n      and\n        /* \"#utility.yul\":27456:27481   */\n      swap2\n      pop\n        /* \"#utility.yul\":27369:27487   */\n      pop\n        /* \"#utility.yul\":27318:27487   */\n      swap3\n      swap2\n      pop\n      pop\n      jump\t// out\n        /* \"#utility.yul\":27492:27787   */\n    tag_328:\n        /* \"#utility.yul\":27568:27572   */\n      0x00\n        /* \"#utility.yul\":27714:27743   */\n      tag_616\n        /* \"#utility.yul\":27739:27742   */\n      dup4\n        /* \"#utility.yul\":27733:27737   */\n      dup4\n        /* \"#utility.yul\":27714:27743   */\n      tag_327\n      jump\t// in\n    tag_616:\n        /* \"#utility.yul\":27706:27743   */\n      swap2\n      pop\n        /* \"#utility.yul\":27776:27779   */\n      dup3\n        /* \"#utility.yul\":27773:27774   */\n      0x02\n        /* \"#utility.yul\":27769:27780   */\n      mul\n        /* \"#utility.yul\":27763:27767   */\n      dup3\n        /* \"#utility.yul\":27760:27781   */\n      or\n        /* \"#utility.yul\":27752:27781   */\n      swap1\n      pop\n        /* \"#utility.yul\":27492:27787   */\n      swap3\n      swap2\n      pop\n      pop\n      jump\t// out\n        /* \"#utility.yul\":27792:29187   */\n    tag_171:\n        /* \"#utility.yul\":27909:27946   */\n      tag_618\n        /* \"#utility.yul\":27942:27945   */\n      dup3\n        /* \"#utility.yul\":27909:27946   */\n      tag_248\n      jump\t// in\n    tag_618:\n        /* \"#utility.yul\":28011:28029   */\n      0xffffffffffffffff\n        /* \"#utility.yul\":28003:28009   */\n      dup2\n        /* \"#utility.yul\":28000:28030   */\n      gt\n        /* \"#utility.yul\":27997:28053   */\n      iszero\n      tag_619\n      jumpi\n        /* \"#utility.yul\":28033:28051   */\n      tag_620\n      tag_120\n      jump\t// in\n    tag_620:\n        /* \"#utility.yul\":27997:28053   */\n    tag_619:\n        /* \"#utility.yul\":28077:28115   */\n      tag_621\n        /* \"#utility.yul\":28109:28113   */\n      dup3\n        /* \"#utility.yul\":28103:28114   */\n      sload\n        /* \"#utility.yul\":28077:28115   */\n      tag_55\n      jump\t// in\n    tag_621:\n        /* \"#utility.yul\":28162:28229   */\n      tag_622\n        /* \"#utility.yul\":28222:28228   */\n      dup3\n        /* \"#utility.yul\":28214:28220   */\n      dup3\n        /* \"#utility.yul\":28208:28212   */\n      dup6\n        /* \"#utility.yul\":28162:28229   */\n      tag_325\n      jump\t// in\n    tag_622:\n        /* \"#utility.yul\":28256:28257   */\n      0x00\n        /* \"#utility.yul\":28280:28284   */\n      0x20\n        /* \"#utility.yul\":28267:28284   */\n      swap1\n      pop\n        /* \"#utility.yul\":28312:28314   */\n      0x1f\n        /* \"#utility.yul\":28304:28310   */\n      dup4\n        /* \"#utility.yul\":28301:28315   */\n      gt\n        /* \"#utility.yul\":28329:28330   */\n      0x01\n        /* \"#utility.yul\":28324:28942   */\n      dup2\n      eq\n      tag_624\n      jumpi\n        /* \"#utility.yul\":28986:28987   */\n      0x00\n        /* \"#utility.yul\":29003:29009   */\n      dup5\n        /* \"#utility.yul\":29000:29077   */\n      iszero\n      tag_625\n      jumpi\n        /* \"#utility.yul\":29052:29061   */\n      dup3\n        /* \"#utility.yul\":29047:29050   */\n      dup8\n        /* \"#utility.yul\":29043:29062   */\n      add\n        /* \"#utility.yul\":29037:29063   */\n      mload\n        /* \"#utility.yul\":29028:29063   */\n      swap1\n      pop\n        /* \"#utility.yul\":29000:29077   */\n    tag_625:\n        /* \"#utility.yul\":29103:29170   */\n      tag_626\n        /* \"#utility.yul\":29163:29169   */\n      dup6\n        /* \"#utility.yul\":29156:29161   */\n      dup3\n        /* \"#utility.yul\":29103:29170   */\n      tag_328\n      jump\t// in\n    tag_626:\n        /* \"#utility.yul\":29097:29101   */\n      dup7\n        /* \"#utility.yul\":29090:29171   */\n      sstore\n        /* \"#utility.yul\":28959:29181   */\n      pop\n        /* \"#utility.yul\":28294:29181   */\n      jump(tag_623)\n        /* \"#utility.yul\":28324:28942   */\n    tag_624:\n        /* \"#utility.yul\":28376:28380   */\n      0x1f\n        /* \"#utility.yul\":28372:28381   */\n      not\n        /* \"#utility.yul\":28364:28370   */\n      dup5\n        /* \"#utility.yul\":28360:28382   */\n      and\n        /* \"#utility.yul\":28410:28447   */\n      tag_627\n        /* \"#utility.yul\":28442:28446   */\n      dup7\n        /* \"#utility.yul\":28410:28447   */\n      tag_314\n      jump\t// in\n    tag_627:\n        /* \"#utility.yul\":28469:28470   */\n      0x00\n        /* \"#utility.yul\":28483:28691   */\n    tag_628:\n        /* \"#utility.yul\":28497:28504   */\n      dup3\n        /* \"#utility.yul\":28494:28495   */\n      dup2\n        /* \"#utility.yul\":28491:28505   */\n      lt\n        /* \"#utility.yul\":28483:28691   */\n      iszero\n      tag_630\n      jumpi\n        /* \"#utility.yul\":28576:28585   */\n      dup5\n        /* \"#utility.yul\":28571:28574   */\n      dup10\n        /* \"#utility.yul\":28567:28586   */\n      add\n        /* \"#utility.yul\":28561:28587   */\n      mload\n        /* \"#utility.yul\":28553:28559   */\n      dup3\n        /* \"#utility.yul\":28546:28588   */\n      sstore\n        /* \"#utility.yul\":28627:28628   */\n      0x01\n        /* \"#utility.yul\":28619:28625   */\n      dup3\n        /* \"#utility.yul\":28615:28629   */\n      add\n        /* \"#utility.yul\":28605:28629   */\n      swap2\n      pop\n        /* \"#utility.yul\":28674:28676   */\n      0x20\n        /* \"#utility.yul\":28663:28672   */\n      dup6\n        /* \"#utility.yul\":28659:28677   */\n      add\n        /* \"#utility.yul\":28646:28677   */\n      swap5\n      pop\n        /* \"#utility.yul\":28520:28524   */\n      0x20\n        /* \"#utility.yul\":28517:28518   */\n      dup2\n        /* \"#utility.yul\":28513:28525   */\n      add\n        /* \"#utility.yul\":28508:28525   */\n      swap1\n      pop\n        /* \"#utility.yul\":28483:28691   */\n      jump(tag_628)\n    tag_630:\n        /* \"#utility.yul\":28719:28725   */\n      dup7\n        /* \"#utility.yul\":28710:28717   */\n      dup4\n        /* \"#utility.yul\":28707:28726   */\n      lt\n        /* \"#utility.yul\":28704:28883   */\n      iszero\n      tag_631\n      jumpi\n        /* \"#utility.yul\":28777:28786   */\n      dup5\n        /* \"#utility.yul\":28772:28775   */\n      dup10\n        /* \"#utility.yul\":28768:28787   */\n      add\n        /* \"#utility.yul\":28762:28788   */\n      mload\n        /* \"#utility.yul\":28820:28868   */\n      tag_632\n        /* \"#utility.yul\":28862:28866   */\n      0x1f\n        /* \"#utility.yul\":28854:28860   */\n      dup10\n        /* \"#utility.yul\":28850:28867   */\n      and\n        /* \"#utility.yul\":28839:28848   */\n      dup3\n        /* \"#utility.yul\":28820:28868   */\n      tag_327\n      jump\t// in\n    tag_632:\n        /* \"#utility.yul\":28812:28818   */\n      dup4\n        /* \"#utility.yul\":28805:28869   */\n      sstore\n        /* \"#utility.yul\":28727:28883   */\n      pop\n        /* \"#utility.yul\":28704:28883   */\n    tag_631:\n        /* \"#utility.yul\":28929:28930   */\n      0x01\n        /* \"#utility.yul\":28925:28926   */\n      0x02\n        /* \"#utility.yul\":28917:28923   */\n      dup9\n        /* \"#utility.yul\":28913:28927   */\n      mul\n        /* \"#utility.yul\":28909:28931   */\n      add\n        /* \"#utility.yul\":28903:28907   */\n      dup9\n        /* \"#utility.yul\":28896:28932   */\n      sstore\n        /* \"#utility.yul\":28331:28942   */\n      pop\n      pop\n      pop\n        /* \"#utility.yul\":28294:29181   */\n    tag_623:\n      pop\n        /* \"#utility.yul\":27884:29187   */\n      pop\n      pop\n      pop\n        /* \"#utility.yul\":27792:29187   */\n      pop\n      pop\n      jump\t// out\n        /* \"#utility.yul\":29193:29726   */\n    tag_175:\n        /* \"#utility.yul\":29362:29366   */\n      0x00\n        /* \"#utility.yul\":29400:29402   */\n      0x60\n        /* \"#utility.yul\":29389:29398   */\n      dup3\n        /* \"#utility.yul\":29385:29403   */\n      add\n        /* \"#utility.yul\":29377:29403   */\n      swap1\n      pop\n        /* \"#utility.yul\":29449:29458   */\n      dup2\n        /* \"#utility.yul\":29443:29447   */\n      dup2\n        /* \"#utility.yul\":29439:29459   */\n      sub\n        /* \"#utility.yul\":29435:29436   */\n      0x00\n        /* \"#utility.yul\":29424:29433   */\n      dup4\n        /* \"#utility.yul\":29420:29437   */\n      add\n        /* \"#utility.yul\":29413:29460   */\n      mstore\n        /* \"#utility.yul\":29477:29555   */\n      tag_634\n        /* \"#utility.yul\":29550:29554   */\n      dup2\n        /* \"#utility.yul\":29541:29547   */\n      dup7\n        /* \"#utility.yul\":29477:29555   */\n      tag_252\n      jump\t// in\n    tag_634:\n        /* \"#utility.yul\":29469:29555   */\n      swap1\n      pop\n        /* \"#utility.yul\":29565:29637   */\n      tag_635\n        /* \"#utility.yul\":29633:29635   */\n      0x20\n        /* \"#utility.yul\":29622:29631   */\n      dup4\n        /* \"#utility.yul\":29618:29636   */\n      add\n        /* \"#utility.yul\":29609:29615   */\n      dup6\n        /* \"#utility.yul\":29565:29637   */\n      tag_254\n      jump\t// in\n    tag_635:\n        /* \"#utility.yul\":29647:29719   */\n      tag_636\n        /* \"#utility.yul\":29715:29717   */\n      0x40\n        /* \"#utility.yul\":29704:29713   */\n      dup4\n        /* \"#utility.yul\":29700:29718   */\n      add\n        /* \"#utility.yul\":29691:29697   */\n      dup5\n        /* \"#utility.yul\":29647:29719   */\n      tag_257\n      jump\t// in\n    tag_636:\n        /* \"#utility.yul\":29193:29726   */\n      swap5\n      swap4\n      pop\n      pop\n      pop\n      pop\n      jump\t// out\n        /* \"#utility.yul\":29732:29964   */\n    tag_183:\n        /* \"#utility.yul\":29830:29834   */\n      0x00\n        /* \"#utility.yul\":29868:29870   */\n      0x20\n        /* \"#utility.yul\":29857:29866   */\n      dup3\n        /* \"#utility.yul\":29853:29871   */\n      add\n        /* \"#utility.yul\":29845:29871   */\n      swap1\n      pop\n        /* \"#utility.yul\":29881:29957   */\n      tag_638\n        /* \"#utility.yul\":29954:29955   */\n      0x00\n        /* \"#utility.yul\":29943:29952   */\n      dup4\n        /* \"#utility.yul\":29939:29956   */\n      add\n        /* \"#utility.yul\":29930:29936   */\n      dup5\n        /* \"#utility.yul\":29881:29957   */\n      tag_261\n      jump\t// in\n    tag_638:\n        /* \"#utility.yul\":29732:29964   */\n      swap3\n      swap2\n      pop\n      pop\n      jump\t// out\n        /* \"#utility.yul\":29970:30146   */\n    tag_329:\n        /* \"#utility.yul\":30110:30138   */\n      0x50726f647563742049442063616e6e6f7420626520656d707479000000000000\n        /* \"#utility.yul\":30106:30107   */\n      0x00\n        /* \"#utility.yul\":30098:30104   */\n      dup3\n        /* \"#utility.yul\":30094:30108   */\n      add\n        /* \"#utility.yul\":30087:30139   */\n      mstore\n        /* \"#utility.yul\":29970:30146   */\n      pop\n      jump\t// out\n        /* \"#utility.yul\":30152:30518   */\n    tag_330:\n        /* \"#utility.yul\":30294:30297   */\n      0x00\n        /* \"#utility.yul\":30315:30382   */\n      tag_641\n        /* \"#utility.yul\":30379:30381   */\n      0x1a\n        /* \"#utility.yul\":30374:30377   */\n      dup4\n        /* \"#utility.yul\":30315:30382   */\n      tag_249\n      jump\t// in\n    tag_641:\n        /* \"#utility.yul\":30308:30382   */\n      swap2\n      pop\n        /* \"#utility.yul\":30391:30484   */\n      tag_642\n        /* \"#utility.yul\":30480:30483   */\n      dup3\n        /* \"#utility.yul\":30391:30484   */\n      tag_329\n      jump\t// in\n    tag_642:\n        /* \"#utility.yul\":30509:30511   */\n      0x20\n        /* \"#utility.yul\":30504:30507   */\n      dup3\n        /* \"#utility.yul\":30500:30512   */\n      add\n        /* \"#utility.yul\":30493:30512   */\n      swap1\n      pop\n        /* \"#utility.yul\":30152:30518   */\n      swap2\n      swap1\n      pop\n      jump\t// out\n        /* \"#utility.yul\":30524:30943   */\n    tag_203:\n        /* \"#utility.yul\":30690:30694   */\n      0x00\n        /* \"#utility.yul\":30728:30730   */\n      0x20\n        /* \"#utility.yul\":30717:30726   */\n      dup3\n        /* \"#utility.yul\":30713:30731   */\n      add\n        /* \"#utility.yul\":30705:30731   */\n      swap1\n      pop\n        /* \"#utility.yul\":30777:30786   */\n      dup2\n        /* \"#utility.yul\":30771:30775   */\n      dup2\n        /* \"#utility.yul\":30767:30787   */\n      sub\n        /* \"#utility.yul\":30763:30764   */\n      0x00\n        /* \"#utility.yul\":30752:30761   */\n      dup4\n        /* \"#utility.yul\":30748:30765   */\n      add\n        /* \"#utility.yul\":30741:30788   */\n      mstore\n        /* \"#utility.yul\":30805:30936   */\n      tag_644\n        /* \"#utility.yul\":30931:30935   */\n      dup2\n        /* \"#utility.yul\":30805:30936   */\n      tag_330\n      jump\t// in\n    tag_644:\n        /* \"#utility.yul\":30797:30936   */\n      swap1\n      pop\n        /* \"#utility.yul\":30524:30943   */\n      swap2\n      swap1\n      pop\n      jump\t// out\n        /* \"#utility.yul\":30949:31122   */\n    tag_331:\n        /* \"#utility.yul\":31089:31114   */\n      0x436f64656261722063616e6e6f7420626520656d707479000000000000000000\n        /* \"#utility.yul\":31085:31086   */\n      0x00\n        /* \"#utility.yul\":31077:31083   */\n      dup3\n        /* \"#utility.yul\":31073:31087   */\n      add\n        /* \"#utility.yul\":31066:31115   */\n      mstore\n        /* \"#utility.yul\":30949:31122   */\n      pop\n      jump\t// out\n        /* \"#utility.yul\":31128:31494   */\n    tag_332:\n        /* \"#utility.yul\":31270:31273   */\n      0x00\n        /* \"#utility.yul\":31291:31358   */\n      tag_647\n        /* \"#utility.yul\":31355:31357   */\n      0x17\n        /* \"#utility.yul\":31350:31353   */\n      dup4\n        /* \"#utility.yul\":31291:31358   */\n      tag_249\n      jump\t// in\n    tag_647:\n        /* \"#utility.yul\":31284:31358   */\n      swap2\n      pop\n        /* \"#utility.yul\":31367:31460   */\n      tag_648\n        /* \"#utility.yul\":31456:31459   */\n      dup3\n        /* \"#utility.yul\":31367:31460   */\n      tag_331\n      jump\t// in\n    tag_648:\n        /* \"#utility.yul\":31485:31487   */\n      0x20\n        /* \"#utility.yul\":31480:31483   */\n      dup3\n        /* \"#utility.yul\":31476:31488   */\n      add\n        /* \"#utility.yul\":31469:31488   */\n      swap1\n      pop\n        /* \"#utility.yul\":31128:31494   */\n      swap2\n      swap1\n      pop\n      jump\t// out\n        /* \"#utility.yul\":31500:31919   */\n    tag_206:\n        /* \"#utility.yul\":31666:31670   */\n      0x00\n        /* \"#utility.yul\":31704:31706   */\n      0x20\n        /* \"#utility.yul\":31693:31702   */\n      dup3\n        /* \"#utility.yul\":31689:31707   */\n      add\n        /* \"#utility.yul\":31681:31707   */\n      swap1\n      pop\n        /* \"#utility.yul\":31753:31762   */\n      dup2\n        /* \"#utility.yul\":31747:31751   */\n      dup2\n        /* \"#utility.yul\":31743:31763   */\n      sub\n        /* \"#utility.yul\":31739:31740   */\n      0x00\n        /* \"#utility.yul\":31728:31737   */\n      dup4\n        /* \"#utility.yul\":31724:31741   */\n      add\n        /* \"#utility.yul\":31717:31764   */\n      mstore\n        /* \"#utility.yul\":31781:31912   */\n      tag_650\n        /* \"#utility.yul\":31907:31911   */\n      dup2\n        /* \"#utility.yul\":31781:31912   */\n      tag_332\n      jump\t// in\n    tag_650:\n        /* \"#utility.yul\":31773:31912   */\n      swap1\n      pop\n        /* \"#utility.yul\":31500:31919   */\n      swap2\n      swap1\n      pop\n      jump\t// out\n        /* \"#utility.yul\":31925:32095   */\n    tag_333:\n        /* \"#utility.yul\":32065:32087   */\n      0x4e616d652063616e6e6f7420626520656d707479000000000000000000000000\n        /* \"#utility.yul\":32061:32062   */\n      0x00\n        /* \"#utility.yul\":32053:32059   */\n      dup3\n        /* \"#utility.yul\":32049:32063   */\n      add\n        /* \"#utility.yul\":32042:32088   */\n      mstore\n        /* \"#utility.yul\":31925:32095   */\n      pop\n      jump\t// out\n        /* \"#utility.yul\":32101:32467   */\n    tag_334:\n        /* \"#utility.yul\":32243:32246   */\n      0x00\n        /* \"#utility.yul\":32264:32331   */\n      tag_653\n        /* \"#utility.yul\":32328:32330   */\n      0x14\n        /* \"#utility.yul\":32323:32326   */\n      dup4\n        /* \"#utility.yul\":32264:32331   */\n      tag_249\n      jump\t// in\n    tag_653:\n        /* \"#utility.yul\":32257:32331   */\n      swap2\n      pop\n        /* \"#utility.yul\":32340:32433   */\n      tag_654\n        /* \"#utility.yul\":32429:32432   */\n      dup3\n        /* \"#utility.yul\":32340:32433   */\n      tag_333\n      jump\t// in\n    tag_654:\n        /* \"#utility.yul\":32458:32460   */\n      0x20\n        /* \"#utility.yul\":32453:32456   */\n      dup3\n        /* \"#utility.yul\":32449:32461   */\n      add\n        /* \"#utility.yul\":32442:32461   */\n      swap1\n      pop\n        /* \"#utility.yul\":32101:32467   */\n      swap2\n      swap1\n      pop\n      jump\t// out\n        /* \"#utility.yul\":32473:32892   */\n    tag_209:\n        /* \"#utility.yul\":32639:32643   */\n      0x00\n        /* \"#utility.yul\":32677:32679   */\n      0x20\n        /* \"#utility.yul\":32666:32675   */\n      dup3\n        /* \"#utility.yul\":32662:32680   */\n      add\n        /* \"#utility.yul\":32654:32680   */\n      swap1\n      pop\n        /* \"#utility.yul\":32726:32735   */\n      dup2\n        /* \"#utility.yul\":32720:32724   */\n      dup2\n        /* \"#utility.yul\":32716:32736   */\n      sub\n        /* \"#utility.yul\":32712:32713   */\n      0x00\n        /* \"#utility.yul\":32701:32710   */\n      dup4\n        /* \"#utility.yul\":32697:32714   */\n      add\n        /* \"#utility.yul\":32690:32737   */\n      mstore\n        /* \"#utility.yul\":32754:32885   */\n      tag_656\n        /* \"#utility.yul\":32880:32884   */\n      dup2\n        /* \"#utility.yul\":32754:32885   */\n      tag_334\n      jump\t// in\n    tag_656:\n        /* \"#utility.yul\":32746:32885   */\n      swap1\n      pop\n        /* \"#utility.yul\":32473:32892   */\n      swap2\n      swap1\n      pop\n      jump\t// out\n        /* \"#utility.yul\":32898:33075   */\n    tag_335:\n        /* \"#utility.yul\":33038:33067   */\n      0x4465736372697074696f6e2063616e6e6f7420626520656d7074790000000000\n        /* \"#utility.yul\":33034:33035   */\n      0x00\n        /* \"#utility.yul\":33026:33032   */\n      dup3\n        /* \"#utility.yul\":33022:33036   */\n      add\n        /* \"#utility.yul\":33015:33068   */\n      mstore\n        /* \"#utility.yul\":32898:33075   */\n      pop\n      jump\t// out\n        /* \"#utility.yul\":33081:33447   */\n    tag_336:\n        /* \"#utility.yul\":33223:33226   */\n      0x00\n        /* \"#utility.yul\":33244:33311   */\n      tag_659\n        /* \"#utility.yul\":33308:33310   */\n      0x1b\n        /* \"#utility.yul\":33303:33306   */\n      dup4\n        /* \"#utility.yul\":33244:33311   */\n      tag_249\n      jump\t// in\n    tag_659:\n        /* \"#utility.yul\":33237:33311   */\n      swap2\n      pop\n        /* \"#utility.yul\":33320:33413   */\n      tag_660\n        /* \"#utility.yul\":33409:33412   */\n      dup3\n        /* \"#utility.yul\":33320:33413   */\n      tag_335\n      jump\t// in\n    tag_660:\n        /* \"#utility.yul\":33438:33440   */\n      0x20\n        /* \"#utility.yul\":33433:33436   */\n      dup3\n        /* \"#utility.yul\":33429:33441   */\n      add\n        /* \"#utility.yul\":33422:33441   */\n      swap1\n      pop\n        /* \"#utility.yul\":33081:33447   */\n      swap2\n      swap1\n      pop\n      jump\t// out\n        /* \"#utility.yul\":33453:33872   */\n    tag_212:\n        /* \"#utility.yul\":33619:33623   */\n      0x00\n        /* \"#utility.yul\":33657:33659   */\n      0x20\n        /* \"#utility.yul\":33646:33655   */\n      dup3\n        /* \"#utility.yul\":33642:33660   */\n      add\n        /* \"#utility.yul\":33634:33660   */\n      swap1\n      pop\n        /* \"#utility.yul\":33706:33715   */\n      dup2\n        /* \"#utility.yul\":33700:33704   */\n      dup2\n        /* \"#utility.yul\":33696:33716   */\n      sub\n        /* \"#utility.yul\":33692:33693   */\n      0x00\n        /* \"#utility.yul\":33681:33690   */\n      dup4\n        /* \"#utility.yul\":33677:33694   */\n      add\n        /* \"#utility.yul\":33670:33717   */\n      mstore\n        /* \"#utility.yul\":33734:33865   */\n      tag_662\n        /* \"#utility.yul\":33860:33864   */\n      dup2\n        /* \"#utility.yul\":33734:33865   */\n      tag_336\n      jump\t// in\n    tag_662:\n        /* \"#utility.yul\":33726:33865   */\n      swap1\n      pop\n        /* \"#utility.yul\":33453:33872   */\n      swap2\n      swap1\n      pop\n      jump\t// out\n        /* \"#utility.yul\":33878:34050   */\n    tag_337:\n        /* \"#utility.yul\":34018:34042   */\n      0x50726f6475637420616c72656164792065786973747300000000000000000000\n        /* \"#utility.yul\":34014:34015   */\n      0x00\n        /* \"#utility.yul\":34006:34012   */\n      dup3\n        /* \"#utility.yul\":34002:34016   */\n      add\n        /* \"#utility.yul\":33995:34043   */\n      mstore\n        /* \"#utility.yul\":33878:34050   */\n      pop\n      jump\t// out\n        /* \"#utility.yul\":34056:34422   */\n    tag_338:\n        /* \"#utility.yul\":34198:34201   */\n      0x00\n        /* \"#utility.yul\":34219:34286   */\n      tag_665\n        /* \"#utility.yul\":34283:34285   */\n      0x16\n        /* \"#utility.yul\":34278:34281   */\n      dup4\n        /* \"#utility.yul\":34219:34286   */\n      tag_249\n      jump\t// in\n    tag_665:\n        /* \"#utility.yul\":34212:34286   */\n      swap2\n      pop\n        /* \"#utility.yul\":34295:34388   */\n      tag_666\n        /* \"#utility.yul\":34384:34387   */\n      dup3\n        /* \"#utility.yul\":34295:34388   */\n      tag_337\n      jump\t// in\n    tag_666:\n        /* \"#utility.yul\":34413:34415   */\n      0x20\n        /* \"#utility.yul\":34408:34411   */\n      dup3\n        /* \"#utility.yul\":34404:34416   */\n      add\n        /* \"#utility.yul\":34397:34416   */\n      swap1\n      pop\n        /* \"#utility.yul\":34056:34422   */\n      swap2\n      swap1\n      pop\n      jump\t// out\n        /* \"#utility.yul\":34428:34847   */\n    tag_217:\n        /* \"#utility.yul\":34594:34598   */\n      0x00\n        /* \"#utility.yul\":34632:34634   */\n      0x20\n        /* \"#utility.yul\":34621:34630   */\n      dup3\n        /* \"#utility.yul\":34617:34635   */\n      add\n        /* \"#utility.yul\":34609:34635   */\n      swap1\n      pop\n        /* \"#utility.yul\":34681:34690   */\n      dup2\n        /* \"#utility.yul\":34675:34679   */\n      dup2\n        /* \"#utility.yul\":34671:34691   */\n      sub\n        /* \"#utility.yul\":34667:34668   */\n      0x00\n        /* \"#utility.yul\":34656:34665   */\n      dup4\n        /* \"#utility.yul\":34652:34669   */\n      add\n        /* \"#utility.yul\":34645:34692   */\n      mstore\n        /* \"#utility.yul\":34709:34840   */\n      tag_668\n        /* \"#utility.yul\":34835:34839   */\n      dup2\n        /* \"#utility.yul\":34709:34840   */\n      tag_338\n      jump\t// in\n    tag_668:\n        /* \"#utility.yul\":34701:34840   */\n      swap1\n      pop\n        /* \"#utility.yul\":34428:34847   */\n      swap2\n      swap1\n      pop\n      jump\t// out\n        /* \"#utility.yul\":34853:35007   */\n    tag_339:\n        /* \"#utility.yul\":34993:34999   */\n      0x494e495400000000000000000000000000000000000000000000000000000000\n        /* \"#utility.yul\":34989:34990   */\n      0x00\n        /* \"#utility.yul\":34981:34987   */\n      dup3\n        /* \"#utility.yul\":34977:34991   */\n      add\n        /* \"#utility.yul\":34970:35000   */\n      mstore\n        /* \"#utility.yul\":34853:35007   */\n      pop\n      jump\t// out\n        /* \"#utility.yul\":35013:35413   */\n    tag_340:\n        /* \"#utility.yul\":35173:35176   */\n      0x00\n        /* \"#utility.yul\":35194:35278   */\n      tag_671\n        /* \"#utility.yul\":35276:35277   */\n      0x04\n        /* \"#utility.yul\":35271:35274   */\n      dup4\n        /* \"#utility.yul\":35194:35278   */\n      tag_312\n      jump\t// in\n    tag_671:\n        /* \"#utility.yul\":35187:35278   */\n      swap2\n      pop\n        /* \"#utility.yul\":35287:35380   */\n      tag_672\n        /* \"#utility.yul\":35376:35379   */\n      dup3\n        /* \"#utility.yul\":35287:35380   */\n      tag_339\n      jump\t// in\n    tag_672:\n        /* \"#utility.yul\":35405:35406   */\n      0x04\n        /* \"#utility.yul\":35400:35403   */\n      dup3\n        /* \"#utility.yul\":35396:35407   */\n      add\n        /* \"#utility.yul\":35389:35407   */\n      swap1\n      pop\n        /* \"#utility.yul\":35013:35413   */\n      swap2\n      swap1\n      pop\n      jump\t// out\n        /* \"#utility.yul\":35419:36082   */\n    tag_227:\n        /* \"#utility.yul\":35660:35663   */\n      0x00\n        /* \"#utility.yul\":35675:35750   */\n      tag_674\n        /* \"#utility.yul\":35746:35749   */\n      dup3\n        /* \"#utility.yul\":35737:35743   */\n      dup6\n        /* \"#utility.yul\":35675:35750   */\n      tag_305\n      jump\t// in\n    tag_674:\n        /* \"#utility.yul\":35775:35777   */\n      0x20\n        /* \"#utility.yul\":35770:35773   */\n      dup3\n        /* \"#utility.yul\":35766:35778   */\n      add\n        /* \"#utility.yul\":35759:35778   */\n      swap2\n      pop\n        /* \"#utility.yul\":35788:35863   */\n      tag_675\n        /* \"#utility.yul\":35859:35862   */\n      dup3\n        /* \"#utility.yul\":35850:35856   */\n      dup5\n        /* \"#utility.yul\":35788:35863   */\n      tag_307\n      jump\t// in\n    tag_675:\n        /* \"#utility.yul\":35888:35890   */\n      0x20\n        /* \"#utility.yul\":35883:35886   */\n      dup3\n        /* \"#utility.yul\":35879:35891   */\n      add\n        /* \"#utility.yul\":35872:35891   */\n      swap2\n      pop\n        /* \"#utility.yul\":35908:36056   */\n      tag_676\n        /* \"#utility.yul\":36052:36055   */\n      dup3\n        /* \"#utility.yul\":35908:36056   */\n      tag_340\n      jump\t// in\n    tag_676:\n        /* \"#utility.yul\":35901:36056   */\n      swap2\n      pop\n        /* \"#utility.yul\":36073:36076   */\n      dup2\n        /* \"#utility.yul\":36066:36076   */\n      swap1\n      pop\n        /* \"#utility.yul\":35419:36082   */\n      swap4\n      swap3\n      pop\n      pop\n      pop\n      jump\t// out\n        /* \"#utility.yul\":36088:37025   */\n    tag_235:\n        /* \"#utility.yul\":36353:36357   */\n      0x00\n        /* \"#utility.yul\":36391:36394   */\n      0xa0\n        /* \"#utility.yul\":36380:36389   */\n      dup3\n        /* \"#utility.yul\":36376:36395   */\n      add\n        /* \"#utility.yul\":36368:36395   */\n      swap1\n      pop\n        /* \"#utility.yul\":36441:36450   */\n      dup2\n        /* \"#utility.yul\":36435:36439   */\n      dup2\n        /* \"#utility.yul\":36431:36451   */\n      sub\n        /* \"#utility.yul\":36427:36428   */\n      0x00\n        /* \"#utility.yul\":36416:36425   */\n      dup4\n        /* \"#utility.yul\":36412:36429   */\n      add\n        /* \"#utility.yul\":36405:36452   */\n      mstore\n        /* \"#utility.yul\":36469:36547   */\n      tag_678\n        /* \"#utility.yul\":36542:36546   */\n      dup2\n        /* \"#utility.yul\":36533:36539   */\n      dup9\n        /* \"#utility.yul\":36469:36547   */\n      tag_252\n      jump\t// in\n    tag_678:\n        /* \"#utility.yul\":36461:36547   */\n      swap1\n      pop\n        /* \"#utility.yul\":36594:36603   */\n      dup2\n        /* \"#utility.yul\":36588:36592   */\n      dup2\n        /* \"#utility.yul\":36584:36604   */\n      sub\n        /* \"#utility.yul\":36579:36581   */\n      0x20\n        /* \"#utility.yul\":36568:36577   */\n      dup4\n        /* \"#utility.yul\":36564:36582   */\n      add\n        /* \"#utility.yul\":36557:36605   */\n      mstore\n        /* \"#utility.yul\":36622:36700   */\n      tag_679\n        /* \"#utility.yul\":36695:36699   */\n      dup2\n        /* \"#utility.yul\":36686:36692   */\n      dup8\n        /* \"#utility.yul\":36622:36700   */\n      tag_252\n      jump\t// in\n    tag_679:\n        /* \"#utility.yul\":36614:36700   */\n      swap1\n      pop\n        /* \"#utility.yul\":36747:36756   */\n      dup2\n        /* \"#utility.yul\":36741:36745   */\n      dup2\n        /* \"#utility.yul\":36737:36757   */\n      sub\n        /* \"#utility.yul\":36732:36734   */\n      0x40\n        /* \"#utility.yul\":36721:36730   */\n      dup4\n        /* \"#utility.yul\":36717:36735   */\n      add\n        /* \"#utility.yul\":36710:36758   */\n      mstore\n        /* \"#utility.yul\":36775:36853   */\n      tag_680\n        /* \"#utility.yul\":36848:36852   */\n      dup2\n        /* \"#utility.yul\":36839:36845   */\n      dup7\n        /* \"#utility.yul\":36775:36853   */\n      tag_252\n      jump\t// in\n    tag_680:\n        /* \"#utility.yul\":36767:36853   */\n      swap1\n      pop\n        /* \"#utility.yul\":36863:36935   */\n      tag_681\n        /* \"#utility.yul\":36931:36933   */\n      0x60\n        /* \"#utility.yul\":36920:36929   */\n      dup4\n        /* \"#utility.yul\":36916:36934   */\n      add\n        /* \"#utility.yul\":36907:36913   */\n      dup6\n        /* \"#utility.yul\":36863:36935   */\n      tag_254\n      jump\t// in\n    tag_681:\n        /* \"#utility.yul\":36945:37018   */\n      tag_682\n        /* \"#utility.yul\":37013:37016   */\n      0x80\n        /* \"#utility.yul\":37002:37011   */\n      dup4\n        /* \"#utility.yul\":36998:37017   */\n      add\n        /* \"#utility.yul\":36989:36995   */\n      dup5\n        /* \"#utility.yul\":36945:37018   */\n      tag_257\n      jump\t// in\n    tag_682:\n        /* \"#utility.yul\":36088:37025   */\n      swap7\n      swap6\n      pop\n      pop\n      pop\n      pop\n      pop\n      pop\n      jump\t// out\n        /* \"#utility.yul\":37031:37203   */\n    tag_341:\n        /* \"#utility.yul\":37171:37195   */\n      0x50726f6475637420696e697469616c697a6174696f6e00000000000000000000\n        /* \"#utility.yul\":37167:37168   */\n      0x00\n        /* \"#utility.yul\":37159:37165   */\n      dup3\n        /* \"#utility.yul\":37155:37169   */\n      add\n        /* \"#utility.yul\":37148:37196   */\n      mstore\n        /* \"#utility.yul\":37031:37203   */\n      pop\n      jump\t// out\n        /* \"#utility.yul\":37209:37575   */\n    tag_342:\n        /* \"#utility.yul\":37351:37354   */\n      0x00\n        /* \"#utility.yul\":37372:37439   */\n      tag_685\n        /* \"#utility.yul\":37436:37438   */\n      0x16\n        /* \"#utility.yul\":37431:37434   */\n      dup4\n        /* \"#utility.yul\":37372:37439   */\n      tag_249\n      jump\t// in\n    tag_685:\n        /* \"#utility.yul\":37365:37439   */\n      swap2\n      pop\n        /* \"#utility.yul\":37448:37541   */\n      tag_686\n        /* \"#utility.yul\":37537:37540   */\n      dup3\n        /* \"#utility.yul\":37448:37541   */\n      tag_341\n      jump\t// in\n    tag_686:\n        /* \"#utility.yul\":37566:37568   */\n      0x20\n        /* \"#utility.yul\":37561:37564   */\n      dup3\n        /* \"#utility.yul\":37557:37569   */\n      add\n        /* \"#utility.yul\":37550:37569   */\n      swap1\n      pop\n        /* \"#utility.yul\":37209:37575   */\n      swap2\n      swap1\n      pop\n      jump\t// out\n        /* \"#utility.yul\":37581:38220   */\n    tag_237:\n        /* \"#utility.yul\":37803:37807   */\n      0x00\n        /* \"#utility.yul\":37841:37843   */\n      0x60\n        /* \"#utility.yul\":37830:37839   */\n      dup3\n        /* \"#utility.yul\":37826:37844   */\n      add\n        /* \"#utility.yul\":37818:37844   */\n      swap1\n      pop\n        /* \"#utility.yul\":37890:37899   */\n      dup2\n        /* \"#utility.yul\":37884:37888   */\n      dup2\n        /* \"#utility.yul\":37880:37900   */\n      sub\n        /* \"#utility.yul\":37876:37877   */\n      0x00\n        /* \"#utility.yul\":37865:37874   */\n      dup4\n        /* \"#utility.yul\":37861:37878   */\n      add\n        /* \"#utility.yul\":37854:37901   */\n      mstore\n        /* \"#utility.yul\":37918:38049   */\n      tag_688\n        /* \"#utility.yul\":38044:38048   */\n      dup2\n        /* \"#utility.yul\":37918:38049   */\n      tag_342\n      jump\t// in\n    tag_688:\n        /* \"#utility.yul\":37910:38049   */\n      swap1\n      pop\n        /* \"#utility.yul\":38059:38131   */\n      tag_689\n        /* \"#utility.yul\":38127:38129   */\n      0x20\n        /* \"#utility.yul\":38116:38125   */\n      dup4\n        /* \"#utility.yul\":38112:38130   */\n      add\n        /* \"#utility.yul\":38103:38109   */\n      dup6\n        /* \"#utility.yul\":38059:38131   */\n      tag_254\n      jump\t// in\n    tag_689:\n        /* \"#utility.yul\":38141:38213   */\n      tag_690\n        /* \"#utility.yul\":38209:38211   */\n      0x40\n        /* \"#utility.yul\":38198:38207   */\n      dup4\n        /* \"#utility.yul\":38194:38212   */\n      add\n        /* \"#utility.yul\":38185:38191   */\n      dup5\n        /* \"#utility.yul\":38141:38213   */\n      tag_257\n      jump\t// in\n    tag_690:\n        /* \"#utility.yul\":37581:38220   */\n      swap4\n      swap3\n      pop\n      pop\n      pop\n      jump\t// out\n\n    auxdata: 0xa264697066735822122063c9e135ff932ffbbd1cc8db670a8973bb4dc71a79f23ca0a8e41d1d72c9279e64736f6c634300081a0033\n}\n",
				"bytecode": {
					"linkReferences": {},
					"object": "6080604052348015600e575f80fd5b506129048061001c5f395ff3fe608060405234801561000f575f80fd5b5060043610610086575f3560e01c80639635b610116100595780639635b61014610141578063dc964cb61461015d578063f0ccdecb14610179578063fde74e81146101a957610086565b80633a20e9df1461008a57806358fb4ad7146100bf5780635a94feca146100f3578063663c01af14610123575b5f80fd5b6100a4600480360381019061009f91906116d2565b6101c5565b6040516100b696959493929190611837565b60405180910390f35b6100d960048036038101906100d491906116d2565b6104f0565b6040516100ea9594939291906118ba565b60405180910390f35b61010d6004803603810190610108919061193c565b61073f565b60405161011a9190611b2c565b60405180910390f35b61012b610ad6565b6040516101389190611bf4565b60405180910390f35b61015b60048036038101906101569190611d40565b610b2c565b005b61017760048036038101906101729190611dbd565b610e0c565b005b610193600480360381019061018e91906116d2565b610ee5565b6040516101a09190611b2c565b60405180910390f35b6101c360048036038101906101be9190611dfb565b6110e7565b005b60608060605f805f865f808281526020019081526020015f2060050160159054906101000a900460ff1661022e576040517f08c379a000000000000000000000000000000000000000000000000000000000815260040161022590611f19565b60405180910390fd5b5f805f8a81526020019081526020015f20604051806101000160405290815f820154815260200160018201805461026490611f64565b80601f016020809104026020016040519081016040528092919081815260200182805461029090611f64565b80156102db5780601f106102b2576101008083540402835291602001916102db565b820191905f5260205f20905b8154815290600101906020018083116102be57829003601f168201915b505050505081526020016002820180546102f490611f64565b80601f016020809104026020016040519081016040528092919081815260200182805461032090611f64565b801561036b5780601f106103425761010080835404028352916020019161036b565b820191905f5260205f20905b81548152906001019060200180831161034e57829003601f168201915b5050505050815260200160038201805461038490611f64565b80601f01602080910402602001604051908101604052809291908181526020018280546103b090611f64565b80156103fb5780601f106103d2576101008083540402835291602001916103fb565b820191905f5260205f20905b8154815290600101906020018083116103de57829003601f168201915b5050505050815260200160048201548152602001600582015f9054906101000a900473ffffffffffffffffffffffffffffffffffffffff1673ffffffffffffffffffffffffffffffffffffffff1673ffffffffffffffffffffffffffffffffffffffff1681526020016005820160149054906101000a900460ff166001811115610488576104876117c4565b5b600181111561049a576104996117c4565b5b81526020016005820160159054906101000a900460ff161515151581525050905080602001518160400151826060015183608001518460a001518560c00151975097509750975097509750505091939550919395565b5f60605f805f8060025f8881526020019081526020015f205490505f801b810361054f576040517f08c379a000000000000000000000000000000000000000000000000000000000815260040161054690611fde565b60405180910390fd5b5f60015f8381526020019081526020015f2090505f5b81805490508110156106fa578882828154811061058557610584611ffc565b5b905f5260205f2090600402015f0154036106ed57828282815481106105ad576105ac611ffc565b5b905f5260205f2090600402016001018383815481106105cf576105ce611ffc565b5b905f5260205f209060040201600201548484815481106105f2576105f1611ffc565b5b905f5260205f2090600402016003015f9054906101000a900473ffffffffffffffffffffffffffffffffffffffff1685858154811061063457610633611ffc565b5b905f5260205f20906004020160030160149054906101000a900460ff1683805461065d90611f64565b80601f016020809104026020016040519081016040528092919081815260200182805461068990611f64565b80156106d45780601f106106ab576101008083540402835291602001916106d4565b820191905f5260205f20905b8154815290600101906020018083116106b757829003601f168201915b5050505050935097509750975097509750505050610736565b8080600101915050610565565b506040517f08c379a000000000000000000000000000000000000000000000000000000000815260040161072d90611fde565b60405180910390fd5b91939590929450565b6060825f808281526020019081526020015f2060050160159054906101000a900460ff166107a2576040517f08c379a000000000000000000000000000000000000000000000000000000000815260040161079990611f19565b60405180910390fd5b5f60015f8681526020019081526020015f2090505f805b8280549050811015610855578573ffffffffffffffffffffffffffffffffffffffff168382815481106107ef576107ee611ffc565b5b905f5260205f2090600402016003015f9054906101000a900473ffffffffffffffffffffffffffffffffffffffff1673ffffffffffffffffffffffffffffffffffffffff160361084857818061084490612056565b9250505b80806001019150506107b9565b505f8167ffffffffffffffff81111561087157610870611c1c565b5b6040519080825280602002602001820160405280156108aa57816020015b610897611638565b81526020019060019003908161088f5790505b5090505f805b8480549050811015610ac7578773ffffffffffffffffffffffffffffffffffffffff168582815481106108e6576108e5611ffc565b5b905f5260205f2090600402016003015f9054906101000a900473ffffffffffffffffffffffffffffffffffffffff1673ffffffffffffffffffffffffffffffffffffffff1603610aba5784818154811061094357610942611ffc565b5b905f5260205f2090600402016040518060a00160405290815f820154815260200160018201805461097390611f64565b80601f016020809104026020016040519081016040528092919081815260200182805461099f90611f64565b80156109ea5780601f106109c1576101008083540402835291602001916109ea565b820191905f5260205f20905b8154815290600101906020018083116109cd57829003601f168201915b5050505050815260200160028201548152602001600382015f9054906101000a900473ffffffffffffffffffffffffffffffffffffffff1673ffffffffffffffffffffffffffffffffffffffff1673ffffffffffffffffffffffffffffffffffffffff1681526020016003820160149054906101000a900460ff166001811115610a7757610a766117c4565b5b6001811115610a8957610a886117c4565b5b81525050838381518110610aa057610a9f611ffc565b5b60200260200101819052508180610ab690612056565b9250505b80806001019150506108b0565b50819550505050505092915050565b60606003805480602002602001604051908101604052809291908181526020018280548015610b2257602002820191905f5260205f20905b815481526020019060010190808311610b0e575b5050505050905090565b815f808281526020019081526020015f2060050160159054906101000a900460ff16610b8d576040517f08c379a0000000000000000000000000000000000000000000000000000000008152600401610b8490611f19565b60405180910390fd5b825f6001811115610ba157610ba06117c4565b5b5f808381526020019081526020015f2060050160149054906101000a900460ff166001811115610bd457610bd36117c4565b5b14610c14576040517f08c379a0000000000000000000000000000000000000000000000000000000008152600401610c0b906120e7565b60405180910390fd5b5f835111610c57576040517f08c379a0000000000000000000000000000000000000000000000000000000008152600401610c4e90612175565b60405180910390fd5b5f84423386604051602001610c6f9493929190612252565b6040516020818303038152906040528051906020012090505f6040518060a001604052808381526020018681526020014281526020013373ffffffffffffffffffffffffffffffffffffffff1681526020015f6001811115610cd457610cd36117c4565b5b815250905060015f8781526020019081526020015f2081908060018154018082558091505060019003905f5260205f2090600402015f909190919091505f820151815f01556020820151816001019081610d2e9190612438565b50604082015181600201556060820151816003015f6101000a81548173ffffffffffffffffffffffffffffffffffffffff021916908373ffffffffffffffffffffffffffffffffffffffff16021790555060808201518160030160146101000a81548160ff02191690836001811115610daa57610da96117c4565b5b021790555050508560025f8481526020019081526020015f208190555081867ffc7f09d226b2e852bd3f04f352adab8a4e00b078d16e635f5a5102e2ac721fc8874233604051610dfc93929190612507565b60405180910390a3505050505050565b815f808281526020019081526020015f2060050160159054906101000a900460ff16610e6d576040517f08c379a0000000000000000000000000000000000000000000000000000000008152600401610e6490611f19565b60405180910390fd5b815f808581526020019081526020015f2060050160146101000a81548160ff02191690836001811115610ea357610ea26117c4565b5b0217905550827f6b42974450f95b3d498669e78c1d60139454f4e6c64187cfb138c2d7dbf2aa1683604051610ed89190612543565b60405180910390a2505050565b6060815f808281526020019081526020015f2060050160159054906101000a900460ff16610f48576040517f08c379a0000000000000000000000000000000000000000000000000000000008152600401610f3f90611f19565b60405180910390fd5b60015f8481526020019081526020015f20805480602002602001604051908101604052809291908181526020015f905b828210156110db578382905f5260205f2090600402016040518060a00160405290815f8201548152602001600182018054610fb290611f64565b80601f0160208091040260200160405190810160405280929190818152602001828054610fde90611f64565b80156110295780601f1061100057610100808354040283529160200191611029565b820191905f5260205f20905b81548152906001019060200180831161100c57829003601f168201915b5050505050815260200160028201548152602001600382015f9054906101000a900473ffffffffffffffffffffffffffffffffffffffff1673ffffffffffffffffffffffffffffffffffffffff1673ffffffffffffffffffffffffffffffffffffffff1681526020016003820160149054906101000a900460ff1660018111156110b6576110b56117c4565b5b60018111156110c8576110c76117c4565b5b8152505081526020019060010190610f78565b50505050915050919050565b5f84511161112a576040517f08c379a0000000000000000000000000000000000000000000000000000000008152600401611121906125a6565b60405180910390fd5b5f83511161116d576040517f08c379a00000000000000000000000000000000000000000000000000000000081526004016111649061260e565b60405180910390fd5b5f8251116111b0576040517f08c379a00000000000000000000000000000000000000000000000000000000081526004016111a790612676565b60405180910390fd5b5f8151116111f3576040517f08c379a00000000000000000000000000000000000000000000000000000000081526004016111ea906126de565b60405180910390fd5b5f6111fd85611612565b90505f808281526020019081526020015f2060050160159054906101000a900460ff1615611260576040517f08c379a000000000000000000000000000000000000000000000000000000000815260040161125790612746565b60405180910390fd5b5f6040518061010001604052808381526020018681526020018581526020018481526020014281526020013373ffffffffffffffffffffffffffffffffffffffff1681526020015f60018111156112ba576112b96117c4565b5b8152602001600115158152509050805f808481526020019081526020015f205f820151815f015560208201518160010190816112f69190612438565b50604082015181600201908161130c9190612438565b5060608201518160030190816113229190612438565b506080820151816004015560a0820151816005015f6101000a81548173ffffffffffffffffffffffffffffffffffffffff021916908373ffffffffffffffffffffffffffffffffffffffff16021790555060c08201518160050160146101000a81548160ff0219169083600181111561139e5761139d6117c4565b5b021790555060e08201518160050160156101000a81548160ff021916908315150217905550905050600382908060018154018082558091505060019003905f5260205f20015f90919091909150555f82426040516020016114009291906127ae565b6040516020818303038152906040528051906020012090505f6040518060a001604052808381526020016040518060400160405280601681526020017f50726f6475637420696e697469616c697a6174696f6e0000000000000000000081525081526020014281526020013373ffffffffffffffffffffffffffffffffffffffff1681526020015f600181111561149a576114996117c4565b5b815250905060015f8581526020019081526020015f2081908060018154018082558091505060019003905f5260205f2090600402015f909190919091505f820151815f015560208201518160010190816114f49190612438565b50604082015181600201556060820151816003015f6101000a81548173ffffffffffffffffffffffffffffffffffffffff021916908373ffffffffffffffffffffffffffffffffffffffff16021790555060808201518160030160146101000a81548160ff021916908360018111156115705761156f6117c4565b5b021790555050508360025f8481526020019081526020015f2081905550837f05d95f8b95df6d455e3731c3ddea53d6b339315da38d66461c61654d2f72563f88888842336040516115c59594939291906127e4565b60405180910390a281847ffc7f09d226b2e852bd3f04f352adab8a4e00b078d16e635f5a5102e2ac721fc84233604051611600929190612894565b60405180910390a35050505050505050565b5f808290505f81510361162a575f801b915050611633565b60208301519150505b919050565b6040518060a001604052805f8019168152602001606081526020015f81526020015f73ffffffffffffffffffffffffffffffffffffffff1681526020015f6001811115611688576116876117c4565b5b81525090565b5f604051905090565b5f80fd5b5f80fd5b5f819050919050565b6116b18161169f565b81146116bb575f80fd5b50565b5f813590506116cc816116a8565b92915050565b5f602082840312156116e7576116e6611697565b5b5f6116f4848285016116be565b91505092915050565b5f81519050919050565b5f82825260208201905092915050565b8281835e5f83830152505050565b5f601f19601f8301169050919050565b5f61173f826116fd565b6117498185611707565b9350611759818560208601611717565b61176281611725565b840191505092915050565b5f819050919050565b61177f8161176d565b82525050565b5f73ffffffffffffffffffffffffffffffffffffffff82169050919050565b5f6117ae82611785565b9050919050565b6117be816117a4565b82525050565b7f4e487b71000000000000000000000000000000000000000000000000000000005f52602160045260245ffd5b60028110611802576118016117c4565b5b50565b5f819050611812826117f1565b919050565b5f61182182611805565b9050919050565b61183181611817565b82525050565b5f60c0820190508181035f83015261184f8189611735565b905081810360208301526118638188611735565b905081810360408301526118778187611735565b90506118866060830186611776565b61189360808301856117b5565b6118a060a0830184611828565b979650505050505050565b6118b48161169f565b82525050565b5f60a0820190506118cd5f8301886118ab565b81810360208301526118df8187611735565b90506118ee6040830186611776565b6118fb60608301856117b5565b6119086080830184611828565b9695505050505050565b61191b816117a4565b8114611925575f80fd5b50565b5f8135905061193681611912565b92915050565b5f806040838503121561195257611951611697565b5b5f61195f858286016116be565b925050602061197085828601611928565b9150509250929050565b5f81519050919050565b5f82825260208201905092915050565b5f819050602082019050919050565b6119ac8161169f565b82525050565b5f82825260208201905092915050565b5f6119cc826116fd565b6119d681856119b2565b93506119e6818560208601611717565b6119ef81611725565b840191505092915050565b611a038161176d565b82525050565b611a12816117a4565b82525050565b611a2181611817565b82525050565b5f60a083015f830151611a3c5f8601826119a3565b5060208301518482036020860152611a5482826119c2565b9150506040830151611a6960408601826119fa565b506060830151611a7c6060860182611a09565b506080830151611a8f6080860182611a18565b508091505092915050565b5f611aa58383611a27565b905092915050565b5f602082019050919050565b5f611ac38261197a565b611acd8185611984565b935083602082028501611adf85611994565b805f5b85811015611b1a5784840389528151611afb8582611a9a565b9450611b0683611aad565b925060208a01995050600181019050611ae2565b50829750879550505050505092915050565b5f6020820190508181035f830152611b448184611ab9565b905092915050565b5f81519050919050565b5f82825260208201905092915050565b5f819050602082019050919050565b5f611b8083836119a3565b60208301905092915050565b5f602082019050919050565b5f611ba282611b4c565b611bac8185611b56565b9350611bb783611b66565b805f5b83811015611be7578151611bce8882611b75565b9750611bd983611b8c565b925050600181019050611bba565b5085935050505092915050565b5f6020820190508181035f830152611c0c8184611b98565b905092915050565b5f80fd5b5f80fd5b7f4e487b71000000000000000000000000000000000000000000000000000000005f52604160045260245ffd5b611c5282611725565b810181811067ffffffffffffffff82111715611c7157611c70611c1c565b5b80604052505050565b5f611c8361168e565b9050611c8f8282611c49565b919050565b5f67ffffffffffffffff821115611cae57611cad611c1c565b5b611cb782611725565b9050602081019050919050565b828183375f83830152505050565b5f611ce4611cdf84611c94565b611c7a565b905082815260208101848484011115611d0057611cff611c18565b5b611d0b848285611cc4565b509392505050565b5f82601f830112611d2757611d26611c14565b5b8135611d37848260208601611cd2565b91505092915050565b5f8060408385031215611d5657611d55611697565b5b5f611d63858286016116be565b925050602083013567ffffffffffffffff811115611d8457611d8361169b565b5b611d9085828601611d13565b9150509250929050565b60028110611da6575f80fd5b50565b5f81359050611db781611d9a565b92915050565b5f8060408385031215611dd357611dd2611697565b5b5f611de0858286016116be565b9250506020611df185828601611da9565b9150509250929050565b5f805f8060808587031215611e1357611e12611697565b5b5f85013567ffffffffffffffff811115611e3057611e2f61169b565b5b611e3c87828801611d13565b945050602085013567ffffffffffffffff811115611e5d57611e5c61169b565b5b611e6987828801611d13565b935050604085013567ffffffffffffffff811115611e8a57611e8961169b565b5b611e9687828801611d13565b925050606085013567ffffffffffffffff811115611eb757611eb661169b565b5b611ec387828801611d13565b91505092959194509250565b7f50726f6475637420646f6573206e6f74206578697374000000000000000000005f82015250565b5f611f03601683611707565b9150611f0e82611ecf565b602082019050919050565b5f6020820190508181035f830152611f3081611ef7565b9050919050565b7f4e487b71000000000000000000000000000000000000000000000000000000005f52602260045260245ffd5b5f6002820490506001821680611f7b57607f821691505b602082108103611f8e57611f8d611f37565b5b50919050565b7f5472616365206e6f7420666f756e6400000000000000000000000000000000005f82015250565b5f611fc8600f83611707565b9150611fd382611f94565b602082019050919050565b5f6020820190508181035f830152611ff581611fbc565b9050919050565b7f4e487b71000000000000000000000000000000000000000000000000000000005f52603260045260245ffd5b7f4e487b71000000000000000000000000000000000000000000000000000000005f52601160045260245ffd5b5f6120608261176d565b91507fffffffffffffffffffffffffffffffffffffffffffffffffffffffffffffffff820361209257612091612029565b5b600182019050919050565b7f50726f64756374206e6f742061637469766500000000000000000000000000005f82015250565b5f6120d1601283611707565b91506120dc8261209d565b602082019050919050565b5f6020820190508181035f8301526120fe816120c5565b9050919050565b7f5472616365206465736372697074696f6e2063616e6e6f7420626520656d70745f8201527f7900000000000000000000000000000000000000000000000000000000000000602082015250565b5f61215f602183611707565b915061216a82612105565b604082019050919050565b5f6020820190508181035f83015261218c81612153565b9050919050565b5f819050919050565b6121ad6121a88261169f565b612193565b82525050565b5f819050919050565b6121cd6121c88261176d565b6121b3565b82525050565b5f8160601b9050919050565b5f6121e9826121d3565b9050919050565b5f6121fa826121df565b9050919050565b61221261220d826117a4565b6121f0565b82525050565b5f81905092915050565b5f61222c826116fd565b6122368185612218565b9350612246818560208601611717565b80840191505092915050565b5f61225d828761219c565b60208201915061226d82866121bc565b60208201915061227d8285612201565b60148201915061228d8284612222565b915081905095945050505050565b5f819050815f5260205f209050919050565b5f6020601f8301049050919050565b5f82821b905092915050565b5f600883026122f77fffffffffffffffffffffffffffffffffffffffffffffffffffffffffffffffff826122bc565b61230186836122bc565b95508019841693508086168417925050509392505050565b5f819050919050565b5f61233c6123376123328461176d565b612319565b61176d565b9050919050565b5f819050919050565b61235583612322565b61236961236182612343565b8484546122c8565b825550505050565b5f90565b61237d612371565b61238881848461234c565b505050565b5b818110156123ab576123a05f82612375565b60018101905061238e565b5050565b601f8211156123f0576123c18161229b565b6123ca846122ad565b810160208510156123d9578190505b6123ed6123e5856122ad565b83018261238d565b50505b505050565b5f82821c905092915050565b5f6124105f19846008026123f5565b1980831691505092915050565b5f6124288383612401565b9150826002028217905092915050565b612441826116fd565b67ffffffffffffffff81111561245a57612459611c1c565b5b6124648254611f64565b61246f8282856123af565b5f60209050601f8311600181146124a0575f841561248e578287015190505b612498858261241d565b8655506124ff565b601f1984166124ae8661229b565b5f5b828110156124d5578489015182556001820191506020850194506020810190506124b0565b868310156124f257848901516124ee601f891682612401565b8355505b6001600288020188555050505b505050505050565b5f6060820190508181035f83015261251f8186611735565b905061252e6020830185611776565b61253b60408301846117b5565b949350505050565b5f6020820190506125565f830184611828565b92915050565b7f50726f647563742049442063616e6e6f7420626520656d7074790000000000005f82015250565b5f612590601a83611707565b915061259b8261255c565b602082019050919050565b5f6020820190508181035f8301526125bd81612584565b9050919050565b7f436f64656261722063616e6e6f7420626520656d7074790000000000000000005f82015250565b5f6125f8601783611707565b9150612603826125c4565b602082019050919050565b5f6020820190508181035f830152612625816125ec565b9050919050565b7f4e616d652063616e6e6f7420626520656d7074790000000000000000000000005f82015250565b5f612660601483611707565b915061266b8261262c565b602082019050919050565b5f6020820190508181035f83015261268d81612654565b9050919050565b7f4465736372697074696f6e2063616e6e6f7420626520656d70747900000000005f82015250565b5f6126c8601b83611707565b91506126d382612694565b602082019050919050565b5f6020820190508181035f8301526126f5816126bc565b9050919050565b7f50726f6475637420616c726561647920657869737473000000000000000000005f82015250565b5f612730601683611707565b915061273b826126fc565b602082019050919050565b5f6020820190508181035f83015261275d81612724565b9050919050565b7f494e4954000000000000000000000000000000000000000000000000000000005f82015250565b5f612798600483612218565b91506127a382612764565b600482019050919050565b5f6127b9828561219c565b6020820191506127c982846121bc565b6020820191506127d88261278c565b91508190509392505050565b5f60a0820190508181035f8301526127fc8188611735565b905081810360208301526128108187611735565b905081810360408301526128248186611735565b90506128336060830185611776565b61284060808301846117b5565b9695505050505050565b7f50726f6475637420696e697469616c697a6174696f6e000000000000000000005f82015250565b5f61287e601683611707565b91506128898261284a565b602082019050919050565b5f6060820190508181035f8301526128ab81612872565b90506128ba6020830185611776565b6128c760408301846117b5565b939250505056fea264697066735822122063c9e135ff932ffbbd1cc8db670a8973bb4dc71a79f23ca0a8e41d1d72c9279e64736f6c634300081a0033",
					"opcodes": "PUSH1 0x80 PUSH1 0x40 MSTORE CALLVALUE DUP1 ISZERO PUSH1 0xE JUMPI PUSH0 DUP1 REVERT JUMPDEST POP PUSH2 0x2904 DUP1 PUSH2 0x1C PUSH0 CODECOPY PUSH0 RETURN INVALID PUSH1 0x80 PUSH1 0x40 MSTORE CALLVALUE DUP1 ISZERO PUSH2 0xF JUMPI PUSH0 DUP1 REVERT JUMPDEST POP PUSH1 0x4 CALLDATASIZE LT PUSH2 0x86 JUMPI PUSH0 CALLDATALOAD PUSH1 0xE0 SHR DUP1 PUSH4 0x9635B610 GT PUSH2 0x59 JUMPI DUP1 PUSH4 0x9635B610 EQ PUSH2 0x141 JUMPI DUP1 PUSH4 0xDC964CB6 EQ PUSH2 0x15D JUMPI DUP1 PUSH4 0xF0CCDECB EQ PUSH2 0x179 JUMPI DUP1 PUSH4 0xFDE74E81 EQ PUSH2 0x1A9 JUMPI PUSH2 0x86 JUMP JUMPDEST DUP1 PUSH4 0x3A20E9DF EQ PUSH2 0x8A JUMPI DUP1 PUSH4 0x58FB4AD7 EQ PUSH2 0xBF JUMPI DUP1 PUSH4 0x5A94FECA EQ PUSH2 0xF3 JUMPI DUP1 PUSH4 0x663C01AF EQ PUSH2 0x123 JUMPI JUMPDEST PUSH0 DUP1 REVERT JUMPDEST PUSH2 0xA4 PUSH1 0x4 DUP1 CALLDATASIZE SUB DUP2 ADD SWAP1 PUSH2 0x9F SWAP2 SWAP1 PUSH2 0x16D2 JUMP JUMPDEST PUSH2 0x1C5 JUMP JUMPDEST PUSH1 0x40 MLOAD PUSH2 0xB6 SWAP7 SWAP6 SWAP5 SWAP4 SWAP3 SWAP2 SWAP1 PUSH2 0x1837 JUMP JUMPDEST PUSH1 0x40 MLOAD DUP1 SWAP2 SUB SWAP1 RETURN JUMPDEST PUSH2 0xD9 PUSH1 0x4 DUP1 CALLDATASIZE SUB DUP2 ADD SWAP1 PUSH2 0xD4 SWAP2 SWAP1 PUSH2 0x16D2 JUMP JUMPDEST PUSH2 0x4F0 JUMP JUMPDEST PUSH1 0x40 MLOAD PUSH2 0xEA SWAP6 SWAP5 SWAP4 SWAP3 SWAP2 SWAP1 PUSH2 0x18BA JUMP JUMPDEST PUSH1 0x40 MLOAD DUP1 SWAP2 SUB SWAP1 RETURN JUMPDEST PUSH2 0x10D PUSH1 0x4 DUP1 CALLDATASIZE SUB DUP2 ADD SWAP1 PUSH2 0x108 SWAP2 SWAP1 PUSH2 0x193C JUMP JUMPDEST PUSH2 0x73F JUMP JUMPDEST PUSH1 0x40 MLOAD PUSH2 0x11A SWAP2 SWAP1 PUSH2 0x1B2C JUMP JUMPDEST PUSH1 0x40 MLOAD DUP1 SWAP2 SUB SWAP1 RETURN JUMPDEST PUSH2 0x12B PUSH2 0xAD6 JUMP JUMPDEST PUSH1 0x40 MLOAD PUSH2 0x138 SWAP2 SWAP1 PUSH2 0x1BF4 JUMP JUMPDEST PUSH1 0x40 MLOAD DUP1 SWAP2 SUB SWAP1 RETURN JUMPDEST PUSH2 0x15B PUSH1 0x4 DUP1 CALLDATASIZE SUB DUP2 ADD SWAP1 PUSH2 0x156 SWAP2 SWAP1 PUSH2 0x1D40 JUMP JUMPDEST PUSH2 0xB2C JUMP JUMPDEST STOP JUMPDEST PUSH2 0x177 PUSH1 0x4 DUP1 CALLDATASIZE SUB DUP2 ADD SWAP1 PUSH2 0x172 SWAP2 SWAP1 PUSH2 0x1DBD JUMP JUMPDEST PUSH2 0xE0C JUMP JUMPDEST STOP JUMPDEST PUSH2 0x193 PUSH1 0x4 DUP1 CALLDATASIZE SUB DUP2 ADD SWAP1 PUSH2 0x18E SWAP2 SWAP1 PUSH2 0x16D2 JUMP JUMPDEST PUSH2 0xEE5 JUMP JUMPDEST PUSH1 0x40 MLOAD PUSH2 0x1A0 SWAP2 SWAP1 PUSH2 0x1B2C JUMP JUMPDEST PUSH1 0x40 MLOAD DUP1 SWAP2 SUB SWAP1 RETURN JUMPDEST PUSH2 0x1C3 PUSH1 0x4 DUP1 CALLDATASIZE SUB DUP2 ADD SWAP1 PUSH2 0x1BE SWAP2 SWAP1 PUSH2 0x1DFB JUMP JUMPDEST PUSH2 0x10E7 JUMP JUMPDEST STOP JUMPDEST PUSH1 0x60 DUP1 PUSH1 0x60 PUSH0 DUP1 PUSH0 DUP7 PUSH0 DUP1 DUP3 DUP2 MSTORE PUSH1 0x20 ADD SWAP1 DUP2 MSTORE PUSH1 0x20 ADD PUSH0 KECCAK256 PUSH1 0x5 ADD PUSH1 0x15 SWAP1 SLOAD SWAP1 PUSH2 0x100 EXP SWAP1 DIV PUSH1 0xFF AND PUSH2 0x22E JUMPI PUSH1 0x40 MLOAD PUSH32 0x8C379A000000000000000000000000000000000000000000000000000000000 DUP2 MSTORE PUSH1 0x4 ADD PUSH2 0x225 SWAP1 PUSH2 0x1F19 JUMP JUMPDEST PUSH1 0x40 MLOAD DUP1 SWAP2 SUB SWAP1 REVERT JUMPDEST PUSH0 DUP1 PUSH0 DUP11 DUP2 MSTORE PUSH1 0x20 ADD SWAP1 DUP2 MSTORE PUSH1 0x20 ADD PUSH0 KECCAK256 PUSH1 0x40 MLOAD DUP1 PUSH2 0x100 ADD PUSH1 0x40 MSTORE SWAP1 DUP2 PUSH0 DUP3 ADD SLOAD DUP2 MSTORE PUSH1 0x20 ADD PUSH1 0x1 DUP3 ADD DUP1 SLOAD PUSH2 0x264 SWAP1 PUSH2 0x1F64 JUMP JUMPDEST DUP1 PUSH1 0x1F ADD PUSH1 0x20 DUP1 SWAP2 DIV MUL PUSH1 0x20 ADD PUSH1 0x40 MLOAD SWAP1 DUP2 ADD PUSH1 0x40 MSTORE DUP1 SWAP3 SWAP2 SWAP1 DUP2 DUP2 MSTORE PUSH1 0x20 ADD DUP3 DUP1 SLOAD PUSH2 0x290 SWAP1 PUSH2 0x1F64 JUMP JUMPDEST DUP1 ISZERO PUSH2 0x2DB JUMPI DUP1 PUSH1 0x1F LT PUSH2 0x2B2 JUMPI PUSH2 0x100 DUP1 DUP4 SLOAD DIV MUL DUP4 MSTORE SWAP2 PUSH1 0x20 ADD SWAP2 PUSH2 0x2DB JUMP JUMPDEST DUP3 ADD SWAP2 SWAP1 PUSH0 MSTORE PUSH1 0x20 PUSH0 KECCAK256 SWAP1 JUMPDEST DUP2 SLOAD DUP2 MSTORE SWAP1 PUSH1 0x1 ADD SWAP1 PUSH1 0x20 ADD DUP1 DUP4 GT PUSH2 0x2BE JUMPI DUP3 SWAP1 SUB PUSH1 0x1F AND DUP3 ADD SWAP2 JUMPDEST POP POP POP POP POP DUP2 MSTORE PUSH1 0x20 ADD PUSH1 0x2 DUP3 ADD DUP1 SLOAD PUSH2 0x2F4 SWAP1 PUSH2 0x1F64 JUMP JUMPDEST DUP1 PUSH1 0x1F ADD PUSH1 0x20 DUP1 SWAP2 DIV MUL PUSH1 0x20 ADD PUSH1 0x40 MLOAD SWAP1 DUP2 ADD PUSH1 0x40 MSTORE DUP1 SWAP3 SWAP2 SWAP1 DUP2 DUP2 MSTORE PUSH1 0x20 ADD DUP3 DUP1 SLOAD PUSH2 0x320 SWAP1 PUSH2 0x1F64 JUMP JUMPDEST DUP1 ISZERO PUSH2 0x36B JUMPI DUP1 PUSH1 0x1F LT PUSH2 0x342 JUMPI PUSH2 0x100 DUP1 DUP4 SLOAD DIV MUL DUP4 MSTORE SWAP2 PUSH1 0x20 ADD SWAP2 PUSH2 0x36B JUMP JUMPDEST DUP3 ADD SWAP2 SWAP1 PUSH0 MSTORE PUSH1 0x20 PUSH0 KECCAK256 SWAP1 JUMPDEST DUP2 SLOAD DUP2 MSTORE SWAP1 PUSH1 0x1 ADD SWAP1 PUSH1 0x20 ADD DUP1 DUP4 GT PUSH2 0x34E JUMPI DUP3 SWAP1 SUB PUSH1 0x1F AND DUP3 ADD SWAP2 JUMPDEST POP POP POP POP POP DUP2 MSTORE PUSH1 0x20 ADD PUSH1 0x3 DUP3 ADD DUP1 SLOAD PUSH2 0x384 SWAP1 PUSH2 0x1F64 JUMP JUMPDEST DUP1 PUSH1 0x1F ADD PUSH1 0x20 DUP1 SWAP2 DIV MUL PUSH1 0x20 ADD PUSH1 0x40 MLOAD SWAP1 DUP2 ADD PUSH1 0x40 MSTORE DUP1 SWAP3 SWAP2 SWAP1 DUP2 DUP2 MSTORE PUSH1 0x20 ADD DUP3 DUP1 SLOAD PUSH2 0x3B0 SWAP1 PUSH2 0x1F64 JUMP JUMPDEST DUP1 ISZERO PUSH2 0x3FB JUMPI DUP1 PUSH1 0x1F LT PUSH2 0x3D2 JUMPI PUSH2 0x100 DUP1 DUP4 SLOAD DIV MUL DUP4 MSTORE SWAP2 PUSH1 0x20 ADD SWAP2 PUSH2 0x3FB JUMP JUMPDEST DUP3 ADD SWAP2 SWAP1 PUSH0 MSTORE PUSH1 0x20 PUSH0 KECCAK256 SWAP1 JUMPDEST DUP2 SLOAD DUP2 MSTORE SWAP1 PUSH1 0x1 ADD SWAP1 PUSH1 0x20 ADD DUP1 DUP4 GT PUSH2 0x3DE JUMPI DUP3 SWAP1 SUB PUSH1 0x1F AND DUP3 ADD SWAP2 JUMPDEST POP POP POP POP POP DUP2 MSTORE PUSH1 0x20 ADD PUSH1 0x4 DUP3 ADD SLOAD DUP2 MSTORE PUSH1 0x20 ADD PUSH1 0x5 DUP3 ADD PUSH0 SWAP1 SLOAD SWAP1 PUSH2 0x100 EXP SWAP1 DIV PUSH20 0xFFFFFFFFFFFFFFFFFFFFFFFFFFFFFFFFFFFFFFFF AND PUSH20 0xFFFFFFFFFFFFFFFFFFFFFFFFFFFFFFFFFFFFFFFF AND PUSH20 0xFFFFFFFFFFFFFFFFFFFFFFFFFFFFFFFFFFFFFFFF AND DUP2 MSTORE PUSH1 0x20 ADD PUSH1 0x5 DUP3 ADD PUSH1 0x14 SWAP1 SLOAD SWAP1 PUSH2 0x100 EXP SWAP1 DIV PUSH1 0xFF AND PUSH1 0x1 DUP2 GT ISZERO PUSH2 0x488 JUMPI PUSH2 0x487 PUSH2 0x17C4 JUMP JUMPDEST JUMPDEST PUSH1 0x1 DUP2 GT ISZERO PUSH2 0x49A JUMPI PUSH2 0x499 PUSH2 0x17C4 JUMP JUMPDEST JUMPDEST DUP2 MSTORE PUSH1 0x20 ADD PUSH1 0x5 DUP3 ADD PUSH1 0x15 SWAP1 SLOAD SWAP1 PUSH2 0x100 EXP SWAP1 DIV PUSH1 0xFF AND ISZERO ISZERO ISZERO ISZERO DUP2 MSTORE POP POP SWAP1 POP DUP1 PUSH1 0x20 ADD MLOAD DUP2 PUSH1 0x40 ADD MLOAD DUP3 PUSH1 0x60 ADD MLOAD DUP4 PUSH1 0x80 ADD MLOAD DUP5 PUSH1 0xA0 ADD MLOAD DUP6 PUSH1 0xC0 ADD MLOAD SWAP8 POP SWAP8 POP SWAP8 POP SWAP8 POP SWAP8 POP SWAP8 POP POP POP SWAP2 SWAP4 SWAP6 POP SWAP2 SWAP4 SWAP6 JUMP JUMPDEST PUSH0 PUSH1 0x60 PUSH0 DUP1 PUSH0 DUP1 PUSH1 0x2 PUSH0 DUP9 DUP2 MSTORE PUSH1 0x20 ADD SWAP1 DUP2 MSTORE PUSH1 0x20 ADD PUSH0 KECCAK256 SLOAD SWAP1 POP PUSH0 DUP1 SHL DUP2 SUB PUSH2 0x54F JUMPI PUSH1 0x40 MLOAD PUSH32 0x8C379A000000000000000000000000000000000000000000000000000000000 DUP2 MSTORE PUSH1 0x4 ADD PUSH2 0x546 SWAP1 PUSH2 0x1FDE JUMP JUMPDEST PUSH1 0x40 MLOAD DUP1 SWAP2 SUB SWAP1 REVERT JUMPDEST PUSH0 PUSH1 0x1 PUSH0 DUP4 DUP2 MSTORE PUSH1 0x20 ADD SWAP1 DUP2 MSTORE PUSH1 0x20 ADD PUSH0 KECCAK256 SWAP1 POP PUSH0 JUMPDEST DUP2 DUP1 SLOAD SWAP1 POP DUP2 LT ISZERO PUSH2 0x6FA JUMPI DUP9 DUP3 DUP3 DUP2 SLOAD DUP2 LT PUSH2 0x585 JUMPI PUSH2 0x584 PUSH2 0x1FFC JUMP JUMPDEST JUMPDEST SWAP1 PUSH0 MSTORE PUSH1 0x20 PUSH0 KECCAK256 SWAP1 PUSH1 0x4 MUL ADD PUSH0 ADD SLOAD SUB PUSH2 0x6ED JUMPI DUP3 DUP3 DUP3 DUP2 SLOAD DUP2 LT PUSH2 0x5AD JUMPI PUSH2 0x5AC PUSH2 0x1FFC JUMP JUMPDEST JUMPDEST SWAP1 PUSH0 MSTORE PUSH1 0x20 PUSH0 KECCAK256 SWAP1 PUSH1 0x4 MUL ADD PUSH1 0x1 ADD DUP4 DUP4 DUP2 SLOAD DUP2 LT PUSH2 0x5CF JUMPI PUSH2 0x5CE PUSH2 0x1FFC JUMP JUMPDEST JUMPDEST SWAP1 PUSH0 MSTORE PUSH1 0x20 PUSH0 KECCAK256 SWAP1 PUSH1 0x4 MUL ADD PUSH1 0x2 ADD SLOAD DUP5 DUP5 DUP2 SLOAD DUP2 LT PUSH2 0x5F2 JUMPI PUSH2 0x5F1 PUSH2 0x1FFC JUMP JUMPDEST JUMPDEST SWAP1 PUSH0 MSTORE PUSH1 0x20 PUSH0 KECCAK256 SWAP1 PUSH1 0x4 MUL ADD PUSH1 0x3 ADD PUSH0 SWAP1 SLOAD SWAP1 PUSH2 0x100 EXP SWAP1 DIV PUSH20 0xFFFFFFFFFFFFFFFFFFFFFFFFFFFFFFFFFFFFFFFF AND DUP6 DUP6 DUP2 SLOAD DUP2 LT PUSH2 0x634 JUMPI PUSH2 0x633 PUSH2 0x1FFC JUMP JUMPDEST JUMPDEST SWAP1 PUSH0 MSTORE PUSH1 0x20 PUSH0 KECCAK256 SWAP1 PUSH1 0x4 MUL ADD PUSH1 0x3 ADD PUSH1 0x14 SWAP1 SLOAD SWAP1 PUSH2 0x100 EXP SWAP1 DIV PUSH1 0xFF AND DUP4 DUP1 SLOAD PUSH2 0x65D SWAP1 PUSH2 0x1F64 JUMP JUMPDEST DUP1 PUSH1 0x1F ADD PUSH1 0x20 DUP1 SWAP2 DIV MUL PUSH1 0x20 ADD PUSH1 0x40 MLOAD SWAP1 DUP2 ADD PUSH1 0x40 MSTORE DUP1 SWAP3 SWAP2 SWAP1 DUP2 DUP2 MSTORE PUSH1 0x20 ADD DUP3 DUP1 SLOAD PUSH2 0x689 SWAP1 PUSH2 0x1F64 JUMP JUMPDEST DUP1 ISZERO PUSH2 0x6D4 JUMPI DUP1 PUSH1 0x1F LT PUSH2 0x6AB JUMPI PUSH2 0x100 DUP1 DUP4 SLOAD DIV MUL DUP4 MSTORE SWAP2 PUSH1 0x20 ADD SWAP2 PUSH2 0x6D4 JUMP JUMPDEST DUP3 ADD SWAP2 SWAP1 PUSH0 MSTORE PUSH1 0x20 PUSH0 KECCAK256 SWAP1 JUMPDEST DUP2 SLOAD DUP2 MSTORE SWAP1 PUSH1 0x1 ADD SWAP1 PUSH1 0x20 ADD DUP1 DUP4 GT PUSH2 0x6B7 JUMPI DUP3 SWAP1 SUB PUSH1 0x1F AND DUP3 ADD SWAP2 JUMPDEST POP POP POP POP POP SWAP4 POP SWAP8 POP SWAP8 POP SWAP8 POP SWAP8 POP SWAP8 POP POP POP POP PUSH2 0x736 JUMP JUMPDEST DUP1 DUP1 PUSH1 0x1 ADD SWAP2 POP POP PUSH2 0x565 JUMP JUMPDEST POP PUSH1 0x40 MLOAD PUSH32 0x8C379A000000000000000000000000000000000000000000000000000000000 DUP2 MSTORE PUSH1 0x4 ADD PUSH2 0x72D SWAP1 PUSH2 0x1FDE JUMP JUMPDEST PUSH1 0x40 MLOAD DUP1 SWAP2 SUB SWAP1 REVERT JUMPDEST SWAP2 SWAP4 SWAP6 SWAP1 SWAP3 SWAP5 POP JUMP JUMPDEST PUSH1 0x60 DUP3 PUSH0 DUP1 DUP3 DUP2 MSTORE PUSH1 0x20 ADD SWAP1 DUP2 MSTORE PUSH1 0x20 ADD PUSH0 KECCAK256 PUSH1 0x5 ADD PUSH1 0x15 SWAP1 SLOAD SWAP1 PUSH2 0x100 EXP SWAP1 DIV PUSH1 0xFF AND PUSH2 0x7A2 JUMPI PUSH1 0x40 MLOAD PUSH32 0x8C379A000000000000000000000000000000000000000000000000000000000 DUP2 MSTORE PUSH1 0x4 ADD PUSH2 0x799 SWAP1 PUSH2 0x1F19 JUMP JUMPDEST PUSH1 0x40 MLOAD DUP1 SWAP2 SUB SWAP1 REVERT JUMPDEST PUSH0 PUSH1 0x1 PUSH0 DUP7 DUP2 MSTORE PUSH1 0x20 ADD SWAP1 DUP2 MSTORE PUSH1 0x20 ADD PUSH0 KECCAK256 SWAP1 POP PUSH0 DUP1 JUMPDEST DUP3 DUP1 SLOAD SWAP1 POP DUP2 LT ISZERO PUSH2 0x855 JUMPI DUP6 PUSH20 0xFFFFFFFFFFFFFFFFFFFFFFFFFFFFFFFFFFFFFFFF AND DUP4 DUP3 DUP2 SLOAD DUP2 LT PUSH2 0x7EF JUMPI PUSH2 0x7EE PUSH2 0x1FFC JUMP JUMPDEST JUMPDEST SWAP1 PUSH0 MSTORE PUSH1 0x20 PUSH0 KECCAK256 SWAP1 PUSH1 0x4 MUL ADD PUSH1 0x3 ADD PUSH0 SWAP1 SLOAD SWAP1 PUSH2 0x100 EXP SWAP1 DIV PUSH20 0xFFFFFFFFFFFFFFFFFFFFFFFFFFFFFFFFFFFFFFFF AND PUSH20 0xFFFFFFFFFFFFFFFFFFFFFFFFFFFFFFFFFFFFFFFF AND SUB PUSH2 0x848 JUMPI DUP2 DUP1 PUSH2 0x844 SWAP1 PUSH2 0x2056 JUMP JUMPDEST SWAP3 POP POP JUMPDEST DUP1 DUP1 PUSH1 0x1 ADD SWAP2 POP POP PUSH2 0x7B9 JUMP JUMPDEST POP PUSH0 DUP2 PUSH8 0xFFFFFFFFFFFFFFFF DUP2 GT ISZERO PUSH2 0x871 JUMPI PUSH2 0x870 PUSH2 0x1C1C JUMP JUMPDEST JUMPDEST PUSH1 0x40 MLOAD SWAP1 DUP1 DUP3 MSTORE DUP1 PUSH1 0x20 MUL PUSH1 0x20 ADD DUP3 ADD PUSH1 0x40 MSTORE DUP1 ISZERO PUSH2 0x8AA JUMPI DUP2 PUSH1 0x20 ADD JUMPDEST PUSH2 0x897 PUSH2 0x1638 JUMP JUMPDEST DUP2 MSTORE PUSH1 0x20 ADD SWAP1 PUSH1 0x1 SWAP1 SUB SWAP1 DUP2 PUSH2 0x88F JUMPI SWAP1 POP JUMPDEST POP SWAP1 POP PUSH0 DUP1 JUMPDEST DUP5 DUP1 SLOAD SWAP1 POP DUP2 LT ISZERO PUSH2 0xAC7 JUMPI DUP8 PUSH20 0xFFFFFFFFFFFFFFFFFFFFFFFFFFFFFFFFFFFFFFFF AND DUP6 DUP3 DUP2 SLOAD DUP2 LT PUSH2 0x8E6 JUMPI PUSH2 0x8E5 PUSH2 0x1FFC JUMP JUMPDEST JUMPDEST SWAP1 PUSH0 MSTORE PUSH1 0x20 PUSH0 KECCAK256 SWAP1 PUSH1 0x4 MUL ADD PUSH1 0x3 ADD PUSH0 SWAP1 SLOAD SWAP1 PUSH2 0x100 EXP SWAP1 DIV PUSH20 0xFFFFFFFFFFFFFFFFFFFFFFFFFFFFFFFFFFFFFFFF AND PUSH20 0xFFFFFFFFFFFFFFFFFFFFFFFFFFFFFFFFFFFFFFFF AND SUB PUSH2 0xABA JUMPI DUP5 DUP2 DUP2 SLOAD DUP2 LT PUSH2 0x943 JUMPI PUSH2 0x942 PUSH2 0x1FFC JUMP JUMPDEST JUMPDEST SWAP1 PUSH0 MSTORE PUSH1 0x20 PUSH0 KECCAK256 SWAP1 PUSH1 0x4 MUL ADD PUSH1 0x40 MLOAD DUP1 PUSH1 0xA0 ADD PUSH1 0x40 MSTORE SWAP1 DUP2 PUSH0 DUP3 ADD SLOAD DUP2 MSTORE PUSH1 0x20 ADD PUSH1 0x1 DUP3 ADD DUP1 SLOAD PUSH2 0x973 SWAP1 PUSH2 0x1F64 JUMP JUMPDEST DUP1 PUSH1 0x1F ADD PUSH1 0x20 DUP1 SWAP2 DIV MUL PUSH1 0x20 ADD PUSH1 0x40 MLOAD SWAP1 DUP2 ADD PUSH1 0x40 MSTORE DUP1 SWAP3 SWAP2 SWAP1 DUP2 DUP2 MSTORE PUSH1 0x20 ADD DUP3 DUP1 SLOAD PUSH2 0x99F SWAP1 PUSH2 0x1F64 JUMP JUMPDEST DUP1 ISZERO PUSH2 0x9EA JUMPI DUP1 PUSH1 0x1F LT PUSH2 0x9C1 JUMPI PUSH2 0x100 DUP1 DUP4 SLOAD DIV MUL DUP4 MSTORE SWAP2 PUSH1 0x20 ADD SWAP2 PUSH2 0x9EA JUMP JUMPDEST DUP3 ADD SWAP2 SWAP1 PUSH0 MSTORE PUSH1 0x20 PUSH0 KECCAK256 SWAP1 JUMPDEST DUP2 SLOAD DUP2 MSTORE SWAP1 PUSH1 0x1 ADD SWAP1 PUSH1 0x20 ADD DUP1 DUP4 GT PUSH2 0x9CD JUMPI DUP3 SWAP1 SUB PUSH1 0x1F AND DUP3 ADD SWAP2 JUMPDEST POP POP POP POP POP DUP2 MSTORE PUSH1 0x20 ADD PUSH1 0x2 DUP3 ADD SLOAD DUP2 MSTORE PUSH1 0x20 ADD PUSH1 0x3 DUP3 ADD PUSH0 SWAP1 SLOAD SWAP1 PUSH2 0x100 EXP SWAP1 DIV PUSH20 0xFFFFFFFFFFFFFFFFFFFFFFFFFFFFFFFFFFFFFFFF AND PUSH20 0xFFFFFFFFFFFFFFFFFFFFFFFFFFFFFFFFFFFFFFFF AND PUSH20 0xFFFFFFFFFFFFFFFFFFFFFFFFFFFFFFFFFFFFFFFF AND DUP2 MSTORE PUSH1 0x20 ADD PUSH1 0x3 DUP3 ADD PUSH1 0x14 SWAP1 SLOAD SWAP1 PUSH2 0x100 EXP SWAP1 DIV PUSH1 0xFF AND PUSH1 0x1 DUP2 GT ISZERO PUSH2 0xA77 JUMPI PUSH2 0xA76 PUSH2 0x17C4 JUMP JUMPDEST JUMPDEST PUSH1 0x1 DUP2 GT ISZERO PUSH2 0xA89 JUMPI PUSH2 0xA88 PUSH2 0x17C4 JUMP JUMPDEST JUMPDEST DUP2 MSTORE POP POP DUP4 DUP4 DUP2 MLOAD DUP2 LT PUSH2 0xAA0 JUMPI PUSH2 0xA9F PUSH2 0x1FFC JUMP JUMPDEST JUMPDEST PUSH1 0x20 MUL PUSH1 0x20 ADD ADD DUP2 SWAP1 MSTORE POP DUP2 DUP1 PUSH2 0xAB6 SWAP1 PUSH2 0x2056 JUMP JUMPDEST SWAP3 POP POP JUMPDEST DUP1 DUP1 PUSH1 0x1 ADD SWAP2 POP POP PUSH2 0x8B0 JUMP JUMPDEST POP DUP2 SWAP6 POP POP POP POP POP POP SWAP3 SWAP2 POP POP JUMP JUMPDEST PUSH1 0x60 PUSH1 0x3 DUP1 SLOAD DUP1 PUSH1 0x20 MUL PUSH1 0x20 ADD PUSH1 0x40 MLOAD SWAP1 DUP2 ADD PUSH1 0x40 MSTORE DUP1 SWAP3 SWAP2 SWAP1 DUP2 DUP2 MSTORE PUSH1 0x20 ADD DUP3 DUP1 SLOAD DUP1 ISZERO PUSH2 0xB22 JUMPI PUSH1 0x20 MUL DUP3 ADD SWAP2 SWAP1 PUSH0 MSTORE PUSH1 0x20 PUSH0 KECCAK256 SWAP1 JUMPDEST DUP2 SLOAD DUP2 MSTORE PUSH1 0x20 ADD SWAP1 PUSH1 0x1 ADD SWAP1 DUP1 DUP4 GT PUSH2 0xB0E JUMPI JUMPDEST POP POP POP POP POP SWAP1 POP SWAP1 JUMP JUMPDEST DUP2 PUSH0 DUP1 DUP3 DUP2 MSTORE PUSH1 0x20 ADD SWAP1 DUP2 MSTORE PUSH1 0x20 ADD PUSH0 KECCAK256 PUSH1 0x5 ADD PUSH1 0x15 SWAP1 SLOAD SWAP1 PUSH2 0x100 EXP SWAP1 DIV PUSH1 0xFF AND PUSH2 0xB8D JUMPI PUSH1 0x40 MLOAD PUSH32 0x8C379A000000000000000000000000000000000000000000000000000000000 DUP2 MSTORE PUSH1 0x4 ADD PUSH2 0xB84 SWAP1 PUSH2 0x1F19 JUMP JUMPDEST PUSH1 0x40 MLOAD DUP1 SWAP2 SUB SWAP1 REVERT JUMPDEST DUP3 PUSH0 PUSH1 0x1 DUP2 GT ISZERO PUSH2 0xBA1 JUMPI PUSH2 0xBA0 PUSH2 0x17C4 JUMP JUMPDEST JUMPDEST PUSH0 DUP1 DUP4 DUP2 MSTORE PUSH1 0x20 ADD SWAP1 DUP2 MSTORE PUSH1 0x20 ADD PUSH0 KECCAK256 PUSH1 0x5 ADD PUSH1 0x14 SWAP1 SLOAD SWAP1 PUSH2 0x100 EXP SWAP1 DIV PUSH1 0xFF AND PUSH1 0x1 DUP2 GT ISZERO PUSH2 0xBD4 JUMPI PUSH2 0xBD3 PUSH2 0x17C4 JUMP JUMPDEST JUMPDEST EQ PUSH2 0xC14 JUMPI PUSH1 0x40 MLOAD PUSH32 0x8C379A000000000000000000000000000000000000000000000000000000000 DUP2 MSTORE PUSH1 0x4 ADD PUSH2 0xC0B SWAP1 PUSH2 0x20E7 JUMP JUMPDEST PUSH1 0x40 MLOAD DUP1 SWAP2 SUB SWAP1 REVERT JUMPDEST PUSH0 DUP4 MLOAD GT PUSH2 0xC57 JUMPI PUSH1 0x40 MLOAD PUSH32 0x8C379A000000000000000000000000000000000000000000000000000000000 DUP2 MSTORE PUSH1 0x4 ADD PUSH2 0xC4E SWAP1 PUSH2 0x2175 JUMP JUMPDEST PUSH1 0x40 MLOAD DUP1 SWAP2 SUB SWAP1 REVERT JUMPDEST PUSH0 DUP5 TIMESTAMP CALLER DUP7 PUSH1 0x40 MLOAD PUSH1 0x20 ADD PUSH2 0xC6F SWAP5 SWAP4 SWAP3 SWAP2 SWAP1 PUSH2 0x2252 JUMP JUMPDEST PUSH1 0x40 MLOAD PUSH1 0x20 DUP2 DUP4 SUB SUB DUP2 MSTORE SWAP1 PUSH1 0x40 MSTORE DUP1 MLOAD SWAP1 PUSH1 0x20 ADD KECCAK256 SWAP1 POP PUSH0 PUSH1 0x40 MLOAD DUP1 PUSH1 0xA0 ADD PUSH1 0x40 MSTORE DUP1 DUP4 DUP2 MSTORE PUSH1 0x20 ADD DUP7 DUP2 MSTORE PUSH1 0x20 ADD TIMESTAMP DUP2 MSTORE PUSH1 0x20 ADD CALLER PUSH20 0xFFFFFFFFFFFFFFFFFFFFFFFFFFFFFFFFFFFFFFFF AND DUP2 MSTORE PUSH1 0x20 ADD PUSH0 PUSH1 0x1 DUP2 GT ISZERO PUSH2 0xCD4 JUMPI PUSH2 0xCD3 PUSH2 0x17C4 JUMP JUMPDEST JUMPDEST DUP2 MSTORE POP SWAP1 POP PUSH1 0x1 PUSH0 DUP8 DUP2 MSTORE PUSH1 0x20 ADD SWAP1 DUP2 MSTORE PUSH1 0x20 ADD PUSH0 KECCAK256 DUP2 SWAP1 DUP1 PUSH1 0x1 DUP2 SLOAD ADD DUP1 DUP3 SSTORE DUP1 SWAP2 POP POP PUSH1 0x1 SWAP1 SUB SWAP1 PUSH0 MSTORE PUSH1 0x20 PUSH0 KECCAK256 SWAP1 PUSH1 0x4 MUL ADD PUSH0 SWAP1 SWAP2 SWAP1 SWAP2 SWAP1 SWAP2 POP PUSH0 DUP3 ADD MLOAD DUP2 PUSH0 ADD SSTORE PUSH1 0x20 DUP3 ADD MLOAD DUP2 PUSH1 0x1 ADD SWAP1 DUP2 PUSH2 0xD2E SWAP2 SWAP1 PUSH2 0x2438 JUMP JUMPDEST POP PUSH1 0x40 DUP3 ADD MLOAD DUP2 PUSH1 0x2 ADD SSTORE PUSH1 0x60 DUP3 ADD MLOAD DUP2 PUSH1 0x3 ADD PUSH0 PUSH2 0x100 EXP DUP2 SLOAD DUP2 PUSH20 0xFFFFFFFFFFFFFFFFFFFFFFFFFFFFFFFFFFFFFFFF MUL NOT AND SWAP1 DUP4 PUSH20 0xFFFFFFFFFFFFFFFFFFFFFFFFFFFFFFFFFFFFFFFF AND MUL OR SWAP1 SSTORE POP PUSH1 0x80 DUP3 ADD MLOAD DUP2 PUSH1 0x3 ADD PUSH1 0x14 PUSH2 0x100 EXP DUP2 SLOAD DUP2 PUSH1 0xFF MUL NOT AND SWAP1 DUP4 PUSH1 0x1 DUP2 GT ISZERO PUSH2 0xDAA JUMPI PUSH2 0xDA9 PUSH2 0x17C4 JUMP JUMPDEST JUMPDEST MUL OR SWAP1 SSTORE POP POP POP DUP6 PUSH1 0x2 PUSH0 DUP5 DUP2 MSTORE PUSH1 0x20 ADD SWAP1 DUP2 MSTORE PUSH1 0x20 ADD PUSH0 KECCAK256 DUP2 SWAP1 SSTORE POP DUP2 DUP7 PUSH32 0xFC7F09D226B2E852BD3F04F352ADAB8A4E00B078D16E635F5A5102E2AC721FC8 DUP8 TIMESTAMP CALLER PUSH1 0x40 MLOAD PUSH2 0xDFC SWAP4 SWAP3 SWAP2 SWAP1 PUSH2 0x2507 JUMP JUMPDEST PUSH1 0x40 MLOAD DUP1 SWAP2 SUB SWAP1 LOG3 POP POP POP POP POP POP JUMP JUMPDEST DUP2 PUSH0 DUP1 DUP3 DUP2 MSTORE PUSH1 0x20 ADD SWAP1 DUP2 MSTORE PUSH1 0x20 ADD PUSH0 KECCAK256 PUSH1 0x5 ADD PUSH1 0x15 SWAP1 SLOAD SWAP1 PUSH2 0x100 EXP SWAP1 DIV PUSH1 0xFF AND PUSH2 0xE6D JUMPI PUSH1 0x40 MLOAD PUSH32 0x8C379A000000000000000000000000000000000000000000000000000000000 DUP2 MSTORE PUSH1 0x4 ADD PUSH2 0xE64 SWAP1 PUSH2 0x1F19 JUMP JUMPDEST PUSH1 0x40 MLOAD DUP1 SWAP2 SUB SWAP1 REVERT JUMPDEST DUP2 PUSH0 DUP1 DUP6 DUP2 MSTORE PUSH1 0x20 ADD SWAP1 DUP2 MSTORE PUSH1 0x20 ADD PUSH0 KECCAK256 PUSH1 0x5 ADD PUSH1 0x14 PUSH2 0x100 EXP DUP2 SLOAD DUP2 PUSH1 0xFF MUL NOT AND SWAP1 DUP4 PUSH1 0x1 DUP2 GT ISZERO PUSH2 0xEA3 JUMPI PUSH2 0xEA2 PUSH2 0x17C4 JUMP JUMPDEST JUMPDEST MUL OR SWAP1 SSTORE POP DUP3 PUSH32 0x6B42974450F95B3D498669E78C1D60139454F4E6C64187CFB138C2D7DBF2AA16 DUP4 PUSH1 0x40 MLOAD PUSH2 0xED8 SWAP2 SWAP1 PUSH2 0x2543 JUMP JUMPDEST PUSH1 0x40 MLOAD DUP1 SWAP2 SUB SWAP1 LOG2 POP POP POP JUMP JUMPDEST PUSH1 0x60 DUP2 PUSH0 DUP1 DUP3 DUP2 MSTORE PUSH1 0x20 ADD SWAP1 DUP2 MSTORE PUSH1 0x20 ADD PUSH0 KECCAK256 PUSH1 0x5 ADD PUSH1 0x15 SWAP1 SLOAD SWAP1 PUSH2 0x100 EXP SWAP1 DIV PUSH1 0xFF AND PUSH2 0xF48 JUMPI PUSH1 0x40 MLOAD PUSH32 0x8C379A000000000000000000000000000000000000000000000000000000000 DUP2 MSTORE PUSH1 0x4 ADD PUSH2 0xF3F SWAP1 PUSH2 0x1F19 JUMP JUMPDEST PUSH1 0x40 MLOAD DUP1 SWAP2 SUB SWAP1 REVERT JUMPDEST PUSH1 0x1 PUSH0 DUP5 DUP2 MSTORE PUSH1 0x20 ADD SWAP1 DUP2 MSTORE PUSH1 0x20 ADD PUSH0 KECCAK256 DUP1 SLOAD DUP1 PUSH1 0x20 MUL PUSH1 0x20 ADD PUSH1 0x40 MLOAD SWAP1 DUP2 ADD PUSH1 0x40 MSTORE DUP1 SWAP3 SWAP2 SWAP1 DUP2 DUP2 MSTORE PUSH1 0x20 ADD PUSH0 SWAP1 JUMPDEST DUP3 DUP3 LT ISZERO PUSH2 0x10DB JUMPI DUP4 DUP3 SWAP1 PUSH0 MSTORE PUSH1 0x20 PUSH0 KECCAK256 SWAP1 PUSH1 0x4 MUL ADD PUSH1 0x40 MLOAD DUP1 PUSH1 0xA0 ADD PUSH1 0x40 MSTORE SWAP1 DUP2 PUSH0 DUP3 ADD SLOAD DUP2 MSTORE PUSH1 0x20 ADD PUSH1 0x1 DUP3 ADD DUP1 SLOAD PUSH2 0xFB2 SWAP1 PUSH2 0x1F64 JUMP JUMPDEST DUP1 PUSH1 0x1F ADD PUSH1 0x20 DUP1 SWAP2 DIV MUL PUSH1 0x20 ADD PUSH1 0x40 MLOAD SWAP1 DUP2 ADD PUSH1 0x40 MSTORE DUP1 SWAP3 SWAP2 SWAP1 DUP2 DUP2 MSTORE PUSH1 0x20 ADD DUP3 DUP1 SLOAD PUSH2 0xFDE SWAP1 PUSH2 0x1F64 JUMP JUMPDEST DUP1 ISZERO PUSH2 0x1029 JUMPI DUP1 PUSH1 0x1F LT PUSH2 0x1000 JUMPI PUSH2 0x100 DUP1 DUP4 SLOAD DIV MUL DUP4 MSTORE SWAP2 PUSH1 0x20 ADD SWAP2 PUSH2 0x1029 JUMP JUMPDEST DUP3 ADD SWAP2 SWAP1 PUSH0 MSTORE PUSH1 0x20 PUSH0 KECCAK256 SWAP1 JUMPDEST DUP2 SLOAD DUP2 MSTORE SWAP1 PUSH1 0x1 ADD SWAP1 PUSH1 0x20 ADD DUP1 DUP4 GT PUSH2 0x100C JUMPI DUP3 SWAP1 SUB PUSH1 0x1F AND DUP3 ADD SWAP2 JUMPDEST POP POP POP POP POP DUP2 MSTORE PUSH1 0x20 ADD PUSH1 0x2 DUP3 ADD SLOAD DUP2 MSTORE PUSH1 0x20 ADD PUSH1 0x3 DUP3 ADD PUSH0 SWAP1 SLOAD SWAP1 PUSH2 0x100 EXP SWAP1 DIV PUSH20 0xFFFFFFFFFFFFFFFFFFFFFFFFFFFFFFFFFFFFFFFF AND PUSH20 0xFFFFFFFFFFFFFFFFFFFFFFFFFFFFFFFFFFFFFFFF AND PUSH20 0xFFFFFFFFFFFFFFFFFFFFFFFFFFFFFFFFFFFFFFFF AND DUP2 MSTORE PUSH1 0x20 ADD PUSH1 0x3 DUP3 ADD PUSH1 0x14 SWAP1 SLOAD SWAP1 PUSH2 0x100 EXP SWAP1 DIV PUSH1 0xFF AND PUSH1 0x1 DUP2 GT ISZERO PUSH2 0x10B6 JUMPI PUSH2 0x10B5 PUSH2 0x17C4 JUMP JUMPDEST JUMPDEST PUSH1 0x1 DUP2 GT ISZERO PUSH2 0x10C8 JUMPI PUSH2 0x10C7 PUSH2 0x17C4 JUMP JUMPDEST JUMPDEST DUP2 MSTORE POP POP DUP2 MSTORE PUSH1 0x20 ADD SWAP1 PUSH1 0x1 ADD SWAP1 PUSH2 0xF78 JUMP JUMPDEST POP POP POP POP SWAP2 POP POP SWAP2 SWAP1 POP JUMP JUMPDEST PUSH0 DUP5 MLOAD GT PUSH2 0x112A JUMPI PUSH1 0x40 MLOAD PUSH32 0x8C379A000000000000000000000000000000000000000000000000000000000 DUP2 MSTORE PUSH1 0x4 ADD PUSH2 0x1121 SWAP1 PUSH2 0x25A6 JUMP JUMPDEST PUSH1 0x40 MLOAD DUP1 SWAP2 SUB SWAP1 REVERT JUMPDEST PUSH0 DUP4 MLOAD GT PUSH2 0x116D JUMPI PUSH1 0x40 MLOAD PUSH32 0x8C379A000000000000000000000000000000000000000000000000000000000 DUP2 MSTORE PUSH1 0x4 ADD PUSH2 0x1164 SWAP1 PUSH2 0x260E JUMP JUMPDEST PUSH1 0x40 MLOAD DUP1 SWAP2 SUB SWAP1 REVERT JUMPDEST PUSH0 DUP3 MLOAD GT PUSH2 0x11B0 JUMPI PUSH1 0x40 MLOAD PUSH32 0x8C379A000000000000000000000000000000000000000000000000000000000 DUP2 MSTORE PUSH1 0x4 ADD PUSH2 0x11A7 SWAP1 PUSH2 0x2676 JUMP JUMPDEST PUSH1 0x40 MLOAD DUP1 SWAP2 SUB SWAP1 REVERT JUMPDEST PUSH0 DUP2 MLOAD GT PUSH2 0x11F3 JUMPI PUSH1 0x40 MLOAD PUSH32 0x8C379A000000000000000000000000000000000000000000000000000000000 DUP2 MSTORE PUSH1 0x4 ADD PUSH2 0x11EA SWAP1 PUSH2 0x26DE JUMP JUMPDEST PUSH1 0x40 MLOAD DUP1 SWAP2 SUB SWAP1 REVERT JUMPDEST PUSH0 PUSH2 0x11FD DUP6 PUSH2 0x1612 JUMP JUMPDEST SWAP1 POP PUSH0 DUP1 DUP3 DUP2 MSTORE PUSH1 0x20 ADD SWAP1 DUP2 MSTORE PUSH1 0x20 ADD PUSH0 KECCAK256 PUSH1 0x5 ADD PUSH1 0x15 SWAP1 SLOAD SWAP1 PUSH2 0x100 EXP SWAP1 DIV PUSH1 0xFF AND ISZERO PUSH2 0x1260 JUMPI PUSH1 0x40 MLOAD PUSH32 0x8C379A000000000000000000000000000000000000000000000000000000000 DUP2 MSTORE PUSH1 0x4 ADD PUSH2 0x1257 SWAP1 PUSH2 0x2746 JUMP JUMPDEST PUSH1 0x40 MLOAD DUP1 SWAP2 SUB SWAP1 REVERT JUMPDEST PUSH0 PUSH1 0x40 MLOAD DUP1 PUSH2 0x100 ADD PUSH1 0x40 MSTORE DUP1 DUP4 DUP2 MSTORE PUSH1 0x20 ADD DUP7 DUP2 MSTORE PUSH1 0x20 ADD DUP6 DUP2 MSTORE PUSH1 0x20 ADD DUP5 DUP2 MSTORE PUSH1 0x20 ADD TIMESTAMP DUP2 MSTORE PUSH1 0x20 ADD CALLER PUSH20 0xFFFFFFFFFFFFFFFFFFFFFFFFFFFFFFFFFFFFFFFF AND DUP2 MSTORE PUSH1 0x20 ADD PUSH0 PUSH1 0x1 DUP2 GT ISZERO PUSH2 0x12BA JUMPI PUSH2 0x12B9 PUSH2 0x17C4 JUMP JUMPDEST JUMPDEST DUP2 MSTORE PUSH1 0x20 ADD PUSH1 0x1 ISZERO ISZERO DUP2 MSTORE POP SWAP1 POP DUP1 PUSH0 DUP1 DUP5 DUP2 MSTORE PUSH1 0x20 ADD SWAP1 DUP2 MSTORE PUSH1 0x20 ADD PUSH0 KECCAK256 PUSH0 DUP3 ADD MLOAD DUP2 PUSH0 ADD SSTORE PUSH1 0x20 DUP3 ADD MLOAD DUP2 PUSH1 0x1 ADD SWAP1 DUP2 PUSH2 0x12F6 SWAP2 SWAP1 PUSH2 0x2438 JUMP JUMPDEST POP PUSH1 0x40 DUP3 ADD MLOAD DUP2 PUSH1 0x2 ADD SWAP1 DUP2 PUSH2 0x130C SWAP2 SWAP1 PUSH2 0x2438 JUMP JUMPDEST POP PUSH1 0x60 DUP3 ADD MLOAD DUP2 PUSH1 0x3 ADD SWAP1 DUP2 PUSH2 0x1322 SWAP2 SWAP1 PUSH2 0x2438 JUMP JUMPDEST POP PUSH1 0x80 DUP3 ADD MLOAD DUP2 PUSH1 0x4 ADD SSTORE PUSH1 0xA0 DUP3 ADD MLOAD DUP2 PUSH1 0x5 ADD PUSH0 PUSH2 0x100 EXP DUP2 SLOAD DUP2 PUSH20 0xFFFFFFFFFFFFFFFFFFFFFFFFFFFFFFFFFFFFFFFF MUL NOT AND SWAP1 DUP4 PUSH20 0xFFFFFFFFFFFFFFFFFFFFFFFFFFFFFFFFFFFFFFFF AND MUL OR SWAP1 SSTORE POP PUSH1 0xC0 DUP3 ADD MLOAD DUP2 PUSH1 0x5 ADD PUSH1 0x14 PUSH2 0x100 EXP DUP2 SLOAD DUP2 PUSH1 0xFF MUL NOT AND SWAP1 DUP4 PUSH1 0x1 DUP2 GT ISZERO PUSH2 0x139E JUMPI PUSH2 0x139D PUSH2 0x17C4 JUMP JUMPDEST JUMPDEST MUL OR SWAP1 SSTORE POP PUSH1 0xE0 DUP3 ADD MLOAD DUP2 PUSH1 0x5 ADD PUSH1 0x15 PUSH2 0x100 EXP DUP2 SLOAD DUP2 PUSH1 0xFF MUL NOT AND SWAP1 DUP4 ISZERO ISZERO MUL OR SWAP1 SSTORE POP SWAP1 POP POP PUSH1 0x3 DUP3 SWAP1 DUP1 PUSH1 0x1 DUP2 SLOAD ADD DUP1 DUP3 SSTORE DUP1 SWAP2 POP POP PUSH1 0x1 SWAP1 SUB SWAP1 PUSH0 MSTORE PUSH1 0x20 PUSH0 KECCAK256 ADD PUSH0 SWAP1 SWAP2 SWAP1 SWAP2 SWAP1 SWAP2 POP SSTORE PUSH0 DUP3 TIMESTAMP PUSH1 0x40 MLOAD PUSH1 0x20 ADD PUSH2 0x1400 SWAP3 SWAP2 SWAP1 PUSH2 0x27AE JUMP JUMPDEST PUSH1 0x40 MLOAD PUSH1 0x20 DUP2 DUP4 SUB SUB DUP2 MSTORE SWAP1 PUSH1 0x40 MSTORE DUP1 MLOAD SWAP1 PUSH1 0x20 ADD KECCAK256 SWAP1 POP PUSH0 PUSH1 0x40 MLOAD DUP1 PUSH1 0xA0 ADD PUSH1 0x40 MSTORE DUP1 DUP4 DUP2 MSTORE PUSH1 0x20 ADD PUSH1 0x40 MLOAD DUP1 PUSH1 0x40 ADD PUSH1 0x40 MSTORE DUP1 PUSH1 0x16 DUP2 MSTORE PUSH1 0x20 ADD PUSH32 0x50726F6475637420696E697469616C697A6174696F6E00000000000000000000 DUP2 MSTORE POP DUP2 MSTORE PUSH1 0x20 ADD TIMESTAMP DUP2 MSTORE PUSH1 0x20 ADD CALLER PUSH20 0xFFFFFFFFFFFFFFFFFFFFFFFFFFFFFFFFFFFFFFFF AND DUP2 MSTORE PUSH1 0x20 ADD PUSH0 PUSH1 0x1 DUP2 GT ISZERO PUSH2 0x149A JUMPI PUSH2 0x1499 PUSH2 0x17C4 JUMP JUMPDEST JUMPDEST DUP2 MSTORE POP SWAP1 POP PUSH1 0x1 PUSH0 DUP6 DUP2 MSTORE PUSH1 0x20 ADD SWAP1 DUP2 MSTORE PUSH1 0x20 ADD PUSH0 KECCAK256 DUP2 SWAP1 DUP1 PUSH1 0x1 DUP2 SLOAD ADD DUP1 DUP3 SSTORE DUP1 SWAP2 POP POP PUSH1 0x1 SWAP1 SUB SWAP1 PUSH0 MSTORE PUSH1 0x20 PUSH0 KECCAK256 SWAP1 PUSH1 0x4 MUL ADD PUSH0 SWAP1 SWAP2 SWAP1 SWAP2 SWAP1 SWAP2 POP PUSH0 DUP3 ADD MLOAD DUP2 PUSH0 ADD SSTORE PUSH1 0x20 DUP3 ADD MLOAD DUP2 PUSH1 0x1 ADD SWAP1 DUP2 PUSH2 0x14F4 SWAP2 SWAP1 PUSH2 0x2438 JUMP JUMPDEST POP PUSH1 0x40 DUP3 ADD MLOAD DUP2 PUSH1 0x2 ADD SSTORE PUSH1 0x60 DUP3 ADD MLOAD DUP2 PUSH1 0x3 ADD PUSH0 PUSH2 0x100 EXP DUP2 SLOAD DUP2 PUSH20 0xFFFFFFFFFFFFFFFFFFFFFFFFFFFFFFFFFFFFFFFF MUL NOT AND SWAP1 DUP4 PUSH20 0xFFFFFFFFFFFFFFFFFFFFFFFFFFFFFFFFFFFFFFFF AND MUL OR SWAP1 SSTORE POP PUSH1 0x80 DUP3 ADD MLOAD DUP2 PUSH1 0x3 ADD PUSH1 0x14 PUSH2 0x100 EXP DUP2 SLOAD DUP2 PUSH1 0xFF MUL NOT AND SWAP1 DUP4 PUSH1 0x1 DUP2 GT ISZERO PUSH2 0x1570 JUMPI PUSH2 0x156F PUSH2 0x17C4 JUMP JUMPDEST JUMPDEST MUL OR SWAP1 SSTORE POP POP POP DUP4 PUSH1 0x2 PUSH0 DUP5 DUP2 MSTORE PUSH1 0x20 ADD SWAP1 DUP2 MSTORE PUSH1 0x20 ADD PUSH0 KECCAK256 DUP2 SWAP1 SSTORE POP DUP4 PUSH32 0x5D95F8B95DF6D455E3731C3DDEA53D6B339315DA38D66461C61654D2F72563F DUP9 DUP9 DUP9 TIMESTAMP CALLER PUSH1 0x40 MLOAD PUSH2 0x15C5 SWAP6 SWAP5 SWAP4 SWAP3 SWAP2 SWAP1 PUSH2 0x27E4 JUMP JUMPDEST PUSH1 0x40 MLOAD DUP1 SWAP2 SUB SWAP1 LOG2 DUP2 DUP5 PUSH32 0xFC7F09D226B2E852BD3F04F352ADAB8A4E00B078D16E635F5A5102E2AC721FC8 TIMESTAMP CALLER PUSH1 0x40 MLOAD PUSH2 0x1600 SWAP3 SWAP2 SWAP1 PUSH2 0x2894 JUMP JUMPDEST PUSH1 0x40 MLOAD DUP1 SWAP2 SUB SWAP1 LOG3 POP POP POP POP POP POP POP POP JUMP JUMPDEST PUSH0 DUP1 DUP3 SWAP1 POP PUSH0 DUP2 MLOAD SUB PUSH2 0x162A JUMPI PUSH0 DUP1 SHL SWAP2 POP POP PUSH2 0x1633 JUMP JUMPDEST PUSH1 0x20 DUP4 ADD MLOAD SWAP2 POP POP JUMPDEST SWAP2 SWAP1 POP JUMP JUMPDEST PUSH1 0x40 MLOAD DUP1 PUSH1 0xA0 ADD PUSH1 0x40 MSTORE DUP1 PUSH0 DUP1 NOT AND DUP2 MSTORE PUSH1 0x20 ADD PUSH1 0x60 DUP2 MSTORE PUSH1 0x20 ADD PUSH0 DUP2 MSTORE PUSH1 0x20 ADD PUSH0 PUSH20 0xFFFFFFFFFFFFFFFFFFFFFFFFFFFFFFFFFFFFFFFF AND DUP2 MSTORE PUSH1 0x20 ADD PUSH0 PUSH1 0x1 DUP2 GT ISZERO PUSH2 0x1688 JUMPI PUSH2 0x1687 PUSH2 0x17C4 JUMP JUMPDEST JUMPDEST DUP2 MSTORE POP SWAP1 JUMP JUMPDEST PUSH0 PUSH1 0x40 MLOAD SWAP1 POP SWAP1 JUMP JUMPDEST PUSH0 DUP1 REVERT JUMPDEST PUSH0 DUP1 REVERT JUMPDEST PUSH0 DUP2 SWAP1 POP SWAP2 SWAP1 POP JUMP JUMPDEST PUSH2 0x16B1 DUP2 PUSH2 0x169F JUMP JUMPDEST DUP2 EQ PUSH2 0x16BB JUMPI PUSH0 DUP1 REVERT JUMPDEST POP JUMP JUMPDEST PUSH0 DUP2 CALLDATALOAD SWAP1 POP PUSH2 0x16CC DUP2 PUSH2 0x16A8 JUMP JUMPDEST SWAP3 SWAP2 POP POP JUMP JUMPDEST PUSH0 PUSH1 0x20 DUP3 DUP5 SUB SLT ISZERO PUSH2 0x16E7 JUMPI PUSH2 0x16E6 PUSH2 0x1697 JUMP JUMPDEST JUMPDEST PUSH0 PUSH2 0x16F4 DUP5 DUP3 DUP6 ADD PUSH2 0x16BE JUMP JUMPDEST SWAP2 POP POP SWAP3 SWAP2 POP POP JUMP JUMPDEST PUSH0 DUP2 MLOAD SWAP1 POP SWAP2 SWAP1 POP JUMP JUMPDEST PUSH0 DUP3 DUP3 MSTORE PUSH1 0x20 DUP3 ADD SWAP1 POP SWAP3 SWAP2 POP POP JUMP JUMPDEST DUP3 DUP2 DUP4 MCOPY PUSH0 DUP4 DUP4 ADD MSTORE POP POP POP JUMP JUMPDEST PUSH0 PUSH1 0x1F NOT PUSH1 0x1F DUP4 ADD AND SWAP1 POP SWAP2 SWAP1 POP JUMP JUMPDEST PUSH0 PUSH2 0x173F DUP3 PUSH2 0x16FD JUMP JUMPDEST PUSH2 0x1749 DUP2 DUP6 PUSH2 0x1707 JUMP JUMPDEST SWAP4 POP PUSH2 0x1759 DUP2 DUP6 PUSH1 0x20 DUP7 ADD PUSH2 0x1717 JUMP JUMPDEST PUSH2 0x1762 DUP2 PUSH2 0x1725 JUMP JUMPDEST DUP5 ADD SWAP2 POP POP SWAP3 SWAP2 POP POP JUMP JUMPDEST PUSH0 DUP2 SWAP1 POP SWAP2 SWAP1 POP JUMP JUMPDEST PUSH2 0x177F DUP2 PUSH2 0x176D JUMP JUMPDEST DUP3 MSTORE POP POP JUMP JUMPDEST PUSH0 PUSH20 0xFFFFFFFFFFFFFFFFFFFFFFFFFFFFFFFFFFFFFFFF DUP3 AND SWAP1 POP SWAP2 SWAP1 POP JUMP JUMPDEST PUSH0 PUSH2 0x17AE DUP3 PUSH2 0x1785 JUMP JUMPDEST SWAP1 POP SWAP2 SWAP1 POP JUMP JUMPDEST PUSH2 0x17BE DUP2 PUSH2 0x17A4 JUMP JUMPDEST DUP3 MSTORE POP POP JUMP JUMPDEST PUSH32 0x4E487B7100000000000000000000000000000000000000000000000000000000 PUSH0 MSTORE PUSH1 0x21 PUSH1 0x4 MSTORE PUSH1 0x24 PUSH0 REVERT JUMPDEST PUSH1 0x2 DUP2 LT PUSH2 0x1802 JUMPI PUSH2 0x1801 PUSH2 0x17C4 JUMP JUMPDEST JUMPDEST POP JUMP JUMPDEST PUSH0 DUP2 SWAP1 POP PUSH2 0x1812 DUP3 PUSH2 0x17F1 JUMP JUMPDEST SWAP2 SWAP1 POP JUMP JUMPDEST PUSH0 PUSH2 0x1821 DUP3 PUSH2 0x1805 JUMP JUMPDEST SWAP1 POP SWAP2 SWAP1 POP JUMP JUMPDEST PUSH2 0x1831 DUP2 PUSH2 0x1817 JUMP JUMPDEST DUP3 MSTORE POP POP JUMP JUMPDEST PUSH0 PUSH1 0xC0 DUP3 ADD SWAP1 POP DUP2 DUP2 SUB PUSH0 DUP4 ADD MSTORE PUSH2 0x184F DUP2 DUP10 PUSH2 0x1735 JUMP JUMPDEST SWAP1 POP DUP2 DUP2 SUB PUSH1 0x20 DUP4 ADD MSTORE PUSH2 0x1863 DUP2 DUP9 PUSH2 0x1735 JUMP JUMPDEST SWAP1 POP DUP2 DUP2 SUB PUSH1 0x40 DUP4 ADD MSTORE PUSH2 0x1877 DUP2 DUP8 PUSH2 0x1735 JUMP JUMPDEST SWAP1 POP PUSH2 0x1886 PUSH1 0x60 DUP4 ADD DUP7 PUSH2 0x1776 JUMP JUMPDEST PUSH2 0x1893 PUSH1 0x80 DUP4 ADD DUP6 PUSH2 0x17B5 JUMP JUMPDEST PUSH2 0x18A0 PUSH1 0xA0 DUP4 ADD DUP5 PUSH2 0x1828 JUMP JUMPDEST SWAP8 SWAP7 POP POP POP POP POP POP POP JUMP JUMPDEST PUSH2 0x18B4 DUP2 PUSH2 0x169F JUMP JUMPDEST DUP3 MSTORE POP POP JUMP JUMPDEST PUSH0 PUSH1 0xA0 DUP3 ADD SWAP1 POP PUSH2 0x18CD PUSH0 DUP4 ADD DUP9 PUSH2 0x18AB JUMP JUMPDEST DUP2 DUP2 SUB PUSH1 0x20 DUP4 ADD MSTORE PUSH2 0x18DF DUP2 DUP8 PUSH2 0x1735 JUMP JUMPDEST SWAP1 POP PUSH2 0x18EE PUSH1 0x40 DUP4 ADD DUP7 PUSH2 0x1776 JUMP JUMPDEST PUSH2 0x18FB PUSH1 0x60 DUP4 ADD DUP6 PUSH2 0x17B5 JUMP JUMPDEST PUSH2 0x1908 PUSH1 0x80 DUP4 ADD DUP5 PUSH2 0x1828 JUMP JUMPDEST SWAP7 SWAP6 POP POP POP POP POP POP JUMP JUMPDEST PUSH2 0x191B DUP2 PUSH2 0x17A4 JUMP JUMPDEST DUP2 EQ PUSH2 0x1925 JUMPI PUSH0 DUP1 REVERT JUMPDEST POP JUMP JUMPDEST PUSH0 DUP2 CALLDATALOAD SWAP1 POP PUSH2 0x1936 DUP2 PUSH2 0x1912 JUMP JUMPDEST SWAP3 SWAP2 POP POP JUMP JUMPDEST PUSH0 DUP1 PUSH1 0x40 DUP4 DUP6 SUB SLT ISZERO PUSH2 0x1952 JUMPI PUSH2 0x1951 PUSH2 0x1697 JUMP JUMPDEST JUMPDEST PUSH0 PUSH2 0x195F DUP6 DUP3 DUP7 ADD PUSH2 0x16BE JUMP JUMPDEST SWAP3 POP POP PUSH1 0x20 PUSH2 0x1970 DUP6 DUP3 DUP7 ADD PUSH2 0x1928 JUMP JUMPDEST SWAP2 POP POP SWAP3 POP SWAP3 SWAP1 POP JUMP JUMPDEST PUSH0 DUP2 MLOAD SWAP1 POP SWAP2 SWAP1 POP JUMP JUMPDEST PUSH0 DUP3 DUP3 MSTORE PUSH1 0x20 DUP3 ADD SWAP1 POP SWAP3 SWAP2 POP POP JUMP JUMPDEST PUSH0 DUP2 SWAP1 POP PUSH1 0x20 DUP3 ADD SWAP1 POP SWAP2 SWAP1 POP JUMP JUMPDEST PUSH2 0x19AC DUP2 PUSH2 0x169F JUMP JUMPDEST DUP3 MSTORE POP POP JUMP JUMPDEST PUSH0 DUP3 DUP3 MSTORE PUSH1 0x20 DUP3 ADD SWAP1 POP SWAP3 SWAP2 POP POP JUMP JUMPDEST PUSH0 PUSH2 0x19CC DUP3 PUSH2 0x16FD JUMP JUMPDEST PUSH2 0x19D6 DUP2 DUP6 PUSH2 0x19B2 JUMP JUMPDEST SWAP4 POP PUSH2 0x19E6 DUP2 DUP6 PUSH1 0x20 DUP7 ADD PUSH2 0x1717 JUMP JUMPDEST PUSH2 0x19EF DUP2 PUSH2 0x1725 JUMP JUMPDEST DUP5 ADD SWAP2 POP POP SWAP3 SWAP2 POP POP JUMP JUMPDEST PUSH2 0x1A03 DUP2 PUSH2 0x176D JUMP JUMPDEST DUP3 MSTORE POP POP JUMP JUMPDEST PUSH2 0x1A12 DUP2 PUSH2 0x17A4 JUMP JUMPDEST DUP3 MSTORE POP POP JUMP JUMPDEST PUSH2 0x1A21 DUP2 PUSH2 0x1817 JUMP JUMPDEST DUP3 MSTORE POP POP JUMP JUMPDEST PUSH0 PUSH1 0xA0 DUP4 ADD PUSH0 DUP4 ADD MLOAD PUSH2 0x1A3C PUSH0 DUP7 ADD DUP3 PUSH2 0x19A3 JUMP JUMPDEST POP PUSH1 0x20 DUP4 ADD MLOAD DUP5 DUP3 SUB PUSH1 0x20 DUP7 ADD MSTORE PUSH2 0x1A54 DUP3 DUP3 PUSH2 0x19C2 JUMP JUMPDEST SWAP2 POP POP PUSH1 0x40 DUP4 ADD MLOAD PUSH2 0x1A69 PUSH1 0x40 DUP7 ADD DUP3 PUSH2 0x19FA JUMP JUMPDEST POP PUSH1 0x60 DUP4 ADD MLOAD PUSH2 0x1A7C PUSH1 0x60 DUP7 ADD DUP3 PUSH2 0x1A09 JUMP JUMPDEST POP PUSH1 0x80 DUP4 ADD MLOAD PUSH2 0x1A8F PUSH1 0x80 DUP7 ADD DUP3 PUSH2 0x1A18 JUMP JUMPDEST POP DUP1 SWAP2 POP POP SWAP3 SWAP2 POP POP JUMP JUMPDEST PUSH0 PUSH2 0x1AA5 DUP4 DUP4 PUSH2 0x1A27 JUMP JUMPDEST SWAP1 POP SWAP3 SWAP2 POP POP JUMP JUMPDEST PUSH0 PUSH1 0x20 DUP3 ADD SWAP1 POP SWAP2 SWAP1 POP JUMP JUMPDEST PUSH0 PUSH2 0x1AC3 DUP3 PUSH2 0x197A JUMP JUMPDEST PUSH2 0x1ACD DUP2 DUP6 PUSH2 0x1984 JUMP JUMPDEST SWAP4 POP DUP4 PUSH1 0x20 DUP3 MUL DUP6 ADD PUSH2 0x1ADF DUP6 PUSH2 0x1994 JUMP JUMPDEST DUP1 PUSH0 JUMPDEST DUP6 DUP2 LT ISZERO PUSH2 0x1B1A JUMPI DUP5 DUP5 SUB DUP10 MSTORE DUP2 MLOAD PUSH2 0x1AFB DUP6 DUP3 PUSH2 0x1A9A JUMP JUMPDEST SWAP5 POP PUSH2 0x1B06 DUP4 PUSH2 0x1AAD JUMP JUMPDEST SWAP3 POP PUSH1 0x20 DUP11 ADD SWAP10 POP POP PUSH1 0x1 DUP2 ADD SWAP1 POP PUSH2 0x1AE2 JUMP JUMPDEST POP DUP3 SWAP8 POP DUP8 SWAP6 POP POP POP POP POP POP SWAP3 SWAP2 POP POP JUMP JUMPDEST PUSH0 PUSH1 0x20 DUP3 ADD SWAP1 POP DUP2 DUP2 SUB PUSH0 DUP4 ADD MSTORE PUSH2 0x1B44 DUP2 DUP5 PUSH2 0x1AB9 JUMP JUMPDEST SWAP1 POP SWAP3 SWAP2 POP POP JUMP JUMPDEST PUSH0 DUP2 MLOAD SWAP1 POP SWAP2 SWAP1 POP JUMP JUMPDEST PUSH0 DUP3 DUP3 MSTORE PUSH1 0x20 DUP3 ADD SWAP1 POP SWAP3 SWAP2 POP POP JUMP JUMPDEST PUSH0 DUP2 SWAP1 POP PUSH1 0x20 DUP3 ADD SWAP1 POP SWAP2 SWAP1 POP JUMP JUMPDEST PUSH0 PUSH2 0x1B80 DUP4 DUP4 PUSH2 0x19A3 JUMP JUMPDEST PUSH1 0x20 DUP4 ADD SWAP1 POP SWAP3 SWAP2 POP POP JUMP JUMPDEST PUSH0 PUSH1 0x20 DUP3 ADD SWAP1 POP SWAP2 SWAP1 POP JUMP JUMPDEST PUSH0 PUSH2 0x1BA2 DUP3 PUSH2 0x1B4C JUMP JUMPDEST PUSH2 0x1BAC DUP2 DUP6 PUSH2 0x1B56 JUMP JUMPDEST SWAP4 POP PUSH2 0x1BB7 DUP4 PUSH2 0x1B66 JUMP JUMPDEST DUP1 PUSH0 JUMPDEST DUP4 DUP2 LT ISZERO PUSH2 0x1BE7 JUMPI DUP2 MLOAD PUSH2 0x1BCE DUP9 DUP3 PUSH2 0x1B75 JUMP JUMPDEST SWAP8 POP PUSH2 0x1BD9 DUP4 PUSH2 0x1B8C JUMP JUMPDEST SWAP3 POP POP PUSH1 0x1 DUP2 ADD SWAP1 POP PUSH2 0x1BBA JUMP JUMPDEST POP DUP6 SWAP4 POP POP POP POP SWAP3 SWAP2 POP POP JUMP JUMPDEST PUSH0 PUSH1 0x20 DUP3 ADD SWAP1 POP DUP2 DUP2 SUB PUSH0 DUP4 ADD MSTORE PUSH2 0x1C0C DUP2 DUP5 PUSH2 0x1B98 JUMP JUMPDEST SWAP1 POP SWAP3 SWAP2 POP POP JUMP JUMPDEST PUSH0 DUP1 REVERT JUMPDEST PUSH0 DUP1 REVERT JUMPDEST PUSH32 0x4E487B7100000000000000000000000000000000000000000000000000000000 PUSH0 MSTORE PUSH1 0x41 PUSH1 0x4 MSTORE PUSH1 0x24 PUSH0 REVERT JUMPDEST PUSH2 0x1C52 DUP3 PUSH2 0x1725 JUMP JUMPDEST DUP2 ADD DUP2 DUP2 LT PUSH8 0xFFFFFFFFFFFFFFFF DUP3 GT OR ISZERO PUSH2 0x1C71 JUMPI PUSH2 0x1C70 PUSH2 0x1C1C JUMP JUMPDEST JUMPDEST DUP1 PUSH1 0x40 MSTORE POP POP POP JUMP JUMPDEST PUSH0 PUSH2 0x1C83 PUSH2 0x168E JUMP JUMPDEST SWAP1 POP PUSH2 0x1C8F DUP3 DUP3 PUSH2 0x1C49 JUMP JUMPDEST SWAP2 SWAP1 POP JUMP JUMPDEST PUSH0 PUSH8 0xFFFFFFFFFFFFFFFF DUP3 GT ISZERO PUSH2 0x1CAE JUMPI PUSH2 0x1CAD PUSH2 0x1C1C JUMP JUMPDEST JUMPDEST PUSH2 0x1CB7 DUP3 PUSH2 0x1725 JUMP JUMPDEST SWAP1 POP PUSH1 0x20 DUP2 ADD SWAP1 POP SWAP2 SWAP1 POP JUMP JUMPDEST DUP3 DUP2 DUP4 CALLDATACOPY PUSH0 DUP4 DUP4 ADD MSTORE POP POP POP JUMP JUMPDEST PUSH0 PUSH2 0x1CE4 PUSH2 0x1CDF DUP5 PUSH2 0x1C94 JUMP JUMPDEST PUSH2 0x1C7A JUMP JUMPDEST SWAP1 POP DUP3 DUP2 MSTORE PUSH1 0x20 DUP2 ADD DUP5 DUP5 DUP5 ADD GT ISZERO PUSH2 0x1D00 JUMPI PUSH2 0x1CFF PUSH2 0x1C18 JUMP JUMPDEST JUMPDEST PUSH2 0x1D0B DUP5 DUP3 DUP6 PUSH2 0x1CC4 JUMP JUMPDEST POP SWAP4 SWAP3 POP POP POP JUMP JUMPDEST PUSH0 DUP3 PUSH1 0x1F DUP4 ADD SLT PUSH2 0x1D27 JUMPI PUSH2 0x1D26 PUSH2 0x1C14 JUMP JUMPDEST JUMPDEST DUP2 CALLDATALOAD PUSH2 0x1D37 DUP5 DUP3 PUSH1 0x20 DUP7 ADD PUSH2 0x1CD2 JUMP JUMPDEST SWAP2 POP POP SWAP3 SWAP2 POP POP JUMP JUMPDEST PUSH0 DUP1 PUSH1 0x40 DUP4 DUP6 SUB SLT ISZERO PUSH2 0x1D56 JUMPI PUSH2 0x1D55 PUSH2 0x1697 JUMP JUMPDEST JUMPDEST PUSH0 PUSH2 0x1D63 DUP6 DUP3 DUP7 ADD PUSH2 0x16BE JUMP JUMPDEST SWAP3 POP POP PUSH1 0x20 DUP4 ADD CALLDATALOAD PUSH8 0xFFFFFFFFFFFFFFFF DUP2 GT ISZERO PUSH2 0x1D84 JUMPI PUSH2 0x1D83 PUSH2 0x169B JUMP JUMPDEST JUMPDEST PUSH2 0x1D90 DUP6 DUP3 DUP7 ADD PUSH2 0x1D13 JUMP JUMPDEST SWAP2 POP POP SWAP3 POP SWAP3 SWAP1 POP JUMP JUMPDEST PUSH1 0x2 DUP2 LT PUSH2 0x1DA6 JUMPI PUSH0 DUP1 REVERT JUMPDEST POP JUMP JUMPDEST PUSH0 DUP2 CALLDATALOAD SWAP1 POP PUSH2 0x1DB7 DUP2 PUSH2 0x1D9A JUMP JUMPDEST SWAP3 SWAP2 POP POP JUMP JUMPDEST PUSH0 DUP1 PUSH1 0x40 DUP4 DUP6 SUB SLT ISZERO PUSH2 0x1DD3 JUMPI PUSH2 0x1DD2 PUSH2 0x1697 JUMP JUMPDEST JUMPDEST PUSH0 PUSH2 0x1DE0 DUP6 DUP3 DUP7 ADD PUSH2 0x16BE JUMP JUMPDEST SWAP3 POP POP PUSH1 0x20 PUSH2 0x1DF1 DUP6 DUP3 DUP7 ADD PUSH2 0x1DA9 JUMP JUMPDEST SWAP2 POP POP SWAP3 POP SWAP3 SWAP1 POP JUMP JUMPDEST PUSH0 DUP1 PUSH0 DUP1 PUSH1 0x80 DUP6 DUP8 SUB SLT ISZERO PUSH2 0x1E13 JUMPI PUSH2 0x1E12 PUSH2 0x1697 JUMP JUMPDEST JUMPDEST PUSH0 DUP6 ADD CALLDATALOAD PUSH8 0xFFFFFFFFFFFFFFFF DUP2 GT ISZERO PUSH2 0x1E30 JUMPI PUSH2 0x1E2F PUSH2 0x169B JUMP JUMPDEST JUMPDEST PUSH2 0x1E3C DUP8 DUP3 DUP9 ADD PUSH2 0x1D13 JUMP JUMPDEST SWAP5 POP POP PUSH1 0x20 DUP6 ADD CALLDATALOAD PUSH8 0xFFFFFFFFFFFFFFFF DUP2 GT ISZERO PUSH2 0x1E5D JUMPI PUSH2 0x1E5C PUSH2 0x169B JUMP JUMPDEST JUMPDEST PUSH2 0x1E69 DUP8 DUP3 DUP9 ADD PUSH2 0x1D13 JUMP JUMPDEST SWAP4 POP POP PUSH1 0x40 DUP6 ADD CALLDATALOAD PUSH8 0xFFFFFFFFFFFFFFFF DUP2 GT ISZERO PUSH2 0x1E8A JUMPI PUSH2 0x1E89 PUSH2 0x169B JUMP JUMPDEST JUMPDEST PUSH2 0x1E96 DUP8 DUP3 DUP9 ADD PUSH2 0x1D13 JUMP JUMPDEST SWAP3 POP POP PUSH1 0x60 DUP6 ADD CALLDATALOAD PUSH8 0xFFFFFFFFFFFFFFFF DUP2 GT ISZERO PUSH2 0x1EB7 JUMPI PUSH2 0x1EB6 PUSH2 0x169B JUMP JUMPDEST JUMPDEST PUSH2 0x1EC3 DUP8 DUP3 DUP9 ADD PUSH2 0x1D13 JUMP JUMPDEST SWAP2 POP POP SWAP3 SWAP6 SWAP2 SWAP5 POP SWAP3 POP JUMP JUMPDEST PUSH32 0x50726F6475637420646F6573206E6F7420657869737400000000000000000000 PUSH0 DUP3 ADD MSTORE POP JUMP JUMPDEST PUSH0 PUSH2 0x1F03 PUSH1 0x16 DUP4 PUSH2 0x1707 JUMP JUMPDEST SWAP2 POP PUSH2 0x1F0E DUP3 PUSH2 0x1ECF JUMP JUMPDEST PUSH1 0x20 DUP3 ADD SWAP1 POP SWAP2 SWAP1 POP JUMP JUMPDEST PUSH0 PUSH1 0x20 DUP3 ADD SWAP1 POP DUP2 DUP2 SUB PUSH0 DUP4 ADD MSTORE PUSH2 0x1F30 DUP2 PUSH2 0x1EF7 JUMP JUMPDEST SWAP1 POP SWAP2 SWAP1 POP JUMP JUMPDEST PUSH32 0x4E487B7100000000000000000000000000000000000000000000000000000000 PUSH0 MSTORE PUSH1 0x22 PUSH1 0x4 MSTORE PUSH1 0x24 PUSH0 REVERT JUMPDEST PUSH0 PUSH1 0x2 DUP3 DIV SWAP1 POP PUSH1 0x1 DUP3 AND DUP1 PUSH2 0x1F7B JUMPI PUSH1 0x7F DUP3 AND SWAP2 POP JUMPDEST PUSH1 0x20 DUP3 LT DUP2 SUB PUSH2 0x1F8E JUMPI PUSH2 0x1F8D PUSH2 0x1F37 JUMP JUMPDEST JUMPDEST POP SWAP2 SWAP1 POP JUMP JUMPDEST PUSH32 0x5472616365206E6F7420666F756E640000000000000000000000000000000000 PUSH0 DUP3 ADD MSTORE POP JUMP JUMPDEST PUSH0 PUSH2 0x1FC8 PUSH1 0xF DUP4 PUSH2 0x1707 JUMP JUMPDEST SWAP2 POP PUSH2 0x1FD3 DUP3 PUSH2 0x1F94 JUMP JUMPDEST PUSH1 0x20 DUP3 ADD SWAP1 POP SWAP2 SWAP1 POP JUMP JUMPDEST PUSH0 PUSH1 0x20 DUP3 ADD SWAP1 POP DUP2 DUP2 SUB PUSH0 DUP4 ADD MSTORE PUSH2 0x1FF5 DUP2 PUSH2 0x1FBC JUMP JUMPDEST SWAP1 POP SWAP2 SWAP1 POP JUMP JUMPDEST PUSH32 0x4E487B7100000000000000000000000000000000000000000000000000000000 PUSH0 MSTORE PUSH1 0x32 PUSH1 0x4 MSTORE PUSH1 0x24 PUSH0 REVERT JUMPDEST PUSH32 0x4E487B7100000000000000000000000000000000000000000000000000000000 PUSH0 MSTORE PUSH1 0x11 PUSH1 0x4 MSTORE PUSH1 0x24 PUSH0 REVERT JUMPDEST PUSH0 PUSH2 0x2060 DUP3 PUSH2 0x176D JUMP JUMPDEST SWAP2 POP PUSH32 0xFFFFFFFFFFFFFFFFFFFFFFFFFFFFFFFFFFFFFFFFFFFFFFFFFFFFFFFFFFFFFFFF DUP3 SUB PUSH2 0x2092 JUMPI PUSH2 0x2091 PUSH2 0x2029 JUMP JUMPDEST JUMPDEST PUSH1 0x1 DUP3 ADD SWAP1 POP SWAP2 SWAP1 POP JUMP JUMPDEST PUSH32 0x50726F64756374206E6F74206163746976650000000000000000000000000000 PUSH0 DUP3 ADD MSTORE POP JUMP JUMPDEST PUSH0 PUSH2 0x20D1 PUSH1 0x12 DUP4 PUSH2 0x1707 JUMP JUMPDEST SWAP2 POP PUSH2 0x20DC DUP3 PUSH2 0x209D JUMP JUMPDEST PUSH1 0x20 DUP3 ADD SWAP1 POP SWAP2 SWAP1 POP JUMP JUMPDEST PUSH0 PUSH1 0x20 DUP3 ADD SWAP1 POP DUP2 DUP2 SUB PUSH0 DUP4 ADD MSTORE PUSH2 0x20FE DUP2 PUSH2 0x20C5 JUMP JUMPDEST SWAP1 POP SWAP2 SWAP1 POP JUMP JUMPDEST PUSH32 0x5472616365206465736372697074696F6E2063616E6E6F7420626520656D7074 PUSH0 DUP3 ADD MSTORE PUSH32 0x7900000000000000000000000000000000000000000000000000000000000000 PUSH1 0x20 DUP3 ADD MSTORE POP JUMP JUMPDEST PUSH0 PUSH2 0x215F PUSH1 0x21 DUP4 PUSH2 0x1707 JUMP JUMPDEST SWAP2 POP PUSH2 0x216A DUP3 PUSH2 0x2105 JUMP JUMPDEST PUSH1 0x40 DUP3 ADD SWAP1 POP SWAP2 SWAP1 POP JUMP JUMPDEST PUSH0 PUSH1 0x20 DUP3 ADD SWAP1 POP DUP2 DUP2 SUB PUSH0 DUP4 ADD MSTORE PUSH2 0x218C DUP2 PUSH2 0x2153 JUMP JUMPDEST SWAP1 POP SWAP2 SWAP1 POP JUMP JUMPDEST PUSH0 DUP2 SWAP1 POP SWAP2 SWAP1 POP JUMP JUMPDEST PUSH2 0x21AD PUSH2 0x21A8 DUP3 PUSH2 0x169F JUMP JUMPDEST PUSH2 0x2193 JUMP JUMPDEST DUP3 MSTORE POP POP JUMP JUMPDEST PUSH0 DUP2 SWAP1 POP SWAP2 SWAP1 POP JUMP JUMPDEST PUSH2 0x21CD PUSH2 0x21C8 DUP3 PUSH2 0x176D JUMP JUMPDEST PUSH2 0x21B3 JUMP JUMPDEST DUP3 MSTORE POP POP JUMP JUMPDEST PUSH0 DUP2 PUSH1 0x60 SHL SWAP1 POP SWAP2 SWAP1 POP JUMP JUMPDEST PUSH0 PUSH2 0x21E9 DUP3 PUSH2 0x21D3 JUMP JUMPDEST SWAP1 POP SWAP2 SWAP1 POP JUMP JUMPDEST PUSH0 PUSH2 0x21FA DUP3 PUSH2 0x21DF JUMP JUMPDEST SWAP1 POP SWAP2 SWAP1 POP JUMP JUMPDEST PUSH2 0x2212 PUSH2 0x220D DUP3 PUSH2 0x17A4 JUMP JUMPDEST PUSH2 0x21F0 JUMP JUMPDEST DUP3 MSTORE POP POP JUMP JUMPDEST PUSH0 DUP2 SWAP1 POP SWAP3 SWAP2 POP POP JUMP JUMPDEST PUSH0 PUSH2 0x222C DUP3 PUSH2 0x16FD JUMP JUMPDEST PUSH2 0x2236 DUP2 DUP6 PUSH2 0x2218 JUMP JUMPDEST SWAP4 POP PUSH2 0x2246 DUP2 DUP6 PUSH1 0x20 DUP7 ADD PUSH2 0x1717 JUMP JUMPDEST DUP1 DUP5 ADD SWAP2 POP POP SWAP3 SWAP2 POP POP JUMP JUMPDEST PUSH0 PUSH2 0x225D DUP3 DUP8 PUSH2 0x219C JUMP JUMPDEST PUSH1 0x20 DUP3 ADD SWAP2 POP PUSH2 0x226D DUP3 DUP7 PUSH2 0x21BC JUMP JUMPDEST PUSH1 0x20 DUP3 ADD SWAP2 POP PUSH2 0x227D DUP3 DUP6 PUSH2 0x2201 JUMP JUMPDEST PUSH1 0x14 DUP3 ADD SWAP2 POP PUSH2 0x228D DUP3 DUP5 PUSH2 0x2222 JUMP JUMPDEST SWAP2 POP DUP2 SWAP1 POP SWAP6 SWAP5 POP POP POP POP POP JUMP JUMPDEST PUSH0 DUP2 SWAP1 POP DUP2 PUSH0 MSTORE PUSH1 0x20 PUSH0 KECCAK256 SWAP1 POP SWAP2 SWAP1 POP JUMP JUMPDEST PUSH0 PUSH1 0x20 PUSH1 0x1F DUP4 ADD DIV SWAP1 POP SWAP2 SWAP1 POP JUMP JUMPDEST PUSH0 DUP3 DUP3 SHL SWAP1 POP SWAP3 SWAP2 POP POP JUMP JUMPDEST PUSH0 PUSH1 0x8 DUP4 MUL PUSH2 0x22F7 PUSH32 0xFFFFFFFFFFFFFFFFFFFFFFFFFFFFFFFFFFFFFFFFFFFFFFFFFFFFFFFFFFFFFFFF DUP3 PUSH2 0x22BC JUMP JUMPDEST PUSH2 0x2301 DUP7 DUP4 PUSH2 0x22BC JUMP JUMPDEST SWAP6 POP DUP1 NOT DUP5 AND SWAP4 POP DUP1 DUP7 AND DUP5 OR SWAP3 POP POP POP SWAP4 SWAP3 POP POP POP JUMP JUMPDEST PUSH0 DUP2 SWAP1 POP SWAP2 SWAP1 POP JUMP JUMPDEST PUSH0 PUSH2 0x233C PUSH2 0x2337 PUSH2 0x2332 DUP5 PUSH2 0x176D JUMP JUMPDEST PUSH2 0x2319 JUMP JUMPDEST PUSH2 0x176D JUMP JUMPDEST SWAP1 POP SWAP2 SWAP1 POP JUMP JUMPDEST PUSH0 DUP2 SWAP1 POP SWAP2 SWAP1 POP JUMP JUMPDEST PUSH2 0x2355 DUP4 PUSH2 0x2322 JUMP JUMPDEST PUSH2 0x2369 PUSH2 0x2361 DUP3 PUSH2 0x2343 JUMP JUMPDEST DUP5 DUP5 SLOAD PUSH2 0x22C8 JUMP JUMPDEST DUP3 SSTORE POP POP POP POP JUMP JUMPDEST PUSH0 SWAP1 JUMP JUMPDEST PUSH2 0x237D PUSH2 0x2371 JUMP JUMPDEST PUSH2 0x2388 DUP2 DUP5 DUP5 PUSH2 0x234C JUMP JUMPDEST POP POP POP JUMP JUMPDEST JUMPDEST DUP2 DUP2 LT ISZERO PUSH2 0x23AB JUMPI PUSH2 0x23A0 PUSH0 DUP3 PUSH2 0x2375 JUMP JUMPDEST PUSH1 0x1 DUP2 ADD SWAP1 POP PUSH2 0x238E JUMP JUMPDEST POP POP JUMP JUMPDEST PUSH1 0x1F DUP3 GT ISZERO PUSH2 0x23F0 JUMPI PUSH2 0x23C1 DUP2 PUSH2 0x229B JUMP JUMPDEST PUSH2 0x23CA DUP5 PUSH2 0x22AD JUMP JUMPDEST DUP2 ADD PUSH1 0x20 DUP6 LT ISZERO PUSH2 0x23D9 JUMPI DUP2 SWAP1 POP JUMPDEST PUSH2 0x23ED PUSH2 0x23E5 DUP6 PUSH2 0x22AD JUMP JUMPDEST DUP4 ADD DUP3 PUSH2 0x238D JUMP JUMPDEST POP POP JUMPDEST POP POP POP JUMP JUMPDEST PUSH0 DUP3 DUP3 SHR SWAP1 POP SWAP3 SWAP2 POP POP JUMP JUMPDEST PUSH0 PUSH2 0x2410 PUSH0 NOT DUP5 PUSH1 0x8 MUL PUSH2 0x23F5 JUMP JUMPDEST NOT DUP1 DUP4 AND SWAP2 POP POP SWAP3 SWAP2 POP POP JUMP JUMPDEST PUSH0 PUSH2 0x2428 DUP4 DUP4 PUSH2 0x2401 JUMP JUMPDEST SWAP2 POP DUP3 PUSH1 0x2 MUL DUP3 OR SWAP1 POP SWAP3 SWAP2 POP POP JUMP JUMPDEST PUSH2 0x2441 DUP3 PUSH2 0x16FD JUMP JUMPDEST PUSH8 0xFFFFFFFFFFFFFFFF DUP2 GT ISZERO PUSH2 0x245A JUMPI PUSH2 0x2459 PUSH2 0x1C1C JUMP JUMPDEST JUMPDEST PUSH2 0x2464 DUP3 SLOAD PUSH2 0x1F64 JUMP JUMPDEST PUSH2 0x246F DUP3 DUP3 DUP6 PUSH2 0x23AF JUMP JUMPDEST PUSH0 PUSH1 0x20 SWAP1 POP PUSH1 0x1F DUP4 GT PUSH1 0x1 DUP2 EQ PUSH2 0x24A0 JUMPI PUSH0 DUP5 ISZERO PUSH2 0x248E JUMPI DUP3 DUP8 ADD MLOAD SWAP1 POP JUMPDEST PUSH2 0x2498 DUP6 DUP3 PUSH2 0x241D JUMP JUMPDEST DUP7 SSTORE POP PUSH2 0x24FF JUMP JUMPDEST PUSH1 0x1F NOT DUP5 AND PUSH2 0x24AE DUP7 PUSH2 0x229B JUMP JUMPDEST PUSH0 JUMPDEST DUP3 DUP2 LT ISZERO PUSH2 0x24D5 JUMPI DUP5 DUP10 ADD MLOAD DUP3 SSTORE PUSH1 0x1 DUP3 ADD SWAP2 POP PUSH1 0x20 DUP6 ADD SWAP5 POP PUSH1 0x20 DUP2 ADD SWAP1 POP PUSH2 0x24B0 JUMP JUMPDEST DUP7 DUP4 LT ISZERO PUSH2 0x24F2 JUMPI DUP5 DUP10 ADD MLOAD PUSH2 0x24EE PUSH1 0x1F DUP10 AND DUP3 PUSH2 0x2401 JUMP JUMPDEST DUP4 SSTORE POP JUMPDEST PUSH1 0x1 PUSH1 0x2 DUP9 MUL ADD DUP9 SSTORE POP POP POP JUMPDEST POP POP POP POP POP POP JUMP JUMPDEST PUSH0 PUSH1 0x60 DUP3 ADD SWAP1 POP DUP2 DUP2 SUB PUSH0 DUP4 ADD MSTORE PUSH2 0x251F DUP2 DUP7 PUSH2 0x1735 JUMP JUMPDEST SWAP1 POP PUSH2 0x252E PUSH1 0x20 DUP4 ADD DUP6 PUSH2 0x1776 JUMP JUMPDEST PUSH2 0x253B PUSH1 0x40 DUP4 ADD DUP5 PUSH2 0x17B5 JUMP JUMPDEST SWAP5 SWAP4 POP POP POP POP JUMP JUMPDEST PUSH0 PUSH1 0x20 DUP3 ADD SWAP1 POP PUSH2 0x2556 PUSH0 DUP4 ADD DUP5 PUSH2 0x1828 JUMP JUMPDEST SWAP3 SWAP2 POP POP JUMP JUMPDEST PUSH32 0x50726F647563742049442063616E6E6F7420626520656D707479000000000000 PUSH0 DUP3 ADD MSTORE POP JUMP JUMPDEST PUSH0 PUSH2 0x2590 PUSH1 0x1A DUP4 PUSH2 0x1707 JUMP JUMPDEST SWAP2 POP PUSH2 0x259B DUP3 PUSH2 0x255C JUMP JUMPDEST PUSH1 0x20 DUP3 ADD SWAP1 POP SWAP2 SWAP1 POP JUMP JUMPDEST PUSH0 PUSH1 0x20 DUP3 ADD SWAP1 POP DUP2 DUP2 SUB PUSH0 DUP4 ADD MSTORE PUSH2 0x25BD DUP2 PUSH2 0x2584 JUMP JUMPDEST SWAP1 POP SWAP2 SWAP1 POP JUMP JUMPDEST PUSH32 0x436F64656261722063616E6E6F7420626520656D707479000000000000000000 PUSH0 DUP3 ADD MSTORE POP JUMP JUMPDEST PUSH0 PUSH2 0x25F8 PUSH1 0x17 DUP4 PUSH2 0x1707 JUMP JUMPDEST SWAP2 POP PUSH2 0x2603 DUP3 PUSH2 0x25C4 JUMP JUMPDEST PUSH1 0x20 DUP3 ADD SWAP1 POP SWAP2 SWAP1 POP JUMP JUMPDEST PUSH0 PUSH1 0x20 DUP3 ADD SWAP1 POP DUP2 DUP2 SUB PUSH0 DUP4 ADD MSTORE PUSH2 0x2625 DUP2 PUSH2 0x25EC JUMP JUMPDEST SWAP1 POP SWAP2 SWAP1 POP JUMP JUMPDEST PUSH32 0x4E616D652063616E6E6F7420626520656D707479000000000000000000000000 PUSH0 DUP3 ADD MSTORE POP JUMP JUMPDEST PUSH0 PUSH2 0x2660 PUSH1 0x14 DUP4 PUSH2 0x1707 JUMP JUMPDEST SWAP2 POP PUSH2 0x266B DUP3 PUSH2 0x262C JUMP JUMPDEST PUSH1 0x20 DUP3 ADD SWAP1 POP SWAP2 SWAP1 POP JUMP JUMPDEST PUSH0 PUSH1 0x20 DUP3 ADD SWAP1 POP DUP2 DUP2 SUB PUSH0 DUP4 ADD MSTORE PUSH2 0x268D DUP2 PUSH2 0x2654 JUMP JUMPDEST SWAP1 POP SWAP2 SWAP1 POP JUMP JUMPDEST PUSH32 0x4465736372697074696F6E2063616E6E6F7420626520656D7074790000000000 PUSH0 DUP3 ADD MSTORE POP JUMP JUMPDEST PUSH0 PUSH2 0x26C8 PUSH1 0x1B DUP4 PUSH2 0x1707 JUMP JUMPDEST SWAP2 POP PUSH2 0x26D3 DUP3 PUSH2 0x2694 JUMP JUMPDEST PUSH1 0x20 DUP3 ADD SWAP1 POP SWAP2 SWAP1 POP JUMP JUMPDEST PUSH0 PUSH1 0x20 DUP3 ADD SWAP1 POP DUP2 DUP2 SUB PUSH0 DUP4 ADD MSTORE PUSH2 0x26F5 DUP2 PUSH2 0x26BC JUMP JUMPDEST SWAP1 POP SWAP2 SWAP1 POP JUMP JUMPDEST PUSH32 0x50726F6475637420616C72656164792065786973747300000000000000000000 PUSH0 DUP3 ADD MSTORE POP JUMP JUMPDEST PUSH0 PUSH2 0x2730 PUSH1 0x16 DUP4 PUSH2 0x1707 JUMP JUMPDEST SWAP2 POP PUSH2 0x273B DUP3 PUSH2 0x26FC JUMP JUMPDEST PUSH1 0x20 DUP3 ADD SWAP1 POP SWAP2 SWAP1 POP JUMP JUMPDEST PUSH0 PUSH1 0x20 DUP3 ADD SWAP1 POP DUP2 DUP2 SUB PUSH0 DUP4 ADD MSTORE PUSH2 0x275D DUP2 PUSH2 0x2724 JUMP JUMPDEST SWAP1 POP SWAP2 SWAP1 POP JUMP JUMPDEST PUSH32 0x494E495400000000000000000000000000000000000000000000000000000000 PUSH0 DUP3 ADD MSTORE POP JUMP JUMPDEST PUSH0 PUSH2 0x2798 PUSH1 0x4 DUP4 PUSH2 0x2218 JUMP JUMPDEST SWAP2 POP PUSH2 0x27A3 DUP3 PUSH2 0x2764 JUMP JUMPDEST PUSH1 0x4 DUP3 ADD SWAP1 POP SWAP2 SWAP1 POP JUMP JUMPDEST PUSH0 PUSH2 0x27B9 DUP3 DUP6 PUSH2 0x219C JUMP JUMPDEST PUSH1 0x20 DUP3 ADD SWAP2 POP PUSH2 0x27C9 DUP3 DUP5 PUSH2 0x21BC JUMP JUMPDEST PUSH1 0x20 DUP3 ADD SWAP2 POP PUSH2 0x27D8 DUP3 PUSH2 0x278C JUMP JUMPDEST SWAP2 POP DUP2 SWAP1 POP SWAP4 SWAP3 POP POP POP JUMP JUMPDEST PUSH0 PUSH1 0xA0 DUP3 ADD SWAP1 POP DUP2 DUP2 SUB PUSH0 DUP4 ADD MSTORE PUSH2 0x27FC DUP2 DUP9 PUSH2 0x1735 JUMP JUMPDEST SWAP1 POP DUP2 DUP2 SUB PUSH1 0x20 DUP4 ADD MSTORE PUSH2 0x2810 DUP2 DUP8 PUSH2 0x1735 JUMP JUMPDEST SWAP1 POP DUP2 DUP2 SUB PUSH1 0x40 DUP4 ADD MSTORE PUSH2 0x2824 DUP2 DUP7 PUSH2 0x1735 JUMP JUMPDEST SWAP1 POP PUSH2 0x2833 PUSH1 0x60 DUP4 ADD DUP6 PUSH2 0x1776 JUMP JUMPDEST PUSH2 0x2840 PUSH1 0x80 DUP4 ADD DUP5 PUSH2 0x17B5 JUMP JUMPDEST SWAP7 SWAP6 POP POP POP POP POP POP JUMP JUMPDEST PUSH32 0x50726F6475637420696E697469616C697A6174696F6E00000000000000000000 PUSH0 DUP3 ADD MSTORE POP JUMP JUMPDEST PUSH0 PUSH2 0x287E PUSH1 0x16 DUP4 PUSH2 0x1707 JUMP JUMPDEST SWAP2 POP PUSH2 0x2889 DUP3 PUSH2 0x284A JUMP JUMPDEST PUSH1 0x20 DUP3 ADD SWAP1 POP SWAP2 SWAP1 POP JUMP JUMPDEST PUSH0 PUSH1 0x60 DUP3 ADD SWAP1 POP DUP2 DUP2 SUB PUSH0 DUP4 ADD MSTORE PUSH2 0x28AB DUP2 PUSH2 0x2872 JUMP JUMPDEST SWAP1 POP PUSH2 0x28BA PUSH1 0x20 DUP4 ADD DUP6 PUSH2 0x1776 JUMP JUMPDEST PUSH2 0x28C7 PUSH1 0x40 DUP4 ADD DUP5 PUSH2 0x17B5 JUMP JUMPDEST SWAP4 SWAP3 POP POP POP JUMP INVALID LOG2 PUSH5 0x6970667358 0x22 SLT KECCAK256 PUSH4 0xC9E135FF SWAP4 0x2F 0xFB 0xBD SHR 0xC8 0xDB PUSH8 0xA8973BB4DC71A79 CALLCODE EXTCODECOPY LOG0 0xA8 0xE4 SAR SAR PUSH19 0xC9279E64736F6C634300081A00330000000000 "
				},
				"gasEstimates": {
					"creation": {
						"codeDepositCost": "2100000",
						"executionCost": "2234",
						"totalCost": "2102234"
					},
					"external": {
						"addProduct(string,string,string,string)": "infinite",
						"addTrace(bytes32,string)": "infinite",
						"getAllProductIds()": "infinite",
						"getProduct(bytes32)": "infinite",
						"getProductTraces(bytes32)": "infinite",
						"getProductTracesByAuthor(bytes32,address)": "infinite",
						"getTraceById(bytes32)": "infinite",
						"setProductState(bytes32,uint8)": "28921"
					},
					"internal": {
						"stringToBytes32(string memory)": "infinite"
					}
				},
				"methodIdentifiers": {
					"addProduct(string,string,string,string)": "fde74e81",
					"addTrace(bytes32,string)": "9635b610",
					"getAllProductIds()": "663c01af",
					"getProduct(bytes32)": "3a20e9df",
					"getProductTraces(bytes32)": "f0ccdecb",
					"getProductTracesByAuthor(bytes32,address)": "5a94feca",
					"getTraceById(bytes32)": "58fb4ad7",
					"setProductState(bytes32,uint8)": "dc964cb6"
				}
			},
			"storageLayout": {
				"storage": [
					{
						"astId": 39,
						"contract": "contracts/trace.sol:Traceability",
						"label": "products",
						"offset": 0,
						"slot": "0",
						"type": "t_mapping(t_bytes32,t_struct(Product)34_storage)"
					},
					{
						"astId": 45,
						"contract": "contracts/trace.sol:Traceability",
						"label": "productTraces",
						"offset": 0,
						"slot": "1",
						"type": "t_mapping(t_bytes32,t_array(t_struct(Trace)16_storage)dyn_storage)"
					},
					{
						"astId": 49,
						"contract": "contracts/trace.sol:Traceability",
						"label": "traceToProduct",
						"offset": 0,
						"slot": "2",
						"type": "t_mapping(t_bytes32,t_bytes32)"
					},
					{
						"astId": 52,
						"contract": "contracts/trace.sol:Traceability",
						"label": "productIds",
						"offset": 0,
						"slot": "3",
						"type": "t_array(t_bytes32)dyn_storage"
					}
				],
				"types": {
					"t_address": {
						"encoding": "inplace",
						"label": "address",
						"numberOfBytes": "20"
					},
					"t_array(t_bytes32)dyn_storage": {
						"base": "t_bytes32",
						"encoding": "dynamic_array",
						"label": "bytes32[]",
						"numberOfBytes": "32"
					},
					"t_array(t_struct(Trace)16_storage)dyn_storage": {
						"base": "t_struct(Trace)16_storage",
						"encoding": "dynamic_array",
						"label": "struct Traceability.Trace[]",
						"numberOfBytes": "32"
					},
					"t_bool": {
						"encoding": "inplace",
						"label": "bool",
						"numberOfBytes": "1"
					},
					"t_bytes32": {
						"encoding": "inplace",
						"label": "bytes32",
						"numberOfBytes": "32"
					},
					"t_enum(State)4": {
						"encoding": "inplace",
						"label": "enum Traceability.State",
						"numberOfBytes": "1"
					},
					"t_mapping(t_bytes32,t_array(t_struct(Trace)16_storage)dyn_storage)": {
						"encoding": "mapping",
						"key": "t_bytes32",
						"label": "mapping(bytes32 => struct Traceability.Trace[])",
						"numberOfBytes": "32",
						"value": "t_array(t_struct(Trace)16_storage)dyn_storage"
					},
					"t_mapping(t_bytes32,t_bytes32)": {
						"encoding": "mapping",
						"key": "t_bytes32",
						"label": "mapping(bytes32 => bytes32)",
						"numberOfBytes": "32",
						"value": "t_bytes32"
					},
					"t_mapping(t_bytes32,t_struct(Product)34_storage)": {
						"encoding": "mapping",
						"key": "t_bytes32",
						"label": "mapping(bytes32 => struct Traceability.Product)",
						"numberOfBytes": "32",
						"value": "t_struct(Product)34_storage"
					},
					"t_string_storage": {
						"encoding": "bytes",
						"label": "string",
						"numberOfBytes": "32"
					},
					"t_struct(Product)34_storage": {
						"encoding": "inplace",
						"label": "struct Traceability.Product",
						"members": [
							{
								"astId": 18,
								"contract": "contracts/trace.sol:Traceability",
								"label": "id",
								"offset": 0,
								"slot": "0",
								"type": "t_bytes32"
							},
							{
								"astId": 20,
								"contract": "contracts/trace.sol:Traceability",
								"label": "codebar",
								"offset": 0,
								"slot": "1",
								"type": "t_string_storage"
							},
							{
								"astId": 22,
								"contract": "contracts/trace.sol:Traceability",
								"label": "name",
								"offset": 0,
								"slot": "2",
								"type": "t_string_storage"
							},
							{
								"astId": 24,
								"contract": "contracts/trace.sol:Traceability",
								"label": "description",
								"offset": 0,
								"slot": "3",
								"type": "t_string_storage"
							},
							{
								"astId": 26,
								"contract": "contracts/trace.sol:Traceability",
								"label": "timestamp",
								"offset": 0,
								"slot": "4",
								"type": "t_uint256"
							},
							{
								"astId": 28,
								"contract": "contracts/trace.sol:Traceability",
								"label": "author",
								"offset": 0,
								"slot": "5",
								"type": "t_address"
							},
							{
								"astId": 31,
								"contract": "contracts/trace.sol:Traceability",
								"label": "state",
								"offset": 20,
								"slot": "5",
								"type": "t_enum(State)4"
							},
							{
								"astId": 33,
								"contract": "contracts/trace.sol:Traceability",
								"label": "exists",
								"offset": 21,
								"slot": "5",
								"type": "t_bool"
							}
						],
						"numberOfBytes": "192"
					},
					"t_struct(Trace)16_storage": {
						"encoding": "inplace",
						"label": "struct Traceability.Trace",
						"members": [
							{
								"astId": 6,
								"contract": "contracts/trace.sol:Traceability",
								"label": "id",
								"offset": 0,
								"slot": "0",
								"type": "t_bytes32"
							},
							{
								"astId": 8,
								"contract": "contracts/trace.sol:Traceability",
								"label": "description",
								"offset": 0,
								"slot": "1",
								"type": "t_string_storage"
							},
							{
								"astId": 10,
								"contract": "contracts/trace.sol:Traceability",
								"label": "timestamp",
								"offset": 0,
								"slot": "2",
								"type": "t_uint256"
							},
							{
								"astId": 12,
								"contract": "contracts/trace.sol:Traceability",
								"label": "author",
								"offset": 0,
								"slot": "3",
								"type": "t_address"
							},
							{
								"astId": 15,
								"contract": "contracts/trace.sol:Traceability",
								"label": "state",
								"offset": 20,
								"slot": "3",
								"type": "t_enum(State)4"
							}
						],
						"numberOfBytes": "128"
					},
					"t_uint256": {
						"encoding": "inplace",
						"label": "uint256",
						"numberOfBytes": "32"
					}
				}
			},
			"userdoc": {
				"kind": "user",
				"methods": {},
				"version": 1
			}
		}
	}
}